{
	"v2_periphery/UniswapV2Router02Part.sol": {
		"UniswapV2Router02Part": {
			"abi": [
				{
					"inputs": [
						{
							"internalType": "address",
							"name": "_factory",
							"type": "address"
						},
						{
							"internalType": "address",
							"name": "_WETH",
							"type": "address"
						}
					],
					"stateMutability": "nonpayable",
					"type": "constructor"
				},
				{
					"inputs": [],
					"name": "WETH",
					"outputs": [
						{
							"internalType": "address",
							"name": "",
							"type": "address"
						}
					],
					"stateMutability": "view",
					"type": "function"
				},
				{
					"inputs": [],
					"name": "factory",
					"outputs": [
						{
							"internalType": "address",
							"name": "",
							"type": "address"
						}
					],
					"stateMutability": "view",
					"type": "function"
				},
				{
					"inputs": [
						{
							"internalType": "uint256",
							"name": "amountOutMin",
							"type": "uint256"
						},
						{
							"internalType": "address[]",
							"name": "path",
							"type": "address[]"
						},
						{
							"internalType": "address",
							"name": "to",
							"type": "address"
						},
						{
							"internalType": "uint256",
							"name": "deadline",
							"type": "uint256"
						}
					],
					"name": "swapExactETHForTokensSupportingFeeOnTransferTokens",
					"outputs": [],
					"stateMutability": "payable",
					"type": "function"
				},
				{
					"inputs": [
						{
							"internalType": "uint256",
							"name": "amountIn",
							"type": "uint256"
						},
						{
							"internalType": "uint256",
							"name": "amountOutMin",
							"type": "uint256"
						},
						{
							"internalType": "address[]",
							"name": "path",
							"type": "address[]"
						},
						{
							"internalType": "address",
							"name": "to",
							"type": "address"
						},
						{
							"internalType": "uint256",
							"name": "deadline",
							"type": "uint256"
						}
					],
					"name": "swapExactTokensForETHSupportingFeeOnTransferTokens",
					"outputs": [],
					"stateMutability": "nonpayable",
					"type": "function"
				},
				{
					"inputs": [
						{
							"internalType": "uint256",
							"name": "amountIn",
							"type": "uint256"
						},
						{
							"internalType": "uint256",
							"name": "amountOutMin",
							"type": "uint256"
						},
						{
							"internalType": "address[]",
							"name": "path",
							"type": "address[]"
						},
						{
							"internalType": "address",
							"name": "to",
							"type": "address"
						},
						{
							"internalType": "uint256",
							"name": "deadline",
							"type": "uint256"
						}
					],
					"name": "swapExactTokensForTokensSupportingFeeOnTransferTokens",
					"outputs": [],
					"stateMutability": "nonpayable",
					"type": "function"
				}
			],
			"devdoc": {
				"kind": "dev",
				"methods": {},
				"version": 1
			},
			"evm": {
				"assembly": "    /* \"v2_periphery/UniswapV2Router02Part.sol\":423:4466  contract UniswapV2Router02Part  {... */\n  mstore(0x40, 0x80)\n    /* \"v2_periphery/UniswapV2Router02Part.sol\":519:624  constructor(address _factory, address _WETH) {... */\n  callvalue\n  dup1\n  iszero\n  tag_1\n  jumpi\n  0x00\n  dup1\n  revert\ntag_1:\n  pop\n  mload(0x40)\n  sub(codesize, bytecodeSize)\n  dup1\n  bytecodeSize\n  dup4\n  codecopy\n  dup2\n  dup2\n  add\n  0x40\n  mstore\n  dup2\n  add\n  swap1\n  tag_2\n  swap2\n  swap1\n  tag_3\n  jump\t// in\ntag_2:\n    /* \"v2_periphery/UniswapV2Router02Part.sol\":585:593  _factory */\n  dup2\n    /* \"v2_periphery/UniswapV2Router02Part.sol\":575:582  factory */\n  0x00\n  dup1\n    /* \"v2_periphery/UniswapV2Router02Part.sol\":575:593  factory = _factory */\n  0x0100\n  exp\n  dup2\n  sload\n  dup2\n  0xffffffffffffffffffffffffffffffffffffffff\n  mul\n  not\n  and\n  swap1\n  dup4\n  0xffffffffffffffffffffffffffffffffffffffff\n  and\n  mul\n  or\n  swap1\n  sstore\n  pop\n    /* \"v2_periphery/UniswapV2Router02Part.sol\":611:616  _WETH */\n  dup1\n    /* \"v2_periphery/UniswapV2Router02Part.sol\":604:608  WETH */\n  0x01\n  0x00\n    /* \"v2_periphery/UniswapV2Router02Part.sol\":604:616  WETH = _WETH */\n  0x0100\n  exp\n  dup2\n  sload\n  dup2\n  0xffffffffffffffffffffffffffffffffffffffff\n  mul\n  not\n  and\n  swap1\n  dup4\n  0xffffffffffffffffffffffffffffffffffffffff\n  and\n  mul\n  or\n  swap1\n  sstore\n  pop\n    /* \"v2_periphery/UniswapV2Router02Part.sol\":519:624  constructor(address _factory, address _WETH) {... */\n  pop\n  pop\n    /* \"v2_periphery/UniswapV2Router02Part.sol\":423:4466  contract UniswapV2Router02Part  {... */\n  jump(tag_6)\n    /* \"#utility.yul\":88:205   */\ntag_8:\n    /* \"#utility.yul\":197:198   */\n  0x00\n    /* \"#utility.yul\":194:195   */\n  dup1\n    /* \"#utility.yul\":187:199   */\n  revert\n    /* \"#utility.yul\":334:460   */\ntag_10:\n    /* \"#utility.yul\":371:378   */\n  0x00\n    /* \"#utility.yul\":411:453   */\n  0xffffffffffffffffffffffffffffffffffffffff\n    /* \"#utility.yul\":404:409   */\n  dup3\n    /* \"#utility.yul\":400:454   */\n  and\n    /* \"#utility.yul\":389:454   */\n  swap1\n  pop\n    /* \"#utility.yul\":334:460   */\n  swap2\n  swap1\n  pop\n  jump\t// out\n    /* \"#utility.yul\":466:562   */\ntag_11:\n    /* \"#utility.yul\":503:510   */\n  0x00\n    /* \"#utility.yul\":532:556   */\n  tag_20\n    /* \"#utility.yul\":550:555   */\n  dup3\n    /* \"#utility.yul\":532:556   */\n  tag_10\n  jump\t// in\ntag_20:\n    /* \"#utility.yul\":521:556   */\n  swap1\n  pop\n    /* \"#utility.yul\":466:562   */\n  swap2\n  swap1\n  pop\n  jump\t// out\n    /* \"#utility.yul\":568:690   */\ntag_12:\n    /* \"#utility.yul\":641:665   */\n  tag_22\n    /* \"#utility.yul\":659:664   */\n  dup2\n    /* \"#utility.yul\":641:665   */\n  tag_11\n  jump\t// in\ntag_22:\n    /* \"#utility.yul\":634:639   */\n  dup2\n    /* \"#utility.yul\":631:666   */\n  eq\n    /* \"#utility.yul\":621:684   */\n  tag_23\n  jumpi\n    /* \"#utility.yul\":680:681   */\n  0x00\n    /* \"#utility.yul\":677:678   */\n  dup1\n    /* \"#utility.yul\":670:682   */\n  revert\n    /* \"#utility.yul\":621:684   */\ntag_23:\n    /* \"#utility.yul\":568:690   */\n  pop\n  jump\t// out\n    /* \"#utility.yul\":696:839   */\ntag_13:\n    /* \"#utility.yul\":753:758   */\n  0x00\n    /* \"#utility.yul\":784:790   */\n  dup2\n    /* \"#utility.yul\":778:791   */\n  mload\n    /* \"#utility.yul\":769:791   */\n  swap1\n  pop\n    /* \"#utility.yul\":800:833   */\n  tag_25\n    /* \"#utility.yul\":827:832   */\n  dup2\n    /* \"#utility.yul\":800:833   */\n  tag_12\n  jump\t// in\ntag_25:\n    /* \"#utility.yul\":696:839   */\n  swap3\n  swap2\n  pop\n  pop\n  jump\t// out\n    /* \"#utility.yul\":845:1352   */\ntag_3:\n    /* \"#utility.yul\":924:930   */\n  0x00\n    /* \"#utility.yul\":932:938   */\n  dup1\n    /* \"#utility.yul\":981:983   */\n  0x40\n    /* \"#utility.yul\":969:978   */\n  dup4\n    /* \"#utility.yul\":960:967   */\n  dup6\n    /* \"#utility.yul\":956:979   */\n  sub\n    /* \"#utility.yul\":952:984   */\n  slt\n    /* \"#utility.yul\":949:1068   */\n  iszero\n  tag_27\n  jumpi\n    /* \"#utility.yul\":987:1066   */\n  tag_28\n  tag_8\n  jump\t// in\ntag_28:\n    /* \"#utility.yul\":949:1068   */\ntag_27:\n    /* \"#utility.yul\":1107:1108   */\n  0x00\n    /* \"#utility.yul\":1132:1196   */\n  tag_29\n    /* \"#utility.yul\":1188:1195   */\n  dup6\n    /* \"#utility.yul\":1179:1185   */\n  dup3\n    /* \"#utility.yul\":1168:1177   */\n  dup7\n    /* \"#utility.yul\":1164:1186   */\n  add\n    /* \"#utility.yul\":1132:1196   */\n  tag_13\n  jump\t// in\ntag_29:\n    /* \"#utility.yul\":1122:1196   */\n  swap3\n  pop\n    /* \"#utility.yul\":1078:1206   */\n  pop\n    /* \"#utility.yul\":1245:1247   */\n  0x20\n    /* \"#utility.yul\":1271:1335   */\n  tag_30\n    /* \"#utility.yul\":1327:1334   */\n  dup6\n    /* \"#utility.yul\":1318:1324   */\n  dup3\n    /* \"#utility.yul\":1307:1316   */\n  dup7\n    /* \"#utility.yul\":1303:1325   */\n  add\n    /* \"#utility.yul\":1271:1335   */\n  tag_13\n  jump\t// in\ntag_30:\n    /* \"#utility.yul\":1261:1335   */\n  swap2\n  pop\n    /* \"#utility.yul\":1216:1345   */\n  pop\n    /* \"#utility.yul\":845:1352   */\n  swap3\n  pop\n  swap3\n  swap1\n  pop\n  jump\t// out\n    /* \"v2_periphery/UniswapV2Router02Part.sol\":423:4466  contract UniswapV2Router02Part  {... */\ntag_6:\n  dataSize(sub_0)\n  dup1\n  dataOffset(sub_0)\n  0x00\n  codecopy\n  0x00\n  return\nstop\n\nsub_0: assembly {\n        /* \"v2_periphery/UniswapV2Router02Part.sol\":423:4466  contract UniswapV2Router02Part  {... */\n      mstore(0x40, 0x80)\n      jumpi(tag_1, lt(calldatasize, 0x04))\n      shr(0xe0, calldataload(0x00))\n      dup1\n      0x5c11d795\n      eq\n      tag_2\n      jumpi\n      dup1\n      0x791ac947\n      eq\n      tag_3\n      jumpi\n      dup1\n      0xad5c4648\n      eq\n      tag_4\n      jumpi\n      dup1\n      0xb6f9de95\n      eq\n      tag_5\n      jumpi\n      dup1\n      0xc45a0155\n      eq\n      tag_6\n      jumpi\n    tag_1:\n      0x00\n      dup1\n      revert\n        /* \"v2_periphery/UniswapV2Router02Part.sol\":2072:2775  function swapExactTokensForTokensSupportingFeeOnTransferTokens(... */\n    tag_2:\n      callvalue\n      dup1\n      iszero\n      tag_7\n      jumpi\n      0x00\n      dup1\n      revert\n    tag_7:\n      pop\n      tag_8\n      0x04\n      dup1\n      calldatasize\n      sub\n      dup2\n      add\n      swap1\n      tag_9\n      swap2\n      swap1\n      tag_10\n      jump\t// in\n    tag_9:\n      tag_11\n      jump\t// in\n    tag_8:\n      stop\n        /* \"v2_periphery/UniswapV2Router02Part.sol\":3626:4461  function swapExactTokensForETHSupportingFeeOnTransferTokens(... */\n    tag_3:\n      callvalue\n      dup1\n      iszero\n      tag_12\n      jumpi\n      0x00\n      dup1\n      revert\n    tag_12:\n      pop\n      tag_13\n      0x04\n      dup1\n      calldatasize\n      sub\n      dup2\n      add\n      swap1\n      tag_14\n      swap2\n      swap1\n      tag_10\n      jump\t// in\n    tag_14:\n      tag_15\n      jump\t// in\n    tag_13:\n      stop\n        /* \"v2_periphery/UniswapV2Router02Part.sol\":492:512  address public  WETH */\n    tag_4:\n      callvalue\n      dup1\n      iszero\n      tag_16\n      jumpi\n      0x00\n      dup1\n      revert\n    tag_16:\n      pop\n      tag_17\n      tag_18\n      jump\t// in\n    tag_17:\n      mload(0x40)\n      tag_19\n      swap2\n      swap1\n      tag_20\n      jump\t// in\n    tag_19:\n      mload(0x40)\n      dup1\n      swap2\n      sub\n      swap1\n      return\n        /* \"v2_periphery/UniswapV2Router02Part.sol\":2781:3620  function swapExactETHForTokensSupportingFeeOnTransferTokens(... */\n    tag_5:\n      tag_21\n      0x04\n      dup1\n      calldatasize\n      sub\n      dup2\n      add\n      swap1\n      tag_22\n      swap2\n      swap1\n      tag_23\n      jump\t// in\n    tag_22:\n      tag_24\n      jump\t// in\n    tag_21:\n      stop\n        /* \"v2_periphery/UniswapV2Router02Part.sol\":462:485  address public  factory */\n    tag_6:\n      callvalue\n      dup1\n      iszero\n      tag_25\n      jumpi\n      0x00\n      dup1\n      revert\n    tag_25:\n      pop\n      tag_26\n      tag_27\n      jump\t// in\n    tag_26:\n      mload(0x40)\n      tag_28\n      swap2\n      swap1\n      tag_20\n      jump\t// in\n    tag_28:\n      mload(0x40)\n      dup1\n      swap2\n      sub\n      swap1\n      return\n        /* \"v2_periphery/UniswapV2Router02Part.sol\":2072:2775  function swapExactTokensForTokensSupportingFeeOnTransferTokens(... */\n    tag_11:\n        /* \"v2_periphery/UniswapV2Router02Part.sol\":2298:2306  deadline */\n      dup1\n        /* \"v2_periphery/UniswapV2Router02Part.sol\":692:707  block.timestamp */\n      timestamp\n        /* \"v2_periphery/UniswapV2Router02Part.sol\":680:688  deadline */\n      dup2\n        /* \"v2_periphery/UniswapV2Router02Part.sol\":680:707  deadline >= block.timestamp */\n      lt\n      iszero\n        /* \"v2_periphery/UniswapV2Router02Part.sol\":672:736  require(deadline >= block.timestamp, 'UniswapV2Router: EXPIRED') */\n      tag_30\n      jumpi\n      mload(0x40)\n      0x08c379a000000000000000000000000000000000000000000000000000000000\n      dup2\n      mstore\n      0x04\n      add\n      tag_31\n      swap1\n      tag_32\n      jump\t// in\n    tag_31:\n      mload(0x40)\n      dup1\n      swap2\n      sub\n      swap1\n      revert\n    tag_30:\n        /* \"v2_periphery/UniswapV2Router02Part.sol\":2319:2458  TransferHelper.safeTransferFrom(... */\n      tag_34\n        /* \"v2_periphery/UniswapV2Router02Part.sol\":2365:2369  path */\n      dup6\n      dup6\n        /* \"v2_periphery/UniswapV2Router02Part.sol\":2370:2371  0 */\n      0x00\n        /* \"v2_periphery/UniswapV2Router02Part.sol\":2365:2372  path[0] */\n      dup2\n      dup2\n      lt\n      tag_35\n      jumpi\n      tag_36\n      tag_37\n      jump\t// in\n    tag_36:\n    tag_35:\n      swap1\n      pop\n      0x20\n      mul\n      add\n      0x20\n      dup2\n      add\n      swap1\n      tag_38\n      swap2\n      swap1\n      tag_39\n      jump\t// in\n    tag_38:\n        /* \"v2_periphery/UniswapV2Router02Part.sol\":2374:2384  msg.sender */\n      caller\n        /* \"v2_periphery/UniswapV2Router02Part.sol\":2386:2437  UniswapV2Library.pairFor(factory, path[0], path[1]) */\n      tag_40\n        /* \"v2_periphery/UniswapV2Router02Part.sol\":2411:2418  factory */\n      0x00\n      dup1\n      sload\n      swap1\n      0x0100\n      exp\n      swap1\n      div\n      0xffffffffffffffffffffffffffffffffffffffff\n      and\n        /* \"v2_periphery/UniswapV2Router02Part.sol\":2420:2424  path */\n      dup10\n      dup10\n        /* \"v2_periphery/UniswapV2Router02Part.sol\":2425:2426  0 */\n      0x00\n        /* \"v2_periphery/UniswapV2Router02Part.sol\":2420:2427  path[0] */\n      dup2\n      dup2\n      lt\n      tag_41\n      jumpi\n      tag_42\n      tag_37\n      jump\t// in\n    tag_42:\n    tag_41:\n      swap1\n      pop\n      0x20\n      mul\n      add\n      0x20\n      dup2\n      add\n      swap1\n      tag_43\n      swap2\n      swap1\n      tag_39\n      jump\t// in\n    tag_43:\n        /* \"v2_periphery/UniswapV2Router02Part.sol\":2429:2433  path */\n      dup11\n      dup11\n        /* \"v2_periphery/UniswapV2Router02Part.sol\":2434:2435  1 */\n      0x01\n        /* \"v2_periphery/UniswapV2Router02Part.sol\":2429:2436  path[1] */\n      dup2\n      dup2\n      lt\n      tag_44\n      jumpi\n      tag_45\n      tag_37\n      jump\t// in\n    tag_45:\n    tag_44:\n      swap1\n      pop\n      0x20\n      mul\n      add\n      0x20\n      dup2\n      add\n      swap1\n      tag_46\n      swap2\n      swap1\n      tag_39\n      jump\t// in\n    tag_46:\n        /* \"v2_periphery/UniswapV2Router02Part.sol\":2386:2410  UniswapV2Library.pairFor */\n      tag_47\n        /* \"v2_periphery/UniswapV2Router02Part.sol\":2386:2437  UniswapV2Library.pairFor(factory, path[0], path[1]) */\n      jump\t// in\n    tag_40:\n        /* \"v2_periphery/UniswapV2Router02Part.sol\":2439:2447  amountIn */\n      dup11\n        /* \"v2_periphery/UniswapV2Router02Part.sol\":2319:2350  TransferHelper.safeTransferFrom */\n      tag_48\n        /* \"v2_periphery/UniswapV2Router02Part.sol\":2319:2458  TransferHelper.safeTransferFrom(... */\n      jump\t// in\n    tag_34:\n        /* \"v2_periphery/UniswapV2Router02Part.sol\":2469:2487  uint balanceBefore */\n      0x00\n        /* \"v2_periphery/UniswapV2Router02Part.sol\":2497:2501  path */\n      dup6\n      dup6\n        /* \"v2_periphery/UniswapV2Router02Part.sol\":2516:2517  1 */\n      0x01\n        /* \"v2_periphery/UniswapV2Router02Part.sol\":2502:2506  path */\n      dup9\n      dup9\n        /* \"v2_periphery/UniswapV2Router02Part.sol\":2502:2513  path.length */\n      swap1\n      pop\n        /* \"v2_periphery/UniswapV2Router02Part.sol\":2502:2517  path.length - 1 */\n      tag_49\n      swap2\n      swap1\n      tag_50\n      jump\t// in\n    tag_49:\n        /* \"v2_periphery/UniswapV2Router02Part.sol\":2497:2518  path[path.length - 1] */\n      dup2\n      dup2\n      lt\n      tag_51\n      jumpi\n      tag_52\n      tag_37\n      jump\t// in\n    tag_52:\n    tag_51:\n      swap1\n      pop\n      0x20\n      mul\n      add\n      0x20\n      dup2\n      add\n      swap1\n      tag_53\n      swap2\n      swap1\n      tag_39\n      jump\t// in\n    tag_53:\n        /* \"v2_periphery/UniswapV2Router02Part.sol\":2490:2529  IERC20(path[path.length - 1]).balanceOf */\n      0xffffffffffffffffffffffffffffffffffffffff\n      and\n      0x70a08231\n        /* \"v2_periphery/UniswapV2Router02Part.sol\":2530:2532  to */\n      dup6\n        /* \"v2_periphery/UniswapV2Router02Part.sol\":2490:2533  IERC20(path[path.length - 1]).balanceOf(to) */\n      mload(0x40)\n      dup3\n      0xffffffff\n      and\n      0xe0\n      shl\n      dup2\n      mstore\n      0x04\n      add\n      tag_54\n      swap2\n      swap1\n      tag_20\n      jump\t// in\n    tag_54:\n      0x20\n      mload(0x40)\n      dup1\n      dup4\n      sub\n      dup2\n      dup7\n      gas\n      staticcall\n      iszero\n      dup1\n      iszero\n      tag_56\n      jumpi\n      returndatasize\n      0x00\n      dup1\n      returndatacopy\n      revert(0x00, returndatasize)\n    tag_56:\n      pop\n      pop\n      pop\n      pop\n      mload(0x40)\n      returndatasize\n      not(0x1f)\n      0x1f\n      dup3\n      add\n      and\n      dup3\n      add\n      dup1\n      0x40\n      mstore\n      pop\n      dup2\n      add\n      swap1\n      tag_57\n      swap2\n      swap1\n      tag_58\n      jump\t// in\n    tag_57:\n        /* \"v2_periphery/UniswapV2Router02Part.sol\":2469:2533  uint balanceBefore = IERC20(path[path.length - 1]).balanceOf(to) */\n      swap1\n      pop\n        /* \"v2_periphery/UniswapV2Router02Part.sol\":2544:2588  _swapSupportingFeeOnTransferTokens(path, to) */\n      tag_59\n        /* \"v2_periphery/UniswapV2Router02Part.sol\":2579:2583  path */\n      dup7\n      dup7\n        /* \"v2_periphery/UniswapV2Router02Part.sol\":2544:2588  _swapSupportingFeeOnTransferTokens(path, to) */\n      dup1\n      dup1\n      0x20\n      mul\n      0x20\n      add\n      mload(0x40)\n      swap1\n      dup2\n      add\n      0x40\n      mstore\n      dup1\n      swap4\n      swap3\n      swap2\n      swap1\n      dup2\n      dup2\n      mstore\n      0x20\n      add\n      dup4\n      dup4\n      0x20\n      mul\n      dup1\n      dup3\n      dup5\n      calldatacopy\n      0x00\n      dup2\n      dup5\n      add\n      mstore\n      not(0x1f)\n      0x1f\n      dup3\n      add\n      and\n      swap1\n      pop\n      dup1\n      dup4\n      add\n      swap3\n      pop\n      pop\n      pop\n      pop\n      pop\n      pop\n      pop\n        /* \"v2_periphery/UniswapV2Router02Part.sol\":2585:2587  to */\n      dup6\n        /* \"v2_periphery/UniswapV2Router02Part.sol\":2544:2578  _swapSupportingFeeOnTransferTokens */\n      tag_60\n        /* \"v2_periphery/UniswapV2Router02Part.sol\":2544:2588  _swapSupportingFeeOnTransferTokens(path, to) */\n      jump\t// in\n    tag_59:\n        /* \"v2_periphery/UniswapV2Router02Part.sol\":2684:2696  amountOutMin */\n      dup7\n        /* \"v2_periphery/UniswapV2Router02Part.sol\":2667:2680  balanceBefore */\n      dup2\n        /* \"v2_periphery/UniswapV2Router02Part.sol\":2628:2632  path */\n      dup8\n      dup8\n        /* \"v2_periphery/UniswapV2Router02Part.sol\":2647:2648  1 */\n      0x01\n        /* \"v2_periphery/UniswapV2Router02Part.sol\":2633:2637  path */\n      dup11\n      dup11\n        /* \"v2_periphery/UniswapV2Router02Part.sol\":2633:2644  path.length */\n      swap1\n      pop\n        /* \"v2_periphery/UniswapV2Router02Part.sol\":2633:2648  path.length - 1 */\n      tag_61\n      swap2\n      swap1\n      tag_50\n      jump\t// in\n    tag_61:\n        /* \"v2_periphery/UniswapV2Router02Part.sol\":2628:2649  path[path.length - 1] */\n      dup2\n      dup2\n      lt\n      tag_62\n      jumpi\n      tag_63\n      tag_37\n      jump\t// in\n    tag_63:\n    tag_62:\n      swap1\n      pop\n      0x20\n      mul\n      add\n      0x20\n      dup2\n      add\n      swap1\n      tag_64\n      swap2\n      swap1\n      tag_39\n      jump\t// in\n    tag_64:\n        /* \"v2_periphery/UniswapV2Router02Part.sol\":2621:2660  IERC20(path[path.length - 1]).balanceOf */\n      0xffffffffffffffffffffffffffffffffffffffff\n      and\n      0x70a08231\n        /* \"v2_periphery/UniswapV2Router02Part.sol\":2661:2663  to */\n      dup8\n        /* \"v2_periphery/UniswapV2Router02Part.sol\":2621:2664  IERC20(path[path.length - 1]).balanceOf(to) */\n      mload(0x40)\n      dup3\n      0xffffffff\n      and\n      0xe0\n      shl\n      dup2\n      mstore\n      0x04\n      add\n      tag_65\n      swap2\n      swap1\n      tag_20\n      jump\t// in\n    tag_65:\n      0x20\n      mload(0x40)\n      dup1\n      dup4\n      sub\n      dup2\n      dup7\n      gas\n      staticcall\n      iszero\n      dup1\n      iszero\n      tag_67\n      jumpi\n      returndatasize\n      0x00\n      dup1\n      returndatacopy\n      revert(0x00, returndatasize)\n    tag_67:\n      pop\n      pop\n      pop\n      pop\n      mload(0x40)\n      returndatasize\n      not(0x1f)\n      0x1f\n      dup3\n      add\n      and\n      dup3\n      add\n      dup1\n      0x40\n      mstore\n      pop\n      dup2\n      add\n      swap1\n      tag_68\n      swap2\n      swap1\n      tag_58\n      jump\t// in\n    tag_68:\n        /* \"v2_periphery/UniswapV2Router02Part.sol\":2621:2680  IERC20(path[path.length - 1]).balanceOf(to) - balanceBefore */\n      tag_69\n      swap2\n      swap1\n      tag_50\n      jump\t// in\n    tag_69:\n        /* \"v2_periphery/UniswapV2Router02Part.sol\":2621:2696  IERC20(path[path.length - 1]).balanceOf(to) - balanceBefore >= amountOutMin */\n      lt\n      iszero\n        /* \"v2_periphery/UniswapV2Router02Part.sol\":2599:2767  require(... */\n      tag_70\n      jumpi\n      mload(0x40)\n      0x08c379a000000000000000000000000000000000000000000000000000000000\n      dup2\n      mstore\n      0x04\n      add\n      tag_71\n      swap1\n      tag_72\n      jump\t// in\n    tag_71:\n      mload(0x40)\n      dup1\n      swap2\n      sub\n      swap1\n      revert\n    tag_70:\n        /* \"v2_periphery/UniswapV2Router02Part.sol\":2308:2775  {... */\n      pop\n        /* \"v2_periphery/UniswapV2Router02Part.sol\":2072:2775  function swapExactTokensForTokensSupportingFeeOnTransferTokens(... */\n      pop\n      pop\n      pop\n      pop\n      pop\n      pop\n      pop\n      jump\t// out\n        /* \"v2_periphery/UniswapV2Router02Part.sol\":3626:4461  function swapExactTokensForETHSupportingFeeOnTransferTokens(... */\n    tag_15:\n        /* \"v2_periphery/UniswapV2Router02Part.sol\":3885:3893  deadline */\n      dup1\n        /* \"v2_periphery/UniswapV2Router02Part.sol\":692:707  block.timestamp */\n      timestamp\n        /* \"v2_periphery/UniswapV2Router02Part.sol\":680:688  deadline */\n      dup2\n        /* \"v2_periphery/UniswapV2Router02Part.sol\":680:707  deadline >= block.timestamp */\n      lt\n      iszero\n        /* \"v2_periphery/UniswapV2Router02Part.sol\":672:736  require(deadline >= block.timestamp, 'UniswapV2Router: EXPIRED') */\n      tag_74\n      jumpi\n      mload(0x40)\n      0x08c379a000000000000000000000000000000000000000000000000000000000\n      dup2\n      mstore\n      0x04\n      add\n      tag_75\n      swap1\n      tag_32\n      jump\t// in\n    tag_75:\n      mload(0x40)\n      dup1\n      swap2\n      sub\n      swap1\n      revert\n    tag_74:\n        /* \"v2_periphery/UniswapV2Router02Part.sol\":3944:3948  WETH */\n      0x01\n      0x00\n      swap1\n      sload\n      swap1\n      0x0100\n      exp\n      swap1\n      div\n      0xffffffffffffffffffffffffffffffffffffffff\n      and\n        /* \"v2_periphery/UniswapV2Router02Part.sol\":3919:3948  path[path.length - 1] == WETH */\n      0xffffffffffffffffffffffffffffffffffffffff\n      and\n        /* \"v2_periphery/UniswapV2Router02Part.sol\":3919:3923  path */\n      dup6\n      dup6\n        /* \"v2_periphery/UniswapV2Router02Part.sol\":3938:3939  1 */\n      0x01\n        /* \"v2_periphery/UniswapV2Router02Part.sol\":3924:3928  path */\n      dup9\n      dup9\n        /* \"v2_periphery/UniswapV2Router02Part.sol\":3924:3935  path.length */\n      swap1\n      pop\n        /* \"v2_periphery/UniswapV2Router02Part.sol\":3924:3939  path.length - 1 */\n      tag_77\n      swap2\n      swap1\n      tag_50\n      jump\t// in\n    tag_77:\n        /* \"v2_periphery/UniswapV2Router02Part.sol\":3919:3940  path[path.length - 1] */\n      dup2\n      dup2\n      lt\n      tag_78\n      jumpi\n      tag_79\n      tag_37\n      jump\t// in\n    tag_79:\n    tag_78:\n      swap1\n      pop\n      0x20\n      mul\n      add\n      0x20\n      dup2\n      add\n      swap1\n      tag_80\n      swap2\n      swap1\n      tag_39\n      jump\t// in\n    tag_80:\n        /* \"v2_periphery/UniswapV2Router02Part.sol\":3919:3948  path[path.length - 1] == WETH */\n      0xffffffffffffffffffffffffffffffffffffffff\n      and\n      eq\n        /* \"v2_periphery/UniswapV2Router02Part.sol\":3911:3982  require(path[path.length - 1] == WETH, 'UniswapV2Router: INVALID_PATH') */\n      tag_81\n      jumpi\n      mload(0x40)\n      0x08c379a000000000000000000000000000000000000000000000000000000000\n      dup2\n      mstore\n      0x04\n      add\n      tag_82\n      swap1\n      tag_83\n      jump\t// in\n    tag_82:\n      mload(0x40)\n      dup1\n      swap2\n      sub\n      swap1\n      revert\n    tag_81:\n        /* \"v2_periphery/UniswapV2Router02Part.sol\":3993:4132  TransferHelper.safeTransferFrom(... */\n      tag_84\n        /* \"v2_periphery/UniswapV2Router02Part.sol\":4039:4043  path */\n      dup6\n      dup6\n        /* \"v2_periphery/UniswapV2Router02Part.sol\":4044:4045  0 */\n      0x00\n        /* \"v2_periphery/UniswapV2Router02Part.sol\":4039:4046  path[0] */\n      dup2\n      dup2\n      lt\n      tag_85\n      jumpi\n      tag_86\n      tag_37\n      jump\t// in\n    tag_86:\n    tag_85:\n      swap1\n      pop\n      0x20\n      mul\n      add\n      0x20\n      dup2\n      add\n      swap1\n      tag_87\n      swap2\n      swap1\n      tag_39\n      jump\t// in\n    tag_87:\n        /* \"v2_periphery/UniswapV2Router02Part.sol\":4048:4058  msg.sender */\n      caller\n        /* \"v2_periphery/UniswapV2Router02Part.sol\":4060:4111  UniswapV2Library.pairFor(factory, path[0], path[1]) */\n      tag_88\n        /* \"v2_periphery/UniswapV2Router02Part.sol\":4085:4092  factory */\n      0x00\n      dup1\n      sload\n      swap1\n      0x0100\n      exp\n      swap1\n      div\n      0xffffffffffffffffffffffffffffffffffffffff\n      and\n        /* \"v2_periphery/UniswapV2Router02Part.sol\":4094:4098  path */\n      dup10\n      dup10\n        /* \"v2_periphery/UniswapV2Router02Part.sol\":4099:4100  0 */\n      0x00\n        /* \"v2_periphery/UniswapV2Router02Part.sol\":4094:4101  path[0] */\n      dup2\n      dup2\n      lt\n      tag_89\n      jumpi\n      tag_90\n      tag_37\n      jump\t// in\n    tag_90:\n    tag_89:\n      swap1\n      pop\n      0x20\n      mul\n      add\n      0x20\n      dup2\n      add\n      swap1\n      tag_91\n      swap2\n      swap1\n      tag_39\n      jump\t// in\n    tag_91:\n        /* \"v2_periphery/UniswapV2Router02Part.sol\":4103:4107  path */\n      dup11\n      dup11\n        /* \"v2_periphery/UniswapV2Router02Part.sol\":4108:4109  1 */\n      0x01\n        /* \"v2_periphery/UniswapV2Router02Part.sol\":4103:4110  path[1] */\n      dup2\n      dup2\n      lt\n      tag_92\n      jumpi\n      tag_93\n      tag_37\n      jump\t// in\n    tag_93:\n    tag_92:\n      swap1\n      pop\n      0x20\n      mul\n      add\n      0x20\n      dup2\n      add\n      swap1\n      tag_94\n      swap2\n      swap1\n      tag_39\n      jump\t// in\n    tag_94:\n        /* \"v2_periphery/UniswapV2Router02Part.sol\":4060:4084  UniswapV2Library.pairFor */\n      tag_47\n        /* \"v2_periphery/UniswapV2Router02Part.sol\":4060:4111  UniswapV2Library.pairFor(factory, path[0], path[1]) */\n      jump\t// in\n    tag_88:\n        /* \"v2_periphery/UniswapV2Router02Part.sol\":4113:4121  amountIn */\n      dup11\n        /* \"v2_periphery/UniswapV2Router02Part.sol\":3993:4024  TransferHelper.safeTransferFrom */\n      tag_48\n        /* \"v2_periphery/UniswapV2Router02Part.sol\":3993:4132  TransferHelper.safeTransferFrom(... */\n      jump\t// in\n    tag_84:\n        /* \"v2_periphery/UniswapV2Router02Part.sol\":4143:4198  _swapSupportingFeeOnTransferTokens(path, address(this)) */\n      tag_95\n        /* \"v2_periphery/UniswapV2Router02Part.sol\":4178:4182  path */\n      dup6\n      dup6\n        /* \"v2_periphery/UniswapV2Router02Part.sol\":4143:4198  _swapSupportingFeeOnTransferTokens(path, address(this)) */\n      dup1\n      dup1\n      0x20\n      mul\n      0x20\n      add\n      mload(0x40)\n      swap1\n      dup2\n      add\n      0x40\n      mstore\n      dup1\n      swap4\n      swap3\n      swap2\n      swap1\n      dup2\n      dup2\n      mstore\n      0x20\n      add\n      dup4\n      dup4\n      0x20\n      mul\n      dup1\n      dup3\n      dup5\n      calldatacopy\n      0x00\n      dup2\n      dup5\n      add\n      mstore\n      not(0x1f)\n      0x1f\n      dup3\n      add\n      and\n      swap1\n      pop\n      dup1\n      dup4\n      add\n      swap3\n      pop\n      pop\n      pop\n      pop\n      pop\n      pop\n      pop\n        /* \"v2_periphery/UniswapV2Router02Part.sol\":4192:4196  this */\n      address\n        /* \"v2_periphery/UniswapV2Router02Part.sol\":4143:4177  _swapSupportingFeeOnTransferTokens */\n      tag_60\n        /* \"v2_periphery/UniswapV2Router02Part.sol\":4143:4198  _swapSupportingFeeOnTransferTokens(path, address(this)) */\n      jump\t// in\n    tag_95:\n        /* \"v2_periphery/UniswapV2Router02Part.sol\":4209:4223  uint amountOut */\n      0x00\n        /* \"v2_periphery/UniswapV2Router02Part.sol\":4233:4237  WETH */\n      0x01\n      0x00\n      swap1\n      sload\n      swap1\n      0x0100\n      exp\n      swap1\n      div\n      0xffffffffffffffffffffffffffffffffffffffff\n      and\n        /* \"v2_periphery/UniswapV2Router02Part.sol\":4226:4248  IERC20(WETH).balanceOf */\n      0xffffffffffffffffffffffffffffffffffffffff\n      and\n      0x70a08231\n        /* \"v2_periphery/UniswapV2Router02Part.sol\":4257:4261  this */\n      address\n        /* \"v2_periphery/UniswapV2Router02Part.sol\":4226:4263  IERC20(WETH).balanceOf(address(this)) */\n      mload(0x40)\n      dup3\n      0xffffffff\n      and\n      0xe0\n      shl\n      dup2\n      mstore\n      0x04\n      add\n      tag_96\n      swap2\n      swap1\n      tag_20\n      jump\t// in\n    tag_96:\n      0x20\n      mload(0x40)\n      dup1\n      dup4\n      sub\n      dup2\n      dup7\n      gas\n      staticcall\n      iszero\n      dup1\n      iszero\n      tag_98\n      jumpi\n      returndatasize\n      0x00\n      dup1\n      returndatacopy\n      revert(0x00, returndatasize)\n    tag_98:\n      pop\n      pop\n      pop\n      pop\n      mload(0x40)\n      returndatasize\n      not(0x1f)\n      0x1f\n      dup3\n      add\n      and\n      dup3\n      add\n      dup1\n      0x40\n      mstore\n      pop\n      dup2\n      add\n      swap1\n      tag_99\n      swap2\n      swap1\n      tag_58\n      jump\t// in\n    tag_99:\n        /* \"v2_periphery/UniswapV2Router02Part.sol\":4209:4263  uint amountOut = IERC20(WETH).balanceOf(address(this)) */\n      swap1\n      pop\n        /* \"v2_periphery/UniswapV2Router02Part.sol\":4295:4307  amountOutMin */\n      dup7\n        /* \"v2_periphery/UniswapV2Router02Part.sol\":4282:4291  amountOut */\n      dup2\n        /* \"v2_periphery/UniswapV2Router02Part.sol\":4282:4307  amountOut >= amountOutMin */\n      lt\n      iszero\n        /* \"v2_periphery/UniswapV2Router02Part.sol\":4274:4355  require(amountOut >= amountOutMin, 'UniswapV2Router: INSUFFICIENT_OUTPUT_AMOUNT') */\n      tag_100\n      jumpi\n      mload(0x40)\n      0x08c379a000000000000000000000000000000000000000000000000000000000\n      dup2\n      mstore\n      0x04\n      add\n      tag_101\n      swap1\n      tag_72\n      jump\t// in\n    tag_101:\n      mload(0x40)\n      dup1\n      swap2\n      sub\n      swap1\n      revert\n    tag_100:\n        /* \"v2_periphery/UniswapV2Router02Part.sol\":4372:4376  WETH */\n      0x01\n      0x00\n      swap1\n      sload\n      swap1\n      0x0100\n      exp\n      swap1\n      div\n      0xffffffffffffffffffffffffffffffffffffffff\n      and\n        /* \"v2_periphery/UniswapV2Router02Part.sol\":4366:4386  IWETH(WETH).withdraw */\n      0xffffffffffffffffffffffffffffffffffffffff\n      and\n      0x2e1a7d4d\n        /* \"v2_periphery/UniswapV2Router02Part.sol\":4387:4396  amountOut */\n      dup3\n        /* \"v2_periphery/UniswapV2Router02Part.sol\":4366:4397  IWETH(WETH).withdraw(amountOut) */\n      mload(0x40)\n      dup3\n      0xffffffff\n      and\n      0xe0\n      shl\n      dup2\n      mstore\n      0x04\n      add\n      tag_102\n      swap2\n      swap1\n      tag_103\n      jump\t// in\n    tag_102:\n      0x00\n      mload(0x40)\n      dup1\n      dup4\n      sub\n      dup2\n      0x00\n      dup8\n      dup1\n      extcodesize\n      iszero\n      dup1\n      iszero\n      tag_104\n      jumpi\n      0x00\n      dup1\n      revert\n    tag_104:\n      pop\n      gas\n      call\n      iszero\n      dup1\n      iszero\n      tag_106\n      jumpi\n      returndatasize\n      0x00\n      dup1\n      returndatacopy\n      revert(0x00, returndatasize)\n    tag_106:\n      pop\n      pop\n      pop\n      pop\n        /* \"v2_periphery/UniswapV2Router02Part.sol\":4408:4453  TransferHelper.safeTransferETH(to, amountOut) */\n      tag_107\n        /* \"v2_periphery/UniswapV2Router02Part.sol\":4439:4441  to */\n      dup5\n        /* \"v2_periphery/UniswapV2Router02Part.sol\":4443:4452  amountOut */\n      dup3\n        /* \"v2_periphery/UniswapV2Router02Part.sol\":4408:4438  TransferHelper.safeTransferETH */\n      tag_108\n        /* \"v2_periphery/UniswapV2Router02Part.sol\":4408:4453  TransferHelper.safeTransferETH(to, amountOut) */\n      jump\t// in\n    tag_107:\n        /* \"v2_periphery/UniswapV2Router02Part.sol\":3900:4461  {... */\n      pop\n        /* \"v2_periphery/UniswapV2Router02Part.sol\":3626:4461  function swapExactTokensForETHSupportingFeeOnTransferTokens(... */\n      pop\n      pop\n      pop\n      pop\n      pop\n      pop\n      pop\n      jump\t// out\n        /* \"v2_periphery/UniswapV2Router02Part.sol\":492:512  address public  WETH */\n    tag_18:\n      0x01\n      0x00\n      swap1\n      sload\n      swap1\n      0x0100\n      exp\n      swap1\n      div\n      0xffffffffffffffffffffffffffffffffffffffff\n      and\n      dup2\n      jump\t// out\n        /* \"v2_periphery/UniswapV2Router02Part.sol\":2781:3620  function swapExactETHForTokensSupportingFeeOnTransferTokens(... */\n    tag_24:\n        /* \"v2_periphery/UniswapV2Router02Part.sol\":3033:3041  deadline */\n      dup1\n        /* \"v2_periphery/UniswapV2Router02Part.sol\":692:707  block.timestamp */\n      timestamp\n        /* \"v2_periphery/UniswapV2Router02Part.sol\":680:688  deadline */\n      dup2\n        /* \"v2_periphery/UniswapV2Router02Part.sol\":680:707  deadline >= block.timestamp */\n      lt\n      iszero\n        /* \"v2_periphery/UniswapV2Router02Part.sol\":672:736  require(deadline >= block.timestamp, 'UniswapV2Router: EXPIRED') */\n      tag_110\n      jumpi\n      mload(0x40)\n      0x08c379a000000000000000000000000000000000000000000000000000000000\n      dup2\n      mstore\n      0x04\n      add\n      tag_111\n      swap1\n      tag_32\n      jump\t// in\n    tag_111:\n      mload(0x40)\n      dup1\n      swap2\n      sub\n      swap1\n      revert\n    tag_110:\n        /* \"v2_periphery/UniswapV2Router02Part.sol\":3078:3082  WETH */\n      0x01\n      0x00\n      swap1\n      sload\n      swap1\n      0x0100\n      exp\n      swap1\n      div\n      0xffffffffffffffffffffffffffffffffffffffff\n      and\n        /* \"v2_periphery/UniswapV2Router02Part.sol\":3067:3082  path[0] == WETH */\n      0xffffffffffffffffffffffffffffffffffffffff\n      and\n        /* \"v2_periphery/UniswapV2Router02Part.sol\":3067:3071  path */\n      dup6\n      dup6\n        /* \"v2_periphery/UniswapV2Router02Part.sol\":3072:3073  0 */\n      0x00\n        /* \"v2_periphery/UniswapV2Router02Part.sol\":3067:3074  path[0] */\n      dup2\n      dup2\n      lt\n      tag_113\n      jumpi\n      tag_114\n      tag_37\n      jump\t// in\n    tag_114:\n    tag_113:\n      swap1\n      pop\n      0x20\n      mul\n      add\n      0x20\n      dup2\n      add\n      swap1\n      tag_115\n      swap2\n      swap1\n      tag_39\n      jump\t// in\n    tag_115:\n        /* \"v2_periphery/UniswapV2Router02Part.sol\":3067:3082  path[0] == WETH */\n      0xffffffffffffffffffffffffffffffffffffffff\n      and\n      eq\n        /* \"v2_periphery/UniswapV2Router02Part.sol\":3059:3116  require(path[0] == WETH, 'UniswapV2Router: INVALID_PATH') */\n      tag_116\n      jumpi\n      mload(0x40)\n      0x08c379a000000000000000000000000000000000000000000000000000000000\n      dup2\n      mstore\n      0x04\n      add\n      tag_117\n      swap1\n      tag_83\n      jump\t// in\n    tag_117:\n      mload(0x40)\n      dup1\n      swap2\n      sub\n      swap1\n      revert\n    tag_116:\n        /* \"v2_periphery/UniswapV2Router02Part.sol\":3127:3140  uint amountIn */\n      0x00\n        /* \"v2_periphery/UniswapV2Router02Part.sol\":3143:3152  msg.value */\n      callvalue\n        /* \"v2_periphery/UniswapV2Router02Part.sol\":3127:3152  uint amountIn = msg.value */\n      swap1\n      pop\n        /* \"v2_periphery/UniswapV2Router02Part.sol\":3169:3173  WETH */\n      0x01\n      0x00\n      swap1\n      sload\n      swap1\n      0x0100\n      exp\n      swap1\n      div\n      0xffffffffffffffffffffffffffffffffffffffff\n      and\n        /* \"v2_periphery/UniswapV2Router02Part.sol\":3163:3182  IWETH(WETH).deposit */\n      0xffffffffffffffffffffffffffffffffffffffff\n      and\n      0xd0e30db0\n        /* \"v2_periphery/UniswapV2Router02Part.sol\":3190:3198  amountIn */\n      dup3\n        /* \"v2_periphery/UniswapV2Router02Part.sol\":3163:3201  IWETH(WETH).deposit{value: amountIn}() */\n      mload(0x40)\n      dup3\n      0xffffffff\n      and\n      0xe0\n      shl\n      dup2\n      mstore\n      0x04\n      add\n      0x00\n      mload(0x40)\n      dup1\n      dup4\n      sub\n      dup2\n      dup6\n      dup9\n      dup1\n      extcodesize\n      iszero\n      dup1\n      iszero\n      tag_118\n      jumpi\n      0x00\n      dup1\n      revert\n    tag_118:\n      pop\n      gas\n      call\n      iszero\n      dup1\n      iszero\n      tag_120\n      jumpi\n      returndatasize\n      0x00\n      dup1\n      returndatacopy\n      revert(0x00, returndatasize)\n    tag_120:\n      pop\n      pop\n      pop\n      pop\n      pop\n        /* \"v2_periphery/UniswapV2Router02Part.sol\":3225:3229  WETH */\n      0x01\n      0x00\n      swap1\n      sload\n      swap1\n      0x0100\n      exp\n      swap1\n      div\n      0xffffffffffffffffffffffffffffffffffffffff\n      and\n        /* \"v2_periphery/UniswapV2Router02Part.sol\":3219:3239  IWETH(WETH).transfer */\n      0xffffffffffffffffffffffffffffffffffffffff\n      and\n      0xa9059cbb\n        /* \"v2_periphery/UniswapV2Router02Part.sol\":3240:3291  UniswapV2Library.pairFor(factory, path[0], path[1]) */\n      tag_121\n        /* \"v2_periphery/UniswapV2Router02Part.sol\":3265:3272  factory */\n      0x00\n      dup1\n      sload\n      swap1\n      0x0100\n      exp\n      swap1\n      div\n      0xffffffffffffffffffffffffffffffffffffffff\n      and\n        /* \"v2_periphery/UniswapV2Router02Part.sol\":3274:3278  path */\n      dup10\n      dup10\n        /* \"v2_periphery/UniswapV2Router02Part.sol\":3279:3280  0 */\n      0x00\n        /* \"v2_periphery/UniswapV2Router02Part.sol\":3274:3281  path[0] */\n      dup2\n      dup2\n      lt\n      tag_122\n      jumpi\n      tag_123\n      tag_37\n      jump\t// in\n    tag_123:\n    tag_122:\n      swap1\n      pop\n      0x20\n      mul\n      add\n      0x20\n      dup2\n      add\n      swap1\n      tag_124\n      swap2\n      swap1\n      tag_39\n      jump\t// in\n    tag_124:\n        /* \"v2_periphery/UniswapV2Router02Part.sol\":3283:3287  path */\n      dup11\n      dup11\n        /* \"v2_periphery/UniswapV2Router02Part.sol\":3288:3289  1 */\n      0x01\n        /* \"v2_periphery/UniswapV2Router02Part.sol\":3283:3290  path[1] */\n      dup2\n      dup2\n      lt\n      tag_125\n      jumpi\n      tag_126\n      tag_37\n      jump\t// in\n    tag_126:\n    tag_125:\n      swap1\n      pop\n      0x20\n      mul\n      add\n      0x20\n      dup2\n      add\n      swap1\n      tag_127\n      swap2\n      swap1\n      tag_39\n      jump\t// in\n    tag_127:\n        /* \"v2_periphery/UniswapV2Router02Part.sol\":3240:3264  UniswapV2Library.pairFor */\n      tag_47\n        /* \"v2_periphery/UniswapV2Router02Part.sol\":3240:3291  UniswapV2Library.pairFor(factory, path[0], path[1]) */\n      jump\t// in\n    tag_121:\n        /* \"v2_periphery/UniswapV2Router02Part.sol\":3293:3301  amountIn */\n      dup4\n        /* \"v2_periphery/UniswapV2Router02Part.sol\":3219:3302  IWETH(WETH).transfer(UniswapV2Library.pairFor(factory, path[0], path[1]), amountIn) */\n      mload(0x40)\n      dup4\n      0xffffffff\n      and\n      0xe0\n      shl\n      dup2\n      mstore\n      0x04\n      add\n      tag_128\n      swap3\n      swap2\n      swap1\n      tag_129\n      jump\t// in\n    tag_128:\n      0x20\n      mload(0x40)\n      dup1\n      dup4\n      sub\n      dup2\n      0x00\n      dup8\n      gas\n      call\n      iszero\n      dup1\n      iszero\n      tag_131\n      jumpi\n      returndatasize\n      0x00\n      dup1\n      returndatacopy\n      revert(0x00, returndatasize)\n    tag_131:\n      pop\n      pop\n      pop\n      pop\n      mload(0x40)\n      returndatasize\n      not(0x1f)\n      0x1f\n      dup3\n      add\n      and\n      dup3\n      add\n      dup1\n      0x40\n      mstore\n      pop\n      dup2\n      add\n      swap1\n      tag_132\n      swap2\n      swap1\n      tag_133\n      jump\t// in\n    tag_132:\n        /* \"v2_periphery/UniswapV2Router02Part.sol\":3212:3303  assert(IWETH(WETH).transfer(UniswapV2Library.pairFor(factory, path[0], path[1]), amountIn)) */\n      tag_134\n      jumpi\n      tag_135\n      tag_136\n      jump\t// in\n    tag_135:\n    tag_134:\n        /* \"v2_periphery/UniswapV2Router02Part.sol\":3314:3332  uint balanceBefore */\n      0x00\n        /* \"v2_periphery/UniswapV2Router02Part.sol\":3342:3346  path */\n      dup7\n      dup7\n        /* \"v2_periphery/UniswapV2Router02Part.sol\":3361:3362  1 */\n      0x01\n        /* \"v2_periphery/UniswapV2Router02Part.sol\":3347:3351  path */\n      dup10\n      dup10\n        /* \"v2_periphery/UniswapV2Router02Part.sol\":3347:3358  path.length */\n      swap1\n      pop\n        /* \"v2_periphery/UniswapV2Router02Part.sol\":3347:3362  path.length - 1 */\n      tag_137\n      swap2\n      swap1\n      tag_50\n      jump\t// in\n    tag_137:\n        /* \"v2_periphery/UniswapV2Router02Part.sol\":3342:3363  path[path.length - 1] */\n      dup2\n      dup2\n      lt\n      tag_138\n      jumpi\n      tag_139\n      tag_37\n      jump\t// in\n    tag_139:\n    tag_138:\n      swap1\n      pop\n      0x20\n      mul\n      add\n      0x20\n      dup2\n      add\n      swap1\n      tag_140\n      swap2\n      swap1\n      tag_39\n      jump\t// in\n    tag_140:\n        /* \"v2_periphery/UniswapV2Router02Part.sol\":3335:3374  IERC20(path[path.length - 1]).balanceOf */\n      0xffffffffffffffffffffffffffffffffffffffff\n      and\n      0x70a08231\n        /* \"v2_periphery/UniswapV2Router02Part.sol\":3375:3377  to */\n      dup7\n        /* \"v2_periphery/UniswapV2Router02Part.sol\":3335:3378  IERC20(path[path.length - 1]).balanceOf(to) */\n      mload(0x40)\n      dup3\n      0xffffffff\n      and\n      0xe0\n      shl\n      dup2\n      mstore\n      0x04\n      add\n      tag_141\n      swap2\n      swap1\n      tag_20\n      jump\t// in\n    tag_141:\n      0x20\n      mload(0x40)\n      dup1\n      dup4\n      sub\n      dup2\n      dup7\n      gas\n      staticcall\n      iszero\n      dup1\n      iszero\n      tag_143\n      jumpi\n      returndatasize\n      0x00\n      dup1\n      returndatacopy\n      revert(0x00, returndatasize)\n    tag_143:\n      pop\n      pop\n      pop\n      pop\n      mload(0x40)\n      returndatasize\n      not(0x1f)\n      0x1f\n      dup3\n      add\n      and\n      dup3\n      add\n      dup1\n      0x40\n      mstore\n      pop\n      dup2\n      add\n      swap1\n      tag_144\n      swap2\n      swap1\n      tag_58\n      jump\t// in\n    tag_144:\n        /* \"v2_periphery/UniswapV2Router02Part.sol\":3314:3378  uint balanceBefore = IERC20(path[path.length - 1]).balanceOf(to) */\n      swap1\n      pop\n        /* \"v2_periphery/UniswapV2Router02Part.sol\":3389:3433  _swapSupportingFeeOnTransferTokens(path, to) */\n      tag_145\n        /* \"v2_periphery/UniswapV2Router02Part.sol\":3424:3428  path */\n      dup8\n      dup8\n        /* \"v2_periphery/UniswapV2Router02Part.sol\":3389:3433  _swapSupportingFeeOnTransferTokens(path, to) */\n      dup1\n      dup1\n      0x20\n      mul\n      0x20\n      add\n      mload(0x40)\n      swap1\n      dup2\n      add\n      0x40\n      mstore\n      dup1\n      swap4\n      swap3\n      swap2\n      swap1\n      dup2\n      dup2\n      mstore\n      0x20\n      add\n      dup4\n      dup4\n      0x20\n      mul\n      dup1\n      dup3\n      dup5\n      calldatacopy\n      0x00\n      dup2\n      dup5\n      add\n      mstore\n      not(0x1f)\n      0x1f\n      dup3\n      add\n      and\n      swap1\n      pop\n      dup1\n      dup4\n      add\n      swap3\n      pop\n      pop\n      pop\n      pop\n      pop\n      pop\n      pop\n        /* \"v2_periphery/UniswapV2Router02Part.sol\":3430:3432  to */\n      dup7\n        /* \"v2_periphery/UniswapV2Router02Part.sol\":3389:3423  _swapSupportingFeeOnTransferTokens */\n      tag_60\n        /* \"v2_periphery/UniswapV2Router02Part.sol\":3389:3433  _swapSupportingFeeOnTransferTokens(path, to) */\n      jump\t// in\n    tag_145:\n        /* \"v2_periphery/UniswapV2Router02Part.sol\":3529:3541  amountOutMin */\n      dup8\n        /* \"v2_periphery/UniswapV2Router02Part.sol\":3512:3525  balanceBefore */\n      dup2\n        /* \"v2_periphery/UniswapV2Router02Part.sol\":3473:3477  path */\n      dup9\n      dup9\n        /* \"v2_periphery/UniswapV2Router02Part.sol\":3492:3493  1 */\n      0x01\n        /* \"v2_periphery/UniswapV2Router02Part.sol\":3478:3482  path */\n      dup12\n      dup12\n        /* \"v2_periphery/UniswapV2Router02Part.sol\":3478:3489  path.length */\n      swap1\n      pop\n        /* \"v2_periphery/UniswapV2Router02Part.sol\":3478:3493  path.length - 1 */\n      tag_146\n      swap2\n      swap1\n      tag_50\n      jump\t// in\n    tag_146:\n        /* \"v2_periphery/UniswapV2Router02Part.sol\":3473:3494  path[path.length - 1] */\n      dup2\n      dup2\n      lt\n      tag_147\n      jumpi\n      tag_148\n      tag_37\n      jump\t// in\n    tag_148:\n    tag_147:\n      swap1\n      pop\n      0x20\n      mul\n      add\n      0x20\n      dup2\n      add\n      swap1\n      tag_149\n      swap2\n      swap1\n      tag_39\n      jump\t// in\n    tag_149:\n        /* \"v2_periphery/UniswapV2Router02Part.sol\":3466:3505  IERC20(path[path.length - 1]).balanceOf */\n      0xffffffffffffffffffffffffffffffffffffffff\n      and\n      0x70a08231\n        /* \"v2_periphery/UniswapV2Router02Part.sol\":3506:3508  to */\n      dup9\n        /* \"v2_periphery/UniswapV2Router02Part.sol\":3466:3509  IERC20(path[path.length - 1]).balanceOf(to) */\n      mload(0x40)\n      dup3\n      0xffffffff\n      and\n      0xe0\n      shl\n      dup2\n      mstore\n      0x04\n      add\n      tag_150\n      swap2\n      swap1\n      tag_20\n      jump\t// in\n    tag_150:\n      0x20\n      mload(0x40)\n      dup1\n      dup4\n      sub\n      dup2\n      dup7\n      gas\n      staticcall\n      iszero\n      dup1\n      iszero\n      tag_152\n      jumpi\n      returndatasize\n      0x00\n      dup1\n      returndatacopy\n      revert(0x00, returndatasize)\n    tag_152:\n      pop\n      pop\n      pop\n      pop\n      mload(0x40)\n      returndatasize\n      not(0x1f)\n      0x1f\n      dup3\n      add\n      and\n      dup3\n      add\n      dup1\n      0x40\n      mstore\n      pop\n      dup2\n      add\n      swap1\n      tag_153\n      swap2\n      swap1\n      tag_58\n      jump\t// in\n    tag_153:\n        /* \"v2_periphery/UniswapV2Router02Part.sol\":3466:3525  IERC20(path[path.length - 1]).balanceOf(to) - balanceBefore */\n      tag_154\n      swap2\n      swap1\n      tag_50\n      jump\t// in\n    tag_154:\n        /* \"v2_periphery/UniswapV2Router02Part.sol\":3466:3541  IERC20(path[path.length - 1]).balanceOf(to) - balanceBefore >= amountOutMin */\n      lt\n      iszero\n        /* \"v2_periphery/UniswapV2Router02Part.sol\":3444:3612  require(... */\n      tag_155\n      jumpi\n      mload(0x40)\n      0x08c379a000000000000000000000000000000000000000000000000000000000\n      dup2\n      mstore\n      0x04\n      add\n      tag_156\n      swap1\n      tag_72\n      jump\t// in\n    tag_156:\n      mload(0x40)\n      dup1\n      swap2\n      sub\n      swap1\n      revert\n    tag_155:\n        /* \"v2_periphery/UniswapV2Router02Part.sol\":3048:3620  {... */\n      pop\n      pop\n        /* \"v2_periphery/UniswapV2Router02Part.sol\":2781:3620  function swapExactETHForTokensSupportingFeeOnTransferTokens(... */\n      pop\n      pop\n      pop\n      pop\n      pop\n      pop\n      jump\t// out\n        /* \"v2_periphery/UniswapV2Router02Part.sol\":462:485  address public  factory */\n    tag_27:\n      0x00\n      dup1\n      sload\n      swap1\n      0x0100\n      exp\n      swap1\n      div\n      0xffffffffffffffffffffffffffffffffffffffff\n      and\n      dup2\n      jump\t// out\n        /* \"v2_periphery/libraries/UniswapV2Library.sol\":750:1237  function pairFor(address factory, address tokenA, address tokenB) internal pure returns (address pair) {... */\n    tag_47:\n        /* \"v2_periphery/libraries/UniswapV2Library.sol\":839:851  address pair */\n      0x00\n        /* \"v2_periphery/libraries/UniswapV2Library.sol\":865:879  address token0 */\n      dup1\n        /* \"v2_periphery/libraries/UniswapV2Library.sol\":881:895  address token1 */\n      0x00\n        /* \"v2_periphery/libraries/UniswapV2Library.sol\":899:925  sortTokens(tokenA, tokenB) */\n      tag_158\n        /* \"v2_periphery/libraries/UniswapV2Library.sol\":910:916  tokenA */\n      dup6\n        /* \"v2_periphery/libraries/UniswapV2Library.sol\":918:924  tokenB */\n      dup6\n        /* \"v2_periphery/libraries/UniswapV2Library.sol\":899:909  sortTokens */\n      tag_159\n        /* \"v2_periphery/libraries/UniswapV2Library.sol\":899:925  sortTokens(tokenA, tokenB) */\n      jump\t// in\n    tag_158:\n        /* \"v2_periphery/libraries/UniswapV2Library.sol\":864:925  (address token0, address token1) = sortTokens(tokenA, tokenB) */\n      swap2\n      pop\n      swap2\n      pop\n        /* \"v2_periphery/libraries/UniswapV2Library.sol\":1035:1042  factory */\n      dup6\n        /* \"v2_periphery/libraries/UniswapV2Library.sol\":1088:1094  token0 */\n      dup3\n        /* \"v2_periphery/libraries/UniswapV2Library.sol\":1096:1102  token1 */\n      dup3\n        /* \"v2_periphery/libraries/UniswapV2Library.sol\":1071:1103  abi.encodePacked(token0, token1) */\n      add(0x20, mload(0x40))\n      tag_160\n      swap3\n      swap2\n      swap1\n      tag_161\n      jump\t// in\n    tag_160:\n      mload(0x40)\n      0x20\n      dup2\n      dup4\n      sub\n      sub\n      dup2\n      mstore\n      swap1\n      0x40\n      mstore\n        /* \"v2_periphery/libraries/UniswapV2Library.sol\":1061:1104  keccak256(abi.encodePacked(token0, token1)) */\n      dup1\n      mload\n      swap1\n      0x20\n      add\n      keccak256\n        /* \"v2_periphery/libraries/UniswapV2Library.sol\":974:1225  abi.encodePacked(... */\n      add(0x20, mload(0x40))\n      tag_162\n      swap3\n      swap2\n      swap1\n      tag_163\n      jump\t// in\n    tag_162:\n      mload(0x40)\n      0x20\n      dup2\n      dup4\n      sub\n      sub\n      dup2\n      mstore\n      swap1\n      0x40\n      mstore\n        /* \"v2_periphery/libraries/UniswapV2Library.sol\":964:1226  keccak256(abi.encodePacked(... */\n      dup1\n      mload\n      swap1\n      0x20\n      add\n      keccak256\n        /* \"v2_periphery/libraries/UniswapV2Library.sol\":959:1227  uint(keccak256(abi.encodePacked(... */\n      0x00\n      shr\n        /* \"v2_periphery/libraries/UniswapV2Library.sol\":936:1229  pair = address(uint160(uint(keccak256(abi.encodePacked(... */\n      swap3\n      pop\n        /* \"v2_periphery/libraries/UniswapV2Library.sol\":853:1237  {... */\n      pop\n      pop\n        /* \"v2_periphery/libraries/UniswapV2Library.sol\":750:1237  function pairFor(address factory, address tokenA, address tokenB) internal pure returns (address pair) {... */\n      swap4\n      swap3\n      pop\n      pop\n      pop\n      jump\t// out\n        /* \"v2_periphery/libraries/TransferHelper.sol\":1116:1614  function safeTransferFrom(... */\n    tag_48:\n        /* \"v2_periphery/libraries/TransferHelper.sol\":1341:1353  bool success */\n      0x00\n        /* \"v2_periphery/libraries/TransferHelper.sol\":1355:1372  bytes memory data */\n      dup1\n        /* \"v2_periphery/libraries/TransferHelper.sol\":1376:1381  token */\n      dup6\n        /* \"v2_periphery/libraries/TransferHelper.sol\":1376:1386  token.call */\n      0xffffffffffffffffffffffffffffffffffffffff\n      and\n        /* \"v2_periphery/libraries/TransferHelper.sol\":1410:1420  0x23b872dd */\n      0x23b872dd\n        /* \"v2_periphery/libraries/TransferHelper.sol\":1422:1426  from */\n      dup7\n        /* \"v2_periphery/libraries/TransferHelper.sol\":1428:1430  to */\n      dup7\n        /* \"v2_periphery/libraries/TransferHelper.sol\":1432:1437  value */\n      dup7\n        /* \"v2_periphery/libraries/TransferHelper.sol\":1387:1438  abi.encodeWithSelector(0x23b872dd, from, to, value) */\n      add(0x24, mload(0x40))\n      tag_165\n      swap4\n      swap3\n      swap2\n      swap1\n      tag_166\n      jump\t// in\n    tag_165:\n      mload(0x40)\n      0x20\n      dup2\n      dup4\n      sub\n      sub\n      dup2\n      mstore\n      swap1\n      0x40\n      mstore\n      swap1\n      0xe0\n      shl\n      0x20\n      dup3\n      add\n      dup1\n      mload\n      0xffffffffffffffffffffffffffffffffffffffffffffffffffffffff\n      dup4\n      dup2\n      dup4\n      and\n      or\n      dup4\n      mstore\n      pop\n      pop\n      pop\n      pop\n        /* \"v2_periphery/libraries/TransferHelper.sol\":1376:1439  token.call(abi.encodeWithSelector(0x23b872dd, from, to, value)) */\n      mload(0x40)\n      tag_167\n      swap2\n      swap1\n      tag_168\n      jump\t// in\n    tag_167:\n      0x00\n      mload(0x40)\n      dup1\n      dup4\n      sub\n      dup2\n      0x00\n      dup7\n      gas\n      call\n      swap2\n      pop\n      pop\n      returndatasize\n      dup1\n      0x00\n      dup2\n      eq\n      tag_171\n      jumpi\n      mload(0x40)\n      swap2\n      pop\n      and(add(returndatasize, 0x3f), not(0x1f))\n      dup3\n      add\n      0x40\n      mstore\n      returndatasize\n      dup3\n      mstore\n      returndatasize\n      0x00\n      0x20\n      dup5\n      add\n      returndatacopy\n      jump(tag_170)\n    tag_171:\n      0x60\n      swap2\n      pop\n    tag_170:\n      pop\n        /* \"v2_periphery/libraries/TransferHelper.sol\":1340:1439  (bool success, bytes memory data) = token.call(abi.encodeWithSelector(0x23b872dd, from, to, value)) */\n      swap2\n      pop\n      swap2\n      pop\n        /* \"v2_periphery/libraries/TransferHelper.sol\":1472:1479  success */\n      dup2\n        /* \"v2_periphery/libraries/TransferHelper.sol\":1472:1529  success && (data.length == 0 || abi.decode(data, (bool))) */\n      dup1\n      iszero\n      tag_172\n      jumpi\n      pop\n        /* \"v2_periphery/libraries/TransferHelper.sol\":1499:1500  0 */\n      0x00\n        /* \"v2_periphery/libraries/TransferHelper.sol\":1484:1488  data */\n      dup2\n        /* \"v2_periphery/libraries/TransferHelper.sol\":1484:1495  data.length */\n      mload\n        /* \"v2_periphery/libraries/TransferHelper.sol\":1484:1500  data.length == 0 */\n      eq\n        /* \"v2_periphery/libraries/TransferHelper.sol\":1484:1528  data.length == 0 || abi.decode(data, (bool)) */\n      dup1\n      tag_173\n      jumpi\n      pop\n        /* \"v2_periphery/libraries/TransferHelper.sol\":1515:1519  data */\n      dup1\n        /* \"v2_periphery/libraries/TransferHelper.sol\":1504:1528  abi.decode(data, (bool)) */\n      dup1\n      0x20\n      add\n      swap1\n      mload\n      dup2\n      add\n      swap1\n      tag_174\n      swap2\n      swap1\n      tag_133\n      jump\t// in\n    tag_174:\n        /* \"v2_periphery/libraries/TransferHelper.sol\":1484:1528  data.length == 0 || abi.decode(data, (bool)) */\n    tag_173:\n        /* \"v2_periphery/libraries/TransferHelper.sol\":1472:1529  success && (data.length == 0 || abi.decode(data, (bool))) */\n    tag_172:\n        /* \"v2_periphery/libraries/TransferHelper.sol\":1450:1606  require(... */\n      tag_175\n      jumpi\n      mload(0x40)\n      0x08c379a000000000000000000000000000000000000000000000000000000000\n      dup2\n      mstore\n      0x04\n      add\n      tag_176\n      swap1\n      tag_177\n      jump\t// in\n    tag_176:\n      mload(0x40)\n      dup1\n      swap2\n      sub\n      swap1\n      revert\n    tag_175:\n        /* \"v2_periphery/libraries/TransferHelper.sol\":1250:1614  {... */\n      pop\n      pop\n        /* \"v2_periphery/libraries/TransferHelper.sol\":1116:1614  function safeTransferFrom(... */\n      pop\n      pop\n      pop\n      pop\n      jump\t// out\n        /* \"v2_periphery/UniswapV2Router02Part.sol\":854:2066  function _swapSupportingFeeOnTransferTokens(address[] memory path, address _to) internal virtual {... */\n    tag_60:\n        /* \"v2_periphery/UniswapV2Router02Part.sol\":967:973  uint i */\n      0x00\n        /* \"v2_periphery/UniswapV2Router02Part.sol\":962:2059  for (uint i; i < path.length - 1; i++) {... */\n    tag_179:\n        /* \"v2_periphery/UniswapV2Router02Part.sol\":993:994  1 */\n      0x01\n        /* \"v2_periphery/UniswapV2Router02Part.sol\":979:983  path */\n      dup4\n        /* \"v2_periphery/UniswapV2Router02Part.sol\":979:990  path.length */\n      mload\n        /* \"v2_periphery/UniswapV2Router02Part.sol\":979:994  path.length - 1 */\n      tag_182\n      swap2\n      swap1\n      tag_50\n      jump\t// in\n    tag_182:\n        /* \"v2_periphery/UniswapV2Router02Part.sol\":975:976  i */\n      dup2\n        /* \"v2_periphery/UniswapV2Router02Part.sol\":975:994  i < path.length - 1 */\n      lt\n        /* \"v2_periphery/UniswapV2Router02Part.sol\":962:2059  for (uint i; i < path.length - 1; i++) {... */\n      iszero\n      tag_180\n      jumpi\n        /* \"v2_periphery/UniswapV2Router02Part.sol\":1017:1030  address input */\n      0x00\n        /* \"v2_periphery/UniswapV2Router02Part.sol\":1032:1046  address output */\n      dup1\n        /* \"v2_periphery/UniswapV2Router02Part.sol\":1051:1055  path */\n      dup5\n        /* \"v2_periphery/UniswapV2Router02Part.sol\":1056:1057  i */\n      dup4\n        /* \"v2_periphery/UniswapV2Router02Part.sol\":1051:1058  path[i] */\n      dup2\n      mload\n      dup2\n      lt\n      tag_183\n      jumpi\n      tag_184\n      tag_37\n      jump\t// in\n    tag_184:\n    tag_183:\n      0x20\n      mul\n      0x20\n      add\n      add\n      mload\n        /* \"v2_periphery/UniswapV2Router02Part.sol\":1060:1064  path */\n      dup6\n        /* \"v2_periphery/UniswapV2Router02Part.sol\":1069:1070  1 */\n      0x01\n        /* \"v2_periphery/UniswapV2Router02Part.sol\":1065:1066  i */\n      dup6\n        /* \"v2_periphery/UniswapV2Router02Part.sol\":1065:1070  i + 1 */\n      tag_185\n      swap2\n      swap1\n      tag_186\n      jump\t// in\n    tag_185:\n        /* \"v2_periphery/UniswapV2Router02Part.sol\":1060:1071  path[i + 1] */\n      dup2\n      mload\n      dup2\n      lt\n      tag_187\n      jumpi\n      tag_188\n      tag_37\n      jump\t// in\n    tag_188:\n    tag_187:\n      0x20\n      mul\n      0x20\n      add\n      add\n      mload\n        /* \"v2_periphery/UniswapV2Router02Part.sol\":1016:1072  (address input, address output) = (path[i], path[i + 1]) */\n      swap2\n      pop\n      swap2\n      pop\n        /* \"v2_periphery/UniswapV2Router02Part.sol\":1088:1102  address token0 */\n      0x00\n        /* \"v2_periphery/UniswapV2Router02Part.sol\":1107:1149  UniswapV2Library.sortTokens(input, output) */\n      tag_189\n        /* \"v2_periphery/UniswapV2Router02Part.sol\":1135:1140  input */\n      dup4\n        /* \"v2_periphery/UniswapV2Router02Part.sol\":1142:1148  output */\n      dup4\n        /* \"v2_periphery/UniswapV2Router02Part.sol\":1107:1134  UniswapV2Library.sortTokens */\n      tag_159\n        /* \"v2_periphery/UniswapV2Router02Part.sol\":1107:1149  UniswapV2Library.sortTokens(input, output) */\n      jump\t// in\n    tag_189:\n        /* \"v2_periphery/UniswapV2Router02Part.sol\":1087:1149  (address token0,) = UniswapV2Library.sortTokens(input, output) */\n      pop\n      swap1\n      pop\n        /* \"v2_periphery/UniswapV2Router02Part.sol\":1164:1183  IUniswapV2Pair pair */\n      0x00\n        /* \"v2_periphery/UniswapV2Router02Part.sol\":1201:1249  UniswapV2Library.pairFor(factory, input, output) */\n      tag_190\n        /* \"v2_periphery/UniswapV2Router02Part.sol\":1226:1233  factory */\n      0x00\n      dup1\n      sload\n      swap1\n      0x0100\n      exp\n      swap1\n      div\n      0xffffffffffffffffffffffffffffffffffffffff\n      and\n        /* \"v2_periphery/UniswapV2Router02Part.sol\":1235:1240  input */\n      dup6\n        /* \"v2_periphery/UniswapV2Router02Part.sol\":1242:1248  output */\n      dup6\n        /* \"v2_periphery/UniswapV2Router02Part.sol\":1201:1225  UniswapV2Library.pairFor */\n      tag_47\n        /* \"v2_periphery/UniswapV2Router02Part.sol\":1201:1249  UniswapV2Library.pairFor(factory, input, output) */\n      jump\t// in\n    tag_190:\n        /* \"v2_periphery/UniswapV2Router02Part.sol\":1164:1250  IUniswapV2Pair pair = IUniswapV2Pair(UniswapV2Library.pairFor(factory, input, output)) */\n      swap1\n      pop\n        /* \"v2_periphery/UniswapV2Router02Part.sol\":1265:1281  uint amountInput */\n      0x00\n        /* \"v2_periphery/UniswapV2Router02Part.sol\":1296:1313  uint amountOutput */\n      dup1\n        /* \"v2_periphery/UniswapV2Router02Part.sol\":1384:1397  uint reserve0 */\n      0x00\n        /* \"v2_periphery/UniswapV2Router02Part.sol\":1399:1412  uint reserve1 */\n      dup1\n        /* \"v2_periphery/UniswapV2Router02Part.sol\":1417:1421  pair */\n      dup5\n        /* \"v2_periphery/UniswapV2Router02Part.sol\":1417:1433  pair.getReserves */\n      0xffffffffffffffffffffffffffffffffffffffff\n      and\n      0x0902f1ac\n        /* \"v2_periphery/UniswapV2Router02Part.sol\":1417:1435  pair.getReserves() */\n      mload(0x40)\n      dup2\n      0xffffffff\n      and\n      0xe0\n      shl\n      dup2\n      mstore\n      0x04\n      add\n      0x60\n      mload(0x40)\n      dup1\n      dup4\n      sub\n      dup2\n      dup7\n      gas\n      staticcall\n      iszero\n      dup1\n      iszero\n      tag_192\n      jumpi\n      returndatasize\n      0x00\n      dup1\n      returndatacopy\n      revert(0x00, returndatasize)\n    tag_192:\n      pop\n      pop\n      pop\n      pop\n      mload(0x40)\n      returndatasize\n      not(0x1f)\n      0x1f\n      dup3\n      add\n      and\n      dup3\n      add\n      dup1\n      0x40\n      mstore\n      pop\n      dup2\n      add\n      swap1\n      tag_193\n      swap2\n      swap1\n      tag_194\n      jump\t// in\n    tag_193:\n        /* \"v2_periphery/UniswapV2Router02Part.sol\":1383:1435  (uint reserve0, uint reserve1,) = pair.getReserves() */\n      pop\n      0xffffffffffffffffffffffffffff\n      and\n      swap2\n      pop\n      0xffffffffffffffffffffffffffff\n      and\n      swap2\n      pop\n        /* \"v2_periphery/UniswapV2Router02Part.sol\":1451:1468  uint reserveInput */\n      0x00\n        /* \"v2_periphery/UniswapV2Router02Part.sol\":1470:1488  uint reserveOutput */\n      dup1\n        /* \"v2_periphery/UniswapV2Router02Part.sol\":1501:1507  token0 */\n      dup8\n        /* \"v2_periphery/UniswapV2Router02Part.sol\":1492:1507  input == token0 */\n      0xffffffffffffffffffffffffffffffffffffffff\n      and\n        /* \"v2_periphery/UniswapV2Router02Part.sol\":1492:1497  input */\n      dup11\n        /* \"v2_periphery/UniswapV2Router02Part.sol\":1492:1507  input == token0 */\n      0xffffffffffffffffffffffffffffffffffffffff\n      and\n      eq\n        /* \"v2_periphery/UniswapV2Router02Part.sol\":1492:1553  input == token0 ? (reserve0, reserve1) : (reserve1, reserve0) */\n      tag_195\n      jumpi\n        /* \"v2_periphery/UniswapV2Router02Part.sol\":1534:1542  reserve1 */\n      dup3\n        /* \"v2_periphery/UniswapV2Router02Part.sol\":1544:1552  reserve0 */\n      dup5\n        /* \"v2_periphery/UniswapV2Router02Part.sol\":1492:1553  input == token0 ? (reserve0, reserve1) : (reserve1, reserve0) */\n      jump(tag_196)\n    tag_195:\n        /* \"v2_periphery/UniswapV2Router02Part.sol\":1511:1519  reserve0 */\n      dup4\n        /* \"v2_periphery/UniswapV2Router02Part.sol\":1521:1529  reserve1 */\n      dup4\n        /* \"v2_periphery/UniswapV2Router02Part.sol\":1492:1553  input == token0 ? (reserve0, reserve1) : (reserve1, reserve0) */\n    tag_196:\n        /* \"v2_periphery/UniswapV2Router02Part.sol\":1450:1553  (uint reserveInput, uint reserveOutput) = input == token0 ? (reserve0, reserve1) : (reserve1, reserve0) */\n      swap2\n      pop\n      swap2\n      pop\n        /* \"v2_periphery/UniswapV2Router02Part.sol\":1623:1635  reserveInput */\n      dup2\n        /* \"v2_periphery/UniswapV2Router02Part.sol\":1589:1594  input */\n      dup11\n        /* \"v2_periphery/UniswapV2Router02Part.sol\":1582:1605  IERC20(input).balanceOf */\n      0xffffffffffffffffffffffffffffffffffffffff\n      and\n      0x70a08231\n        /* \"v2_periphery/UniswapV2Router02Part.sol\":1614:1618  pair */\n      dup10\n        /* \"v2_periphery/UniswapV2Router02Part.sol\":1582:1620  IERC20(input).balanceOf(address(pair)) */\n      mload(0x40)\n      dup3\n      0xffffffff\n      and\n      0xe0\n      shl\n      dup2\n      mstore\n      0x04\n      add\n      tag_197\n      swap2\n      swap1\n      tag_20\n      jump\t// in\n    tag_197:\n      0x20\n      mload(0x40)\n      dup1\n      dup4\n      sub\n      dup2\n      dup7\n      gas\n      staticcall\n      iszero\n      dup1\n      iszero\n      tag_199\n      jumpi\n      returndatasize\n      0x00\n      dup1\n      returndatacopy\n      revert(0x00, returndatasize)\n    tag_199:\n      pop\n      pop\n      pop\n      pop\n      mload(0x40)\n      returndatasize\n      not(0x1f)\n      0x1f\n      dup3\n      add\n      and\n      dup3\n      add\n      dup1\n      0x40\n      mstore\n      pop\n      dup2\n      add\n      swap1\n      tag_200\n      swap2\n      swap1\n      tag_58\n      jump\t// in\n    tag_200:\n        /* \"v2_periphery/UniswapV2Router02Part.sol\":1582:1635  IERC20(input).balanceOf(address(pair)) - reserveInput */\n      tag_201\n      swap2\n      swap1\n      tag_50\n      jump\t// in\n    tag_201:\n        /* \"v2_periphery/UniswapV2Router02Part.sol\":1568:1635  amountInput = IERC20(input).balanceOf(address(pair)) - reserveInput */\n      swap6\n      pop\n        /* \"v2_periphery/UniswapV2Router02Part.sol\":1666:1737  UniswapV2Library.getAmountOut(amountInput, reserveInput, reserveOutput) */\n      tag_202\n        /* \"v2_periphery/UniswapV2Router02Part.sol\":1696:1707  amountInput */\n      dup7\n        /* \"v2_periphery/UniswapV2Router02Part.sol\":1709:1721  reserveInput */\n      dup4\n        /* \"v2_periphery/UniswapV2Router02Part.sol\":1723:1736  reserveOutput */\n      dup4\n        /* \"v2_periphery/UniswapV2Router02Part.sol\":1666:1695  UniswapV2Library.getAmountOut */\n      tag_203\n        /* \"v2_periphery/UniswapV2Router02Part.sol\":1666:1737  UniswapV2Library.getAmountOut(amountInput, reserveInput, reserveOutput) */\n      jump\t// in\n    tag_202:\n        /* \"v2_periphery/UniswapV2Router02Part.sol\":1651:1737  amountOutput = UniswapV2Library.getAmountOut(amountInput, reserveInput, reserveOutput) */\n      swap5\n      pop\n        /* \"v2_periphery/UniswapV2Router02Part.sol\":1328:1753  { // scope to avoid stack too deep errors... */\n      pop\n      pop\n      pop\n      pop\n        /* \"v2_periphery/UniswapV2Router02Part.sol\":1768:1783  uint amount0Out */\n      0x00\n        /* \"v2_periphery/UniswapV2Router02Part.sol\":1785:1800  uint amount1Out */\n      dup1\n        /* \"v2_periphery/UniswapV2Router02Part.sol\":1813:1819  token0 */\n      dup6\n        /* \"v2_periphery/UniswapV2Router02Part.sol\":1804:1819  input == token0 */\n      0xffffffffffffffffffffffffffffffffffffffff\n      and\n        /* \"v2_periphery/UniswapV2Router02Part.sol\":1804:1809  input */\n      dup9\n        /* \"v2_periphery/UniswapV2Router02Part.sol\":1804:1819  input == token0 */\n      0xffffffffffffffffffffffffffffffffffffffff\n      and\n      eq\n        /* \"v2_periphery/UniswapV2Router02Part.sol\":1804:1871  input == token0 ? (uint(0), amountOutput) : (amountOutput, uint(0)) */\n      tag_204\n      jumpi\n        /* \"v2_periphery/UniswapV2Router02Part.sol\":1849:1861  amountOutput */\n      dup3\n        /* \"v2_periphery/UniswapV2Router02Part.sol\":1868:1869  0 */\n      0x00\n        /* \"v2_periphery/UniswapV2Router02Part.sol\":1804:1871  input == token0 ? (uint(0), amountOutput) : (amountOutput, uint(0)) */\n      jump(tag_205)\n    tag_204:\n        /* \"v2_periphery/UniswapV2Router02Part.sol\":1828:1829  0 */\n      0x00\n        /* \"v2_periphery/UniswapV2Router02Part.sol\":1832:1844  amountOutput */\n      dup4\n        /* \"v2_periphery/UniswapV2Router02Part.sol\":1804:1871  input == token0 ? (uint(0), amountOutput) : (amountOutput, uint(0)) */\n    tag_205:\n        /* \"v2_periphery/UniswapV2Router02Part.sol\":1767:1871  (uint amount0Out, uint amount1Out) = input == token0 ? (uint(0), amountOutput) : (amountOutput, uint(0)) */\n      swap2\n      pop\n      swap2\n      pop\n        /* \"v2_periphery/UniswapV2Router02Part.sol\":1886:1896  address to */\n      0x00\n        /* \"v2_periphery/UniswapV2Router02Part.sol\":1917:1918  2 */\n      0x02\n        /* \"v2_periphery/UniswapV2Router02Part.sol\":1903:1907  path */\n      dup13\n        /* \"v2_periphery/UniswapV2Router02Part.sol\":1903:1914  path.length */\n      mload\n        /* \"v2_periphery/UniswapV2Router02Part.sol\":1903:1918  path.length - 2 */\n      tag_206\n      swap2\n      swap1\n      tag_50\n      jump\t// in\n    tag_206:\n        /* \"v2_periphery/UniswapV2Router02Part.sol\":1899:1900  i */\n      dup11\n        /* \"v2_periphery/UniswapV2Router02Part.sol\":1899:1918  i < path.length - 2 */\n      lt\n        /* \"v2_periphery/UniswapV2Router02Part.sol\":1899:1981  i < path.length - 2 ? UniswapV2Library.pairFor(factory, output, path[i + 2]) : _to */\n      tag_207\n      jumpi\n        /* \"v2_periphery/UniswapV2Router02Part.sol\":1978:1981  _to */\n      dup11\n        /* \"v2_periphery/UniswapV2Router02Part.sol\":1899:1981  i < path.length - 2 ? UniswapV2Library.pairFor(factory, output, path[i + 2]) : _to */\n      jump(tag_208)\n    tag_207:\n        /* \"v2_periphery/UniswapV2Router02Part.sol\":1921:1975  UniswapV2Library.pairFor(factory, output, path[i + 2]) */\n      tag_209\n        /* \"v2_periphery/UniswapV2Router02Part.sol\":1946:1953  factory */\n      0x00\n      dup1\n      sload\n      swap1\n      0x0100\n      exp\n      swap1\n      div\n      0xffffffffffffffffffffffffffffffffffffffff\n      and\n        /* \"v2_periphery/UniswapV2Router02Part.sol\":1955:1961  output */\n      dup10\n        /* \"v2_periphery/UniswapV2Router02Part.sol\":1963:1967  path */\n      dup15\n        /* \"v2_periphery/UniswapV2Router02Part.sol\":1972:1973  2 */\n      0x02\n        /* \"v2_periphery/UniswapV2Router02Part.sol\":1968:1969  i */\n      dup15\n        /* \"v2_periphery/UniswapV2Router02Part.sol\":1968:1973  i + 2 */\n      tag_210\n      swap2\n      swap1\n      tag_186\n      jump\t// in\n    tag_210:\n        /* \"v2_periphery/UniswapV2Router02Part.sol\":1963:1974  path[i + 2] */\n      dup2\n      mload\n      dup2\n      lt\n      tag_211\n      jumpi\n      tag_212\n      tag_37\n      jump\t// in\n    tag_212:\n    tag_211:\n      0x20\n      mul\n      0x20\n      add\n      add\n      mload\n        /* \"v2_periphery/UniswapV2Router02Part.sol\":1921:1945  UniswapV2Library.pairFor */\n      tag_47\n        /* \"v2_periphery/UniswapV2Router02Part.sol\":1921:1975  UniswapV2Library.pairFor(factory, output, path[i + 2]) */\n      jump\t// in\n    tag_209:\n        /* \"v2_periphery/UniswapV2Router02Part.sol\":1899:1981  i < path.length - 2 ? UniswapV2Library.pairFor(factory, output, path[i + 2]) : _to */\n    tag_208:\n        /* \"v2_periphery/UniswapV2Router02Part.sol\":1886:1981  address to = i < path.length - 2 ? UniswapV2Library.pairFor(factory, output, path[i + 2]) : _to */\n      swap1\n      pop\n        /* \"v2_periphery/UniswapV2Router02Part.sol\":1996:2000  pair */\n      dup6\n        /* \"v2_periphery/UniswapV2Router02Part.sol\":1996:2005  pair.swap */\n      0xffffffffffffffffffffffffffffffffffffffff\n      and\n      0x022c0d9f\n        /* \"v2_periphery/UniswapV2Router02Part.sol\":2006:2016  amount0Out */\n      dup5\n        /* \"v2_periphery/UniswapV2Router02Part.sol\":2018:2028  amount1Out */\n      dup5\n        /* \"v2_periphery/UniswapV2Router02Part.sol\":2030:2032  to */\n      dup5\n        /* \"v2_periphery/UniswapV2Router02Part.sol\":2044:2045  0 */\n      0x00\n        /* \"v2_periphery/UniswapV2Router02Part.sol\":2034:2046  new bytes(0) */\n      0xffffffffffffffff\n      dup2\n      gt\n      iszero\n      tag_213\n      jumpi\n      tag_214\n      tag_215\n      jump\t// in\n    tag_214:\n    tag_213:\n      mload(0x40)\n      swap1\n      dup1\n      dup3\n      mstore\n      dup1\n      0x1f\n      add\n      not(0x1f)\n      and\n      0x20\n      add\n      dup3\n      add\n      0x40\n      mstore\n      dup1\n      iszero\n      tag_216\n      jumpi\n      dup2\n      0x20\n      add\n      0x01\n      dup3\n      mul\n      dup1\n      calldatasize\n      dup4\n      calldatacopy\n      dup1\n      dup3\n      add\n      swap2\n      pop\n      pop\n      swap1\n      pop\n    tag_216:\n      pop\n        /* \"v2_periphery/UniswapV2Router02Part.sol\":1996:2047  pair.swap(amount0Out, amount1Out, to, new bytes(0)) */\n      mload(0x40)\n      dup6\n      0xffffffff\n      and\n      0xe0\n      shl\n      dup2\n      mstore\n      0x04\n      add\n      tag_217\n      swap5\n      swap4\n      swap3\n      swap2\n      swap1\n      tag_218\n      jump\t// in\n    tag_217:\n      0x00\n      mload(0x40)\n      dup1\n      dup4\n      sub\n      dup2\n      0x00\n      dup8\n      dup1\n      extcodesize\n      iszero\n      dup1\n      iszero\n      tag_219\n      jumpi\n      0x00\n      dup1\n      revert\n    tag_219:\n      pop\n      gas\n      call\n      iszero\n      dup1\n      iszero\n      tag_221\n      jumpi\n      returndatasize\n      0x00\n      dup1\n      returndatacopy\n      revert(0x00, returndatasize)\n    tag_221:\n      pop\n      pop\n      pop\n      pop\n        /* \"v2_periphery/UniswapV2Router02Part.sol\":1001:2059  {... */\n      pop\n      pop\n      pop\n      pop\n      pop\n      pop\n      pop\n      pop\n      pop\n        /* \"v2_periphery/UniswapV2Router02Part.sol\":996:999  i++ */\n      dup1\n      dup1\n      tag_222\n      swap1\n      tag_223\n      jump\t// in\n    tag_222:\n      swap2\n      pop\n      pop\n        /* \"v2_periphery/UniswapV2Router02Part.sol\":962:2059  for (uint i; i < path.length - 1; i++) {... */\n      jump(tag_179)\n    tag_180:\n      pop\n        /* \"v2_periphery/UniswapV2Router02Part.sol\":854:2066  function _swapSupportingFeeOnTransferTokens(address[] memory path, address _to) internal virtual {... */\n      pop\n      pop\n      jump\t// out\n        /* \"v2_periphery/libraries/TransferHelper.sol\":1622:1839  function safeTransferETH(address to, uint256 value) internal {... */\n    tag_108:\n        /* \"v2_periphery/libraries/TransferHelper.sol\":1695:1707  bool success */\n      0x00\n        /* \"v2_periphery/libraries/TransferHelper.sol\":1713:1715  to */\n      dup3\n        /* \"v2_periphery/libraries/TransferHelper.sol\":1713:1720  to.call */\n      0xffffffffffffffffffffffffffffffffffffffff\n      and\n        /* \"v2_periphery/libraries/TransferHelper.sol\":1728:1733  value */\n      dup3\n        /* \"v2_periphery/libraries/TransferHelper.sol\":1745:1746  0 */\n      0x00\n        /* \"v2_periphery/libraries/TransferHelper.sol\":1735:1747  new bytes(0) */\n      0xffffffffffffffff\n      dup2\n      gt\n      iszero\n      tag_225\n      jumpi\n      tag_226\n      tag_215\n      jump\t// in\n    tag_226:\n    tag_225:\n      mload(0x40)\n      swap1\n      dup1\n      dup3\n      mstore\n      dup1\n      0x1f\n      add\n      not(0x1f)\n      and\n      0x20\n      add\n      dup3\n      add\n      0x40\n      mstore\n      dup1\n      iszero\n      tag_227\n      jumpi\n      dup2\n      0x20\n      add\n      0x01\n      dup3\n      mul\n      dup1\n      calldatasize\n      dup4\n      calldatacopy\n      dup1\n      dup3\n      add\n      swap2\n      pop\n      pop\n      swap1\n      pop\n    tag_227:\n      pop\n        /* \"v2_periphery/libraries/TransferHelper.sol\":1713:1748  to.call{value: value}(new bytes(0)) */\n      mload(0x40)\n      tag_228\n      swap2\n      swap1\n      tag_168\n      jump\t// in\n    tag_228:\n      0x00\n      mload(0x40)\n      dup1\n      dup4\n      sub\n      dup2\n      dup6\n      dup8\n      gas\n      call\n      swap3\n      pop\n      pop\n      pop\n      returndatasize\n      dup1\n      0x00\n      dup2\n      eq\n      tag_231\n      jumpi\n      mload(0x40)\n      swap2\n      pop\n      and(add(returndatasize, 0x3f), not(0x1f))\n      dup3\n      add\n      0x40\n      mstore\n      returndatasize\n      dup3\n      mstore\n      returndatasize\n      0x00\n      0x20\n      dup5\n      add\n      returndatacopy\n      jump(tag_230)\n    tag_231:\n      0x60\n      swap2\n      pop\n    tag_230:\n      pop\n        /* \"v2_periphery/libraries/TransferHelper.sol\":1694:1748  (bool success, ) = to.call{value: value}(new bytes(0)) */\n      pop\n      swap1\n      pop\n        /* \"v2_periphery/libraries/TransferHelper.sol\":1767:1774  success */\n      dup1\n        /* \"v2_periphery/libraries/TransferHelper.sol\":1759:1831  require(success, 'TransferHelper::safeTransferETH: ETH transfer failed') */\n      tag_232\n      jumpi\n      mload(0x40)\n      0x08c379a000000000000000000000000000000000000000000000000000000000\n      dup2\n      mstore\n      0x04\n      add\n      tag_233\n      swap1\n      tag_234\n      jump\t// in\n    tag_233:\n      mload(0x40)\n      dup1\n      swap2\n      sub\n      swap1\n      revert\n    tag_232:\n        /* \"v2_periphery/libraries/TransferHelper.sol\":1683:1839  {... */\n      pop\n        /* \"v2_periphery/libraries/TransferHelper.sol\":1622:1839  function safeTransferETH(address to, uint256 value) internal {... */\n      pop\n      pop\n      jump\t// out\n        /* \"v2_periphery/libraries/UniswapV2Library.sol\":309:658  function sortTokens(address tokenA, address tokenB) internal pure returns (address token0, address token1) {... */\n    tag_159:\n        /* \"v2_periphery/libraries/UniswapV2Library.sol\":384:398  address token0 */\n      0x00\n        /* \"v2_periphery/libraries/UniswapV2Library.sol\":400:414  address token1 */\n      dup1\n        /* \"v2_periphery/libraries/UniswapV2Library.sol\":445:451  tokenB */\n      dup3\n        /* \"v2_periphery/libraries/UniswapV2Library.sol\":435:451  tokenA != tokenB */\n      0xffffffffffffffffffffffffffffffffffffffff\n      and\n        /* \"v2_periphery/libraries/UniswapV2Library.sol\":435:441  tokenA */\n      dup5\n        /* \"v2_periphery/libraries/UniswapV2Library.sol\":435:451  tokenA != tokenB */\n      0xffffffffffffffffffffffffffffffffffffffff\n      and\n      sub\n        /* \"v2_periphery/libraries/UniswapV2Library.sol\":427:493  require(tokenA != tokenB, 'UniswapV2Library: IDENTICAL_ADDRESSES') */\n      tag_236\n      jumpi\n      mload(0x40)\n      0x08c379a000000000000000000000000000000000000000000000000000000000\n      dup2\n      mstore\n      0x04\n      add\n      tag_237\n      swap1\n      tag_238\n      jump\t// in\n    tag_237:\n      mload(0x40)\n      dup1\n      swap2\n      sub\n      swap1\n      revert\n    tag_236:\n        /* \"v2_periphery/libraries/UniswapV2Library.sol\":532:538  tokenB */\n      dup3\n        /* \"v2_periphery/libraries/UniswapV2Library.sol\":523:538  tokenA < tokenB */\n      0xffffffffffffffffffffffffffffffffffffffff\n      and\n        /* \"v2_periphery/libraries/UniswapV2Library.sol\":523:529  tokenA */\n      dup5\n        /* \"v2_periphery/libraries/UniswapV2Library.sol\":523:538  tokenA < tokenB */\n      0xffffffffffffffffffffffffffffffffffffffff\n      and\n      lt\n        /* \"v2_periphery/libraries/UniswapV2Library.sol\":523:576  tokenA < tokenB ? (tokenA, tokenB) : (tokenB, tokenA) */\n      tag_239\n      jumpi\n        /* \"v2_periphery/libraries/UniswapV2Library.sol\":561:567  tokenB */\n      dup3\n        /* \"v2_periphery/libraries/UniswapV2Library.sol\":569:575  tokenA */\n      dup5\n        /* \"v2_periphery/libraries/UniswapV2Library.sol\":523:576  tokenA < tokenB ? (tokenA, tokenB) : (tokenB, tokenA) */\n      jump(tag_240)\n    tag_239:\n        /* \"v2_periphery/libraries/UniswapV2Library.sol\":542:548  tokenA */\n      dup4\n        /* \"v2_periphery/libraries/UniswapV2Library.sol\":550:556  tokenB */\n      dup4\n        /* \"v2_periphery/libraries/UniswapV2Library.sol\":523:576  tokenA < tokenB ? (tokenA, tokenB) : (tokenB, tokenA) */\n    tag_240:\n        /* \"v2_periphery/libraries/UniswapV2Library.sol\":504:576  (token0, token1) = tokenA < tokenB ? (tokenA, tokenB) : (tokenB, tokenA) */\n      dup1\n      swap3\n      pop\n      dup2\n      swap4\n      pop\n      pop\n      pop\n        /* \"v2_periphery/libraries/UniswapV2Library.sol\":613:614  0 */\n      0x00\n        /* \"v2_periphery/libraries/UniswapV2Library.sol\":595:615  token0 != address(0) */\n      0xffffffffffffffffffffffffffffffffffffffff\n      and\n        /* \"v2_periphery/libraries/UniswapV2Library.sol\":595:601  token0 */\n      dup3\n        /* \"v2_periphery/libraries/UniswapV2Library.sol\":595:615  token0 != address(0) */\n      0xffffffffffffffffffffffffffffffffffffffff\n      and\n      sub\n        /* \"v2_periphery/libraries/UniswapV2Library.sol\":587:650  require(token0 != address(0), 'UniswapV2Library: ZERO_ADDRESS') */\n      tag_241\n      jumpi\n      mload(0x40)\n      0x08c379a000000000000000000000000000000000000000000000000000000000\n      dup2\n      mstore\n      0x04\n      add\n      tag_242\n      swap1\n      tag_243\n      jump\t// in\n    tag_242:\n      mload(0x40)\n      dup1\n      swap2\n      sub\n      swap1\n      revert\n    tag_241:\n        /* \"v2_periphery/libraries/UniswapV2Library.sol\":309:658  function sortTokens(address tokenA, address tokenB) internal pure returns (address token0, address token1) {... */\n      swap3\n      pop\n      swap3\n      swap1\n      pop\n      jump\t// out\n        /* \"v2_periphery/libraries/UniswapV2Library.sol\":2241:2751  function getAmountOut(uint amountIn, uint reserveIn, uint reserveOut) internal pure returns (uint amountOut) {... */\n    tag_203:\n        /* \"v2_periphery/libraries/UniswapV2Library.sol\":2334:2348  uint amountOut */\n      0x00\n        /* \"v2_periphery/libraries/UniswapV2Library.sol\":2380:2381  0 */\n      dup1\n        /* \"v2_periphery/libraries/UniswapV2Library.sol\":2369:2377  amountIn */\n      dup5\n        /* \"v2_periphery/libraries/UniswapV2Library.sol\":2369:2381  amountIn > 0 */\n      gt\n        /* \"v2_periphery/libraries/UniswapV2Library.sol\":2361:2429  require(amountIn > 0, 'UniswapV2Library: INSUFFICIENT_INPUT_AMOUNT') */\n      tag_245\n      jumpi\n      mload(0x40)\n      0x08c379a000000000000000000000000000000000000000000000000000000000\n      dup2\n      mstore\n      0x04\n      add\n      tag_246\n      swap1\n      tag_247\n      jump\t// in\n    tag_246:\n      mload(0x40)\n      dup1\n      swap2\n      sub\n      swap1\n      revert\n    tag_245:\n        /* \"v2_periphery/libraries/UniswapV2Library.sol\":2460:2461  0 */\n      0x00\n        /* \"v2_periphery/libraries/UniswapV2Library.sol\":2448:2457  reserveIn */\n      dup4\n        /* \"v2_periphery/libraries/UniswapV2Library.sol\":2448:2461  reserveIn > 0 */\n      gt\n        /* \"v2_periphery/libraries/UniswapV2Library.sol\":2448:2479  reserveIn > 0 && reserveOut > 0 */\n      dup1\n      iszero\n      tag_248\n      jumpi\n      pop\n        /* \"v2_periphery/libraries/UniswapV2Library.sol\":2478:2479  0 */\n      0x00\n        /* \"v2_periphery/libraries/UniswapV2Library.sol\":2465:2475  reserveOut */\n      dup3\n        /* \"v2_periphery/libraries/UniswapV2Library.sol\":2465:2479  reserveOut > 0 */\n      gt\n        /* \"v2_periphery/libraries/UniswapV2Library.sol\":2448:2479  reserveIn > 0 && reserveOut > 0 */\n    tag_248:\n        /* \"v2_periphery/libraries/UniswapV2Library.sol\":2440:2524  require(reserveIn > 0 && reserveOut > 0, 'UniswapV2Library: INSUFFICIENT_LIQUIDITY') */\n      tag_249\n      jumpi\n      mload(0x40)\n      0x08c379a000000000000000000000000000000000000000000000000000000000\n      dup2\n      mstore\n      0x04\n      add\n      tag_250\n      swap1\n      tag_251\n      jump\t// in\n    tag_250:\n      mload(0x40)\n      dup1\n      swap2\n      sub\n      swap1\n      revert\n    tag_249:\n        /* \"v2_periphery/libraries/UniswapV2Library.sol\":2535:2555  uint amountInWithFee */\n      0x00\n        /* \"v2_periphery/libraries/UniswapV2Library.sol\":2569:2572  997 */\n      0x03e5\n        /* \"v2_periphery/libraries/UniswapV2Library.sol\":2558:2566  amountIn */\n      dup6\n        /* \"v2_periphery/libraries/UniswapV2Library.sol\":2558:2572  amountIn * 997 */\n      tag_252\n      swap2\n      swap1\n      tag_253\n      jump\t// in\n    tag_252:\n        /* \"v2_periphery/libraries/UniswapV2Library.sol\":2535:2572  uint amountInWithFee = amountIn * 997 */\n      swap1\n      pop\n        /* \"v2_periphery/libraries/UniswapV2Library.sol\":2584:2598  uint numerator */\n      0x00\n        /* \"v2_periphery/libraries/UniswapV2Library.sol\":2619:2629  reserveOut */\n      dup4\n        /* \"v2_periphery/libraries/UniswapV2Library.sol\":2601:2616  amountInWithFee */\n      dup3\n        /* \"v2_periphery/libraries/UniswapV2Library.sol\":2601:2629  amountInWithFee * reserveOut */\n      tag_254\n      swap2\n      swap1\n      tag_253\n      jump\t// in\n    tag_254:\n        /* \"v2_periphery/libraries/UniswapV2Library.sol\":2584:2629  uint numerator = amountInWithFee * reserveOut */\n      swap1\n      pop\n        /* \"v2_periphery/libraries/UniswapV2Library.sol\":2641:2657  uint denominator */\n      0x00\n        /* \"v2_periphery/libraries/UniswapV2Library.sol\":2681:2696  amountInWithFee */\n      dup3\n        /* \"v2_periphery/libraries/UniswapV2Library.sol\":2673:2677  1000 */\n      0x03e8\n        /* \"v2_periphery/libraries/UniswapV2Library.sol\":2661:2670  reserveIn */\n      dup8\n        /* \"v2_periphery/libraries/UniswapV2Library.sol\":2661:2677  reserveIn * 1000 */\n      tag_255\n      swap2\n      swap1\n      tag_253\n      jump\t// in\n    tag_255:\n        /* \"v2_periphery/libraries/UniswapV2Library.sol\":2660:2696  (reserveIn * 1000) + amountInWithFee */\n      tag_256\n      swap2\n      swap1\n      tag_186\n      jump\t// in\n    tag_256:\n        /* \"v2_periphery/libraries/UniswapV2Library.sol\":2641:2696  uint denominator = (reserveIn * 1000) + amountInWithFee */\n      swap1\n      pop\n        /* \"v2_periphery/libraries/UniswapV2Library.sol\":2732:2743  denominator */\n      dup1\n        /* \"v2_periphery/libraries/UniswapV2Library.sol\":2720:2729  numerator */\n      dup3\n        /* \"v2_periphery/libraries/UniswapV2Library.sol\":2720:2743  numerator / denominator */\n      tag_257\n      swap2\n      swap1\n      tag_258\n      jump\t// in\n    tag_257:\n        /* \"v2_periphery/libraries/UniswapV2Library.sol\":2708:2743  amountOut = numerator / denominator */\n      swap4\n      pop\n        /* \"v2_periphery/libraries/UniswapV2Library.sol\":2350:2751  {... */\n      pop\n      pop\n      pop\n        /* \"v2_periphery/libraries/UniswapV2Library.sol\":2241:2751  function getAmountOut(uint amountIn, uint reserveIn, uint reserveOut) internal pure returns (uint amountOut) {... */\n      swap4\n      swap3\n      pop\n      pop\n      pop\n      jump\t// out\n        /* \"#utility.yul\":88:205   */\n    tag_260:\n        /* \"#utility.yul\":197:198   */\n      0x00\n        /* \"#utility.yul\":194:195   */\n      dup1\n        /* \"#utility.yul\":187:199   */\n      revert\n        /* \"#utility.yul\":211:328   */\n    tag_261:\n        /* \"#utility.yul\":320:321   */\n      0x00\n        /* \"#utility.yul\":317:318   */\n      dup1\n        /* \"#utility.yul\":310:322   */\n      revert\n        /* \"#utility.yul\":334:411   */\n    tag_262:\n        /* \"#utility.yul\":371:378   */\n      0x00\n        /* \"#utility.yul\":400:405   */\n      dup2\n        /* \"#utility.yul\":389:405   */\n      swap1\n      pop\n        /* \"#utility.yul\":334:411   */\n      swap2\n      swap1\n      pop\n      jump\t// out\n        /* \"#utility.yul\":417:539   */\n    tag_263:\n        /* \"#utility.yul\":490:514   */\n      tag_331\n        /* \"#utility.yul\":508:513   */\n      dup2\n        /* \"#utility.yul\":490:514   */\n      tag_262\n      jump\t// in\n    tag_331:\n        /* \"#utility.yul\":483:488   */\n      dup2\n        /* \"#utility.yul\":480:515   */\n      eq\n        /* \"#utility.yul\":470:533   */\n      tag_332\n      jumpi\n        /* \"#utility.yul\":529:530   */\n      0x00\n        /* \"#utility.yul\":526:527   */\n      dup1\n        /* \"#utility.yul\":519:531   */\n      revert\n        /* \"#utility.yul\":470:533   */\n    tag_332:\n        /* \"#utility.yul\":417:539   */\n      pop\n      jump\t// out\n        /* \"#utility.yul\":545:684   */\n    tag_264:\n        /* \"#utility.yul\":591:596   */\n      0x00\n        /* \"#utility.yul\":629:635   */\n      dup2\n        /* \"#utility.yul\":616:636   */\n      calldataload\n        /* \"#utility.yul\":607:636   */\n      swap1\n      pop\n        /* \"#utility.yul\":645:678   */\n      tag_334\n        /* \"#utility.yul\":672:677   */\n      dup2\n        /* \"#utility.yul\":645:678   */\n      tag_263\n      jump\t// in\n    tag_334:\n        /* \"#utility.yul\":545:684   */\n      swap3\n      swap2\n      pop\n      pop\n      jump\t// out\n        /* \"#utility.yul\":690:807   */\n    tag_265:\n        /* \"#utility.yul\":799:800   */\n      0x00\n        /* \"#utility.yul\":796:797   */\n      dup1\n        /* \"#utility.yul\":789:801   */\n      revert\n        /* \"#utility.yul\":813:930   */\n    tag_266:\n        /* \"#utility.yul\":922:923   */\n      0x00\n        /* \"#utility.yul\":919:920   */\n      dup1\n        /* \"#utility.yul\":912:924   */\n      revert\n        /* \"#utility.yul\":936:1053   */\n    tag_267:\n        /* \"#utility.yul\":1045:1046   */\n      0x00\n        /* \"#utility.yul\":1042:1043   */\n      dup1\n        /* \"#utility.yul\":1035:1047   */\n      revert\n        /* \"#utility.yul\":1076:1644   */\n    tag_268:\n        /* \"#utility.yul\":1149:1157   */\n      0x00\n        /* \"#utility.yul\":1159:1165   */\n      dup1\n        /* \"#utility.yul\":1209:1212   */\n      dup4\n        /* \"#utility.yul\":1202:1206   */\n      0x1f\n        /* \"#utility.yul\":1194:1200   */\n      dup5\n        /* \"#utility.yul\":1190:1207   */\n      add\n        /* \"#utility.yul\":1186:1213   */\n      slt\n        /* \"#utility.yul\":1176:1298   */\n      tag_339\n      jumpi\n        /* \"#utility.yul\":1217:1296   */\n      tag_340\n      tag_265\n      jump\t// in\n    tag_340:\n        /* \"#utility.yul\":1176:1298   */\n    tag_339:\n        /* \"#utility.yul\":1330:1336   */\n      dup3\n        /* \"#utility.yul\":1317:1337   */\n      calldataload\n        /* \"#utility.yul\":1307:1337   */\n      swap1\n      pop\n        /* \"#utility.yul\":1360:1378   */\n      0xffffffffffffffff\n        /* \"#utility.yul\":1352:1358   */\n      dup2\n        /* \"#utility.yul\":1349:1379   */\n      gt\n        /* \"#utility.yul\":1346:1463   */\n      iszero\n      tag_341\n      jumpi\n        /* \"#utility.yul\":1382:1461   */\n      tag_342\n      tag_266\n      jump\t// in\n    tag_342:\n        /* \"#utility.yul\":1346:1463   */\n    tag_341:\n        /* \"#utility.yul\":1496:1500   */\n      0x20\n        /* \"#utility.yul\":1488:1494   */\n      dup4\n        /* \"#utility.yul\":1484:1501   */\n      add\n        /* \"#utility.yul\":1472:1501   */\n      swap2\n      pop\n        /* \"#utility.yul\":1550:1553   */\n      dup4\n        /* \"#utility.yul\":1542:1546   */\n      0x20\n        /* \"#utility.yul\":1534:1540   */\n      dup3\n        /* \"#utility.yul\":1530:1547   */\n      mul\n        /* \"#utility.yul\":1520:1528   */\n      dup4\n        /* \"#utility.yul\":1516:1548   */\n      add\n        /* \"#utility.yul\":1513:1554   */\n      gt\n        /* \"#utility.yul\":1510:1638   */\n      iszero\n      tag_343\n      jumpi\n        /* \"#utility.yul\":1557:1636   */\n      tag_344\n      tag_267\n      jump\t// in\n    tag_344:\n        /* \"#utility.yul\":1510:1638   */\n    tag_343:\n        /* \"#utility.yul\":1076:1644   */\n      swap3\n      pop\n      swap3\n      swap1\n      pop\n      jump\t// out\n        /* \"#utility.yul\":1650:1776   */\n    tag_269:\n        /* \"#utility.yul\":1687:1694   */\n      0x00\n        /* \"#utility.yul\":1727:1769   */\n      0xffffffffffffffffffffffffffffffffffffffff\n        /* \"#utility.yul\":1720:1725   */\n      dup3\n        /* \"#utility.yul\":1716:1770   */\n      and\n        /* \"#utility.yul\":1705:1770   */\n      swap1\n      pop\n        /* \"#utility.yul\":1650:1776   */\n      swap2\n      swap1\n      pop\n      jump\t// out\n        /* \"#utility.yul\":1782:1878   */\n    tag_270:\n        /* \"#utility.yul\":1819:1826   */\n      0x00\n        /* \"#utility.yul\":1848:1872   */\n      tag_347\n        /* \"#utility.yul\":1866:1871   */\n      dup3\n        /* \"#utility.yul\":1848:1872   */\n      tag_269\n      jump\t// in\n    tag_347:\n        /* \"#utility.yul\":1837:1872   */\n      swap1\n      pop\n        /* \"#utility.yul\":1782:1878   */\n      swap2\n      swap1\n      pop\n      jump\t// out\n        /* \"#utility.yul\":1884:2006   */\n    tag_271:\n        /* \"#utility.yul\":1957:1981   */\n      tag_349\n        /* \"#utility.yul\":1975:1980   */\n      dup2\n        /* \"#utility.yul\":1957:1981   */\n      tag_270\n      jump\t// in\n    tag_349:\n        /* \"#utility.yul\":1950:1955   */\n      dup2\n        /* \"#utility.yul\":1947:1982   */\n      eq\n        /* \"#utility.yul\":1937:2000   */\n      tag_350\n      jumpi\n        /* \"#utility.yul\":1996:1997   */\n      0x00\n        /* \"#utility.yul\":1993:1994   */\n      dup1\n        /* \"#utility.yul\":1986:1998   */\n      revert\n        /* \"#utility.yul\":1937:2000   */\n    tag_350:\n        /* \"#utility.yul\":1884:2006   */\n      pop\n      jump\t// out\n        /* \"#utility.yul\":2012:2151   */\n    tag_272:\n        /* \"#utility.yul\":2058:2063   */\n      0x00\n        /* \"#utility.yul\":2096:2102   */\n      dup2\n        /* \"#utility.yul\":2083:2103   */\n      calldataload\n        /* \"#utility.yul\":2074:2103   */\n      swap1\n      pop\n        /* \"#utility.yul\":2112:2145   */\n      tag_352\n        /* \"#utility.yul\":2139:2144   */\n      dup2\n        /* \"#utility.yul\":2112:2145   */\n      tag_271\n      jump\t// in\n    tag_352:\n        /* \"#utility.yul\":2012:2151   */\n      swap3\n      swap2\n      pop\n      pop\n      jump\t// out\n        /* \"#utility.yul\":2157:3298   */\n    tag_10:\n        /* \"#utility.yul\":2279:2285   */\n      0x00\n        /* \"#utility.yul\":2287:2293   */\n      dup1\n        /* \"#utility.yul\":2295:2301   */\n      0x00\n        /* \"#utility.yul\":2303:2309   */\n      dup1\n        /* \"#utility.yul\":2311:2317   */\n      0x00\n        /* \"#utility.yul\":2319:2325   */\n      dup1\n        /* \"#utility.yul\":2368:2371   */\n      0xa0\n        /* \"#utility.yul\":2356:2365   */\n      dup8\n        /* \"#utility.yul\":2347:2354   */\n      dup10\n        /* \"#utility.yul\":2343:2366   */\n      sub\n        /* \"#utility.yul\":2339:2372   */\n      slt\n        /* \"#utility.yul\":2336:2456   */\n      iszero\n      tag_354\n      jumpi\n        /* \"#utility.yul\":2375:2454   */\n      tag_355\n      tag_260\n      jump\t// in\n    tag_355:\n        /* \"#utility.yul\":2336:2456   */\n    tag_354:\n        /* \"#utility.yul\":2495:2496   */\n      0x00\n        /* \"#utility.yul\":2520:2573   */\n      tag_356\n        /* \"#utility.yul\":2565:2572   */\n      dup10\n        /* \"#utility.yul\":2556:2562   */\n      dup3\n        /* \"#utility.yul\":2545:2554   */\n      dup11\n        /* \"#utility.yul\":2541:2563   */\n      add\n        /* \"#utility.yul\":2520:2573   */\n      tag_264\n      jump\t// in\n    tag_356:\n        /* \"#utility.yul\":2510:2573   */\n      swap7\n      pop\n        /* \"#utility.yul\":2466:2583   */\n      pop\n        /* \"#utility.yul\":2622:2624   */\n      0x20\n        /* \"#utility.yul\":2648:2701   */\n      tag_357\n        /* \"#utility.yul\":2693:2700   */\n      dup10\n        /* \"#utility.yul\":2684:2690   */\n      dup3\n        /* \"#utility.yul\":2673:2682   */\n      dup11\n        /* \"#utility.yul\":2669:2691   */\n      add\n        /* \"#utility.yul\":2648:2701   */\n      tag_264\n      jump\t// in\n    tag_357:\n        /* \"#utility.yul\":2638:2701   */\n      swap6\n      pop\n        /* \"#utility.yul\":2593:2711   */\n      pop\n        /* \"#utility.yul\":2778:2780   */\n      0x40\n        /* \"#utility.yul\":2767:2776   */\n      dup8\n        /* \"#utility.yul\":2763:2781   */\n      add\n        /* \"#utility.yul\":2750:2782   */\n      calldataload\n        /* \"#utility.yul\":2809:2827   */\n      0xffffffffffffffff\n        /* \"#utility.yul\":2801:2807   */\n      dup2\n        /* \"#utility.yul\":2798:2828   */\n      gt\n        /* \"#utility.yul\":2795:2912   */\n      iszero\n      tag_358\n      jumpi\n        /* \"#utility.yul\":2831:2910   */\n      tag_359\n      tag_261\n      jump\t// in\n    tag_359:\n        /* \"#utility.yul\":2795:2912   */\n    tag_358:\n        /* \"#utility.yul\":2944:3024   */\n      tag_360\n        /* \"#utility.yul\":3016:3023   */\n      dup10\n        /* \"#utility.yul\":3007:3013   */\n      dup3\n        /* \"#utility.yul\":2996:3005   */\n      dup11\n        /* \"#utility.yul\":2992:3014   */\n      add\n        /* \"#utility.yul\":2944:3024   */\n      tag_268\n      jump\t// in\n    tag_360:\n        /* \"#utility.yul\":2926:3024   */\n      swap5\n      pop\n      swap5\n      pop\n        /* \"#utility.yul\":2721:3034   */\n      pop\n        /* \"#utility.yul\":3073:3075   */\n      0x60\n        /* \"#utility.yul\":3099:3152   */\n      tag_361\n        /* \"#utility.yul\":3144:3151   */\n      dup10\n        /* \"#utility.yul\":3135:3141   */\n      dup3\n        /* \"#utility.yul\":3124:3133   */\n      dup11\n        /* \"#utility.yul\":3120:3142   */\n      add\n        /* \"#utility.yul\":3099:3152   */\n      tag_272\n      jump\t// in\n    tag_361:\n        /* \"#utility.yul\":3089:3152   */\n      swap3\n      pop\n        /* \"#utility.yul\":3044:3162   */\n      pop\n        /* \"#utility.yul\":3201:3204   */\n      0x80\n        /* \"#utility.yul\":3228:3281   */\n      tag_362\n        /* \"#utility.yul\":3273:3280   */\n      dup10\n        /* \"#utility.yul\":3264:3270   */\n      dup3\n        /* \"#utility.yul\":3253:3262   */\n      dup11\n        /* \"#utility.yul\":3249:3271   */\n      add\n        /* \"#utility.yul\":3228:3281   */\n      tag_264\n      jump\t// in\n    tag_362:\n        /* \"#utility.yul\":3218:3281   */\n      swap2\n      pop\n        /* \"#utility.yul\":3172:3291   */\n      pop\n        /* \"#utility.yul\":2157:3298   */\n      swap3\n      swap6\n      pop\n      swap3\n      swap6\n      pop\n      swap3\n      swap6\n      jump\t// out\n        /* \"#utility.yul\":3304:3422   */\n    tag_273:\n        /* \"#utility.yul\":3391:3415   */\n      tag_364\n        /* \"#utility.yul\":3409:3414   */\n      dup2\n        /* \"#utility.yul\":3391:3415   */\n      tag_270\n      jump\t// in\n    tag_364:\n        /* \"#utility.yul\":3386:3389   */\n      dup3\n        /* \"#utility.yul\":3379:3416   */\n      mstore\n        /* \"#utility.yul\":3304:3422   */\n      pop\n      pop\n      jump\t// out\n        /* \"#utility.yul\":3428:3650   */\n    tag_20:\n        /* \"#utility.yul\":3521:3525   */\n      0x00\n        /* \"#utility.yul\":3559:3561   */\n      0x20\n        /* \"#utility.yul\":3548:3557   */\n      dup3\n        /* \"#utility.yul\":3544:3562   */\n      add\n        /* \"#utility.yul\":3536:3562   */\n      swap1\n      pop\n        /* \"#utility.yul\":3572:3643   */\n      tag_366\n        /* \"#utility.yul\":3640:3641   */\n      0x00\n        /* \"#utility.yul\":3629:3638   */\n      dup4\n        /* \"#utility.yul\":3625:3642   */\n      add\n        /* \"#utility.yul\":3616:3622   */\n      dup5\n        /* \"#utility.yul\":3572:3643   */\n      tag_273\n      jump\t// in\n    tag_366:\n        /* \"#utility.yul\":3428:3650   */\n      swap3\n      swap2\n      pop\n      pop\n      jump\t// out\n        /* \"#utility.yul\":3656:4651   */\n    tag_23:\n        /* \"#utility.yul\":3769:3775   */\n      0x00\n        /* \"#utility.yul\":3777:3783   */\n      dup1\n        /* \"#utility.yul\":3785:3791   */\n      0x00\n        /* \"#utility.yul\":3793:3799   */\n      dup1\n        /* \"#utility.yul\":3801:3807   */\n      0x00\n        /* \"#utility.yul\":3850:3853   */\n      0x80\n        /* \"#utility.yul\":3838:3847   */\n      dup7\n        /* \"#utility.yul\":3829:3836   */\n      dup9\n        /* \"#utility.yul\":3825:3848   */\n      sub\n        /* \"#utility.yul\":3821:3854   */\n      slt\n        /* \"#utility.yul\":3818:3938   */\n      iszero\n      tag_368\n      jumpi\n        /* \"#utility.yul\":3857:3936   */\n      tag_369\n      tag_260\n      jump\t// in\n    tag_369:\n        /* \"#utility.yul\":3818:3938   */\n    tag_368:\n        /* \"#utility.yul\":3977:3978   */\n      0x00\n        /* \"#utility.yul\":4002:4055   */\n      tag_370\n        /* \"#utility.yul\":4047:4054   */\n      dup9\n        /* \"#utility.yul\":4038:4044   */\n      dup3\n        /* \"#utility.yul\":4027:4036   */\n      dup10\n        /* \"#utility.yul\":4023:4045   */\n      add\n        /* \"#utility.yul\":4002:4055   */\n      tag_264\n      jump\t// in\n    tag_370:\n        /* \"#utility.yul\":3992:4055   */\n      swap6\n      pop\n        /* \"#utility.yul\":3948:4065   */\n      pop\n        /* \"#utility.yul\":4132:4134   */\n      0x20\n        /* \"#utility.yul\":4121:4130   */\n      dup7\n        /* \"#utility.yul\":4117:4135   */\n      add\n        /* \"#utility.yul\":4104:4136   */\n      calldataload\n        /* \"#utility.yul\":4163:4181   */\n      0xffffffffffffffff\n        /* \"#utility.yul\":4155:4161   */\n      dup2\n        /* \"#utility.yul\":4152:4182   */\n      gt\n        /* \"#utility.yul\":4149:4266   */\n      iszero\n      tag_371\n      jumpi\n        /* \"#utility.yul\":4185:4264   */\n      tag_372\n      tag_261\n      jump\t// in\n    tag_372:\n        /* \"#utility.yul\":4149:4266   */\n    tag_371:\n        /* \"#utility.yul\":4298:4378   */\n      tag_373\n        /* \"#utility.yul\":4370:4377   */\n      dup9\n        /* \"#utility.yul\":4361:4367   */\n      dup3\n        /* \"#utility.yul\":4350:4359   */\n      dup10\n        /* \"#utility.yul\":4346:4368   */\n      add\n        /* \"#utility.yul\":4298:4378   */\n      tag_268\n      jump\t// in\n    tag_373:\n        /* \"#utility.yul\":4280:4378   */\n      swap5\n      pop\n      swap5\n      pop\n        /* \"#utility.yul\":4075:4388   */\n      pop\n        /* \"#utility.yul\":4427:4429   */\n      0x40\n        /* \"#utility.yul\":4453:4506   */\n      tag_374\n        /* \"#utility.yul\":4498:4505   */\n      dup9\n        /* \"#utility.yul\":4489:4495   */\n      dup3\n        /* \"#utility.yul\":4478:4487   */\n      dup10\n        /* \"#utility.yul\":4474:4496   */\n      add\n        /* \"#utility.yul\":4453:4506   */\n      tag_272\n      jump\t// in\n    tag_374:\n        /* \"#utility.yul\":4443:4506   */\n      swap3\n      pop\n        /* \"#utility.yul\":4398:4516   */\n      pop\n        /* \"#utility.yul\":4555:4557   */\n      0x60\n        /* \"#utility.yul\":4581:4634   */\n      tag_375\n        /* \"#utility.yul\":4626:4633   */\n      dup9\n        /* \"#utility.yul\":4617:4623   */\n      dup3\n        /* \"#utility.yul\":4606:4615   */\n      dup10\n        /* \"#utility.yul\":4602:4624   */\n      add\n        /* \"#utility.yul\":4581:4634   */\n      tag_264\n      jump\t// in\n    tag_375:\n        /* \"#utility.yul\":4571:4634   */\n      swap2\n      pop\n        /* \"#utility.yul\":4526:4644   */\n      pop\n        /* \"#utility.yul\":3656:4651   */\n      swap3\n      swap6\n      pop\n      swap3\n      swap6\n      swap1\n      swap4\n      pop\n      jump\t// out\n        /* \"#utility.yul\":4657:4826   */\n    tag_274:\n        /* \"#utility.yul\":4741:4752   */\n      0x00\n        /* \"#utility.yul\":4775:4781   */\n      dup3\n        /* \"#utility.yul\":4770:4773   */\n      dup3\n        /* \"#utility.yul\":4763:4782   */\n      mstore\n        /* \"#utility.yul\":4815:4819   */\n      0x20\n        /* \"#utility.yul\":4810:4813   */\n      dup3\n        /* \"#utility.yul\":4806:4820   */\n      add\n        /* \"#utility.yul\":4791:4820   */\n      swap1\n      pop\n        /* \"#utility.yul\":4657:4826   */\n      swap3\n      swap2\n      pop\n      pop\n      jump\t// out\n        /* \"#utility.yul\":4832:5006   */\n    tag_275:\n        /* \"#utility.yul\":4972:4998   */\n      0x556e69737761705632526f757465723a20455850495245440000000000000000\n        /* \"#utility.yul\":4968:4969   */\n      0x00\n        /* \"#utility.yul\":4960:4966   */\n      dup3\n        /* \"#utility.yul\":4956:4970   */\n      add\n        /* \"#utility.yul\":4949:4999   */\n      mstore\n        /* \"#utility.yul\":4832:5006   */\n      pop\n      jump\t// out\n        /* \"#utility.yul\":5012:5378   */\n    tag_276:\n        /* \"#utility.yul\":5154:5157   */\n      0x00\n        /* \"#utility.yul\":5175:5242   */\n      tag_379\n        /* \"#utility.yul\":5239:5241   */\n      0x18\n        /* \"#utility.yul\":5234:5237   */\n      dup4\n        /* \"#utility.yul\":5175:5242   */\n      tag_274\n      jump\t// in\n    tag_379:\n        /* \"#utility.yul\":5168:5242   */\n      swap2\n      pop\n        /* \"#utility.yul\":5251:5344   */\n      tag_380\n        /* \"#utility.yul\":5340:5343   */\n      dup3\n        /* \"#utility.yul\":5251:5344   */\n      tag_275\n      jump\t// in\n    tag_380:\n        /* \"#utility.yul\":5369:5371   */\n      0x20\n        /* \"#utility.yul\":5364:5367   */\n      dup3\n        /* \"#utility.yul\":5360:5372   */\n      add\n        /* \"#utility.yul\":5353:5372   */\n      swap1\n      pop\n        /* \"#utility.yul\":5012:5378   */\n      swap2\n      swap1\n      pop\n      jump\t// out\n        /* \"#utility.yul\":5384:5803   */\n    tag_32:\n        /* \"#utility.yul\":5550:5554   */\n      0x00\n        /* \"#utility.yul\":5588:5590   */\n      0x20\n        /* \"#utility.yul\":5577:5586   */\n      dup3\n        /* \"#utility.yul\":5573:5591   */\n      add\n        /* \"#utility.yul\":5565:5591   */\n      swap1\n      pop\n        /* \"#utility.yul\":5637:5646   */\n      dup2\n        /* \"#utility.yul\":5631:5635   */\n      dup2\n        /* \"#utility.yul\":5627:5647   */\n      sub\n        /* \"#utility.yul\":5623:5624   */\n      0x00\n        /* \"#utility.yul\":5612:5621   */\n      dup4\n        /* \"#utility.yul\":5608:5625   */\n      add\n        /* \"#utility.yul\":5601:5648   */\n      mstore\n        /* \"#utility.yul\":5665:5796   */\n      tag_382\n        /* \"#utility.yul\":5791:5795   */\n      dup2\n        /* \"#utility.yul\":5665:5796   */\n      tag_276\n      jump\t// in\n    tag_382:\n        /* \"#utility.yul\":5657:5796   */\n      swap1\n      pop\n        /* \"#utility.yul\":5384:5803   */\n      swap2\n      swap1\n      pop\n      jump\t// out\n        /* \"#utility.yul\":5809:5989   */\n    tag_37:\n        /* \"#utility.yul\":5857:5934   */\n      0x4e487b7100000000000000000000000000000000000000000000000000000000\n        /* \"#utility.yul\":5854:5855   */\n      0x00\n        /* \"#utility.yul\":5847:5935   */\n      mstore\n        /* \"#utility.yul\":5954:5958   */\n      0x32\n        /* \"#utility.yul\":5951:5952   */\n      0x04\n        /* \"#utility.yul\":5944:5959   */\n      mstore\n        /* \"#utility.yul\":5978:5982   */\n      0x24\n        /* \"#utility.yul\":5975:5976   */\n      0x00\n        /* \"#utility.yul\":5968:5983   */\n      revert\n        /* \"#utility.yul\":5995:6324   */\n    tag_39:\n        /* \"#utility.yul\":6054:6060   */\n      0x00\n        /* \"#utility.yul\":6103:6105   */\n      0x20\n        /* \"#utility.yul\":6091:6100   */\n      dup3\n        /* \"#utility.yul\":6082:6089   */\n      dup5\n        /* \"#utility.yul\":6078:6101   */\n      sub\n        /* \"#utility.yul\":6074:6106   */\n      slt\n        /* \"#utility.yul\":6071:6190   */\n      iszero\n      tag_385\n      jumpi\n        /* \"#utility.yul\":6109:6188   */\n      tag_386\n      tag_260\n      jump\t// in\n    tag_386:\n        /* \"#utility.yul\":6071:6190   */\n    tag_385:\n        /* \"#utility.yul\":6229:6230   */\n      0x00\n        /* \"#utility.yul\":6254:6307   */\n      tag_387\n        /* \"#utility.yul\":6299:6306   */\n      dup5\n        /* \"#utility.yul\":6290:6296   */\n      dup3\n        /* \"#utility.yul\":6279:6288   */\n      dup6\n        /* \"#utility.yul\":6275:6297   */\n      add\n        /* \"#utility.yul\":6254:6307   */\n      tag_272\n      jump\t// in\n    tag_387:\n        /* \"#utility.yul\":6244:6307   */\n      swap2\n      pop\n        /* \"#utility.yul\":6200:6317   */\n      pop\n        /* \"#utility.yul\":5995:6324   */\n      swap3\n      swap2\n      pop\n      pop\n      jump\t// out\n        /* \"#utility.yul\":6330:6510   */\n    tag_277:\n        /* \"#utility.yul\":6378:6455   */\n      0x4e487b7100000000000000000000000000000000000000000000000000000000\n        /* \"#utility.yul\":6375:6376   */\n      0x00\n        /* \"#utility.yul\":6368:6456   */\n      mstore\n        /* \"#utility.yul\":6475:6479   */\n      0x11\n        /* \"#utility.yul\":6472:6473   */\n      0x04\n        /* \"#utility.yul\":6465:6480   */\n      mstore\n        /* \"#utility.yul\":6499:6503   */\n      0x24\n        /* \"#utility.yul\":6496:6497   */\n      0x00\n        /* \"#utility.yul\":6489:6504   */\n      revert\n        /* \"#utility.yul\":6516:6707   */\n    tag_50:\n        /* \"#utility.yul\":6556:6560   */\n      0x00\n        /* \"#utility.yul\":6576:6596   */\n      tag_390\n        /* \"#utility.yul\":6594:6595   */\n      dup3\n        /* \"#utility.yul\":6576:6596   */\n      tag_262\n      jump\t// in\n    tag_390:\n        /* \"#utility.yul\":6571:6596   */\n      swap2\n      pop\n        /* \"#utility.yul\":6610:6630   */\n      tag_391\n        /* \"#utility.yul\":6628:6629   */\n      dup4\n        /* \"#utility.yul\":6610:6630   */\n      tag_262\n      jump\t// in\n    tag_391:\n        /* \"#utility.yul\":6605:6630   */\n      swap3\n      pop\n        /* \"#utility.yul\":6649:6650   */\n      dup3\n        /* \"#utility.yul\":6646:6647   */\n      dup3\n        /* \"#utility.yul\":6643:6651   */\n      lt\n        /* \"#utility.yul\":6640:6674   */\n      iszero\n      tag_392\n      jumpi\n        /* \"#utility.yul\":6654:6672   */\n      tag_393\n      tag_277\n      jump\t// in\n    tag_393:\n        /* \"#utility.yul\":6640:6674   */\n    tag_392:\n        /* \"#utility.yul\":6699:6700   */\n      dup3\n        /* \"#utility.yul\":6696:6697   */\n      dup3\n        /* \"#utility.yul\":6692:6701   */\n      sub\n        /* \"#utility.yul\":6684:6701   */\n      swap1\n      pop\n        /* \"#utility.yul\":6516:6707   */\n      swap3\n      swap2\n      pop\n      pop\n      jump\t// out\n        /* \"#utility.yul\":6713:6856   */\n    tag_278:\n        /* \"#utility.yul\":6770:6775   */\n      0x00\n        /* \"#utility.yul\":6801:6807   */\n      dup2\n        /* \"#utility.yul\":6795:6808   */\n      mload\n        /* \"#utility.yul\":6786:6808   */\n      swap1\n      pop\n        /* \"#utility.yul\":6817:6850   */\n      tag_395\n        /* \"#utility.yul\":6844:6849   */\n      dup2\n        /* \"#utility.yul\":6817:6850   */\n      tag_263\n      jump\t// in\n    tag_395:\n        /* \"#utility.yul\":6713:6856   */\n      swap3\n      swap2\n      pop\n      pop\n      jump\t// out\n        /* \"#utility.yul\":6862:7213   */\n    tag_58:\n        /* \"#utility.yul\":6932:6938   */\n      0x00\n        /* \"#utility.yul\":6981:6983   */\n      0x20\n        /* \"#utility.yul\":6969:6978   */\n      dup3\n        /* \"#utility.yul\":6960:6967   */\n      dup5\n        /* \"#utility.yul\":6956:6979   */\n      sub\n        /* \"#utility.yul\":6952:6984   */\n      slt\n        /* \"#utility.yul\":6949:7068   */\n      iszero\n      tag_397\n      jumpi\n        /* \"#utility.yul\":6987:7066   */\n      tag_398\n      tag_260\n      jump\t// in\n    tag_398:\n        /* \"#utility.yul\":6949:7068   */\n    tag_397:\n        /* \"#utility.yul\":7107:7108   */\n      0x00\n        /* \"#utility.yul\":7132:7196   */\n      tag_399\n        /* \"#utility.yul\":7188:7195   */\n      dup5\n        /* \"#utility.yul\":7179:7185   */\n      dup3\n        /* \"#utility.yul\":7168:7177   */\n      dup6\n        /* \"#utility.yul\":7164:7186   */\n      add\n        /* \"#utility.yul\":7132:7196   */\n      tag_278\n      jump\t// in\n    tag_399:\n        /* \"#utility.yul\":7122:7196   */\n      swap2\n      pop\n        /* \"#utility.yul\":7078:7206   */\n      pop\n        /* \"#utility.yul\":6862:7213   */\n      swap3\n      swap2\n      pop\n      pop\n      jump\t// out\n        /* \"#utility.yul\":7219:7449   */\n    tag_279:\n        /* \"#utility.yul\":7359:7393   */\n      0x556e69737761705632526f757465723a20494e53554646494349454e545f4f55\n        /* \"#utility.yul\":7355:7356   */\n      0x00\n        /* \"#utility.yul\":7347:7353   */\n      dup3\n        /* \"#utility.yul\":7343:7357   */\n      add\n        /* \"#utility.yul\":7336:7394   */\n      mstore\n        /* \"#utility.yul\":7428:7441   */\n      0x545055545f414d4f554e54000000000000000000000000000000000000000000\n        /* \"#utility.yul\":7423:7425   */\n      0x20\n        /* \"#utility.yul\":7415:7421   */\n      dup3\n        /* \"#utility.yul\":7411:7426   */\n      add\n        /* \"#utility.yul\":7404:7442   */\n      mstore\n        /* \"#utility.yul\":7219:7449   */\n      pop\n      jump\t// out\n        /* \"#utility.yul\":7455:7821   */\n    tag_280:\n        /* \"#utility.yul\":7597:7600   */\n      0x00\n        /* \"#utility.yul\":7618:7685   */\n      tag_402\n        /* \"#utility.yul\":7682:7684   */\n      0x2b\n        /* \"#utility.yul\":7677:7680   */\n      dup4\n        /* \"#utility.yul\":7618:7685   */\n      tag_274\n      jump\t// in\n    tag_402:\n        /* \"#utility.yul\":7611:7685   */\n      swap2\n      pop\n        /* \"#utility.yul\":7694:7787   */\n      tag_403\n        /* \"#utility.yul\":7783:7786   */\n      dup3\n        /* \"#utility.yul\":7694:7787   */\n      tag_279\n      jump\t// in\n    tag_403:\n        /* \"#utility.yul\":7812:7814   */\n      0x40\n        /* \"#utility.yul\":7807:7810   */\n      dup3\n        /* \"#utility.yul\":7803:7815   */\n      add\n        /* \"#utility.yul\":7796:7815   */\n      swap1\n      pop\n        /* \"#utility.yul\":7455:7821   */\n      swap2\n      swap1\n      pop\n      jump\t// out\n        /* \"#utility.yul\":7827:8246   */\n    tag_72:\n        /* \"#utility.yul\":7993:7997   */\n      0x00\n        /* \"#utility.yul\":8031:8033   */\n      0x20\n        /* \"#utility.yul\":8020:8029   */\n      dup3\n        /* \"#utility.yul\":8016:8034   */\n      add\n        /* \"#utility.yul\":8008:8034   */\n      swap1\n      pop\n        /* \"#utility.yul\":8080:8089   */\n      dup2\n        /* \"#utility.yul\":8074:8078   */\n      dup2\n        /* \"#utility.yul\":8070:8090   */\n      sub\n        /* \"#utility.yul\":8066:8067   */\n      0x00\n        /* \"#utility.yul\":8055:8064   */\n      dup4\n        /* \"#utility.yul\":8051:8068   */\n      add\n        /* \"#utility.yul\":8044:8091   */\n      mstore\n        /* \"#utility.yul\":8108:8239   */\n      tag_405\n        /* \"#utility.yul\":8234:8238   */\n      dup2\n        /* \"#utility.yul\":8108:8239   */\n      tag_280\n      jump\t// in\n    tag_405:\n        /* \"#utility.yul\":8100:8239   */\n      swap1\n      pop\n        /* \"#utility.yul\":7827:8246   */\n      swap2\n      swap1\n      pop\n      jump\t// out\n        /* \"#utility.yul\":8252:8431   */\n    tag_281:\n        /* \"#utility.yul\":8392:8423   */\n      0x556e69737761705632526f757465723a20494e56414c49445f50415448000000\n        /* \"#utility.yul\":8388:8389   */\n      0x00\n        /* \"#utility.yul\":8380:8386   */\n      dup3\n        /* \"#utility.yul\":8376:8390   */\n      add\n        /* \"#utility.yul\":8369:8424   */\n      mstore\n        /* \"#utility.yul\":8252:8431   */\n      pop\n      jump\t// out\n        /* \"#utility.yul\":8437:8803   */\n    tag_282:\n        /* \"#utility.yul\":8579:8582   */\n      0x00\n        /* \"#utility.yul\":8600:8667   */\n      tag_408\n        /* \"#utility.yul\":8664:8666   */\n      0x1d\n        /* \"#utility.yul\":8659:8662   */\n      dup4\n        /* \"#utility.yul\":8600:8667   */\n      tag_274\n      jump\t// in\n    tag_408:\n        /* \"#utility.yul\":8593:8667   */\n      swap2\n      pop\n        /* \"#utility.yul\":8676:8769   */\n      tag_409\n        /* \"#utility.yul\":8765:8768   */\n      dup3\n        /* \"#utility.yul\":8676:8769   */\n      tag_281\n      jump\t// in\n    tag_409:\n        /* \"#utility.yul\":8794:8796   */\n      0x20\n        /* \"#utility.yul\":8789:8792   */\n      dup3\n        /* \"#utility.yul\":8785:8797   */\n      add\n        /* \"#utility.yul\":8778:8797   */\n      swap1\n      pop\n        /* \"#utility.yul\":8437:8803   */\n      swap2\n      swap1\n      pop\n      jump\t// out\n        /* \"#utility.yul\":8809:9228   */\n    tag_83:\n        /* \"#utility.yul\":8975:8979   */\n      0x00\n        /* \"#utility.yul\":9013:9015   */\n      0x20\n        /* \"#utility.yul\":9002:9011   */\n      dup3\n        /* \"#utility.yul\":8998:9016   */\n      add\n        /* \"#utility.yul\":8990:9016   */\n      swap1\n      pop\n        /* \"#utility.yul\":9062:9071   */\n      dup2\n        /* \"#utility.yul\":9056:9060   */\n      dup2\n        /* \"#utility.yul\":9052:9072   */\n      sub\n        /* \"#utility.yul\":9048:9049   */\n      0x00\n        /* \"#utility.yul\":9037:9046   */\n      dup4\n        /* \"#utility.yul\":9033:9050   */\n      add\n        /* \"#utility.yul\":9026:9073   */\n      mstore\n        /* \"#utility.yul\":9090:9221   */\n      tag_411\n        /* \"#utility.yul\":9216:9220   */\n      dup2\n        /* \"#utility.yul\":9090:9221   */\n      tag_282\n      jump\t// in\n    tag_411:\n        /* \"#utility.yul\":9082:9221   */\n      swap1\n      pop\n        /* \"#utility.yul\":8809:9228   */\n      swap2\n      swap1\n      pop\n      jump\t// out\n        /* \"#utility.yul\":9234:9352   */\n    tag_283:\n        /* \"#utility.yul\":9321:9345   */\n      tag_413\n        /* \"#utility.yul\":9339:9344   */\n      dup2\n        /* \"#utility.yul\":9321:9345   */\n      tag_262\n      jump\t// in\n    tag_413:\n        /* \"#utility.yul\":9316:9319   */\n      dup3\n        /* \"#utility.yul\":9309:9346   */\n      mstore\n        /* \"#utility.yul\":9234:9352   */\n      pop\n      pop\n      jump\t// out\n        /* \"#utility.yul\":9358:9580   */\n    tag_103:\n        /* \"#utility.yul\":9451:9455   */\n      0x00\n        /* \"#utility.yul\":9489:9491   */\n      0x20\n        /* \"#utility.yul\":9478:9487   */\n      dup3\n        /* \"#utility.yul\":9474:9492   */\n      add\n        /* \"#utility.yul\":9466:9492   */\n      swap1\n      pop\n        /* \"#utility.yul\":9502:9573   */\n      tag_415\n        /* \"#utility.yul\":9570:9571   */\n      0x00\n        /* \"#utility.yul\":9559:9568   */\n      dup4\n        /* \"#utility.yul\":9555:9572   */\n      add\n        /* \"#utility.yul\":9546:9552   */\n      dup5\n        /* \"#utility.yul\":9502:9573   */\n      tag_283\n      jump\t// in\n    tag_415:\n        /* \"#utility.yul\":9358:9580   */\n      swap3\n      swap2\n      pop\n      pop\n      jump\t// out\n        /* \"#utility.yul\":9586:9918   */\n    tag_129:\n        /* \"#utility.yul\":9707:9711   */\n      0x00\n        /* \"#utility.yul\":9745:9747   */\n      0x40\n        /* \"#utility.yul\":9734:9743   */\n      dup3\n        /* \"#utility.yul\":9730:9748   */\n      add\n        /* \"#utility.yul\":9722:9748   */\n      swap1\n      pop\n        /* \"#utility.yul\":9758:9829   */\n      tag_417\n        /* \"#utility.yul\":9826:9827   */\n      0x00\n        /* \"#utility.yul\":9815:9824   */\n      dup4\n        /* \"#utility.yul\":9811:9828   */\n      add\n        /* \"#utility.yul\":9802:9808   */\n      dup6\n        /* \"#utility.yul\":9758:9829   */\n      tag_273\n      jump\t// in\n    tag_417:\n        /* \"#utility.yul\":9839:9911   */\n      tag_418\n        /* \"#utility.yul\":9907:9909   */\n      0x20\n        /* \"#utility.yul\":9896:9905   */\n      dup4\n        /* \"#utility.yul\":9892:9910   */\n      add\n        /* \"#utility.yul\":9883:9889   */\n      dup5\n        /* \"#utility.yul\":9839:9911   */\n      tag_283\n      jump\t// in\n    tag_418:\n        /* \"#utility.yul\":9586:9918   */\n      swap4\n      swap3\n      pop\n      pop\n      pop\n      jump\t// out\n        /* \"#utility.yul\":9924:10014   */\n    tag_284:\n        /* \"#utility.yul\":9958:9965   */\n      0x00\n        /* \"#utility.yul\":10001:10006   */\n      dup2\n        /* \"#utility.yul\":9994:10007   */\n      iszero\n        /* \"#utility.yul\":9987:10008   */\n      iszero\n        /* \"#utility.yul\":9976:10008   */\n      swap1\n      pop\n        /* \"#utility.yul\":9924:10014   */\n      swap2\n      swap1\n      pop\n      jump\t// out\n        /* \"#utility.yul\":10020:10136   */\n    tag_285:\n        /* \"#utility.yul\":10090:10111   */\n      tag_421\n        /* \"#utility.yul\":10105:10110   */\n      dup2\n        /* \"#utility.yul\":10090:10111   */\n      tag_284\n      jump\t// in\n    tag_421:\n        /* \"#utility.yul\":10083:10088   */\n      dup2\n        /* \"#utility.yul\":10080:10112   */\n      eq\n        /* \"#utility.yul\":10070:10130   */\n      tag_422\n      jumpi\n        /* \"#utility.yul\":10126:10127   */\n      0x00\n        /* \"#utility.yul\":10123:10124   */\n      dup1\n        /* \"#utility.yul\":10116:10128   */\n      revert\n        /* \"#utility.yul\":10070:10130   */\n    tag_422:\n        /* \"#utility.yul\":10020:10136   */\n      pop\n      jump\t// out\n        /* \"#utility.yul\":10142:10279   */\n    tag_286:\n        /* \"#utility.yul\":10196:10201   */\n      0x00\n        /* \"#utility.yul\":10227:10233   */\n      dup2\n        /* \"#utility.yul\":10221:10234   */\n      mload\n        /* \"#utility.yul\":10212:10234   */\n      swap1\n      pop\n        /* \"#utility.yul\":10243:10273   */\n      tag_424\n        /* \"#utility.yul\":10267:10272   */\n      dup2\n        /* \"#utility.yul\":10243:10273   */\n      tag_285\n      jump\t// in\n    tag_424:\n        /* \"#utility.yul\":10142:10279   */\n      swap3\n      swap2\n      pop\n      pop\n      jump\t// out\n        /* \"#utility.yul\":10285:10630   */\n    tag_133:\n        /* \"#utility.yul\":10352:10358   */\n      0x00\n        /* \"#utility.yul\":10401:10403   */\n      0x20\n        /* \"#utility.yul\":10389:10398   */\n      dup3\n        /* \"#utility.yul\":10380:10387   */\n      dup5\n        /* \"#utility.yul\":10376:10399   */\n      sub\n        /* \"#utility.yul\":10372:10404   */\n      slt\n        /* \"#utility.yul\":10369:10488   */\n      iszero\n      tag_426\n      jumpi\n        /* \"#utility.yul\":10407:10486   */\n      tag_427\n      tag_260\n      jump\t// in\n    tag_427:\n        /* \"#utility.yul\":10369:10488   */\n    tag_426:\n        /* \"#utility.yul\":10527:10528   */\n      0x00\n        /* \"#utility.yul\":10552:10613   */\n      tag_428\n        /* \"#utility.yul\":10605:10612   */\n      dup5\n        /* \"#utility.yul\":10596:10602   */\n      dup3\n        /* \"#utility.yul\":10585:10594   */\n      dup6\n        /* \"#utility.yul\":10581:10603   */\n      add\n        /* \"#utility.yul\":10552:10613   */\n      tag_286\n      jump\t// in\n    tag_428:\n        /* \"#utility.yul\":10542:10613   */\n      swap2\n      pop\n        /* \"#utility.yul\":10498:10623   */\n      pop\n        /* \"#utility.yul\":10285:10630   */\n      swap3\n      swap2\n      pop\n      pop\n      jump\t// out\n        /* \"#utility.yul\":10636:10816   */\n    tag_136:\n        /* \"#utility.yul\":10684:10761   */\n      0x4e487b7100000000000000000000000000000000000000000000000000000000\n        /* \"#utility.yul\":10681:10682   */\n      0x00\n        /* \"#utility.yul\":10674:10762   */\n      mstore\n        /* \"#utility.yul\":10781:10785   */\n      0x01\n        /* \"#utility.yul\":10778:10779   */\n      0x04\n        /* \"#utility.yul\":10771:10786   */\n      mstore\n        /* \"#utility.yul\":10805:10809   */\n      0x24\n        /* \"#utility.yul\":10802:10803   */\n      0x00\n        /* \"#utility.yul\":10795:10810   */\n      revert\n        /* \"#utility.yul\":10822:10916   */\n    tag_287:\n        /* \"#utility.yul\":10855:10863   */\n      0x00\n        /* \"#utility.yul\":10903:10908   */\n      dup2\n        /* \"#utility.yul\":10899:10901   */\n      0x60\n        /* \"#utility.yul\":10895:10909   */\n      shl\n        /* \"#utility.yul\":10874:10909   */\n      swap1\n      pop\n        /* \"#utility.yul\":10822:10916   */\n      swap2\n      swap1\n      pop\n      jump\t// out\n        /* \"#utility.yul\":10922:11016   */\n    tag_288:\n        /* \"#utility.yul\":10961:10968   */\n      0x00\n        /* \"#utility.yul\":10990:11010   */\n      tag_432\n        /* \"#utility.yul\":11004:11009   */\n      dup3\n        /* \"#utility.yul\":10990:11010   */\n      tag_287\n      jump\t// in\n    tag_432:\n        /* \"#utility.yul\":10979:11010   */\n      swap1\n      pop\n        /* \"#utility.yul\":10922:11016   */\n      swap2\n      swap1\n      pop\n      jump\t// out\n        /* \"#utility.yul\":11022:11122   */\n    tag_289:\n        /* \"#utility.yul\":11061:11068   */\n      0x00\n        /* \"#utility.yul\":11090:11116   */\n      tag_434\n        /* \"#utility.yul\":11110:11115   */\n      dup3\n        /* \"#utility.yul\":11090:11116   */\n      tag_288\n      jump\t// in\n    tag_434:\n        /* \"#utility.yul\":11079:11116   */\n      swap1\n      pop\n        /* \"#utility.yul\":11022:11122   */\n      swap2\n      swap1\n      pop\n      jump\t// out\n        /* \"#utility.yul\":11128:11285   */\n    tag_290:\n        /* \"#utility.yul\":11233:11278   */\n      tag_436\n        /* \"#utility.yul\":11253:11277   */\n      tag_437\n        /* \"#utility.yul\":11271:11276   */\n      dup3\n        /* \"#utility.yul\":11253:11277   */\n      tag_270\n      jump\t// in\n    tag_437:\n        /* \"#utility.yul\":11233:11278   */\n      tag_289\n      jump\t// in\n    tag_436:\n        /* \"#utility.yul\":11228:11231   */\n      dup3\n        /* \"#utility.yul\":11221:11279   */\n      mstore\n        /* \"#utility.yul\":11128:11285   */\n      pop\n      pop\n      jump\t// out\n        /* \"#utility.yul\":11291:11688   */\n    tag_161:\n        /* \"#utility.yul\":11431:11434   */\n      0x00\n        /* \"#utility.yul\":11446:11521   */\n      tag_439\n        /* \"#utility.yul\":11517:11520   */\n      dup3\n        /* \"#utility.yul\":11508:11514   */\n      dup6\n        /* \"#utility.yul\":11446:11521   */\n      tag_290\n      jump\t// in\n    tag_439:\n        /* \"#utility.yul\":11546:11548   */\n      0x14\n        /* \"#utility.yul\":11541:11544   */\n      dup3\n        /* \"#utility.yul\":11537:11549   */\n      add\n        /* \"#utility.yul\":11530:11549   */\n      swap2\n      pop\n        /* \"#utility.yul\":11559:11634   */\n      tag_440\n        /* \"#utility.yul\":11630:11633   */\n      dup3\n        /* \"#utility.yul\":11621:11627   */\n      dup5\n        /* \"#utility.yul\":11559:11634   */\n      tag_290\n      jump\t// in\n    tag_440:\n        /* \"#utility.yul\":11659:11661   */\n      0x14\n        /* \"#utility.yul\":11654:11657   */\n      dup3\n        /* \"#utility.yul\":11650:11662   */\n      add\n        /* \"#utility.yul\":11643:11662   */\n      swap2\n      pop\n        /* \"#utility.yul\":11679:11682   */\n      dup2\n        /* \"#utility.yul\":11672:11682   */\n      swap1\n      pop\n        /* \"#utility.yul\":11291:11688   */\n      swap4\n      swap3\n      pop\n      pop\n      pop\n      jump\t// out\n        /* \"#utility.yul\":11694:11842   */\n    tag_291:\n        /* \"#utility.yul\":11796:11807   */\n      0x00\n        /* \"#utility.yul\":11833:11836   */\n      dup2\n        /* \"#utility.yul\":11818:11836   */\n      swap1\n      pop\n        /* \"#utility.yul\":11694:11842   */\n      swap3\n      swap2\n      pop\n      pop\n      jump\t// out\n        /* \"#utility.yul\":11848:12062   */\n    tag_292:\n        /* \"#utility.yul\":11988:12054   */\n      0xff00000000000000000000000000000000000000000000000000000000000000\n        /* \"#utility.yul\":11984:11985   */\n      0x00\n        /* \"#utility.yul\":11976:11982   */\n      dup3\n        /* \"#utility.yul\":11972:11986   */\n      add\n        /* \"#utility.yul\":11965:12055   */\n      mstore\n        /* \"#utility.yul\":11848:12062   */\n      pop\n      jump\t// out\n        /* \"#utility.yul\":12068:12468   */\n    tag_293:\n        /* \"#utility.yul\":12228:12231   */\n      0x00\n        /* \"#utility.yul\":12249:12333   */\n      tag_444\n        /* \"#utility.yul\":12331:12332   */\n      0x01\n        /* \"#utility.yul\":12326:12329   */\n      dup4\n        /* \"#utility.yul\":12249:12333   */\n      tag_291\n      jump\t// in\n    tag_444:\n        /* \"#utility.yul\":12242:12333   */\n      swap2\n      pop\n        /* \"#utility.yul\":12342:12435   */\n      tag_445\n        /* \"#utility.yul\":12431:12434   */\n      dup3\n        /* \"#utility.yul\":12342:12435   */\n      tag_292\n      jump\t// in\n    tag_445:\n        /* \"#utility.yul\":12460:12461   */\n      0x01\n        /* \"#utility.yul\":12455:12458   */\n      dup3\n        /* \"#utility.yul\":12451:12462   */\n      add\n        /* \"#utility.yul\":12444:12462   */\n      swap1\n      pop\n        /* \"#utility.yul\":12068:12468   */\n      swap2\n      swap1\n      pop\n      jump\t// out\n        /* \"#utility.yul\":12474:12551   */\n    tag_294:\n        /* \"#utility.yul\":12511:12518   */\n      0x00\n        /* \"#utility.yul\":12540:12545   */\n      dup2\n        /* \"#utility.yul\":12529:12545   */\n      swap1\n      pop\n        /* \"#utility.yul\":12474:12551   */\n      swap2\n      swap1\n      pop\n      jump\t// out\n        /* \"#utility.yul\":12557:12636   */\n    tag_295:\n        /* \"#utility.yul\":12596:12603   */\n      0x00\n        /* \"#utility.yul\":12625:12630   */\n      dup2\n        /* \"#utility.yul\":12614:12630   */\n      swap1\n      pop\n        /* \"#utility.yul\":12557:12636   */\n      swap2\n      swap1\n      pop\n      jump\t// out\n        /* \"#utility.yul\":12642:12799   */\n    tag_296:\n        /* \"#utility.yul\":12747:12792   */\n      tag_449\n        /* \"#utility.yul\":12767:12791   */\n      tag_450\n        /* \"#utility.yul\":12785:12790   */\n      dup3\n        /* \"#utility.yul\":12767:12791   */\n      tag_294\n      jump\t// in\n    tag_450:\n        /* \"#utility.yul\":12747:12792   */\n      tag_295\n      jump\t// in\n    tag_449:\n        /* \"#utility.yul\":12742:12745   */\n      dup3\n        /* \"#utility.yul\":12735:12793   */\n      mstore\n        /* \"#utility.yul\":12642:12799   */\n      pop\n      pop\n      jump\t// out\n        /* \"#utility.yul\":12805:13019   */\n    tag_297:\n        /* \"#utility.yul\":12945:13011   */\n      0x96e8ac4277198ff8b6f785478aa9a39f403cb768dd02cbee326c3e7da348845f\n        /* \"#utility.yul\":12941:12942   */\n      0x00\n        /* \"#utility.yul\":12933:12939   */\n      dup3\n        /* \"#utility.yul\":12929:12943   */\n      add\n        /* \"#utility.yul\":12922:13012   */\n      mstore\n        /* \"#utility.yul\":12805:13019   */\n      pop\n      jump\t// out\n        /* \"#utility.yul\":13025:13427   */\n    tag_298:\n        /* \"#utility.yul\":13185:13188   */\n      0x00\n        /* \"#utility.yul\":13206:13291   */\n      tag_453\n        /* \"#utility.yul\":13288:13290   */\n      0x20\n        /* \"#utility.yul\":13283:13286   */\n      dup4\n        /* \"#utility.yul\":13206:13291   */\n      tag_291\n      jump\t// in\n    tag_453:\n        /* \"#utility.yul\":13199:13291   */\n      swap2\n      pop\n        /* \"#utility.yul\":13300:13393   */\n      tag_454\n        /* \"#utility.yul\":13389:13392   */\n      dup3\n        /* \"#utility.yul\":13300:13393   */\n      tag_297\n      jump\t// in\n    tag_454:\n        /* \"#utility.yul\":13418:13420   */\n      0x20\n        /* \"#utility.yul\":13413:13416   */\n      dup3\n        /* \"#utility.yul\":13409:13421   */\n      add\n        /* \"#utility.yul\":13402:13421   */\n      swap1\n      pop\n        /* \"#utility.yul\":13025:13427   */\n      swap2\n      swap1\n      pop\n      jump\t// out\n        /* \"#utility.yul\":13433:14362   */\n    tag_163:\n        /* \"#utility.yul\":13775:13778   */\n      0x00\n        /* \"#utility.yul\":13797:13945   */\n      tag_456\n        /* \"#utility.yul\":13941:13944   */\n      dup3\n        /* \"#utility.yul\":13797:13945   */\n      tag_293\n      jump\t// in\n    tag_456:\n        /* \"#utility.yul\":13790:13945   */\n      swap2\n      pop\n        /* \"#utility.yul\":13955:14030   */\n      tag_457\n        /* \"#utility.yul\":14026:14029   */\n      dup3\n        /* \"#utility.yul\":14017:14023   */\n      dup6\n        /* \"#utility.yul\":13955:14030   */\n      tag_290\n      jump\t// in\n    tag_457:\n        /* \"#utility.yul\":14055:14057   */\n      0x14\n        /* \"#utility.yul\":14050:14053   */\n      dup3\n        /* \"#utility.yul\":14046:14058   */\n      add\n        /* \"#utility.yul\":14039:14058   */\n      swap2\n      pop\n        /* \"#utility.yul\":14068:14143   */\n      tag_458\n        /* \"#utility.yul\":14139:14142   */\n      dup3\n        /* \"#utility.yul\":14130:14136   */\n      dup5\n        /* \"#utility.yul\":14068:14143   */\n      tag_296\n      jump\t// in\n    tag_458:\n        /* \"#utility.yul\":14168:14170   */\n      0x20\n        /* \"#utility.yul\":14163:14166   */\n      dup3\n        /* \"#utility.yul\":14159:14171   */\n      add\n        /* \"#utility.yul\":14152:14171   */\n      swap2\n      pop\n        /* \"#utility.yul\":14188:14336   */\n      tag_459\n        /* \"#utility.yul\":14332:14335   */\n      dup3\n        /* \"#utility.yul\":14188:14336   */\n      tag_298\n      jump\t// in\n    tag_459:\n        /* \"#utility.yul\":14181:14336   */\n      swap2\n      pop\n        /* \"#utility.yul\":14353:14356   */\n      dup2\n        /* \"#utility.yul\":14346:14356   */\n      swap1\n      pop\n        /* \"#utility.yul\":13433:14362   */\n      swap4\n      swap3\n      pop\n      pop\n      pop\n      jump\t// out\n        /* \"#utility.yul\":14368:14810   */\n    tag_166:\n        /* \"#utility.yul\":14517:14521   */\n      0x00\n        /* \"#utility.yul\":14555:14557   */\n      0x60\n        /* \"#utility.yul\":14544:14553   */\n      dup3\n        /* \"#utility.yul\":14540:14558   */\n      add\n        /* \"#utility.yul\":14532:14558   */\n      swap1\n      pop\n        /* \"#utility.yul\":14568:14639   */\n      tag_461\n        /* \"#utility.yul\":14636:14637   */\n      0x00\n        /* \"#utility.yul\":14625:14634   */\n      dup4\n        /* \"#utility.yul\":14621:14638   */\n      add\n        /* \"#utility.yul\":14612:14618   */\n      dup7\n        /* \"#utility.yul\":14568:14639   */\n      tag_273\n      jump\t// in\n    tag_461:\n        /* \"#utility.yul\":14649:14721   */\n      tag_462\n        /* \"#utility.yul\":14717:14719   */\n      0x20\n        /* \"#utility.yul\":14706:14715   */\n      dup4\n        /* \"#utility.yul\":14702:14720   */\n      add\n        /* \"#utility.yul\":14693:14699   */\n      dup6\n        /* \"#utility.yul\":14649:14721   */\n      tag_273\n      jump\t// in\n    tag_462:\n        /* \"#utility.yul\":14731:14803   */\n      tag_463\n        /* \"#utility.yul\":14799:14801   */\n      0x40\n        /* \"#utility.yul\":14788:14797   */\n      dup4\n        /* \"#utility.yul\":14784:14802   */\n      add\n        /* \"#utility.yul\":14775:14781   */\n      dup5\n        /* \"#utility.yul\":14731:14803   */\n      tag_283\n      jump\t// in\n    tag_463:\n        /* \"#utility.yul\":14368:14810   */\n      swap5\n      swap4\n      pop\n      pop\n      pop\n      pop\n      jump\t// out\n        /* \"#utility.yul\":14816:14914   */\n    tag_299:\n        /* \"#utility.yul\":14867:14873   */\n      0x00\n        /* \"#utility.yul\":14901:14906   */\n      dup2\n        /* \"#utility.yul\":14895:14907   */\n      mload\n        /* \"#utility.yul\":14885:14907   */\n      swap1\n      pop\n        /* \"#utility.yul\":14816:14914   */\n      swap2\n      swap1\n      pop\n      jump\t// out\n        /* \"#utility.yul\":14920:15067   */\n    tag_300:\n        /* \"#utility.yul\":15021:15032   */\n      0x00\n        /* \"#utility.yul\":15058:15061   */\n      dup2\n        /* \"#utility.yul\":15043:15061   */\n      swap1\n      pop\n        /* \"#utility.yul\":14920:15067   */\n      swap3\n      swap2\n      pop\n      pop\n      jump\t// out\n        /* \"#utility.yul\":15073:15380   */\n    tag_301:\n        /* \"#utility.yul\":15141:15142   */\n      0x00\n        /* \"#utility.yul\":15151:15264   */\n    tag_467:\n        /* \"#utility.yul\":15165:15171   */\n      dup4\n        /* \"#utility.yul\":15162:15163   */\n      dup2\n        /* \"#utility.yul\":15159:15172   */\n      lt\n        /* \"#utility.yul\":15151:15264   */\n      iszero\n      tag_469\n      jumpi\n        /* \"#utility.yul\":15250:15251   */\n      dup1\n        /* \"#utility.yul\":15245:15248   */\n      dup3\n        /* \"#utility.yul\":15241:15252   */\n      add\n        /* \"#utility.yul\":15235:15253   */\n      mload\n        /* \"#utility.yul\":15231:15232   */\n      dup2\n        /* \"#utility.yul\":15226:15229   */\n      dup5\n        /* \"#utility.yul\":15222:15233   */\n      add\n        /* \"#utility.yul\":15215:15254   */\n      mstore\n        /* \"#utility.yul\":15187:15189   */\n      0x20\n        /* \"#utility.yul\":15184:15185   */\n      dup2\n        /* \"#utility.yul\":15180:15190   */\n      add\n        /* \"#utility.yul\":15175:15190   */\n      swap1\n      pop\n        /* \"#utility.yul\":15151:15264   */\n      jump(tag_467)\n    tag_469:\n        /* \"#utility.yul\":15282:15288   */\n      dup4\n        /* \"#utility.yul\":15279:15280   */\n      dup2\n        /* \"#utility.yul\":15276:15289   */\n      gt\n        /* \"#utility.yul\":15273:15374   */\n      iszero\n      tag_470\n      jumpi\n        /* \"#utility.yul\":15362:15363   */\n      0x00\n        /* \"#utility.yul\":15353:15359   */\n      dup5\n        /* \"#utility.yul\":15348:15351   */\n      dup5\n        /* \"#utility.yul\":15344:15360   */\n      add\n        /* \"#utility.yul\":15337:15364   */\n      mstore\n        /* \"#utility.yul\":15273:15374   */\n    tag_470:\n        /* \"#utility.yul\":15122:15380   */\n      pop\n        /* \"#utility.yul\":15073:15380   */\n      pop\n      pop\n      pop\n      jump\t// out\n        /* \"#utility.yul\":15386:15759   */\n    tag_302:\n        /* \"#utility.yul\":15490:15493   */\n      0x00\n        /* \"#utility.yul\":15518:15556   */\n      tag_472\n        /* \"#utility.yul\":15550:15555   */\n      dup3\n        /* \"#utility.yul\":15518:15556   */\n      tag_299\n      jump\t// in\n    tag_472:\n        /* \"#utility.yul\":15572:15660   */\n      tag_473\n        /* \"#utility.yul\":15653:15659   */\n      dup2\n        /* \"#utility.yul\":15648:15651   */\n      dup6\n        /* \"#utility.yul\":15572:15660   */\n      tag_300\n      jump\t// in\n    tag_473:\n        /* \"#utility.yul\":15565:15660   */\n      swap4\n      pop\n        /* \"#utility.yul\":15669:15721   */\n      tag_474\n        /* \"#utility.yul\":15714:15720   */\n      dup2\n        /* \"#utility.yul\":15709:15712   */\n      dup6\n        /* \"#utility.yul\":15702:15706   */\n      0x20\n        /* \"#utility.yul\":15695:15700   */\n      dup7\n        /* \"#utility.yul\":15691:15707   */\n      add\n        /* \"#utility.yul\":15669:15721   */\n      tag_301\n      jump\t// in\n    tag_474:\n        /* \"#utility.yul\":15746:15752   */\n      dup1\n        /* \"#utility.yul\":15741:15744   */\n      dup5\n        /* \"#utility.yul\":15737:15753   */\n      add\n        /* \"#utility.yul\":15730:15753   */\n      swap2\n      pop\n        /* \"#utility.yul\":15494:15759   */\n      pop\n        /* \"#utility.yul\":15386:15759   */\n      swap3\n      swap2\n      pop\n      pop\n      jump\t// out\n        /* \"#utility.yul\":15765:16036   */\n    tag_168:\n        /* \"#utility.yul\":15895:15898   */\n      0x00\n        /* \"#utility.yul\":15917:16010   */\n      tag_476\n        /* \"#utility.yul\":16006:16009   */\n      dup3\n        /* \"#utility.yul\":15997:16003   */\n      dup5\n        /* \"#utility.yul\":15917:16010   */\n      tag_302\n      jump\t// in\n    tag_476:\n        /* \"#utility.yul\":15910:16010   */\n      swap2\n      pop\n        /* \"#utility.yul\":16027:16030   */\n      dup2\n        /* \"#utility.yul\":16020:16030   */\n      swap1\n      pop\n        /* \"#utility.yul\":15765:16036   */\n      swap3\n      swap2\n      pop\n      pop\n      jump\t// out\n        /* \"#utility.yul\":16042:16278   */\n    tag_303:\n        /* \"#utility.yul\":16182:16216   */\n      0x5472616e7366657248656c7065723a3a7472616e7366657246726f6d3a207472\n        /* \"#utility.yul\":16178:16179   */\n      0x00\n        /* \"#utility.yul\":16170:16176   */\n      dup3\n        /* \"#utility.yul\":16166:16180   */\n      add\n        /* \"#utility.yul\":16159:16217   */\n      mstore\n        /* \"#utility.yul\":16251:16270   */\n      0x616e7366657246726f6d206661696c6564000000000000000000000000000000\n        /* \"#utility.yul\":16246:16248   */\n      0x20\n        /* \"#utility.yul\":16238:16244   */\n      dup3\n        /* \"#utility.yul\":16234:16249   */\n      add\n        /* \"#utility.yul\":16227:16271   */\n      mstore\n        /* \"#utility.yul\":16042:16278   */\n      pop\n      jump\t// out\n        /* \"#utility.yul\":16284:16650   */\n    tag_304:\n        /* \"#utility.yul\":16426:16429   */\n      0x00\n        /* \"#utility.yul\":16447:16514   */\n      tag_479\n        /* \"#utility.yul\":16511:16513   */\n      0x31\n        /* \"#utility.yul\":16506:16509   */\n      dup4\n        /* \"#utility.yul\":16447:16514   */\n      tag_274\n      jump\t// in\n    tag_479:\n        /* \"#utility.yul\":16440:16514   */\n      swap2\n      pop\n        /* \"#utility.yul\":16523:16616   */\n      tag_480\n        /* \"#utility.yul\":16612:16615   */\n      dup3\n        /* \"#utility.yul\":16523:16616   */\n      tag_303\n      jump\t// in\n    tag_480:\n        /* \"#utility.yul\":16641:16643   */\n      0x40\n        /* \"#utility.yul\":16636:16639   */\n      dup3\n        /* \"#utility.yul\":16632:16644   */\n      add\n        /* \"#utility.yul\":16625:16644   */\n      swap1\n      pop\n        /* \"#utility.yul\":16284:16650   */\n      swap2\n      swap1\n      pop\n      jump\t// out\n        /* \"#utility.yul\":16656:17075   */\n    tag_177:\n        /* \"#utility.yul\":16822:16826   */\n      0x00\n        /* \"#utility.yul\":16860:16862   */\n      0x20\n        /* \"#utility.yul\":16849:16858   */\n      dup3\n        /* \"#utility.yul\":16845:16863   */\n      add\n        /* \"#utility.yul\":16837:16863   */\n      swap1\n      pop\n        /* \"#utility.yul\":16909:16918   */\n      dup2\n        /* \"#utility.yul\":16903:16907   */\n      dup2\n        /* \"#utility.yul\":16899:16919   */\n      sub\n        /* \"#utility.yul\":16895:16896   */\n      0x00\n        /* \"#utility.yul\":16884:16893   */\n      dup4\n        /* \"#utility.yul\":16880:16897   */\n      add\n        /* \"#utility.yul\":16873:16920   */\n      mstore\n        /* \"#utility.yul\":16937:17068   */\n      tag_482\n        /* \"#utility.yul\":17063:17067   */\n      dup2\n        /* \"#utility.yul\":16937:17068   */\n      tag_304\n      jump\t// in\n    tag_482:\n        /* \"#utility.yul\":16929:17068   */\n      swap1\n      pop\n        /* \"#utility.yul\":16656:17075   */\n      swap2\n      swap1\n      pop\n      jump\t// out\n        /* \"#utility.yul\":17081:17386   */\n    tag_186:\n        /* \"#utility.yul\":17121:17124   */\n      0x00\n        /* \"#utility.yul\":17140:17160   */\n      tag_484\n        /* \"#utility.yul\":17158:17159   */\n      dup3\n        /* \"#utility.yul\":17140:17160   */\n      tag_262\n      jump\t// in\n    tag_484:\n        /* \"#utility.yul\":17135:17160   */\n      swap2\n      pop\n        /* \"#utility.yul\":17174:17194   */\n      tag_485\n        /* \"#utility.yul\":17192:17193   */\n      dup4\n        /* \"#utility.yul\":17174:17194   */\n      tag_262\n      jump\t// in\n    tag_485:\n        /* \"#utility.yul\":17169:17194   */\n      swap3\n      pop\n        /* \"#utility.yul\":17328:17329   */\n      dup3\n        /* \"#utility.yul\":17260:17326   */\n      0xffffffffffffffffffffffffffffffffffffffffffffffffffffffffffffffff\n        /* \"#utility.yul\":17256:17330   */\n      sub\n        /* \"#utility.yul\":17253:17254   */\n      dup3\n        /* \"#utility.yul\":17250:17331   */\n      gt\n        /* \"#utility.yul\":17247:17354   */\n      iszero\n      tag_486\n      jumpi\n        /* \"#utility.yul\":17334:17352   */\n      tag_487\n      tag_277\n      jump\t// in\n    tag_487:\n        /* \"#utility.yul\":17247:17354   */\n    tag_486:\n        /* \"#utility.yul\":17378:17379   */\n      dup3\n        /* \"#utility.yul\":17375:17376   */\n      dup3\n        /* \"#utility.yul\":17371:17380   */\n      add\n        /* \"#utility.yul\":17364:17380   */\n      swap1\n      pop\n        /* \"#utility.yul\":17081:17386   */\n      swap3\n      swap2\n      pop\n      pop\n      jump\t// out\n        /* \"#utility.yul\":17392:17506   */\n    tag_305:\n        /* \"#utility.yul\":17429:17436   */\n      0x00\n        /* \"#utility.yul\":17469:17499   */\n      0xffffffffffffffffffffffffffff\n        /* \"#utility.yul\":17462:17467   */\n      dup3\n        /* \"#utility.yul\":17458:17500   */\n      and\n        /* \"#utility.yul\":17447:17500   */\n      swap1\n      pop\n        /* \"#utility.yul\":17392:17506   */\n      swap2\n      swap1\n      pop\n      jump\t// out\n        /* \"#utility.yul\":17512:17634   */\n    tag_306:\n        /* \"#utility.yul\":17585:17609   */\n      tag_490\n        /* \"#utility.yul\":17603:17608   */\n      dup2\n        /* \"#utility.yul\":17585:17609   */\n      tag_305\n      jump\t// in\n    tag_490:\n        /* \"#utility.yul\":17578:17583   */\n      dup2\n        /* \"#utility.yul\":17575:17610   */\n      eq\n        /* \"#utility.yul\":17565:17628   */\n      tag_491\n      jumpi\n        /* \"#utility.yul\":17624:17625   */\n      0x00\n        /* \"#utility.yul\":17621:17622   */\n      dup1\n        /* \"#utility.yul\":17614:17626   */\n      revert\n        /* \"#utility.yul\":17565:17628   */\n    tag_491:\n        /* \"#utility.yul\":17512:17634   */\n      pop\n      jump\t// out\n        /* \"#utility.yul\":17640:17783   */\n    tag_307:\n        /* \"#utility.yul\":17697:17702   */\n      0x00\n        /* \"#utility.yul\":17728:17734   */\n      dup2\n        /* \"#utility.yul\":17722:17735   */\n      mload\n        /* \"#utility.yul\":17713:17735   */\n      swap1\n      pop\n        /* \"#utility.yul\":17744:17777   */\n      tag_493\n        /* \"#utility.yul\":17771:17776   */\n      dup2\n        /* \"#utility.yul\":17744:17777   */\n      tag_306\n      jump\t// in\n    tag_493:\n        /* \"#utility.yul\":17640:17783   */\n      swap3\n      swap2\n      pop\n      pop\n      jump\t// out\n        /* \"#utility.yul\":17789:17882   */\n    tag_308:\n        /* \"#utility.yul\":17825:17832   */\n      0x00\n        /* \"#utility.yul\":17865:17875   */\n      0xffffffff\n        /* \"#utility.yul\":17858:17863   */\n      dup3\n        /* \"#utility.yul\":17854:17876   */\n      and\n        /* \"#utility.yul\":17843:17876   */\n      swap1\n      pop\n        /* \"#utility.yul\":17789:17882   */\n      swap2\n      swap1\n      pop\n      jump\t// out\n        /* \"#utility.yul\":17888:18008   */\n    tag_309:\n        /* \"#utility.yul\":17960:17983   */\n      tag_496\n        /* \"#utility.yul\":17977:17982   */\n      dup2\n        /* \"#utility.yul\":17960:17983   */\n      tag_308\n      jump\t// in\n    tag_496:\n        /* \"#utility.yul\":17953:17958   */\n      dup2\n        /* \"#utility.yul\":17950:17984   */\n      eq\n        /* \"#utility.yul\":17940:18002   */\n      tag_497\n      jumpi\n        /* \"#utility.yul\":17998:17999   */\n      0x00\n        /* \"#utility.yul\":17995:17996   */\n      dup1\n        /* \"#utility.yul\":17988:18000   */\n      revert\n        /* \"#utility.yul\":17940:18002   */\n    tag_497:\n        /* \"#utility.yul\":17888:18008   */\n      pop\n      jump\t// out\n        /* \"#utility.yul\":18014:18155   */\n    tag_310:\n        /* \"#utility.yul\":18070:18075   */\n      0x00\n        /* \"#utility.yul\":18101:18107   */\n      dup2\n        /* \"#utility.yul\":18095:18108   */\n      mload\n        /* \"#utility.yul\":18086:18108   */\n      swap1\n      pop\n        /* \"#utility.yul\":18117:18149   */\n      tag_499\n        /* \"#utility.yul\":18143:18148   */\n      dup2\n        /* \"#utility.yul\":18117:18149   */\n      tag_309\n      jump\t// in\n    tag_499:\n        /* \"#utility.yul\":18014:18155   */\n      swap3\n      swap2\n      pop\n      pop\n      jump\t// out\n        /* \"#utility.yul\":18161:18822   */\n    tag_194:\n        /* \"#utility.yul\":18248:18254   */\n      0x00\n        /* \"#utility.yul\":18256:18262   */\n      dup1\n        /* \"#utility.yul\":18264:18270   */\n      0x00\n        /* \"#utility.yul\":18313:18315   */\n      0x60\n        /* \"#utility.yul\":18301:18310   */\n      dup5\n        /* \"#utility.yul\":18292:18299   */\n      dup7\n        /* \"#utility.yul\":18288:18311   */\n      sub\n        /* \"#utility.yul\":18284:18316   */\n      slt\n        /* \"#utility.yul\":18281:18400   */\n      iszero\n      tag_501\n      jumpi\n        /* \"#utility.yul\":18319:18398   */\n      tag_502\n      tag_260\n      jump\t// in\n    tag_502:\n        /* \"#utility.yul\":18281:18400   */\n    tag_501:\n        /* \"#utility.yul\":18439:18440   */\n      0x00\n        /* \"#utility.yul\":18464:18528   */\n      tag_503\n        /* \"#utility.yul\":18520:18527   */\n      dup7\n        /* \"#utility.yul\":18511:18517   */\n      dup3\n        /* \"#utility.yul\":18500:18509   */\n      dup8\n        /* \"#utility.yul\":18496:18518   */\n      add\n        /* \"#utility.yul\":18464:18528   */\n      tag_307\n      jump\t// in\n    tag_503:\n        /* \"#utility.yul\":18454:18528   */\n      swap4\n      pop\n        /* \"#utility.yul\":18410:18538   */\n      pop\n        /* \"#utility.yul\":18577:18579   */\n      0x20\n        /* \"#utility.yul\":18603:18667   */\n      tag_504\n        /* \"#utility.yul\":18659:18666   */\n      dup7\n        /* \"#utility.yul\":18650:18656   */\n      dup3\n        /* \"#utility.yul\":18639:18648   */\n      dup8\n        /* \"#utility.yul\":18635:18657   */\n      add\n        /* \"#utility.yul\":18603:18667   */\n      tag_307\n      jump\t// in\n    tag_504:\n        /* \"#utility.yul\":18593:18667   */\n      swap3\n      pop\n        /* \"#utility.yul\":18548:18677   */\n      pop\n        /* \"#utility.yul\":18716:18718   */\n      0x40\n        /* \"#utility.yul\":18742:18805   */\n      tag_505\n        /* \"#utility.yul\":18797:18804   */\n      dup7\n        /* \"#utility.yul\":18788:18794   */\n      dup3\n        /* \"#utility.yul\":18777:18786   */\n      dup8\n        /* \"#utility.yul\":18773:18795   */\n      add\n        /* \"#utility.yul\":18742:18805   */\n      tag_310\n      jump\t// in\n    tag_505:\n        /* \"#utility.yul\":18732:18805   */\n      swap2\n      pop\n        /* \"#utility.yul\":18687:18815   */\n      pop\n        /* \"#utility.yul\":18161:18822   */\n      swap3\n      pop\n      swap3\n      pop\n      swap3\n      jump\t// out\n        /* \"#utility.yul\":18828:19008   */\n    tag_215:\n        /* \"#utility.yul\":18876:18953   */\n      0x4e487b7100000000000000000000000000000000000000000000000000000000\n        /* \"#utility.yul\":18873:18874   */\n      0x00\n        /* \"#utility.yul\":18866:18954   */\n      mstore\n        /* \"#utility.yul\":18973:18977   */\n      0x41\n        /* \"#utility.yul\":18970:18971   */\n      0x04\n        /* \"#utility.yul\":18963:18978   */\n      mstore\n        /* \"#utility.yul\":18997:19001   */\n      0x24\n        /* \"#utility.yul\":18994:18995   */\n      0x00\n        /* \"#utility.yul\":18987:19002   */\n      revert\n        /* \"#utility.yul\":19014:19182   */\n    tag_311:\n        /* \"#utility.yul\":19097:19108   */\n      0x00\n        /* \"#utility.yul\":19131:19137   */\n      dup3\n        /* \"#utility.yul\":19126:19129   */\n      dup3\n        /* \"#utility.yul\":19119:19138   */\n      mstore\n        /* \"#utility.yul\":19171:19175   */\n      0x20\n        /* \"#utility.yul\":19166:19169   */\n      dup3\n        /* \"#utility.yul\":19162:19176   */\n      add\n        /* \"#utility.yul\":19147:19176   */\n      swap1\n      pop\n        /* \"#utility.yul\":19014:19182   */\n      swap3\n      swap2\n      pop\n      pop\n      jump\t// out\n        /* \"#utility.yul\":19188:19290   */\n    tag_312:\n        /* \"#utility.yul\":19229:19235   */\n      0x00\n        /* \"#utility.yul\":19280:19282   */\n      0x1f\n        /* \"#utility.yul\":19276:19283   */\n      not\n        /* \"#utility.yul\":19271:19273   */\n      0x1f\n        /* \"#utility.yul\":19264:19269   */\n      dup4\n        /* \"#utility.yul\":19260:19274   */\n      add\n        /* \"#utility.yul\":19256:19284   */\n      and\n        /* \"#utility.yul\":19246:19284   */\n      swap1\n      pop\n        /* \"#utility.yul\":19188:19290   */\n      swap2\n      swap1\n      pop\n      jump\t// out\n        /* \"#utility.yul\":19296:19656   */\n    tag_313:\n        /* \"#utility.yul\":19382:19385   */\n      0x00\n        /* \"#utility.yul\":19410:19448   */\n      tag_510\n        /* \"#utility.yul\":19442:19447   */\n      dup3\n        /* \"#utility.yul\":19410:19448   */\n      tag_299\n      jump\t// in\n    tag_510:\n        /* \"#utility.yul\":19464:19534   */\n      tag_511\n        /* \"#utility.yul\":19527:19533   */\n      dup2\n        /* \"#utility.yul\":19522:19525   */\n      dup6\n        /* \"#utility.yul\":19464:19534   */\n      tag_311\n      jump\t// in\n    tag_511:\n        /* \"#utility.yul\":19457:19534   */\n      swap4\n      pop\n        /* \"#utility.yul\":19543:19595   */\n      tag_512\n        /* \"#utility.yul\":19588:19594   */\n      dup2\n        /* \"#utility.yul\":19583:19586   */\n      dup6\n        /* \"#utility.yul\":19576:19580   */\n      0x20\n        /* \"#utility.yul\":19569:19574   */\n      dup7\n        /* \"#utility.yul\":19565:19581   */\n      add\n        /* \"#utility.yul\":19543:19595   */\n      tag_301\n      jump\t// in\n    tag_512:\n        /* \"#utility.yul\":19620:19649   */\n      tag_513\n        /* \"#utility.yul\":19642:19648   */\n      dup2\n        /* \"#utility.yul\":19620:19649   */\n      tag_312\n      jump\t// in\n    tag_513:\n        /* \"#utility.yul\":19615:19618   */\n      dup5\n        /* \"#utility.yul\":19611:19650   */\n      add\n        /* \"#utility.yul\":19604:19650   */\n      swap2\n      pop\n        /* \"#utility.yul\":19386:19656   */\n      pop\n        /* \"#utility.yul\":19296:19656   */\n      swap3\n      swap2\n      pop\n      pop\n      jump\t// out\n        /* \"#utility.yul\":19662:20302   */\n    tag_218:\n        /* \"#utility.yul\":19857:19861   */\n      0x00\n        /* \"#utility.yul\":19895:19898   */\n      0x80\n        /* \"#utility.yul\":19884:19893   */\n      dup3\n        /* \"#utility.yul\":19880:19899   */\n      add\n        /* \"#utility.yul\":19872:19899   */\n      swap1\n      pop\n        /* \"#utility.yul\":19909:19980   */\n      tag_515\n        /* \"#utility.yul\":19977:19978   */\n      0x00\n        /* \"#utility.yul\":19966:19975   */\n      dup4\n        /* \"#utility.yul\":19962:19979   */\n      add\n        /* \"#utility.yul\":19953:19959   */\n      dup8\n        /* \"#utility.yul\":19909:19980   */\n      tag_283\n      jump\t// in\n    tag_515:\n        /* \"#utility.yul\":19990:20062   */\n      tag_516\n        /* \"#utility.yul\":20058:20060   */\n      0x20\n        /* \"#utility.yul\":20047:20056   */\n      dup4\n        /* \"#utility.yul\":20043:20061   */\n      add\n        /* \"#utility.yul\":20034:20040   */\n      dup7\n        /* \"#utility.yul\":19990:20062   */\n      tag_283\n      jump\t// in\n    tag_516:\n        /* \"#utility.yul\":20072:20144   */\n      tag_517\n        /* \"#utility.yul\":20140:20142   */\n      0x40\n        /* \"#utility.yul\":20129:20138   */\n      dup4\n        /* \"#utility.yul\":20125:20143   */\n      add\n        /* \"#utility.yul\":20116:20122   */\n      dup6\n        /* \"#utility.yul\":20072:20144   */\n      tag_273\n      jump\t// in\n    tag_517:\n        /* \"#utility.yul\":20191:20200   */\n      dup2\n        /* \"#utility.yul\":20185:20189   */\n      dup2\n        /* \"#utility.yul\":20181:20201   */\n      sub\n        /* \"#utility.yul\":20176:20178   */\n      0x60\n        /* \"#utility.yul\":20165:20174   */\n      dup4\n        /* \"#utility.yul\":20161:20179   */\n      add\n        /* \"#utility.yul\":20154:20202   */\n      mstore\n        /* \"#utility.yul\":20219:20295   */\n      tag_518\n        /* \"#utility.yul\":20290:20294   */\n      dup2\n        /* \"#utility.yul\":20281:20287   */\n      dup5\n        /* \"#utility.yul\":20219:20295   */\n      tag_313\n      jump\t// in\n    tag_518:\n        /* \"#utility.yul\":20211:20295   */\n      swap1\n      pop\n        /* \"#utility.yul\":19662:20302   */\n      swap6\n      swap5\n      pop\n      pop\n      pop\n      pop\n      pop\n      jump\t// out\n        /* \"#utility.yul\":20308:20541   */\n    tag_223:\n        /* \"#utility.yul\":20347:20350   */\n      0x00\n        /* \"#utility.yul\":20370:20394   */\n      tag_520\n        /* \"#utility.yul\":20388:20393   */\n      dup3\n        /* \"#utility.yul\":20370:20394   */\n      tag_262\n      jump\t// in\n    tag_520:\n        /* \"#utility.yul\":20361:20394   */\n      swap2\n      pop\n        /* \"#utility.yul\":20416:20482   */\n      0xffffffffffffffffffffffffffffffffffffffffffffffffffffffffffffffff\n        /* \"#utility.yul\":20409:20414   */\n      dup3\n        /* \"#utility.yul\":20406:20483   */\n      sub\n        /* \"#utility.yul\":20403:20506   */\n      tag_521\n      jumpi\n        /* \"#utility.yul\":20486:20504   */\n      tag_522\n      tag_277\n      jump\t// in\n    tag_522:\n        /* \"#utility.yul\":20403:20506   */\n    tag_521:\n        /* \"#utility.yul\":20533:20534   */\n      0x01\n        /* \"#utility.yul\":20526:20531   */\n      dup3\n        /* \"#utility.yul\":20522:20535   */\n      add\n        /* \"#utility.yul\":20515:20535   */\n      swap1\n      pop\n        /* \"#utility.yul\":20308:20541   */\n      swap2\n      swap1\n      pop\n      jump\t// out\n        /* \"#utility.yul\":20547:20786   */\n    tag_314:\n        /* \"#utility.yul\":20687:20721   */\n      0x5472616e7366657248656c7065723a3a736166655472616e736665724554483a\n        /* \"#utility.yul\":20683:20684   */\n      0x00\n        /* \"#utility.yul\":20675:20681   */\n      dup3\n        /* \"#utility.yul\":20671:20685   */\n      add\n        /* \"#utility.yul\":20664:20722   */\n      mstore\n        /* \"#utility.yul\":20756:20778   */\n      0x20455448207472616e73666572206661696c6564000000000000000000000000\n        /* \"#utility.yul\":20751:20753   */\n      0x20\n        /* \"#utility.yul\":20743:20749   */\n      dup3\n        /* \"#utility.yul\":20739:20754   */\n      add\n        /* \"#utility.yul\":20732:20779   */\n      mstore\n        /* \"#utility.yul\":20547:20786   */\n      pop\n      jump\t// out\n        /* \"#utility.yul\":20792:21158   */\n    tag_315:\n        /* \"#utility.yul\":20934:20937   */\n      0x00\n        /* \"#utility.yul\":20955:21022   */\n      tag_525\n        /* \"#utility.yul\":21019:21021   */\n      0x34\n        /* \"#utility.yul\":21014:21017   */\n      dup4\n        /* \"#utility.yul\":20955:21022   */\n      tag_274\n      jump\t// in\n    tag_525:\n        /* \"#utility.yul\":20948:21022   */\n      swap2\n      pop\n        /* \"#utility.yul\":21031:21124   */\n      tag_526\n        /* \"#utility.yul\":21120:21123   */\n      dup3\n        /* \"#utility.yul\":21031:21124   */\n      tag_314\n      jump\t// in\n    tag_526:\n        /* \"#utility.yul\":21149:21151   */\n      0x40\n        /* \"#utility.yul\":21144:21147   */\n      dup3\n        /* \"#utility.yul\":21140:21152   */\n      add\n        /* \"#utility.yul\":21133:21152   */\n      swap1\n      pop\n        /* \"#utility.yul\":20792:21158   */\n      swap2\n      swap1\n      pop\n      jump\t// out\n        /* \"#utility.yul\":21164:21583   */\n    tag_234:\n        /* \"#utility.yul\":21330:21334   */\n      0x00\n        /* \"#utility.yul\":21368:21370   */\n      0x20\n        /* \"#utility.yul\":21357:21366   */\n      dup3\n        /* \"#utility.yul\":21353:21371   */\n      add\n        /* \"#utility.yul\":21345:21371   */\n      swap1\n      pop\n        /* \"#utility.yul\":21417:21426   */\n      dup2\n        /* \"#utility.yul\":21411:21415   */\n      dup2\n        /* \"#utility.yul\":21407:21427   */\n      sub\n        /* \"#utility.yul\":21403:21404   */\n      0x00\n        /* \"#utility.yul\":21392:21401   */\n      dup4\n        /* \"#utility.yul\":21388:21405   */\n      add\n        /* \"#utility.yul\":21381:21428   */\n      mstore\n        /* \"#utility.yul\":21445:21576   */\n      tag_528\n        /* \"#utility.yul\":21571:21575   */\n      dup2\n        /* \"#utility.yul\":21445:21576   */\n      tag_315\n      jump\t// in\n    tag_528:\n        /* \"#utility.yul\":21437:21576   */\n      swap1\n      pop\n        /* \"#utility.yul\":21164:21583   */\n      swap2\n      swap1\n      pop\n      jump\t// out\n        /* \"#utility.yul\":21589:21813   */\n    tag_316:\n        /* \"#utility.yul\":21729:21763   */\n      0x556e697377617056324c6962726172793a204944454e544943414c5f41444452\n        /* \"#utility.yul\":21725:21726   */\n      0x00\n        /* \"#utility.yul\":21717:21723   */\n      dup3\n        /* \"#utility.yul\":21713:21727   */\n      add\n        /* \"#utility.yul\":21706:21764   */\n      mstore\n        /* \"#utility.yul\":21798:21805   */\n      0x4553534553000000000000000000000000000000000000000000000000000000\n        /* \"#utility.yul\":21793:21795   */\n      0x20\n        /* \"#utility.yul\":21785:21791   */\n      dup3\n        /* \"#utility.yul\":21781:21796   */\n      add\n        /* \"#utility.yul\":21774:21806   */\n      mstore\n        /* \"#utility.yul\":21589:21813   */\n      pop\n      jump\t// out\n        /* \"#utility.yul\":21819:22185   */\n    tag_317:\n        /* \"#utility.yul\":21961:21964   */\n      0x00\n        /* \"#utility.yul\":21982:22049   */\n      tag_531\n        /* \"#utility.yul\":22046:22048   */\n      0x25\n        /* \"#utility.yul\":22041:22044   */\n      dup4\n        /* \"#utility.yul\":21982:22049   */\n      tag_274\n      jump\t// in\n    tag_531:\n        /* \"#utility.yul\":21975:22049   */\n      swap2\n      pop\n        /* \"#utility.yul\":22058:22151   */\n      tag_532\n        /* \"#utility.yul\":22147:22150   */\n      dup3\n        /* \"#utility.yul\":22058:22151   */\n      tag_316\n      jump\t// in\n    tag_532:\n        /* \"#utility.yul\":22176:22178   */\n      0x40\n        /* \"#utility.yul\":22171:22174   */\n      dup3\n        /* \"#utility.yul\":22167:22179   */\n      add\n        /* \"#utility.yul\":22160:22179   */\n      swap1\n      pop\n        /* \"#utility.yul\":21819:22185   */\n      swap2\n      swap1\n      pop\n      jump\t// out\n        /* \"#utility.yul\":22191:22610   */\n    tag_238:\n        /* \"#utility.yul\":22357:22361   */\n      0x00\n        /* \"#utility.yul\":22395:22397   */\n      0x20\n        /* \"#utility.yul\":22384:22393   */\n      dup3\n        /* \"#utility.yul\":22380:22398   */\n      add\n        /* \"#utility.yul\":22372:22398   */\n      swap1\n      pop\n        /* \"#utility.yul\":22444:22453   */\n      dup2\n        /* \"#utility.yul\":22438:22442   */\n      dup2\n        /* \"#utility.yul\":22434:22454   */\n      sub\n        /* \"#utility.yul\":22430:22431   */\n      0x00\n        /* \"#utility.yul\":22419:22428   */\n      dup4\n        /* \"#utility.yul\":22415:22432   */\n      add\n        /* \"#utility.yul\":22408:22455   */\n      mstore\n        /* \"#utility.yul\":22472:22603   */\n      tag_534\n        /* \"#utility.yul\":22598:22602   */\n      dup2\n        /* \"#utility.yul\":22472:22603   */\n      tag_317\n      jump\t// in\n    tag_534:\n        /* \"#utility.yul\":22464:22603   */\n      swap1\n      pop\n        /* \"#utility.yul\":22191:22610   */\n      swap2\n      swap1\n      pop\n      jump\t// out\n        /* \"#utility.yul\":22616:22796   */\n    tag_318:\n        /* \"#utility.yul\":22756:22788   */\n      0x556e697377617056324c6962726172793a205a45524f5f414444524553530000\n        /* \"#utility.yul\":22752:22753   */\n      0x00\n        /* \"#utility.yul\":22744:22750   */\n      dup3\n        /* \"#utility.yul\":22740:22754   */\n      add\n        /* \"#utility.yul\":22733:22789   */\n      mstore\n        /* \"#utility.yul\":22616:22796   */\n      pop\n      jump\t// out\n        /* \"#utility.yul\":22802:23168   */\n    tag_319:\n        /* \"#utility.yul\":22944:22947   */\n      0x00\n        /* \"#utility.yul\":22965:23032   */\n      tag_537\n        /* \"#utility.yul\":23029:23031   */\n      0x1e\n        /* \"#utility.yul\":23024:23027   */\n      dup4\n        /* \"#utility.yul\":22965:23032   */\n      tag_274\n      jump\t// in\n    tag_537:\n        /* \"#utility.yul\":22958:23032   */\n      swap2\n      pop\n        /* \"#utility.yul\":23041:23134   */\n      tag_538\n        /* \"#utility.yul\":23130:23133   */\n      dup3\n        /* \"#utility.yul\":23041:23134   */\n      tag_318\n      jump\t// in\n    tag_538:\n        /* \"#utility.yul\":23159:23161   */\n      0x20\n        /* \"#utility.yul\":23154:23157   */\n      dup3\n        /* \"#utility.yul\":23150:23162   */\n      add\n        /* \"#utility.yul\":23143:23162   */\n      swap1\n      pop\n        /* \"#utility.yul\":22802:23168   */\n      swap2\n      swap1\n      pop\n      jump\t// out\n        /* \"#utility.yul\":23174:23593   */\n    tag_243:\n        /* \"#utility.yul\":23340:23344   */\n      0x00\n        /* \"#utility.yul\":23378:23380   */\n      0x20\n        /* \"#utility.yul\":23367:23376   */\n      dup3\n        /* \"#utility.yul\":23363:23381   */\n      add\n        /* \"#utility.yul\":23355:23381   */\n      swap1\n      pop\n        /* \"#utility.yul\":23427:23436   */\n      dup2\n        /* \"#utility.yul\":23421:23425   */\n      dup2\n        /* \"#utility.yul\":23417:23437   */\n      sub\n        /* \"#utility.yul\":23413:23414   */\n      0x00\n        /* \"#utility.yul\":23402:23411   */\n      dup4\n        /* \"#utility.yul\":23398:23415   */\n      add\n        /* \"#utility.yul\":23391:23438   */\n      mstore\n        /* \"#utility.yul\":23455:23586   */\n      tag_540\n        /* \"#utility.yul\":23581:23585   */\n      dup2\n        /* \"#utility.yul\":23455:23586   */\n      tag_319\n      jump\t// in\n    tag_540:\n        /* \"#utility.yul\":23447:23586   */\n      swap1\n      pop\n        /* \"#utility.yul\":23174:23593   */\n      swap2\n      swap1\n      pop\n      jump\t// out\n        /* \"#utility.yul\":23599:23829   */\n    tag_320:\n        /* \"#utility.yul\":23739:23773   */\n      0x556e697377617056324c6962726172793a20494e53554646494349454e545f49\n        /* \"#utility.yul\":23735:23736   */\n      0x00\n        /* \"#utility.yul\":23727:23733   */\n      dup3\n        /* \"#utility.yul\":23723:23737   */\n      add\n        /* \"#utility.yul\":23716:23774   */\n      mstore\n        /* \"#utility.yul\":23808:23821   */\n      0x4e5055545f414d4f554e54000000000000000000000000000000000000000000\n        /* \"#utility.yul\":23803:23805   */\n      0x20\n        /* \"#utility.yul\":23795:23801   */\n      dup3\n        /* \"#utility.yul\":23791:23806   */\n      add\n        /* \"#utility.yul\":23784:23822   */\n      mstore\n        /* \"#utility.yul\":23599:23829   */\n      pop\n      jump\t// out\n        /* \"#utility.yul\":23835:24201   */\n    tag_321:\n        /* \"#utility.yul\":23977:23980   */\n      0x00\n        /* \"#utility.yul\":23998:24065   */\n      tag_543\n        /* \"#utility.yul\":24062:24064   */\n      0x2b\n        /* \"#utility.yul\":24057:24060   */\n      dup4\n        /* \"#utility.yul\":23998:24065   */\n      tag_274\n      jump\t// in\n    tag_543:\n        /* \"#utility.yul\":23991:24065   */\n      swap2\n      pop\n        /* \"#utility.yul\":24074:24167   */\n      tag_544\n        /* \"#utility.yul\":24163:24166   */\n      dup3\n        /* \"#utility.yul\":24074:24167   */\n      tag_320\n      jump\t// in\n    tag_544:\n        /* \"#utility.yul\":24192:24194   */\n      0x40\n        /* \"#utility.yul\":24187:24190   */\n      dup3\n        /* \"#utility.yul\":24183:24195   */\n      add\n        /* \"#utility.yul\":24176:24195   */\n      swap1\n      pop\n        /* \"#utility.yul\":23835:24201   */\n      swap2\n      swap1\n      pop\n      jump\t// out\n        /* \"#utility.yul\":24207:24626   */\n    tag_247:\n        /* \"#utility.yul\":24373:24377   */\n      0x00\n        /* \"#utility.yul\":24411:24413   */\n      0x20\n        /* \"#utility.yul\":24400:24409   */\n      dup3\n        /* \"#utility.yul\":24396:24414   */\n      add\n        /* \"#utility.yul\":24388:24414   */\n      swap1\n      pop\n        /* \"#utility.yul\":24460:24469   */\n      dup2\n        /* \"#utility.yul\":24454:24458   */\n      dup2\n        /* \"#utility.yul\":24450:24470   */\n      sub\n        /* \"#utility.yul\":24446:24447   */\n      0x00\n        /* \"#utility.yul\":24435:24444   */\n      dup4\n        /* \"#utility.yul\":24431:24448   */\n      add\n        /* \"#utility.yul\":24424:24471   */\n      mstore\n        /* \"#utility.yul\":24488:24619   */\n      tag_546\n        /* \"#utility.yul\":24614:24618   */\n      dup2\n        /* \"#utility.yul\":24488:24619   */\n      tag_321\n      jump\t// in\n    tag_546:\n        /* \"#utility.yul\":24480:24619   */\n      swap1\n      pop\n        /* \"#utility.yul\":24207:24626   */\n      swap2\n      swap1\n      pop\n      jump\t// out\n        /* \"#utility.yul\":24632:24859   */\n    tag_322:\n        /* \"#utility.yul\":24772:24806   */\n      0x556e697377617056324c6962726172793a20494e53554646494349454e545f4c\n        /* \"#utility.yul\":24768:24769   */\n      0x00\n        /* \"#utility.yul\":24760:24766   */\n      dup3\n        /* \"#utility.yul\":24756:24770   */\n      add\n        /* \"#utility.yul\":24749:24807   */\n      mstore\n        /* \"#utility.yul\":24841:24851   */\n      0x4951554944495459000000000000000000000000000000000000000000000000\n        /* \"#utility.yul\":24836:24838   */\n      0x20\n        /* \"#utility.yul\":24828:24834   */\n      dup3\n        /* \"#utility.yul\":24824:24839   */\n      add\n        /* \"#utility.yul\":24817:24852   */\n      mstore\n        /* \"#utility.yul\":24632:24859   */\n      pop\n      jump\t// out\n        /* \"#utility.yul\":24865:25231   */\n    tag_323:\n        /* \"#utility.yul\":25007:25010   */\n      0x00\n        /* \"#utility.yul\":25028:25095   */\n      tag_549\n        /* \"#utility.yul\":25092:25094   */\n      0x28\n        /* \"#utility.yul\":25087:25090   */\n      dup4\n        /* \"#utility.yul\":25028:25095   */\n      tag_274\n      jump\t// in\n    tag_549:\n        /* \"#utility.yul\":25021:25095   */\n      swap2\n      pop\n        /* \"#utility.yul\":25104:25197   */\n      tag_550\n        /* \"#utility.yul\":25193:25196   */\n      dup3\n        /* \"#utility.yul\":25104:25197   */\n      tag_322\n      jump\t// in\n    tag_550:\n        /* \"#utility.yul\":25222:25224   */\n      0x40\n        /* \"#utility.yul\":25217:25220   */\n      dup3\n        /* \"#utility.yul\":25213:25225   */\n      add\n        /* \"#utility.yul\":25206:25225   */\n      swap1\n      pop\n        /* \"#utility.yul\":24865:25231   */\n      swap2\n      swap1\n      pop\n      jump\t// out\n        /* \"#utility.yul\":25237:25656   */\n    tag_251:\n        /* \"#utility.yul\":25403:25407   */\n      0x00\n        /* \"#utility.yul\":25441:25443   */\n      0x20\n        /* \"#utility.yul\":25430:25439   */\n      dup3\n        /* \"#utility.yul\":25426:25444   */\n      add\n        /* \"#utility.yul\":25418:25444   */\n      swap1\n      pop\n        /* \"#utility.yul\":25490:25499   */\n      dup2\n        /* \"#utility.yul\":25484:25488   */\n      dup2\n        /* \"#utility.yul\":25480:25500   */\n      sub\n        /* \"#utility.yul\":25476:25477   */\n      0x00\n        /* \"#utility.yul\":25465:25474   */\n      dup4\n        /* \"#utility.yul\":25461:25478   */\n      add\n        /* \"#utility.yul\":25454:25501   */\n      mstore\n        /* \"#utility.yul\":25518:25649   */\n      tag_552\n        /* \"#utility.yul\":25644:25648   */\n      dup2\n        /* \"#utility.yul\":25518:25649   */\n      tag_323\n      jump\t// in\n    tag_552:\n        /* \"#utility.yul\":25510:25649   */\n      swap1\n      pop\n        /* \"#utility.yul\":25237:25656   */\n      swap2\n      swap1\n      pop\n      jump\t// out\n        /* \"#utility.yul\":25662:26010   */\n    tag_253:\n        /* \"#utility.yul\":25702:25709   */\n      0x00\n        /* \"#utility.yul\":25725:25745   */\n      tag_554\n        /* \"#utility.yul\":25743:25744   */\n      dup3\n        /* \"#utility.yul\":25725:25745   */\n      tag_262\n      jump\t// in\n    tag_554:\n        /* \"#utility.yul\":25720:25745   */\n      swap2\n      pop\n        /* \"#utility.yul\":25759:25779   */\n      tag_555\n        /* \"#utility.yul\":25777:25778   */\n      dup4\n        /* \"#utility.yul\":25759:25779   */\n      tag_262\n      jump\t// in\n    tag_555:\n        /* \"#utility.yul\":25754:25779   */\n      swap3\n      pop\n        /* \"#utility.yul\":25947:25948   */\n      dup2\n        /* \"#utility.yul\":25879:25945   */\n      0xffffffffffffffffffffffffffffffffffffffffffffffffffffffffffffffff\n        /* \"#utility.yul\":25875:25949   */\n      div\n        /* \"#utility.yul\":25872:25873   */\n      dup4\n        /* \"#utility.yul\":25869:25950   */\n      gt\n        /* \"#utility.yul\":25864:25865   */\n      dup3\n        /* \"#utility.yul\":25857:25866   */\n      iszero\n        /* \"#utility.yul\":25850:25867   */\n      iszero\n        /* \"#utility.yul\":25846:25951   */\n      and\n        /* \"#utility.yul\":25843:25974   */\n      iszero\n      tag_556\n      jumpi\n        /* \"#utility.yul\":25954:25972   */\n      tag_557\n      tag_277\n      jump\t// in\n    tag_557:\n        /* \"#utility.yul\":25843:25974   */\n    tag_556:\n        /* \"#utility.yul\":26002:26003   */\n      dup3\n        /* \"#utility.yul\":25999:26000   */\n      dup3\n        /* \"#utility.yul\":25995:26004   */\n      mul\n        /* \"#utility.yul\":25984:26004   */\n      swap1\n      pop\n        /* \"#utility.yul\":25662:26010   */\n      swap3\n      swap2\n      pop\n      pop\n      jump\t// out\n        /* \"#utility.yul\":26016:26196   */\n    tag_324:\n        /* \"#utility.yul\":26064:26141   */\n      0x4e487b7100000000000000000000000000000000000000000000000000000000\n        /* \"#utility.yul\":26061:26062   */\n      0x00\n        /* \"#utility.yul\":26054:26142   */\n      mstore\n        /* \"#utility.yul\":26161:26165   */\n      0x12\n        /* \"#utility.yul\":26158:26159   */\n      0x04\n        /* \"#utility.yul\":26151:26166   */\n      mstore\n        /* \"#utility.yul\":26185:26189   */\n      0x24\n        /* \"#utility.yul\":26182:26183   */\n      0x00\n        /* \"#utility.yul\":26175:26190   */\n      revert\n        /* \"#utility.yul\":26202:26387   */\n    tag_258:\n        /* \"#utility.yul\":26242:26243   */\n      0x00\n        /* \"#utility.yul\":26259:26279   */\n      tag_560\n        /* \"#utility.yul\":26277:26278   */\n      dup3\n        /* \"#utility.yul\":26259:26279   */\n      tag_262\n      jump\t// in\n    tag_560:\n        /* \"#utility.yul\":26254:26279   */\n      swap2\n      pop\n        /* \"#utility.yul\":26293:26313   */\n      tag_561\n        /* \"#utility.yul\":26311:26312   */\n      dup4\n        /* \"#utility.yul\":26293:26313   */\n      tag_262\n      jump\t// in\n    tag_561:\n        /* \"#utility.yul\":26288:26313   */\n      swap3\n      pop\n        /* \"#utility.yul\":26332:26333   */\n      dup3\n        /* \"#utility.yul\":26322:26357   */\n      tag_562\n      jumpi\n        /* \"#utility.yul\":26337:26355   */\n      tag_563\n      tag_324\n      jump\t// in\n    tag_563:\n        /* \"#utility.yul\":26322:26357   */\n    tag_562:\n        /* \"#utility.yul\":26379:26380   */\n      dup3\n        /* \"#utility.yul\":26376:26377   */\n      dup3\n        /* \"#utility.yul\":26372:26381   */\n      div\n        /* \"#utility.yul\":26367:26381   */\n      swap1\n      pop\n        /* \"#utility.yul\":26202:26387   */\n      swap3\n      swap2\n      pop\n      pop\n      jump\t// out\n\n    auxdata: 0xa2646970667358221220eaad9166b2a9b094c39d8b5521e04dcc3ada15d3bb98d95cefc279095564537164736f6c634300080f0033\n}\n",
				"bytecode": {
					"linkReferences": {},
					"object": "60806040523480156200001157600080fd5b50604051620024f6380380620024f683398181016040528101906200003791906200012a565b816000806101000a81548173ffffffffffffffffffffffffffffffffffffffff021916908373ffffffffffffffffffffffffffffffffffffffff16021790555080600160006101000a81548173ffffffffffffffffffffffffffffffffffffffff021916908373ffffffffffffffffffffffffffffffffffffffff160217905550505062000171565b600080fd5b600073ffffffffffffffffffffffffffffffffffffffff82169050919050565b6000620000f282620000c5565b9050919050565b6200010481620000e5565b81146200011057600080fd5b50565b6000815190506200012481620000f9565b92915050565b60008060408385031215620001445762000143620000c0565b5b6000620001548582860162000113565b9250506020620001678582860162000113565b9150509250929050565b61237580620001816000396000f3fe60806040526004361061004a5760003560e01c80635c11d7951461004f578063791ac94714610078578063ad5c4648146100a1578063b6f9de95146100cc578063c45a0155146100e8575b600080fd5b34801561005b57600080fd5b50610076600480360381019061007191906115fb565b610113565b005b34801561008457600080fd5b5061009f600480360381019061009a91906115fb565b61040b565b005b3480156100ad57600080fd5b506100b6610792565b6040516100c391906116a4565b60405180910390f35b6100e660048036038101906100e191906116bf565b6107b8565b005b3480156100f457600080fd5b506100fd610c69565b60405161010a91906116a4565b60405180910390f35b8042811015610157576040517f08c379a000000000000000000000000000000000000000000000000000000000815260040161014e906117a4565b60405180910390fd5b6102058585600081811061016e5761016d6117c4565b5b905060200201602081019061018391906117f3565b336101ff60008054906101000a900473ffffffffffffffffffffffffffffffffffffffff16898960008181106101bc576101bb6117c4565b5b90506020020160208101906101d191906117f3565b8a8a60018181106101e5576101e46117c4565b5b90506020020160208101906101fa91906117f3565b610c8d565b8a610cff565b60008585600188889050610219919061184f565b818110610229576102286117c4565b5b905060200201602081019061023e91906117f3565b73ffffffffffffffffffffffffffffffffffffffff166370a08231856040518263ffffffff1660e01b815260040161027691906116a4565b602060405180830381865afa158015610293573d6000803e3d6000fd5b505050506040513d601f19601f820116820180604052508101906102b79190611898565b9050610304868680806020026020016040519081016040528093929190818152602001838360200280828437600081840152601f19601f8201169050808301925050505050505085610e38565b8681878760018a8a9050610318919061184f565b818110610328576103276117c4565b5b905060200201602081019061033d91906117f3565b73ffffffffffffffffffffffffffffffffffffffff166370a08231876040518263ffffffff1660e01b815260040161037591906116a4565b602060405180830381865afa158015610392573d6000803e3d6000fd5b505050506040513d601f19601f820116820180604052508101906103b69190611898565b6103c0919061184f565b1015610401576040517f08c379a00000000000000000000000000000000000000000000000000000000081526004016103f890611937565b60405180910390fd5b5050505050505050565b804281101561044f576040517f08c379a0000000000000000000000000000000000000000000000000000000008152600401610446906117a4565b60405180910390fd5b600160009054906101000a900473ffffffffffffffffffffffffffffffffffffffff1673ffffffffffffffffffffffffffffffffffffffff16858560018888905061049a919061184f565b8181106104aa576104a96117c4565b5b90506020020160208101906104bf91906117f3565b73ffffffffffffffffffffffffffffffffffffffff1614610515576040517f08c379a000000000000000000000000000000000000000000000000000000000815260040161050c906119a3565b60405180910390fd5b6105c38585600081811061052c5761052b6117c4565b5b905060200201602081019061054191906117f3565b336105bd60008054906101000a900473ffffffffffffffffffffffffffffffffffffffff168989600081811061057a576105796117c4565b5b905060200201602081019061058f91906117f3565b8a8a60018181106105a3576105a26117c4565b5b90506020020160208101906105b891906117f3565b610c8d565b8a610cff565b61060e858580806020026020016040519081016040528093929190818152602001838360200280828437600081840152601f19601f8201169050808301925050505050505030610e38565b6000600160009054906101000a900473ffffffffffffffffffffffffffffffffffffffff1673ffffffffffffffffffffffffffffffffffffffff166370a08231306040518263ffffffff1660e01b815260040161066b91906116a4565b602060405180830381865afa158015610688573d6000803e3d6000fd5b505050506040513d601f19601f820116820180604052508101906106ac9190611898565b9050868110156106f1576040517f08c379a00000000000000000000000000000000000000000000000000000000081526004016106e890611937565b60405180910390fd5b600160009054906101000a900473ffffffffffffffffffffffffffffffffffffffff1673ffffffffffffffffffffffffffffffffffffffff16632e1a7d4d826040518263ffffffff1660e01b815260040161074c91906119d2565b600060405180830381600087803b15801561076657600080fd5b505af115801561077a573d6000803e3d6000fd5b5050505061078884826111e2565b5050505050505050565b600160009054906101000a900473ffffffffffffffffffffffffffffffffffffffff1681565b80428110156107fc576040517f08c379a00000000000000000000000000000000000000000000000000000000081526004016107f3906117a4565b60405180910390fd5b600160009054906101000a900473ffffffffffffffffffffffffffffffffffffffff1673ffffffffffffffffffffffffffffffffffffffff1685856000818110610849576108486117c4565b5b905060200201602081019061085e91906117f3565b73ffffffffffffffffffffffffffffffffffffffff16146108b4576040517f08c379a00000000000000000000000000000000000000000000000000000000081526004016108ab906119a3565b60405180910390fd5b6000349050600160009054906101000a900473ffffffffffffffffffffffffffffffffffffffff1673ffffffffffffffffffffffffffffffffffffffff1663d0e30db0826040518263ffffffff1660e01b81526004016000604051808303818588803b15801561092357600080fd5b505af1158015610937573d6000803e3d6000fd5b5050505050600160009054906101000a900473ffffffffffffffffffffffffffffffffffffffff1673ffffffffffffffffffffffffffffffffffffffff1663a9059cbb6109f560008054906101000a900473ffffffffffffffffffffffffffffffffffffffff16898960008181106109b2576109b16117c4565b5b90506020020160208101906109c791906117f3565b8a8a60018181106109db576109da6117c4565b5b90506020020160208101906109f091906117f3565b610c8d565b836040518363ffffffff1660e01b8152600401610a139291906119ed565b6020604051808303816000875af1158015610a32573d6000803e3d6000fd5b505050506040513d601f19601f82011682018060405250810190610a569190611a4e565b610a6357610a62611a7b565b5b60008686600189899050610a77919061184f565b818110610a8757610a866117c4565b5b9050602002016020810190610a9c91906117f3565b73ffffffffffffffffffffffffffffffffffffffff166370a08231866040518263ffffffff1660e01b8152600401610ad491906116a4565b602060405180830381865afa158015610af1573d6000803e3d6000fd5b505050506040513d601f19601f82011682018060405250810190610b159190611898565b9050610b62878780806020026020016040519081016040528093929190818152602001838360200280828437600081840152601f19601f8201169050808301925050505050505086610e38565b8781888860018b8b9050610b76919061184f565b818110610b8657610b856117c4565b5b9050602002016020810190610b9b91906117f3565b73ffffffffffffffffffffffffffffffffffffffff166370a08231886040518263ffffffff1660e01b8152600401610bd391906116a4565b602060405180830381865afa158015610bf0573d6000803e3d6000fd5b505050506040513d601f19601f82011682018060405250810190610c149190611898565b610c1e919061184f565b1015610c5f576040517f08c379a0000000000000000000000000000000000000000000000000000000008152600401610c5690611937565b60405180910390fd5b5050505050505050565b60008054906101000a900473ffffffffffffffffffffffffffffffffffffffff1681565b6000806000610c9c85856112e2565b91509150858282604051602001610cb4929190611af2565b60405160208183030381529060405280519060200120604051602001610cdb929190611bec565b6040516020818303038152906040528051906020012060001c925050509392505050565b6000808573ffffffffffffffffffffffffffffffffffffffff166323b872dd868686604051602401610d3393929190611c2e565b6040516020818303038152906040529060e01b6020820180517bffffffffffffffffffffffffffffffffffffffffffffffffffffffff8381831617835250505050604051610d819190611cdf565b6000604051808303816000865af19150503d8060008114610dbe576040519150601f19603f3d011682016040523d82523d6000602084013e610dc3565b606091505b5091509150818015610df15750600081511480610df0575080806020019051810190610def9190611a4e565b5b5b610e30576040517f08c379a0000000000000000000000000000000000000000000000000000000008152600401610e2790611d68565b60405180910390fd5b505050505050565b60005b60018351610e49919061184f565b8110156111dd57600080848381518110610e6657610e656117c4565b5b602002602001015185600185610e7c9190611d88565b81518110610e8d57610e8c6117c4565b5b6020026020010151915091506000610ea583836112e2565b5090506000610ed560008054906101000a900473ffffffffffffffffffffffffffffffffffffffff168585610c8d565b90506000806000808473ffffffffffffffffffffffffffffffffffffffff16630902f1ac6040518163ffffffff1660e01b8152600401606060405180830381865afa158015610f28573d6000803e3d6000fd5b505050506040513d601f19601f82011682018060405250810190610f4c9190611e60565b506dffffffffffffffffffffffffffff1691506dffffffffffffffffffffffffffff1691506000808773ffffffffffffffffffffffffffffffffffffffff168a73ffffffffffffffffffffffffffffffffffffffff1614610fae578284610fb1565b83835b91509150818a73ffffffffffffffffffffffffffffffffffffffff166370a08231896040518263ffffffff1660e01b8152600401610fef91906116a4565b602060405180830381865afa15801561100c573d6000803e3d6000fd5b505050506040513d601f19601f820116820180604052508101906110309190611898565b61103a919061184f565b955061104786838361140e565b9450505050506000808573ffffffffffffffffffffffffffffffffffffffff168873ffffffffffffffffffffffffffffffffffffffff161461108b5782600061108f565b6000835b91509150600060028c516110a3919061184f565b8a106110af578a611101565b61110060008054906101000a900473ffffffffffffffffffffffffffffffffffffffff16898e60028e6110e29190611d88565b815181106110f3576110f26117c4565b5b6020026020010151610c8d565b5b90508573ffffffffffffffffffffffffffffffffffffffff1663022c0d9f848484600067ffffffffffffffff81111561113d5761113c611eb3565b5b6040519080825280601f01601f19166020018201604052801561116f5781602001600182028036833780820191505090505b506040518563ffffffff1660e01b815260040161118f9493929190611f3d565b600060405180830381600087803b1580156111a957600080fd5b505af11580156111bd573d6000803e3d6000fd5b5050505050505050505050505080806111d590611f89565b915050610e3b565b505050565b60008273ffffffffffffffffffffffffffffffffffffffff1682600067ffffffffffffffff81111561121757611216611eb3565b5b6040519080825280601f01601f1916602001820160405280156112495781602001600182028036833780820191505090505b506040516112579190611cdf565b60006040518083038185875af1925050503d8060008114611294576040519150601f19603f3d011682016040523d82523d6000602084013e611299565b606091505b50509050806112dd576040517f08c379a00000000000000000000000000000000000000000000000000000000081526004016112d490612043565b60405180910390fd5b505050565b6000808273ffffffffffffffffffffffffffffffffffffffff168473ffffffffffffffffffffffffffffffffffffffff1603611353576040517f08c379a000000000000000000000000000000000000000000000000000000000815260040161134a906120d5565b60405180910390fd5b8273ffffffffffffffffffffffffffffffffffffffff168473ffffffffffffffffffffffffffffffffffffffff161061138d578284611390565b83835b8092508193505050600073ffffffffffffffffffffffffffffffffffffffff168273ffffffffffffffffffffffffffffffffffffffff1603611407576040517f08c379a00000000000000000000000000000000000000000000000000000000081526004016113fe90612141565b60405180910390fd5b9250929050565b6000808411611452576040517f08c379a0000000000000000000000000000000000000000000000000000000008152600401611449906121d3565b60405180910390fd5b6000831180156114625750600082115b6114a1576040517f08c379a000000000000000000000000000000000000000000000000000000000815260040161149890612265565b60405180910390fd5b60006103e5856114b19190612285565b9050600083826114c19190612285565b90506000826103e8876114d49190612285565b6114de9190611d88565b905080826114ec919061230e565b93505050509392505050565b600080fd5b600080fd5b6000819050919050565b61151581611502565b811461152057600080fd5b50565b6000813590506115328161150c565b92915050565b600080fd5b600080fd5b600080fd5b60008083601f84011261155d5761155c611538565b5b8235905067ffffffffffffffff81111561157a5761157961153d565b5b60208301915083602082028301111561159657611595611542565b5b9250929050565b600073ffffffffffffffffffffffffffffffffffffffff82169050919050565b60006115c88261159d565b9050919050565b6115d8816115bd565b81146115e357600080fd5b50565b6000813590506115f5816115cf565b92915050565b60008060008060008060a08789031215611618576116176114f8565b5b600061162689828a01611523565b965050602061163789828a01611523565b955050604087013567ffffffffffffffff811115611658576116576114fd565b5b61166489828a01611547565b9450945050606061167789828a016115e6565b925050608061168889828a01611523565b9150509295509295509295565b61169e816115bd565b82525050565b60006020820190506116b96000830184611695565b92915050565b6000806000806000608086880312156116db576116da6114f8565b5b60006116e988828901611523565b955050602086013567ffffffffffffffff81111561170a576117096114fd565b5b61171688828901611547565b94509450506040611729888289016115e6565b925050606061173a88828901611523565b9150509295509295909350565b600082825260208201905092915050565b7f556e69737761705632526f757465723a20455850495245440000000000000000600082015250565b600061178e601883611747565b915061179982611758565b602082019050919050565b600060208201905081810360008301526117bd81611781565b9050919050565b7f4e487b7100000000000000000000000000000000000000000000000000000000600052603260045260246000fd5b600060208284031215611809576118086114f8565b5b6000611817848285016115e6565b91505092915050565b7f4e487b7100000000000000000000000000000000000000000000000000000000600052601160045260246000fd5b600061185a82611502565b915061186583611502565b92508282101561187857611877611820565b5b828203905092915050565b6000815190506118928161150c565b92915050565b6000602082840312156118ae576118ad6114f8565b5b60006118bc84828501611883565b91505092915050565b7f556e69737761705632526f757465723a20494e53554646494349454e545f4f5560008201527f545055545f414d4f554e54000000000000000000000000000000000000000000602082015250565b6000611921602b83611747565b915061192c826118c5565b604082019050919050565b6000602082019050818103600083015261195081611914565b9050919050565b7f556e69737761705632526f757465723a20494e56414c49445f50415448000000600082015250565b600061198d601d83611747565b915061199882611957565b602082019050919050565b600060208201905081810360008301526119bc81611980565b9050919050565b6119cc81611502565b82525050565b60006020820190506119e760008301846119c3565b92915050565b6000604082019050611a026000830185611695565b611a0f60208301846119c3565b9392505050565b60008115159050919050565b611a2b81611a16565b8114611a3657600080fd5b50565b600081519050611a4881611a22565b92915050565b600060208284031215611a6457611a636114f8565b5b6000611a7284828501611a39565b91505092915050565b7f4e487b7100000000000000000000000000000000000000000000000000000000600052600160045260246000fd5b60008160601b9050919050565b6000611ac282611aaa565b9050919050565b6000611ad482611ab7565b9050919050565b611aec611ae7826115bd565b611ac9565b82525050565b6000611afe8285611adb565b601482019150611b0e8284611adb565b6014820191508190509392505050565b600081905092915050565b7fff00000000000000000000000000000000000000000000000000000000000000600082015250565b6000611b5f600183611b1e565b9150611b6a82611b29565b600182019050919050565b6000819050919050565b6000819050919050565b611b9a611b9582611b75565b611b7f565b82525050565b7f96e8ac4277198ff8b6f785478aa9a39f403cb768dd02cbee326c3e7da348845f600082015250565b6000611bd6602083611b1e565b9150611be182611ba0565b602082019050919050565b6000611bf782611b52565b9150611c038285611adb565b601482019150611c138284611b89565b602082019150611c2282611bc9565b91508190509392505050565b6000606082019050611c436000830186611695565b611c506020830185611695565b611c5d60408301846119c3565b949350505050565b600081519050919050565b600081905092915050565b60005b83811015611c99578082015181840152602081019050611c7e565b83811115611ca8576000848401525b50505050565b6000611cb982611c65565b611cc38185611c70565b9350611cd3818560208601611c7b565b80840191505092915050565b6000611ceb8284611cae565b915081905092915050565b7f5472616e7366657248656c7065723a3a7472616e7366657246726f6d3a20747260008201527f616e7366657246726f6d206661696c6564000000000000000000000000000000602082015250565b6000611d52603183611747565b9150611d5d82611cf6565b604082019050919050565b60006020820190508181036000830152611d8181611d45565b9050919050565b6000611d9382611502565b9150611d9e83611502565b9250827fffffffffffffffffffffffffffffffffffffffffffffffffffffffffffffffff03821115611dd357611dd2611820565b5b828201905092915050565b60006dffffffffffffffffffffffffffff82169050919050565b611e0181611dde565b8114611e0c57600080fd5b50565b600081519050611e1e81611df8565b92915050565b600063ffffffff82169050919050565b611e3d81611e24565b8114611e4857600080fd5b50565b600081519050611e5a81611e34565b92915050565b600080600060608486031215611e7957611e786114f8565b5b6000611e8786828701611e0f565b9350506020611e9886828701611e0f565b9250506040611ea986828701611e4b565b9150509250925092565b7f4e487b7100000000000000000000000000000000000000000000000000000000600052604160045260246000fd5b600082825260208201905092915050565b6000601f19601f8301169050919050565b6000611f0f82611c65565b611f198185611ee2565b9350611f29818560208601611c7b565b611f3281611ef3565b840191505092915050565b6000608082019050611f5260008301876119c3565b611f5f60208301866119c3565b611f6c6040830185611695565b8181036060830152611f7e8184611f04565b905095945050505050565b6000611f9482611502565b91507fffffffffffffffffffffffffffffffffffffffffffffffffffffffffffffffff8203611fc657611fc5611820565b5b600182019050919050565b7f5472616e7366657248656c7065723a3a736166655472616e736665724554483a60008201527f20455448207472616e73666572206661696c6564000000000000000000000000602082015250565b600061202d603483611747565b915061203882611fd1565b604082019050919050565b6000602082019050818103600083015261205c81612020565b9050919050565b7f556e697377617056324c6962726172793a204944454e544943414c5f4144445260008201527f4553534553000000000000000000000000000000000000000000000000000000602082015250565b60006120bf602583611747565b91506120ca82612063565b604082019050919050565b600060208201905081810360008301526120ee816120b2565b9050919050565b7f556e697377617056324c6962726172793a205a45524f5f414444524553530000600082015250565b600061212b601e83611747565b9150612136826120f5565b602082019050919050565b6000602082019050818103600083015261215a8161211e565b9050919050565b7f556e697377617056324c6962726172793a20494e53554646494349454e545f4960008201527f4e5055545f414d4f554e54000000000000000000000000000000000000000000602082015250565b60006121bd602b83611747565b91506121c882612161565b604082019050919050565b600060208201905081810360008301526121ec816121b0565b9050919050565b7f556e697377617056324c6962726172793a20494e53554646494349454e545f4c60008201527f4951554944495459000000000000000000000000000000000000000000000000602082015250565b600061224f602883611747565b915061225a826121f3565b604082019050919050565b6000602082019050818103600083015261227e81612242565b9050919050565b600061229082611502565b915061229b83611502565b9250817fffffffffffffffffffffffffffffffffffffffffffffffffffffffffffffffff04831182151516156122d4576122d3611820565b5b828202905092915050565b7f4e487b7100000000000000000000000000000000000000000000000000000000600052601260045260246000fd5b600061231982611502565b915061232483611502565b925082612334576123336122df565b5b82820490509291505056fea2646970667358221220eaad9166b2a9b094c39d8b5521e04dcc3ada15d3bb98d95cefc279095564537164736f6c634300080f0033",
					"opcodes": "PUSH1 0x80 PUSH1 0x40 MSTORE CALLVALUE DUP1 ISZERO PUSH3 0x11 JUMPI PUSH1 0x0 DUP1 REVERT JUMPDEST POP PUSH1 0x40 MLOAD PUSH3 0x24F6 CODESIZE SUB DUP1 PUSH3 0x24F6 DUP4 CODECOPY DUP2 DUP2 ADD PUSH1 0x40 MSTORE DUP2 ADD SWAP1 PUSH3 0x37 SWAP2 SWAP1 PUSH3 0x12A JUMP JUMPDEST DUP2 PUSH1 0x0 DUP1 PUSH2 0x100 EXP DUP2 SLOAD DUP2 PUSH20 0xFFFFFFFFFFFFFFFFFFFFFFFFFFFFFFFFFFFFFFFF MUL NOT AND SWAP1 DUP4 PUSH20 0xFFFFFFFFFFFFFFFFFFFFFFFFFFFFFFFFFFFFFFFF AND MUL OR SWAP1 SSTORE POP DUP1 PUSH1 0x1 PUSH1 0x0 PUSH2 0x100 EXP DUP2 SLOAD DUP2 PUSH20 0xFFFFFFFFFFFFFFFFFFFFFFFFFFFFFFFFFFFFFFFF MUL NOT AND SWAP1 DUP4 PUSH20 0xFFFFFFFFFFFFFFFFFFFFFFFFFFFFFFFFFFFFFFFF AND MUL OR SWAP1 SSTORE POP POP POP PUSH3 0x171 JUMP JUMPDEST PUSH1 0x0 DUP1 REVERT JUMPDEST PUSH1 0x0 PUSH20 0xFFFFFFFFFFFFFFFFFFFFFFFFFFFFFFFFFFFFFFFF DUP3 AND SWAP1 POP SWAP2 SWAP1 POP JUMP JUMPDEST PUSH1 0x0 PUSH3 0xF2 DUP3 PUSH3 0xC5 JUMP JUMPDEST SWAP1 POP SWAP2 SWAP1 POP JUMP JUMPDEST PUSH3 0x104 DUP2 PUSH3 0xE5 JUMP JUMPDEST DUP2 EQ PUSH3 0x110 JUMPI PUSH1 0x0 DUP1 REVERT JUMPDEST POP JUMP JUMPDEST PUSH1 0x0 DUP2 MLOAD SWAP1 POP PUSH3 0x124 DUP2 PUSH3 0xF9 JUMP JUMPDEST SWAP3 SWAP2 POP POP JUMP JUMPDEST PUSH1 0x0 DUP1 PUSH1 0x40 DUP4 DUP6 SUB SLT ISZERO PUSH3 0x144 JUMPI PUSH3 0x143 PUSH3 0xC0 JUMP JUMPDEST JUMPDEST PUSH1 0x0 PUSH3 0x154 DUP6 DUP3 DUP7 ADD PUSH3 0x113 JUMP JUMPDEST SWAP3 POP POP PUSH1 0x20 PUSH3 0x167 DUP6 DUP3 DUP7 ADD PUSH3 0x113 JUMP JUMPDEST SWAP2 POP POP SWAP3 POP SWAP3 SWAP1 POP JUMP JUMPDEST PUSH2 0x2375 DUP1 PUSH3 0x181 PUSH1 0x0 CODECOPY PUSH1 0x0 RETURN INVALID PUSH1 0x80 PUSH1 0x40 MSTORE PUSH1 0x4 CALLDATASIZE LT PUSH2 0x4A JUMPI PUSH1 0x0 CALLDATALOAD PUSH1 0xE0 SHR DUP1 PUSH4 0x5C11D795 EQ PUSH2 0x4F JUMPI DUP1 PUSH4 0x791AC947 EQ PUSH2 0x78 JUMPI DUP1 PUSH4 0xAD5C4648 EQ PUSH2 0xA1 JUMPI DUP1 PUSH4 0xB6F9DE95 EQ PUSH2 0xCC JUMPI DUP1 PUSH4 0xC45A0155 EQ PUSH2 0xE8 JUMPI JUMPDEST PUSH1 0x0 DUP1 REVERT JUMPDEST CALLVALUE DUP1 ISZERO PUSH2 0x5B JUMPI PUSH1 0x0 DUP1 REVERT JUMPDEST POP PUSH2 0x76 PUSH1 0x4 DUP1 CALLDATASIZE SUB DUP2 ADD SWAP1 PUSH2 0x71 SWAP2 SWAP1 PUSH2 0x15FB JUMP JUMPDEST PUSH2 0x113 JUMP JUMPDEST STOP JUMPDEST CALLVALUE DUP1 ISZERO PUSH2 0x84 JUMPI PUSH1 0x0 DUP1 REVERT JUMPDEST POP PUSH2 0x9F PUSH1 0x4 DUP1 CALLDATASIZE SUB DUP2 ADD SWAP1 PUSH2 0x9A SWAP2 SWAP1 PUSH2 0x15FB JUMP JUMPDEST PUSH2 0x40B JUMP JUMPDEST STOP JUMPDEST CALLVALUE DUP1 ISZERO PUSH2 0xAD JUMPI PUSH1 0x0 DUP1 REVERT JUMPDEST POP PUSH2 0xB6 PUSH2 0x792 JUMP JUMPDEST PUSH1 0x40 MLOAD PUSH2 0xC3 SWAP2 SWAP1 PUSH2 0x16A4 JUMP JUMPDEST PUSH1 0x40 MLOAD DUP1 SWAP2 SUB SWAP1 RETURN JUMPDEST PUSH2 0xE6 PUSH1 0x4 DUP1 CALLDATASIZE SUB DUP2 ADD SWAP1 PUSH2 0xE1 SWAP2 SWAP1 PUSH2 0x16BF JUMP JUMPDEST PUSH2 0x7B8 JUMP JUMPDEST STOP JUMPDEST CALLVALUE DUP1 ISZERO PUSH2 0xF4 JUMPI PUSH1 0x0 DUP1 REVERT JUMPDEST POP PUSH2 0xFD PUSH2 0xC69 JUMP JUMPDEST PUSH1 0x40 MLOAD PUSH2 0x10A SWAP2 SWAP1 PUSH2 0x16A4 JUMP JUMPDEST PUSH1 0x40 MLOAD DUP1 SWAP2 SUB SWAP1 RETURN JUMPDEST DUP1 TIMESTAMP DUP2 LT ISZERO PUSH2 0x157 JUMPI PUSH1 0x40 MLOAD PUSH32 0x8C379A000000000000000000000000000000000000000000000000000000000 DUP2 MSTORE PUSH1 0x4 ADD PUSH2 0x14E SWAP1 PUSH2 0x17A4 JUMP JUMPDEST PUSH1 0x40 MLOAD DUP1 SWAP2 SUB SWAP1 REVERT JUMPDEST PUSH2 0x205 DUP6 DUP6 PUSH1 0x0 DUP2 DUP2 LT PUSH2 0x16E JUMPI PUSH2 0x16D PUSH2 0x17C4 JUMP JUMPDEST JUMPDEST SWAP1 POP PUSH1 0x20 MUL ADD PUSH1 0x20 DUP2 ADD SWAP1 PUSH2 0x183 SWAP2 SWAP1 PUSH2 0x17F3 JUMP JUMPDEST CALLER PUSH2 0x1FF PUSH1 0x0 DUP1 SLOAD SWAP1 PUSH2 0x100 EXP SWAP1 DIV PUSH20 0xFFFFFFFFFFFFFFFFFFFFFFFFFFFFFFFFFFFFFFFF AND DUP10 DUP10 PUSH1 0x0 DUP2 DUP2 LT PUSH2 0x1BC JUMPI PUSH2 0x1BB PUSH2 0x17C4 JUMP JUMPDEST JUMPDEST SWAP1 POP PUSH1 0x20 MUL ADD PUSH1 0x20 DUP2 ADD SWAP1 PUSH2 0x1D1 SWAP2 SWAP1 PUSH2 0x17F3 JUMP JUMPDEST DUP11 DUP11 PUSH1 0x1 DUP2 DUP2 LT PUSH2 0x1E5 JUMPI PUSH2 0x1E4 PUSH2 0x17C4 JUMP JUMPDEST JUMPDEST SWAP1 POP PUSH1 0x20 MUL ADD PUSH1 0x20 DUP2 ADD SWAP1 PUSH2 0x1FA SWAP2 SWAP1 PUSH2 0x17F3 JUMP JUMPDEST PUSH2 0xC8D JUMP JUMPDEST DUP11 PUSH2 0xCFF JUMP JUMPDEST PUSH1 0x0 DUP6 DUP6 PUSH1 0x1 DUP9 DUP9 SWAP1 POP PUSH2 0x219 SWAP2 SWAP1 PUSH2 0x184F JUMP JUMPDEST DUP2 DUP2 LT PUSH2 0x229 JUMPI PUSH2 0x228 PUSH2 0x17C4 JUMP JUMPDEST JUMPDEST SWAP1 POP PUSH1 0x20 MUL ADD PUSH1 0x20 DUP2 ADD SWAP1 PUSH2 0x23E SWAP2 SWAP1 PUSH2 0x17F3 JUMP JUMPDEST PUSH20 0xFFFFFFFFFFFFFFFFFFFFFFFFFFFFFFFFFFFFFFFF AND PUSH4 0x70A08231 DUP6 PUSH1 0x40 MLOAD DUP3 PUSH4 0xFFFFFFFF AND PUSH1 0xE0 SHL DUP2 MSTORE PUSH1 0x4 ADD PUSH2 0x276 SWAP2 SWAP1 PUSH2 0x16A4 JUMP JUMPDEST PUSH1 0x20 PUSH1 0x40 MLOAD DUP1 DUP4 SUB DUP2 DUP7 GAS STATICCALL ISZERO DUP1 ISZERO PUSH2 0x293 JUMPI RETURNDATASIZE PUSH1 0x0 DUP1 RETURNDATACOPY RETURNDATASIZE PUSH1 0x0 REVERT JUMPDEST POP POP POP POP PUSH1 0x40 MLOAD RETURNDATASIZE PUSH1 0x1F NOT PUSH1 0x1F DUP3 ADD AND DUP3 ADD DUP1 PUSH1 0x40 MSTORE POP DUP2 ADD SWAP1 PUSH2 0x2B7 SWAP2 SWAP1 PUSH2 0x1898 JUMP JUMPDEST SWAP1 POP PUSH2 0x304 DUP7 DUP7 DUP1 DUP1 PUSH1 0x20 MUL PUSH1 0x20 ADD PUSH1 0x40 MLOAD SWAP1 DUP2 ADD PUSH1 0x40 MSTORE DUP1 SWAP4 SWAP3 SWAP2 SWAP1 DUP2 DUP2 MSTORE PUSH1 0x20 ADD DUP4 DUP4 PUSH1 0x20 MUL DUP1 DUP3 DUP5 CALLDATACOPY PUSH1 0x0 DUP2 DUP5 ADD MSTORE PUSH1 0x1F NOT PUSH1 0x1F DUP3 ADD AND SWAP1 POP DUP1 DUP4 ADD SWAP3 POP POP POP POP POP POP POP DUP6 PUSH2 0xE38 JUMP JUMPDEST DUP7 DUP2 DUP8 DUP8 PUSH1 0x1 DUP11 DUP11 SWAP1 POP PUSH2 0x318 SWAP2 SWAP1 PUSH2 0x184F JUMP JUMPDEST DUP2 DUP2 LT PUSH2 0x328 JUMPI PUSH2 0x327 PUSH2 0x17C4 JUMP JUMPDEST JUMPDEST SWAP1 POP PUSH1 0x20 MUL ADD PUSH1 0x20 DUP2 ADD SWAP1 PUSH2 0x33D SWAP2 SWAP1 PUSH2 0x17F3 JUMP JUMPDEST PUSH20 0xFFFFFFFFFFFFFFFFFFFFFFFFFFFFFFFFFFFFFFFF AND PUSH4 0x70A08231 DUP8 PUSH1 0x40 MLOAD DUP3 PUSH4 0xFFFFFFFF AND PUSH1 0xE0 SHL DUP2 MSTORE PUSH1 0x4 ADD PUSH2 0x375 SWAP2 SWAP1 PUSH2 0x16A4 JUMP JUMPDEST PUSH1 0x20 PUSH1 0x40 MLOAD DUP1 DUP4 SUB DUP2 DUP7 GAS STATICCALL ISZERO DUP1 ISZERO PUSH2 0x392 JUMPI RETURNDATASIZE PUSH1 0x0 DUP1 RETURNDATACOPY RETURNDATASIZE PUSH1 0x0 REVERT JUMPDEST POP POP POP POP PUSH1 0x40 MLOAD RETURNDATASIZE PUSH1 0x1F NOT PUSH1 0x1F DUP3 ADD AND DUP3 ADD DUP1 PUSH1 0x40 MSTORE POP DUP2 ADD SWAP1 PUSH2 0x3B6 SWAP2 SWAP1 PUSH2 0x1898 JUMP JUMPDEST PUSH2 0x3C0 SWAP2 SWAP1 PUSH2 0x184F JUMP JUMPDEST LT ISZERO PUSH2 0x401 JUMPI PUSH1 0x40 MLOAD PUSH32 0x8C379A000000000000000000000000000000000000000000000000000000000 DUP2 MSTORE PUSH1 0x4 ADD PUSH2 0x3F8 SWAP1 PUSH2 0x1937 JUMP JUMPDEST PUSH1 0x40 MLOAD DUP1 SWAP2 SUB SWAP1 REVERT JUMPDEST POP POP POP POP POP POP POP POP JUMP JUMPDEST DUP1 TIMESTAMP DUP2 LT ISZERO PUSH2 0x44F JUMPI PUSH1 0x40 MLOAD PUSH32 0x8C379A000000000000000000000000000000000000000000000000000000000 DUP2 MSTORE PUSH1 0x4 ADD PUSH2 0x446 SWAP1 PUSH2 0x17A4 JUMP JUMPDEST PUSH1 0x40 MLOAD DUP1 SWAP2 SUB SWAP1 REVERT JUMPDEST PUSH1 0x1 PUSH1 0x0 SWAP1 SLOAD SWAP1 PUSH2 0x100 EXP SWAP1 DIV PUSH20 0xFFFFFFFFFFFFFFFFFFFFFFFFFFFFFFFFFFFFFFFF AND PUSH20 0xFFFFFFFFFFFFFFFFFFFFFFFFFFFFFFFFFFFFFFFF AND DUP6 DUP6 PUSH1 0x1 DUP9 DUP9 SWAP1 POP PUSH2 0x49A SWAP2 SWAP1 PUSH2 0x184F JUMP JUMPDEST DUP2 DUP2 LT PUSH2 0x4AA JUMPI PUSH2 0x4A9 PUSH2 0x17C4 JUMP JUMPDEST JUMPDEST SWAP1 POP PUSH1 0x20 MUL ADD PUSH1 0x20 DUP2 ADD SWAP1 PUSH2 0x4BF SWAP2 SWAP1 PUSH2 0x17F3 JUMP JUMPDEST PUSH20 0xFFFFFFFFFFFFFFFFFFFFFFFFFFFFFFFFFFFFFFFF AND EQ PUSH2 0x515 JUMPI PUSH1 0x40 MLOAD PUSH32 0x8C379A000000000000000000000000000000000000000000000000000000000 DUP2 MSTORE PUSH1 0x4 ADD PUSH2 0x50C SWAP1 PUSH2 0x19A3 JUMP JUMPDEST PUSH1 0x40 MLOAD DUP1 SWAP2 SUB SWAP1 REVERT JUMPDEST PUSH2 0x5C3 DUP6 DUP6 PUSH1 0x0 DUP2 DUP2 LT PUSH2 0x52C JUMPI PUSH2 0x52B PUSH2 0x17C4 JUMP JUMPDEST JUMPDEST SWAP1 POP PUSH1 0x20 MUL ADD PUSH1 0x20 DUP2 ADD SWAP1 PUSH2 0x541 SWAP2 SWAP1 PUSH2 0x17F3 JUMP JUMPDEST CALLER PUSH2 0x5BD PUSH1 0x0 DUP1 SLOAD SWAP1 PUSH2 0x100 EXP SWAP1 DIV PUSH20 0xFFFFFFFFFFFFFFFFFFFFFFFFFFFFFFFFFFFFFFFF AND DUP10 DUP10 PUSH1 0x0 DUP2 DUP2 LT PUSH2 0x57A JUMPI PUSH2 0x579 PUSH2 0x17C4 JUMP JUMPDEST JUMPDEST SWAP1 POP PUSH1 0x20 MUL ADD PUSH1 0x20 DUP2 ADD SWAP1 PUSH2 0x58F SWAP2 SWAP1 PUSH2 0x17F3 JUMP JUMPDEST DUP11 DUP11 PUSH1 0x1 DUP2 DUP2 LT PUSH2 0x5A3 JUMPI PUSH2 0x5A2 PUSH2 0x17C4 JUMP JUMPDEST JUMPDEST SWAP1 POP PUSH1 0x20 MUL ADD PUSH1 0x20 DUP2 ADD SWAP1 PUSH2 0x5B8 SWAP2 SWAP1 PUSH2 0x17F3 JUMP JUMPDEST PUSH2 0xC8D JUMP JUMPDEST DUP11 PUSH2 0xCFF JUMP JUMPDEST PUSH2 0x60E DUP6 DUP6 DUP1 DUP1 PUSH1 0x20 MUL PUSH1 0x20 ADD PUSH1 0x40 MLOAD SWAP1 DUP2 ADD PUSH1 0x40 MSTORE DUP1 SWAP4 SWAP3 SWAP2 SWAP1 DUP2 DUP2 MSTORE PUSH1 0x20 ADD DUP4 DUP4 PUSH1 0x20 MUL DUP1 DUP3 DUP5 CALLDATACOPY PUSH1 0x0 DUP2 DUP5 ADD MSTORE PUSH1 0x1F NOT PUSH1 0x1F DUP3 ADD AND SWAP1 POP DUP1 DUP4 ADD SWAP3 POP POP POP POP POP POP POP ADDRESS PUSH2 0xE38 JUMP JUMPDEST PUSH1 0x0 PUSH1 0x1 PUSH1 0x0 SWAP1 SLOAD SWAP1 PUSH2 0x100 EXP SWAP1 DIV PUSH20 0xFFFFFFFFFFFFFFFFFFFFFFFFFFFFFFFFFFFFFFFF AND PUSH20 0xFFFFFFFFFFFFFFFFFFFFFFFFFFFFFFFFFFFFFFFF AND PUSH4 0x70A08231 ADDRESS PUSH1 0x40 MLOAD DUP3 PUSH4 0xFFFFFFFF AND PUSH1 0xE0 SHL DUP2 MSTORE PUSH1 0x4 ADD PUSH2 0x66B SWAP2 SWAP1 PUSH2 0x16A4 JUMP JUMPDEST PUSH1 0x20 PUSH1 0x40 MLOAD DUP1 DUP4 SUB DUP2 DUP7 GAS STATICCALL ISZERO DUP1 ISZERO PUSH2 0x688 JUMPI RETURNDATASIZE PUSH1 0x0 DUP1 RETURNDATACOPY RETURNDATASIZE PUSH1 0x0 REVERT JUMPDEST POP POP POP POP PUSH1 0x40 MLOAD RETURNDATASIZE PUSH1 0x1F NOT PUSH1 0x1F DUP3 ADD AND DUP3 ADD DUP1 PUSH1 0x40 MSTORE POP DUP2 ADD SWAP1 PUSH2 0x6AC SWAP2 SWAP1 PUSH2 0x1898 JUMP JUMPDEST SWAP1 POP DUP7 DUP2 LT ISZERO PUSH2 0x6F1 JUMPI PUSH1 0x40 MLOAD PUSH32 0x8C379A000000000000000000000000000000000000000000000000000000000 DUP2 MSTORE PUSH1 0x4 ADD PUSH2 0x6E8 SWAP1 PUSH2 0x1937 JUMP JUMPDEST PUSH1 0x40 MLOAD DUP1 SWAP2 SUB SWAP1 REVERT JUMPDEST PUSH1 0x1 PUSH1 0x0 SWAP1 SLOAD SWAP1 PUSH2 0x100 EXP SWAP1 DIV PUSH20 0xFFFFFFFFFFFFFFFFFFFFFFFFFFFFFFFFFFFFFFFF AND PUSH20 0xFFFFFFFFFFFFFFFFFFFFFFFFFFFFFFFFFFFFFFFF AND PUSH4 0x2E1A7D4D DUP3 PUSH1 0x40 MLOAD DUP3 PUSH4 0xFFFFFFFF AND PUSH1 0xE0 SHL DUP2 MSTORE PUSH1 0x4 ADD PUSH2 0x74C SWAP2 SWAP1 PUSH2 0x19D2 JUMP JUMPDEST PUSH1 0x0 PUSH1 0x40 MLOAD DUP1 DUP4 SUB DUP2 PUSH1 0x0 DUP8 DUP1 EXTCODESIZE ISZERO DUP1 ISZERO PUSH2 0x766 JUMPI PUSH1 0x0 DUP1 REVERT JUMPDEST POP GAS CALL ISZERO DUP1 ISZERO PUSH2 0x77A JUMPI RETURNDATASIZE PUSH1 0x0 DUP1 RETURNDATACOPY RETURNDATASIZE PUSH1 0x0 REVERT JUMPDEST POP POP POP POP PUSH2 0x788 DUP5 DUP3 PUSH2 0x11E2 JUMP JUMPDEST POP POP POP POP POP POP POP POP JUMP JUMPDEST PUSH1 0x1 PUSH1 0x0 SWAP1 SLOAD SWAP1 PUSH2 0x100 EXP SWAP1 DIV PUSH20 0xFFFFFFFFFFFFFFFFFFFFFFFFFFFFFFFFFFFFFFFF AND DUP2 JUMP JUMPDEST DUP1 TIMESTAMP DUP2 LT ISZERO PUSH2 0x7FC JUMPI PUSH1 0x40 MLOAD PUSH32 0x8C379A000000000000000000000000000000000000000000000000000000000 DUP2 MSTORE PUSH1 0x4 ADD PUSH2 0x7F3 SWAP1 PUSH2 0x17A4 JUMP JUMPDEST PUSH1 0x40 MLOAD DUP1 SWAP2 SUB SWAP1 REVERT JUMPDEST PUSH1 0x1 PUSH1 0x0 SWAP1 SLOAD SWAP1 PUSH2 0x100 EXP SWAP1 DIV PUSH20 0xFFFFFFFFFFFFFFFFFFFFFFFFFFFFFFFFFFFFFFFF AND PUSH20 0xFFFFFFFFFFFFFFFFFFFFFFFFFFFFFFFFFFFFFFFF AND DUP6 DUP6 PUSH1 0x0 DUP2 DUP2 LT PUSH2 0x849 JUMPI PUSH2 0x848 PUSH2 0x17C4 JUMP JUMPDEST JUMPDEST SWAP1 POP PUSH1 0x20 MUL ADD PUSH1 0x20 DUP2 ADD SWAP1 PUSH2 0x85E SWAP2 SWAP1 PUSH2 0x17F3 JUMP JUMPDEST PUSH20 0xFFFFFFFFFFFFFFFFFFFFFFFFFFFFFFFFFFFFFFFF AND EQ PUSH2 0x8B4 JUMPI PUSH1 0x40 MLOAD PUSH32 0x8C379A000000000000000000000000000000000000000000000000000000000 DUP2 MSTORE PUSH1 0x4 ADD PUSH2 0x8AB SWAP1 PUSH2 0x19A3 JUMP JUMPDEST PUSH1 0x40 MLOAD DUP1 SWAP2 SUB SWAP1 REVERT JUMPDEST PUSH1 0x0 CALLVALUE SWAP1 POP PUSH1 0x1 PUSH1 0x0 SWAP1 SLOAD SWAP1 PUSH2 0x100 EXP SWAP1 DIV PUSH20 0xFFFFFFFFFFFFFFFFFFFFFFFFFFFFFFFFFFFFFFFF AND PUSH20 0xFFFFFFFFFFFFFFFFFFFFFFFFFFFFFFFFFFFFFFFF AND PUSH4 0xD0E30DB0 DUP3 PUSH1 0x40 MLOAD DUP3 PUSH4 0xFFFFFFFF AND PUSH1 0xE0 SHL DUP2 MSTORE PUSH1 0x4 ADD PUSH1 0x0 PUSH1 0x40 MLOAD DUP1 DUP4 SUB DUP2 DUP6 DUP9 DUP1 EXTCODESIZE ISZERO DUP1 ISZERO PUSH2 0x923 JUMPI PUSH1 0x0 DUP1 REVERT JUMPDEST POP GAS CALL ISZERO DUP1 ISZERO PUSH2 0x937 JUMPI RETURNDATASIZE PUSH1 0x0 DUP1 RETURNDATACOPY RETURNDATASIZE PUSH1 0x0 REVERT JUMPDEST POP POP POP POP POP PUSH1 0x1 PUSH1 0x0 SWAP1 SLOAD SWAP1 PUSH2 0x100 EXP SWAP1 DIV PUSH20 0xFFFFFFFFFFFFFFFFFFFFFFFFFFFFFFFFFFFFFFFF AND PUSH20 0xFFFFFFFFFFFFFFFFFFFFFFFFFFFFFFFFFFFFFFFF AND PUSH4 0xA9059CBB PUSH2 0x9F5 PUSH1 0x0 DUP1 SLOAD SWAP1 PUSH2 0x100 EXP SWAP1 DIV PUSH20 0xFFFFFFFFFFFFFFFFFFFFFFFFFFFFFFFFFFFFFFFF AND DUP10 DUP10 PUSH1 0x0 DUP2 DUP2 LT PUSH2 0x9B2 JUMPI PUSH2 0x9B1 PUSH2 0x17C4 JUMP JUMPDEST JUMPDEST SWAP1 POP PUSH1 0x20 MUL ADD PUSH1 0x20 DUP2 ADD SWAP1 PUSH2 0x9C7 SWAP2 SWAP1 PUSH2 0x17F3 JUMP JUMPDEST DUP11 DUP11 PUSH1 0x1 DUP2 DUP2 LT PUSH2 0x9DB JUMPI PUSH2 0x9DA PUSH2 0x17C4 JUMP JUMPDEST JUMPDEST SWAP1 POP PUSH1 0x20 MUL ADD PUSH1 0x20 DUP2 ADD SWAP1 PUSH2 0x9F0 SWAP2 SWAP1 PUSH2 0x17F3 JUMP JUMPDEST PUSH2 0xC8D JUMP JUMPDEST DUP4 PUSH1 0x40 MLOAD DUP4 PUSH4 0xFFFFFFFF AND PUSH1 0xE0 SHL DUP2 MSTORE PUSH1 0x4 ADD PUSH2 0xA13 SWAP3 SWAP2 SWAP1 PUSH2 0x19ED JUMP JUMPDEST PUSH1 0x20 PUSH1 0x40 MLOAD DUP1 DUP4 SUB DUP2 PUSH1 0x0 DUP8 GAS CALL ISZERO DUP1 ISZERO PUSH2 0xA32 JUMPI RETURNDATASIZE PUSH1 0x0 DUP1 RETURNDATACOPY RETURNDATASIZE PUSH1 0x0 REVERT JUMPDEST POP POP POP POP PUSH1 0x40 MLOAD RETURNDATASIZE PUSH1 0x1F NOT PUSH1 0x1F DUP3 ADD AND DUP3 ADD DUP1 PUSH1 0x40 MSTORE POP DUP2 ADD SWAP1 PUSH2 0xA56 SWAP2 SWAP1 PUSH2 0x1A4E JUMP JUMPDEST PUSH2 0xA63 JUMPI PUSH2 0xA62 PUSH2 0x1A7B JUMP JUMPDEST JUMPDEST PUSH1 0x0 DUP7 DUP7 PUSH1 0x1 DUP10 DUP10 SWAP1 POP PUSH2 0xA77 SWAP2 SWAP1 PUSH2 0x184F JUMP JUMPDEST DUP2 DUP2 LT PUSH2 0xA87 JUMPI PUSH2 0xA86 PUSH2 0x17C4 JUMP JUMPDEST JUMPDEST SWAP1 POP PUSH1 0x20 MUL ADD PUSH1 0x20 DUP2 ADD SWAP1 PUSH2 0xA9C SWAP2 SWAP1 PUSH2 0x17F3 JUMP JUMPDEST PUSH20 0xFFFFFFFFFFFFFFFFFFFFFFFFFFFFFFFFFFFFFFFF AND PUSH4 0x70A08231 DUP7 PUSH1 0x40 MLOAD DUP3 PUSH4 0xFFFFFFFF AND PUSH1 0xE0 SHL DUP2 MSTORE PUSH1 0x4 ADD PUSH2 0xAD4 SWAP2 SWAP1 PUSH2 0x16A4 JUMP JUMPDEST PUSH1 0x20 PUSH1 0x40 MLOAD DUP1 DUP4 SUB DUP2 DUP7 GAS STATICCALL ISZERO DUP1 ISZERO PUSH2 0xAF1 JUMPI RETURNDATASIZE PUSH1 0x0 DUP1 RETURNDATACOPY RETURNDATASIZE PUSH1 0x0 REVERT JUMPDEST POP POP POP POP PUSH1 0x40 MLOAD RETURNDATASIZE PUSH1 0x1F NOT PUSH1 0x1F DUP3 ADD AND DUP3 ADD DUP1 PUSH1 0x40 MSTORE POP DUP2 ADD SWAP1 PUSH2 0xB15 SWAP2 SWAP1 PUSH2 0x1898 JUMP JUMPDEST SWAP1 POP PUSH2 0xB62 DUP8 DUP8 DUP1 DUP1 PUSH1 0x20 MUL PUSH1 0x20 ADD PUSH1 0x40 MLOAD SWAP1 DUP2 ADD PUSH1 0x40 MSTORE DUP1 SWAP4 SWAP3 SWAP2 SWAP1 DUP2 DUP2 MSTORE PUSH1 0x20 ADD DUP4 DUP4 PUSH1 0x20 MUL DUP1 DUP3 DUP5 CALLDATACOPY PUSH1 0x0 DUP2 DUP5 ADD MSTORE PUSH1 0x1F NOT PUSH1 0x1F DUP3 ADD AND SWAP1 POP DUP1 DUP4 ADD SWAP3 POP POP POP POP POP POP POP DUP7 PUSH2 0xE38 JUMP JUMPDEST DUP8 DUP2 DUP9 DUP9 PUSH1 0x1 DUP12 DUP12 SWAP1 POP PUSH2 0xB76 SWAP2 SWAP1 PUSH2 0x184F JUMP JUMPDEST DUP2 DUP2 LT PUSH2 0xB86 JUMPI PUSH2 0xB85 PUSH2 0x17C4 JUMP JUMPDEST JUMPDEST SWAP1 POP PUSH1 0x20 MUL ADD PUSH1 0x20 DUP2 ADD SWAP1 PUSH2 0xB9B SWAP2 SWAP1 PUSH2 0x17F3 JUMP JUMPDEST PUSH20 0xFFFFFFFFFFFFFFFFFFFFFFFFFFFFFFFFFFFFFFFF AND PUSH4 0x70A08231 DUP9 PUSH1 0x40 MLOAD DUP3 PUSH4 0xFFFFFFFF AND PUSH1 0xE0 SHL DUP2 MSTORE PUSH1 0x4 ADD PUSH2 0xBD3 SWAP2 SWAP1 PUSH2 0x16A4 JUMP JUMPDEST PUSH1 0x20 PUSH1 0x40 MLOAD DUP1 DUP4 SUB DUP2 DUP7 GAS STATICCALL ISZERO DUP1 ISZERO PUSH2 0xBF0 JUMPI RETURNDATASIZE PUSH1 0x0 DUP1 RETURNDATACOPY RETURNDATASIZE PUSH1 0x0 REVERT JUMPDEST POP POP POP POP PUSH1 0x40 MLOAD RETURNDATASIZE PUSH1 0x1F NOT PUSH1 0x1F DUP3 ADD AND DUP3 ADD DUP1 PUSH1 0x40 MSTORE POP DUP2 ADD SWAP1 PUSH2 0xC14 SWAP2 SWAP1 PUSH2 0x1898 JUMP JUMPDEST PUSH2 0xC1E SWAP2 SWAP1 PUSH2 0x184F JUMP JUMPDEST LT ISZERO PUSH2 0xC5F JUMPI PUSH1 0x40 MLOAD PUSH32 0x8C379A000000000000000000000000000000000000000000000000000000000 DUP2 MSTORE PUSH1 0x4 ADD PUSH2 0xC56 SWAP1 PUSH2 0x1937 JUMP JUMPDEST PUSH1 0x40 MLOAD DUP1 SWAP2 SUB SWAP1 REVERT JUMPDEST POP POP POP POP POP POP POP POP JUMP JUMPDEST PUSH1 0x0 DUP1 SLOAD SWAP1 PUSH2 0x100 EXP SWAP1 DIV PUSH20 0xFFFFFFFFFFFFFFFFFFFFFFFFFFFFFFFFFFFFFFFF AND DUP2 JUMP JUMPDEST PUSH1 0x0 DUP1 PUSH1 0x0 PUSH2 0xC9C DUP6 DUP6 PUSH2 0x12E2 JUMP JUMPDEST SWAP2 POP SWAP2 POP DUP6 DUP3 DUP3 PUSH1 0x40 MLOAD PUSH1 0x20 ADD PUSH2 0xCB4 SWAP3 SWAP2 SWAP1 PUSH2 0x1AF2 JUMP JUMPDEST PUSH1 0x40 MLOAD PUSH1 0x20 DUP2 DUP4 SUB SUB DUP2 MSTORE SWAP1 PUSH1 0x40 MSTORE DUP1 MLOAD SWAP1 PUSH1 0x20 ADD KECCAK256 PUSH1 0x40 MLOAD PUSH1 0x20 ADD PUSH2 0xCDB SWAP3 SWAP2 SWAP1 PUSH2 0x1BEC JUMP JUMPDEST PUSH1 0x40 MLOAD PUSH1 0x20 DUP2 DUP4 SUB SUB DUP2 MSTORE SWAP1 PUSH1 0x40 MSTORE DUP1 MLOAD SWAP1 PUSH1 0x20 ADD KECCAK256 PUSH1 0x0 SHR SWAP3 POP POP POP SWAP4 SWAP3 POP POP POP JUMP JUMPDEST PUSH1 0x0 DUP1 DUP6 PUSH20 0xFFFFFFFFFFFFFFFFFFFFFFFFFFFFFFFFFFFFFFFF AND PUSH4 0x23B872DD DUP7 DUP7 DUP7 PUSH1 0x40 MLOAD PUSH1 0x24 ADD PUSH2 0xD33 SWAP4 SWAP3 SWAP2 SWAP1 PUSH2 0x1C2E JUMP JUMPDEST PUSH1 0x40 MLOAD PUSH1 0x20 DUP2 DUP4 SUB SUB DUP2 MSTORE SWAP1 PUSH1 0x40 MSTORE SWAP1 PUSH1 0xE0 SHL PUSH1 0x20 DUP3 ADD DUP1 MLOAD PUSH28 0xFFFFFFFFFFFFFFFFFFFFFFFFFFFFFFFFFFFFFFFFFFFFFFFFFFFFFFFF DUP4 DUP2 DUP4 AND OR DUP4 MSTORE POP POP POP POP PUSH1 0x40 MLOAD PUSH2 0xD81 SWAP2 SWAP1 PUSH2 0x1CDF JUMP JUMPDEST PUSH1 0x0 PUSH1 0x40 MLOAD DUP1 DUP4 SUB DUP2 PUSH1 0x0 DUP7 GAS CALL SWAP2 POP POP RETURNDATASIZE DUP1 PUSH1 0x0 DUP2 EQ PUSH2 0xDBE JUMPI PUSH1 0x40 MLOAD SWAP2 POP PUSH1 0x1F NOT PUSH1 0x3F RETURNDATASIZE ADD AND DUP3 ADD PUSH1 0x40 MSTORE RETURNDATASIZE DUP3 MSTORE RETURNDATASIZE PUSH1 0x0 PUSH1 0x20 DUP5 ADD RETURNDATACOPY PUSH2 0xDC3 JUMP JUMPDEST PUSH1 0x60 SWAP2 POP JUMPDEST POP SWAP2 POP SWAP2 POP DUP2 DUP1 ISZERO PUSH2 0xDF1 JUMPI POP PUSH1 0x0 DUP2 MLOAD EQ DUP1 PUSH2 0xDF0 JUMPI POP DUP1 DUP1 PUSH1 0x20 ADD SWAP1 MLOAD DUP2 ADD SWAP1 PUSH2 0xDEF SWAP2 SWAP1 PUSH2 0x1A4E JUMP JUMPDEST JUMPDEST JUMPDEST PUSH2 0xE30 JUMPI PUSH1 0x40 MLOAD PUSH32 0x8C379A000000000000000000000000000000000000000000000000000000000 DUP2 MSTORE PUSH1 0x4 ADD PUSH2 0xE27 SWAP1 PUSH2 0x1D68 JUMP JUMPDEST PUSH1 0x40 MLOAD DUP1 SWAP2 SUB SWAP1 REVERT JUMPDEST POP POP POP POP POP POP JUMP JUMPDEST PUSH1 0x0 JUMPDEST PUSH1 0x1 DUP4 MLOAD PUSH2 0xE49 SWAP2 SWAP1 PUSH2 0x184F JUMP JUMPDEST DUP2 LT ISZERO PUSH2 0x11DD JUMPI PUSH1 0x0 DUP1 DUP5 DUP4 DUP2 MLOAD DUP2 LT PUSH2 0xE66 JUMPI PUSH2 0xE65 PUSH2 0x17C4 JUMP JUMPDEST JUMPDEST PUSH1 0x20 MUL PUSH1 0x20 ADD ADD MLOAD DUP6 PUSH1 0x1 DUP6 PUSH2 0xE7C SWAP2 SWAP1 PUSH2 0x1D88 JUMP JUMPDEST DUP2 MLOAD DUP2 LT PUSH2 0xE8D JUMPI PUSH2 0xE8C PUSH2 0x17C4 JUMP JUMPDEST JUMPDEST PUSH1 0x20 MUL PUSH1 0x20 ADD ADD MLOAD SWAP2 POP SWAP2 POP PUSH1 0x0 PUSH2 0xEA5 DUP4 DUP4 PUSH2 0x12E2 JUMP JUMPDEST POP SWAP1 POP PUSH1 0x0 PUSH2 0xED5 PUSH1 0x0 DUP1 SLOAD SWAP1 PUSH2 0x100 EXP SWAP1 DIV PUSH20 0xFFFFFFFFFFFFFFFFFFFFFFFFFFFFFFFFFFFFFFFF AND DUP6 DUP6 PUSH2 0xC8D JUMP JUMPDEST SWAP1 POP PUSH1 0x0 DUP1 PUSH1 0x0 DUP1 DUP5 PUSH20 0xFFFFFFFFFFFFFFFFFFFFFFFFFFFFFFFFFFFFFFFF AND PUSH4 0x902F1AC PUSH1 0x40 MLOAD DUP2 PUSH4 0xFFFFFFFF AND PUSH1 0xE0 SHL DUP2 MSTORE PUSH1 0x4 ADD PUSH1 0x60 PUSH1 0x40 MLOAD DUP1 DUP4 SUB DUP2 DUP7 GAS STATICCALL ISZERO DUP1 ISZERO PUSH2 0xF28 JUMPI RETURNDATASIZE PUSH1 0x0 DUP1 RETURNDATACOPY RETURNDATASIZE PUSH1 0x0 REVERT JUMPDEST POP POP POP POP PUSH1 0x40 MLOAD RETURNDATASIZE PUSH1 0x1F NOT PUSH1 0x1F DUP3 ADD AND DUP3 ADD DUP1 PUSH1 0x40 MSTORE POP DUP2 ADD SWAP1 PUSH2 0xF4C SWAP2 SWAP1 PUSH2 0x1E60 JUMP JUMPDEST POP PUSH14 0xFFFFFFFFFFFFFFFFFFFFFFFFFFFF AND SWAP2 POP PUSH14 0xFFFFFFFFFFFFFFFFFFFFFFFFFFFF AND SWAP2 POP PUSH1 0x0 DUP1 DUP8 PUSH20 0xFFFFFFFFFFFFFFFFFFFFFFFFFFFFFFFFFFFFFFFF AND DUP11 PUSH20 0xFFFFFFFFFFFFFFFFFFFFFFFFFFFFFFFFFFFFFFFF AND EQ PUSH2 0xFAE JUMPI DUP3 DUP5 PUSH2 0xFB1 JUMP JUMPDEST DUP4 DUP4 JUMPDEST SWAP2 POP SWAP2 POP DUP2 DUP11 PUSH20 0xFFFFFFFFFFFFFFFFFFFFFFFFFFFFFFFFFFFFFFFF AND PUSH4 0x70A08231 DUP10 PUSH1 0x40 MLOAD DUP3 PUSH4 0xFFFFFFFF AND PUSH1 0xE0 SHL DUP2 MSTORE PUSH1 0x4 ADD PUSH2 0xFEF SWAP2 SWAP1 PUSH2 0x16A4 JUMP JUMPDEST PUSH1 0x20 PUSH1 0x40 MLOAD DUP1 DUP4 SUB DUP2 DUP7 GAS STATICCALL ISZERO DUP1 ISZERO PUSH2 0x100C JUMPI RETURNDATASIZE PUSH1 0x0 DUP1 RETURNDATACOPY RETURNDATASIZE PUSH1 0x0 REVERT JUMPDEST POP POP POP POP PUSH1 0x40 MLOAD RETURNDATASIZE PUSH1 0x1F NOT PUSH1 0x1F DUP3 ADD AND DUP3 ADD DUP1 PUSH1 0x40 MSTORE POP DUP2 ADD SWAP1 PUSH2 0x1030 SWAP2 SWAP1 PUSH2 0x1898 JUMP JUMPDEST PUSH2 0x103A SWAP2 SWAP1 PUSH2 0x184F JUMP JUMPDEST SWAP6 POP PUSH2 0x1047 DUP7 DUP4 DUP4 PUSH2 0x140E JUMP JUMPDEST SWAP5 POP POP POP POP POP PUSH1 0x0 DUP1 DUP6 PUSH20 0xFFFFFFFFFFFFFFFFFFFFFFFFFFFFFFFFFFFFFFFF AND DUP9 PUSH20 0xFFFFFFFFFFFFFFFFFFFFFFFFFFFFFFFFFFFFFFFF AND EQ PUSH2 0x108B JUMPI DUP3 PUSH1 0x0 PUSH2 0x108F JUMP JUMPDEST PUSH1 0x0 DUP4 JUMPDEST SWAP2 POP SWAP2 POP PUSH1 0x0 PUSH1 0x2 DUP13 MLOAD PUSH2 0x10A3 SWAP2 SWAP1 PUSH2 0x184F JUMP JUMPDEST DUP11 LT PUSH2 0x10AF JUMPI DUP11 PUSH2 0x1101 JUMP JUMPDEST PUSH2 0x1100 PUSH1 0x0 DUP1 SLOAD SWAP1 PUSH2 0x100 EXP SWAP1 DIV PUSH20 0xFFFFFFFFFFFFFFFFFFFFFFFFFFFFFFFFFFFFFFFF AND DUP10 DUP15 PUSH1 0x2 DUP15 PUSH2 0x10E2 SWAP2 SWAP1 PUSH2 0x1D88 JUMP JUMPDEST DUP2 MLOAD DUP2 LT PUSH2 0x10F3 JUMPI PUSH2 0x10F2 PUSH2 0x17C4 JUMP JUMPDEST JUMPDEST PUSH1 0x20 MUL PUSH1 0x20 ADD ADD MLOAD PUSH2 0xC8D JUMP JUMPDEST JUMPDEST SWAP1 POP DUP6 PUSH20 0xFFFFFFFFFFFFFFFFFFFFFFFFFFFFFFFFFFFFFFFF AND PUSH4 0x22C0D9F DUP5 DUP5 DUP5 PUSH1 0x0 PUSH8 0xFFFFFFFFFFFFFFFF DUP2 GT ISZERO PUSH2 0x113D JUMPI PUSH2 0x113C PUSH2 0x1EB3 JUMP JUMPDEST JUMPDEST PUSH1 0x40 MLOAD SWAP1 DUP1 DUP3 MSTORE DUP1 PUSH1 0x1F ADD PUSH1 0x1F NOT AND PUSH1 0x20 ADD DUP3 ADD PUSH1 0x40 MSTORE DUP1 ISZERO PUSH2 0x116F JUMPI DUP2 PUSH1 0x20 ADD PUSH1 0x1 DUP3 MUL DUP1 CALLDATASIZE DUP4 CALLDATACOPY DUP1 DUP3 ADD SWAP2 POP POP SWAP1 POP JUMPDEST POP PUSH1 0x40 MLOAD DUP6 PUSH4 0xFFFFFFFF AND PUSH1 0xE0 SHL DUP2 MSTORE PUSH1 0x4 ADD PUSH2 0x118F SWAP5 SWAP4 SWAP3 SWAP2 SWAP1 PUSH2 0x1F3D JUMP JUMPDEST PUSH1 0x0 PUSH1 0x40 MLOAD DUP1 DUP4 SUB DUP2 PUSH1 0x0 DUP8 DUP1 EXTCODESIZE ISZERO DUP1 ISZERO PUSH2 0x11A9 JUMPI PUSH1 0x0 DUP1 REVERT JUMPDEST POP GAS CALL ISZERO DUP1 ISZERO PUSH2 0x11BD JUMPI RETURNDATASIZE PUSH1 0x0 DUP1 RETURNDATACOPY RETURNDATASIZE PUSH1 0x0 REVERT JUMPDEST POP POP POP POP POP POP POP POP POP POP POP POP POP DUP1 DUP1 PUSH2 0x11D5 SWAP1 PUSH2 0x1F89 JUMP JUMPDEST SWAP2 POP POP PUSH2 0xE3B JUMP JUMPDEST POP POP POP JUMP JUMPDEST PUSH1 0x0 DUP3 PUSH20 0xFFFFFFFFFFFFFFFFFFFFFFFFFFFFFFFFFFFFFFFF AND DUP3 PUSH1 0x0 PUSH8 0xFFFFFFFFFFFFFFFF DUP2 GT ISZERO PUSH2 0x1217 JUMPI PUSH2 0x1216 PUSH2 0x1EB3 JUMP JUMPDEST JUMPDEST PUSH1 0x40 MLOAD SWAP1 DUP1 DUP3 MSTORE DUP1 PUSH1 0x1F ADD PUSH1 0x1F NOT AND PUSH1 0x20 ADD DUP3 ADD PUSH1 0x40 MSTORE DUP1 ISZERO PUSH2 0x1249 JUMPI DUP2 PUSH1 0x20 ADD PUSH1 0x1 DUP3 MUL DUP1 CALLDATASIZE DUP4 CALLDATACOPY DUP1 DUP3 ADD SWAP2 POP POP SWAP1 POP JUMPDEST POP PUSH1 0x40 MLOAD PUSH2 0x1257 SWAP2 SWAP1 PUSH2 0x1CDF JUMP JUMPDEST PUSH1 0x0 PUSH1 0x40 MLOAD DUP1 DUP4 SUB DUP2 DUP6 DUP8 GAS CALL SWAP3 POP POP POP RETURNDATASIZE DUP1 PUSH1 0x0 DUP2 EQ PUSH2 0x1294 JUMPI PUSH1 0x40 MLOAD SWAP2 POP PUSH1 0x1F NOT PUSH1 0x3F RETURNDATASIZE ADD AND DUP3 ADD PUSH1 0x40 MSTORE RETURNDATASIZE DUP3 MSTORE RETURNDATASIZE PUSH1 0x0 PUSH1 0x20 DUP5 ADD RETURNDATACOPY PUSH2 0x1299 JUMP JUMPDEST PUSH1 0x60 SWAP2 POP JUMPDEST POP POP SWAP1 POP DUP1 PUSH2 0x12DD JUMPI PUSH1 0x40 MLOAD PUSH32 0x8C379A000000000000000000000000000000000000000000000000000000000 DUP2 MSTORE PUSH1 0x4 ADD PUSH2 0x12D4 SWAP1 PUSH2 0x2043 JUMP JUMPDEST PUSH1 0x40 MLOAD DUP1 SWAP2 SUB SWAP1 REVERT JUMPDEST POP POP POP JUMP JUMPDEST PUSH1 0x0 DUP1 DUP3 PUSH20 0xFFFFFFFFFFFFFFFFFFFFFFFFFFFFFFFFFFFFFFFF AND DUP5 PUSH20 0xFFFFFFFFFFFFFFFFFFFFFFFFFFFFFFFFFFFFFFFF AND SUB PUSH2 0x1353 JUMPI PUSH1 0x40 MLOAD PUSH32 0x8C379A000000000000000000000000000000000000000000000000000000000 DUP2 MSTORE PUSH1 0x4 ADD PUSH2 0x134A SWAP1 PUSH2 0x20D5 JUMP JUMPDEST PUSH1 0x40 MLOAD DUP1 SWAP2 SUB SWAP1 REVERT JUMPDEST DUP3 PUSH20 0xFFFFFFFFFFFFFFFFFFFFFFFFFFFFFFFFFFFFFFFF AND DUP5 PUSH20 0xFFFFFFFFFFFFFFFFFFFFFFFFFFFFFFFFFFFFFFFF AND LT PUSH2 0x138D JUMPI DUP3 DUP5 PUSH2 0x1390 JUMP JUMPDEST DUP4 DUP4 JUMPDEST DUP1 SWAP3 POP DUP2 SWAP4 POP POP POP PUSH1 0x0 PUSH20 0xFFFFFFFFFFFFFFFFFFFFFFFFFFFFFFFFFFFFFFFF AND DUP3 PUSH20 0xFFFFFFFFFFFFFFFFFFFFFFFFFFFFFFFFFFFFFFFF AND SUB PUSH2 0x1407 JUMPI PUSH1 0x40 MLOAD PUSH32 0x8C379A000000000000000000000000000000000000000000000000000000000 DUP2 MSTORE PUSH1 0x4 ADD PUSH2 0x13FE SWAP1 PUSH2 0x2141 JUMP JUMPDEST PUSH1 0x40 MLOAD DUP1 SWAP2 SUB SWAP1 REVERT JUMPDEST SWAP3 POP SWAP3 SWAP1 POP JUMP JUMPDEST PUSH1 0x0 DUP1 DUP5 GT PUSH2 0x1452 JUMPI PUSH1 0x40 MLOAD PUSH32 0x8C379A000000000000000000000000000000000000000000000000000000000 DUP2 MSTORE PUSH1 0x4 ADD PUSH2 0x1449 SWAP1 PUSH2 0x21D3 JUMP JUMPDEST PUSH1 0x40 MLOAD DUP1 SWAP2 SUB SWAP1 REVERT JUMPDEST PUSH1 0x0 DUP4 GT DUP1 ISZERO PUSH2 0x1462 JUMPI POP PUSH1 0x0 DUP3 GT JUMPDEST PUSH2 0x14A1 JUMPI PUSH1 0x40 MLOAD PUSH32 0x8C379A000000000000000000000000000000000000000000000000000000000 DUP2 MSTORE PUSH1 0x4 ADD PUSH2 0x1498 SWAP1 PUSH2 0x2265 JUMP JUMPDEST PUSH1 0x40 MLOAD DUP1 SWAP2 SUB SWAP1 REVERT JUMPDEST PUSH1 0x0 PUSH2 0x3E5 DUP6 PUSH2 0x14B1 SWAP2 SWAP1 PUSH2 0x2285 JUMP JUMPDEST SWAP1 POP PUSH1 0x0 DUP4 DUP3 PUSH2 0x14C1 SWAP2 SWAP1 PUSH2 0x2285 JUMP JUMPDEST SWAP1 POP PUSH1 0x0 DUP3 PUSH2 0x3E8 DUP8 PUSH2 0x14D4 SWAP2 SWAP1 PUSH2 0x2285 JUMP JUMPDEST PUSH2 0x14DE SWAP2 SWAP1 PUSH2 0x1D88 JUMP JUMPDEST SWAP1 POP DUP1 DUP3 PUSH2 0x14EC SWAP2 SWAP1 PUSH2 0x230E JUMP JUMPDEST SWAP4 POP POP POP POP SWAP4 SWAP3 POP POP POP JUMP JUMPDEST PUSH1 0x0 DUP1 REVERT JUMPDEST PUSH1 0x0 DUP1 REVERT JUMPDEST PUSH1 0x0 DUP2 SWAP1 POP SWAP2 SWAP1 POP JUMP JUMPDEST PUSH2 0x1515 DUP2 PUSH2 0x1502 JUMP JUMPDEST DUP2 EQ PUSH2 0x1520 JUMPI PUSH1 0x0 DUP1 REVERT JUMPDEST POP JUMP JUMPDEST PUSH1 0x0 DUP2 CALLDATALOAD SWAP1 POP PUSH2 0x1532 DUP2 PUSH2 0x150C JUMP JUMPDEST SWAP3 SWAP2 POP POP JUMP JUMPDEST PUSH1 0x0 DUP1 REVERT JUMPDEST PUSH1 0x0 DUP1 REVERT JUMPDEST PUSH1 0x0 DUP1 REVERT JUMPDEST PUSH1 0x0 DUP1 DUP4 PUSH1 0x1F DUP5 ADD SLT PUSH2 0x155D JUMPI PUSH2 0x155C PUSH2 0x1538 JUMP JUMPDEST JUMPDEST DUP3 CALLDATALOAD SWAP1 POP PUSH8 0xFFFFFFFFFFFFFFFF DUP2 GT ISZERO PUSH2 0x157A JUMPI PUSH2 0x1579 PUSH2 0x153D JUMP JUMPDEST JUMPDEST PUSH1 0x20 DUP4 ADD SWAP2 POP DUP4 PUSH1 0x20 DUP3 MUL DUP4 ADD GT ISZERO PUSH2 0x1596 JUMPI PUSH2 0x1595 PUSH2 0x1542 JUMP JUMPDEST JUMPDEST SWAP3 POP SWAP3 SWAP1 POP JUMP JUMPDEST PUSH1 0x0 PUSH20 0xFFFFFFFFFFFFFFFFFFFFFFFFFFFFFFFFFFFFFFFF DUP3 AND SWAP1 POP SWAP2 SWAP1 POP JUMP JUMPDEST PUSH1 0x0 PUSH2 0x15C8 DUP3 PUSH2 0x159D JUMP JUMPDEST SWAP1 POP SWAP2 SWAP1 POP JUMP JUMPDEST PUSH2 0x15D8 DUP2 PUSH2 0x15BD JUMP JUMPDEST DUP2 EQ PUSH2 0x15E3 JUMPI PUSH1 0x0 DUP1 REVERT JUMPDEST POP JUMP JUMPDEST PUSH1 0x0 DUP2 CALLDATALOAD SWAP1 POP PUSH2 0x15F5 DUP2 PUSH2 0x15CF JUMP JUMPDEST SWAP3 SWAP2 POP POP JUMP JUMPDEST PUSH1 0x0 DUP1 PUSH1 0x0 DUP1 PUSH1 0x0 DUP1 PUSH1 0xA0 DUP8 DUP10 SUB SLT ISZERO PUSH2 0x1618 JUMPI PUSH2 0x1617 PUSH2 0x14F8 JUMP JUMPDEST JUMPDEST PUSH1 0x0 PUSH2 0x1626 DUP10 DUP3 DUP11 ADD PUSH2 0x1523 JUMP JUMPDEST SWAP7 POP POP PUSH1 0x20 PUSH2 0x1637 DUP10 DUP3 DUP11 ADD PUSH2 0x1523 JUMP JUMPDEST SWAP6 POP POP PUSH1 0x40 DUP8 ADD CALLDATALOAD PUSH8 0xFFFFFFFFFFFFFFFF DUP2 GT ISZERO PUSH2 0x1658 JUMPI PUSH2 0x1657 PUSH2 0x14FD JUMP JUMPDEST JUMPDEST PUSH2 0x1664 DUP10 DUP3 DUP11 ADD PUSH2 0x1547 JUMP JUMPDEST SWAP5 POP SWAP5 POP POP PUSH1 0x60 PUSH2 0x1677 DUP10 DUP3 DUP11 ADD PUSH2 0x15E6 JUMP JUMPDEST SWAP3 POP POP PUSH1 0x80 PUSH2 0x1688 DUP10 DUP3 DUP11 ADD PUSH2 0x1523 JUMP JUMPDEST SWAP2 POP POP SWAP3 SWAP6 POP SWAP3 SWAP6 POP SWAP3 SWAP6 JUMP JUMPDEST PUSH2 0x169E DUP2 PUSH2 0x15BD JUMP JUMPDEST DUP3 MSTORE POP POP JUMP JUMPDEST PUSH1 0x0 PUSH1 0x20 DUP3 ADD SWAP1 POP PUSH2 0x16B9 PUSH1 0x0 DUP4 ADD DUP5 PUSH2 0x1695 JUMP JUMPDEST SWAP3 SWAP2 POP POP JUMP JUMPDEST PUSH1 0x0 DUP1 PUSH1 0x0 DUP1 PUSH1 0x0 PUSH1 0x80 DUP7 DUP9 SUB SLT ISZERO PUSH2 0x16DB JUMPI PUSH2 0x16DA PUSH2 0x14F8 JUMP JUMPDEST JUMPDEST PUSH1 0x0 PUSH2 0x16E9 DUP9 DUP3 DUP10 ADD PUSH2 0x1523 JUMP JUMPDEST SWAP6 POP POP PUSH1 0x20 DUP7 ADD CALLDATALOAD PUSH8 0xFFFFFFFFFFFFFFFF DUP2 GT ISZERO PUSH2 0x170A JUMPI PUSH2 0x1709 PUSH2 0x14FD JUMP JUMPDEST JUMPDEST PUSH2 0x1716 DUP9 DUP3 DUP10 ADD PUSH2 0x1547 JUMP JUMPDEST SWAP5 POP SWAP5 POP POP PUSH1 0x40 PUSH2 0x1729 DUP9 DUP3 DUP10 ADD PUSH2 0x15E6 JUMP JUMPDEST SWAP3 POP POP PUSH1 0x60 PUSH2 0x173A DUP9 DUP3 DUP10 ADD PUSH2 0x1523 JUMP JUMPDEST SWAP2 POP POP SWAP3 SWAP6 POP SWAP3 SWAP6 SWAP1 SWAP4 POP JUMP JUMPDEST PUSH1 0x0 DUP3 DUP3 MSTORE PUSH1 0x20 DUP3 ADD SWAP1 POP SWAP3 SWAP2 POP POP JUMP JUMPDEST PUSH32 0x556E69737761705632526F757465723A20455850495245440000000000000000 PUSH1 0x0 DUP3 ADD MSTORE POP JUMP JUMPDEST PUSH1 0x0 PUSH2 0x178E PUSH1 0x18 DUP4 PUSH2 0x1747 JUMP JUMPDEST SWAP2 POP PUSH2 0x1799 DUP3 PUSH2 0x1758 JUMP JUMPDEST PUSH1 0x20 DUP3 ADD SWAP1 POP SWAP2 SWAP1 POP JUMP JUMPDEST PUSH1 0x0 PUSH1 0x20 DUP3 ADD SWAP1 POP DUP2 DUP2 SUB PUSH1 0x0 DUP4 ADD MSTORE PUSH2 0x17BD DUP2 PUSH2 0x1781 JUMP JUMPDEST SWAP1 POP SWAP2 SWAP1 POP JUMP JUMPDEST PUSH32 0x4E487B7100000000000000000000000000000000000000000000000000000000 PUSH1 0x0 MSTORE PUSH1 0x32 PUSH1 0x4 MSTORE PUSH1 0x24 PUSH1 0x0 REVERT JUMPDEST PUSH1 0x0 PUSH1 0x20 DUP3 DUP5 SUB SLT ISZERO PUSH2 0x1809 JUMPI PUSH2 0x1808 PUSH2 0x14F8 JUMP JUMPDEST JUMPDEST PUSH1 0x0 PUSH2 0x1817 DUP5 DUP3 DUP6 ADD PUSH2 0x15E6 JUMP JUMPDEST SWAP2 POP POP SWAP3 SWAP2 POP POP JUMP JUMPDEST PUSH32 0x4E487B7100000000000000000000000000000000000000000000000000000000 PUSH1 0x0 MSTORE PUSH1 0x11 PUSH1 0x4 MSTORE PUSH1 0x24 PUSH1 0x0 REVERT JUMPDEST PUSH1 0x0 PUSH2 0x185A DUP3 PUSH2 0x1502 JUMP JUMPDEST SWAP2 POP PUSH2 0x1865 DUP4 PUSH2 0x1502 JUMP JUMPDEST SWAP3 POP DUP3 DUP3 LT ISZERO PUSH2 0x1878 JUMPI PUSH2 0x1877 PUSH2 0x1820 JUMP JUMPDEST JUMPDEST DUP3 DUP3 SUB SWAP1 POP SWAP3 SWAP2 POP POP JUMP JUMPDEST PUSH1 0x0 DUP2 MLOAD SWAP1 POP PUSH2 0x1892 DUP2 PUSH2 0x150C JUMP JUMPDEST SWAP3 SWAP2 POP POP JUMP JUMPDEST PUSH1 0x0 PUSH1 0x20 DUP3 DUP5 SUB SLT ISZERO PUSH2 0x18AE JUMPI PUSH2 0x18AD PUSH2 0x14F8 JUMP JUMPDEST JUMPDEST PUSH1 0x0 PUSH2 0x18BC DUP5 DUP3 DUP6 ADD PUSH2 0x1883 JUMP JUMPDEST SWAP2 POP POP SWAP3 SWAP2 POP POP JUMP JUMPDEST PUSH32 0x556E69737761705632526F757465723A20494E53554646494349454E545F4F55 PUSH1 0x0 DUP3 ADD MSTORE PUSH32 0x545055545F414D4F554E54000000000000000000000000000000000000000000 PUSH1 0x20 DUP3 ADD MSTORE POP JUMP JUMPDEST PUSH1 0x0 PUSH2 0x1921 PUSH1 0x2B DUP4 PUSH2 0x1747 JUMP JUMPDEST SWAP2 POP PUSH2 0x192C DUP3 PUSH2 0x18C5 JUMP JUMPDEST PUSH1 0x40 DUP3 ADD SWAP1 POP SWAP2 SWAP1 POP JUMP JUMPDEST PUSH1 0x0 PUSH1 0x20 DUP3 ADD SWAP1 POP DUP2 DUP2 SUB PUSH1 0x0 DUP4 ADD MSTORE PUSH2 0x1950 DUP2 PUSH2 0x1914 JUMP JUMPDEST SWAP1 POP SWAP2 SWAP1 POP JUMP JUMPDEST PUSH32 0x556E69737761705632526F757465723A20494E56414C49445F50415448000000 PUSH1 0x0 DUP3 ADD MSTORE POP JUMP JUMPDEST PUSH1 0x0 PUSH2 0x198D PUSH1 0x1D DUP4 PUSH2 0x1747 JUMP JUMPDEST SWAP2 POP PUSH2 0x1998 DUP3 PUSH2 0x1957 JUMP JUMPDEST PUSH1 0x20 DUP3 ADD SWAP1 POP SWAP2 SWAP1 POP JUMP JUMPDEST PUSH1 0x0 PUSH1 0x20 DUP3 ADD SWAP1 POP DUP2 DUP2 SUB PUSH1 0x0 DUP4 ADD MSTORE PUSH2 0x19BC DUP2 PUSH2 0x1980 JUMP JUMPDEST SWAP1 POP SWAP2 SWAP1 POP JUMP JUMPDEST PUSH2 0x19CC DUP2 PUSH2 0x1502 JUMP JUMPDEST DUP3 MSTORE POP POP JUMP JUMPDEST PUSH1 0x0 PUSH1 0x20 DUP3 ADD SWAP1 POP PUSH2 0x19E7 PUSH1 0x0 DUP4 ADD DUP5 PUSH2 0x19C3 JUMP JUMPDEST SWAP3 SWAP2 POP POP JUMP JUMPDEST PUSH1 0x0 PUSH1 0x40 DUP3 ADD SWAP1 POP PUSH2 0x1A02 PUSH1 0x0 DUP4 ADD DUP6 PUSH2 0x1695 JUMP JUMPDEST PUSH2 0x1A0F PUSH1 0x20 DUP4 ADD DUP5 PUSH2 0x19C3 JUMP JUMPDEST SWAP4 SWAP3 POP POP POP JUMP JUMPDEST PUSH1 0x0 DUP2 ISZERO ISZERO SWAP1 POP SWAP2 SWAP1 POP JUMP JUMPDEST PUSH2 0x1A2B DUP2 PUSH2 0x1A16 JUMP JUMPDEST DUP2 EQ PUSH2 0x1A36 JUMPI PUSH1 0x0 DUP1 REVERT JUMPDEST POP JUMP JUMPDEST PUSH1 0x0 DUP2 MLOAD SWAP1 POP PUSH2 0x1A48 DUP2 PUSH2 0x1A22 JUMP JUMPDEST SWAP3 SWAP2 POP POP JUMP JUMPDEST PUSH1 0x0 PUSH1 0x20 DUP3 DUP5 SUB SLT ISZERO PUSH2 0x1A64 JUMPI PUSH2 0x1A63 PUSH2 0x14F8 JUMP JUMPDEST JUMPDEST PUSH1 0x0 PUSH2 0x1A72 DUP5 DUP3 DUP6 ADD PUSH2 0x1A39 JUMP JUMPDEST SWAP2 POP POP SWAP3 SWAP2 POP POP JUMP JUMPDEST PUSH32 0x4E487B7100000000000000000000000000000000000000000000000000000000 PUSH1 0x0 MSTORE PUSH1 0x1 PUSH1 0x4 MSTORE PUSH1 0x24 PUSH1 0x0 REVERT JUMPDEST PUSH1 0x0 DUP2 PUSH1 0x60 SHL SWAP1 POP SWAP2 SWAP1 POP JUMP JUMPDEST PUSH1 0x0 PUSH2 0x1AC2 DUP3 PUSH2 0x1AAA JUMP JUMPDEST SWAP1 POP SWAP2 SWAP1 POP JUMP JUMPDEST PUSH1 0x0 PUSH2 0x1AD4 DUP3 PUSH2 0x1AB7 JUMP JUMPDEST SWAP1 POP SWAP2 SWAP1 POP JUMP JUMPDEST PUSH2 0x1AEC PUSH2 0x1AE7 DUP3 PUSH2 0x15BD JUMP JUMPDEST PUSH2 0x1AC9 JUMP JUMPDEST DUP3 MSTORE POP POP JUMP JUMPDEST PUSH1 0x0 PUSH2 0x1AFE DUP3 DUP6 PUSH2 0x1ADB JUMP JUMPDEST PUSH1 0x14 DUP3 ADD SWAP2 POP PUSH2 0x1B0E DUP3 DUP5 PUSH2 0x1ADB JUMP JUMPDEST PUSH1 0x14 DUP3 ADD SWAP2 POP DUP2 SWAP1 POP SWAP4 SWAP3 POP POP POP JUMP JUMPDEST PUSH1 0x0 DUP2 SWAP1 POP SWAP3 SWAP2 POP POP JUMP JUMPDEST PUSH32 0xFF00000000000000000000000000000000000000000000000000000000000000 PUSH1 0x0 DUP3 ADD MSTORE POP JUMP JUMPDEST PUSH1 0x0 PUSH2 0x1B5F PUSH1 0x1 DUP4 PUSH2 0x1B1E JUMP JUMPDEST SWAP2 POP PUSH2 0x1B6A DUP3 PUSH2 0x1B29 JUMP JUMPDEST PUSH1 0x1 DUP3 ADD SWAP1 POP SWAP2 SWAP1 POP JUMP JUMPDEST PUSH1 0x0 DUP2 SWAP1 POP SWAP2 SWAP1 POP JUMP JUMPDEST PUSH1 0x0 DUP2 SWAP1 POP SWAP2 SWAP1 POP JUMP JUMPDEST PUSH2 0x1B9A PUSH2 0x1B95 DUP3 PUSH2 0x1B75 JUMP JUMPDEST PUSH2 0x1B7F JUMP JUMPDEST DUP3 MSTORE POP POP JUMP JUMPDEST PUSH32 0x96E8AC4277198FF8B6F785478AA9A39F403CB768DD02CBEE326C3E7DA348845F PUSH1 0x0 DUP3 ADD MSTORE POP JUMP JUMPDEST PUSH1 0x0 PUSH2 0x1BD6 PUSH1 0x20 DUP4 PUSH2 0x1B1E JUMP JUMPDEST SWAP2 POP PUSH2 0x1BE1 DUP3 PUSH2 0x1BA0 JUMP JUMPDEST PUSH1 0x20 DUP3 ADD SWAP1 POP SWAP2 SWAP1 POP JUMP JUMPDEST PUSH1 0x0 PUSH2 0x1BF7 DUP3 PUSH2 0x1B52 JUMP JUMPDEST SWAP2 POP PUSH2 0x1C03 DUP3 DUP6 PUSH2 0x1ADB JUMP JUMPDEST PUSH1 0x14 DUP3 ADD SWAP2 POP PUSH2 0x1C13 DUP3 DUP5 PUSH2 0x1B89 JUMP JUMPDEST PUSH1 0x20 DUP3 ADD SWAP2 POP PUSH2 0x1C22 DUP3 PUSH2 0x1BC9 JUMP JUMPDEST SWAP2 POP DUP2 SWAP1 POP SWAP4 SWAP3 POP POP POP JUMP JUMPDEST PUSH1 0x0 PUSH1 0x60 DUP3 ADD SWAP1 POP PUSH2 0x1C43 PUSH1 0x0 DUP4 ADD DUP7 PUSH2 0x1695 JUMP JUMPDEST PUSH2 0x1C50 PUSH1 0x20 DUP4 ADD DUP6 PUSH2 0x1695 JUMP JUMPDEST PUSH2 0x1C5D PUSH1 0x40 DUP4 ADD DUP5 PUSH2 0x19C3 JUMP JUMPDEST SWAP5 SWAP4 POP POP POP POP JUMP JUMPDEST PUSH1 0x0 DUP2 MLOAD SWAP1 POP SWAP2 SWAP1 POP JUMP JUMPDEST PUSH1 0x0 DUP2 SWAP1 POP SWAP3 SWAP2 POP POP JUMP JUMPDEST PUSH1 0x0 JUMPDEST DUP4 DUP2 LT ISZERO PUSH2 0x1C99 JUMPI DUP1 DUP3 ADD MLOAD DUP2 DUP5 ADD MSTORE PUSH1 0x20 DUP2 ADD SWAP1 POP PUSH2 0x1C7E JUMP JUMPDEST DUP4 DUP2 GT ISZERO PUSH2 0x1CA8 JUMPI PUSH1 0x0 DUP5 DUP5 ADD MSTORE JUMPDEST POP POP POP POP JUMP JUMPDEST PUSH1 0x0 PUSH2 0x1CB9 DUP3 PUSH2 0x1C65 JUMP JUMPDEST PUSH2 0x1CC3 DUP2 DUP6 PUSH2 0x1C70 JUMP JUMPDEST SWAP4 POP PUSH2 0x1CD3 DUP2 DUP6 PUSH1 0x20 DUP7 ADD PUSH2 0x1C7B JUMP JUMPDEST DUP1 DUP5 ADD SWAP2 POP POP SWAP3 SWAP2 POP POP JUMP JUMPDEST PUSH1 0x0 PUSH2 0x1CEB DUP3 DUP5 PUSH2 0x1CAE JUMP JUMPDEST SWAP2 POP DUP2 SWAP1 POP SWAP3 SWAP2 POP POP JUMP JUMPDEST PUSH32 0x5472616E7366657248656C7065723A3A7472616E7366657246726F6D3A207472 PUSH1 0x0 DUP3 ADD MSTORE PUSH32 0x616E7366657246726F6D206661696C6564000000000000000000000000000000 PUSH1 0x20 DUP3 ADD MSTORE POP JUMP JUMPDEST PUSH1 0x0 PUSH2 0x1D52 PUSH1 0x31 DUP4 PUSH2 0x1747 JUMP JUMPDEST SWAP2 POP PUSH2 0x1D5D DUP3 PUSH2 0x1CF6 JUMP JUMPDEST PUSH1 0x40 DUP3 ADD SWAP1 POP SWAP2 SWAP1 POP JUMP JUMPDEST PUSH1 0x0 PUSH1 0x20 DUP3 ADD SWAP1 POP DUP2 DUP2 SUB PUSH1 0x0 DUP4 ADD MSTORE PUSH2 0x1D81 DUP2 PUSH2 0x1D45 JUMP JUMPDEST SWAP1 POP SWAP2 SWAP1 POP JUMP JUMPDEST PUSH1 0x0 PUSH2 0x1D93 DUP3 PUSH2 0x1502 JUMP JUMPDEST SWAP2 POP PUSH2 0x1D9E DUP4 PUSH2 0x1502 JUMP JUMPDEST SWAP3 POP DUP3 PUSH32 0xFFFFFFFFFFFFFFFFFFFFFFFFFFFFFFFFFFFFFFFFFFFFFFFFFFFFFFFFFFFFFFFF SUB DUP3 GT ISZERO PUSH2 0x1DD3 JUMPI PUSH2 0x1DD2 PUSH2 0x1820 JUMP JUMPDEST JUMPDEST DUP3 DUP3 ADD SWAP1 POP SWAP3 SWAP2 POP POP JUMP JUMPDEST PUSH1 0x0 PUSH14 0xFFFFFFFFFFFFFFFFFFFFFFFFFFFF DUP3 AND SWAP1 POP SWAP2 SWAP1 POP JUMP JUMPDEST PUSH2 0x1E01 DUP2 PUSH2 0x1DDE JUMP JUMPDEST DUP2 EQ PUSH2 0x1E0C JUMPI PUSH1 0x0 DUP1 REVERT JUMPDEST POP JUMP JUMPDEST PUSH1 0x0 DUP2 MLOAD SWAP1 POP PUSH2 0x1E1E DUP2 PUSH2 0x1DF8 JUMP JUMPDEST SWAP3 SWAP2 POP POP JUMP JUMPDEST PUSH1 0x0 PUSH4 0xFFFFFFFF DUP3 AND SWAP1 POP SWAP2 SWAP1 POP JUMP JUMPDEST PUSH2 0x1E3D DUP2 PUSH2 0x1E24 JUMP JUMPDEST DUP2 EQ PUSH2 0x1E48 JUMPI PUSH1 0x0 DUP1 REVERT JUMPDEST POP JUMP JUMPDEST PUSH1 0x0 DUP2 MLOAD SWAP1 POP PUSH2 0x1E5A DUP2 PUSH2 0x1E34 JUMP JUMPDEST SWAP3 SWAP2 POP POP JUMP JUMPDEST PUSH1 0x0 DUP1 PUSH1 0x0 PUSH1 0x60 DUP5 DUP7 SUB SLT ISZERO PUSH2 0x1E79 JUMPI PUSH2 0x1E78 PUSH2 0x14F8 JUMP JUMPDEST JUMPDEST PUSH1 0x0 PUSH2 0x1E87 DUP7 DUP3 DUP8 ADD PUSH2 0x1E0F JUMP JUMPDEST SWAP4 POP POP PUSH1 0x20 PUSH2 0x1E98 DUP7 DUP3 DUP8 ADD PUSH2 0x1E0F JUMP JUMPDEST SWAP3 POP POP PUSH1 0x40 PUSH2 0x1EA9 DUP7 DUP3 DUP8 ADD PUSH2 0x1E4B JUMP JUMPDEST SWAP2 POP POP SWAP3 POP SWAP3 POP SWAP3 JUMP JUMPDEST PUSH32 0x4E487B7100000000000000000000000000000000000000000000000000000000 PUSH1 0x0 MSTORE PUSH1 0x41 PUSH1 0x4 MSTORE PUSH1 0x24 PUSH1 0x0 REVERT JUMPDEST PUSH1 0x0 DUP3 DUP3 MSTORE PUSH1 0x20 DUP3 ADD SWAP1 POP SWAP3 SWAP2 POP POP JUMP JUMPDEST PUSH1 0x0 PUSH1 0x1F NOT PUSH1 0x1F DUP4 ADD AND SWAP1 POP SWAP2 SWAP1 POP JUMP JUMPDEST PUSH1 0x0 PUSH2 0x1F0F DUP3 PUSH2 0x1C65 JUMP JUMPDEST PUSH2 0x1F19 DUP2 DUP6 PUSH2 0x1EE2 JUMP JUMPDEST SWAP4 POP PUSH2 0x1F29 DUP2 DUP6 PUSH1 0x20 DUP7 ADD PUSH2 0x1C7B JUMP JUMPDEST PUSH2 0x1F32 DUP2 PUSH2 0x1EF3 JUMP JUMPDEST DUP5 ADD SWAP2 POP POP SWAP3 SWAP2 POP POP JUMP JUMPDEST PUSH1 0x0 PUSH1 0x80 DUP3 ADD SWAP1 POP PUSH2 0x1F52 PUSH1 0x0 DUP4 ADD DUP8 PUSH2 0x19C3 JUMP JUMPDEST PUSH2 0x1F5F PUSH1 0x20 DUP4 ADD DUP7 PUSH2 0x19C3 JUMP JUMPDEST PUSH2 0x1F6C PUSH1 0x40 DUP4 ADD DUP6 PUSH2 0x1695 JUMP JUMPDEST DUP2 DUP2 SUB PUSH1 0x60 DUP4 ADD MSTORE PUSH2 0x1F7E DUP2 DUP5 PUSH2 0x1F04 JUMP JUMPDEST SWAP1 POP SWAP6 SWAP5 POP POP POP POP POP JUMP JUMPDEST PUSH1 0x0 PUSH2 0x1F94 DUP3 PUSH2 0x1502 JUMP JUMPDEST SWAP2 POP PUSH32 0xFFFFFFFFFFFFFFFFFFFFFFFFFFFFFFFFFFFFFFFFFFFFFFFFFFFFFFFFFFFFFFFF DUP3 SUB PUSH2 0x1FC6 JUMPI PUSH2 0x1FC5 PUSH2 0x1820 JUMP JUMPDEST JUMPDEST PUSH1 0x1 DUP3 ADD SWAP1 POP SWAP2 SWAP1 POP JUMP JUMPDEST PUSH32 0x5472616E7366657248656C7065723A3A736166655472616E736665724554483A PUSH1 0x0 DUP3 ADD MSTORE PUSH32 0x20455448207472616E73666572206661696C6564000000000000000000000000 PUSH1 0x20 DUP3 ADD MSTORE POP JUMP JUMPDEST PUSH1 0x0 PUSH2 0x202D PUSH1 0x34 DUP4 PUSH2 0x1747 JUMP JUMPDEST SWAP2 POP PUSH2 0x2038 DUP3 PUSH2 0x1FD1 JUMP JUMPDEST PUSH1 0x40 DUP3 ADD SWAP1 POP SWAP2 SWAP1 POP JUMP JUMPDEST PUSH1 0x0 PUSH1 0x20 DUP3 ADD SWAP1 POP DUP2 DUP2 SUB PUSH1 0x0 DUP4 ADD MSTORE PUSH2 0x205C DUP2 PUSH2 0x2020 JUMP JUMPDEST SWAP1 POP SWAP2 SWAP1 POP JUMP JUMPDEST PUSH32 0x556E697377617056324C6962726172793A204944454E544943414C5F41444452 PUSH1 0x0 DUP3 ADD MSTORE PUSH32 0x4553534553000000000000000000000000000000000000000000000000000000 PUSH1 0x20 DUP3 ADD MSTORE POP JUMP JUMPDEST PUSH1 0x0 PUSH2 0x20BF PUSH1 0x25 DUP4 PUSH2 0x1747 JUMP JUMPDEST SWAP2 POP PUSH2 0x20CA DUP3 PUSH2 0x2063 JUMP JUMPDEST PUSH1 0x40 DUP3 ADD SWAP1 POP SWAP2 SWAP1 POP JUMP JUMPDEST PUSH1 0x0 PUSH1 0x20 DUP3 ADD SWAP1 POP DUP2 DUP2 SUB PUSH1 0x0 DUP4 ADD MSTORE PUSH2 0x20EE DUP2 PUSH2 0x20B2 JUMP JUMPDEST SWAP1 POP SWAP2 SWAP1 POP JUMP JUMPDEST PUSH32 0x556E697377617056324C6962726172793A205A45524F5F414444524553530000 PUSH1 0x0 DUP3 ADD MSTORE POP JUMP JUMPDEST PUSH1 0x0 PUSH2 0x212B PUSH1 0x1E DUP4 PUSH2 0x1747 JUMP JUMPDEST SWAP2 POP PUSH2 0x2136 DUP3 PUSH2 0x20F5 JUMP JUMPDEST PUSH1 0x20 DUP3 ADD SWAP1 POP SWAP2 SWAP1 POP JUMP JUMPDEST PUSH1 0x0 PUSH1 0x20 DUP3 ADD SWAP1 POP DUP2 DUP2 SUB PUSH1 0x0 DUP4 ADD MSTORE PUSH2 0x215A DUP2 PUSH2 0x211E JUMP JUMPDEST SWAP1 POP SWAP2 SWAP1 POP JUMP JUMPDEST PUSH32 0x556E697377617056324C6962726172793A20494E53554646494349454E545F49 PUSH1 0x0 DUP3 ADD MSTORE PUSH32 0x4E5055545F414D4F554E54000000000000000000000000000000000000000000 PUSH1 0x20 DUP3 ADD MSTORE POP JUMP JUMPDEST PUSH1 0x0 PUSH2 0x21BD PUSH1 0x2B DUP4 PUSH2 0x1747 JUMP JUMPDEST SWAP2 POP PUSH2 0x21C8 DUP3 PUSH2 0x2161 JUMP JUMPDEST PUSH1 0x40 DUP3 ADD SWAP1 POP SWAP2 SWAP1 POP JUMP JUMPDEST PUSH1 0x0 PUSH1 0x20 DUP3 ADD SWAP1 POP DUP2 DUP2 SUB PUSH1 0x0 DUP4 ADD MSTORE PUSH2 0x21EC DUP2 PUSH2 0x21B0 JUMP JUMPDEST SWAP1 POP SWAP2 SWAP1 POP JUMP JUMPDEST PUSH32 0x556E697377617056324C6962726172793A20494E53554646494349454E545F4C PUSH1 0x0 DUP3 ADD MSTORE PUSH32 0x4951554944495459000000000000000000000000000000000000000000000000 PUSH1 0x20 DUP3 ADD MSTORE POP JUMP JUMPDEST PUSH1 0x0 PUSH2 0x224F PUSH1 0x28 DUP4 PUSH2 0x1747 JUMP JUMPDEST SWAP2 POP PUSH2 0x225A DUP3 PUSH2 0x21F3 JUMP JUMPDEST PUSH1 0x40 DUP3 ADD SWAP1 POP SWAP2 SWAP1 POP JUMP JUMPDEST PUSH1 0x0 PUSH1 0x20 DUP3 ADD SWAP1 POP DUP2 DUP2 SUB PUSH1 0x0 DUP4 ADD MSTORE PUSH2 0x227E DUP2 PUSH2 0x2242 JUMP JUMPDEST SWAP1 POP SWAP2 SWAP1 POP JUMP JUMPDEST PUSH1 0x0 PUSH2 0x2290 DUP3 PUSH2 0x1502 JUMP JUMPDEST SWAP2 POP PUSH2 0x229B DUP4 PUSH2 0x1502 JUMP JUMPDEST SWAP3 POP DUP2 PUSH32 0xFFFFFFFFFFFFFFFFFFFFFFFFFFFFFFFFFFFFFFFFFFFFFFFFFFFFFFFFFFFFFFFF DIV DUP4 GT DUP3 ISZERO ISZERO AND ISZERO PUSH2 0x22D4 JUMPI PUSH2 0x22D3 PUSH2 0x1820 JUMP JUMPDEST JUMPDEST DUP3 DUP3 MUL SWAP1 POP SWAP3 SWAP2 POP POP JUMP JUMPDEST PUSH32 0x4E487B7100000000000000000000000000000000000000000000000000000000 PUSH1 0x0 MSTORE PUSH1 0x12 PUSH1 0x4 MSTORE PUSH1 0x24 PUSH1 0x0 REVERT JUMPDEST PUSH1 0x0 PUSH2 0x2319 DUP3 PUSH2 0x1502 JUMP JUMPDEST SWAP2 POP PUSH2 0x2324 DUP4 PUSH2 0x1502 JUMP JUMPDEST SWAP3 POP DUP3 PUSH2 0x2334 JUMPI PUSH2 0x2333 PUSH2 0x22DF JUMP JUMPDEST JUMPDEST DUP3 DUP3 DIV SWAP1 POP SWAP3 SWAP2 POP POP JUMP INVALID LOG2 PUSH5 0x6970667358 0x22 SLT KECCAK256 0xEA 0xAD SWAP2 PUSH7 0xB2A9B094C39D8B SSTORE 0x21 0xE0 0x4D 0xCC GASPRICE 0xDA ISZERO 0xD3 0xBB SWAP9 0xD9 0x5C 0xEF 0xC2 PUSH26 0x95564537164736F6C634300080F003300000000000000000000 "
				},
				"gasEstimates": {
					"creation": {
						"codeDepositCost": "1815400",
						"executionCost": "infinite",
						"totalCost": "infinite"
					},
					"external": {
						"WETH()": "2536",
						"factory()": "2577",
						"swapExactETHForTokensSupportingFeeOnTransferTokens(uint256,address[],address,uint256)": "infinite",
						"swapExactTokensForETHSupportingFeeOnTransferTokens(uint256,uint256,address[],address,uint256)": "infinite",
						"swapExactTokensForTokensSupportingFeeOnTransferTokens(uint256,uint256,address[],address,uint256)": "infinite"
					},
					"internal": {
						"_swapSupportingFeeOnTransferTokens(address[] memory,address)": "infinite"
					}
				},
				"methodIdentifiers": {
					"WETH()": "ad5c4648",
					"factory()": "c45a0155",
					"swapExactETHForTokensSupportingFeeOnTransferTokens(uint256,address[],address,uint256)": "b6f9de95",
					"swapExactTokensForETHSupportingFeeOnTransferTokens(uint256,uint256,address[],address,uint256)": "791ac947",
					"swapExactTokensForTokensSupportingFeeOnTransferTokens(uint256,uint256,address[],address,uint256)": "5c11d795"
				}
			},
			"storageLayout": {
				"storage": [
					{
						"astId": 9,
						"contract": "v2_periphery/UniswapV2Router02Part.sol:UniswapV2Router02Part",
						"label": "factory",
						"offset": 0,
						"slot": "0",
						"type": "t_address"
					},
					{
						"astId": 11,
						"contract": "v2_periphery/UniswapV2Router02Part.sol:UniswapV2Router02Part",
						"label": "WETH",
						"offset": 0,
						"slot": "1",
						"type": "t_address"
					}
				],
				"types": {
					"t_address": {
						"encoding": "inplace",
						"label": "address",
						"numberOfBytes": "20"
					}
				}
			},
			"userdoc": {
				"kind": "user",
				"methods": {},
				"version": 1
			}
		}
	}
}