{
	"v2_periphery/UniswapV2Router02Part.sol": {
		"UniswapV2Router02Part": {
			"abi": [
				{
					"inputs": [
						{
							"internalType": "address",
							"name": "_factory",
							"type": "address"
						},
						{
							"internalType": "address",
							"name": "_WETH",
							"type": "address"
						}
					],
					"stateMutability": "nonpayable",
					"type": "constructor"
				},
				{
					"inputs": [],
					"name": "WETH",
					"outputs": [
						{
							"internalType": "address",
							"name": "",
							"type": "address"
						}
					],
					"stateMutability": "view",
					"type": "function"
				},
				{
					"inputs": [],
					"name": "factory",
					"outputs": [
						{
							"internalType": "address",
							"name": "",
							"type": "address"
						}
					],
					"stateMutability": "view",
					"type": "function"
				},
				{
					"inputs": [
						{
							"internalType": "uint256",
							"name": "amountOutMin",
							"type": "uint256"
						},
						{
							"internalType": "address[]",
							"name": "path",
							"type": "address[]"
						},
						{
							"internalType": "address",
							"name": "to",
							"type": "address"
						},
						{
							"internalType": "uint256",
							"name": "deadline",
							"type": "uint256"
						}
					],
					"name": "swapExactETHForTokensSupportingFeeOnTransferTokens",
					"outputs": [],
					"stateMutability": "payable",
					"type": "function"
				},
				{
					"inputs": [
						{
							"internalType": "uint256",
							"name": "amountIn",
							"type": "uint256"
						},
						{
							"internalType": "uint256",
							"name": "amountOutMin",
							"type": "uint256"
						},
						{
							"internalType": "address[]",
							"name": "path",
							"type": "address[]"
						},
						{
							"internalType": "address",
							"name": "to",
							"type": "address"
						},
						{
							"internalType": "uint256",
							"name": "deadline",
							"type": "uint256"
						}
					],
					"name": "swapExactTokensForETHSupportingFeeOnTransferTokens",
					"outputs": [],
					"stateMutability": "nonpayable",
					"type": "function"
				},
				{
					"inputs": [
						{
							"internalType": "uint256",
							"name": "amountIn",
							"type": "uint256"
						},
						{
							"internalType": "uint256",
							"name": "amountOutMin",
							"type": "uint256"
						},
						{
							"internalType": "address[]",
							"name": "path",
							"type": "address[]"
						},
						{
							"internalType": "address",
							"name": "to",
							"type": "address"
						},
						{
							"internalType": "uint256",
							"name": "deadline",
							"type": "uint256"
						}
					],
					"name": "swapExactTokensForTokensSupportingFeeOnTransferTokens",
					"outputs": [],
					"stateMutability": "nonpayable",
					"type": "function"
				}
			],
			"devdoc": {
				"kind": "dev",
				"methods": {},
				"version": 1
			},
			"evm": {
				"assembly": "    /* \"v2_periphery/UniswapV2Router02Part.sol\":423:9976  contract UniswapV2Router02Part  {... */\n  mstore(0x40, 0x80)\n    /* \"v2_periphery/UniswapV2Router02Part.sol\":519:624  constructor(address _factory, address _WETH) {... */\n  callvalue\n  dup1\n  iszero\n  tag_1\n  jumpi\n  0x00\n  dup1\n  revert\ntag_1:\n  pop\n  mload(0x40)\n  sub(codesize, bytecodeSize)\n  dup1\n  bytecodeSize\n  dup4\n  codecopy\n  dup2\n  add\n  0x40\n  dup2\n  swap1\n  mstore\n  tag_2\n  swap2\n  tag_3\n  jump\t// in\ntag_2:\n    /* \"v2_periphery/UniswapV2Router02Part.sol\":575:582  factory */\n  0x00\n    /* \"v2_periphery/UniswapV2Router02Part.sol\":575:593  factory = _factory */\n  dup1\n  sload\n  sub(shl(0xa0, 0x01), 0x01)\n  swap4\n  dup5\n  and\n  not(sub(shl(0xa0, 0x01), 0x01))\n  swap2\n  dup3\n  and\n  or\n  swap1\n  swap2\n  sstore\n  0x01\n    /* \"v2_periphery/UniswapV2Router02Part.sol\":604:616  WETH = _WETH */\n  dup1\n  sload\n  swap3\n  swap1\n  swap4\n  and\n  swap2\n  and\n  or\n  swap1\n  sstore\n    /* \"v2_periphery/UniswapV2Router02Part.sol\":423:9976  contract UniswapV2Router02Part  {... */\n  jump(tag_8)\n    /* \"#utility.yul\":14:191   */\ntag_7:\n    /* \"#utility.yul\":93:106   */\n  dup1\n  mload\n  sub(shl(0xa0, 0x01), 0x01)\n    /* \"#utility.yul\":135:166   */\n  dup2\n  and\n    /* \"#utility.yul\":125:167   */\n  dup2\n  eq\n    /* \"#utility.yul\":115:185   */\n  tag_10\n  jumpi\n    /* \"#utility.yul\":181:182   */\n  0x00\n    /* \"#utility.yul\":178:179   */\n  dup1\n    /* \"#utility.yul\":171:183   */\n  revert\n    /* \"#utility.yul\":115:185   */\ntag_10:\n    /* \"#utility.yul\":14:191   */\n  swap2\n  swap1\n  pop\n  jump\t// out\n    /* \"#utility.yul\":196:489   */\ntag_3:\n    /* \"#utility.yul\":275:281   */\n  0x00\n    /* \"#utility.yul\":283:289   */\n  dup1\n    /* \"#utility.yul\":336:338   */\n  0x40\n    /* \"#utility.yul\":324:333   */\n  dup4\n    /* \"#utility.yul\":315:322   */\n  dup6\n    /* \"#utility.yul\":311:334   */\n  sub\n    /* \"#utility.yul\":307:339   */\n  slt\n    /* \"#utility.yul\":304:356   */\n  iszero\n  tag_12\n  jumpi\n    /* \"#utility.yul\":352:353   */\n  0x00\n    /* \"#utility.yul\":349:350   */\n  dup1\n    /* \"#utility.yul\":342:354   */\n  revert\n    /* \"#utility.yul\":304:356   */\ntag_12:\n    /* \"#utility.yul\":375:415   */\n  tag_13\n    /* \"#utility.yul\":405:414   */\n  dup4\n    /* \"#utility.yul\":375:415   */\n  tag_7\n  jump\t// in\ntag_13:\n    /* \"#utility.yul\":365:415   */\n  swap2\n  pop\n    /* \"#utility.yul\":434:483   */\n  tag_14\n    /* \"#utility.yul\":479:481   */\n  0x20\n    /* \"#utility.yul\":468:477   */\n  dup5\n    /* \"#utility.yul\":464:482   */\n  add\n    /* \"#utility.yul\":434:483   */\n  tag_7\n  jump\t// in\ntag_14:\n    /* \"#utility.yul\":424:483   */\n  swap1\n  pop\n    /* \"#utility.yul\":196:489   */\n  swap3\n  pop\n  swap3\n  swap1\n  pop\n  jump\t// out\ntag_8:\n    /* \"v2_periphery/UniswapV2Router02Part.sol\":423:9976  contract UniswapV2Router02Part  {... */\n  dataSize(sub_0)\n  dup1\n  dataOffset(sub_0)\n  0x00\n  codecopy\n  0x00\n  return\nstop\n\nsub_0: assembly {\n        /* \"v2_periphery/UniswapV2Router02Part.sol\":423:9976  contract UniswapV2Router02Part  {... */\n      mstore(0x40, 0x80)\n      jumpi(tag_1, lt(calldatasize, 0x04))\n      shr(0xe0, calldataload(0x00))\n      dup1\n      0x5c11d795\n      eq\n      tag_2\n      jumpi\n      dup1\n      0x791ac947\n      eq\n      tag_3\n      jumpi\n      dup1\n      0xad5c4648\n      eq\n      tag_4\n      jumpi\n      dup1\n      0xb6f9de95\n      eq\n      tag_5\n      jumpi\n      dup1\n      0xc45a0155\n      eq\n      tag_6\n      jumpi\n    tag_1:\n      0x00\n      dup1\n      revert\n        /* \"v2_periphery/UniswapV2Router02Part.sol\":7582:8285  function swapExactTokensForTokensSupportingFeeOnTransferTokens(... */\n    tag_2:\n      callvalue\n      dup1\n      iszero\n      tag_7\n      jumpi\n      0x00\n      dup1\n      revert\n    tag_7:\n      pop\n      tag_8\n      tag_9\n      calldatasize\n      0x04\n      tag_10\n      jump\t// in\n    tag_9:\n      tag_11\n      jump\t// in\n    tag_8:\n      stop\n        /* \"v2_periphery/UniswapV2Router02Part.sol\":9136:9971  function swapExactTokensForETHSupportingFeeOnTransferTokens(... */\n    tag_3:\n      callvalue\n      dup1\n      iszero\n      tag_12\n      jumpi\n      0x00\n      dup1\n      revert\n    tag_12:\n      pop\n      tag_8\n      tag_14\n      calldatasize\n      0x04\n      tag_10\n      jump\t// in\n    tag_14:\n      tag_15\n      jump\t// in\n        /* \"v2_periphery/UniswapV2Router02Part.sol\":492:512  address public  WETH */\n    tag_4:\n      callvalue\n      dup1\n      iszero\n      tag_16\n      jumpi\n      0x00\n      dup1\n      revert\n    tag_16:\n      pop\n      sload(0x01)\n      tag_17\n      swap1\n      sub(shl(0xa0, 0x01), 0x01)\n      and\n      dup2\n      jump\n    tag_17:\n      mload(0x40)\n      sub(shl(0xa0, 0x01), 0x01)\n        /* \"#utility.yul\":1450:1482   */\n      swap1\n      swap2\n      and\n        /* \"#utility.yul\":1432:1483   */\n      dup2\n      mstore\n        /* \"#utility.yul\":1420:1422   */\n      0x20\n        /* \"#utility.yul\":1405:1423   */\n      add\n        /* \"v2_periphery/UniswapV2Router02Part.sol\":492:512  address public  WETH */\n      mload(0x40)\n      dup1\n      swap2\n      sub\n      swap1\n      return\n        /* \"v2_periphery/UniswapV2Router02Part.sol\":8291:9130  function swapExactETHForTokensSupportingFeeOnTransferTokens(... */\n    tag_5:\n      tag_8\n      tag_22\n      calldatasize\n      0x04\n      tag_23\n      jump\t// in\n    tag_22:\n      tag_24\n      jump\t// in\n        /* \"v2_periphery/UniswapV2Router02Part.sol\":462:485  address public  factory */\n    tag_6:\n      callvalue\n      dup1\n      iszero\n      tag_25\n      jumpi\n      0x00\n      dup1\n      revert\n    tag_25:\n      pop\n      sload(0x00)\n      tag_17\n      swap1\n      sub(shl(0xa0, 0x01), 0x01)\n      and\n      dup2\n      jump\n        /* \"v2_periphery/UniswapV2Router02Part.sol\":7582:8285  function swapExactTokensForTokensSupportingFeeOnTransferTokens(... */\n    tag_11:\n        /* \"v2_periphery/UniswapV2Router02Part.sol\":7808:7816  deadline */\n      dup1\n        /* \"v2_periphery/UniswapV2Router02Part.sol\":692:707  block.timestamp */\n      timestamp\n        /* \"v2_periphery/UniswapV2Router02Part.sol\":680:688  deadline */\n      dup2\n        /* \"v2_periphery/UniswapV2Router02Part.sol\":680:707  deadline >= block.timestamp */\n      lt\n      iszero\n        /* \"v2_periphery/UniswapV2Router02Part.sol\":672:736  require(deadline >= block.timestamp, 'UniswapV2Router: EXPIRED') */\n      tag_30\n      jumpi\n      mload(0x40)\n      shl(0xe5, 0x461bcd)\n      dup2\n      mstore\n      0x04\n      add\n      tag_31\n      swap1\n      tag_32\n      jump\t// in\n    tag_31:\n      mload(0x40)\n      dup1\n      swap2\n      sub\n      swap1\n      revert\n    tag_30:\n        /* \"v2_periphery/UniswapV2Router02Part.sol\":7829:7968  TransferHelper.safeTransferFrom(... */\n      tag_34\n        /* \"v2_periphery/UniswapV2Router02Part.sol\":7875:7879  path */\n      dup6\n      dup6\n        /* \"v2_periphery/UniswapV2Router02Part.sol\":7880:7881  0 */\n      0x00\n        /* \"v2_periphery/UniswapV2Router02Part.sol\":7875:7882  path[0] */\n      dup2\n      dup2\n      lt\n      tag_36\n      jumpi\n      tag_36\n      tag_37\n      jump\t// in\n    tag_36:\n      swap1\n      pop\n      0x20\n      mul\n      add\n      0x20\n      dup2\n      add\n      swap1\n      tag_38\n      swap2\n      swap1\n      tag_39\n      jump\t// in\n    tag_38:\n        /* \"v2_periphery/UniswapV2Router02Part.sol\":7921:7928  factory */\n      0x00\n      dup1\n      sload\n        /* \"v2_periphery/UniswapV2Router02Part.sol\":7884:7894  msg.sender */\n      caller\n      swap2\n        /* \"v2_periphery/UniswapV2Router02Part.sol\":7896:7947  UniswapV2Library.pairFor(factory, path[0], path[1]) */\n      tag_40\n      swap2\n      sub(shl(0xa0, 0x01), 0x01)\n        /* \"v2_periphery/UniswapV2Router02Part.sol\":7921:7928  factory */\n      and\n      swap1\n        /* \"v2_periphery/UniswapV2Router02Part.sol\":7930:7934  path */\n      dup11\n      swap1\n      dup11\n      swap1\n        /* \"v2_periphery/UniswapV2Router02Part.sol\":7930:7937  path[0] */\n      dup2\n      tag_42\n      jumpi\n      tag_42\n      tag_37\n      jump\t// in\n    tag_42:\n      swap1\n      pop\n      0x20\n      mul\n      add\n      0x20\n      dup2\n      add\n      swap1\n      tag_43\n      swap2\n      swap1\n      tag_39\n      jump\t// in\n    tag_43:\n        /* \"v2_periphery/UniswapV2Router02Part.sol\":7939:7943  path */\n      dup11\n      dup11\n        /* \"v2_periphery/UniswapV2Router02Part.sol\":7944:7945  1 */\n      0x01\n        /* \"v2_periphery/UniswapV2Router02Part.sol\":7939:7946  path[1] */\n      dup2\n      dup2\n      lt\n      tag_45\n      jumpi\n      tag_45\n      tag_37\n      jump\t// in\n    tag_45:\n      swap1\n      pop\n      0x20\n      mul\n      add\n      0x20\n      dup2\n      add\n      swap1\n      tag_46\n      swap2\n      swap1\n      tag_39\n      jump\t// in\n    tag_46:\n        /* \"v2_periphery/UniswapV2Router02Part.sol\":7896:7920  UniswapV2Library.pairFor */\n      tag_47\n        /* \"v2_periphery/UniswapV2Router02Part.sol\":7896:7947  UniswapV2Library.pairFor(factory, path[0], path[1]) */\n      jump\t// in\n    tag_40:\n        /* \"v2_periphery/UniswapV2Router02Part.sol\":7949:7957  amountIn */\n      dup11\n        /* \"v2_periphery/UniswapV2Router02Part.sol\":7829:7860  TransferHelper.safeTransferFrom */\n      tag_48\n        /* \"v2_periphery/UniswapV2Router02Part.sol\":7829:7968  TransferHelper.safeTransferFrom(... */\n      jump\t// in\n    tag_34:\n        /* \"v2_periphery/UniswapV2Router02Part.sol\":7979:7997  uint balanceBefore */\n      0x00\n        /* \"v2_periphery/UniswapV2Router02Part.sol\":8007:8011  path */\n      dup6\n      dup6\n        /* \"v2_periphery/UniswapV2Router02Part.sol\":8012:8027  path.length - 1 */\n      tag_49\n        /* \"v2_periphery/UniswapV2Router02Part.sol\":8026:8027  1 */\n      0x01\n        /* \"v2_periphery/UniswapV2Router02Part.sol\":8007:8011  path */\n      dup3\n        /* \"v2_periphery/UniswapV2Router02Part.sol\":8012:8027  path.length - 1 */\n      tag_50\n      jump\t// in\n    tag_49:\n        /* \"v2_periphery/UniswapV2Router02Part.sol\":8007:8028  path[path.length - 1] */\n      dup2\n      dup2\n      lt\n      tag_52\n      jumpi\n      tag_52\n      tag_37\n      jump\t// in\n    tag_52:\n      swap1\n      pop\n      0x20\n      mul\n      add\n      0x20\n      dup2\n      add\n      swap1\n      tag_53\n      swap2\n      swap1\n      tag_39\n      jump\t// in\n    tag_53:\n        /* \"v2_periphery/UniswapV2Router02Part.sol\":8000:8043  IERC20(path[path.length - 1]).balanceOf(to) */\n      mload(0x40)\n      shl(0xe0, 0x70a08231)\n      dup2\n      mstore\n      sub(shl(0xa0, 0x01), 0x01)\n        /* \"#utility.yul\":1450:1482   */\n      dup7\n      dup2\n      and\n        /* \"v2_periphery/UniswapV2Router02Part.sol\":8000:8043  IERC20(path[path.length - 1]).balanceOf(to) */\n      0x04\n      dup4\n      add\n        /* \"#utility.yul\":1432:1483   */\n      mstore\n        /* \"v2_periphery/UniswapV2Router02Part.sol\":8000:8039  IERC20(path[path.length - 1]).balanceOf */\n      swap2\n      swap1\n      swap2\n      and\n      swap1\n      0x70a08231\n      swap1\n        /* \"#utility.yul\":1405:1423   */\n      0x24\n      add\n        /* \"v2_periphery/UniswapV2Router02Part.sol\":8000:8043  IERC20(path[path.length - 1]).balanceOf(to) */\n      0x20\n      mload(0x40)\n      dup1\n      dup4\n      sub\n      dup2\n      dup7\n      gas\n      staticcall\n      iszero\n      dup1\n      iszero\n      tag_56\n      jumpi\n      returndatasize\n      0x00\n      dup1\n      returndatacopy\n      revert(0x00, returndatasize)\n    tag_56:\n      pop\n      pop\n      pop\n      pop\n      mload(0x40)\n      returndatasize\n      not(0x1f)\n      0x1f\n      dup3\n      add\n      and\n      dup3\n      add\n      dup1\n      0x40\n      mstore\n      pop\n      dup2\n      add\n      swap1\n      tag_57\n      swap2\n      swap1\n      tag_58\n      jump\t// in\n    tag_57:\n        /* \"v2_periphery/UniswapV2Router02Part.sol\":7979:8043  uint balanceBefore = IERC20(path[path.length - 1]).balanceOf(to) */\n      swap1\n      pop\n        /* \"v2_periphery/UniswapV2Router02Part.sol\":8054:8098  _swapSupportingFeeOnTransferTokens(path, to) */\n      tag_59\n        /* \"v2_periphery/UniswapV2Router02Part.sol\":8089:8093  path */\n      dup7\n      dup7\n        /* \"v2_periphery/UniswapV2Router02Part.sol\":8054:8098  _swapSupportingFeeOnTransferTokens(path, to) */\n      dup1\n      dup1\n      0x20\n      mul\n      0x20\n      add\n      mload(0x40)\n      swap1\n      dup2\n      add\n      0x40\n      mstore\n      dup1\n      swap4\n      swap3\n      swap2\n      swap1\n      dup2\n      dup2\n      mstore\n      0x20\n      add\n      dup4\n      dup4\n      0x20\n      mul\n      dup1\n      dup3\n      dup5\n      calldatacopy\n      0x00\n      swap3\n      add\n      swap2\n      swap1\n      swap2\n      mstore\n      pop\n        /* \"v2_periphery/UniswapV2Router02Part.sol\":8095:8097  to */\n      dup9\n      swap3\n      pop\n        /* \"v2_periphery/UniswapV2Router02Part.sol\":8054:8088  _swapSupportingFeeOnTransferTokens */\n      tag_60\n      swap2\n      pop\n      pop\n        /* \"v2_periphery/UniswapV2Router02Part.sol\":8054:8098  _swapSupportingFeeOnTransferTokens(path, to) */\n      jump\t// in\n    tag_59:\n        /* \"v2_periphery/UniswapV2Router02Part.sol\":8194:8206  amountOutMin */\n      dup7\n        /* \"v2_periphery/UniswapV2Router02Part.sol\":8177:8190  balanceBefore */\n      dup2\n        /* \"v2_periphery/UniswapV2Router02Part.sol\":8138:8142  path */\n      dup8\n      dup8\n        /* \"v2_periphery/UniswapV2Router02Part.sol\":8143:8158  path.length - 1 */\n      tag_61\n        /* \"v2_periphery/UniswapV2Router02Part.sol\":8157:8158  1 */\n      0x01\n        /* \"v2_periphery/UniswapV2Router02Part.sol\":8138:8142  path */\n      dup3\n        /* \"v2_periphery/UniswapV2Router02Part.sol\":8143:8158  path.length - 1 */\n      tag_50\n      jump\t// in\n    tag_61:\n        /* \"v2_periphery/UniswapV2Router02Part.sol\":8138:8159  path[path.length - 1] */\n      dup2\n      dup2\n      lt\n      tag_63\n      jumpi\n      tag_63\n      tag_37\n      jump\t// in\n    tag_63:\n      swap1\n      pop\n      0x20\n      mul\n      add\n      0x20\n      dup2\n      add\n      swap1\n      tag_64\n      swap2\n      swap1\n      tag_39\n      jump\t// in\n    tag_64:\n        /* \"v2_periphery/UniswapV2Router02Part.sol\":8131:8174  IERC20(path[path.length - 1]).balanceOf(to) */\n      mload(0x40)\n      shl(0xe0, 0x70a08231)\n      dup2\n      mstore\n      sub(shl(0xa0, 0x01), 0x01)\n        /* \"#utility.yul\":1450:1482   */\n      dup9\n      dup2\n      and\n        /* \"v2_periphery/UniswapV2Router02Part.sol\":8131:8174  IERC20(path[path.length - 1]).balanceOf(to) */\n      0x04\n      dup4\n      add\n        /* \"#utility.yul\":1432:1483   */\n      mstore\n        /* \"v2_periphery/UniswapV2Router02Part.sol\":8131:8170  IERC20(path[path.length - 1]).balanceOf */\n      swap2\n      swap1\n      swap2\n      and\n      swap1\n      0x70a08231\n      swap1\n        /* \"#utility.yul\":1405:1423   */\n      0x24\n      add\n        /* \"v2_periphery/UniswapV2Router02Part.sol\":8131:8174  IERC20(path[path.length - 1]).balanceOf(to) */\n    tag_65:\n      0x20\n      mload(0x40)\n      dup1\n      dup4\n      sub\n      dup2\n      dup7\n      gas\n      staticcall\n      iszero\n      dup1\n      iszero\n      tag_67\n      jumpi\n      returndatasize\n      0x00\n      dup1\n      returndatacopy\n      revert(0x00, returndatasize)\n    tag_67:\n      pop\n      pop\n      pop\n      pop\n      mload(0x40)\n      returndatasize\n      not(0x1f)\n      0x1f\n      dup3\n      add\n      and\n      dup3\n      add\n      dup1\n      0x40\n      mstore\n      pop\n      dup2\n      add\n      swap1\n      tag_68\n      swap2\n      swap1\n      tag_58\n      jump\t// in\n    tag_68:\n        /* \"v2_periphery/UniswapV2Router02Part.sol\":8131:8190  IERC20(path[path.length - 1]).balanceOf(to) - balanceBefore */\n      tag_69\n      swap2\n      swap1\n      tag_50\n      jump\t// in\n    tag_69:\n        /* \"v2_periphery/UniswapV2Router02Part.sol\":8131:8206  IERC20(path[path.length - 1]).balanceOf(to) - balanceBefore >= amountOutMin */\n      lt\n      iszero\n        /* \"v2_periphery/UniswapV2Router02Part.sol\":8109:8277  require(... */\n      tag_70\n      jumpi\n      mload(0x40)\n      shl(0xe5, 0x461bcd)\n      dup2\n      mstore\n      0x04\n      add\n      tag_31\n      swap1\n      tag_72\n      jump\t// in\n    tag_70:\n        /* \"v2_periphery/UniswapV2Router02Part.sol\":7818:8285  {... */\n      pop\n        /* \"v2_periphery/UniswapV2Router02Part.sol\":7582:8285  function swapExactTokensForTokensSupportingFeeOnTransferTokens(... */\n      pop\n      pop\n      pop\n      pop\n      pop\n      pop\n      pop\n      jump\t// out\n        /* \"v2_periphery/UniswapV2Router02Part.sol\":9136:9971  function swapExactTokensForETHSupportingFeeOnTransferTokens(... */\n    tag_15:\n        /* \"v2_periphery/UniswapV2Router02Part.sol\":9395:9403  deadline */\n      dup1\n        /* \"v2_periphery/UniswapV2Router02Part.sol\":692:707  block.timestamp */\n      timestamp\n        /* \"v2_periphery/UniswapV2Router02Part.sol\":680:688  deadline */\n      dup2\n        /* \"v2_periphery/UniswapV2Router02Part.sol\":680:707  deadline >= block.timestamp */\n      lt\n      iszero\n        /* \"v2_periphery/UniswapV2Router02Part.sol\":672:736  require(deadline >= block.timestamp, 'UniswapV2Router: EXPIRED') */\n      tag_74\n      jumpi\n      mload(0x40)\n      shl(0xe5, 0x461bcd)\n      dup2\n      mstore\n      0x04\n      add\n      tag_31\n      swap1\n      tag_32\n      jump\t// in\n    tag_74:\n        /* \"v2_periphery/UniswapV2Router02Part.sol\":9454:9458  WETH */\n      0x01\n      dup1\n      sload\n      sub(shl(0xa0, 0x01), 0x01)\n      and\n      swap1\n        /* \"v2_periphery/UniswapV2Router02Part.sol\":9429:9433  path */\n      dup7\n      swap1\n      dup7\n      swap1\n        /* \"v2_periphery/UniswapV2Router02Part.sol\":9434:9449  path.length - 1 */\n      tag_77\n      swap1\n        /* \"v2_periphery/UniswapV2Router02Part.sol\":9429:9433  path */\n      dup3\n        /* \"v2_periphery/UniswapV2Router02Part.sol\":9434:9449  path.length - 1 */\n      tag_50\n      jump\t// in\n    tag_77:\n        /* \"v2_periphery/UniswapV2Router02Part.sol\":9429:9450  path[path.length - 1] */\n      dup2\n      dup2\n      lt\n      tag_79\n      jumpi\n      tag_79\n      tag_37\n      jump\t// in\n    tag_79:\n      swap1\n      pop\n      0x20\n      mul\n      add\n      0x20\n      dup2\n      add\n      swap1\n      tag_80\n      swap2\n      swap1\n      tag_39\n      jump\t// in\n    tag_80:\n      sub(shl(0xa0, 0x01), 0x01)\n        /* \"v2_periphery/UniswapV2Router02Part.sol\":9429:9458  path[path.length - 1] == WETH */\n      and\n      eq\n        /* \"v2_periphery/UniswapV2Router02Part.sol\":9421:9492  require(path[path.length - 1] == WETH, 'UniswapV2Router: INVALID_PATH') */\n      tag_81\n      jumpi\n      mload(0x40)\n      shl(0xe5, 0x461bcd)\n      dup2\n      mstore\n        /* \"#utility.yul\":3888:3890   */\n      0x20\n        /* \"v2_periphery/UniswapV2Router02Part.sol\":9421:9492  require(path[path.length - 1] == WETH, 'UniswapV2Router: INVALID_PATH') */\n      0x04\n      dup3\n      add\n        /* \"#utility.yul\":3870:3891   */\n      mstore\n        /* \"#utility.yul\":3927:3929   */\n      0x1d\n        /* \"#utility.yul\":3907:3925   */\n      0x24\n      dup3\n      add\n        /* \"#utility.yul\":3900:3930   */\n      mstore\n        /* \"#utility.yul\":3966:3997   */\n      0x556e69737761705632526f757465723a20494e56414c49445f50415448000000\n        /* \"#utility.yul\":3946:3964   */\n      0x44\n      dup3\n      add\n        /* \"#utility.yul\":3939:3998   */\n      mstore\n        /* \"#utility.yul\":4015:4033   */\n      0x64\n      add\n        /* \"v2_periphery/UniswapV2Router02Part.sol\":9421:9492  require(path[path.length - 1] == WETH, 'UniswapV2Router: INVALID_PATH') */\n      tag_31\n        /* \"#utility.yul\":3686:4039   */\n      jump\n        /* \"v2_periphery/UniswapV2Router02Part.sol\":9421:9492  require(path[path.length - 1] == WETH, 'UniswapV2Router: INVALID_PATH') */\n    tag_81:\n        /* \"v2_periphery/UniswapV2Router02Part.sol\":9503:9642  TransferHelper.safeTransferFrom(... */\n      tag_84\n        /* \"v2_periphery/UniswapV2Router02Part.sol\":9549:9553  path */\n      dup6\n      dup6\n        /* \"v2_periphery/UniswapV2Router02Part.sol\":9554:9555  0 */\n      0x00\n        /* \"v2_periphery/UniswapV2Router02Part.sol\":9549:9556  path[0] */\n      dup2\n      dup2\n      lt\n      tag_36\n      jumpi\n      tag_36\n      tag_37\n      jump\t// in\n        /* \"v2_periphery/UniswapV2Router02Part.sol\":9503:9642  TransferHelper.safeTransferFrom(... */\n    tag_84:\n        /* \"v2_periphery/UniswapV2Router02Part.sol\":9653:9708  _swapSupportingFeeOnTransferTokens(path, address(this)) */\n      tag_95\n        /* \"v2_periphery/UniswapV2Router02Part.sol\":9688:9692  path */\n      dup6\n      dup6\n        /* \"v2_periphery/UniswapV2Router02Part.sol\":9653:9708  _swapSupportingFeeOnTransferTokens(path, address(this)) */\n      dup1\n      dup1\n      0x20\n      mul\n      0x20\n      add\n      mload(0x40)\n      swap1\n      dup2\n      add\n      0x40\n      mstore\n      dup1\n      swap4\n      swap3\n      swap2\n      swap1\n      dup2\n      dup2\n      mstore\n      0x20\n      add\n      dup4\n      dup4\n      0x20\n      mul\n      dup1\n      dup3\n      dup5\n      calldatacopy\n      0x00\n      swap3\n      add\n      swap2\n      swap1\n      swap2\n      mstore\n      pop\n        /* \"v2_periphery/UniswapV2Router02Part.sol\":9702:9706  this */\n      address\n      swap3\n      pop\n        /* \"v2_periphery/UniswapV2Router02Part.sol\":9653:9687  _swapSupportingFeeOnTransferTokens */\n      tag_60\n      swap2\n      pop\n      pop\n        /* \"v2_periphery/UniswapV2Router02Part.sol\":9653:9708  _swapSupportingFeeOnTransferTokens(path, address(this)) */\n      jump\t// in\n    tag_95:\n        /* \"v2_periphery/UniswapV2Router02Part.sol\":9743:9747  WETH */\n      sload(0x01)\n        /* \"v2_periphery/UniswapV2Router02Part.sol\":9736:9773  IERC20(WETH).balanceOf(address(this)) */\n      mload(0x40)\n      shl(0xe0, 0x70a08231)\n      dup2\n      mstore\n        /* \"v2_periphery/UniswapV2Router02Part.sol\":9767:9771  this */\n      address\n        /* \"v2_periphery/UniswapV2Router02Part.sol\":9736:9773  IERC20(WETH).balanceOf(address(this)) */\n      0x04\n      dup3\n      add\n        /* \"#utility.yul\":1432:1483   */\n      mstore\n        /* \"v2_periphery/UniswapV2Router02Part.sol\":9719:9733  uint amountOut */\n      0x00\n      swap2\n      sub(shl(0xa0, 0x01), 0x01)\n        /* \"v2_periphery/UniswapV2Router02Part.sol\":9743:9747  WETH */\n      and\n      swap1\n        /* \"v2_periphery/UniswapV2Router02Part.sol\":9736:9758  IERC20(WETH).balanceOf */\n      0x70a08231\n      swap1\n        /* \"#utility.yul\":1405:1423   */\n      0x24\n      add\n        /* \"v2_periphery/UniswapV2Router02Part.sol\":9736:9773  IERC20(WETH).balanceOf(address(this)) */\n      0x20\n      mload(0x40)\n      dup1\n      dup4\n      sub\n      dup2\n      dup7\n      gas\n      staticcall\n      iszero\n      dup1\n      iszero\n      tag_98\n      jumpi\n      returndatasize\n      0x00\n      dup1\n      returndatacopy\n      revert(0x00, returndatasize)\n    tag_98:\n      pop\n      pop\n      pop\n      pop\n      mload(0x40)\n      returndatasize\n      not(0x1f)\n      0x1f\n      dup3\n      add\n      and\n      dup3\n      add\n      dup1\n      0x40\n      mstore\n      pop\n      dup2\n      add\n      swap1\n      tag_99\n      swap2\n      swap1\n      tag_58\n      jump\t// in\n    tag_99:\n        /* \"v2_periphery/UniswapV2Router02Part.sol\":9719:9773  uint amountOut = IERC20(WETH).balanceOf(address(this)) */\n      swap1\n      pop\n        /* \"v2_periphery/UniswapV2Router02Part.sol\":9805:9817  amountOutMin */\n      dup7\n        /* \"v2_periphery/UniswapV2Router02Part.sol\":9792:9801  amountOut */\n      dup2\n        /* \"v2_periphery/UniswapV2Router02Part.sol\":9792:9817  amountOut >= amountOutMin */\n      lt\n      iszero\n        /* \"v2_periphery/UniswapV2Router02Part.sol\":9784:9865  require(amountOut >= amountOutMin, 'UniswapV2Router: INSUFFICIENT_OUTPUT_AMOUNT') */\n      tag_100\n      jumpi\n      mload(0x40)\n      shl(0xe5, 0x461bcd)\n      dup2\n      mstore\n      0x04\n      add\n      tag_31\n      swap1\n      tag_72\n      jump\t// in\n    tag_100:\n        /* \"v2_periphery/UniswapV2Router02Part.sol\":9882:9886  WETH */\n      sload(0x01)\n        /* \"v2_periphery/UniswapV2Router02Part.sol\":9876:9907  IWETH(WETH).withdraw(amountOut) */\n      mload(0x40)\n      shl(0xe0, 0x2e1a7d4d)\n      dup2\n      mstore\n      0x04\n      dup2\n      add\n        /* \"#utility.yul\":4190:4215   */\n      dup4\n      swap1\n      mstore\n      sub(shl(0xa0, 0x01), 0x01)\n        /* \"v2_periphery/UniswapV2Router02Part.sol\":9882:9886  WETH */\n      swap1\n      swap2\n      and\n      swap1\n        /* \"v2_periphery/UniswapV2Router02Part.sol\":9876:9896  IWETH(WETH).withdraw */\n      0x2e1a7d4d\n      swap1\n        /* \"#utility.yul\":4163:4181   */\n      0x24\n      add\n        /* \"v2_periphery/UniswapV2Router02Part.sol\":9876:9907  IWETH(WETH).withdraw(amountOut) */\n      0x00\n      mload(0x40)\n      dup1\n      dup4\n      sub\n      dup2\n      0x00\n      dup8\n      dup1\n      extcodesize\n      iszero\n      dup1\n      iszero\n      tag_104\n      jumpi\n      0x00\n      dup1\n      revert\n    tag_104:\n      pop\n      gas\n      call\n      iszero\n      dup1\n      iszero\n      tag_106\n      jumpi\n      returndatasize\n      0x00\n      dup1\n      returndatacopy\n      revert(0x00, returndatasize)\n    tag_106:\n      pop\n      pop\n      pop\n      pop\n        /* \"v2_periphery/UniswapV2Router02Part.sol\":9918:9963  TransferHelper.safeTransferETH(to, amountOut) */\n      tag_70\n        /* \"v2_periphery/UniswapV2Router02Part.sol\":9949:9951  to */\n      dup5\n        /* \"v2_periphery/UniswapV2Router02Part.sol\":9953:9962  amountOut */\n      dup3\n        /* \"v2_periphery/UniswapV2Router02Part.sol\":9918:9948  TransferHelper.safeTransferETH */\n      tag_108\n        /* \"v2_periphery/UniswapV2Router02Part.sol\":9918:9963  TransferHelper.safeTransferETH(to, amountOut) */\n      jump\t// in\n        /* \"v2_periphery/UniswapV2Router02Part.sol\":8291:9130  function swapExactETHForTokensSupportingFeeOnTransferTokens(... */\n    tag_24:\n        /* \"v2_periphery/UniswapV2Router02Part.sol\":8543:8551  deadline */\n      dup1\n        /* \"v2_periphery/UniswapV2Router02Part.sol\":692:707  block.timestamp */\n      timestamp\n        /* \"v2_periphery/UniswapV2Router02Part.sol\":680:688  deadline */\n      dup2\n        /* \"v2_periphery/UniswapV2Router02Part.sol\":680:707  deadline >= block.timestamp */\n      lt\n      iszero\n        /* \"v2_periphery/UniswapV2Router02Part.sol\":672:736  require(deadline >= block.timestamp, 'UniswapV2Router: EXPIRED') */\n      tag_110\n      jumpi\n      mload(0x40)\n      shl(0xe5, 0x461bcd)\n      dup2\n      mstore\n      0x04\n      add\n      tag_31\n      swap1\n      tag_32\n      jump\t// in\n    tag_110:\n        /* \"v2_periphery/UniswapV2Router02Part.sol\":8588:8592  WETH */\n      and(sub(shl(0xa0, 0x01), 0x01), sload(0x01))\n        /* \"v2_periphery/UniswapV2Router02Part.sol\":8577:8581  path */\n      dup6\n      dup6\n        /* \"v2_periphery/UniswapV2Router02Part.sol\":8588:8592  WETH */\n      0x00\n        /* \"v2_periphery/UniswapV2Router02Part.sol\":8577:8584  path[0] */\n      dup2\n      tag_114\n      jumpi\n      tag_114\n      tag_37\n      jump\t// in\n    tag_114:\n      swap1\n      pop\n      0x20\n      mul\n      add\n      0x20\n      dup2\n      add\n      swap1\n      tag_115\n      swap2\n      swap1\n      tag_39\n      jump\t// in\n    tag_115:\n      sub(shl(0xa0, 0x01), 0x01)\n        /* \"v2_periphery/UniswapV2Router02Part.sol\":8577:8592  path[0] == WETH */\n      and\n      eq\n        /* \"v2_periphery/UniswapV2Router02Part.sol\":8569:8626  require(path[0] == WETH, 'UniswapV2Router: INVALID_PATH') */\n      tag_116\n      jumpi\n      mload(0x40)\n      shl(0xe5, 0x461bcd)\n      dup2\n      mstore\n        /* \"#utility.yul\":3888:3890   */\n      0x20\n        /* \"v2_periphery/UniswapV2Router02Part.sol\":8569:8626  require(path[0] == WETH, 'UniswapV2Router: INVALID_PATH') */\n      0x04\n      dup3\n      add\n        /* \"#utility.yul\":3870:3891   */\n      mstore\n        /* \"#utility.yul\":3927:3929   */\n      0x1d\n        /* \"#utility.yul\":3907:3925   */\n      0x24\n      dup3\n      add\n        /* \"#utility.yul\":3900:3930   */\n      mstore\n        /* \"#utility.yul\":3966:3997   */\n      0x556e69737761705632526f757465723a20494e56414c49445f50415448000000\n        /* \"#utility.yul\":3946:3964   */\n      0x44\n      dup3\n      add\n        /* \"#utility.yul\":3939:3998   */\n      mstore\n        /* \"#utility.yul\":4015:4033   */\n      0x64\n      add\n        /* \"v2_periphery/UniswapV2Router02Part.sol\":8569:8626  require(path[0] == WETH, 'UniswapV2Router: INVALID_PATH') */\n      tag_31\n        /* \"#utility.yul\":3686:4039   */\n      jump\n        /* \"v2_periphery/UniswapV2Router02Part.sol\":8569:8626  require(path[0] == WETH, 'UniswapV2Router: INVALID_PATH') */\n    tag_116:\n        /* \"v2_periphery/UniswapV2Router02Part.sol\":8679:8683  WETH */\n      sload(0x01)\n        /* \"v2_periphery/UniswapV2Router02Part.sol\":8673:8711  IWETH(WETH).deposit{value: amountIn}() */\n      0x40\n      dup1\n      mload\n      shl(0xe4, 0x0d0e30db)\n      dup2\n      mstore\n      swap1\n      mload\n        /* \"v2_periphery/UniswapV2Router02Part.sol\":8653:8662  msg.value */\n      callvalue\n      swap3\n      sub(shl(0xa0, 0x01), 0x01)\n        /* \"v2_periphery/UniswapV2Router02Part.sol\":8679:8683  WETH */\n      and\n      swap2\n        /* \"v2_periphery/UniswapV2Router02Part.sol\":8673:8692  IWETH(WETH).deposit */\n      0xd0e30db0\n      swap2\n        /* \"v2_periphery/UniswapV2Router02Part.sol\":8653:8662  msg.value */\n      dup5\n      swap2\n        /* \"v2_periphery/UniswapV2Router02Part.sol\":8673:8711  IWETH(WETH).deposit{value: amountIn}() */\n      0x04\n      dup1\n      dup3\n      add\n      swap3\n        /* \"v2_periphery/UniswapV2Router02Part.sol\":8637:8650  uint amountIn */\n      0x00\n      swap3\n        /* \"v2_periphery/UniswapV2Router02Part.sol\":8673:8711  IWETH(WETH).deposit{value: amountIn}() */\n      swap1\n      swap2\n      swap1\n      dup3\n      swap1\n      sub\n      add\n      dup2\n        /* \"v2_periphery/UniswapV2Router02Part.sol\":8653:8662  msg.value */\n      dup6\n        /* \"v2_periphery/UniswapV2Router02Part.sol\":8679:8683  WETH */\n      dup9\n        /* \"v2_periphery/UniswapV2Router02Part.sol\":8673:8711  IWETH(WETH).deposit{value: amountIn}() */\n      dup1\n      extcodesize\n      iszero\n      dup1\n      iszero\n      tag_118\n      jumpi\n      0x00\n      dup1\n      revert\n    tag_118:\n      pop\n      gas\n      call\n      iszero\n      dup1\n      iszero\n      tag_120\n      jumpi\n      returndatasize\n      0x00\n      dup1\n      returndatacopy\n      revert(0x00, returndatasize)\n    tag_120:\n      pop\n      pop\n        /* \"v2_periphery/UniswapV2Router02Part.sol\":8735:8739  WETH */\n      sload(0x01)\n      0x00\n        /* \"v2_periphery/UniswapV2Router02Part.sol\":8775:8782  factory */\n      dup1\n      sload\n      sub(shl(0xa0, 0x01), 0x01)\n        /* \"v2_periphery/UniswapV2Router02Part.sol\":8735:8739  WETH */\n      swap3\n      dup4\n      and\n      swap6\n      pop\n        /* \"v2_periphery/UniswapV2Router02Part.sol\":8729:8749  IWETH(WETH).transfer */\n      0xa9059cbb\n      swap5\n      pop\n        /* \"v2_periphery/UniswapV2Router02Part.sol\":8750:8801  UniswapV2Library.pairFor(factory, path[0], path[1]) */\n      tag_121\n      swap4\n      pop\n        /* \"v2_periphery/UniswapV2Router02Part.sol\":8775:8782  factory */\n      swap1\n      swap2\n      and\n      swap1\n        /* \"v2_periphery/UniswapV2Router02Part.sol\":8784:8788  path */\n      dup11\n      swap1\n      dup11\n      swap1\n        /* \"v2_periphery/UniswapV2Router02Part.sol\":8784:8791  path[0] */\n      dup2\n      tag_42\n      jumpi\n      tag_42\n      tag_37\n      jump\t// in\n        /* \"v2_periphery/UniswapV2Router02Part.sol\":8750:8801  UniswapV2Library.pairFor(factory, path[0], path[1]) */\n    tag_121:\n        /* \"v2_periphery/UniswapV2Router02Part.sol\":8729:8812  IWETH(WETH).transfer(UniswapV2Library.pairFor(factory, path[0], path[1]), amountIn) */\n      mload(0x40)\n      not(sub(shl(0xe0, 0x01), 0x01))\n      0xe0\n      dup5\n      swap1\n      shl\n      and\n      dup2\n      mstore\n      sub(shl(0xa0, 0x01), 0x01)\n        /* \"#utility.yul\":4418:4450   */\n      swap1\n      swap2\n      and\n        /* \"v2_periphery/UniswapV2Router02Part.sol\":8729:8812  IWETH(WETH).transfer(UniswapV2Library.pairFor(factory, path[0], path[1]), amountIn) */\n      0x04\n      dup3\n      add\n        /* \"#utility.yul\":4400:4451   */\n      mstore\n        /* \"#utility.yul\":4467:4485   */\n      0x24\n      dup2\n      add\n        /* \"#utility.yul\":4460:4494   */\n      dup5\n      swap1\n      mstore\n        /* \"#utility.yul\":4373:4391   */\n      0x44\n      add\n        /* \"v2_periphery/UniswapV2Router02Part.sol\":8729:8812  IWETH(WETH).transfer(UniswapV2Library.pairFor(factory, path[0], path[1]), amountIn) */\n      0x20\n      mload(0x40)\n      dup1\n      dup4\n      sub\n      dup2\n      0x00\n      dup8\n      gas\n      call\n      iszero\n      dup1\n      iszero\n      tag_131\n      jumpi\n      returndatasize\n      0x00\n      dup1\n      returndatacopy\n      revert(0x00, returndatasize)\n    tag_131:\n      pop\n      pop\n      pop\n      pop\n      mload(0x40)\n      returndatasize\n      not(0x1f)\n      0x1f\n      dup3\n      add\n      and\n      dup3\n      add\n      dup1\n      0x40\n      mstore\n      pop\n      dup2\n      add\n      swap1\n      tag_132\n      swap2\n      swap1\n      tag_133\n      jump\t// in\n    tag_132:\n        /* \"v2_periphery/UniswapV2Router02Part.sol\":8722:8813  assert(IWETH(WETH).transfer(UniswapV2Library.pairFor(factory, path[0], path[1]), amountIn)) */\n      tag_135\n      jumpi\n      tag_135\n      tag_136\n      jump\t// in\n    tag_135:\n        /* \"v2_periphery/UniswapV2Router02Part.sol\":8824:8842  uint balanceBefore */\n      0x00\n        /* \"v2_periphery/UniswapV2Router02Part.sol\":8852:8856  path */\n      dup7\n      dup7\n        /* \"v2_periphery/UniswapV2Router02Part.sol\":8857:8872  path.length - 1 */\n      tag_137\n        /* \"v2_periphery/UniswapV2Router02Part.sol\":8871:8872  1 */\n      0x01\n        /* \"v2_periphery/UniswapV2Router02Part.sol\":8852:8856  path */\n      dup3\n        /* \"v2_periphery/UniswapV2Router02Part.sol\":8857:8872  path.length - 1 */\n      tag_50\n      jump\t// in\n    tag_137:\n        /* \"v2_periphery/UniswapV2Router02Part.sol\":8852:8873  path[path.length - 1] */\n      dup2\n      dup2\n      lt\n      tag_139\n      jumpi\n      tag_139\n      tag_37\n      jump\t// in\n    tag_139:\n      swap1\n      pop\n      0x20\n      mul\n      add\n      0x20\n      dup2\n      add\n      swap1\n      tag_140\n      swap2\n      swap1\n      tag_39\n      jump\t// in\n    tag_140:\n        /* \"v2_periphery/UniswapV2Router02Part.sol\":8845:8888  IERC20(path[path.length - 1]).balanceOf(to) */\n      mload(0x40)\n      shl(0xe0, 0x70a08231)\n      dup2\n      mstore\n      sub(shl(0xa0, 0x01), 0x01)\n        /* \"#utility.yul\":1450:1482   */\n      dup8\n      dup2\n      and\n        /* \"v2_periphery/UniswapV2Router02Part.sol\":8845:8888  IERC20(path[path.length - 1]).balanceOf(to) */\n      0x04\n      dup4\n      add\n        /* \"#utility.yul\":1432:1483   */\n      mstore\n        /* \"v2_periphery/UniswapV2Router02Part.sol\":8845:8884  IERC20(path[path.length - 1]).balanceOf */\n      swap2\n      swap1\n      swap2\n      and\n      swap1\n      0x70a08231\n      swap1\n        /* \"#utility.yul\":1405:1423   */\n      0x24\n      add\n        /* \"v2_periphery/UniswapV2Router02Part.sol\":8845:8888  IERC20(path[path.length - 1]).balanceOf(to) */\n      0x20\n      mload(0x40)\n      dup1\n      dup4\n      sub\n      dup2\n      dup7\n      gas\n      staticcall\n      iszero\n      dup1\n      iszero\n      tag_143\n      jumpi\n      returndatasize\n      0x00\n      dup1\n      returndatacopy\n      revert(0x00, returndatasize)\n    tag_143:\n      pop\n      pop\n      pop\n      pop\n      mload(0x40)\n      returndatasize\n      not(0x1f)\n      0x1f\n      dup3\n      add\n      and\n      dup3\n      add\n      dup1\n      0x40\n      mstore\n      pop\n      dup2\n      add\n      swap1\n      tag_144\n      swap2\n      swap1\n      tag_58\n      jump\t// in\n    tag_144:\n        /* \"v2_periphery/UniswapV2Router02Part.sol\":8824:8888  uint balanceBefore = IERC20(path[path.length - 1]).balanceOf(to) */\n      swap1\n      pop\n        /* \"v2_periphery/UniswapV2Router02Part.sol\":8899:8943  _swapSupportingFeeOnTransferTokens(path, to) */\n      tag_145\n        /* \"v2_periphery/UniswapV2Router02Part.sol\":8934:8938  path */\n      dup8\n      dup8\n        /* \"v2_periphery/UniswapV2Router02Part.sol\":8899:8943  _swapSupportingFeeOnTransferTokens(path, to) */\n      dup1\n      dup1\n      0x20\n      mul\n      0x20\n      add\n      mload(0x40)\n      swap1\n      dup2\n      add\n      0x40\n      mstore\n      dup1\n      swap4\n      swap3\n      swap2\n      swap1\n      dup2\n      dup2\n      mstore\n      0x20\n      add\n      dup4\n      dup4\n      0x20\n      mul\n      dup1\n      dup3\n      dup5\n      calldatacopy\n      0x00\n      swap3\n      add\n      swap2\n      swap1\n      swap2\n      mstore\n      pop\n        /* \"v2_periphery/UniswapV2Router02Part.sol\":8940:8942  to */\n      dup10\n      swap3\n      pop\n        /* \"v2_periphery/UniswapV2Router02Part.sol\":8899:8933  _swapSupportingFeeOnTransferTokens */\n      tag_60\n      swap2\n      pop\n      pop\n        /* \"v2_periphery/UniswapV2Router02Part.sol\":8899:8943  _swapSupportingFeeOnTransferTokens(path, to) */\n      jump\t// in\n    tag_145:\n        /* \"v2_periphery/UniswapV2Router02Part.sol\":9039:9051  amountOutMin */\n      dup8\n        /* \"v2_periphery/UniswapV2Router02Part.sol\":9022:9035  balanceBefore */\n      dup2\n        /* \"v2_periphery/UniswapV2Router02Part.sol\":8983:8987  path */\n      dup9\n      dup9\n        /* \"v2_periphery/UniswapV2Router02Part.sol\":8988:9003  path.length - 1 */\n      tag_146\n        /* \"v2_periphery/UniswapV2Router02Part.sol\":9002:9003  1 */\n      0x01\n        /* \"v2_periphery/UniswapV2Router02Part.sol\":8983:8987  path */\n      dup3\n        /* \"v2_periphery/UniswapV2Router02Part.sol\":8988:9003  path.length - 1 */\n      tag_50\n      jump\t// in\n    tag_146:\n        /* \"v2_periphery/UniswapV2Router02Part.sol\":8983:9004  path[path.length - 1] */\n      dup2\n      dup2\n      lt\n      tag_148\n      jumpi\n      tag_148\n      tag_37\n      jump\t// in\n    tag_148:\n      swap1\n      pop\n      0x20\n      mul\n      add\n      0x20\n      dup2\n      add\n      swap1\n      tag_149\n      swap2\n      swap1\n      tag_39\n      jump\t// in\n    tag_149:\n        /* \"v2_periphery/UniswapV2Router02Part.sol\":8976:9019  IERC20(path[path.length - 1]).balanceOf(to) */\n      mload(0x40)\n      shl(0xe0, 0x70a08231)\n      dup2\n      mstore\n      sub(shl(0xa0, 0x01), 0x01)\n        /* \"#utility.yul\":1450:1482   */\n      dup10\n      dup2\n      and\n        /* \"v2_periphery/UniswapV2Router02Part.sol\":8976:9019  IERC20(path[path.length - 1]).balanceOf(to) */\n      0x04\n      dup4\n      add\n        /* \"#utility.yul\":1432:1483   */\n      mstore\n        /* \"v2_periphery/UniswapV2Router02Part.sol\":8976:9015  IERC20(path[path.length - 1]).balanceOf */\n      swap2\n      swap1\n      swap2\n      and\n      swap1\n      0x70a08231\n      swap1\n        /* \"#utility.yul\":1405:1423   */\n      0x24\n      add\n        /* \"v2_periphery/UniswapV2Router02Part.sol\":8976:9019  IERC20(path[path.length - 1]).balanceOf(to) */\n      tag_65\n        /* \"#utility.yul\":1286:1489   */\n      jump\n        /* \"v2_periphery/libraries/UniswapV2Library.sol\":750:1237  function pairFor(address factory, address tokenA, address tokenB) internal pure returns (address pair) {... */\n    tag_47:\n        /* \"v2_periphery/libraries/UniswapV2Library.sol\":839:851  address pair */\n      0x00\n        /* \"v2_periphery/libraries/UniswapV2Library.sol\":865:879  address token0 */\n      dup1\n        /* \"v2_periphery/libraries/UniswapV2Library.sol\":881:895  address token1 */\n      0x00\n        /* \"v2_periphery/libraries/UniswapV2Library.sol\":899:925  sortTokens(tokenA, tokenB) */\n      tag_158\n        /* \"v2_periphery/libraries/UniswapV2Library.sol\":910:916  tokenA */\n      dup6\n        /* \"v2_periphery/libraries/UniswapV2Library.sol\":918:924  tokenB */\n      dup6\n        /* \"v2_periphery/libraries/UniswapV2Library.sol\":899:909  sortTokens */\n      tag_159\n        /* \"v2_periphery/libraries/UniswapV2Library.sol\":899:925  sortTokens(tokenA, tokenB) */\n      jump\t// in\n    tag_158:\n        /* \"v2_periphery/libraries/UniswapV2Library.sol\":1071:1103  abi.encodePacked(token0, token1) */\n      mload(0x40)\n      not(0xffffffffffffffffffffffff)\n        /* \"#utility.yul\":5146:5148   */\n      0x60\n        /* \"#utility.yul\":5142:5157   */\n      dup5\n      dup2\n      shl\n        /* \"#utility.yul\":5138:5162   */\n      dup3\n      and\n        /* \"v2_periphery/libraries/UniswapV2Library.sol\":1071:1103  abi.encodePacked(token0, token1) */\n      0x20\n      dup5\n      add\n        /* \"#utility.yul\":5126:5163   */\n      mstore\n        /* \"#utility.yul\":5197:5212   */\n      dup4\n      swap1\n      shl\n        /* \"#utility.yul\":5193:5217   */\n      and\n        /* \"#utility.yul\":5179:5191   */\n      0x34\n      dup3\n      add\n        /* \"#utility.yul\":5172:5218   */\n      mstore\n        /* \"v2_periphery/libraries/UniswapV2Library.sol\":864:925  (address token0, address token1) = sortTokens(tokenA, tokenB) */\n      swap2\n      swap4\n      pop\n      swap2\n      pop\n        /* \"v2_periphery/libraries/UniswapV2Library.sol\":1035:1042  factory */\n      dup7\n      swap1\n        /* \"#utility.yul\":5234:5246   */\n      0x48\n      add\n        /* \"v2_periphery/libraries/UniswapV2Library.sol\":1071:1103  abi.encodePacked(token0, token1) */\n      mload(0x40)\n      0x20\n      dup2\n      dup4\n      sub\n      sub\n      dup2\n      mstore\n      swap1\n      0x40\n      mstore\n        /* \"v2_periphery/libraries/UniswapV2Library.sol\":1061:1104  keccak256(abi.encodePacked(token0, token1)) */\n      dup1\n      mload\n      swap1\n      0x20\n      add\n      keccak256\n        /* \"v2_periphery/libraries/UniswapV2Library.sol\":974:1225  abi.encodePacked(... */\n      add(0x20, mload(0x40))\n      tag_162\n      swap3\n      swap2\n      swap1\n      not(sub(shl(0xf8, 0x01), 0x01))\n        /* \"#utility.yul\":5616:5642   */\n      dup2\n      mstore\n        /* \"#utility.yul\":5679:5681   */\n      0x60\n        /* \"#utility.yul\":5675:5690   */\n      swap3\n      swap1\n      swap3\n      shl\n      not(0xffffffffffffffffffffffff)\n        /* \"#utility.yul\":5671:5724   */\n      and\n        /* \"#utility.yul\":5667:5668   */\n      0x01\n        /* \"#utility.yul\":5658:5669   */\n      dup4\n      add\n        /* \"#utility.yul\":5651:5725   */\n      mstore\n        /* \"#utility.yul\":5750:5752   */\n      0x15\n        /* \"#utility.yul\":5741:5753   */\n      dup3\n      add\n        /* \"#utility.yul\":5734:5762   */\n      mstore\n        /* \"#utility.yul\":5792:5858   */\n      0x96e8ac4277198ff8b6f785478aa9a39f403cb768dd02cbee326c3e7da348845f\n        /* \"#utility.yul\":5787:5789   */\n      0x35\n        /* \"#utility.yul\":5778:5790   */\n      dup3\n      add\n        /* \"#utility.yul\":5771:5859   */\n      mstore\n        /* \"#utility.yul\":5884:5886   */\n      0x55\n        /* \"#utility.yul\":5875:5887   */\n      add\n      swap1\n        /* \"#utility.yul\":5257:5893   */\n      jump\n        /* \"v2_periphery/libraries/UniswapV2Library.sol\":974:1225  abi.encodePacked(... */\n    tag_162:\n      0x40\n      dup1\n      mload\n      not(0x1f)\n      dup2\n      dup5\n      sub\n      add\n      dup2\n      mstore\n      swap2\n      swap1\n      mstore\n        /* \"v2_periphery/libraries/UniswapV2Library.sol\":964:1226  keccak256(abi.encodePacked(... */\n      dup1\n      mload\n        /* \"v2_periphery/libraries/UniswapV2Library.sol\":974:1225  abi.encodePacked(... */\n      0x20\n        /* \"v2_periphery/libraries/UniswapV2Library.sol\":964:1226  keccak256(abi.encodePacked(... */\n      swap1\n      swap2\n      add\n      keccak256\n      swap7\n        /* \"v2_periphery/libraries/UniswapV2Library.sol\":750:1237  function pairFor(address factory, address tokenA, address tokenB) internal pure returns (address pair) {... */\n      swap6\n      pop\n      pop\n      pop\n      pop\n      pop\n      pop\n      jump\t// out\n        /* \"v2_periphery/libraries/TransferHelper.sol\":1116:1614  function safeTransferFrom(... */\n    tag_48:\n        /* \"v2_periphery/libraries/TransferHelper.sol\":1387:1438  abi.encodeWithSelector(0x23b872dd, from, to, value) */\n      0x40\n      dup1\n      mload\n      sub(shl(0xa0, 0x01), 0x01)\n        /* \"#utility.yul\":6156:6171   */\n      dup6\n      dup2\n      and\n        /* \"v2_periphery/libraries/TransferHelper.sol\":1387:1438  abi.encodeWithSelector(0x23b872dd, from, to, value) */\n      0x24\n      dup4\n      add\n        /* \"#utility.yul\":6138:6172   */\n      mstore\n        /* \"#utility.yul\":6208:6223   */\n      dup5\n      dup2\n      and\n        /* \"#utility.yul\":6188:6206   */\n      0x44\n      dup4\n      add\n        /* \"#utility.yul\":6181:6224   */\n      mstore\n        /* \"#utility.yul\":6240:6258   */\n      0x64\n      dup1\n      dup4\n      add\n        /* \"#utility.yul\":6233:6267   */\n      dup6\n      swap1\n      mstore\n        /* \"v2_periphery/libraries/TransferHelper.sol\":1387:1438  abi.encodeWithSelector(0x23b872dd, from, to, value) */\n      dup4\n      mload\n      dup1\n      dup5\n      sub\n      swap1\n      swap2\n      add\n      dup2\n      mstore\n        /* \"#utility.yul\":6073:6091   */\n      0x84\n      swap1\n      swap3\n      add\n        /* \"v2_periphery/libraries/TransferHelper.sol\":1387:1438  abi.encodeWithSelector(0x23b872dd, from, to, value) */\n      dup4\n      mstore\n      0x20\n      dup3\n      add\n      dup1\n      mload\n      sub(shl(0xe0, 0x01), 0x01)\n      and\n      shl(0xe0, 0x23b872dd)\n      or\n      swap1\n      mstore\n        /* \"v2_periphery/libraries/TransferHelper.sol\":1376:1439  token.call(abi.encodeWithSelector(0x23b872dd, from, to, value)) */\n      swap2\n      mload\n      0x00\n      swap3\n      dup4\n      swap3\n        /* \"v2_periphery/libraries/TransferHelper.sol\":1376:1386  token.call */\n      swap1\n      dup9\n      and\n      swap2\n        /* \"v2_periphery/libraries/TransferHelper.sol\":1376:1439  token.call(abi.encodeWithSelector(0x23b872dd, from, to, value)) */\n      tag_167\n      swap2\n        /* \"v2_periphery/libraries/TransferHelper.sol\":1387:1438  abi.encodeWithSelector(0x23b872dd, from, to, value) */\n      swap1\n        /* \"v2_periphery/libraries/TransferHelper.sol\":1376:1439  token.call(abi.encodeWithSelector(0x23b872dd, from, to, value)) */\n      tag_168\n      jump\t// in\n    tag_167:\n      0x00\n      mload(0x40)\n      dup1\n      dup4\n      sub\n      dup2\n      0x00\n      dup7\n      gas\n      call\n      swap2\n      pop\n      pop\n      returndatasize\n      dup1\n      0x00\n      dup2\n      eq\n      tag_171\n      jumpi\n      mload(0x40)\n      swap2\n      pop\n      and(add(returndatasize, 0x3f), not(0x1f))\n      dup3\n      add\n      0x40\n      mstore\n      returndatasize\n      dup3\n      mstore\n      returndatasize\n      0x00\n      0x20\n      dup5\n      add\n      returndatacopy\n      jump(tag_170)\n    tag_171:\n      0x60\n      swap2\n      pop\n    tag_170:\n      pop\n        /* \"v2_periphery/libraries/TransferHelper.sol\":1340:1439  (bool success, bytes memory data) = token.call(abi.encodeWithSelector(0x23b872dd, from, to, value)) */\n      swap2\n      pop\n      swap2\n      pop\n        /* \"v2_periphery/libraries/TransferHelper.sol\":1472:1479  success */\n      dup2\n        /* \"v2_periphery/libraries/TransferHelper.sol\":1472:1529  success && (data.length == 0 || abi.decode(data, (bool))) */\n      dup1\n      iszero\n      tag_174\n      jumpi\n      pop\n        /* \"v2_periphery/libraries/TransferHelper.sol\":1484:1495  data.length */\n      dup1\n      mload\n        /* \"v2_periphery/libraries/TransferHelper.sol\":1484:1500  data.length == 0 */\n      iszero\n      dup1\n        /* \"v2_periphery/libraries/TransferHelper.sol\":1484:1528  data.length == 0 || abi.decode(data, (bool)) */\n      tag_174\n      jumpi\n      pop\n        /* \"v2_periphery/libraries/TransferHelper.sol\":1515:1519  data */\n      dup1\n        /* \"v2_periphery/libraries/TransferHelper.sol\":1504:1528  abi.decode(data, (bool)) */\n      dup1\n      0x20\n      add\n      swap1\n      mload\n      dup2\n      add\n      swap1\n      tag_174\n      swap2\n      swap1\n      tag_133\n      jump\t// in\n    tag_174:\n        /* \"v2_periphery/libraries/TransferHelper.sol\":1450:1606  require(... */\n      tag_175\n      jumpi\n      mload(0x40)\n      shl(0xe5, 0x461bcd)\n      dup2\n      mstore\n        /* \"#utility.yul\":7022:7024   */\n      0x20\n        /* \"v2_periphery/libraries/TransferHelper.sol\":1450:1606  require(... */\n      0x04\n      dup3\n      add\n        /* \"#utility.yul\":7004:7025   */\n      mstore\n        /* \"#utility.yul\":7061:7063   */\n      0x31\n        /* \"#utility.yul\":7041:7059   */\n      0x24\n      dup3\n      add\n        /* \"#utility.yul\":7034:7064   */\n      mstore\n        /* \"#utility.yul\":7100:7134   */\n      0x5472616e7366657248656c7065723a3a7472616e7366657246726f6d3a207472\n        /* \"#utility.yul\":7080:7098   */\n      0x44\n      dup3\n      add\n        /* \"#utility.yul\":7073:7135   */\n      mstore\n      shl(0x7a, 0x185b9cd9995c919c9bdb4819985a5b1959)\n        /* \"#utility.yul\":7151:7169   */\n      0x64\n      dup3\n      add\n        /* \"#utility.yul\":7144:7191   */\n      mstore\n        /* \"#utility.yul\":7208:7227   */\n      0x84\n      add\n        /* \"v2_periphery/libraries/TransferHelper.sol\":1450:1606  require(... */\n      tag_31\n        /* \"#utility.yul\":6820:7233   */\n      jump\n        /* \"v2_periphery/libraries/TransferHelper.sol\":1450:1606  require(... */\n    tag_175:\n        /* \"v2_periphery/libraries/TransferHelper.sol\":1250:1614  {... */\n      pop\n      pop\n        /* \"v2_periphery/libraries/TransferHelper.sol\":1116:1614  function safeTransferFrom(... */\n      pop\n      pop\n      pop\n      pop\n      jump\t// out\n        /* \"v2_periphery/UniswapV2Router02Part.sol\":6364:7576  function _swapSupportingFeeOnTransferTokens(address[] memory path, address _to) internal virtual {... */\n    tag_60:\n        /* \"v2_periphery/UniswapV2Router02Part.sol\":6477:6483  uint i */\n      0x00\n        /* \"v2_periphery/UniswapV2Router02Part.sol\":6472:7569  for (uint i; i < path.length - 1; i++) {... */\n    tag_179:\n        /* \"v2_periphery/UniswapV2Router02Part.sol\":6503:6504  1 */\n      0x01\n        /* \"v2_periphery/UniswapV2Router02Part.sol\":6489:6493  path */\n      dup4\n        /* \"v2_periphery/UniswapV2Router02Part.sol\":6489:6500  path.length */\n      mload\n        /* \"v2_periphery/UniswapV2Router02Part.sol\":6489:6504  path.length - 1 */\n      tag_182\n      swap2\n      swap1\n      tag_50\n      jump\t// in\n    tag_182:\n        /* \"v2_periphery/UniswapV2Router02Part.sol\":6485:6486  i */\n      dup2\n        /* \"v2_periphery/UniswapV2Router02Part.sol\":6485:6504  i < path.length - 1 */\n      lt\n        /* \"v2_periphery/UniswapV2Router02Part.sol\":6472:7569  for (uint i; i < path.length - 1; i++) {... */\n      iszero\n      tag_180\n      jumpi\n        /* \"v2_periphery/UniswapV2Router02Part.sol\":6527:6540  address input */\n      0x00\n        /* \"v2_periphery/UniswapV2Router02Part.sol\":6542:6556  address output */\n      dup1\n        /* \"v2_periphery/UniswapV2Router02Part.sol\":6561:6565  path */\n      dup5\n        /* \"v2_periphery/UniswapV2Router02Part.sol\":6566:6567  i */\n      dup4\n        /* \"v2_periphery/UniswapV2Router02Part.sol\":6561:6568  path[i] */\n      dup2\n      mload\n      dup2\n      lt\n      tag_184\n      jumpi\n      tag_184\n      tag_37\n      jump\t// in\n    tag_184:\n      0x20\n      mul\n      0x20\n      add\n      add\n      mload\n        /* \"v2_periphery/UniswapV2Router02Part.sol\":6570:6574  path */\n      dup6\n        /* \"v2_periphery/UniswapV2Router02Part.sol\":6575:6576  i */\n      dup5\n        /* \"v2_periphery/UniswapV2Router02Part.sol\":6579:6580  1 */\n      0x01\n        /* \"v2_periphery/UniswapV2Router02Part.sol\":6575:6580  i + 1 */\n      tag_185\n      swap2\n      swap1\n      tag_186\n      jump\t// in\n    tag_185:\n        /* \"v2_periphery/UniswapV2Router02Part.sol\":6570:6581  path[i + 1] */\n      dup2\n      mload\n      dup2\n      lt\n      tag_188\n      jumpi\n      tag_188\n      tag_37\n      jump\t// in\n    tag_188:\n      0x20\n      mul\n      0x20\n      add\n      add\n      mload\n        /* \"v2_periphery/UniswapV2Router02Part.sol\":6526:6582  (address input, address output) = (path[i], path[i + 1]) */\n      swap2\n      pop\n      swap2\n      pop\n        /* \"v2_periphery/UniswapV2Router02Part.sol\":6598:6612  address token0 */\n      0x00\n        /* \"v2_periphery/UniswapV2Router02Part.sol\":6617:6659  UniswapV2Library.sortTokens(input, output) */\n      tag_189\n        /* \"v2_periphery/UniswapV2Router02Part.sol\":6645:6650  input */\n      dup4\n        /* \"v2_periphery/UniswapV2Router02Part.sol\":6652:6658  output */\n      dup4\n        /* \"v2_periphery/UniswapV2Router02Part.sol\":6617:6644  UniswapV2Library.sortTokens */\n      tag_159\n        /* \"v2_periphery/UniswapV2Router02Part.sol\":6617:6659  UniswapV2Library.sortTokens(input, output) */\n      jump\t// in\n    tag_189:\n      pop\n        /* \"v2_periphery/UniswapV2Router02Part.sol\":6674:6693  IUniswapV2Pair pair */\n      0x00\n        /* \"v2_periphery/UniswapV2Router02Part.sol\":6736:6743  factory */\n      dup1\n      sload\n        /* \"v2_periphery/UniswapV2Router02Part.sol\":6597:6659  (address token0,) = UniswapV2Library.sortTokens(input, output) */\n      swap2\n      swap3\n      pop\n        /* \"v2_periphery/UniswapV2Router02Part.sol\":6674:6693  IUniswapV2Pair pair */\n      swap1\n        /* \"v2_periphery/UniswapV2Router02Part.sol\":6711:6759  UniswapV2Library.pairFor(factory, input, output) */\n      tag_190\n      swap1\n      sub(shl(0xa0, 0x01), 0x01)\n        /* \"v2_periphery/UniswapV2Router02Part.sol\":6736:6743  factory */\n      and\n        /* \"v2_periphery/UniswapV2Router02Part.sol\":6745:6750  input */\n      dup6\n        /* \"v2_periphery/UniswapV2Router02Part.sol\":6752:6758  output */\n      dup6\n        /* \"v2_periphery/UniswapV2Router02Part.sol\":6711:6735  UniswapV2Library.pairFor */\n      tag_47\n        /* \"v2_periphery/UniswapV2Router02Part.sol\":6711:6759  UniswapV2Library.pairFor(factory, input, output) */\n      jump\t// in\n    tag_190:\n        /* \"v2_periphery/UniswapV2Router02Part.sol\":6674:6760  IUniswapV2Pair pair = IUniswapV2Pair(UniswapV2Library.pairFor(factory, input, output)) */\n      swap1\n      pop\n        /* \"v2_periphery/UniswapV2Router02Part.sol\":6775:6791  uint amountInput */\n      0x00\n        /* \"v2_periphery/UniswapV2Router02Part.sol\":6806:6823  uint amountOutput */\n      dup1\n        /* \"v2_periphery/UniswapV2Router02Part.sol\":6894:6907  uint reserve0 */\n      0x00\n        /* \"v2_periphery/UniswapV2Router02Part.sol\":6909:6922  uint reserve1 */\n      dup1\n        /* \"v2_periphery/UniswapV2Router02Part.sol\":6927:6931  pair */\n      dup5\n      sub(shl(0xa0, 0x01), 0x01)\n        /* \"v2_periphery/UniswapV2Router02Part.sol\":6927:6943  pair.getReserves */\n      and\n      0x0902f1ac\n        /* \"v2_periphery/UniswapV2Router02Part.sol\":6927:6945  pair.getReserves() */\n      mload(0x40)\n      dup2\n      0xffffffff\n      and\n      0xe0\n      shl\n      dup2\n      mstore\n      0x04\n      add\n      0x60\n      mload(0x40)\n      dup1\n      dup4\n      sub\n      dup2\n      dup7\n      gas\n      staticcall\n      iszero\n      dup1\n      iszero\n      tag_192\n      jumpi\n      returndatasize\n      0x00\n      dup1\n      returndatacopy\n      revert(0x00, returndatasize)\n    tag_192:\n      pop\n      pop\n      pop\n      pop\n      mload(0x40)\n      returndatasize\n      not(0x1f)\n      0x1f\n      dup3\n      add\n      and\n      dup3\n      add\n      dup1\n      0x40\n      mstore\n      pop\n      dup2\n      add\n      swap1\n      tag_193\n      swap2\n      swap1\n      tag_194\n      jump\t// in\n    tag_193:\n        /* \"v2_periphery/UniswapV2Router02Part.sol\":6893:6945  (uint reserve0, uint reserve1,) = pair.getReserves() */\n      pop\n      sub(shl(0x70, 0x01), 0x01)\n      and\n      swap2\n      pop\n      sub(shl(0x70, 0x01), 0x01)\n      and\n      swap2\n      pop\n        /* \"v2_periphery/UniswapV2Router02Part.sol\":6961:6978  uint reserveInput */\n      0x00\n        /* \"v2_periphery/UniswapV2Router02Part.sol\":6980:6998  uint reserveOutput */\n      dup1\n        /* \"v2_periphery/UniswapV2Router02Part.sol\":7011:7017  token0 */\n      dup8\n      sub(shl(0xa0, 0x01), 0x01)\n        /* \"v2_periphery/UniswapV2Router02Part.sol\":7002:7017  input == token0 */\n      and\n        /* \"v2_periphery/UniswapV2Router02Part.sol\":7002:7007  input */\n      dup11\n      sub(shl(0xa0, 0x01), 0x01)\n        /* \"v2_periphery/UniswapV2Router02Part.sol\":7002:7017  input == token0 */\n      and\n      eq\n        /* \"v2_periphery/UniswapV2Router02Part.sol\":7002:7063  input == token0 ? (reserve0, reserve1) : (reserve1, reserve0) */\n      tag_195\n      jumpi\n        /* \"v2_periphery/UniswapV2Router02Part.sol\":7044:7052  reserve1 */\n      dup3\n        /* \"v2_periphery/UniswapV2Router02Part.sol\":7054:7062  reserve0 */\n      dup5\n        /* \"v2_periphery/UniswapV2Router02Part.sol\":7002:7063  input == token0 ? (reserve0, reserve1) : (reserve1, reserve0) */\n      jump(tag_196)\n    tag_195:\n        /* \"v2_periphery/UniswapV2Router02Part.sol\":7021:7029  reserve0 */\n      dup4\n        /* \"v2_periphery/UniswapV2Router02Part.sol\":7031:7039  reserve1 */\n      dup4\n        /* \"v2_periphery/UniswapV2Router02Part.sol\":7002:7063  input == token0 ? (reserve0, reserve1) : (reserve1, reserve0) */\n    tag_196:\n        /* \"v2_periphery/UniswapV2Router02Part.sol\":7092:7130  IERC20(input).balanceOf(address(pair)) */\n      mload(0x40)\n      shl(0xe0, 0x70a08231)\n      dup2\n      mstore\n      sub(shl(0xa0, 0x01), 0x01)\n        /* \"#utility.yul\":1450:1482   */\n      dup11\n      dup2\n      and\n        /* \"v2_periphery/UniswapV2Router02Part.sol\":7092:7130  IERC20(input).balanceOf(address(pair)) */\n      0x04\n      dup4\n      add\n        /* \"#utility.yul\":1432:1483   */\n      mstore\n        /* \"v2_periphery/UniswapV2Router02Part.sol\":6960:7063  (uint reserveInput, uint reserveOutput) = input == token0 ? (reserve0, reserve1) : (reserve1, reserve0) */\n      swap3\n      swap5\n      pop\n      swap1\n      swap3\n      pop\n      dup4\n      swap2\n        /* \"v2_periphery/UniswapV2Router02Part.sol\":7092:7115  IERC20(input).balanceOf */\n      dup13\n      and\n      swap1\n      0x70a08231\n      swap1\n        /* \"#utility.yul\":1405:1423   */\n      0x24\n      add\n        /* \"v2_periphery/UniswapV2Router02Part.sol\":7092:7130  IERC20(input).balanceOf(address(pair)) */\n      0x20\n      mload(0x40)\n      dup1\n      dup4\n      sub\n      dup2\n      dup7\n      gas\n      staticcall\n      iszero\n      dup1\n      iszero\n      tag_199\n      jumpi\n      returndatasize\n      0x00\n      dup1\n      returndatacopy\n      revert(0x00, returndatasize)\n    tag_199:\n      pop\n      pop\n      pop\n      pop\n      mload(0x40)\n      returndatasize\n      not(0x1f)\n      0x1f\n      dup3\n      add\n      and\n      dup3\n      add\n      dup1\n      0x40\n      mstore\n      pop\n      dup2\n      add\n      swap1\n      tag_200\n      swap2\n      swap1\n      tag_58\n      jump\t// in\n    tag_200:\n        /* \"v2_periphery/UniswapV2Router02Part.sol\":7092:7145  IERC20(input).balanceOf(address(pair)) - reserveInput */\n      tag_201\n      swap2\n      swap1\n      tag_50\n      jump\t// in\n    tag_201:\n        /* \"v2_periphery/UniswapV2Router02Part.sol\":7078:7145  amountInput = IERC20(input).balanceOf(address(pair)) - reserveInput */\n      swap6\n      pop\n        /* \"v2_periphery/UniswapV2Router02Part.sol\":7176:7247  UniswapV2Library.getAmountOut(amountInput, reserveInput, reserveOutput) */\n      tag_202\n        /* \"v2_periphery/UniswapV2Router02Part.sol\":7206:7217  amountInput */\n      dup7\n        /* \"v2_periphery/UniswapV2Router02Part.sol\":7219:7231  reserveInput */\n      dup4\n        /* \"v2_periphery/UniswapV2Router02Part.sol\":7233:7246  reserveOutput */\n      dup4\n        /* \"v2_periphery/UniswapV2Router02Part.sol\":7176:7205  UniswapV2Library.getAmountOut */\n      tag_203\n        /* \"v2_periphery/UniswapV2Router02Part.sol\":7176:7247  UniswapV2Library.getAmountOut(amountInput, reserveInput, reserveOutput) */\n      jump\t// in\n    tag_202:\n        /* \"v2_periphery/UniswapV2Router02Part.sol\":7161:7247  amountOutput = UniswapV2Library.getAmountOut(amountInput, reserveInput, reserveOutput) */\n      swap5\n      pop\n        /* \"v2_periphery/UniswapV2Router02Part.sol\":6838:7263  { // scope to avoid stack too deep errors... */\n      pop\n      pop\n      pop\n      pop\n        /* \"v2_periphery/UniswapV2Router02Part.sol\":7278:7293  uint amount0Out */\n      0x00\n        /* \"v2_periphery/UniswapV2Router02Part.sol\":7295:7310  uint amount1Out */\n      dup1\n        /* \"v2_periphery/UniswapV2Router02Part.sol\":7323:7329  token0 */\n      dup6\n      sub(shl(0xa0, 0x01), 0x01)\n        /* \"v2_periphery/UniswapV2Router02Part.sol\":7314:7329  input == token0 */\n      and\n        /* \"v2_periphery/UniswapV2Router02Part.sol\":7314:7319  input */\n      dup9\n      sub(shl(0xa0, 0x01), 0x01)\n        /* \"v2_periphery/UniswapV2Router02Part.sol\":7314:7329  input == token0 */\n      and\n      eq\n        /* \"v2_periphery/UniswapV2Router02Part.sol\":7314:7381  input == token0 ? (uint(0), amountOutput) : (amountOutput, uint(0)) */\n      tag_204\n      jumpi\n        /* \"v2_periphery/UniswapV2Router02Part.sol\":7359:7371  amountOutput */\n      dup3\n        /* \"v2_periphery/UniswapV2Router02Part.sol\":7378:7379  0 */\n      0x00\n        /* \"v2_periphery/UniswapV2Router02Part.sol\":7314:7381  input == token0 ? (uint(0), amountOutput) : (amountOutput, uint(0)) */\n      jump(tag_205)\n    tag_204:\n        /* \"v2_periphery/UniswapV2Router02Part.sol\":7338:7339  0 */\n      0x00\n        /* \"v2_periphery/UniswapV2Router02Part.sol\":7342:7354  amountOutput */\n      dup4\n        /* \"v2_periphery/UniswapV2Router02Part.sol\":7314:7381  input == token0 ? (uint(0), amountOutput) : (amountOutput, uint(0)) */\n    tag_205:\n        /* \"v2_periphery/UniswapV2Router02Part.sol\":7277:7381  (uint amount0Out, uint amount1Out) = input == token0 ? (uint(0), amountOutput) : (amountOutput, uint(0)) */\n      swap2\n      pop\n      swap2\n      pop\n        /* \"v2_periphery/UniswapV2Router02Part.sol\":7396:7406  address to */\n      0x00\n        /* \"v2_periphery/UniswapV2Router02Part.sol\":7427:7428  2 */\n      0x02\n        /* \"v2_periphery/UniswapV2Router02Part.sol\":7413:7417  path */\n      dup13\n        /* \"v2_periphery/UniswapV2Router02Part.sol\":7413:7424  path.length */\n      mload\n        /* \"v2_periphery/UniswapV2Router02Part.sol\":7413:7428  path.length - 2 */\n      tag_206\n      swap2\n      swap1\n      tag_50\n      jump\t// in\n    tag_206:\n        /* \"v2_periphery/UniswapV2Router02Part.sol\":7409:7410  i */\n      dup11\n        /* \"v2_periphery/UniswapV2Router02Part.sol\":7409:7428  i < path.length - 2 */\n      lt\n        /* \"v2_periphery/UniswapV2Router02Part.sol\":7409:7491  i < path.length - 2 ? UniswapV2Library.pairFor(factory, output, path[i + 2]) : _to */\n      tag_207\n      jumpi\n        /* \"v2_periphery/UniswapV2Router02Part.sol\":7488:7491  _to */\n      dup11\n        /* \"v2_periphery/UniswapV2Router02Part.sol\":7409:7491  i < path.length - 2 ? UniswapV2Library.pairFor(factory, output, path[i + 2]) : _to */\n      jump(tag_209)\n    tag_207:\n        /* \"v2_periphery/UniswapV2Router02Part.sol\":7456:7463  factory */\n      sload(0x00)\n        /* \"v2_periphery/UniswapV2Router02Part.sol\":7431:7485  UniswapV2Library.pairFor(factory, output, path[i + 2]) */\n      tag_209\n      swap1\n      sub(shl(0xa0, 0x01), 0x01)\n        /* \"v2_periphery/UniswapV2Router02Part.sol\":7456:7463  factory */\n      and\n        /* \"v2_periphery/UniswapV2Router02Part.sol\":7465:7471  output */\n      dup10\n        /* \"v2_periphery/UniswapV2Router02Part.sol\":7473:7477  path */\n      dup15\n        /* \"v2_periphery/UniswapV2Router02Part.sol\":7478:7483  i + 2 */\n      tag_210\n        /* \"v2_periphery/UniswapV2Router02Part.sol\":7478:7479  i */\n      dup15\n        /* \"v2_periphery/UniswapV2Router02Part.sol\":7482:7483  2 */\n      0x02\n        /* \"v2_periphery/UniswapV2Router02Part.sol\":7478:7483  i + 2 */\n      tag_186\n      jump\t// in\n    tag_210:\n        /* \"v2_periphery/UniswapV2Router02Part.sol\":7473:7484  path[i + 2] */\n      dup2\n      mload\n      dup2\n      lt\n      tag_212\n      jumpi\n      tag_212\n      tag_37\n      jump\t// in\n    tag_212:\n      0x20\n      mul\n      0x20\n      add\n      add\n      mload\n        /* \"v2_periphery/UniswapV2Router02Part.sol\":7431:7455  UniswapV2Library.pairFor */\n      tag_47\n        /* \"v2_periphery/UniswapV2Router02Part.sol\":7431:7485  UniswapV2Library.pairFor(factory, output, path[i + 2]) */\n      jump\t// in\n    tag_209:\n        /* \"v2_periphery/UniswapV2Router02Part.sol\":7544:7556  new bytes(0) */\n      0x40\n      dup1\n      mload\n        /* \"v2_periphery/UniswapV2Router02Part.sol\":7554:7555  0 */\n      0x00\n        /* \"v2_periphery/UniswapV2Router02Part.sol\":7544:7556  new bytes(0) */\n      dup2\n      mstore\n      0x20\n      dup2\n      add\n      swap2\n      dup3\n      swap1\n      mstore\n      shl(0xe0, 0x022c0d9f)\n        /* \"v2_periphery/UniswapV2Router02Part.sol\":7506:7557  pair.swap(amount0Out, amount1Out, to, new bytes(0)) */\n      swap1\n      swap2\n      mstore\n        /* \"v2_periphery/UniswapV2Router02Part.sol\":7396:7491  address to = i < path.length - 2 ? UniswapV2Library.pairFor(factory, output, path[i + 2]) : _to */\n      swap1\n      swap2\n      pop\n      sub(shl(0xa0, 0x01), 0x01)\n        /* \"v2_periphery/UniswapV2Router02Part.sol\":7506:7515  pair.swap */\n      dup8\n      and\n      swap1\n      0x022c0d9f\n      swap1\n        /* \"v2_periphery/UniswapV2Router02Part.sol\":7506:7557  pair.swap(amount0Out, amount1Out, to, new bytes(0)) */\n      tag_217\n      swap1\n        /* \"v2_periphery/UniswapV2Router02Part.sol\":7516:7526  amount0Out */\n      dup7\n      swap1\n        /* \"v2_periphery/UniswapV2Router02Part.sol\":7528:7538  amount1Out */\n      dup7\n      swap1\n        /* \"v2_periphery/UniswapV2Router02Part.sol\":7396:7491  address to = i < path.length - 2 ? UniswapV2Library.pairFor(factory, output, path[i + 2]) : _to */\n      dup7\n      swap1\n        /* \"v2_periphery/UniswapV2Router02Part.sol\":7506:7557  pair.swap(amount0Out, amount1Out, to, new bytes(0)) */\n      0x24\n      dup2\n      add\n      tag_218\n      jump\t// in\n    tag_217:\n      0x00\n      mload(0x40)\n      dup1\n      dup4\n      sub\n      dup2\n      0x00\n      dup8\n      dup1\n      extcodesize\n      iszero\n      dup1\n      iszero\n      tag_219\n      jumpi\n      0x00\n      dup1\n      revert\n    tag_219:\n      pop\n      gas\n      call\n      iszero\n      dup1\n      iszero\n      tag_221\n      jumpi\n      returndatasize\n      0x00\n      dup1\n      returndatacopy\n      revert(0x00, returndatasize)\n    tag_221:\n      pop\n      pop\n      pop\n      pop\n        /* \"v2_periphery/UniswapV2Router02Part.sol\":6511:7569  {... */\n      pop\n      pop\n      pop\n      pop\n      pop\n      pop\n      pop\n      pop\n      pop\n        /* \"v2_periphery/UniswapV2Router02Part.sol\":6506:6509  i++ */\n      dup1\n      dup1\n      tag_222\n      swap1\n      tag_223\n      jump\t// in\n    tag_222:\n      swap2\n      pop\n      pop\n        /* \"v2_periphery/UniswapV2Router02Part.sol\":6472:7569  for (uint i; i < path.length - 1; i++) {... */\n      jump(tag_179)\n    tag_180:\n      pop\n        /* \"v2_periphery/UniswapV2Router02Part.sol\":6364:7576  function _swapSupportingFeeOnTransferTokens(address[] memory path, address _to) internal virtual {... */\n      pop\n      pop\n      jump\t// out\n        /* \"v2_periphery/libraries/TransferHelper.sol\":1622:1839  function safeTransferETH(address to, uint256 value) internal {... */\n    tag_108:\n        /* \"v2_periphery/libraries/TransferHelper.sol\":1735:1747  new bytes(0) */\n      0x40\n      dup1\n      mload\n        /* \"v2_periphery/libraries/TransferHelper.sol\":1695:1707  bool success */\n      0x00\n        /* \"v2_periphery/libraries/TransferHelper.sol\":1735:1747  new bytes(0) */\n      dup1\n      dup3\n      mstore\n      0x20\n      dup3\n      add\n      swap1\n      swap3\n      mstore\n      sub(shl(0xa0, 0x01), 0x01)\n        /* \"v2_periphery/libraries/TransferHelper.sol\":1713:1720  to.call */\n      dup5\n      and\n      swap1\n        /* \"v2_periphery/libraries/TransferHelper.sol\":1728:1733  value */\n      dup4\n      swap1\n        /* \"v2_periphery/libraries/TransferHelper.sol\":1713:1748  to.call{value: value}(new bytes(0)) */\n      mload(0x40)\n      tag_228\n      swap2\n      swap1\n      tag_168\n      jump\t// in\n    tag_228:\n      0x00\n      mload(0x40)\n      dup1\n      dup4\n      sub\n      dup2\n      dup6\n      dup8\n      gas\n      call\n      swap3\n      pop\n      pop\n      pop\n      returndatasize\n      dup1\n      0x00\n      dup2\n      eq\n      tag_231\n      jumpi\n      mload(0x40)\n      swap2\n      pop\n      and(add(returndatasize, 0x3f), not(0x1f))\n      dup3\n      add\n      0x40\n      mstore\n      returndatasize\n      dup3\n      mstore\n      returndatasize\n      0x00\n      0x20\n      dup5\n      add\n      returndatacopy\n      jump(tag_230)\n    tag_231:\n      0x60\n      swap2\n      pop\n    tag_230:\n      pop\n        /* \"v2_periphery/libraries/TransferHelper.sol\":1694:1748  (bool success, ) = to.call{value: value}(new bytes(0)) */\n      pop\n      swap1\n      pop\n        /* \"v2_periphery/libraries/TransferHelper.sol\":1767:1774  success */\n      dup1\n        /* \"v2_periphery/libraries/TransferHelper.sol\":1759:1831  require(success, 'TransferHelper::safeTransferETH: ETH transfer failed') */\n      tag_180\n      jumpi\n      mload(0x40)\n      shl(0xe5, 0x461bcd)\n      dup2\n      mstore\n        /* \"#utility.yul\":9122:9124   */\n      0x20\n        /* \"v2_periphery/libraries/TransferHelper.sol\":1759:1831  require(success, 'TransferHelper::safeTransferETH: ETH transfer failed') */\n      0x04\n      dup3\n      add\n        /* \"#utility.yul\":9104:9125   */\n      mstore\n        /* \"#utility.yul\":9161:9163   */\n      0x34\n        /* \"#utility.yul\":9141:9159   */\n      0x24\n      dup3\n      add\n        /* \"#utility.yul\":9134:9164   */\n      mstore\n        /* \"#utility.yul\":9200:9234   */\n      0x5472616e7366657248656c7065723a3a736166655472616e736665724554483a\n        /* \"#utility.yul\":9180:9198   */\n      0x44\n      dup3\n      add\n        /* \"#utility.yul\":9173:9235   */\n      mstore\n      shl(0x62, 0x08115512081d1c985b9cd9995c8819985a5b1959)\n        /* \"#utility.yul\":9251:9269   */\n      0x64\n      dup3\n      add\n        /* \"#utility.yul\":9244:9294   */\n      mstore\n        /* \"#utility.yul\":9311:9330   */\n      0x84\n      add\n        /* \"v2_periphery/libraries/TransferHelper.sol\":1759:1831  require(success, 'TransferHelper::safeTransferETH: ETH transfer failed') */\n      tag_31\n        /* \"#utility.yul\":8920:9336   */\n      jump\n        /* \"v2_periphery/libraries/UniswapV2Library.sol\":309:658  function sortTokens(address tokenA, address tokenB) internal pure returns (address token0, address token1) {... */\n    tag_159:\n        /* \"v2_periphery/libraries/UniswapV2Library.sol\":384:398  address token0 */\n      0x00\n        /* \"v2_periphery/libraries/UniswapV2Library.sol\":400:414  address token1 */\n      dup1\n        /* \"v2_periphery/libraries/UniswapV2Library.sol\":445:451  tokenB */\n      dup3\n      sub(shl(0xa0, 0x01), 0x01)\n        /* \"v2_periphery/libraries/UniswapV2Library.sol\":435:451  tokenA != tokenB */\n      and\n        /* \"v2_periphery/libraries/UniswapV2Library.sol\":435:441  tokenA */\n      dup5\n      sub(shl(0xa0, 0x01), 0x01)\n        /* \"v2_periphery/libraries/UniswapV2Library.sol\":435:451  tokenA != tokenB */\n      and\n      sub\n        /* \"v2_periphery/libraries/UniswapV2Library.sol\":427:493  require(tokenA != tokenB, 'UniswapV2Library: IDENTICAL_ADDRESSES') */\n      tag_236\n      jumpi\n      mload(0x40)\n      shl(0xe5, 0x461bcd)\n      dup2\n      mstore\n        /* \"#utility.yul\":9543:9545   */\n      0x20\n        /* \"v2_periphery/libraries/UniswapV2Library.sol\":427:493  require(tokenA != tokenB, 'UniswapV2Library: IDENTICAL_ADDRESSES') */\n      0x04\n      dup3\n      add\n        /* \"#utility.yul\":9525:9546   */\n      mstore\n        /* \"#utility.yul\":9582:9584   */\n      0x25\n        /* \"#utility.yul\":9562:9580   */\n      0x24\n      dup3\n      add\n        /* \"#utility.yul\":9555:9585   */\n      mstore\n        /* \"#utility.yul\":9621:9655   */\n      0x556e697377617056324c6962726172793a204944454e544943414c5f41444452\n        /* \"#utility.yul\":9601:9619   */\n      0x44\n      dup3\n      add\n        /* \"#utility.yul\":9594:9656   */\n      mstore\n      shl(0xd8, 0x4553534553)\n        /* \"#utility.yul\":9672:9690   */\n      0x64\n      dup3\n      add\n        /* \"#utility.yul\":9665:9700   */\n      mstore\n        /* \"#utility.yul\":9717:9736   */\n      0x84\n      add\n        /* \"v2_periphery/libraries/UniswapV2Library.sol\":427:493  require(tokenA != tokenB, 'UniswapV2Library: IDENTICAL_ADDRESSES') */\n      tag_31\n        /* \"#utility.yul\":9341:9742   */\n      jump\n        /* \"v2_periphery/libraries/UniswapV2Library.sol\":427:493  require(tokenA != tokenB, 'UniswapV2Library: IDENTICAL_ADDRESSES') */\n    tag_236:\n        /* \"v2_periphery/libraries/UniswapV2Library.sol\":532:538  tokenB */\n      dup3\n      sub(shl(0xa0, 0x01), 0x01)\n        /* \"v2_periphery/libraries/UniswapV2Library.sol\":523:538  tokenA < tokenB */\n      and\n        /* \"v2_periphery/libraries/UniswapV2Library.sol\":523:529  tokenA */\n      dup5\n      sub(shl(0xa0, 0x01), 0x01)\n        /* \"v2_periphery/libraries/UniswapV2Library.sol\":523:538  tokenA < tokenB */\n      and\n      lt\n        /* \"v2_periphery/libraries/UniswapV2Library.sol\":523:576  tokenA < tokenB ? (tokenA, tokenB) : (tokenB, tokenA) */\n      tag_239\n      jumpi\n        /* \"v2_periphery/libraries/UniswapV2Library.sol\":561:567  tokenB */\n      dup3\n        /* \"v2_periphery/libraries/UniswapV2Library.sol\":569:575  tokenA */\n      dup5\n        /* \"v2_periphery/libraries/UniswapV2Library.sol\":523:576  tokenA < tokenB ? (tokenA, tokenB) : (tokenB, tokenA) */\n      jump(tag_240)\n    tag_239:\n        /* \"v2_periphery/libraries/UniswapV2Library.sol\":542:548  tokenA */\n      dup4\n        /* \"v2_periphery/libraries/UniswapV2Library.sol\":550:556  tokenB */\n      dup4\n        /* \"v2_periphery/libraries/UniswapV2Library.sol\":523:576  tokenA < tokenB ? (tokenA, tokenB) : (tokenB, tokenA) */\n    tag_240:\n        /* \"v2_periphery/libraries/UniswapV2Library.sol\":504:576  (token0, token1) = tokenA < tokenB ? (tokenA, tokenB) : (tokenB, tokenA) */\n      swap1\n      swap3\n      pop\n      swap1\n      pop\n      sub(shl(0xa0, 0x01), 0x01)\n        /* \"v2_periphery/libraries/UniswapV2Library.sol\":595:615  token0 != address(0) */\n      dup3\n      and\n        /* \"v2_periphery/libraries/UniswapV2Library.sol\":587:650  require(token0 != address(0), 'UniswapV2Library: ZERO_ADDRESS') */\n      tag_241\n      jumpi\n      mload(0x40)\n      shl(0xe5, 0x461bcd)\n      dup2\n      mstore\n        /* \"#utility.yul\":9949:9951   */\n      0x20\n        /* \"v2_periphery/libraries/UniswapV2Library.sol\":587:650  require(token0 != address(0), 'UniswapV2Library: ZERO_ADDRESS') */\n      0x04\n      dup3\n      add\n        /* \"#utility.yul\":9931:9952   */\n      mstore\n        /* \"#utility.yul\":9988:9990   */\n      0x1e\n        /* \"#utility.yul\":9968:9986   */\n      0x24\n      dup3\n      add\n        /* \"#utility.yul\":9961:9991   */\n      mstore\n        /* \"#utility.yul\":10027:10059   */\n      0x556e697377617056324c6962726172793a205a45524f5f414444524553530000\n        /* \"#utility.yul\":10007:10025   */\n      0x44\n      dup3\n      add\n        /* \"#utility.yul\":10000:10060   */\n      mstore\n        /* \"#utility.yul\":10077:10095   */\n      0x64\n      add\n        /* \"v2_periphery/libraries/UniswapV2Library.sol\":587:650  require(token0 != address(0), 'UniswapV2Library: ZERO_ADDRESS') */\n      tag_31\n        /* \"#utility.yul\":9747:10101   */\n      jump\n        /* \"v2_periphery/libraries/UniswapV2Library.sol\":587:650  require(token0 != address(0), 'UniswapV2Library: ZERO_ADDRESS') */\n    tag_241:\n        /* \"v2_periphery/libraries/UniswapV2Library.sol\":309:658  function sortTokens(address tokenA, address tokenB) internal pure returns (address token0, address token1) {... */\n      swap3\n      pop\n      swap3\n      swap1\n      pop\n      jump\t// out\n        /* \"v2_periphery/libraries/UniswapV2Library.sol\":2241:2751  function getAmountOut(uint amountIn, uint reserveIn, uint reserveOut) internal pure returns (uint amountOut) {... */\n    tag_203:\n        /* \"v2_periphery/libraries/UniswapV2Library.sol\":2334:2348  uint amountOut */\n      0x00\n        /* \"v2_periphery/libraries/UniswapV2Library.sol\":2380:2381  0 */\n      dup1\n        /* \"v2_periphery/libraries/UniswapV2Library.sol\":2369:2377  amountIn */\n      dup5\n        /* \"v2_periphery/libraries/UniswapV2Library.sol\":2369:2381  amountIn > 0 */\n      gt\n        /* \"v2_periphery/libraries/UniswapV2Library.sol\":2361:2429  require(amountIn > 0, 'UniswapV2Library: INSUFFICIENT_INPUT_AMOUNT') */\n      tag_245\n      jumpi\n      mload(0x40)\n      shl(0xe5, 0x461bcd)\n      dup2\n      mstore\n        /* \"#utility.yul\":10308:10310   */\n      0x20\n        /* \"v2_periphery/libraries/UniswapV2Library.sol\":2361:2429  require(amountIn > 0, 'UniswapV2Library: INSUFFICIENT_INPUT_AMOUNT') */\n      0x04\n      dup3\n      add\n        /* \"#utility.yul\":10290:10311   */\n      mstore\n        /* \"#utility.yul\":10347:10349   */\n      0x2b\n        /* \"#utility.yul\":10327:10345   */\n      0x24\n      dup3\n      add\n        /* \"#utility.yul\":10320:10350   */\n      mstore\n        /* \"#utility.yul\":10386:10420   */\n      0x556e697377617056324c6962726172793a20494e53554646494349454e545f49\n        /* \"#utility.yul\":10366:10384   */\n      0x44\n      dup3\n      add\n        /* \"#utility.yul\":10359:10421   */\n      mstore\n      shl(0xaa, 0x1394155517d05353d55395)\n        /* \"#utility.yul\":10437:10455   */\n      0x64\n      dup3\n      add\n        /* \"#utility.yul\":10430:10471   */\n      mstore\n        /* \"#utility.yul\":10488:10507   */\n      0x84\n      add\n        /* \"v2_periphery/libraries/UniswapV2Library.sol\":2361:2429  require(amountIn > 0, 'UniswapV2Library: INSUFFICIENT_INPUT_AMOUNT') */\n      tag_31\n        /* \"#utility.yul\":10106:10513   */\n      jump\n        /* \"v2_periphery/libraries/UniswapV2Library.sol\":2361:2429  require(amountIn > 0, 'UniswapV2Library: INSUFFICIENT_INPUT_AMOUNT') */\n    tag_245:\n        /* \"v2_periphery/libraries/UniswapV2Library.sol\":2460:2461  0 */\n      0x00\n        /* \"v2_periphery/libraries/UniswapV2Library.sol\":2448:2457  reserveIn */\n      dup4\n        /* \"v2_periphery/libraries/UniswapV2Library.sol\":2448:2461  reserveIn > 0 */\n      gt\n        /* \"v2_periphery/libraries/UniswapV2Library.sol\":2448:2479  reserveIn > 0 && reserveOut > 0 */\n      dup1\n      iszero\n      tag_248\n      jumpi\n      pop\n        /* \"v2_periphery/libraries/UniswapV2Library.sol\":2478:2479  0 */\n      0x00\n        /* \"v2_periphery/libraries/UniswapV2Library.sol\":2465:2475  reserveOut */\n      dup3\n        /* \"v2_periphery/libraries/UniswapV2Library.sol\":2465:2479  reserveOut > 0 */\n      gt\n        /* \"v2_periphery/libraries/UniswapV2Library.sol\":2448:2479  reserveIn > 0 && reserveOut > 0 */\n    tag_248:\n        /* \"v2_periphery/libraries/UniswapV2Library.sol\":2440:2524  require(reserveIn > 0 && reserveOut > 0, 'UniswapV2Library: INSUFFICIENT_LIQUIDITY') */\n      tag_249\n      jumpi\n      mload(0x40)\n      shl(0xe5, 0x461bcd)\n      dup2\n      mstore\n        /* \"#utility.yul\":10720:10722   */\n      0x20\n        /* \"v2_periphery/libraries/UniswapV2Library.sol\":2440:2524  require(reserveIn > 0 && reserveOut > 0, 'UniswapV2Library: INSUFFICIENT_LIQUIDITY') */\n      0x04\n      dup3\n      add\n        /* \"#utility.yul\":10702:10723   */\n      mstore\n        /* \"#utility.yul\":10759:10761   */\n      0x28\n        /* \"#utility.yul\":10739:10757   */\n      0x24\n      dup3\n      add\n        /* \"#utility.yul\":10732:10762   */\n      mstore\n        /* \"#utility.yul\":10798:10832   */\n      0x556e697377617056324c6962726172793a20494e53554646494349454e545f4c\n        /* \"#utility.yul\":10778:10796   */\n      0x44\n      dup3\n      add\n        /* \"#utility.yul\":10771:10833   */\n      mstore\n      shl(0xc0, 0x4951554944495459)\n        /* \"#utility.yul\":10849:10867   */\n      0x64\n      dup3\n      add\n        /* \"#utility.yul\":10842:10880   */\n      mstore\n        /* \"#utility.yul\":10897:10916   */\n      0x84\n      add\n        /* \"v2_periphery/libraries/UniswapV2Library.sol\":2440:2524  require(reserveIn > 0 && reserveOut > 0, 'UniswapV2Library: INSUFFICIENT_LIQUIDITY') */\n      tag_31\n        /* \"#utility.yul\":10518:10922   */\n      jump\n        /* \"v2_periphery/libraries/UniswapV2Library.sol\":2440:2524  require(reserveIn > 0 && reserveOut > 0, 'UniswapV2Library: INSUFFICIENT_LIQUIDITY') */\n    tag_249:\n        /* \"v2_periphery/libraries/UniswapV2Library.sol\":2535:2555  uint amountInWithFee */\n      0x00\n        /* \"v2_periphery/libraries/UniswapV2Library.sol\":2558:2572  amountIn * 997 */\n      tag_252\n        /* \"v2_periphery/libraries/UniswapV2Library.sol\":2558:2566  amountIn */\n      dup6\n        /* \"v2_periphery/libraries/UniswapV2Library.sol\":2569:2572  997 */\n      0x03e5\n        /* \"v2_periphery/libraries/UniswapV2Library.sol\":2558:2572  amountIn * 997 */\n      tag_253\n      jump\t// in\n    tag_252:\n        /* \"v2_periphery/libraries/UniswapV2Library.sol\":2535:2572  uint amountInWithFee = amountIn * 997 */\n      swap1\n      pop\n        /* \"v2_periphery/libraries/UniswapV2Library.sol\":2584:2598  uint numerator */\n      0x00\n        /* \"v2_periphery/libraries/UniswapV2Library.sol\":2601:2629  amountInWithFee * reserveOut */\n      tag_254\n        /* \"v2_periphery/libraries/UniswapV2Library.sol\":2619:2629  reserveOut */\n      dup5\n        /* \"v2_periphery/libraries/UniswapV2Library.sol\":2535:2572  uint amountInWithFee = amountIn * 997 */\n      dup4\n        /* \"v2_periphery/libraries/UniswapV2Library.sol\":2601:2629  amountInWithFee * reserveOut */\n      tag_253\n      jump\t// in\n    tag_254:\n        /* \"v2_periphery/libraries/UniswapV2Library.sol\":2584:2629  uint numerator = amountInWithFee * reserveOut */\n      swap1\n      pop\n        /* \"v2_periphery/libraries/UniswapV2Library.sol\":2641:2657  uint denominator */\n      0x00\n        /* \"v2_periphery/libraries/UniswapV2Library.sol\":2681:2696  amountInWithFee */\n      dup3\n        /* \"v2_periphery/libraries/UniswapV2Library.sol\":2661:2677  reserveIn * 1000 */\n      tag_255\n        /* \"v2_periphery/libraries/UniswapV2Library.sol\":2661:2670  reserveIn */\n      dup8\n        /* \"v2_periphery/libraries/UniswapV2Library.sol\":2673:2677  1000 */\n      0x03e8\n        /* \"v2_periphery/libraries/UniswapV2Library.sol\":2661:2677  reserveIn * 1000 */\n      tag_253\n      jump\t// in\n    tag_255:\n        /* \"v2_periphery/libraries/UniswapV2Library.sol\":2660:2696  (reserveIn * 1000) + amountInWithFee */\n      tag_256\n      swap2\n      swap1\n      tag_186\n      jump\t// in\n    tag_256:\n        /* \"v2_periphery/libraries/UniswapV2Library.sol\":2641:2696  uint denominator = (reserveIn * 1000) + amountInWithFee */\n      swap1\n      pop\n        /* \"v2_periphery/libraries/UniswapV2Library.sol\":2720:2743  numerator / denominator */\n      tag_257\n        /* \"v2_periphery/libraries/UniswapV2Library.sol\":2641:2696  uint denominator = (reserveIn * 1000) + amountInWithFee */\n      dup2\n        /* \"v2_periphery/libraries/UniswapV2Library.sol\":2720:2729  numerator */\n      dup4\n        /* \"v2_periphery/libraries/UniswapV2Library.sol\":2720:2743  numerator / denominator */\n      tag_258\n      jump\t// in\n    tag_257:\n        /* \"v2_periphery/libraries/UniswapV2Library.sol\":2708:2743  amountOut = numerator / denominator */\n      swap8\n        /* \"v2_periphery/libraries/UniswapV2Library.sol\":2241:2751  function getAmountOut(uint amountIn, uint reserveIn, uint reserveOut) internal pure returns (uint amountOut) {... */\n      swap7\n      pop\n      pop\n      pop\n      pop\n      pop\n      pop\n      pop\n      jump\t// out\n        /* \"#utility.yul\":14:381   */\n    tag_259:\n        /* \"#utility.yul\":77:85   */\n      0x00\n        /* \"#utility.yul\":87:93   */\n      dup1\n        /* \"#utility.yul\":141:144   */\n      dup4\n        /* \"#utility.yul\":134:138   */\n      0x1f\n        /* \"#utility.yul\":126:132   */\n      dup5\n        /* \"#utility.yul\":122:139   */\n      add\n        /* \"#utility.yul\":118:145   */\n      slt\n        /* \"#utility.yul\":108:163   */\n      tag_266\n      jumpi\n        /* \"#utility.yul\":159:160   */\n      0x00\n        /* \"#utility.yul\":156:157   */\n      dup1\n        /* \"#utility.yul\":149:161   */\n      revert\n        /* \"#utility.yul\":108:163   */\n    tag_266:\n      pop\n        /* \"#utility.yul\":182:202   */\n      dup2\n      calldataload\n        /* \"#utility.yul\":225:243   */\n      0xffffffffffffffff\n        /* \"#utility.yul\":214:244   */\n      dup2\n      gt\n        /* \"#utility.yul\":211:261   */\n      iszero\n      tag_267\n      jumpi\n        /* \"#utility.yul\":257:258   */\n      0x00\n        /* \"#utility.yul\":254:255   */\n      dup1\n        /* \"#utility.yul\":247:259   */\n      revert\n        /* \"#utility.yul\":211:261   */\n    tag_267:\n        /* \"#utility.yul\":294:298   */\n      0x20\n        /* \"#utility.yul\":286:292   */\n      dup4\n        /* \"#utility.yul\":282:299   */\n      add\n        /* \"#utility.yul\":270:299   */\n      swap2\n      pop\n        /* \"#utility.yul\":354:357   */\n      dup4\n        /* \"#utility.yul\":347:351   */\n      0x20\n        /* \"#utility.yul\":337:343   */\n      dup3\n        /* \"#utility.yul\":334:335   */\n      0x05\n        /* \"#utility.yul\":330:344   */\n      shl\n        /* \"#utility.yul\":322:328   */\n      dup6\n        /* \"#utility.yul\":318:345   */\n      add\n        /* \"#utility.yul\":314:352   */\n      add\n        /* \"#utility.yul\":311:358   */\n      gt\n        /* \"#utility.yul\":308:375   */\n      iszero\n      tag_241\n      jumpi\n        /* \"#utility.yul\":371:372   */\n      0x00\n        /* \"#utility.yul\":368:369   */\n      dup1\n        /* \"#utility.yul\":361:373   */\n      revert\n        /* \"#utility.yul\":386:559   */\n    tag_260:\n        /* \"#utility.yul\":454:474   */\n      dup1\n      calldataload\n      sub(shl(0xa0, 0x01), 0x01)\n        /* \"#utility.yul\":503:534   */\n      dup2\n      and\n        /* \"#utility.yul\":493:535   */\n      dup2\n      eq\n        /* \"#utility.yul\":483:553   */\n      tag_270\n      jumpi\n        /* \"#utility.yul\":549:550   */\n      0x00\n        /* \"#utility.yul\":546:547   */\n      dup1\n        /* \"#utility.yul\":539:551   */\n      revert\n        /* \"#utility.yul\":483:553   */\n    tag_270:\n        /* \"#utility.yul\":386:559   */\n      swap2\n      swap1\n      pop\n      jump\t// out\n        /* \"#utility.yul\":564:1281   */\n    tag_10:\n        /* \"#utility.yul\":686:692   */\n      0x00\n        /* \"#utility.yul\":694:700   */\n      dup1\n        /* \"#utility.yul\":702:708   */\n      0x00\n        /* \"#utility.yul\":710:716   */\n      dup1\n        /* \"#utility.yul\":718:724   */\n      0x00\n        /* \"#utility.yul\":726:732   */\n      dup1\n        /* \"#utility.yul\":779:782   */\n      0xa0\n        /* \"#utility.yul\":767:776   */\n      dup8\n        /* \"#utility.yul\":758:765   */\n      dup10\n        /* \"#utility.yul\":754:777   */\n      sub\n        /* \"#utility.yul\":750:783   */\n      slt\n        /* \"#utility.yul\":747:800   */\n      iszero\n      tag_272\n      jumpi\n        /* \"#utility.yul\":796:797   */\n      0x00\n        /* \"#utility.yul\":793:794   */\n      dup1\n        /* \"#utility.yul\":786:798   */\n      revert\n        /* \"#utility.yul\":747:800   */\n    tag_272:\n        /* \"#utility.yul\":832:841   */\n      dup7\n        /* \"#utility.yul\":819:842   */\n      calldataload\n        /* \"#utility.yul\":809:842   */\n      swap6\n      pop\n        /* \"#utility.yul\":889:891   */\n      0x20\n        /* \"#utility.yul\":878:887   */\n      dup8\n        /* \"#utility.yul\":874:892   */\n      add\n        /* \"#utility.yul\":861:893   */\n      calldataload\n        /* \"#utility.yul\":851:893   */\n      swap5\n      pop\n        /* \"#utility.yul\":944:946   */\n      0x40\n        /* \"#utility.yul\":933:942   */\n      dup8\n        /* \"#utility.yul\":929:947   */\n      add\n        /* \"#utility.yul\":916:948   */\n      calldataload\n        /* \"#utility.yul\":971:989   */\n      0xffffffffffffffff\n        /* \"#utility.yul\":963:969   */\n      dup2\n        /* \"#utility.yul\":960:990   */\n      gt\n        /* \"#utility.yul\":957:1007   */\n      iszero\n      tag_273\n      jumpi\n        /* \"#utility.yul\":1003:1004   */\n      0x00\n        /* \"#utility.yul\":1000:1001   */\n      dup1\n        /* \"#utility.yul\":993:1005   */\n      revert\n        /* \"#utility.yul\":957:1007   */\n    tag_273:\n        /* \"#utility.yul\":1042:1112   */\n      tag_274\n        /* \"#utility.yul\":1104:1111   */\n      dup10\n        /* \"#utility.yul\":1095:1101   */\n      dup3\n        /* \"#utility.yul\":1084:1093   */\n      dup11\n        /* \"#utility.yul\":1080:1102   */\n      add\n        /* \"#utility.yul\":1042:1112   */\n      tag_259\n      jump\t// in\n    tag_274:\n        /* \"#utility.yul\":1131:1139   */\n      swap1\n      swap6\n      pop\n        /* \"#utility.yul\":1016:1112   */\n      swap4\n      pop\n        /* \"#utility.yul\":1185:1223   */\n      tag_275\n      swap1\n      pop\n        /* \"#utility.yul\":1219:1221   */\n      0x60\n        /* \"#utility.yul\":1204:1222   */\n      dup9\n      add\n        /* \"#utility.yul\":1185:1223   */\n      tag_260\n      jump\t// in\n    tag_275:\n        /* \"#utility.yul\":1175:1223   */\n      swap2\n      pop\n        /* \"#utility.yul\":1270:1273   */\n      0x80\n        /* \"#utility.yul\":1259:1268   */\n      dup8\n        /* \"#utility.yul\":1255:1274   */\n      add\n        /* \"#utility.yul\":1242:1275   */\n      calldataload\n        /* \"#utility.yul\":1232:1275   */\n      swap1\n      pop\n        /* \"#utility.yul\":564:1281   */\n      swap3\n      swap6\n      pop\n      swap3\n      swap6\n      pop\n      swap3\n      swap6\n      jump\t// out\n        /* \"#utility.yul\":1494:2142   */\n    tag_23:\n        /* \"#utility.yul\":1607:1613   */\n      0x00\n        /* \"#utility.yul\":1615:1621   */\n      dup1\n        /* \"#utility.yul\":1623:1629   */\n      0x00\n        /* \"#utility.yul\":1631:1637   */\n      dup1\n        /* \"#utility.yul\":1639:1645   */\n      0x00\n        /* \"#utility.yul\":1692:1695   */\n      0x80\n        /* \"#utility.yul\":1680:1689   */\n      dup7\n        /* \"#utility.yul\":1671:1678   */\n      dup9\n        /* \"#utility.yul\":1667:1690   */\n      sub\n        /* \"#utility.yul\":1663:1696   */\n      slt\n        /* \"#utility.yul\":1660:1713   */\n      iszero\n      tag_278\n      jumpi\n        /* \"#utility.yul\":1709:1710   */\n      0x00\n        /* \"#utility.yul\":1706:1707   */\n      dup1\n        /* \"#utility.yul\":1699:1711   */\n      revert\n        /* \"#utility.yul\":1660:1713   */\n    tag_278:\n        /* \"#utility.yul\":1745:1754   */\n      dup6\n        /* \"#utility.yul\":1732:1755   */\n      calldataload\n        /* \"#utility.yul\":1722:1755   */\n      swap5\n      pop\n        /* \"#utility.yul\":1806:1808   */\n      0x20\n        /* \"#utility.yul\":1795:1804   */\n      dup7\n        /* \"#utility.yul\":1791:1809   */\n      add\n        /* \"#utility.yul\":1778:1810   */\n      calldataload\n        /* \"#utility.yul\":1833:1851   */\n      0xffffffffffffffff\n        /* \"#utility.yul\":1825:1831   */\n      dup2\n        /* \"#utility.yul\":1822:1852   */\n      gt\n        /* \"#utility.yul\":1819:1869   */\n      iszero\n      tag_279\n      jumpi\n        /* \"#utility.yul\":1865:1866   */\n      0x00\n        /* \"#utility.yul\":1862:1863   */\n      dup1\n        /* \"#utility.yul\":1855:1867   */\n      revert\n        /* \"#utility.yul\":1819:1869   */\n    tag_279:\n        /* \"#utility.yul\":1904:1974   */\n      tag_280\n        /* \"#utility.yul\":1966:1973   */\n      dup9\n        /* \"#utility.yul\":1957:1963   */\n      dup3\n        /* \"#utility.yul\":1946:1955   */\n      dup10\n        /* \"#utility.yul\":1942:1964   */\n      add\n        /* \"#utility.yul\":1904:1974   */\n      tag_259\n      jump\t// in\n    tag_280:\n        /* \"#utility.yul\":1993:2001   */\n      swap1\n      swap6\n      pop\n        /* \"#utility.yul\":1878:1974   */\n      swap4\n      pop\n        /* \"#utility.yul\":2047:2085   */\n      tag_281\n      swap1\n      pop\n        /* \"#utility.yul\":2081:2083   */\n      0x40\n        /* \"#utility.yul\":2066:2084   */\n      dup8\n      add\n        /* \"#utility.yul\":2047:2085   */\n      tag_260\n      jump\t// in\n    tag_281:\n        /* \"#utility.yul\":1494:2142   */\n      swap5\n      swap8\n      swap4\n      swap7\n      pop\n      swap2\n      swap5\n        /* \"#utility.yul\":2132:2134   */\n      0x60\n        /* \"#utility.yul\":2117:2135   */\n      add\n        /* \"#utility.yul\":2104:2136   */\n      calldataload\n      swap3\n        /* \"#utility.yul\":1494:2142   */\n      swap2\n      pop\n      pop\n      jump\t// out\n        /* \"#utility.yul\":2147:2495   */\n    tag_32:\n        /* \"#utility.yul\":2349:2351   */\n      0x20\n        /* \"#utility.yul\":2331:2352   */\n      dup1\n      dup3\n      mstore\n        /* \"#utility.yul\":2388:2390   */\n      0x18\n        /* \"#utility.yul\":2368:2386   */\n      swap1\n      dup3\n      add\n        /* \"#utility.yul\":2361:2391   */\n      mstore\n        /* \"#utility.yul\":2427:2453   */\n      0x556e69737761705632526f757465723a20455850495245440000000000000000\n        /* \"#utility.yul\":2422:2424   */\n      0x40\n        /* \"#utility.yul\":2407:2425   */\n      dup3\n      add\n        /* \"#utility.yul\":2400:2454   */\n      mstore\n        /* \"#utility.yul\":2486:2488   */\n      0x60\n        /* \"#utility.yul\":2471:2489   */\n      add\n      swap1\n        /* \"#utility.yul\":2147:2495   */\n      jump\t// out\n        /* \"#utility.yul\":2500:2627   */\n    tag_37:\n        /* \"#utility.yul\":2561:2571   */\n      0x4e487b71\n        /* \"#utility.yul\":2556:2559   */\n      0xe0\n        /* \"#utility.yul\":2552:2572   */\n      shl\n        /* \"#utility.yul\":2549:2550   */\n      0x00\n        /* \"#utility.yul\":2542:2573   */\n      mstore\n        /* \"#utility.yul\":2592:2596   */\n      0x32\n        /* \"#utility.yul\":2589:2590   */\n      0x04\n        /* \"#utility.yul\":2582:2597   */\n      mstore\n        /* \"#utility.yul\":2616:2620   */\n      0x24\n        /* \"#utility.yul\":2613:2614   */\n      0x00\n        /* \"#utility.yul\":2606:2621   */\n      revert\n        /* \"#utility.yul\":2632:2818   */\n    tag_39:\n        /* \"#utility.yul\":2691:2697   */\n      0x00\n        /* \"#utility.yul\":2744:2746   */\n      0x20\n        /* \"#utility.yul\":2732:2741   */\n      dup3\n        /* \"#utility.yul\":2723:2730   */\n      dup5\n        /* \"#utility.yul\":2719:2742   */\n      sub\n        /* \"#utility.yul\":2715:2747   */\n      slt\n        /* \"#utility.yul\":2712:2764   */\n      iszero\n      tag_285\n      jumpi\n        /* \"#utility.yul\":2760:2761   */\n      0x00\n        /* \"#utility.yul\":2757:2758   */\n      dup1\n        /* \"#utility.yul\":2750:2762   */\n      revert\n        /* \"#utility.yul\":2712:2764   */\n    tag_285:\n        /* \"#utility.yul\":2783:2812   */\n      tag_286\n        /* \"#utility.yul\":2802:2811   */\n      dup3\n        /* \"#utility.yul\":2783:2812   */\n      tag_260\n      jump\t// in\n    tag_286:\n        /* \"#utility.yul\":2773:2812   */\n      swap4\n        /* \"#utility.yul\":2632:2818   */\n      swap3\n      pop\n      pop\n      pop\n      jump\t// out\n        /* \"#utility.yul\":2823:2950   */\n    tag_261:\n        /* \"#utility.yul\":2884:2894   */\n      0x4e487b71\n        /* \"#utility.yul\":2879:2882   */\n      0xe0\n        /* \"#utility.yul\":2875:2895   */\n      shl\n        /* \"#utility.yul\":2872:2873   */\n      0x00\n        /* \"#utility.yul\":2865:2896   */\n      mstore\n        /* \"#utility.yul\":2915:2919   */\n      0x11\n        /* \"#utility.yul\":2912:2913   */\n      0x04\n        /* \"#utility.yul\":2905:2920   */\n      mstore\n        /* \"#utility.yul\":2939:2943   */\n      0x24\n        /* \"#utility.yul\":2936:2937   */\n      0x00\n        /* \"#utility.yul\":2929:2944   */\n      revert\n        /* \"#utility.yul\":2955:3080   */\n    tag_50:\n        /* \"#utility.yul\":2995:2999   */\n      0x00\n        /* \"#utility.yul\":3023:3024   */\n      dup3\n        /* \"#utility.yul\":3020:3021   */\n      dup3\n        /* \"#utility.yul\":3017:3025   */\n      lt\n        /* \"#utility.yul\":3014:3048   */\n      iszero\n      tag_290\n      jumpi\n        /* \"#utility.yul\":3028:3046   */\n      tag_290\n      tag_261\n      jump\t// in\n    tag_290:\n      pop\n        /* \"#utility.yul\":3065:3074   */\n      sub\n      swap1\n        /* \"#utility.yul\":2955:3080   */\n      jump\t// out\n        /* \"#utility.yul\":3085:3269   */\n    tag_58:\n        /* \"#utility.yul\":3155:3161   */\n      0x00\n        /* \"#utility.yul\":3208:3210   */\n      0x20\n        /* \"#utility.yul\":3196:3205   */\n      dup3\n        /* \"#utility.yul\":3187:3194   */\n      dup5\n        /* \"#utility.yul\":3183:3206   */\n      sub\n        /* \"#utility.yul\":3179:3211   */\n      slt\n        /* \"#utility.yul\":3176:3228   */\n      iszero\n      tag_292\n      jumpi\n        /* \"#utility.yul\":3224:3225   */\n      0x00\n        /* \"#utility.yul\":3221:3222   */\n      dup1\n        /* \"#utility.yul\":3214:3226   */\n      revert\n        /* \"#utility.yul\":3176:3228   */\n    tag_292:\n      pop\n        /* \"#utility.yul\":3247:3263   */\n      mload\n      swap2\n        /* \"#utility.yul\":3085:3269   */\n      swap1\n      pop\n      jump\t// out\n        /* \"#utility.yul\":3274:3681   */\n    tag_72:\n        /* \"#utility.yul\":3476:3478   */\n      0x20\n        /* \"#utility.yul\":3458:3479   */\n      dup1\n      dup3\n      mstore\n        /* \"#utility.yul\":3515:3517   */\n      0x2b\n        /* \"#utility.yul\":3495:3513   */\n      swap1\n      dup3\n      add\n        /* \"#utility.yul\":3488:3518   */\n      mstore\n        /* \"#utility.yul\":3554:3588   */\n      0x556e69737761705632526f757465723a20494e53554646494349454e545f4f55\n        /* \"#utility.yul\":3549:3551   */\n      0x40\n        /* \"#utility.yul\":3534:3552   */\n      dup3\n      add\n        /* \"#utility.yul\":3527:3589   */\n      mstore\n      shl(0xaa, 0x1514155517d05353d55395)\n        /* \"#utility.yul\":3620:3622   */\n      0x60\n        /* \"#utility.yul\":3605:3623   */\n      dup3\n      add\n        /* \"#utility.yul\":3598:3639   */\n      mstore\n        /* \"#utility.yul\":3671:3674   */\n      0x80\n        /* \"#utility.yul\":3656:3675   */\n      add\n      swap1\n        /* \"#utility.yul\":3274:3681   */\n      jump\t// out\n        /* \"#utility.yul\":4505:4782   */\n    tag_133:\n        /* \"#utility.yul\":4572:4578   */\n      0x00\n        /* \"#utility.yul\":4625:4627   */\n      0x20\n        /* \"#utility.yul\":4613:4622   */\n      dup3\n        /* \"#utility.yul\":4604:4611   */\n      dup5\n        /* \"#utility.yul\":4600:4623   */\n      sub\n        /* \"#utility.yul\":4596:4628   */\n      slt\n        /* \"#utility.yul\":4593:4645   */\n      iszero\n      tag_298\n      jumpi\n        /* \"#utility.yul\":4641:4642   */\n      0x00\n        /* \"#utility.yul\":4638:4639   */\n      dup1\n        /* \"#utility.yul\":4631:4643   */\n      revert\n        /* \"#utility.yul\":4593:4645   */\n    tag_298:\n        /* \"#utility.yul\":4673:4682   */\n      dup2\n        /* \"#utility.yul\":4667:4683   */\n      mload\n        /* \"#utility.yul\":4726:4731   */\n      dup1\n        /* \"#utility.yul\":4719:4732   */\n      iszero\n        /* \"#utility.yul\":4712:4733   */\n      iszero\n        /* \"#utility.yul\":4705:4710   */\n      dup2\n        /* \"#utility.yul\":4702:4734   */\n      eq\n        /* \"#utility.yul\":4692:4752   */\n      tag_286\n      jumpi\n        /* \"#utility.yul\":4748:4749   */\n      0x00\n        /* \"#utility.yul\":4745:4746   */\n      dup1\n        /* \"#utility.yul\":4738:4750   */\n      revert\n        /* \"#utility.yul\":4787:4914   */\n    tag_136:\n        /* \"#utility.yul\":4848:4858   */\n      0x4e487b71\n        /* \"#utility.yul\":4843:4846   */\n      0xe0\n        /* \"#utility.yul\":4839:4859   */\n      shl\n        /* \"#utility.yul\":4836:4837   */\n      0x00\n        /* \"#utility.yul\":4829:4860   */\n      mstore\n        /* \"#utility.yul\":4879:4883   */\n      0x01\n        /* \"#utility.yul\":4876:4877   */\n      0x04\n        /* \"#utility.yul\":4869:4884   */\n      mstore\n        /* \"#utility.yul\":4903:4907   */\n      0x24\n        /* \"#utility.yul\":4900:4901   */\n      0x00\n        /* \"#utility.yul\":4893:4908   */\n      revert\n        /* \"#utility.yul\":6278:6536   */\n    tag_262:\n        /* \"#utility.yul\":6350:6351   */\n      0x00\n        /* \"#utility.yul\":6360:6473   */\n    tag_305:\n        /* \"#utility.yul\":6374:6380   */\n      dup4\n        /* \"#utility.yul\":6371:6372   */\n      dup2\n        /* \"#utility.yul\":6368:6381   */\n      lt\n        /* \"#utility.yul\":6360:6473   */\n      iszero\n      tag_307\n      jumpi\n        /* \"#utility.yul\":6450:6461   */\n      dup2\n      dup2\n      add\n        /* \"#utility.yul\":6444:6462   */\n      mload\n        /* \"#utility.yul\":6431:6442   */\n      dup4\n      dup3\n      add\n        /* \"#utility.yul\":6424:6463   */\n      mstore\n        /* \"#utility.yul\":6396:6398   */\n      0x20\n        /* \"#utility.yul\":6389:6399   */\n      add\n        /* \"#utility.yul\":6360:6473   */\n      jump(tag_305)\n    tag_307:\n        /* \"#utility.yul\":6491:6497   */\n      dup4\n        /* \"#utility.yul\":6488:6489   */\n      dup2\n        /* \"#utility.yul\":6485:6498   */\n      gt\n        /* \"#utility.yul\":6482:6530   */\n      iszero\n      tag_308\n      jumpi\n        /* \"#utility.yul\":6526:6527   */\n      0x00\n        /* \"#utility.yul\":6517:6523   */\n      dup5\n        /* \"#utility.yul\":6512:6515   */\n      dup5\n        /* \"#utility.yul\":6508:6524   */\n      add\n        /* \"#utility.yul\":6501:6528   */\n      mstore\n        /* \"#utility.yul\":6482:6530   */\n    tag_308:\n      pop\n        /* \"#utility.yul\":6278:6536   */\n      pop\n      pop\n      pop\n      jump\t// out\n        /* \"#utility.yul\":6541:6815   */\n    tag_168:\n        /* \"#utility.yul\":6670:6673   */\n      0x00\n        /* \"#utility.yul\":6708:6714   */\n      dup3\n        /* \"#utility.yul\":6702:6715   */\n      mload\n        /* \"#utility.yul\":6724:6777   */\n      tag_310\n        /* \"#utility.yul\":6770:6776   */\n      dup2\n        /* \"#utility.yul\":6765:6768   */\n      dup5\n        /* \"#utility.yul\":6758:6762   */\n      0x20\n        /* \"#utility.yul\":6750:6756   */\n      dup8\n        /* \"#utility.yul\":6746:6763   */\n      add\n        /* \"#utility.yul\":6724:6777   */\n      tag_262\n      jump\t// in\n    tag_310:\n        /* \"#utility.yul\":6793:6809   */\n      swap2\n      swap1\n      swap2\n      add\n      swap3\n        /* \"#utility.yul\":6541:6815   */\n      swap2\n      pop\n      pop\n      jump\t// out\n        /* \"#utility.yul\":7238:7366   */\n    tag_186:\n        /* \"#utility.yul\":7278:7281   */\n      0x00\n        /* \"#utility.yul\":7309:7310   */\n      dup3\n        /* \"#utility.yul\":7305:7311   */\n      not\n        /* \"#utility.yul\":7302:7303   */\n      dup3\n        /* \"#utility.yul\":7299:7312   */\n      gt\n        /* \"#utility.yul\":7296:7335   */\n      iszero\n      tag_314\n      jumpi\n        /* \"#utility.yul\":7315:7333   */\n      tag_314\n      tag_261\n      jump\t// in\n    tag_314:\n      pop\n        /* \"#utility.yul\":7351:7360   */\n      add\n      swap1\n        /* \"#utility.yul\":7238:7366   */\n      jump\t// out\n        /* \"#utility.yul\":7371:7559   */\n    tag_263:\n        /* \"#utility.yul\":7450:7463   */\n      dup1\n      mload\n      sub(shl(0x70, 0x01), 0x01)\n        /* \"#utility.yul\":7492:7534   */\n      dup2\n      and\n        /* \"#utility.yul\":7482:7535   */\n      dup2\n      eq\n        /* \"#utility.yul\":7472:7553   */\n      tag_270\n      jumpi\n        /* \"#utility.yul\":7549:7550   */\n      0x00\n        /* \"#utility.yul\":7546:7547   */\n      dup1\n        /* \"#utility.yul\":7539:7551   */\n      revert\n        /* \"#utility.yul\":7564:8014   */\n    tag_194:\n        /* \"#utility.yul\":7651:7657   */\n      0x00\n        /* \"#utility.yul\":7659:7665   */\n      dup1\n        /* \"#utility.yul\":7667:7673   */\n      0x00\n        /* \"#utility.yul\":7720:7722   */\n      0x60\n        /* \"#utility.yul\":7708:7717   */\n      dup5\n        /* \"#utility.yul\":7699:7706   */\n      dup7\n        /* \"#utility.yul\":7695:7718   */\n      sub\n        /* \"#utility.yul\":7691:7723   */\n      slt\n        /* \"#utility.yul\":7688:7740   */\n      iszero\n      tag_318\n      jumpi\n        /* \"#utility.yul\":7736:7737   */\n      0x00\n        /* \"#utility.yul\":7733:7734   */\n      dup1\n        /* \"#utility.yul\":7726:7738   */\n      revert\n        /* \"#utility.yul\":7688:7740   */\n    tag_318:\n        /* \"#utility.yul\":7759:7799   */\n      tag_319\n        /* \"#utility.yul\":7789:7798   */\n      dup5\n        /* \"#utility.yul\":7759:7799   */\n      tag_263\n      jump\t// in\n    tag_319:\n        /* \"#utility.yul\":7749:7799   */\n      swap3\n      pop\n        /* \"#utility.yul\":7818:7867   */\n      tag_320\n        /* \"#utility.yul\":7863:7865   */\n      0x20\n        /* \"#utility.yul\":7852:7861   */\n      dup6\n        /* \"#utility.yul\":7848:7866   */\n      add\n        /* \"#utility.yul\":7818:7867   */\n      tag_263\n      jump\t// in\n    tag_320:\n        /* \"#utility.yul\":7808:7867   */\n      swap2\n      pop\n        /* \"#utility.yul\":7910:7912   */\n      0x40\n        /* \"#utility.yul\":7899:7908   */\n      dup5\n        /* \"#utility.yul\":7895:7913   */\n      add\n        /* \"#utility.yul\":7889:7914   */\n      mload\n        /* \"#utility.yul\":7954:7964   */\n      0xffffffff\n        /* \"#utility.yul\":7947:7952   */\n      dup2\n        /* \"#utility.yul\":7943:7965   */\n      and\n        /* \"#utility.yul\":7936:7941   */\n      dup2\n        /* \"#utility.yul\":7933:7966   */\n      eq\n        /* \"#utility.yul\":7923:7984   */\n      tag_321\n      jumpi\n        /* \"#utility.yul\":7980:7981   */\n      0x00\n        /* \"#utility.yul\":7977:7978   */\n      dup1\n        /* \"#utility.yul\":7970:7982   */\n      revert\n        /* \"#utility.yul\":7923:7984   */\n    tag_321:\n        /* \"#utility.yul\":8003:8008   */\n      dup1\n        /* \"#utility.yul\":7993:8008   */\n      swap2\n      pop\n      pop\n        /* \"#utility.yul\":7564:8014   */\n      swap3\n      pop\n      swap3\n      pop\n      swap3\n      jump\t// out\n        /* \"#utility.yul\":8151:8775   */\n    tag_218:\n        /* \"#utility.yul\":8382:8388   */\n      dup5\n        /* \"#utility.yul\":8371:8380   */\n      dup2\n        /* \"#utility.yul\":8364:8389   */\n      mstore\n        /* \"#utility.yul\":8425:8431   */\n      dup4\n        /* \"#utility.yul\":8420:8422   */\n      0x20\n        /* \"#utility.yul\":8409:8418   */\n      dup3\n        /* \"#utility.yul\":8405:8423   */\n      add\n        /* \"#utility.yul\":8398:8432   */\n      mstore\n        /* \"#utility.yul\":8497:8498   */\n      0x01\n        /* \"#utility.yul\":8493:8494   */\n      dup1\n        /* \"#utility.yul\":8488:8491   */\n      0xa0\n        /* \"#utility.yul\":8484:8495   */\n      shl\n        /* \"#utility.yul\":8480:8499   */\n      sub\n        /* \"#utility.yul\":8472:8478   */\n      dup4\n        /* \"#utility.yul\":8468:8500   */\n      and\n        /* \"#utility.yul\":8463:8465   */\n      0x40\n        /* \"#utility.yul\":8452:8461   */\n      dup3\n        /* \"#utility.yul\":8448:8466   */\n      add\n        /* \"#utility.yul\":8441:8501   */\n      mstore\n        /* \"#utility.yul\":8537:8540   */\n      0x80\n        /* \"#utility.yul\":8532:8534   */\n      0x60\n        /* \"#utility.yul\":8521:8530   */\n      dup3\n        /* \"#utility.yul\":8517:8535   */\n      add\n        /* \"#utility.yul\":8510:8541   */\n      mstore\n        /* \"#utility.yul\":8345:8349   */\n      0x00\n        /* \"#utility.yul\":8570:8576   */\n      dup3\n        /* \"#utility.yul\":8564:8577   */\n      mload\n        /* \"#utility.yul\":8614:8620   */\n      dup1\n        /* \"#utility.yul\":8608:8611   */\n      0x80\n        /* \"#utility.yul\":8597:8606   */\n      dup5\n        /* \"#utility.yul\":8593:8612   */\n      add\n        /* \"#utility.yul\":8586:8621   */\n      mstore\n        /* \"#utility.yul\":8630:8697   */\n      tag_324\n        /* \"#utility.yul\":8690:8696   */\n      dup2\n        /* \"#utility.yul\":8684:8687   */\n      0xa0\n        /* \"#utility.yul\":8673:8682   */\n      dup6\n        /* \"#utility.yul\":8669:8688   */\n      add\n        /* \"#utility.yul\":8664:8666   */\n      0x20\n        /* \"#utility.yul\":8656:8662   */\n      dup8\n        /* \"#utility.yul\":8652:8667   */\n      add\n        /* \"#utility.yul\":8630:8697   */\n      tag_262\n      jump\t// in\n    tag_324:\n        /* \"#utility.yul\":8758:8760   */\n      0x1f\n        /* \"#utility.yul\":8737:8752   */\n      add\n      not(0x1f)\n        /* \"#utility.yul\":8733:8762   */\n      and\n        /* \"#utility.yul\":8718:8763   */\n      swap2\n      swap1\n      swap2\n      add\n        /* \"#utility.yul\":8765:8768   */\n      0xa0\n        /* \"#utility.yul\":8714:8769   */\n      add\n      swap6\n        /* \"#utility.yul\":8151:8775   */\n      swap5\n      pop\n      pop\n      pop\n      pop\n      pop\n      jump\t// out\n        /* \"#utility.yul\":8780:8915   */\n    tag_223:\n        /* \"#utility.yul\":8819:8822   */\n      0x00\n        /* \"#utility.yul\":8840:8857   */\n      0x01\n      dup3\n      add\n        /* \"#utility.yul\":8837:8880   */\n      tag_327\n      jumpi\n        /* \"#utility.yul\":8860:8878   */\n      tag_327\n      tag_261\n      jump\t// in\n    tag_327:\n      pop\n        /* \"#utility.yul\":8907:8908   */\n      0x01\n        /* \"#utility.yul\":8896:8909   */\n      add\n      swap1\n        /* \"#utility.yul\":8780:8915   */\n      jump\t// out\n        /* \"#utility.yul\":10927:11095   */\n    tag_253:\n        /* \"#utility.yul\":10967:10974   */\n      0x00\n        /* \"#utility.yul\":11033:11034   */\n      dup2\n        /* \"#utility.yul\":11029:11030   */\n      0x00\n        /* \"#utility.yul\":11025:11031   */\n      not\n        /* \"#utility.yul\":11021:11035   */\n      div\n        /* \"#utility.yul\":11018:11019   */\n      dup4\n        /* \"#utility.yul\":11015:11036   */\n      gt\n        /* \"#utility.yul\":11010:11011   */\n      dup3\n        /* \"#utility.yul\":11003:11012   */\n      iszero\n        /* \"#utility.yul\":10996:11013   */\n      iszero\n        /* \"#utility.yul\":10992:11037   */\n      and\n        /* \"#utility.yul\":10989:11060   */\n      iszero\n      tag_335\n      jumpi\n        /* \"#utility.yul\":11040:11058   */\n      tag_335\n      tag_261\n      jump\t// in\n    tag_335:\n      pop\n        /* \"#utility.yul\":11080:11089   */\n      mul\n      swap1\n        /* \"#utility.yul\":10927:11095   */\n      jump\t// out\n        /* \"#utility.yul\":11100:11317   */\n    tag_258:\n        /* \"#utility.yul\":11140:11141   */\n      0x00\n        /* \"#utility.yul\":11166:11167   */\n      dup3\n        /* \"#utility.yul\":11156:11288   */\n      tag_337\n      jumpi\n        /* \"#utility.yul\":11210:11220   */\n      0x4e487b71\n        /* \"#utility.yul\":11205:11208   */\n      0xe0\n        /* \"#utility.yul\":11201:11221   */\n      shl\n        /* \"#utility.yul\":11198:11199   */\n      0x00\n        /* \"#utility.yul\":11191:11222   */\n      mstore\n        /* \"#utility.yul\":11245:11249   */\n      0x12\n        /* \"#utility.yul\":11242:11243   */\n      0x04\n        /* \"#utility.yul\":11235:11250   */\n      mstore\n        /* \"#utility.yul\":11273:11277   */\n      0x24\n        /* \"#utility.yul\":11270:11271   */\n      0x00\n        /* \"#utility.yul\":11263:11278   */\n      revert\n        /* \"#utility.yul\":11156:11288   */\n    tag_337:\n      pop\n        /* \"#utility.yul\":11302:11311   */\n      div\n      swap1\n        /* \"#utility.yul\":11100:11317   */\n      jump\t// out\n\n    auxdata: 0xa2646970667358221220e967465cd4aa577abfbe8a1221b592b7190899521ff708f91b71c38cc5cf68d864736f6c634300080f0033\n}\n",
				"bytecode": {
					"linkReferences": {},
					"object": "608060405234801561001057600080fd5b5060405161152538038061152583398101604081905261002f9161007c565b600080546001600160a01b039384166001600160a01b031991821617909155600180549290931691161790556100af565b80516001600160a01b038116811461007757600080fd5b919050565b6000806040838503121561008f57600080fd5b61009883610060565b91506100a660208401610060565b90509250929050565b611467806100be6000396000f3fe60806040526004361061004a5760003560e01c80635c11d7951461004f578063791ac94714610071578063ad5c464814610091578063b6f9de95146100cd578063c45a0155146100e0575b600080fd5b34801561005b57600080fd5b5061006f61006a3660046110ae565b610100565b005b34801561007d57600080fd5b5061006f61008c3660046110ae565b610373565b34801561009d57600080fd5b506001546100b1906001600160a01b031681565b6040516001600160a01b03909116815260200160405180910390f35b61006f6100db36600461111e565b610575565b3480156100ec57600080fd5b506000546100b1906001600160a01b031681565b804281101561012a5760405162461bcd60e51b815260040161012190611184565b60405180910390fd5b6101c285856000818110610140576101406111bb565b905060200201602081019061015591906111d1565b6000805433916101bc916001600160a01b0316908a908a908161017a5761017a6111bb565b905060200201602081019061018f91906111d1565b8a8a60018181106101a2576101a26111bb565b90506020020160208101906101b791906111d1565b610870565b8a610949565b600085856101d1600182611209565b8181106101e0576101e06111bb565b90506020020160208101906101f591906111d1565b6040516370a0823160e01b81526001600160a01b03868116600483015291909116906370a0823190602401602060405180830381865afa15801561023d573d6000803e3d6000fd5b505050506040513d601f19601f820116820180604052508101906102619190611220565b90506102a1868680806020026020016040519081016040528093929190818152602001838360200280828437600092019190915250889250610a87915050565b868187876102b0600182611209565b8181106102bf576102bf6111bb565b90506020020160208101906102d491906111d1565b6040516370a0823160e01b81526001600160a01b03888116600483015291909116906370a08231906024015b602060405180830381865afa15801561031d573d6000803e3d6000fd5b505050506040513d601f19601f820116820180604052508101906103419190611220565b61034b9190611209565b10156103695760405162461bcd60e51b815260040161012190611239565b5050505050505050565b80428110156103945760405162461bcd60e51b815260040161012190611184565b600180546001600160a01b031690869086906103b09082611209565b8181106103bf576103bf6111bb565b90506020020160208101906103d491906111d1565b6001600160a01b03161461042a5760405162461bcd60e51b815260206004820152601d60248201527f556e69737761705632526f757465723a20494e56414c49445f504154480000006044820152606401610121565b61044085856000818110610140576101406111bb565b61047e858580806020026020016040519081016040528093929190818152602001838360200280828437600092019190915250309250610a87915050565b6001546040516370a0823160e01b81523060048201526000916001600160a01b0316906370a0823190602401602060405180830381865afa1580156104c7573d6000803e3d6000fd5b505050506040513d601f19601f820116820180604052508101906104eb9190611220565b90508681101561050d5760405162461bcd60e51b815260040161012190611239565b600154604051632e1a7d4d60e01b8152600481018390526001600160a01b0390911690632e1a7d4d90602401600060405180830381600087803b15801561055357600080fd5b505af1158015610567573d6000803e3d6000fd5b505050506103698482610d5c565b80428110156105965760405162461bcd60e51b815260040161012190611184565b6001546001600160a01b031685856000816105b3576105b36111bb565b90506020020160208101906105c891906111d1565b6001600160a01b03161461061e5760405162461bcd60e51b815260206004820152601d60248201527f556e69737761705632526f757465723a20494e56414c49445f504154480000006044820152606401610121565b60015460408051630d0e30db60e41b8152905134926001600160a01b03169163d0e30db091849160048082019260009290919082900301818588803b15801561066657600080fd5b505af115801561067a573d6000803e3d6000fd5b5050600154600080546001600160a01b03928316955063a9059cbb94506106b19350909116908a908a908161017a5761017a6111bb565b6040516001600160e01b031960e084901b1681526001600160a01b039091166004820152602481018490526044016020604051808303816000875af11580156106fe573d6000803e3d6000fd5b505050506040513d601f19601f820116820180604052508101906107229190611284565b61072e5761072e6112a6565b6000868661073d600182611209565b81811061074c5761074c6111bb565b905060200201602081019061076191906111d1565b6040516370a0823160e01b81526001600160a01b03878116600483015291909116906370a0823190602401602060405180830381865afa1580156107a9573d6000803e3d6000fd5b505050506040513d601f19601f820116820180604052508101906107cd9190611220565b905061080d878780806020026020016040519081016040528093929190818152602001838360200280828437600092019190915250899250610a87915050565b8781888861081c600182611209565b81811061082b5761082b6111bb565b905060200201602081019061084091906111d1565b6040516370a0823160e01b81526001600160a01b03898116600483015291909116906370a0823190602401610300565b600080600061087f8585610e36565b6040516bffffffffffffffffffffffff19606084811b8216602084015283901b16603482015291935091508690604801604051602081830303815290604052805190602001206040516020016109279291906001600160f81b0319815260609290921b6bffffffffffffffffffffffff1916600183015260158201527f96e8ac4277198ff8b6f785478aa9a39f403cb768dd02cbee326c3e7da348845f603582015260550190565b60408051601f1981840301815291905280516020909101209695505050505050565b604080516001600160a01b0385811660248301528481166044830152606480830185905283518084039091018152608490920183526020820180516001600160e01b03166323b872dd60e01b17905291516000928392908816916109ad91906112ec565b6000604051808303816000865af19150503d80600081146109ea576040519150601f19603f3d011682016040523d82523d6000602084013e6109ef565b606091505b5091509150818015610a19575080511580610a19575080806020019051810190610a199190611284565b610a7f5760405162461bcd60e51b815260206004820152603160248201527f5472616e7366657248656c7065723a3a7472616e7366657246726f6d3a207472604482015270185b9cd9995c919c9bdb4819985a5b1959607a1b6064820152608401610121565b505050505050565b60005b60018351610a989190611209565b811015610d5757600080848381518110610ab457610ab46111bb565b602002602001015185846001610aca9190611308565b81518110610ada57610ada6111bb565b6020026020010151915091506000610af28383610e36565b506000805491925090610b0f906001600160a01b03168585610870565b9050600080600080846001600160a01b0316630902f1ac6040518163ffffffff1660e01b8152600401606060405180830381865afa158015610b55573d6000803e3d6000fd5b505050506040513d601f19601f82011682018060405250810190610b799190611337565b506001600160701b031691506001600160701b03169150600080876001600160a01b03168a6001600160a01b031614610bb3578284610bb6565b83835b6040516370a0823160e01b81526001600160a01b038a8116600483015292945090925083918c16906370a0823190602401602060405180830381865afa158015610c04573d6000803e3d6000fd5b505050506040513d601f19601f82011682018060405250810190610c289190611220565b610c329190611209565b9550610c3f868383610f2d565b945050505050600080856001600160a01b0316886001600160a01b031614610c6957826000610c6d565b6000835b91509150600060028c51610c819190611209565b8a10610c8d578a610cc7565b600054610cc7906001600160a01b0316898e610caa8e6002611308565b81518110610cba57610cba6111bb565b6020026020010151610870565b6040805160008152602081019182905263022c0d9f60e01b9091529091506001600160a01b0387169063022c0d9f90610d099086908690869060248101611387565b600060405180830381600087803b158015610d2357600080fd5b505af1158015610d37573d6000803e3d6000fd5b505050505050505050505050508080610d4f906113d7565b915050610a8a565b505050565b604080516000808252602082019092526001600160a01b038416908390604051610d8691906112ec565b60006040518083038185875af1925050503d8060008114610dc3576040519150601f19603f3d011682016040523d82523d6000602084013e610dc8565b606091505b5050905080610d575760405162461bcd60e51b815260206004820152603460248201527f5472616e7366657248656c7065723a3a736166655472616e736665724554483a60448201527308115512081d1c985b9cd9995c8819985a5b195960621b6064820152608401610121565b600080826001600160a01b0316846001600160a01b031603610ea85760405162461bcd60e51b815260206004820152602560248201527f556e697377617056324c6962726172793a204944454e544943414c5f41444452604482015264455353455360d81b6064820152608401610121565b826001600160a01b0316846001600160a01b031610610ec8578284610ecb565b83835b90925090506001600160a01b038216610f265760405162461bcd60e51b815260206004820152601e60248201527f556e697377617056324c6962726172793a205a45524f5f4144445245535300006044820152606401610121565b9250929050565b6000808411610f925760405162461bcd60e51b815260206004820152602b60248201527f556e697377617056324c6962726172793a20494e53554646494349454e545f4960448201526a1394155517d05353d5539560aa1b6064820152608401610121565b600083118015610fa25750600082115b610fff5760405162461bcd60e51b815260206004820152602860248201527f556e697377617056324c6962726172793a20494e53554646494349454e545f4c604482015267495155494449545960c01b6064820152608401610121565b600061100d856103e56113f0565b9050600061101b84836113f0565b905060008261102c876103e86113f0565b6110369190611308565b9050611042818361140f565b979650505050505050565b60008083601f84011261105f57600080fd5b50813567ffffffffffffffff81111561107757600080fd5b6020830191508360208260051b8501011115610f2657600080fd5b80356001600160a01b03811681146110a957600080fd5b919050565b60008060008060008060a087890312156110c757600080fd5b8635955060208701359450604087013567ffffffffffffffff8111156110ec57600080fd5b6110f889828a0161104d565b909550935061110b905060608801611092565b9150608087013590509295509295509295565b60008060008060006080868803121561113657600080fd5b85359450602086013567ffffffffffffffff81111561115457600080fd5b6111608882890161104d565b9095509350611173905060408701611092565b949793965091946060013592915050565b60208082526018908201527f556e69737761705632526f757465723a20455850495245440000000000000000604082015260600190565b634e487b7160e01b600052603260045260246000fd5b6000602082840312156111e357600080fd5b6111ec82611092565b9392505050565b634e487b7160e01b600052601160045260246000fd5b60008282101561121b5761121b6111f3565b500390565b60006020828403121561123257600080fd5b5051919050565b6020808252602b908201527f556e69737761705632526f757465723a20494e53554646494349454e545f4f5560408201526a1514155517d05353d5539560aa1b606082015260800190565b60006020828403121561129657600080fd5b815180151581146111ec57600080fd5b634e487b7160e01b600052600160045260246000fd5b60005b838110156112d75781810151838201526020016112bf565b838111156112e6576000848401525b50505050565b600082516112fe8184602087016112bc565b9190910192915050565b6000821982111561131b5761131b6111f3565b500190565b80516001600160701b03811681146110a957600080fd5b60008060006060848603121561134c57600080fd5b61135584611320565b925061136360208501611320565b9150604084015163ffffffff8116811461137c57600080fd5b809150509250925092565b84815283602082015260018060a01b038316604082015260806060820152600082518060808401526113c08160a08501602087016112bc565b601f01601f19169190910160a00195945050505050565b6000600182016113e9576113e96111f3565b5060010190565b600081600019048311821515161561140a5761140a6111f3565b500290565b60008261142c57634e487b7160e01b600052601260045260246000fd5b50049056fea2646970667358221220e967465cd4aa577abfbe8a1221b592b7190899521ff708f91b71c38cc5cf68d864736f6c634300080f0033",
					"opcodes": "PUSH1 0x80 PUSH1 0x40 MSTORE CALLVALUE DUP1 ISZERO PUSH2 0x10 JUMPI PUSH1 0x0 DUP1 REVERT JUMPDEST POP PUSH1 0x40 MLOAD PUSH2 0x1525 CODESIZE SUB DUP1 PUSH2 0x1525 DUP4 CODECOPY DUP2 ADD PUSH1 0x40 DUP2 SWAP1 MSTORE PUSH2 0x2F SWAP2 PUSH2 0x7C JUMP JUMPDEST PUSH1 0x0 DUP1 SLOAD PUSH1 0x1 PUSH1 0x1 PUSH1 0xA0 SHL SUB SWAP4 DUP5 AND PUSH1 0x1 PUSH1 0x1 PUSH1 0xA0 SHL SUB NOT SWAP2 DUP3 AND OR SWAP1 SWAP2 SSTORE PUSH1 0x1 DUP1 SLOAD SWAP3 SWAP1 SWAP4 AND SWAP2 AND OR SWAP1 SSTORE PUSH2 0xAF JUMP JUMPDEST DUP1 MLOAD PUSH1 0x1 PUSH1 0x1 PUSH1 0xA0 SHL SUB DUP2 AND DUP2 EQ PUSH2 0x77 JUMPI PUSH1 0x0 DUP1 REVERT JUMPDEST SWAP2 SWAP1 POP JUMP JUMPDEST PUSH1 0x0 DUP1 PUSH1 0x40 DUP4 DUP6 SUB SLT ISZERO PUSH2 0x8F JUMPI PUSH1 0x0 DUP1 REVERT JUMPDEST PUSH2 0x98 DUP4 PUSH2 0x60 JUMP JUMPDEST SWAP2 POP PUSH2 0xA6 PUSH1 0x20 DUP5 ADD PUSH2 0x60 JUMP JUMPDEST SWAP1 POP SWAP3 POP SWAP3 SWAP1 POP JUMP JUMPDEST PUSH2 0x1467 DUP1 PUSH2 0xBE PUSH1 0x0 CODECOPY PUSH1 0x0 RETURN INVALID PUSH1 0x80 PUSH1 0x40 MSTORE PUSH1 0x4 CALLDATASIZE LT PUSH2 0x4A JUMPI PUSH1 0x0 CALLDATALOAD PUSH1 0xE0 SHR DUP1 PUSH4 0x5C11D795 EQ PUSH2 0x4F JUMPI DUP1 PUSH4 0x791AC947 EQ PUSH2 0x71 JUMPI DUP1 PUSH4 0xAD5C4648 EQ PUSH2 0x91 JUMPI DUP1 PUSH4 0xB6F9DE95 EQ PUSH2 0xCD JUMPI DUP1 PUSH4 0xC45A0155 EQ PUSH2 0xE0 JUMPI JUMPDEST PUSH1 0x0 DUP1 REVERT JUMPDEST CALLVALUE DUP1 ISZERO PUSH2 0x5B JUMPI PUSH1 0x0 DUP1 REVERT JUMPDEST POP PUSH2 0x6F PUSH2 0x6A CALLDATASIZE PUSH1 0x4 PUSH2 0x10AE JUMP JUMPDEST PUSH2 0x100 JUMP JUMPDEST STOP JUMPDEST CALLVALUE DUP1 ISZERO PUSH2 0x7D JUMPI PUSH1 0x0 DUP1 REVERT JUMPDEST POP PUSH2 0x6F PUSH2 0x8C CALLDATASIZE PUSH1 0x4 PUSH2 0x10AE JUMP JUMPDEST PUSH2 0x373 JUMP JUMPDEST CALLVALUE DUP1 ISZERO PUSH2 0x9D JUMPI PUSH1 0x0 DUP1 REVERT JUMPDEST POP PUSH1 0x1 SLOAD PUSH2 0xB1 SWAP1 PUSH1 0x1 PUSH1 0x1 PUSH1 0xA0 SHL SUB AND DUP2 JUMP JUMPDEST PUSH1 0x40 MLOAD PUSH1 0x1 PUSH1 0x1 PUSH1 0xA0 SHL SUB SWAP1 SWAP2 AND DUP2 MSTORE PUSH1 0x20 ADD PUSH1 0x40 MLOAD DUP1 SWAP2 SUB SWAP1 RETURN JUMPDEST PUSH2 0x6F PUSH2 0xDB CALLDATASIZE PUSH1 0x4 PUSH2 0x111E JUMP JUMPDEST PUSH2 0x575 JUMP JUMPDEST CALLVALUE DUP1 ISZERO PUSH2 0xEC JUMPI PUSH1 0x0 DUP1 REVERT JUMPDEST POP PUSH1 0x0 SLOAD PUSH2 0xB1 SWAP1 PUSH1 0x1 PUSH1 0x1 PUSH1 0xA0 SHL SUB AND DUP2 JUMP JUMPDEST DUP1 TIMESTAMP DUP2 LT ISZERO PUSH2 0x12A JUMPI PUSH1 0x40 MLOAD PUSH3 0x461BCD PUSH1 0xE5 SHL DUP2 MSTORE PUSH1 0x4 ADD PUSH2 0x121 SWAP1 PUSH2 0x1184 JUMP JUMPDEST PUSH1 0x40 MLOAD DUP1 SWAP2 SUB SWAP1 REVERT JUMPDEST PUSH2 0x1C2 DUP6 DUP6 PUSH1 0x0 DUP2 DUP2 LT PUSH2 0x140 JUMPI PUSH2 0x140 PUSH2 0x11BB JUMP JUMPDEST SWAP1 POP PUSH1 0x20 MUL ADD PUSH1 0x20 DUP2 ADD SWAP1 PUSH2 0x155 SWAP2 SWAP1 PUSH2 0x11D1 JUMP JUMPDEST PUSH1 0x0 DUP1 SLOAD CALLER SWAP2 PUSH2 0x1BC SWAP2 PUSH1 0x1 PUSH1 0x1 PUSH1 0xA0 SHL SUB AND SWAP1 DUP11 SWAP1 DUP11 SWAP1 DUP2 PUSH2 0x17A JUMPI PUSH2 0x17A PUSH2 0x11BB JUMP JUMPDEST SWAP1 POP PUSH1 0x20 MUL ADD PUSH1 0x20 DUP2 ADD SWAP1 PUSH2 0x18F SWAP2 SWAP1 PUSH2 0x11D1 JUMP JUMPDEST DUP11 DUP11 PUSH1 0x1 DUP2 DUP2 LT PUSH2 0x1A2 JUMPI PUSH2 0x1A2 PUSH2 0x11BB JUMP JUMPDEST SWAP1 POP PUSH1 0x20 MUL ADD PUSH1 0x20 DUP2 ADD SWAP1 PUSH2 0x1B7 SWAP2 SWAP1 PUSH2 0x11D1 JUMP JUMPDEST PUSH2 0x870 JUMP JUMPDEST DUP11 PUSH2 0x949 JUMP JUMPDEST PUSH1 0x0 DUP6 DUP6 PUSH2 0x1D1 PUSH1 0x1 DUP3 PUSH2 0x1209 JUMP JUMPDEST DUP2 DUP2 LT PUSH2 0x1E0 JUMPI PUSH2 0x1E0 PUSH2 0x11BB JUMP JUMPDEST SWAP1 POP PUSH1 0x20 MUL ADD PUSH1 0x20 DUP2 ADD SWAP1 PUSH2 0x1F5 SWAP2 SWAP1 PUSH2 0x11D1 JUMP JUMPDEST PUSH1 0x40 MLOAD PUSH4 0x70A08231 PUSH1 0xE0 SHL DUP2 MSTORE PUSH1 0x1 PUSH1 0x1 PUSH1 0xA0 SHL SUB DUP7 DUP2 AND PUSH1 0x4 DUP4 ADD MSTORE SWAP2 SWAP1 SWAP2 AND SWAP1 PUSH4 0x70A08231 SWAP1 PUSH1 0x24 ADD PUSH1 0x20 PUSH1 0x40 MLOAD DUP1 DUP4 SUB DUP2 DUP7 GAS STATICCALL ISZERO DUP1 ISZERO PUSH2 0x23D JUMPI RETURNDATASIZE PUSH1 0x0 DUP1 RETURNDATACOPY RETURNDATASIZE PUSH1 0x0 REVERT JUMPDEST POP POP POP POP PUSH1 0x40 MLOAD RETURNDATASIZE PUSH1 0x1F NOT PUSH1 0x1F DUP3 ADD AND DUP3 ADD DUP1 PUSH1 0x40 MSTORE POP DUP2 ADD SWAP1 PUSH2 0x261 SWAP2 SWAP1 PUSH2 0x1220 JUMP JUMPDEST SWAP1 POP PUSH2 0x2A1 DUP7 DUP7 DUP1 DUP1 PUSH1 0x20 MUL PUSH1 0x20 ADD PUSH1 0x40 MLOAD SWAP1 DUP2 ADD PUSH1 0x40 MSTORE DUP1 SWAP4 SWAP3 SWAP2 SWAP1 DUP2 DUP2 MSTORE PUSH1 0x20 ADD DUP4 DUP4 PUSH1 0x20 MUL DUP1 DUP3 DUP5 CALLDATACOPY PUSH1 0x0 SWAP3 ADD SWAP2 SWAP1 SWAP2 MSTORE POP DUP9 SWAP3 POP PUSH2 0xA87 SWAP2 POP POP JUMP JUMPDEST DUP7 DUP2 DUP8 DUP8 PUSH2 0x2B0 PUSH1 0x1 DUP3 PUSH2 0x1209 JUMP JUMPDEST DUP2 DUP2 LT PUSH2 0x2BF JUMPI PUSH2 0x2BF PUSH2 0x11BB JUMP JUMPDEST SWAP1 POP PUSH1 0x20 MUL ADD PUSH1 0x20 DUP2 ADD SWAP1 PUSH2 0x2D4 SWAP2 SWAP1 PUSH2 0x11D1 JUMP JUMPDEST PUSH1 0x40 MLOAD PUSH4 0x70A08231 PUSH1 0xE0 SHL DUP2 MSTORE PUSH1 0x1 PUSH1 0x1 PUSH1 0xA0 SHL SUB DUP9 DUP2 AND PUSH1 0x4 DUP4 ADD MSTORE SWAP2 SWAP1 SWAP2 AND SWAP1 PUSH4 0x70A08231 SWAP1 PUSH1 0x24 ADD JUMPDEST PUSH1 0x20 PUSH1 0x40 MLOAD DUP1 DUP4 SUB DUP2 DUP7 GAS STATICCALL ISZERO DUP1 ISZERO PUSH2 0x31D JUMPI RETURNDATASIZE PUSH1 0x0 DUP1 RETURNDATACOPY RETURNDATASIZE PUSH1 0x0 REVERT JUMPDEST POP POP POP POP PUSH1 0x40 MLOAD RETURNDATASIZE PUSH1 0x1F NOT PUSH1 0x1F DUP3 ADD AND DUP3 ADD DUP1 PUSH1 0x40 MSTORE POP DUP2 ADD SWAP1 PUSH2 0x341 SWAP2 SWAP1 PUSH2 0x1220 JUMP JUMPDEST PUSH2 0x34B SWAP2 SWAP1 PUSH2 0x1209 JUMP JUMPDEST LT ISZERO PUSH2 0x369 JUMPI PUSH1 0x40 MLOAD PUSH3 0x461BCD PUSH1 0xE5 SHL DUP2 MSTORE PUSH1 0x4 ADD PUSH2 0x121 SWAP1 PUSH2 0x1239 JUMP JUMPDEST POP POP POP POP POP POP POP POP JUMP JUMPDEST DUP1 TIMESTAMP DUP2 LT ISZERO PUSH2 0x394 JUMPI PUSH1 0x40 MLOAD PUSH3 0x461BCD PUSH1 0xE5 SHL DUP2 MSTORE PUSH1 0x4 ADD PUSH2 0x121 SWAP1 PUSH2 0x1184 JUMP JUMPDEST PUSH1 0x1 DUP1 SLOAD PUSH1 0x1 PUSH1 0x1 PUSH1 0xA0 SHL SUB AND SWAP1 DUP7 SWAP1 DUP7 SWAP1 PUSH2 0x3B0 SWAP1 DUP3 PUSH2 0x1209 JUMP JUMPDEST DUP2 DUP2 LT PUSH2 0x3BF JUMPI PUSH2 0x3BF PUSH2 0x11BB JUMP JUMPDEST SWAP1 POP PUSH1 0x20 MUL ADD PUSH1 0x20 DUP2 ADD SWAP1 PUSH2 0x3D4 SWAP2 SWAP1 PUSH2 0x11D1 JUMP JUMPDEST PUSH1 0x1 PUSH1 0x1 PUSH1 0xA0 SHL SUB AND EQ PUSH2 0x42A JUMPI PUSH1 0x40 MLOAD PUSH3 0x461BCD PUSH1 0xE5 SHL DUP2 MSTORE PUSH1 0x20 PUSH1 0x4 DUP3 ADD MSTORE PUSH1 0x1D PUSH1 0x24 DUP3 ADD MSTORE PUSH32 0x556E69737761705632526F757465723A20494E56414C49445F50415448000000 PUSH1 0x44 DUP3 ADD MSTORE PUSH1 0x64 ADD PUSH2 0x121 JUMP JUMPDEST PUSH2 0x440 DUP6 DUP6 PUSH1 0x0 DUP2 DUP2 LT PUSH2 0x140 JUMPI PUSH2 0x140 PUSH2 0x11BB JUMP JUMPDEST PUSH2 0x47E DUP6 DUP6 DUP1 DUP1 PUSH1 0x20 MUL PUSH1 0x20 ADD PUSH1 0x40 MLOAD SWAP1 DUP2 ADD PUSH1 0x40 MSTORE DUP1 SWAP4 SWAP3 SWAP2 SWAP1 DUP2 DUP2 MSTORE PUSH1 0x20 ADD DUP4 DUP4 PUSH1 0x20 MUL DUP1 DUP3 DUP5 CALLDATACOPY PUSH1 0x0 SWAP3 ADD SWAP2 SWAP1 SWAP2 MSTORE POP ADDRESS SWAP3 POP PUSH2 0xA87 SWAP2 POP POP JUMP JUMPDEST PUSH1 0x1 SLOAD PUSH1 0x40 MLOAD PUSH4 0x70A08231 PUSH1 0xE0 SHL DUP2 MSTORE ADDRESS PUSH1 0x4 DUP3 ADD MSTORE PUSH1 0x0 SWAP2 PUSH1 0x1 PUSH1 0x1 PUSH1 0xA0 SHL SUB AND SWAP1 PUSH4 0x70A08231 SWAP1 PUSH1 0x24 ADD PUSH1 0x20 PUSH1 0x40 MLOAD DUP1 DUP4 SUB DUP2 DUP7 GAS STATICCALL ISZERO DUP1 ISZERO PUSH2 0x4C7 JUMPI RETURNDATASIZE PUSH1 0x0 DUP1 RETURNDATACOPY RETURNDATASIZE PUSH1 0x0 REVERT JUMPDEST POP POP POP POP PUSH1 0x40 MLOAD RETURNDATASIZE PUSH1 0x1F NOT PUSH1 0x1F DUP3 ADD AND DUP3 ADD DUP1 PUSH1 0x40 MSTORE POP DUP2 ADD SWAP1 PUSH2 0x4EB SWAP2 SWAP1 PUSH2 0x1220 JUMP JUMPDEST SWAP1 POP DUP7 DUP2 LT ISZERO PUSH2 0x50D JUMPI PUSH1 0x40 MLOAD PUSH3 0x461BCD PUSH1 0xE5 SHL DUP2 MSTORE PUSH1 0x4 ADD PUSH2 0x121 SWAP1 PUSH2 0x1239 JUMP JUMPDEST PUSH1 0x1 SLOAD PUSH1 0x40 MLOAD PUSH4 0x2E1A7D4D PUSH1 0xE0 SHL DUP2 MSTORE PUSH1 0x4 DUP2 ADD DUP4 SWAP1 MSTORE PUSH1 0x1 PUSH1 0x1 PUSH1 0xA0 SHL SUB SWAP1 SWAP2 AND SWAP1 PUSH4 0x2E1A7D4D SWAP1 PUSH1 0x24 ADD PUSH1 0x0 PUSH1 0x40 MLOAD DUP1 DUP4 SUB DUP2 PUSH1 0x0 DUP8 DUP1 EXTCODESIZE ISZERO DUP1 ISZERO PUSH2 0x553 JUMPI PUSH1 0x0 DUP1 REVERT JUMPDEST POP GAS CALL ISZERO DUP1 ISZERO PUSH2 0x567 JUMPI RETURNDATASIZE PUSH1 0x0 DUP1 RETURNDATACOPY RETURNDATASIZE PUSH1 0x0 REVERT JUMPDEST POP POP POP POP PUSH2 0x369 DUP5 DUP3 PUSH2 0xD5C JUMP JUMPDEST DUP1 TIMESTAMP DUP2 LT ISZERO PUSH2 0x596 JUMPI PUSH1 0x40 MLOAD PUSH3 0x461BCD PUSH1 0xE5 SHL DUP2 MSTORE PUSH1 0x4 ADD PUSH2 0x121 SWAP1 PUSH2 0x1184 JUMP JUMPDEST PUSH1 0x1 SLOAD PUSH1 0x1 PUSH1 0x1 PUSH1 0xA0 SHL SUB AND DUP6 DUP6 PUSH1 0x0 DUP2 PUSH2 0x5B3 JUMPI PUSH2 0x5B3 PUSH2 0x11BB JUMP JUMPDEST SWAP1 POP PUSH1 0x20 MUL ADD PUSH1 0x20 DUP2 ADD SWAP1 PUSH2 0x5C8 SWAP2 SWAP1 PUSH2 0x11D1 JUMP JUMPDEST PUSH1 0x1 PUSH1 0x1 PUSH1 0xA0 SHL SUB AND EQ PUSH2 0x61E JUMPI PUSH1 0x40 MLOAD PUSH3 0x461BCD PUSH1 0xE5 SHL DUP2 MSTORE PUSH1 0x20 PUSH1 0x4 DUP3 ADD MSTORE PUSH1 0x1D PUSH1 0x24 DUP3 ADD MSTORE PUSH32 0x556E69737761705632526F757465723A20494E56414C49445F50415448000000 PUSH1 0x44 DUP3 ADD MSTORE PUSH1 0x64 ADD PUSH2 0x121 JUMP JUMPDEST PUSH1 0x1 SLOAD PUSH1 0x40 DUP1 MLOAD PUSH4 0xD0E30DB PUSH1 0xE4 SHL DUP2 MSTORE SWAP1 MLOAD CALLVALUE SWAP3 PUSH1 0x1 PUSH1 0x1 PUSH1 0xA0 SHL SUB AND SWAP2 PUSH4 0xD0E30DB0 SWAP2 DUP5 SWAP2 PUSH1 0x4 DUP1 DUP3 ADD SWAP3 PUSH1 0x0 SWAP3 SWAP1 SWAP2 SWAP1 DUP3 SWAP1 SUB ADD DUP2 DUP6 DUP9 DUP1 EXTCODESIZE ISZERO DUP1 ISZERO PUSH2 0x666 JUMPI PUSH1 0x0 DUP1 REVERT JUMPDEST POP GAS CALL ISZERO DUP1 ISZERO PUSH2 0x67A JUMPI RETURNDATASIZE PUSH1 0x0 DUP1 RETURNDATACOPY RETURNDATASIZE PUSH1 0x0 REVERT JUMPDEST POP POP PUSH1 0x1 SLOAD PUSH1 0x0 DUP1 SLOAD PUSH1 0x1 PUSH1 0x1 PUSH1 0xA0 SHL SUB SWAP3 DUP4 AND SWAP6 POP PUSH4 0xA9059CBB SWAP5 POP PUSH2 0x6B1 SWAP4 POP SWAP1 SWAP2 AND SWAP1 DUP11 SWAP1 DUP11 SWAP1 DUP2 PUSH2 0x17A JUMPI PUSH2 0x17A PUSH2 0x11BB JUMP JUMPDEST PUSH1 0x40 MLOAD PUSH1 0x1 PUSH1 0x1 PUSH1 0xE0 SHL SUB NOT PUSH1 0xE0 DUP5 SWAP1 SHL AND DUP2 MSTORE PUSH1 0x1 PUSH1 0x1 PUSH1 0xA0 SHL SUB SWAP1 SWAP2 AND PUSH1 0x4 DUP3 ADD MSTORE PUSH1 0x24 DUP2 ADD DUP5 SWAP1 MSTORE PUSH1 0x44 ADD PUSH1 0x20 PUSH1 0x40 MLOAD DUP1 DUP4 SUB DUP2 PUSH1 0x0 DUP8 GAS CALL ISZERO DUP1 ISZERO PUSH2 0x6FE JUMPI RETURNDATASIZE PUSH1 0x0 DUP1 RETURNDATACOPY RETURNDATASIZE PUSH1 0x0 REVERT JUMPDEST POP POP POP POP PUSH1 0x40 MLOAD RETURNDATASIZE PUSH1 0x1F NOT PUSH1 0x1F DUP3 ADD AND DUP3 ADD DUP1 PUSH1 0x40 MSTORE POP DUP2 ADD SWAP1 PUSH2 0x722 SWAP2 SWAP1 PUSH2 0x1284 JUMP JUMPDEST PUSH2 0x72E JUMPI PUSH2 0x72E PUSH2 0x12A6 JUMP JUMPDEST PUSH1 0x0 DUP7 DUP7 PUSH2 0x73D PUSH1 0x1 DUP3 PUSH2 0x1209 JUMP JUMPDEST DUP2 DUP2 LT PUSH2 0x74C JUMPI PUSH2 0x74C PUSH2 0x11BB JUMP JUMPDEST SWAP1 POP PUSH1 0x20 MUL ADD PUSH1 0x20 DUP2 ADD SWAP1 PUSH2 0x761 SWAP2 SWAP1 PUSH2 0x11D1 JUMP JUMPDEST PUSH1 0x40 MLOAD PUSH4 0x70A08231 PUSH1 0xE0 SHL DUP2 MSTORE PUSH1 0x1 PUSH1 0x1 PUSH1 0xA0 SHL SUB DUP8 DUP2 AND PUSH1 0x4 DUP4 ADD MSTORE SWAP2 SWAP1 SWAP2 AND SWAP1 PUSH4 0x70A08231 SWAP1 PUSH1 0x24 ADD PUSH1 0x20 PUSH1 0x40 MLOAD DUP1 DUP4 SUB DUP2 DUP7 GAS STATICCALL ISZERO DUP1 ISZERO PUSH2 0x7A9 JUMPI RETURNDATASIZE PUSH1 0x0 DUP1 RETURNDATACOPY RETURNDATASIZE PUSH1 0x0 REVERT JUMPDEST POP POP POP POP PUSH1 0x40 MLOAD RETURNDATASIZE PUSH1 0x1F NOT PUSH1 0x1F DUP3 ADD AND DUP3 ADD DUP1 PUSH1 0x40 MSTORE POP DUP2 ADD SWAP1 PUSH2 0x7CD SWAP2 SWAP1 PUSH2 0x1220 JUMP JUMPDEST SWAP1 POP PUSH2 0x80D DUP8 DUP8 DUP1 DUP1 PUSH1 0x20 MUL PUSH1 0x20 ADD PUSH1 0x40 MLOAD SWAP1 DUP2 ADD PUSH1 0x40 MSTORE DUP1 SWAP4 SWAP3 SWAP2 SWAP1 DUP2 DUP2 MSTORE PUSH1 0x20 ADD DUP4 DUP4 PUSH1 0x20 MUL DUP1 DUP3 DUP5 CALLDATACOPY PUSH1 0x0 SWAP3 ADD SWAP2 SWAP1 SWAP2 MSTORE POP DUP10 SWAP3 POP PUSH2 0xA87 SWAP2 POP POP JUMP JUMPDEST DUP8 DUP2 DUP9 DUP9 PUSH2 0x81C PUSH1 0x1 DUP3 PUSH2 0x1209 JUMP JUMPDEST DUP2 DUP2 LT PUSH2 0x82B JUMPI PUSH2 0x82B PUSH2 0x11BB JUMP JUMPDEST SWAP1 POP PUSH1 0x20 MUL ADD PUSH1 0x20 DUP2 ADD SWAP1 PUSH2 0x840 SWAP2 SWAP1 PUSH2 0x11D1 JUMP JUMPDEST PUSH1 0x40 MLOAD PUSH4 0x70A08231 PUSH1 0xE0 SHL DUP2 MSTORE PUSH1 0x1 PUSH1 0x1 PUSH1 0xA0 SHL SUB DUP10 DUP2 AND PUSH1 0x4 DUP4 ADD MSTORE SWAP2 SWAP1 SWAP2 AND SWAP1 PUSH4 0x70A08231 SWAP1 PUSH1 0x24 ADD PUSH2 0x300 JUMP JUMPDEST PUSH1 0x0 DUP1 PUSH1 0x0 PUSH2 0x87F DUP6 DUP6 PUSH2 0xE36 JUMP JUMPDEST PUSH1 0x40 MLOAD PUSH12 0xFFFFFFFFFFFFFFFFFFFFFFFF NOT PUSH1 0x60 DUP5 DUP2 SHL DUP3 AND PUSH1 0x20 DUP5 ADD MSTORE DUP4 SWAP1 SHL AND PUSH1 0x34 DUP3 ADD MSTORE SWAP2 SWAP4 POP SWAP2 POP DUP7 SWAP1 PUSH1 0x48 ADD PUSH1 0x40 MLOAD PUSH1 0x20 DUP2 DUP4 SUB SUB DUP2 MSTORE SWAP1 PUSH1 0x40 MSTORE DUP1 MLOAD SWAP1 PUSH1 0x20 ADD KECCAK256 PUSH1 0x40 MLOAD PUSH1 0x20 ADD PUSH2 0x927 SWAP3 SWAP2 SWAP1 PUSH1 0x1 PUSH1 0x1 PUSH1 0xF8 SHL SUB NOT DUP2 MSTORE PUSH1 0x60 SWAP3 SWAP1 SWAP3 SHL PUSH12 0xFFFFFFFFFFFFFFFFFFFFFFFF NOT AND PUSH1 0x1 DUP4 ADD MSTORE PUSH1 0x15 DUP3 ADD MSTORE PUSH32 0x96E8AC4277198FF8B6F785478AA9A39F403CB768DD02CBEE326C3E7DA348845F PUSH1 0x35 DUP3 ADD MSTORE PUSH1 0x55 ADD SWAP1 JUMP JUMPDEST PUSH1 0x40 DUP1 MLOAD PUSH1 0x1F NOT DUP2 DUP5 SUB ADD DUP2 MSTORE SWAP2 SWAP1 MSTORE DUP1 MLOAD PUSH1 0x20 SWAP1 SWAP2 ADD KECCAK256 SWAP7 SWAP6 POP POP POP POP POP POP JUMP JUMPDEST PUSH1 0x40 DUP1 MLOAD PUSH1 0x1 PUSH1 0x1 PUSH1 0xA0 SHL SUB DUP6 DUP2 AND PUSH1 0x24 DUP4 ADD MSTORE DUP5 DUP2 AND PUSH1 0x44 DUP4 ADD MSTORE PUSH1 0x64 DUP1 DUP4 ADD DUP6 SWAP1 MSTORE DUP4 MLOAD DUP1 DUP5 SUB SWAP1 SWAP2 ADD DUP2 MSTORE PUSH1 0x84 SWAP1 SWAP3 ADD DUP4 MSTORE PUSH1 0x20 DUP3 ADD DUP1 MLOAD PUSH1 0x1 PUSH1 0x1 PUSH1 0xE0 SHL SUB AND PUSH4 0x23B872DD PUSH1 0xE0 SHL OR SWAP1 MSTORE SWAP2 MLOAD PUSH1 0x0 SWAP3 DUP4 SWAP3 SWAP1 DUP9 AND SWAP2 PUSH2 0x9AD SWAP2 SWAP1 PUSH2 0x12EC JUMP JUMPDEST PUSH1 0x0 PUSH1 0x40 MLOAD DUP1 DUP4 SUB DUP2 PUSH1 0x0 DUP7 GAS CALL SWAP2 POP POP RETURNDATASIZE DUP1 PUSH1 0x0 DUP2 EQ PUSH2 0x9EA JUMPI PUSH1 0x40 MLOAD SWAP2 POP PUSH1 0x1F NOT PUSH1 0x3F RETURNDATASIZE ADD AND DUP3 ADD PUSH1 0x40 MSTORE RETURNDATASIZE DUP3 MSTORE RETURNDATASIZE PUSH1 0x0 PUSH1 0x20 DUP5 ADD RETURNDATACOPY PUSH2 0x9EF JUMP JUMPDEST PUSH1 0x60 SWAP2 POP JUMPDEST POP SWAP2 POP SWAP2 POP DUP2 DUP1 ISZERO PUSH2 0xA19 JUMPI POP DUP1 MLOAD ISZERO DUP1 PUSH2 0xA19 JUMPI POP DUP1 DUP1 PUSH1 0x20 ADD SWAP1 MLOAD DUP2 ADD SWAP1 PUSH2 0xA19 SWAP2 SWAP1 PUSH2 0x1284 JUMP JUMPDEST PUSH2 0xA7F JUMPI PUSH1 0x40 MLOAD PUSH3 0x461BCD PUSH1 0xE5 SHL DUP2 MSTORE PUSH1 0x20 PUSH1 0x4 DUP3 ADD MSTORE PUSH1 0x31 PUSH1 0x24 DUP3 ADD MSTORE PUSH32 0x5472616E7366657248656C7065723A3A7472616E7366657246726F6D3A207472 PUSH1 0x44 DUP3 ADD MSTORE PUSH17 0x185B9CD9995C919C9BDB4819985A5B1959 PUSH1 0x7A SHL PUSH1 0x64 DUP3 ADD MSTORE PUSH1 0x84 ADD PUSH2 0x121 JUMP JUMPDEST POP POP POP POP POP POP JUMP JUMPDEST PUSH1 0x0 JUMPDEST PUSH1 0x1 DUP4 MLOAD PUSH2 0xA98 SWAP2 SWAP1 PUSH2 0x1209 JUMP JUMPDEST DUP2 LT ISZERO PUSH2 0xD57 JUMPI PUSH1 0x0 DUP1 DUP5 DUP4 DUP2 MLOAD DUP2 LT PUSH2 0xAB4 JUMPI PUSH2 0xAB4 PUSH2 0x11BB JUMP JUMPDEST PUSH1 0x20 MUL PUSH1 0x20 ADD ADD MLOAD DUP6 DUP5 PUSH1 0x1 PUSH2 0xACA SWAP2 SWAP1 PUSH2 0x1308 JUMP JUMPDEST DUP2 MLOAD DUP2 LT PUSH2 0xADA JUMPI PUSH2 0xADA PUSH2 0x11BB JUMP JUMPDEST PUSH1 0x20 MUL PUSH1 0x20 ADD ADD MLOAD SWAP2 POP SWAP2 POP PUSH1 0x0 PUSH2 0xAF2 DUP4 DUP4 PUSH2 0xE36 JUMP JUMPDEST POP PUSH1 0x0 DUP1 SLOAD SWAP2 SWAP3 POP SWAP1 PUSH2 0xB0F SWAP1 PUSH1 0x1 PUSH1 0x1 PUSH1 0xA0 SHL SUB AND DUP6 DUP6 PUSH2 0x870 JUMP JUMPDEST SWAP1 POP PUSH1 0x0 DUP1 PUSH1 0x0 DUP1 DUP5 PUSH1 0x1 PUSH1 0x1 PUSH1 0xA0 SHL SUB AND PUSH4 0x902F1AC PUSH1 0x40 MLOAD DUP2 PUSH4 0xFFFFFFFF AND PUSH1 0xE0 SHL DUP2 MSTORE PUSH1 0x4 ADD PUSH1 0x60 PUSH1 0x40 MLOAD DUP1 DUP4 SUB DUP2 DUP7 GAS STATICCALL ISZERO DUP1 ISZERO PUSH2 0xB55 JUMPI RETURNDATASIZE PUSH1 0x0 DUP1 RETURNDATACOPY RETURNDATASIZE PUSH1 0x0 REVERT JUMPDEST POP POP POP POP PUSH1 0x40 MLOAD RETURNDATASIZE PUSH1 0x1F NOT PUSH1 0x1F DUP3 ADD AND DUP3 ADD DUP1 PUSH1 0x40 MSTORE POP DUP2 ADD SWAP1 PUSH2 0xB79 SWAP2 SWAP1 PUSH2 0x1337 JUMP JUMPDEST POP PUSH1 0x1 PUSH1 0x1 PUSH1 0x70 SHL SUB AND SWAP2 POP PUSH1 0x1 PUSH1 0x1 PUSH1 0x70 SHL SUB AND SWAP2 POP PUSH1 0x0 DUP1 DUP8 PUSH1 0x1 PUSH1 0x1 PUSH1 0xA0 SHL SUB AND DUP11 PUSH1 0x1 PUSH1 0x1 PUSH1 0xA0 SHL SUB AND EQ PUSH2 0xBB3 JUMPI DUP3 DUP5 PUSH2 0xBB6 JUMP JUMPDEST DUP4 DUP4 JUMPDEST PUSH1 0x40 MLOAD PUSH4 0x70A08231 PUSH1 0xE0 SHL DUP2 MSTORE PUSH1 0x1 PUSH1 0x1 PUSH1 0xA0 SHL SUB DUP11 DUP2 AND PUSH1 0x4 DUP4 ADD MSTORE SWAP3 SWAP5 POP SWAP1 SWAP3 POP DUP4 SWAP2 DUP13 AND SWAP1 PUSH4 0x70A08231 SWAP1 PUSH1 0x24 ADD PUSH1 0x20 PUSH1 0x40 MLOAD DUP1 DUP4 SUB DUP2 DUP7 GAS STATICCALL ISZERO DUP1 ISZERO PUSH2 0xC04 JUMPI RETURNDATASIZE PUSH1 0x0 DUP1 RETURNDATACOPY RETURNDATASIZE PUSH1 0x0 REVERT JUMPDEST POP POP POP POP PUSH1 0x40 MLOAD RETURNDATASIZE PUSH1 0x1F NOT PUSH1 0x1F DUP3 ADD AND DUP3 ADD DUP1 PUSH1 0x40 MSTORE POP DUP2 ADD SWAP1 PUSH2 0xC28 SWAP2 SWAP1 PUSH2 0x1220 JUMP JUMPDEST PUSH2 0xC32 SWAP2 SWAP1 PUSH2 0x1209 JUMP JUMPDEST SWAP6 POP PUSH2 0xC3F DUP7 DUP4 DUP4 PUSH2 0xF2D JUMP JUMPDEST SWAP5 POP POP POP POP POP PUSH1 0x0 DUP1 DUP6 PUSH1 0x1 PUSH1 0x1 PUSH1 0xA0 SHL SUB AND DUP9 PUSH1 0x1 PUSH1 0x1 PUSH1 0xA0 SHL SUB AND EQ PUSH2 0xC69 JUMPI DUP3 PUSH1 0x0 PUSH2 0xC6D JUMP JUMPDEST PUSH1 0x0 DUP4 JUMPDEST SWAP2 POP SWAP2 POP PUSH1 0x0 PUSH1 0x2 DUP13 MLOAD PUSH2 0xC81 SWAP2 SWAP1 PUSH2 0x1209 JUMP JUMPDEST DUP11 LT PUSH2 0xC8D JUMPI DUP11 PUSH2 0xCC7 JUMP JUMPDEST PUSH1 0x0 SLOAD PUSH2 0xCC7 SWAP1 PUSH1 0x1 PUSH1 0x1 PUSH1 0xA0 SHL SUB AND DUP10 DUP15 PUSH2 0xCAA DUP15 PUSH1 0x2 PUSH2 0x1308 JUMP JUMPDEST DUP2 MLOAD DUP2 LT PUSH2 0xCBA JUMPI PUSH2 0xCBA PUSH2 0x11BB JUMP JUMPDEST PUSH1 0x20 MUL PUSH1 0x20 ADD ADD MLOAD PUSH2 0x870 JUMP JUMPDEST PUSH1 0x40 DUP1 MLOAD PUSH1 0x0 DUP2 MSTORE PUSH1 0x20 DUP2 ADD SWAP2 DUP3 SWAP1 MSTORE PUSH4 0x22C0D9F PUSH1 0xE0 SHL SWAP1 SWAP2 MSTORE SWAP1 SWAP2 POP PUSH1 0x1 PUSH1 0x1 PUSH1 0xA0 SHL SUB DUP8 AND SWAP1 PUSH4 0x22C0D9F SWAP1 PUSH2 0xD09 SWAP1 DUP7 SWAP1 DUP7 SWAP1 DUP7 SWAP1 PUSH1 0x24 DUP2 ADD PUSH2 0x1387 JUMP JUMPDEST PUSH1 0x0 PUSH1 0x40 MLOAD DUP1 DUP4 SUB DUP2 PUSH1 0x0 DUP8 DUP1 EXTCODESIZE ISZERO DUP1 ISZERO PUSH2 0xD23 JUMPI PUSH1 0x0 DUP1 REVERT JUMPDEST POP GAS CALL ISZERO DUP1 ISZERO PUSH2 0xD37 JUMPI RETURNDATASIZE PUSH1 0x0 DUP1 RETURNDATACOPY RETURNDATASIZE PUSH1 0x0 REVERT JUMPDEST POP POP POP POP POP POP POP POP POP POP POP POP POP DUP1 DUP1 PUSH2 0xD4F SWAP1 PUSH2 0x13D7 JUMP JUMPDEST SWAP2 POP POP PUSH2 0xA8A JUMP JUMPDEST POP POP POP JUMP JUMPDEST PUSH1 0x40 DUP1 MLOAD PUSH1 0x0 DUP1 DUP3 MSTORE PUSH1 0x20 DUP3 ADD SWAP1 SWAP3 MSTORE PUSH1 0x1 PUSH1 0x1 PUSH1 0xA0 SHL SUB DUP5 AND SWAP1 DUP4 SWAP1 PUSH1 0x40 MLOAD PUSH2 0xD86 SWAP2 SWAP1 PUSH2 0x12EC JUMP JUMPDEST PUSH1 0x0 PUSH1 0x40 MLOAD DUP1 DUP4 SUB DUP2 DUP6 DUP8 GAS CALL SWAP3 POP POP POP RETURNDATASIZE DUP1 PUSH1 0x0 DUP2 EQ PUSH2 0xDC3 JUMPI PUSH1 0x40 MLOAD SWAP2 POP PUSH1 0x1F NOT PUSH1 0x3F RETURNDATASIZE ADD AND DUP3 ADD PUSH1 0x40 MSTORE RETURNDATASIZE DUP3 MSTORE RETURNDATASIZE PUSH1 0x0 PUSH1 0x20 DUP5 ADD RETURNDATACOPY PUSH2 0xDC8 JUMP JUMPDEST PUSH1 0x60 SWAP2 POP JUMPDEST POP POP SWAP1 POP DUP1 PUSH2 0xD57 JUMPI PUSH1 0x40 MLOAD PUSH3 0x461BCD PUSH1 0xE5 SHL DUP2 MSTORE PUSH1 0x20 PUSH1 0x4 DUP3 ADD MSTORE PUSH1 0x34 PUSH1 0x24 DUP3 ADD MSTORE PUSH32 0x5472616E7366657248656C7065723A3A736166655472616E736665724554483A PUSH1 0x44 DUP3 ADD MSTORE PUSH20 0x8115512081D1C985B9CD9995C8819985A5B1959 PUSH1 0x62 SHL PUSH1 0x64 DUP3 ADD MSTORE PUSH1 0x84 ADD PUSH2 0x121 JUMP JUMPDEST PUSH1 0x0 DUP1 DUP3 PUSH1 0x1 PUSH1 0x1 PUSH1 0xA0 SHL SUB AND DUP5 PUSH1 0x1 PUSH1 0x1 PUSH1 0xA0 SHL SUB AND SUB PUSH2 0xEA8 JUMPI PUSH1 0x40 MLOAD PUSH3 0x461BCD PUSH1 0xE5 SHL DUP2 MSTORE PUSH1 0x20 PUSH1 0x4 DUP3 ADD MSTORE PUSH1 0x25 PUSH1 0x24 DUP3 ADD MSTORE PUSH32 0x556E697377617056324C6962726172793A204944454E544943414C5F41444452 PUSH1 0x44 DUP3 ADD MSTORE PUSH5 0x4553534553 PUSH1 0xD8 SHL PUSH1 0x64 DUP3 ADD MSTORE PUSH1 0x84 ADD PUSH2 0x121 JUMP JUMPDEST DUP3 PUSH1 0x1 PUSH1 0x1 PUSH1 0xA0 SHL SUB AND DUP5 PUSH1 0x1 PUSH1 0x1 PUSH1 0xA0 SHL SUB AND LT PUSH2 0xEC8 JUMPI DUP3 DUP5 PUSH2 0xECB JUMP JUMPDEST DUP4 DUP4 JUMPDEST SWAP1 SWAP3 POP SWAP1 POP PUSH1 0x1 PUSH1 0x1 PUSH1 0xA0 SHL SUB DUP3 AND PUSH2 0xF26 JUMPI PUSH1 0x40 MLOAD PUSH3 0x461BCD PUSH1 0xE5 SHL DUP2 MSTORE PUSH1 0x20 PUSH1 0x4 DUP3 ADD MSTORE PUSH1 0x1E PUSH1 0x24 DUP3 ADD MSTORE PUSH32 0x556E697377617056324C6962726172793A205A45524F5F414444524553530000 PUSH1 0x44 DUP3 ADD MSTORE PUSH1 0x64 ADD PUSH2 0x121 JUMP JUMPDEST SWAP3 POP SWAP3 SWAP1 POP JUMP JUMPDEST PUSH1 0x0 DUP1 DUP5 GT PUSH2 0xF92 JUMPI PUSH1 0x40 MLOAD PUSH3 0x461BCD PUSH1 0xE5 SHL DUP2 MSTORE PUSH1 0x20 PUSH1 0x4 DUP3 ADD MSTORE PUSH1 0x2B PUSH1 0x24 DUP3 ADD MSTORE PUSH32 0x556E697377617056324C6962726172793A20494E53554646494349454E545F49 PUSH1 0x44 DUP3 ADD MSTORE PUSH11 0x1394155517D05353D55395 PUSH1 0xAA SHL PUSH1 0x64 DUP3 ADD MSTORE PUSH1 0x84 ADD PUSH2 0x121 JUMP JUMPDEST PUSH1 0x0 DUP4 GT DUP1 ISZERO PUSH2 0xFA2 JUMPI POP PUSH1 0x0 DUP3 GT JUMPDEST PUSH2 0xFFF JUMPI PUSH1 0x40 MLOAD PUSH3 0x461BCD PUSH1 0xE5 SHL DUP2 MSTORE PUSH1 0x20 PUSH1 0x4 DUP3 ADD MSTORE PUSH1 0x28 PUSH1 0x24 DUP3 ADD MSTORE PUSH32 0x556E697377617056324C6962726172793A20494E53554646494349454E545F4C PUSH1 0x44 DUP3 ADD MSTORE PUSH8 0x4951554944495459 PUSH1 0xC0 SHL PUSH1 0x64 DUP3 ADD MSTORE PUSH1 0x84 ADD PUSH2 0x121 JUMP JUMPDEST PUSH1 0x0 PUSH2 0x100D DUP6 PUSH2 0x3E5 PUSH2 0x13F0 JUMP JUMPDEST SWAP1 POP PUSH1 0x0 PUSH2 0x101B DUP5 DUP4 PUSH2 0x13F0 JUMP JUMPDEST SWAP1 POP PUSH1 0x0 DUP3 PUSH2 0x102C DUP8 PUSH2 0x3E8 PUSH2 0x13F0 JUMP JUMPDEST PUSH2 0x1036 SWAP2 SWAP1 PUSH2 0x1308 JUMP JUMPDEST SWAP1 POP PUSH2 0x1042 DUP2 DUP4 PUSH2 0x140F JUMP JUMPDEST SWAP8 SWAP7 POP POP POP POP POP POP POP JUMP JUMPDEST PUSH1 0x0 DUP1 DUP4 PUSH1 0x1F DUP5 ADD SLT PUSH2 0x105F JUMPI PUSH1 0x0 DUP1 REVERT JUMPDEST POP DUP2 CALLDATALOAD PUSH8 0xFFFFFFFFFFFFFFFF DUP2 GT ISZERO PUSH2 0x1077 JUMPI PUSH1 0x0 DUP1 REVERT JUMPDEST PUSH1 0x20 DUP4 ADD SWAP2 POP DUP4 PUSH1 0x20 DUP3 PUSH1 0x5 SHL DUP6 ADD ADD GT ISZERO PUSH2 0xF26 JUMPI PUSH1 0x0 DUP1 REVERT JUMPDEST DUP1 CALLDATALOAD PUSH1 0x1 PUSH1 0x1 PUSH1 0xA0 SHL SUB DUP2 AND DUP2 EQ PUSH2 0x10A9 JUMPI PUSH1 0x0 DUP1 REVERT JUMPDEST SWAP2 SWAP1 POP JUMP JUMPDEST PUSH1 0x0 DUP1 PUSH1 0x0 DUP1 PUSH1 0x0 DUP1 PUSH1 0xA0 DUP8 DUP10 SUB SLT ISZERO PUSH2 0x10C7 JUMPI PUSH1 0x0 DUP1 REVERT JUMPDEST DUP7 CALLDATALOAD SWAP6 POP PUSH1 0x20 DUP8 ADD CALLDATALOAD SWAP5 POP PUSH1 0x40 DUP8 ADD CALLDATALOAD PUSH8 0xFFFFFFFFFFFFFFFF DUP2 GT ISZERO PUSH2 0x10EC JUMPI PUSH1 0x0 DUP1 REVERT JUMPDEST PUSH2 0x10F8 DUP10 DUP3 DUP11 ADD PUSH2 0x104D JUMP JUMPDEST SWAP1 SWAP6 POP SWAP4 POP PUSH2 0x110B SWAP1 POP PUSH1 0x60 DUP9 ADD PUSH2 0x1092 JUMP JUMPDEST SWAP2 POP PUSH1 0x80 DUP8 ADD CALLDATALOAD SWAP1 POP SWAP3 SWAP6 POP SWAP3 SWAP6 POP SWAP3 SWAP6 JUMP JUMPDEST PUSH1 0x0 DUP1 PUSH1 0x0 DUP1 PUSH1 0x0 PUSH1 0x80 DUP7 DUP9 SUB SLT ISZERO PUSH2 0x1136 JUMPI PUSH1 0x0 DUP1 REVERT JUMPDEST DUP6 CALLDATALOAD SWAP5 POP PUSH1 0x20 DUP7 ADD CALLDATALOAD PUSH8 0xFFFFFFFFFFFFFFFF DUP2 GT ISZERO PUSH2 0x1154 JUMPI PUSH1 0x0 DUP1 REVERT JUMPDEST PUSH2 0x1160 DUP9 DUP3 DUP10 ADD PUSH2 0x104D JUMP JUMPDEST SWAP1 SWAP6 POP SWAP4 POP PUSH2 0x1173 SWAP1 POP PUSH1 0x40 DUP8 ADD PUSH2 0x1092 JUMP JUMPDEST SWAP5 SWAP8 SWAP4 SWAP7 POP SWAP2 SWAP5 PUSH1 0x60 ADD CALLDATALOAD SWAP3 SWAP2 POP POP JUMP JUMPDEST PUSH1 0x20 DUP1 DUP3 MSTORE PUSH1 0x18 SWAP1 DUP3 ADD MSTORE PUSH32 0x556E69737761705632526F757465723A20455850495245440000000000000000 PUSH1 0x40 DUP3 ADD MSTORE PUSH1 0x60 ADD SWAP1 JUMP JUMPDEST PUSH4 0x4E487B71 PUSH1 0xE0 SHL PUSH1 0x0 MSTORE PUSH1 0x32 PUSH1 0x4 MSTORE PUSH1 0x24 PUSH1 0x0 REVERT JUMPDEST PUSH1 0x0 PUSH1 0x20 DUP3 DUP5 SUB SLT ISZERO PUSH2 0x11E3 JUMPI PUSH1 0x0 DUP1 REVERT JUMPDEST PUSH2 0x11EC DUP3 PUSH2 0x1092 JUMP JUMPDEST SWAP4 SWAP3 POP POP POP JUMP JUMPDEST PUSH4 0x4E487B71 PUSH1 0xE0 SHL PUSH1 0x0 MSTORE PUSH1 0x11 PUSH1 0x4 MSTORE PUSH1 0x24 PUSH1 0x0 REVERT JUMPDEST PUSH1 0x0 DUP3 DUP3 LT ISZERO PUSH2 0x121B JUMPI PUSH2 0x121B PUSH2 0x11F3 JUMP JUMPDEST POP SUB SWAP1 JUMP JUMPDEST PUSH1 0x0 PUSH1 0x20 DUP3 DUP5 SUB SLT ISZERO PUSH2 0x1232 JUMPI PUSH1 0x0 DUP1 REVERT JUMPDEST POP MLOAD SWAP2 SWAP1 POP JUMP JUMPDEST PUSH1 0x20 DUP1 DUP3 MSTORE PUSH1 0x2B SWAP1 DUP3 ADD MSTORE PUSH32 0x556E69737761705632526F757465723A20494E53554646494349454E545F4F55 PUSH1 0x40 DUP3 ADD MSTORE PUSH11 0x1514155517D05353D55395 PUSH1 0xAA SHL PUSH1 0x60 DUP3 ADD MSTORE PUSH1 0x80 ADD SWAP1 JUMP JUMPDEST PUSH1 0x0 PUSH1 0x20 DUP3 DUP5 SUB SLT ISZERO PUSH2 0x1296 JUMPI PUSH1 0x0 DUP1 REVERT JUMPDEST DUP2 MLOAD DUP1 ISZERO ISZERO DUP2 EQ PUSH2 0x11EC JUMPI PUSH1 0x0 DUP1 REVERT JUMPDEST PUSH4 0x4E487B71 PUSH1 0xE0 SHL PUSH1 0x0 MSTORE PUSH1 0x1 PUSH1 0x4 MSTORE PUSH1 0x24 PUSH1 0x0 REVERT JUMPDEST PUSH1 0x0 JUMPDEST DUP4 DUP2 LT ISZERO PUSH2 0x12D7 JUMPI DUP2 DUP2 ADD MLOAD DUP4 DUP3 ADD MSTORE PUSH1 0x20 ADD PUSH2 0x12BF JUMP JUMPDEST DUP4 DUP2 GT ISZERO PUSH2 0x12E6 JUMPI PUSH1 0x0 DUP5 DUP5 ADD MSTORE JUMPDEST POP POP POP POP JUMP JUMPDEST PUSH1 0x0 DUP3 MLOAD PUSH2 0x12FE DUP2 DUP5 PUSH1 0x20 DUP8 ADD PUSH2 0x12BC JUMP JUMPDEST SWAP2 SWAP1 SWAP2 ADD SWAP3 SWAP2 POP POP JUMP JUMPDEST PUSH1 0x0 DUP3 NOT DUP3 GT ISZERO PUSH2 0x131B JUMPI PUSH2 0x131B PUSH2 0x11F3 JUMP JUMPDEST POP ADD SWAP1 JUMP JUMPDEST DUP1 MLOAD PUSH1 0x1 PUSH1 0x1 PUSH1 0x70 SHL SUB DUP2 AND DUP2 EQ PUSH2 0x10A9 JUMPI PUSH1 0x0 DUP1 REVERT JUMPDEST PUSH1 0x0 DUP1 PUSH1 0x0 PUSH1 0x60 DUP5 DUP7 SUB SLT ISZERO PUSH2 0x134C JUMPI PUSH1 0x0 DUP1 REVERT JUMPDEST PUSH2 0x1355 DUP5 PUSH2 0x1320 JUMP JUMPDEST SWAP3 POP PUSH2 0x1363 PUSH1 0x20 DUP6 ADD PUSH2 0x1320 JUMP JUMPDEST SWAP2 POP PUSH1 0x40 DUP5 ADD MLOAD PUSH4 0xFFFFFFFF DUP2 AND DUP2 EQ PUSH2 0x137C JUMPI PUSH1 0x0 DUP1 REVERT JUMPDEST DUP1 SWAP2 POP POP SWAP3 POP SWAP3 POP SWAP3 JUMP JUMPDEST DUP5 DUP2 MSTORE DUP4 PUSH1 0x20 DUP3 ADD MSTORE PUSH1 0x1 DUP1 PUSH1 0xA0 SHL SUB DUP4 AND PUSH1 0x40 DUP3 ADD MSTORE PUSH1 0x80 PUSH1 0x60 DUP3 ADD MSTORE PUSH1 0x0 DUP3 MLOAD DUP1 PUSH1 0x80 DUP5 ADD MSTORE PUSH2 0x13C0 DUP2 PUSH1 0xA0 DUP6 ADD PUSH1 0x20 DUP8 ADD PUSH2 0x12BC JUMP JUMPDEST PUSH1 0x1F ADD PUSH1 0x1F NOT AND SWAP2 SWAP1 SWAP2 ADD PUSH1 0xA0 ADD SWAP6 SWAP5 POP POP POP POP POP JUMP JUMPDEST PUSH1 0x0 PUSH1 0x1 DUP3 ADD PUSH2 0x13E9 JUMPI PUSH2 0x13E9 PUSH2 0x11F3 JUMP JUMPDEST POP PUSH1 0x1 ADD SWAP1 JUMP JUMPDEST PUSH1 0x0 DUP2 PUSH1 0x0 NOT DIV DUP4 GT DUP3 ISZERO ISZERO AND ISZERO PUSH2 0x140A JUMPI PUSH2 0x140A PUSH2 0x11F3 JUMP JUMPDEST POP MUL SWAP1 JUMP JUMPDEST PUSH1 0x0 DUP3 PUSH2 0x142C JUMPI PUSH4 0x4E487B71 PUSH1 0xE0 SHL PUSH1 0x0 MSTORE PUSH1 0x12 PUSH1 0x4 MSTORE PUSH1 0x24 PUSH1 0x0 REVERT JUMPDEST POP DIV SWAP1 JUMP INVALID LOG2 PUSH5 0x6970667358 0x22 SLT KECCAK256 0xE9 PUSH8 0x465CD4AA577ABFBE DUP11 SLT 0x21 0xB5 SWAP3 0xB7 NOT ADDMOD SWAP10 MSTORE 0x1F 0xF7 ADDMOD 0xF9 SHL PUSH18 0xC38CC5CF68D864736F6C634300080F003300 "
				},
				"gasEstimates": {
					"creation": {
						"codeDepositCost": "1044600",
						"executionCost": "infinite",
						"totalCost": "infinite"
					},
					"external": {
						"WETH()": "2347",
						"factory()": "2391",
						"swapExactETHForTokensSupportingFeeOnTransferTokens(uint256,address[],address,uint256)": "infinite",
						"swapExactTokensForETHSupportingFeeOnTransferTokens(uint256,uint256,address[],address,uint256)": "infinite",
						"swapExactTokensForTokensSupportingFeeOnTransferTokens(uint256,uint256,address[],address,uint256)": "infinite"
					},
					"internal": {
						"_swapSupportingFeeOnTransferTokens(address[] memory,address)": "infinite"
					}
				},
				"methodIdentifiers": {
					"WETH()": "ad5c4648",
					"factory()": "c45a0155",
					"swapExactETHForTokensSupportingFeeOnTransferTokens(uint256,address[],address,uint256)": "b6f9de95",
					"swapExactTokensForETHSupportingFeeOnTransferTokens(uint256,uint256,address[],address,uint256)": "791ac947",
					"swapExactTokensForTokensSupportingFeeOnTransferTokens(uint256,uint256,address[],address,uint256)": "5c11d795"
				}
			},
			"storageLayout": {
				"storage": [
					{
						"astId": 9,
						"contract": "v2_periphery/UniswapV2Router02Part.sol:UniswapV2Router02Part",
						"label": "factory",
						"offset": 0,
						"slot": "0",
						"type": "t_address"
					},
					{
						"astId": 11,
						"contract": "v2_periphery/UniswapV2Router02Part.sol:UniswapV2Router02Part",
						"label": "WETH",
						"offset": 0,
						"slot": "1",
						"type": "t_address"
					}
				],
				"types": {
					"t_address": {
						"encoding": "inplace",
						"label": "address",
						"numberOfBytes": "20"
					}
				}
			},
			"userdoc": {
				"kind": "user",
				"methods": {},
				"version": 1
			}
		}
	}
}