{
	"v2_periphery/UniswapV2Router02Part.sol": {
		"UniswapV2Router02Part": {
			"abi": [
				{
					"inputs": [
						{
							"internalType": "address",
							"name": "_factory",
							"type": "address"
						},
						{
							"internalType": "address",
							"name": "_WETH",
							"type": "address"
						}
					],
					"stateMutability": "nonpayable",
					"type": "constructor"
				},
				{
					"inputs": [],
					"name": "WETH",
					"outputs": [
						{
							"internalType": "address",
							"name": "",
							"type": "address"
						}
					],
					"stateMutability": "view",
					"type": "function"
				},
				{
					"inputs": [],
					"name": "factory",
					"outputs": [
						{
							"internalType": "address",
							"name": "",
							"type": "address"
						}
					],
					"stateMutability": "view",
					"type": "function"
				},
				{
					"inputs": [
						{
							"internalType": "uint256",
							"name": "amountOut",
							"type": "uint256"
						},
						{
							"internalType": "address[]",
							"name": "path",
							"type": "address[]"
						},
						{
							"internalType": "address",
							"name": "to",
							"type": "address"
						},
						{
							"internalType": "uint256",
							"name": "deadline",
							"type": "uint256"
						}
					],
					"name": "swapETHForExactTokens",
					"outputs": [
						{
							"internalType": "uint256[]",
							"name": "amounts",
							"type": "uint256[]"
						}
					],
					"stateMutability": "payable",
					"type": "function"
				},
				{
					"inputs": [
						{
							"internalType": "uint256",
							"name": "amountOutMin",
							"type": "uint256"
						},
						{
							"internalType": "address[]",
							"name": "path",
							"type": "address[]"
						},
						{
							"internalType": "address",
							"name": "to",
							"type": "address"
						},
						{
							"internalType": "uint256",
							"name": "deadline",
							"type": "uint256"
						}
					],
					"name": "swapExactETHForTokens",
					"outputs": [
						{
							"internalType": "uint256[]",
							"name": "amounts",
							"type": "uint256[]"
						}
					],
					"stateMutability": "payable",
					"type": "function"
				},
				{
					"inputs": [
						{
							"internalType": "uint256",
							"name": "amountOutMin",
							"type": "uint256"
						},
						{
							"internalType": "address[]",
							"name": "path",
							"type": "address[]"
						},
						{
							"internalType": "address",
							"name": "to",
							"type": "address"
						},
						{
							"internalType": "uint256",
							"name": "deadline",
							"type": "uint256"
						}
					],
					"name": "swapExactETHForTokensSupportingFeeOnTransferTokens",
					"outputs": [],
					"stateMutability": "payable",
					"type": "function"
				},
				{
					"inputs": [
						{
							"internalType": "uint256",
							"name": "amountIn",
							"type": "uint256"
						},
						{
							"internalType": "uint256",
							"name": "amountOutMin",
							"type": "uint256"
						},
						{
							"internalType": "address[]",
							"name": "path",
							"type": "address[]"
						},
						{
							"internalType": "address",
							"name": "to",
							"type": "address"
						},
						{
							"internalType": "uint256",
							"name": "deadline",
							"type": "uint256"
						}
					],
					"name": "swapExactTokensForETH",
					"outputs": [
						{
							"internalType": "uint256[]",
							"name": "amounts",
							"type": "uint256[]"
						}
					],
					"stateMutability": "nonpayable",
					"type": "function"
				},
				{
					"inputs": [
						{
							"internalType": "uint256",
							"name": "amountIn",
							"type": "uint256"
						},
						{
							"internalType": "uint256",
							"name": "amountOutMin",
							"type": "uint256"
						},
						{
							"internalType": "address[]",
							"name": "path",
							"type": "address[]"
						},
						{
							"internalType": "address",
							"name": "to",
							"type": "address"
						},
						{
							"internalType": "uint256",
							"name": "deadline",
							"type": "uint256"
						}
					],
					"name": "swapExactTokensForETHSupportingFeeOnTransferTokens",
					"outputs": [],
					"stateMutability": "nonpayable",
					"type": "function"
				},
				{
					"inputs": [
						{
							"internalType": "uint256",
							"name": "amountIn",
							"type": "uint256"
						},
						{
							"internalType": "uint256",
							"name": "amountOutMin",
							"type": "uint256"
						},
						{
							"internalType": "address[]",
							"name": "path",
							"type": "address[]"
						},
						{
							"internalType": "address",
							"name": "to",
							"type": "address"
						},
						{
							"internalType": "uint256",
							"name": "deadline",
							"type": "uint256"
						}
					],
					"name": "swapExactTokensForTokens",
					"outputs": [
						{
							"internalType": "uint256[]",
							"name": "amounts",
							"type": "uint256[]"
						}
					],
					"stateMutability": "nonpayable",
					"type": "function"
				},
				{
					"inputs": [
						{
							"internalType": "uint256",
							"name": "amountIn",
							"type": "uint256"
						},
						{
							"internalType": "uint256",
							"name": "amountOutMin",
							"type": "uint256"
						},
						{
							"internalType": "address[]",
							"name": "path",
							"type": "address[]"
						},
						{
							"internalType": "address",
							"name": "to",
							"type": "address"
						},
						{
							"internalType": "uint256",
							"name": "deadline",
							"type": "uint256"
						}
					],
					"name": "swapExactTokensForTokensSupportingFeeOnTransferTokens",
					"outputs": [],
					"stateMutability": "nonpayable",
					"type": "function"
				},
				{
					"inputs": [
						{
							"internalType": "uint256",
							"name": "amountOut",
							"type": "uint256"
						},
						{
							"internalType": "uint256",
							"name": "amountInMax",
							"type": "uint256"
						},
						{
							"internalType": "address[]",
							"name": "path",
							"type": "address[]"
						},
						{
							"internalType": "address",
							"name": "to",
							"type": "address"
						},
						{
							"internalType": "uint256",
							"name": "deadline",
							"type": "uint256"
						}
					],
					"name": "swapTokensForExactETH",
					"outputs": [
						{
							"internalType": "uint256[]",
							"name": "amounts",
							"type": "uint256[]"
						}
					],
					"stateMutability": "nonpayable",
					"type": "function"
				},
				{
					"inputs": [
						{
							"internalType": "uint256",
							"name": "amountOut",
							"type": "uint256"
						},
						{
							"internalType": "uint256",
							"name": "amountInMax",
							"type": "uint256"
						},
						{
							"internalType": "address[]",
							"name": "path",
							"type": "address[]"
						},
						{
							"internalType": "address",
							"name": "to",
							"type": "address"
						},
						{
							"internalType": "uint256",
							"name": "deadline",
							"type": "uint256"
						}
					],
					"name": "swapTokensForExactTokens",
					"outputs": [
						{
							"internalType": "uint256[]",
							"name": "amounts",
							"type": "uint256[]"
						}
					],
					"stateMutability": "nonpayable",
					"type": "function"
				}
			],
			"devdoc": {
				"kind": "dev",
				"methods": {},
				"version": 1
			},
			"evm": {
				"assembly": "    /* \"v2_periphery/UniswapV2Router02Part.sol\":423:9658  contract UniswapV2Router02Part  {... */\n  mstore(0x40, 0x80)\n    /* \"v2_periphery/UniswapV2Router02Part.sol\":519:624  constructor(address _factory, address _WETH) {... */\n  callvalue\n  dup1\n  iszero\n  tag_1\n  jumpi\n  0x00\n  dup1\n  revert\ntag_1:\n  pop\n  mload(0x40)\n  sub(codesize, bytecodeSize)\n  dup1\n  bytecodeSize\n  dup4\n  codecopy\n  dup2\n  dup2\n  add\n  0x40\n  mstore\n  dup2\n  add\n  swap1\n  tag_2\n  swap2\n  swap1\n  tag_3\n  jump\t// in\ntag_2:\n    /* \"v2_periphery/UniswapV2Router02Part.sol\":585:593  _factory */\n  dup2\n    /* \"v2_periphery/UniswapV2Router02Part.sol\":575:582  factory */\n  0x00\n  dup1\n    /* \"v2_periphery/UniswapV2Router02Part.sol\":575:593  factory = _factory */\n  0x0100\n  exp\n  dup2\n  sload\n  dup2\n  0xffffffffffffffffffffffffffffffffffffffff\n  mul\n  not\n  and\n  swap1\n  dup4\n  0xffffffffffffffffffffffffffffffffffffffff\n  and\n  mul\n  or\n  swap1\n  sstore\n  pop\n    /* \"v2_periphery/UniswapV2Router02Part.sol\":611:616  _WETH */\n  dup1\n    /* \"v2_periphery/UniswapV2Router02Part.sol\":604:608  WETH */\n  0x01\n  0x00\n    /* \"v2_periphery/UniswapV2Router02Part.sol\":604:616  WETH = _WETH */\n  0x0100\n  exp\n  dup2\n  sload\n  dup2\n  0xffffffffffffffffffffffffffffffffffffffff\n  mul\n  not\n  and\n  swap1\n  dup4\n  0xffffffffffffffffffffffffffffffffffffffff\n  and\n  mul\n  or\n  swap1\n  sstore\n  pop\n    /* \"v2_periphery/UniswapV2Router02Part.sol\":519:624  constructor(address _factory, address _WETH) {... */\n  pop\n  pop\n    /* \"v2_periphery/UniswapV2Router02Part.sol\":423:9658  contract UniswapV2Router02Part  {... */\n  jump(tag_6)\n    /* \"#utility.yul\":88:205   */\ntag_8:\n    /* \"#utility.yul\":197:198   */\n  0x00\n    /* \"#utility.yul\":194:195   */\n  dup1\n    /* \"#utility.yul\":187:199   */\n  revert\n    /* \"#utility.yul\":334:460   */\ntag_10:\n    /* \"#utility.yul\":371:378   */\n  0x00\n    /* \"#utility.yul\":411:453   */\n  0xffffffffffffffffffffffffffffffffffffffff\n    /* \"#utility.yul\":404:409   */\n  dup3\n    /* \"#utility.yul\":400:454   */\n  and\n    /* \"#utility.yul\":389:454   */\n  swap1\n  pop\n    /* \"#utility.yul\":334:460   */\n  swap2\n  swap1\n  pop\n  jump\t// out\n    /* \"#utility.yul\":466:562   */\ntag_11:\n    /* \"#utility.yul\":503:510   */\n  0x00\n    /* \"#utility.yul\":532:556   */\n  tag_20\n    /* \"#utility.yul\":550:555   */\n  dup3\n    /* \"#utility.yul\":532:556   */\n  tag_10\n  jump\t// in\ntag_20:\n    /* \"#utility.yul\":521:556   */\n  swap1\n  pop\n    /* \"#utility.yul\":466:562   */\n  swap2\n  swap1\n  pop\n  jump\t// out\n    /* \"#utility.yul\":568:690   */\ntag_12:\n    /* \"#utility.yul\":641:665   */\n  tag_22\n    /* \"#utility.yul\":659:664   */\n  dup2\n    /* \"#utility.yul\":641:665   */\n  tag_11\n  jump\t// in\ntag_22:\n    /* \"#utility.yul\":634:639   */\n  dup2\n    /* \"#utility.yul\":631:666   */\n  eq\n    /* \"#utility.yul\":621:684   */\n  tag_23\n  jumpi\n    /* \"#utility.yul\":680:681   */\n  0x00\n    /* \"#utility.yul\":677:678   */\n  dup1\n    /* \"#utility.yul\":670:682   */\n  revert\n    /* \"#utility.yul\":621:684   */\ntag_23:\n    /* \"#utility.yul\":568:690   */\n  pop\n  jump\t// out\n    /* \"#utility.yul\":696:839   */\ntag_13:\n    /* \"#utility.yul\":753:758   */\n  0x00\n    /* \"#utility.yul\":784:790   */\n  dup2\n    /* \"#utility.yul\":778:791   */\n  mload\n    /* \"#utility.yul\":769:791   */\n  swap1\n  pop\n    /* \"#utility.yul\":800:833   */\n  tag_25\n    /* \"#utility.yul\":827:832   */\n  dup2\n    /* \"#utility.yul\":800:833   */\n  tag_12\n  jump\t// in\ntag_25:\n    /* \"#utility.yul\":696:839   */\n  swap3\n  swap2\n  pop\n  pop\n  jump\t// out\n    /* \"#utility.yul\":845:1352   */\ntag_3:\n    /* \"#utility.yul\":924:930   */\n  0x00\n    /* \"#utility.yul\":932:938   */\n  dup1\n    /* \"#utility.yul\":981:983   */\n  0x40\n    /* \"#utility.yul\":969:978   */\n  dup4\n    /* \"#utility.yul\":960:967   */\n  dup6\n    /* \"#utility.yul\":956:979   */\n  sub\n    /* \"#utility.yul\":952:984   */\n  slt\n    /* \"#utility.yul\":949:1068   */\n  iszero\n  tag_27\n  jumpi\n    /* \"#utility.yul\":987:1066   */\n  tag_28\n  tag_8\n  jump\t// in\ntag_28:\n    /* \"#utility.yul\":949:1068   */\ntag_27:\n    /* \"#utility.yul\":1107:1108   */\n  0x00\n    /* \"#utility.yul\":1132:1196   */\n  tag_29\n    /* \"#utility.yul\":1188:1195   */\n  dup6\n    /* \"#utility.yul\":1179:1185   */\n  dup3\n    /* \"#utility.yul\":1168:1177   */\n  dup7\n    /* \"#utility.yul\":1164:1186   */\n  add\n    /* \"#utility.yul\":1132:1196   */\n  tag_13\n  jump\t// in\ntag_29:\n    /* \"#utility.yul\":1122:1196   */\n  swap3\n  pop\n    /* \"#utility.yul\":1078:1206   */\n  pop\n    /* \"#utility.yul\":1245:1247   */\n  0x20\n    /* \"#utility.yul\":1271:1335   */\n  tag_30\n    /* \"#utility.yul\":1327:1334   */\n  dup6\n    /* \"#utility.yul\":1318:1324   */\n  dup3\n    /* \"#utility.yul\":1307:1316   */\n  dup7\n    /* \"#utility.yul\":1303:1325   */\n  add\n    /* \"#utility.yul\":1271:1335   */\n  tag_13\n  jump\t// in\ntag_30:\n    /* \"#utility.yul\":1261:1335   */\n  swap2\n  pop\n    /* \"#utility.yul\":1216:1345   */\n  pop\n    /* \"#utility.yul\":845:1352   */\n  swap3\n  pop\n  swap3\n  swap1\n  pop\n  jump\t// out\n    /* \"v2_periphery/UniswapV2Router02Part.sol\":423:9658  contract UniswapV2Router02Part  {... */\ntag_6:\n  dataSize(sub_0)\n  dup1\n  dataOffset(sub_0)\n  0x00\n  codecopy\n  0x00\n  return\nstop\n\nsub_0: assembly {\n        /* \"v2_periphery/UniswapV2Router02Part.sol\":423:9658  contract UniswapV2Router02Part  {... */\n      mstore(0x40, 0x80)\n      jumpi(tag_1, lt(calldatasize, 0x04))\n      shr(0xe0, calldataload(0x00))\n      dup1\n      0x7ff36ab5\n      gt\n      tag_13\n      jumpi\n      dup1\n      0x7ff36ab5\n      eq\n      tag_7\n      jumpi\n      dup1\n      0x8803dbee\n      eq\n      tag_8\n      jumpi\n      dup1\n      0xad5c4648\n      eq\n      tag_9\n      jumpi\n      dup1\n      0xb6f9de95\n      eq\n      tag_10\n      jumpi\n      dup1\n      0xc45a0155\n      eq\n      tag_11\n      jumpi\n      dup1\n      0xfb3bdb41\n      eq\n      tag_12\n      jumpi\n      jump(tag_1)\n    tag_13:\n      dup1\n      0x18cbafe5\n      eq\n      tag_2\n      jumpi\n      dup1\n      0x38ed1739\n      eq\n      tag_3\n      jumpi\n      dup1\n      0x4a25d94a\n      eq\n      tag_4\n      jumpi\n      dup1\n      0x5c11d795\n      eq\n      tag_5\n      jumpi\n      dup1\n      0x791ac947\n      eq\n      tag_6\n      jumpi\n    tag_1:\n      0x00\n      dup1\n      revert\n        /* \"v2_periphery/UniswapV2Router02Part.sol\":4280:5132  function swapExactTokensForETH(uint amountIn, uint amountOutMin, address[] calldata path, address to, uint deadline)... */\n    tag_2:\n      callvalue\n      dup1\n      iszero\n      tag_14\n      jumpi\n      0x00\n      dup1\n      revert\n    tag_14:\n      pop\n      tag_15\n      0x04\n      dup1\n      calldatasize\n      sub\n      dup2\n      add\n      swap1\n      tag_16\n      swap2\n      swap1\n      tag_17\n      jump\t// in\n    tag_16:\n      tag_18\n      jump\t// in\n    tag_15:\n      mload(0x40)\n      tag_19\n      swap2\n      swap1\n      tag_20\n      jump\t// in\n    tag_19:\n      mload(0x40)\n      dup1\n      swap2\n      sub\n      swap1\n      return\n        /* \"v2_periphery/UniswapV2Router02Part.sol\":1509:2129  function swapExactTokensForTokens(... */\n    tag_3:\n      callvalue\n      dup1\n      iszero\n      tag_21\n      jumpi\n      0x00\n      dup1\n      revert\n    tag_21:\n      pop\n      tag_22\n      0x04\n      dup1\n      calldatasize\n      sub\n      dup2\n      add\n      swap1\n      tag_23\n      swap2\n      swap1\n      tag_17\n      jump\t// in\n    tag_23:\n      tag_24\n      jump\t// in\n    tag_22:\n      mload(0x40)\n      tag_25\n      swap2\n      swap1\n      tag_20\n      jump\t// in\n    tag_25:\n      mload(0x40)\n      dup1\n      swap2\n      sub\n      swap1\n      return\n        /* \"v2_periphery/UniswapV2Router02Part.sol\":3444:4274  function swapTokensForExactETH(uint amountOut, uint amountInMax, address[] calldata path, address to, uint deadline)... */\n    tag_4:\n      callvalue\n      dup1\n      iszero\n      tag_26\n      jumpi\n      0x00\n      dup1\n      revert\n    tag_26:\n      pop\n      tag_27\n      0x04\n      dup1\n      calldatasize\n      sub\n      dup2\n      add\n      swap1\n      tag_28\n      swap2\n      swap1\n      tag_17\n      jump\t// in\n    tag_28:\n      tag_29\n      jump\t// in\n    tag_27:\n      mload(0x40)\n      tag_30\n      swap2\n      swap1\n      tag_20\n      jump\t// in\n    tag_30:\n      mload(0x40)\n      dup1\n      swap2\n      sub\n      swap1\n      return\n        /* \"v2_periphery/UniswapV2Router02Part.sol\":7264:7967  function swapExactTokensForTokensSupportingFeeOnTransferTokens(... */\n    tag_5:\n      callvalue\n      dup1\n      iszero\n      tag_31\n      jumpi\n      0x00\n      dup1\n      revert\n    tag_31:\n      pop\n      tag_32\n      0x04\n      dup1\n      calldatasize\n      sub\n      dup2\n      add\n      swap1\n      tag_33\n      swap2\n      swap1\n      tag_17\n      jump\t// in\n    tag_33:\n      tag_34\n      jump\t// in\n    tag_32:\n      stop\n        /* \"v2_periphery/UniswapV2Router02Part.sol\":8818:9653  function swapExactTokensForETHSupportingFeeOnTransferTokens(... */\n    tag_6:\n      callvalue\n      dup1\n      iszero\n      tag_35\n      jumpi\n      0x00\n      dup1\n      revert\n    tag_35:\n      pop\n      tag_36\n      0x04\n      dup1\n      calldatasize\n      sub\n      dup2\n      add\n      swap1\n      tag_37\n      swap2\n      swap1\n      tag_17\n      jump\t// in\n    tag_37:\n      tag_38\n      jump\t// in\n    tag_36:\n      stop\n        /* \"v2_periphery/UniswapV2Router02Part.sol\":2739:3438  function swapExactETHForTokens(uint amountOutMin, address[] calldata path, address to, uint deadline)... */\n    tag_7:\n      tag_39\n      0x04\n      dup1\n      calldatasize\n      sub\n      dup2\n      add\n      swap1\n      tag_40\n      swap2\n      swap1\n      tag_41\n      jump\t// in\n    tag_40:\n      tag_42\n      jump\t// in\n    tag_39:\n      mload(0x40)\n      tag_43\n      swap2\n      swap1\n      tag_20\n      jump\t// in\n    tag_43:\n      mload(0x40)\n      dup1\n      swap2\n      sub\n      swap1\n      return\n        /* \"v2_periphery/UniswapV2Router02Part.sol\":2135:2733  function swapTokensForExactTokens(... */\n    tag_8:\n      callvalue\n      dup1\n      iszero\n      tag_44\n      jumpi\n      0x00\n      dup1\n      revert\n    tag_44:\n      pop\n      tag_45\n      0x04\n      dup1\n      calldatasize\n      sub\n      dup2\n      add\n      swap1\n      tag_46\n      swap2\n      swap1\n      tag_17\n      jump\t// in\n    tag_46:\n      tag_47\n      jump\t// in\n    tag_45:\n      mload(0x40)\n      tag_48\n      swap2\n      swap1\n      tag_20\n      jump\t// in\n    tag_48:\n      mload(0x40)\n      dup1\n      swap2\n      sub\n      swap1\n      return\n        /* \"v2_periphery/UniswapV2Router02Part.sol\":492:512  address public  WETH */\n    tag_9:\n      callvalue\n      dup1\n      iszero\n      tag_49\n      jumpi\n      0x00\n      dup1\n      revert\n    tag_49:\n      pop\n      tag_50\n      tag_51\n      jump\t// in\n    tag_50:\n      mload(0x40)\n      tag_52\n      swap2\n      swap1\n      tag_53\n      jump\t// in\n    tag_52:\n      mload(0x40)\n      dup1\n      swap2\n      sub\n      swap1\n      return\n        /* \"v2_periphery/UniswapV2Router02Part.sol\":7973:8812  function swapExactETHForTokensSupportingFeeOnTransferTokens(... */\n    tag_10:\n      tag_54\n      0x04\n      dup1\n      calldatasize\n      sub\n      dup2\n      add\n      swap1\n      tag_55\n      swap2\n      swap1\n      tag_41\n      jump\t// in\n    tag_55:\n      tag_56\n      jump\t// in\n    tag_54:\n      stop\n        /* \"v2_periphery/UniswapV2Router02Part.sol\":462:485  address public  factory */\n    tag_11:\n      callvalue\n      dup1\n      iszero\n      tag_57\n      jumpi\n      0x00\n      dup1\n      revert\n    tag_57:\n      pop\n      tag_58\n      tag_59\n      jump\t// in\n    tag_58:\n      mload(0x40)\n      tag_60\n      swap2\n      swap1\n      tag_53\n      jump\t// in\n    tag_60:\n      mload(0x40)\n      dup1\n      swap2\n      sub\n      swap1\n      return\n        /* \"v2_periphery/UniswapV2Router02Part.sol\":5138:5950  function swapETHForExactTokens(uint amountOut, address[] calldata path, address to, uint deadline)... */\n    tag_12:\n      tag_61\n      0x04\n      dup1\n      calldatasize\n      sub\n      dup2\n      add\n      swap1\n      tag_62\n      swap2\n      swap1\n      tag_41\n      jump\t// in\n    tag_62:\n      tag_63\n      jump\t// in\n    tag_61:\n      mload(0x40)\n      tag_64\n      swap2\n      swap1\n      tag_20\n      jump\t// in\n    tag_64:\n      mload(0x40)\n      dup1\n      swap2\n      sub\n      swap1\n      return\n        /* \"v2_periphery/UniswapV2Router02Part.sol\":4280:5132  function swapExactTokensForETH(uint amountIn, uint amountOutMin, address[] calldata path, address to, uint deadline)... */\n    tag_18:\n        /* \"v2_periphery/UniswapV2Router02Part.sol\":4496:4517  uint[] memory amounts */\n      0x60\n        /* \"v2_periphery/UniswapV2Router02Part.sol\":4468:4476  deadline */\n      dup2\n        /* \"v2_periphery/UniswapV2Router02Part.sol\":692:707  block.timestamp */\n      timestamp\n        /* \"v2_periphery/UniswapV2Router02Part.sol\":680:688  deadline */\n      dup2\n        /* \"v2_periphery/UniswapV2Router02Part.sol\":680:707  deadline >= block.timestamp */\n      lt\n      iszero\n        /* \"v2_periphery/UniswapV2Router02Part.sol\":672:736  require(deadline >= block.timestamp, 'UniswapV2Router: EXPIRED') */\n      tag_66\n      jumpi\n      mload(0x40)\n      0x08c379a000000000000000000000000000000000000000000000000000000000\n      dup2\n      mstore\n      0x04\n      add\n      tag_67\n      swap1\n      tag_68\n      jump\t// in\n    tag_67:\n      mload(0x40)\n      dup1\n      swap2\n      sub\n      swap1\n      revert\n    tag_66:\n        /* \"v2_periphery/UniswapV2Router02Part.sol\":4568:4572  WETH */\n      0x01\n      0x00\n      swap1\n      sload\n      swap1\n      0x0100\n      exp\n      swap1\n      div\n      0xffffffffffffffffffffffffffffffffffffffff\n      and\n        /* \"v2_periphery/UniswapV2Router02Part.sol\":4543:4572  path[path.length - 1] == WETH */\n      0xffffffffffffffffffffffffffffffffffffffff\n      and\n        /* \"v2_periphery/UniswapV2Router02Part.sol\":4543:4547  path */\n      dup7\n      dup7\n        /* \"v2_periphery/UniswapV2Router02Part.sol\":4562:4563  1 */\n      0x01\n        /* \"v2_periphery/UniswapV2Router02Part.sol\":4548:4552  path */\n      dup10\n      dup10\n        /* \"v2_periphery/UniswapV2Router02Part.sol\":4548:4559  path.length */\n      swap1\n      pop\n        /* \"v2_periphery/UniswapV2Router02Part.sol\":4548:4563  path.length - 1 */\n      tag_70\n      swap2\n      swap1\n      tag_71\n      jump\t// in\n    tag_70:\n        /* \"v2_periphery/UniswapV2Router02Part.sol\":4543:4564  path[path.length - 1] */\n      dup2\n      dup2\n      lt\n      tag_72\n      jumpi\n      tag_73\n      tag_74\n      jump\t// in\n    tag_73:\n    tag_72:\n      swap1\n      pop\n      0x20\n      mul\n      add\n      0x20\n      dup2\n      add\n      swap1\n      tag_75\n      swap2\n      swap1\n      tag_76\n      jump\t// in\n    tag_75:\n        /* \"v2_periphery/UniswapV2Router02Part.sol\":4543:4572  path[path.length - 1] == WETH */\n      0xffffffffffffffffffffffffffffffffffffffff\n      and\n      eq\n        /* \"v2_periphery/UniswapV2Router02Part.sol\":4535:4606  require(path[path.length - 1] == WETH, 'UniswapV2Router: INVALID_PATH') */\n      tag_77\n      jumpi\n      mload(0x40)\n      0x08c379a000000000000000000000000000000000000000000000000000000000\n      dup2\n      mstore\n      0x04\n      add\n      tag_78\n      swap1\n      tag_79\n      jump\t// in\n    tag_78:\n      mload(0x40)\n      dup1\n      swap2\n      sub\n      swap1\n      revert\n    tag_77:\n        /* \"v2_periphery/UniswapV2Router02Part.sol\":4627:4682  UniswapV2Library.getAmountsOut(factory, amountIn, path) */\n      tag_80\n        /* \"v2_periphery/UniswapV2Router02Part.sol\":4658:4665  factory */\n      0x00\n      dup1\n      sload\n      swap1\n      0x0100\n      exp\n      swap1\n      div\n      0xffffffffffffffffffffffffffffffffffffffff\n      and\n        /* \"v2_periphery/UniswapV2Router02Part.sol\":4667:4675  amountIn */\n      dup10\n        /* \"v2_periphery/UniswapV2Router02Part.sol\":4677:4681  path */\n      dup9\n      dup9\n        /* \"v2_periphery/UniswapV2Router02Part.sol\":4627:4682  UniswapV2Library.getAmountsOut(factory, amountIn, path) */\n      dup1\n      dup1\n      0x20\n      mul\n      0x20\n      add\n      mload(0x40)\n      swap1\n      dup2\n      add\n      0x40\n      mstore\n      dup1\n      swap4\n      swap3\n      swap2\n      swap1\n      dup2\n      dup2\n      mstore\n      0x20\n      add\n      dup4\n      dup4\n      0x20\n      mul\n      dup1\n      dup3\n      dup5\n      calldatacopy\n      0x00\n      dup2\n      dup5\n      add\n      mstore\n      not(0x1f)\n      0x1f\n      dup3\n      add\n      and\n      swap1\n      pop\n      dup1\n      dup4\n      add\n      swap3\n      pop\n      pop\n      pop\n      pop\n      pop\n      pop\n      pop\n        /* \"v2_periphery/UniswapV2Router02Part.sol\":4627:4657  UniswapV2Library.getAmountsOut */\n      tag_81\n        /* \"v2_periphery/UniswapV2Router02Part.sol\":4627:4682  UniswapV2Library.getAmountsOut(factory, amountIn, path) */\n      jump\t// in\n    tag_80:\n        /* \"v2_periphery/UniswapV2Router02Part.sol\":4617:4682  amounts = UniswapV2Library.getAmountsOut(factory, amountIn, path) */\n      swap2\n      pop\n        /* \"v2_periphery/UniswapV2Router02Part.sol\":4732:4744  amountOutMin */\n      dup7\n        /* \"v2_periphery/UniswapV2Router02Part.sol\":4701:4708  amounts */\n      dup3\n        /* \"v2_periphery/UniswapV2Router02Part.sol\":4726:4727  1 */\n      0x01\n        /* \"v2_periphery/UniswapV2Router02Part.sol\":4709:4716  amounts */\n      dup5\n        /* \"v2_periphery/UniswapV2Router02Part.sol\":4709:4723  amounts.length */\n      mload\n        /* \"v2_periphery/UniswapV2Router02Part.sol\":4709:4727  amounts.length - 1 */\n      tag_82\n      swap2\n      swap1\n      tag_71\n      jump\t// in\n    tag_82:\n        /* \"v2_periphery/UniswapV2Router02Part.sol\":4701:4728  amounts[amounts.length - 1] */\n      dup2\n      mload\n      dup2\n      lt\n      tag_83\n      jumpi\n      tag_84\n      tag_74\n      jump\t// in\n    tag_84:\n    tag_83:\n      0x20\n      mul\n      0x20\n      add\n      add\n      mload\n        /* \"v2_periphery/UniswapV2Router02Part.sol\":4701:4744  amounts[amounts.length - 1] >= amountOutMin */\n      lt\n      iszero\n        /* \"v2_periphery/UniswapV2Router02Part.sol\":4693:4792  require(amounts[amounts.length - 1] >= amountOutMin, 'UniswapV2Router: INSUFFICIENT_OUTPUT_AMOUNT') */\n      tag_85\n      jumpi\n      mload(0x40)\n      0x08c379a000000000000000000000000000000000000000000000000000000000\n      dup2\n      mstore\n      0x04\n      add\n      tag_86\n      swap1\n      tag_87\n      jump\t// in\n    tag_86:\n      mload(0x40)\n      dup1\n      swap2\n      sub\n      swap1\n      revert\n    tag_85:\n        /* \"v2_periphery/UniswapV2Router02Part.sol\":4803:4944  TransferHelper.safeTransferFrom(... */\n      tag_88\n        /* \"v2_periphery/UniswapV2Router02Part.sol\":4849:4853  path */\n      dup7\n      dup7\n        /* \"v2_periphery/UniswapV2Router02Part.sol\":4854:4855  0 */\n      0x00\n        /* \"v2_periphery/UniswapV2Router02Part.sol\":4849:4856  path[0] */\n      dup2\n      dup2\n      lt\n      tag_89\n      jumpi\n      tag_90\n      tag_74\n      jump\t// in\n    tag_90:\n    tag_89:\n      swap1\n      pop\n      0x20\n      mul\n      add\n      0x20\n      dup2\n      add\n      swap1\n      tag_91\n      swap2\n      swap1\n      tag_76\n      jump\t// in\n    tag_91:\n        /* \"v2_periphery/UniswapV2Router02Part.sol\":4858:4868  msg.sender */\n      caller\n        /* \"v2_periphery/UniswapV2Router02Part.sol\":4870:4921  UniswapV2Library.pairFor(factory, path[0], path[1]) */\n      tag_92\n        /* \"v2_periphery/UniswapV2Router02Part.sol\":4895:4902  factory */\n      0x00\n      dup1\n      sload\n      swap1\n      0x0100\n      exp\n      swap1\n      div\n      0xffffffffffffffffffffffffffffffffffffffff\n      and\n        /* \"v2_periphery/UniswapV2Router02Part.sol\":4904:4908  path */\n      dup11\n      dup11\n        /* \"v2_periphery/UniswapV2Router02Part.sol\":4909:4910  0 */\n      0x00\n        /* \"v2_periphery/UniswapV2Router02Part.sol\":4904:4911  path[0] */\n      dup2\n      dup2\n      lt\n      tag_93\n      jumpi\n      tag_94\n      tag_74\n      jump\t// in\n    tag_94:\n    tag_93:\n      swap1\n      pop\n      0x20\n      mul\n      add\n      0x20\n      dup2\n      add\n      swap1\n      tag_95\n      swap2\n      swap1\n      tag_76\n      jump\t// in\n    tag_95:\n        /* \"v2_periphery/UniswapV2Router02Part.sol\":4913:4917  path */\n      dup12\n      dup12\n        /* \"v2_periphery/UniswapV2Router02Part.sol\":4918:4919  1 */\n      0x01\n        /* \"v2_periphery/UniswapV2Router02Part.sol\":4913:4920  path[1] */\n      dup2\n      dup2\n      lt\n      tag_96\n      jumpi\n      tag_97\n      tag_74\n      jump\t// in\n    tag_97:\n    tag_96:\n      swap1\n      pop\n      0x20\n      mul\n      add\n      0x20\n      dup2\n      add\n      swap1\n      tag_98\n      swap2\n      swap1\n      tag_76\n      jump\t// in\n    tag_98:\n        /* \"v2_periphery/UniswapV2Router02Part.sol\":4870:4894  UniswapV2Library.pairFor */\n      tag_99\n        /* \"v2_periphery/UniswapV2Router02Part.sol\":4870:4921  UniswapV2Library.pairFor(factory, path[0], path[1]) */\n      jump\t// in\n    tag_92:\n        /* \"v2_periphery/UniswapV2Router02Part.sol\":4923:4930  amounts */\n      dup6\n        /* \"v2_periphery/UniswapV2Router02Part.sol\":4931:4932  0 */\n      0x00\n        /* \"v2_periphery/UniswapV2Router02Part.sol\":4923:4933  amounts[0] */\n      dup2\n      mload\n      dup2\n      lt\n      tag_100\n      jumpi\n      tag_101\n      tag_74\n      jump\t// in\n    tag_101:\n    tag_100:\n      0x20\n      mul\n      0x20\n      add\n      add\n      mload\n        /* \"v2_periphery/UniswapV2Router02Part.sol\":4803:4834  TransferHelper.safeTransferFrom */\n      tag_102\n        /* \"v2_periphery/UniswapV2Router02Part.sol\":4803:4944  TransferHelper.safeTransferFrom(... */\n      jump\t// in\n    tag_88:\n        /* \"v2_periphery/UniswapV2Router02Part.sol\":4955:4990  _swap(amounts, path, address(this)) */\n      tag_103\n        /* \"v2_periphery/UniswapV2Router02Part.sol\":4961:4968  amounts */\n      dup3\n        /* \"v2_periphery/UniswapV2Router02Part.sol\":4970:4974  path */\n      dup8\n      dup8\n        /* \"v2_periphery/UniswapV2Router02Part.sol\":4955:4990  _swap(amounts, path, address(this)) */\n      dup1\n      dup1\n      0x20\n      mul\n      0x20\n      add\n      mload(0x40)\n      swap1\n      dup2\n      add\n      0x40\n      mstore\n      dup1\n      swap4\n      swap3\n      swap2\n      swap1\n      dup2\n      dup2\n      mstore\n      0x20\n      add\n      dup4\n      dup4\n      0x20\n      mul\n      dup1\n      dup3\n      dup5\n      calldatacopy\n      0x00\n      dup2\n      dup5\n      add\n      mstore\n      not(0x1f)\n      0x1f\n      dup3\n      add\n      and\n      swap1\n      pop\n      dup1\n      dup4\n      add\n      swap3\n      pop\n      pop\n      pop\n      pop\n      pop\n      pop\n      pop\n        /* \"v2_periphery/UniswapV2Router02Part.sol\":4984:4988  this */\n      address\n        /* \"v2_periphery/UniswapV2Router02Part.sol\":4955:4960  _swap */\n      tag_104\n        /* \"v2_periphery/UniswapV2Router02Part.sol\":4955:4990  _swap(amounts, path, address(this)) */\n      jump\t// in\n    tag_103:\n        /* \"v2_periphery/UniswapV2Router02Part.sol\":5007:5011  WETH */\n      0x01\n      0x00\n      swap1\n      sload\n      swap1\n      0x0100\n      exp\n      swap1\n      div\n      0xffffffffffffffffffffffffffffffffffffffff\n      and\n        /* \"v2_periphery/UniswapV2Router02Part.sol\":5001:5021  IWETH(WETH).withdraw */\n      0xffffffffffffffffffffffffffffffffffffffff\n      and\n      0x2e1a7d4d\n        /* \"v2_periphery/UniswapV2Router02Part.sol\":5022:5029  amounts */\n      dup4\n        /* \"v2_periphery/UniswapV2Router02Part.sol\":5047:5048  1 */\n      0x01\n        /* \"v2_periphery/UniswapV2Router02Part.sol\":5030:5037  amounts */\n      dup6\n        /* \"v2_periphery/UniswapV2Router02Part.sol\":5030:5044  amounts.length */\n      mload\n        /* \"v2_periphery/UniswapV2Router02Part.sol\":5030:5048  amounts.length - 1 */\n      tag_105\n      swap2\n      swap1\n      tag_71\n      jump\t// in\n    tag_105:\n        /* \"v2_periphery/UniswapV2Router02Part.sol\":5022:5049  amounts[amounts.length - 1] */\n      dup2\n      mload\n      dup2\n      lt\n      tag_106\n      jumpi\n      tag_107\n      tag_74\n      jump\t// in\n    tag_107:\n    tag_106:\n      0x20\n      mul\n      0x20\n      add\n      add\n      mload\n        /* \"v2_periphery/UniswapV2Router02Part.sol\":5001:5050  IWETH(WETH).withdraw(amounts[amounts.length - 1]) */\n      mload(0x40)\n      dup3\n      0xffffffff\n      and\n      0xe0\n      shl\n      dup2\n      mstore\n      0x04\n      add\n      tag_108\n      swap2\n      swap1\n      tag_109\n      jump\t// in\n    tag_108:\n      0x00\n      mload(0x40)\n      dup1\n      dup4\n      sub\n      dup2\n      0x00\n      dup8\n      dup1\n      extcodesize\n      iszero\n      dup1\n      iszero\n      tag_110\n      jumpi\n      0x00\n      dup1\n      revert\n    tag_110:\n      pop\n      gas\n      call\n      iszero\n      dup1\n      iszero\n      tag_112\n      jumpi\n      returndatasize\n      0x00\n      dup1\n      returndatacopy\n      revert(0x00, returndatasize)\n    tag_112:\n      pop\n      pop\n      pop\n      pop\n        /* \"v2_periphery/UniswapV2Router02Part.sol\":5061:5124  TransferHelper.safeTransferETH(to, amounts[amounts.length - 1]) */\n      tag_113\n        /* \"v2_periphery/UniswapV2Router02Part.sol\":5092:5094  to */\n      dup5\n        /* \"v2_periphery/UniswapV2Router02Part.sol\":5096:5103  amounts */\n      dup4\n        /* \"v2_periphery/UniswapV2Router02Part.sol\":5121:5122  1 */\n      0x01\n        /* \"v2_periphery/UniswapV2Router02Part.sol\":5104:5111  amounts */\n      dup6\n        /* \"v2_periphery/UniswapV2Router02Part.sol\":5104:5118  amounts.length */\n      mload\n        /* \"v2_periphery/UniswapV2Router02Part.sol\":5104:5122  amounts.length - 1 */\n      tag_114\n      swap2\n      swap1\n      tag_71\n      jump\t// in\n    tag_114:\n        /* \"v2_periphery/UniswapV2Router02Part.sol\":5096:5123  amounts[amounts.length - 1] */\n      dup2\n      mload\n      dup2\n      lt\n      tag_115\n      jumpi\n      tag_116\n      tag_74\n      jump\t// in\n    tag_116:\n    tag_115:\n      0x20\n      mul\n      0x20\n      add\n      add\n      mload\n        /* \"v2_periphery/UniswapV2Router02Part.sol\":5061:5091  TransferHelper.safeTransferETH */\n      tag_117\n        /* \"v2_periphery/UniswapV2Router02Part.sol\":5061:5124  TransferHelper.safeTransferETH(to, amounts[amounts.length - 1]) */\n      jump\t// in\n    tag_113:\n        /* \"v2_periphery/UniswapV2Router02Part.sol\":4280:5132  function swapExactTokensForETH(uint amountIn, uint amountOutMin, address[] calldata path, address to, uint deadline)... */\n      pop\n      swap7\n      swap6\n      pop\n      pop\n      pop\n      pop\n      pop\n      pop\n      jump\t// out\n        /* \"v2_periphery/UniswapV2Router02Part.sol\":1509:2129  function swapExactTokensForTokens(... */\n    tag_24:\n        /* \"v2_periphery/UniswapV2Router02Part.sol\":1725:1746  uint[] memory amounts */\n      0x60\n        /* \"v2_periphery/UniswapV2Router02Part.sol\":1706:1714  deadline */\n      dup2\n        /* \"v2_periphery/UniswapV2Router02Part.sol\":692:707  block.timestamp */\n      timestamp\n        /* \"v2_periphery/UniswapV2Router02Part.sol\":680:688  deadline */\n      dup2\n        /* \"v2_periphery/UniswapV2Router02Part.sol\":680:707  deadline >= block.timestamp */\n      lt\n      iszero\n        /* \"v2_periphery/UniswapV2Router02Part.sol\":672:736  require(deadline >= block.timestamp, 'UniswapV2Router: EXPIRED') */\n      tag_119\n      jumpi\n      mload(0x40)\n      0x08c379a000000000000000000000000000000000000000000000000000000000\n      dup2\n      mstore\n      0x04\n      add\n      tag_120\n      swap1\n      tag_68\n      jump\t// in\n    tag_120:\n      mload(0x40)\n      dup1\n      swap2\n      sub\n      swap1\n      revert\n    tag_119:\n        /* \"v2_periphery/UniswapV2Router02Part.sol\":1769:1824  UniswapV2Library.getAmountsOut(factory, amountIn, path) */\n      tag_122\n        /* \"v2_periphery/UniswapV2Router02Part.sol\":1800:1807  factory */\n      0x00\n      dup1\n      sload\n      swap1\n      0x0100\n      exp\n      swap1\n      div\n      0xffffffffffffffffffffffffffffffffffffffff\n      and\n        /* \"v2_periphery/UniswapV2Router02Part.sol\":1809:1817  amountIn */\n      dup10\n        /* \"v2_periphery/UniswapV2Router02Part.sol\":1819:1823  path */\n      dup9\n      dup9\n        /* \"v2_periphery/UniswapV2Router02Part.sol\":1769:1824  UniswapV2Library.getAmountsOut(factory, amountIn, path) */\n      dup1\n      dup1\n      0x20\n      mul\n      0x20\n      add\n      mload(0x40)\n      swap1\n      dup2\n      add\n      0x40\n      mstore\n      dup1\n      swap4\n      swap3\n      swap2\n      swap1\n      dup2\n      dup2\n      mstore\n      0x20\n      add\n      dup4\n      dup4\n      0x20\n      mul\n      dup1\n      dup3\n      dup5\n      calldatacopy\n      0x00\n      dup2\n      dup5\n      add\n      mstore\n      not(0x1f)\n      0x1f\n      dup3\n      add\n      and\n      swap1\n      pop\n      dup1\n      dup4\n      add\n      swap3\n      pop\n      pop\n      pop\n      pop\n      pop\n      pop\n      pop\n        /* \"v2_periphery/UniswapV2Router02Part.sol\":1769:1799  UniswapV2Library.getAmountsOut */\n      tag_81\n        /* \"v2_periphery/UniswapV2Router02Part.sol\":1769:1824  UniswapV2Library.getAmountsOut(factory, amountIn, path) */\n      jump\t// in\n    tag_122:\n        /* \"v2_periphery/UniswapV2Router02Part.sol\":1759:1824  amounts = UniswapV2Library.getAmountsOut(factory, amountIn, path) */\n      swap2\n      pop\n        /* \"v2_periphery/UniswapV2Router02Part.sol\":1874:1886  amountOutMin */\n      dup7\n        /* \"v2_periphery/UniswapV2Router02Part.sol\":1843:1850  amounts */\n      dup3\n        /* \"v2_periphery/UniswapV2Router02Part.sol\":1868:1869  1 */\n      0x01\n        /* \"v2_periphery/UniswapV2Router02Part.sol\":1851:1858  amounts */\n      dup5\n        /* \"v2_periphery/UniswapV2Router02Part.sol\":1851:1865  amounts.length */\n      mload\n        /* \"v2_periphery/UniswapV2Router02Part.sol\":1851:1869  amounts.length - 1 */\n      tag_123\n      swap2\n      swap1\n      tag_71\n      jump\t// in\n    tag_123:\n        /* \"v2_periphery/UniswapV2Router02Part.sol\":1843:1870  amounts[amounts.length - 1] */\n      dup2\n      mload\n      dup2\n      lt\n      tag_124\n      jumpi\n      tag_125\n      tag_74\n      jump\t// in\n    tag_125:\n    tag_124:\n      0x20\n      mul\n      0x20\n      add\n      add\n      mload\n        /* \"v2_periphery/UniswapV2Router02Part.sol\":1843:1886  amounts[amounts.length - 1] >= amountOutMin */\n      lt\n      iszero\n        /* \"v2_periphery/UniswapV2Router02Part.sol\":1835:1934  require(amounts[amounts.length - 1] >= amountOutMin, 'UniswapV2Router: INSUFFICIENT_OUTPUT_AMOUNT') */\n      tag_126\n      jumpi\n      mload(0x40)\n      0x08c379a000000000000000000000000000000000000000000000000000000000\n      dup2\n      mstore\n      0x04\n      add\n      tag_127\n      swap1\n      tag_87\n      jump\t// in\n    tag_127:\n      mload(0x40)\n      dup1\n      swap2\n      sub\n      swap1\n      revert\n    tag_126:\n        /* \"v2_periphery/UniswapV2Router02Part.sol\":1945:2086  TransferHelper.safeTransferFrom(... */\n      tag_128\n        /* \"v2_periphery/UniswapV2Router02Part.sol\":1991:1995  path */\n      dup7\n      dup7\n        /* \"v2_periphery/UniswapV2Router02Part.sol\":1996:1997  0 */\n      0x00\n        /* \"v2_periphery/UniswapV2Router02Part.sol\":1991:1998  path[0] */\n      dup2\n      dup2\n      lt\n      tag_129\n      jumpi\n      tag_130\n      tag_74\n      jump\t// in\n    tag_130:\n    tag_129:\n      swap1\n      pop\n      0x20\n      mul\n      add\n      0x20\n      dup2\n      add\n      swap1\n      tag_131\n      swap2\n      swap1\n      tag_76\n      jump\t// in\n    tag_131:\n        /* \"v2_periphery/UniswapV2Router02Part.sol\":2000:2010  msg.sender */\n      caller\n        /* \"v2_periphery/UniswapV2Router02Part.sol\":2012:2063  UniswapV2Library.pairFor(factory, path[0], path[1]) */\n      tag_132\n        /* \"v2_periphery/UniswapV2Router02Part.sol\":2037:2044  factory */\n      0x00\n      dup1\n      sload\n      swap1\n      0x0100\n      exp\n      swap1\n      div\n      0xffffffffffffffffffffffffffffffffffffffff\n      and\n        /* \"v2_periphery/UniswapV2Router02Part.sol\":2046:2050  path */\n      dup11\n      dup11\n        /* \"v2_periphery/UniswapV2Router02Part.sol\":2051:2052  0 */\n      0x00\n        /* \"v2_periphery/UniswapV2Router02Part.sol\":2046:2053  path[0] */\n      dup2\n      dup2\n      lt\n      tag_133\n      jumpi\n      tag_134\n      tag_74\n      jump\t// in\n    tag_134:\n    tag_133:\n      swap1\n      pop\n      0x20\n      mul\n      add\n      0x20\n      dup2\n      add\n      swap1\n      tag_135\n      swap2\n      swap1\n      tag_76\n      jump\t// in\n    tag_135:\n        /* \"v2_periphery/UniswapV2Router02Part.sol\":2055:2059  path */\n      dup12\n      dup12\n        /* \"v2_periphery/UniswapV2Router02Part.sol\":2060:2061  1 */\n      0x01\n        /* \"v2_periphery/UniswapV2Router02Part.sol\":2055:2062  path[1] */\n      dup2\n      dup2\n      lt\n      tag_136\n      jumpi\n      tag_137\n      tag_74\n      jump\t// in\n    tag_137:\n    tag_136:\n      swap1\n      pop\n      0x20\n      mul\n      add\n      0x20\n      dup2\n      add\n      swap1\n      tag_138\n      swap2\n      swap1\n      tag_76\n      jump\t// in\n    tag_138:\n        /* \"v2_periphery/UniswapV2Router02Part.sol\":2012:2036  UniswapV2Library.pairFor */\n      tag_99\n        /* \"v2_periphery/UniswapV2Router02Part.sol\":2012:2063  UniswapV2Library.pairFor(factory, path[0], path[1]) */\n      jump\t// in\n    tag_132:\n        /* \"v2_periphery/UniswapV2Router02Part.sol\":2065:2072  amounts */\n      dup6\n        /* \"v2_periphery/UniswapV2Router02Part.sol\":2073:2074  0 */\n      0x00\n        /* \"v2_periphery/UniswapV2Router02Part.sol\":2065:2075  amounts[0] */\n      dup2\n      mload\n      dup2\n      lt\n      tag_139\n      jumpi\n      tag_140\n      tag_74\n      jump\t// in\n    tag_140:\n    tag_139:\n      0x20\n      mul\n      0x20\n      add\n      add\n      mload\n        /* \"v2_periphery/UniswapV2Router02Part.sol\":1945:1976  TransferHelper.safeTransferFrom */\n      tag_102\n        /* \"v2_periphery/UniswapV2Router02Part.sol\":1945:2086  TransferHelper.safeTransferFrom(... */\n      jump\t// in\n    tag_128:\n        /* \"v2_periphery/UniswapV2Router02Part.sol\":2097:2121  _swap(amounts, path, to) */\n      tag_141\n        /* \"v2_periphery/UniswapV2Router02Part.sol\":2103:2110  amounts */\n      dup3\n        /* \"v2_periphery/UniswapV2Router02Part.sol\":2112:2116  path */\n      dup8\n      dup8\n        /* \"v2_periphery/UniswapV2Router02Part.sol\":2097:2121  _swap(amounts, path, to) */\n      dup1\n      dup1\n      0x20\n      mul\n      0x20\n      add\n      mload(0x40)\n      swap1\n      dup2\n      add\n      0x40\n      mstore\n      dup1\n      swap4\n      swap3\n      swap2\n      swap1\n      dup2\n      dup2\n      mstore\n      0x20\n      add\n      dup4\n      dup4\n      0x20\n      mul\n      dup1\n      dup3\n      dup5\n      calldatacopy\n      0x00\n      dup2\n      dup5\n      add\n      mstore\n      not(0x1f)\n      0x1f\n      dup3\n      add\n      and\n      swap1\n      pop\n      dup1\n      dup4\n      add\n      swap3\n      pop\n      pop\n      pop\n      pop\n      pop\n      pop\n      pop\n        /* \"v2_periphery/UniswapV2Router02Part.sol\":2118:2120  to */\n      dup7\n        /* \"v2_periphery/UniswapV2Router02Part.sol\":2097:2102  _swap */\n      tag_104\n        /* \"v2_periphery/UniswapV2Router02Part.sol\":2097:2121  _swap(amounts, path, to) */\n      jump\t// in\n    tag_141:\n        /* \"v2_periphery/UniswapV2Router02Part.sol\":1509:2129  function swapExactTokensForTokens(... */\n      pop\n      swap7\n      swap6\n      pop\n      pop\n      pop\n      pop\n      pop\n      pop\n      jump\t// out\n        /* \"v2_periphery/UniswapV2Router02Part.sol\":3444:4274  function swapTokensForExactETH(uint amountOut, uint amountInMax, address[] calldata path, address to, uint deadline)... */\n    tag_29:\n        /* \"v2_periphery/UniswapV2Router02Part.sol\":3660:3681  uint[] memory amounts */\n      0x60\n        /* \"v2_periphery/UniswapV2Router02Part.sol\":3632:3640  deadline */\n      dup2\n        /* \"v2_periphery/UniswapV2Router02Part.sol\":692:707  block.timestamp */\n      timestamp\n        /* \"v2_periphery/UniswapV2Router02Part.sol\":680:688  deadline */\n      dup2\n        /* \"v2_periphery/UniswapV2Router02Part.sol\":680:707  deadline >= block.timestamp */\n      lt\n      iszero\n        /* \"v2_periphery/UniswapV2Router02Part.sol\":672:736  require(deadline >= block.timestamp, 'UniswapV2Router: EXPIRED') */\n      tag_143\n      jumpi\n      mload(0x40)\n      0x08c379a000000000000000000000000000000000000000000000000000000000\n      dup2\n      mstore\n      0x04\n      add\n      tag_144\n      swap1\n      tag_68\n      jump\t// in\n    tag_144:\n      mload(0x40)\n      dup1\n      swap2\n      sub\n      swap1\n      revert\n    tag_143:\n        /* \"v2_periphery/UniswapV2Router02Part.sol\":3732:3736  WETH */\n      0x01\n      0x00\n      swap1\n      sload\n      swap1\n      0x0100\n      exp\n      swap1\n      div\n      0xffffffffffffffffffffffffffffffffffffffff\n      and\n        /* \"v2_periphery/UniswapV2Router02Part.sol\":3707:3736  path[path.length - 1] == WETH */\n      0xffffffffffffffffffffffffffffffffffffffff\n      and\n        /* \"v2_periphery/UniswapV2Router02Part.sol\":3707:3711  path */\n      dup7\n      dup7\n        /* \"v2_periphery/UniswapV2Router02Part.sol\":3726:3727  1 */\n      0x01\n        /* \"v2_periphery/UniswapV2Router02Part.sol\":3712:3716  path */\n      dup10\n      dup10\n        /* \"v2_periphery/UniswapV2Router02Part.sol\":3712:3723  path.length */\n      swap1\n      pop\n        /* \"v2_periphery/UniswapV2Router02Part.sol\":3712:3727  path.length - 1 */\n      tag_146\n      swap2\n      swap1\n      tag_71\n      jump\t// in\n    tag_146:\n        /* \"v2_periphery/UniswapV2Router02Part.sol\":3707:3728  path[path.length - 1] */\n      dup2\n      dup2\n      lt\n      tag_147\n      jumpi\n      tag_148\n      tag_74\n      jump\t// in\n    tag_148:\n    tag_147:\n      swap1\n      pop\n      0x20\n      mul\n      add\n      0x20\n      dup2\n      add\n      swap1\n      tag_149\n      swap2\n      swap1\n      tag_76\n      jump\t// in\n    tag_149:\n        /* \"v2_periphery/UniswapV2Router02Part.sol\":3707:3736  path[path.length - 1] == WETH */\n      0xffffffffffffffffffffffffffffffffffffffff\n      and\n      eq\n        /* \"v2_periphery/UniswapV2Router02Part.sol\":3699:3770  require(path[path.length - 1] == WETH, 'UniswapV2Router: INVALID_PATH') */\n      tag_150\n      jumpi\n      mload(0x40)\n      0x08c379a000000000000000000000000000000000000000000000000000000000\n      dup2\n      mstore\n      0x04\n      add\n      tag_151\n      swap1\n      tag_79\n      jump\t// in\n    tag_151:\n      mload(0x40)\n      dup1\n      swap2\n      sub\n      swap1\n      revert\n    tag_150:\n        /* \"v2_periphery/UniswapV2Router02Part.sol\":3791:3846  UniswapV2Library.getAmountsIn(factory, amountOut, path) */\n      tag_152\n        /* \"v2_periphery/UniswapV2Router02Part.sol\":3821:3828  factory */\n      0x00\n      dup1\n      sload\n      swap1\n      0x0100\n      exp\n      swap1\n      div\n      0xffffffffffffffffffffffffffffffffffffffff\n      and\n        /* \"v2_periphery/UniswapV2Router02Part.sol\":3830:3839  amountOut */\n      dup10\n        /* \"v2_periphery/UniswapV2Router02Part.sol\":3841:3845  path */\n      dup9\n      dup9\n        /* \"v2_periphery/UniswapV2Router02Part.sol\":3791:3846  UniswapV2Library.getAmountsIn(factory, amountOut, path) */\n      dup1\n      dup1\n      0x20\n      mul\n      0x20\n      add\n      mload(0x40)\n      swap1\n      dup2\n      add\n      0x40\n      mstore\n      dup1\n      swap4\n      swap3\n      swap2\n      swap1\n      dup2\n      dup2\n      mstore\n      0x20\n      add\n      dup4\n      dup4\n      0x20\n      mul\n      dup1\n      dup3\n      dup5\n      calldatacopy\n      0x00\n      dup2\n      dup5\n      add\n      mstore\n      not(0x1f)\n      0x1f\n      dup3\n      add\n      and\n      swap1\n      pop\n      dup1\n      dup4\n      add\n      swap3\n      pop\n      pop\n      pop\n      pop\n      pop\n      pop\n      pop\n        /* \"v2_periphery/UniswapV2Router02Part.sol\":3791:3820  UniswapV2Library.getAmountsIn */\n      tag_153\n        /* \"v2_periphery/UniswapV2Router02Part.sol\":3791:3846  UniswapV2Library.getAmountsIn(factory, amountOut, path) */\n      jump\t// in\n    tag_152:\n        /* \"v2_periphery/UniswapV2Router02Part.sol\":3781:3846  amounts = UniswapV2Library.getAmountsIn(factory, amountOut, path) */\n      swap2\n      pop\n        /* \"v2_periphery/UniswapV2Router02Part.sol\":3879:3890  amountInMax */\n      dup7\n        /* \"v2_periphery/UniswapV2Router02Part.sol\":3865:3872  amounts */\n      dup3\n        /* \"v2_periphery/UniswapV2Router02Part.sol\":3873:3874  0 */\n      0x00\n        /* \"v2_periphery/UniswapV2Router02Part.sol\":3865:3875  amounts[0] */\n      dup2\n      mload\n      dup2\n      lt\n      tag_154\n      jumpi\n      tag_155\n      tag_74\n      jump\t// in\n    tag_155:\n    tag_154:\n      0x20\n      mul\n      0x20\n      add\n      add\n      mload\n        /* \"v2_periphery/UniswapV2Router02Part.sol\":3865:3890  amounts[0] <= amountInMax */\n      gt\n      iszero\n        /* \"v2_periphery/UniswapV2Router02Part.sol\":3857:3934  require(amounts[0] <= amountInMax, 'UniswapV2Router: EXCESSIVE_INPUT_AMOUNT') */\n      tag_156\n      jumpi\n      mload(0x40)\n      0x08c379a000000000000000000000000000000000000000000000000000000000\n      dup2\n      mstore\n      0x04\n      add\n      tag_157\n      swap1\n      tag_158\n      jump\t// in\n    tag_157:\n      mload(0x40)\n      dup1\n      swap2\n      sub\n      swap1\n      revert\n    tag_156:\n        /* \"v2_periphery/UniswapV2Router02Part.sol\":3945:4086  TransferHelper.safeTransferFrom(... */\n      tag_159\n        /* \"v2_periphery/UniswapV2Router02Part.sol\":3991:3995  path */\n      dup7\n      dup7\n        /* \"v2_periphery/UniswapV2Router02Part.sol\":3996:3997  0 */\n      0x00\n        /* \"v2_periphery/UniswapV2Router02Part.sol\":3991:3998  path[0] */\n      dup2\n      dup2\n      lt\n      tag_160\n      jumpi\n      tag_161\n      tag_74\n      jump\t// in\n    tag_161:\n    tag_160:\n      swap1\n      pop\n      0x20\n      mul\n      add\n      0x20\n      dup2\n      add\n      swap1\n      tag_162\n      swap2\n      swap1\n      tag_76\n      jump\t// in\n    tag_162:\n        /* \"v2_periphery/UniswapV2Router02Part.sol\":4000:4010  msg.sender */\n      caller\n        /* \"v2_periphery/UniswapV2Router02Part.sol\":4012:4063  UniswapV2Library.pairFor(factory, path[0], path[1]) */\n      tag_163\n        /* \"v2_periphery/UniswapV2Router02Part.sol\":4037:4044  factory */\n      0x00\n      dup1\n      sload\n      swap1\n      0x0100\n      exp\n      swap1\n      div\n      0xffffffffffffffffffffffffffffffffffffffff\n      and\n        /* \"v2_periphery/UniswapV2Router02Part.sol\":4046:4050  path */\n      dup11\n      dup11\n        /* \"v2_periphery/UniswapV2Router02Part.sol\":4051:4052  0 */\n      0x00\n        /* \"v2_periphery/UniswapV2Router02Part.sol\":4046:4053  path[0] */\n      dup2\n      dup2\n      lt\n      tag_164\n      jumpi\n      tag_165\n      tag_74\n      jump\t// in\n    tag_165:\n    tag_164:\n      swap1\n      pop\n      0x20\n      mul\n      add\n      0x20\n      dup2\n      add\n      swap1\n      tag_166\n      swap2\n      swap1\n      tag_76\n      jump\t// in\n    tag_166:\n        /* \"v2_periphery/UniswapV2Router02Part.sol\":4055:4059  path */\n      dup12\n      dup12\n        /* \"v2_periphery/UniswapV2Router02Part.sol\":4060:4061  1 */\n      0x01\n        /* \"v2_periphery/UniswapV2Router02Part.sol\":4055:4062  path[1] */\n      dup2\n      dup2\n      lt\n      tag_167\n      jumpi\n      tag_168\n      tag_74\n      jump\t// in\n    tag_168:\n    tag_167:\n      swap1\n      pop\n      0x20\n      mul\n      add\n      0x20\n      dup2\n      add\n      swap1\n      tag_169\n      swap2\n      swap1\n      tag_76\n      jump\t// in\n    tag_169:\n        /* \"v2_periphery/UniswapV2Router02Part.sol\":4012:4036  UniswapV2Library.pairFor */\n      tag_99\n        /* \"v2_periphery/UniswapV2Router02Part.sol\":4012:4063  UniswapV2Library.pairFor(factory, path[0], path[1]) */\n      jump\t// in\n    tag_163:\n        /* \"v2_periphery/UniswapV2Router02Part.sol\":4065:4072  amounts */\n      dup6\n        /* \"v2_periphery/UniswapV2Router02Part.sol\":4073:4074  0 */\n      0x00\n        /* \"v2_periphery/UniswapV2Router02Part.sol\":4065:4075  amounts[0] */\n      dup2\n      mload\n      dup2\n      lt\n      tag_170\n      jumpi\n      tag_171\n      tag_74\n      jump\t// in\n    tag_171:\n    tag_170:\n      0x20\n      mul\n      0x20\n      add\n      add\n      mload\n        /* \"v2_periphery/UniswapV2Router02Part.sol\":3945:3976  TransferHelper.safeTransferFrom */\n      tag_102\n        /* \"v2_periphery/UniswapV2Router02Part.sol\":3945:4086  TransferHelper.safeTransferFrom(... */\n      jump\t// in\n    tag_159:\n        /* \"v2_periphery/UniswapV2Router02Part.sol\":4097:4132  _swap(amounts, path, address(this)) */\n      tag_172\n        /* \"v2_periphery/UniswapV2Router02Part.sol\":4103:4110  amounts */\n      dup3\n        /* \"v2_periphery/UniswapV2Router02Part.sol\":4112:4116  path */\n      dup8\n      dup8\n        /* \"v2_periphery/UniswapV2Router02Part.sol\":4097:4132  _swap(amounts, path, address(this)) */\n      dup1\n      dup1\n      0x20\n      mul\n      0x20\n      add\n      mload(0x40)\n      swap1\n      dup2\n      add\n      0x40\n      mstore\n      dup1\n      swap4\n      swap3\n      swap2\n      swap1\n      dup2\n      dup2\n      mstore\n      0x20\n      add\n      dup4\n      dup4\n      0x20\n      mul\n      dup1\n      dup3\n      dup5\n      calldatacopy\n      0x00\n      dup2\n      dup5\n      add\n      mstore\n      not(0x1f)\n      0x1f\n      dup3\n      add\n      and\n      swap1\n      pop\n      dup1\n      dup4\n      add\n      swap3\n      pop\n      pop\n      pop\n      pop\n      pop\n      pop\n      pop\n        /* \"v2_periphery/UniswapV2Router02Part.sol\":4126:4130  this */\n      address\n        /* \"v2_periphery/UniswapV2Router02Part.sol\":4097:4102  _swap */\n      tag_104\n        /* \"v2_periphery/UniswapV2Router02Part.sol\":4097:4132  _swap(amounts, path, address(this)) */\n      jump\t// in\n    tag_172:\n        /* \"v2_periphery/UniswapV2Router02Part.sol\":4149:4153  WETH */\n      0x01\n      0x00\n      swap1\n      sload\n      swap1\n      0x0100\n      exp\n      swap1\n      div\n      0xffffffffffffffffffffffffffffffffffffffff\n      and\n        /* \"v2_periphery/UniswapV2Router02Part.sol\":4143:4163  IWETH(WETH).withdraw */\n      0xffffffffffffffffffffffffffffffffffffffff\n      and\n      0x2e1a7d4d\n        /* \"v2_periphery/UniswapV2Router02Part.sol\":4164:4171  amounts */\n      dup4\n        /* \"v2_periphery/UniswapV2Router02Part.sol\":4189:4190  1 */\n      0x01\n        /* \"v2_periphery/UniswapV2Router02Part.sol\":4172:4179  amounts */\n      dup6\n        /* \"v2_periphery/UniswapV2Router02Part.sol\":4172:4186  amounts.length */\n      mload\n        /* \"v2_periphery/UniswapV2Router02Part.sol\":4172:4190  amounts.length - 1 */\n      tag_173\n      swap2\n      swap1\n      tag_71\n      jump\t// in\n    tag_173:\n        /* \"v2_periphery/UniswapV2Router02Part.sol\":4164:4191  amounts[amounts.length - 1] */\n      dup2\n      mload\n      dup2\n      lt\n      tag_174\n      jumpi\n      tag_175\n      tag_74\n      jump\t// in\n    tag_175:\n    tag_174:\n      0x20\n      mul\n      0x20\n      add\n      add\n      mload\n        /* \"v2_periphery/UniswapV2Router02Part.sol\":4143:4192  IWETH(WETH).withdraw(amounts[amounts.length - 1]) */\n      mload(0x40)\n      dup3\n      0xffffffff\n      and\n      0xe0\n      shl\n      dup2\n      mstore\n      0x04\n      add\n      tag_176\n      swap2\n      swap1\n      tag_109\n      jump\t// in\n    tag_176:\n      0x00\n      mload(0x40)\n      dup1\n      dup4\n      sub\n      dup2\n      0x00\n      dup8\n      dup1\n      extcodesize\n      iszero\n      dup1\n      iszero\n      tag_177\n      jumpi\n      0x00\n      dup1\n      revert\n    tag_177:\n      pop\n      gas\n      call\n      iszero\n      dup1\n      iszero\n      tag_179\n      jumpi\n      returndatasize\n      0x00\n      dup1\n      returndatacopy\n      revert(0x00, returndatasize)\n    tag_179:\n      pop\n      pop\n      pop\n      pop\n        /* \"v2_periphery/UniswapV2Router02Part.sol\":4203:4266  TransferHelper.safeTransferETH(to, amounts[amounts.length - 1]) */\n      tag_180\n        /* \"v2_periphery/UniswapV2Router02Part.sol\":4234:4236  to */\n      dup5\n        /* \"v2_periphery/UniswapV2Router02Part.sol\":4238:4245  amounts */\n      dup4\n        /* \"v2_periphery/UniswapV2Router02Part.sol\":4263:4264  1 */\n      0x01\n        /* \"v2_periphery/UniswapV2Router02Part.sol\":4246:4253  amounts */\n      dup6\n        /* \"v2_periphery/UniswapV2Router02Part.sol\":4246:4260  amounts.length */\n      mload\n        /* \"v2_periphery/UniswapV2Router02Part.sol\":4246:4264  amounts.length - 1 */\n      tag_181\n      swap2\n      swap1\n      tag_71\n      jump\t// in\n    tag_181:\n        /* \"v2_periphery/UniswapV2Router02Part.sol\":4238:4265  amounts[amounts.length - 1] */\n      dup2\n      mload\n      dup2\n      lt\n      tag_182\n      jumpi\n      tag_183\n      tag_74\n      jump\t// in\n    tag_183:\n    tag_182:\n      0x20\n      mul\n      0x20\n      add\n      add\n      mload\n        /* \"v2_periphery/UniswapV2Router02Part.sol\":4203:4233  TransferHelper.safeTransferETH */\n      tag_117\n        /* \"v2_periphery/UniswapV2Router02Part.sol\":4203:4266  TransferHelper.safeTransferETH(to, amounts[amounts.length - 1]) */\n      jump\t// in\n    tag_180:\n        /* \"v2_periphery/UniswapV2Router02Part.sol\":3444:4274  function swapTokensForExactETH(uint amountOut, uint amountInMax, address[] calldata path, address to, uint deadline)... */\n      pop\n      swap7\n      swap6\n      pop\n      pop\n      pop\n      pop\n      pop\n      pop\n      jump\t// out\n        /* \"v2_periphery/UniswapV2Router02Part.sol\":7264:7967  function swapExactTokensForTokensSupportingFeeOnTransferTokens(... */\n    tag_34:\n        /* \"v2_periphery/UniswapV2Router02Part.sol\":7490:7498  deadline */\n      dup1\n        /* \"v2_periphery/UniswapV2Router02Part.sol\":692:707  block.timestamp */\n      timestamp\n        /* \"v2_periphery/UniswapV2Router02Part.sol\":680:688  deadline */\n      dup2\n        /* \"v2_periphery/UniswapV2Router02Part.sol\":680:707  deadline >= block.timestamp */\n      lt\n      iszero\n        /* \"v2_periphery/UniswapV2Router02Part.sol\":672:736  require(deadline >= block.timestamp, 'UniswapV2Router: EXPIRED') */\n      tag_185\n      jumpi\n      mload(0x40)\n      0x08c379a000000000000000000000000000000000000000000000000000000000\n      dup2\n      mstore\n      0x04\n      add\n      tag_186\n      swap1\n      tag_68\n      jump\t// in\n    tag_186:\n      mload(0x40)\n      dup1\n      swap2\n      sub\n      swap1\n      revert\n    tag_185:\n        /* \"v2_periphery/UniswapV2Router02Part.sol\":7511:7650  TransferHelper.safeTransferFrom(... */\n      tag_188\n        /* \"v2_periphery/UniswapV2Router02Part.sol\":7557:7561  path */\n      dup6\n      dup6\n        /* \"v2_periphery/UniswapV2Router02Part.sol\":7562:7563  0 */\n      0x00\n        /* \"v2_periphery/UniswapV2Router02Part.sol\":7557:7564  path[0] */\n      dup2\n      dup2\n      lt\n      tag_189\n      jumpi\n      tag_190\n      tag_74\n      jump\t// in\n    tag_190:\n    tag_189:\n      swap1\n      pop\n      0x20\n      mul\n      add\n      0x20\n      dup2\n      add\n      swap1\n      tag_191\n      swap2\n      swap1\n      tag_76\n      jump\t// in\n    tag_191:\n        /* \"v2_periphery/UniswapV2Router02Part.sol\":7566:7576  msg.sender */\n      caller\n        /* \"v2_periphery/UniswapV2Router02Part.sol\":7578:7629  UniswapV2Library.pairFor(factory, path[0], path[1]) */\n      tag_192\n        /* \"v2_periphery/UniswapV2Router02Part.sol\":7603:7610  factory */\n      0x00\n      dup1\n      sload\n      swap1\n      0x0100\n      exp\n      swap1\n      div\n      0xffffffffffffffffffffffffffffffffffffffff\n      and\n        /* \"v2_periphery/UniswapV2Router02Part.sol\":7612:7616  path */\n      dup10\n      dup10\n        /* \"v2_periphery/UniswapV2Router02Part.sol\":7617:7618  0 */\n      0x00\n        /* \"v2_periphery/UniswapV2Router02Part.sol\":7612:7619  path[0] */\n      dup2\n      dup2\n      lt\n      tag_193\n      jumpi\n      tag_194\n      tag_74\n      jump\t// in\n    tag_194:\n    tag_193:\n      swap1\n      pop\n      0x20\n      mul\n      add\n      0x20\n      dup2\n      add\n      swap1\n      tag_195\n      swap2\n      swap1\n      tag_76\n      jump\t// in\n    tag_195:\n        /* \"v2_periphery/UniswapV2Router02Part.sol\":7621:7625  path */\n      dup11\n      dup11\n        /* \"v2_periphery/UniswapV2Router02Part.sol\":7626:7627  1 */\n      0x01\n        /* \"v2_periphery/UniswapV2Router02Part.sol\":7621:7628  path[1] */\n      dup2\n      dup2\n      lt\n      tag_196\n      jumpi\n      tag_197\n      tag_74\n      jump\t// in\n    tag_197:\n    tag_196:\n      swap1\n      pop\n      0x20\n      mul\n      add\n      0x20\n      dup2\n      add\n      swap1\n      tag_198\n      swap2\n      swap1\n      tag_76\n      jump\t// in\n    tag_198:\n        /* \"v2_periphery/UniswapV2Router02Part.sol\":7578:7602  UniswapV2Library.pairFor */\n      tag_99\n        /* \"v2_periphery/UniswapV2Router02Part.sol\":7578:7629  UniswapV2Library.pairFor(factory, path[0], path[1]) */\n      jump\t// in\n    tag_192:\n        /* \"v2_periphery/UniswapV2Router02Part.sol\":7631:7639  amountIn */\n      dup11\n        /* \"v2_periphery/UniswapV2Router02Part.sol\":7511:7542  TransferHelper.safeTransferFrom */\n      tag_102\n        /* \"v2_periphery/UniswapV2Router02Part.sol\":7511:7650  TransferHelper.safeTransferFrom(... */\n      jump\t// in\n    tag_188:\n        /* \"v2_periphery/UniswapV2Router02Part.sol\":7661:7679  uint balanceBefore */\n      0x00\n        /* \"v2_periphery/UniswapV2Router02Part.sol\":7689:7693  path */\n      dup6\n      dup6\n        /* \"v2_periphery/UniswapV2Router02Part.sol\":7708:7709  1 */\n      0x01\n        /* \"v2_periphery/UniswapV2Router02Part.sol\":7694:7698  path */\n      dup9\n      dup9\n        /* \"v2_periphery/UniswapV2Router02Part.sol\":7694:7705  path.length */\n      swap1\n      pop\n        /* \"v2_periphery/UniswapV2Router02Part.sol\":7694:7709  path.length - 1 */\n      tag_199\n      swap2\n      swap1\n      tag_71\n      jump\t// in\n    tag_199:\n        /* \"v2_periphery/UniswapV2Router02Part.sol\":7689:7710  path[path.length - 1] */\n      dup2\n      dup2\n      lt\n      tag_200\n      jumpi\n      tag_201\n      tag_74\n      jump\t// in\n    tag_201:\n    tag_200:\n      swap1\n      pop\n      0x20\n      mul\n      add\n      0x20\n      dup2\n      add\n      swap1\n      tag_202\n      swap2\n      swap1\n      tag_76\n      jump\t// in\n    tag_202:\n        /* \"v2_periphery/UniswapV2Router02Part.sol\":7682:7721  IERC20(path[path.length - 1]).balanceOf */\n      0xffffffffffffffffffffffffffffffffffffffff\n      and\n      0x70a08231\n        /* \"v2_periphery/UniswapV2Router02Part.sol\":7722:7724  to */\n      dup6\n        /* \"v2_periphery/UniswapV2Router02Part.sol\":7682:7725  IERC20(path[path.length - 1]).balanceOf(to) */\n      mload(0x40)\n      dup3\n      0xffffffff\n      and\n      0xe0\n      shl\n      dup2\n      mstore\n      0x04\n      add\n      tag_203\n      swap2\n      swap1\n      tag_53\n      jump\t// in\n    tag_203:\n      0x20\n      mload(0x40)\n      dup1\n      dup4\n      sub\n      dup2\n      dup7\n      gas\n      staticcall\n      iszero\n      dup1\n      iszero\n      tag_205\n      jumpi\n      returndatasize\n      0x00\n      dup1\n      returndatacopy\n      revert(0x00, returndatasize)\n    tag_205:\n      pop\n      pop\n      pop\n      pop\n      mload(0x40)\n      returndatasize\n      not(0x1f)\n      0x1f\n      dup3\n      add\n      and\n      dup3\n      add\n      dup1\n      0x40\n      mstore\n      pop\n      dup2\n      add\n      swap1\n      tag_206\n      swap2\n      swap1\n      tag_207\n      jump\t// in\n    tag_206:\n        /* \"v2_periphery/UniswapV2Router02Part.sol\":7661:7725  uint balanceBefore = IERC20(path[path.length - 1]).balanceOf(to) */\n      swap1\n      pop\n        /* \"v2_periphery/UniswapV2Router02Part.sol\":7736:7780  _swapSupportingFeeOnTransferTokens(path, to) */\n      tag_208\n        /* \"v2_periphery/UniswapV2Router02Part.sol\":7771:7775  path */\n      dup7\n      dup7\n        /* \"v2_periphery/UniswapV2Router02Part.sol\":7736:7780  _swapSupportingFeeOnTransferTokens(path, to) */\n      dup1\n      dup1\n      0x20\n      mul\n      0x20\n      add\n      mload(0x40)\n      swap1\n      dup2\n      add\n      0x40\n      mstore\n      dup1\n      swap4\n      swap3\n      swap2\n      swap1\n      dup2\n      dup2\n      mstore\n      0x20\n      add\n      dup4\n      dup4\n      0x20\n      mul\n      dup1\n      dup3\n      dup5\n      calldatacopy\n      0x00\n      dup2\n      dup5\n      add\n      mstore\n      not(0x1f)\n      0x1f\n      dup3\n      add\n      and\n      swap1\n      pop\n      dup1\n      dup4\n      add\n      swap3\n      pop\n      pop\n      pop\n      pop\n      pop\n      pop\n      pop\n        /* \"v2_periphery/UniswapV2Router02Part.sol\":7777:7779  to */\n      dup6\n        /* \"v2_periphery/UniswapV2Router02Part.sol\":7736:7770  _swapSupportingFeeOnTransferTokens */\n      tag_209\n        /* \"v2_periphery/UniswapV2Router02Part.sol\":7736:7780  _swapSupportingFeeOnTransferTokens(path, to) */\n      jump\t// in\n    tag_208:\n        /* \"v2_periphery/UniswapV2Router02Part.sol\":7876:7888  amountOutMin */\n      dup7\n        /* \"v2_periphery/UniswapV2Router02Part.sol\":7859:7872  balanceBefore */\n      dup2\n        /* \"v2_periphery/UniswapV2Router02Part.sol\":7820:7824  path */\n      dup8\n      dup8\n        /* \"v2_periphery/UniswapV2Router02Part.sol\":7839:7840  1 */\n      0x01\n        /* \"v2_periphery/UniswapV2Router02Part.sol\":7825:7829  path */\n      dup11\n      dup11\n        /* \"v2_periphery/UniswapV2Router02Part.sol\":7825:7836  path.length */\n      swap1\n      pop\n        /* \"v2_periphery/UniswapV2Router02Part.sol\":7825:7840  path.length - 1 */\n      tag_210\n      swap2\n      swap1\n      tag_71\n      jump\t// in\n    tag_210:\n        /* \"v2_periphery/UniswapV2Router02Part.sol\":7820:7841  path[path.length - 1] */\n      dup2\n      dup2\n      lt\n      tag_211\n      jumpi\n      tag_212\n      tag_74\n      jump\t// in\n    tag_212:\n    tag_211:\n      swap1\n      pop\n      0x20\n      mul\n      add\n      0x20\n      dup2\n      add\n      swap1\n      tag_213\n      swap2\n      swap1\n      tag_76\n      jump\t// in\n    tag_213:\n        /* \"v2_periphery/UniswapV2Router02Part.sol\":7813:7852  IERC20(path[path.length - 1]).balanceOf */\n      0xffffffffffffffffffffffffffffffffffffffff\n      and\n      0x70a08231\n        /* \"v2_periphery/UniswapV2Router02Part.sol\":7853:7855  to */\n      dup8\n        /* \"v2_periphery/UniswapV2Router02Part.sol\":7813:7856  IERC20(path[path.length - 1]).balanceOf(to) */\n      mload(0x40)\n      dup3\n      0xffffffff\n      and\n      0xe0\n      shl\n      dup2\n      mstore\n      0x04\n      add\n      tag_214\n      swap2\n      swap1\n      tag_53\n      jump\t// in\n    tag_214:\n      0x20\n      mload(0x40)\n      dup1\n      dup4\n      sub\n      dup2\n      dup7\n      gas\n      staticcall\n      iszero\n      dup1\n      iszero\n      tag_216\n      jumpi\n      returndatasize\n      0x00\n      dup1\n      returndatacopy\n      revert(0x00, returndatasize)\n    tag_216:\n      pop\n      pop\n      pop\n      pop\n      mload(0x40)\n      returndatasize\n      not(0x1f)\n      0x1f\n      dup3\n      add\n      and\n      dup3\n      add\n      dup1\n      0x40\n      mstore\n      pop\n      dup2\n      add\n      swap1\n      tag_217\n      swap2\n      swap1\n      tag_207\n      jump\t// in\n    tag_217:\n        /* \"v2_periphery/UniswapV2Router02Part.sol\":7813:7872  IERC20(path[path.length - 1]).balanceOf(to) - balanceBefore */\n      tag_218\n      swap2\n      swap1\n      tag_71\n      jump\t// in\n    tag_218:\n        /* \"v2_periphery/UniswapV2Router02Part.sol\":7813:7888  IERC20(path[path.length - 1]).balanceOf(to) - balanceBefore >= amountOutMin */\n      lt\n      iszero\n        /* \"v2_periphery/UniswapV2Router02Part.sol\":7791:7959  require(... */\n      tag_219\n      jumpi\n      mload(0x40)\n      0x08c379a000000000000000000000000000000000000000000000000000000000\n      dup2\n      mstore\n      0x04\n      add\n      tag_220\n      swap1\n      tag_87\n      jump\t// in\n    tag_220:\n      mload(0x40)\n      dup1\n      swap2\n      sub\n      swap1\n      revert\n    tag_219:\n        /* \"v2_periphery/UniswapV2Router02Part.sol\":7500:7967  {... */\n      pop\n        /* \"v2_periphery/UniswapV2Router02Part.sol\":7264:7967  function swapExactTokensForTokensSupportingFeeOnTransferTokens(... */\n      pop\n      pop\n      pop\n      pop\n      pop\n      pop\n      pop\n      jump\t// out\n        /* \"v2_periphery/UniswapV2Router02Part.sol\":8818:9653  function swapExactTokensForETHSupportingFeeOnTransferTokens(... */\n    tag_38:\n        /* \"v2_periphery/UniswapV2Router02Part.sol\":9077:9085  deadline */\n      dup1\n        /* \"v2_periphery/UniswapV2Router02Part.sol\":692:707  block.timestamp */\n      timestamp\n        /* \"v2_periphery/UniswapV2Router02Part.sol\":680:688  deadline */\n      dup2\n        /* \"v2_periphery/UniswapV2Router02Part.sol\":680:707  deadline >= block.timestamp */\n      lt\n      iszero\n        /* \"v2_periphery/UniswapV2Router02Part.sol\":672:736  require(deadline >= block.timestamp, 'UniswapV2Router: EXPIRED') */\n      tag_222\n      jumpi\n      mload(0x40)\n      0x08c379a000000000000000000000000000000000000000000000000000000000\n      dup2\n      mstore\n      0x04\n      add\n      tag_223\n      swap1\n      tag_68\n      jump\t// in\n    tag_223:\n      mload(0x40)\n      dup1\n      swap2\n      sub\n      swap1\n      revert\n    tag_222:\n        /* \"v2_periphery/UniswapV2Router02Part.sol\":9136:9140  WETH */\n      0x01\n      0x00\n      swap1\n      sload\n      swap1\n      0x0100\n      exp\n      swap1\n      div\n      0xffffffffffffffffffffffffffffffffffffffff\n      and\n        /* \"v2_periphery/UniswapV2Router02Part.sol\":9111:9140  path[path.length - 1] == WETH */\n      0xffffffffffffffffffffffffffffffffffffffff\n      and\n        /* \"v2_periphery/UniswapV2Router02Part.sol\":9111:9115  path */\n      dup6\n      dup6\n        /* \"v2_periphery/UniswapV2Router02Part.sol\":9130:9131  1 */\n      0x01\n        /* \"v2_periphery/UniswapV2Router02Part.sol\":9116:9120  path */\n      dup9\n      dup9\n        /* \"v2_periphery/UniswapV2Router02Part.sol\":9116:9127  path.length */\n      swap1\n      pop\n        /* \"v2_periphery/UniswapV2Router02Part.sol\":9116:9131  path.length - 1 */\n      tag_225\n      swap2\n      swap1\n      tag_71\n      jump\t// in\n    tag_225:\n        /* \"v2_periphery/UniswapV2Router02Part.sol\":9111:9132  path[path.length - 1] */\n      dup2\n      dup2\n      lt\n      tag_226\n      jumpi\n      tag_227\n      tag_74\n      jump\t// in\n    tag_227:\n    tag_226:\n      swap1\n      pop\n      0x20\n      mul\n      add\n      0x20\n      dup2\n      add\n      swap1\n      tag_228\n      swap2\n      swap1\n      tag_76\n      jump\t// in\n    tag_228:\n        /* \"v2_periphery/UniswapV2Router02Part.sol\":9111:9140  path[path.length - 1] == WETH */\n      0xffffffffffffffffffffffffffffffffffffffff\n      and\n      eq\n        /* \"v2_periphery/UniswapV2Router02Part.sol\":9103:9174  require(path[path.length - 1] == WETH, 'UniswapV2Router: INVALID_PATH') */\n      tag_229\n      jumpi\n      mload(0x40)\n      0x08c379a000000000000000000000000000000000000000000000000000000000\n      dup2\n      mstore\n      0x04\n      add\n      tag_230\n      swap1\n      tag_79\n      jump\t// in\n    tag_230:\n      mload(0x40)\n      dup1\n      swap2\n      sub\n      swap1\n      revert\n    tag_229:\n        /* \"v2_periphery/UniswapV2Router02Part.sol\":9185:9324  TransferHelper.safeTransferFrom(... */\n      tag_231\n        /* \"v2_periphery/UniswapV2Router02Part.sol\":9231:9235  path */\n      dup6\n      dup6\n        /* \"v2_periphery/UniswapV2Router02Part.sol\":9236:9237  0 */\n      0x00\n        /* \"v2_periphery/UniswapV2Router02Part.sol\":9231:9238  path[0] */\n      dup2\n      dup2\n      lt\n      tag_232\n      jumpi\n      tag_233\n      tag_74\n      jump\t// in\n    tag_233:\n    tag_232:\n      swap1\n      pop\n      0x20\n      mul\n      add\n      0x20\n      dup2\n      add\n      swap1\n      tag_234\n      swap2\n      swap1\n      tag_76\n      jump\t// in\n    tag_234:\n        /* \"v2_periphery/UniswapV2Router02Part.sol\":9240:9250  msg.sender */\n      caller\n        /* \"v2_periphery/UniswapV2Router02Part.sol\":9252:9303  UniswapV2Library.pairFor(factory, path[0], path[1]) */\n      tag_235\n        /* \"v2_periphery/UniswapV2Router02Part.sol\":9277:9284  factory */\n      0x00\n      dup1\n      sload\n      swap1\n      0x0100\n      exp\n      swap1\n      div\n      0xffffffffffffffffffffffffffffffffffffffff\n      and\n        /* \"v2_periphery/UniswapV2Router02Part.sol\":9286:9290  path */\n      dup10\n      dup10\n        /* \"v2_periphery/UniswapV2Router02Part.sol\":9291:9292  0 */\n      0x00\n        /* \"v2_periphery/UniswapV2Router02Part.sol\":9286:9293  path[0] */\n      dup2\n      dup2\n      lt\n      tag_236\n      jumpi\n      tag_237\n      tag_74\n      jump\t// in\n    tag_237:\n    tag_236:\n      swap1\n      pop\n      0x20\n      mul\n      add\n      0x20\n      dup2\n      add\n      swap1\n      tag_238\n      swap2\n      swap1\n      tag_76\n      jump\t// in\n    tag_238:\n        /* \"v2_periphery/UniswapV2Router02Part.sol\":9295:9299  path */\n      dup11\n      dup11\n        /* \"v2_periphery/UniswapV2Router02Part.sol\":9300:9301  1 */\n      0x01\n        /* \"v2_periphery/UniswapV2Router02Part.sol\":9295:9302  path[1] */\n      dup2\n      dup2\n      lt\n      tag_239\n      jumpi\n      tag_240\n      tag_74\n      jump\t// in\n    tag_240:\n    tag_239:\n      swap1\n      pop\n      0x20\n      mul\n      add\n      0x20\n      dup2\n      add\n      swap1\n      tag_241\n      swap2\n      swap1\n      tag_76\n      jump\t// in\n    tag_241:\n        /* \"v2_periphery/UniswapV2Router02Part.sol\":9252:9276  UniswapV2Library.pairFor */\n      tag_99\n        /* \"v2_periphery/UniswapV2Router02Part.sol\":9252:9303  UniswapV2Library.pairFor(factory, path[0], path[1]) */\n      jump\t// in\n    tag_235:\n        /* \"v2_periphery/UniswapV2Router02Part.sol\":9305:9313  amountIn */\n      dup11\n        /* \"v2_periphery/UniswapV2Router02Part.sol\":9185:9216  TransferHelper.safeTransferFrom */\n      tag_102\n        /* \"v2_periphery/UniswapV2Router02Part.sol\":9185:9324  TransferHelper.safeTransferFrom(... */\n      jump\t// in\n    tag_231:\n        /* \"v2_periphery/UniswapV2Router02Part.sol\":9335:9390  _swapSupportingFeeOnTransferTokens(path, address(this)) */\n      tag_242\n        /* \"v2_periphery/UniswapV2Router02Part.sol\":9370:9374  path */\n      dup6\n      dup6\n        /* \"v2_periphery/UniswapV2Router02Part.sol\":9335:9390  _swapSupportingFeeOnTransferTokens(path, address(this)) */\n      dup1\n      dup1\n      0x20\n      mul\n      0x20\n      add\n      mload(0x40)\n      swap1\n      dup2\n      add\n      0x40\n      mstore\n      dup1\n      swap4\n      swap3\n      swap2\n      swap1\n      dup2\n      dup2\n      mstore\n      0x20\n      add\n      dup4\n      dup4\n      0x20\n      mul\n      dup1\n      dup3\n      dup5\n      calldatacopy\n      0x00\n      dup2\n      dup5\n      add\n      mstore\n      not(0x1f)\n      0x1f\n      dup3\n      add\n      and\n      swap1\n      pop\n      dup1\n      dup4\n      add\n      swap3\n      pop\n      pop\n      pop\n      pop\n      pop\n      pop\n      pop\n        /* \"v2_periphery/UniswapV2Router02Part.sol\":9384:9388  this */\n      address\n        /* \"v2_periphery/UniswapV2Router02Part.sol\":9335:9369  _swapSupportingFeeOnTransferTokens */\n      tag_209\n        /* \"v2_periphery/UniswapV2Router02Part.sol\":9335:9390  _swapSupportingFeeOnTransferTokens(path, address(this)) */\n      jump\t// in\n    tag_242:\n        /* \"v2_periphery/UniswapV2Router02Part.sol\":9401:9415  uint amountOut */\n      0x00\n        /* \"v2_periphery/UniswapV2Router02Part.sol\":9425:9429  WETH */\n      0x01\n      0x00\n      swap1\n      sload\n      swap1\n      0x0100\n      exp\n      swap1\n      div\n      0xffffffffffffffffffffffffffffffffffffffff\n      and\n        /* \"v2_periphery/UniswapV2Router02Part.sol\":9418:9440  IERC20(WETH).balanceOf */\n      0xffffffffffffffffffffffffffffffffffffffff\n      and\n      0x70a08231\n        /* \"v2_periphery/UniswapV2Router02Part.sol\":9449:9453  this */\n      address\n        /* \"v2_periphery/UniswapV2Router02Part.sol\":9418:9455  IERC20(WETH).balanceOf(address(this)) */\n      mload(0x40)\n      dup3\n      0xffffffff\n      and\n      0xe0\n      shl\n      dup2\n      mstore\n      0x04\n      add\n      tag_243\n      swap2\n      swap1\n      tag_53\n      jump\t// in\n    tag_243:\n      0x20\n      mload(0x40)\n      dup1\n      dup4\n      sub\n      dup2\n      dup7\n      gas\n      staticcall\n      iszero\n      dup1\n      iszero\n      tag_245\n      jumpi\n      returndatasize\n      0x00\n      dup1\n      returndatacopy\n      revert(0x00, returndatasize)\n    tag_245:\n      pop\n      pop\n      pop\n      pop\n      mload(0x40)\n      returndatasize\n      not(0x1f)\n      0x1f\n      dup3\n      add\n      and\n      dup3\n      add\n      dup1\n      0x40\n      mstore\n      pop\n      dup2\n      add\n      swap1\n      tag_246\n      swap2\n      swap1\n      tag_207\n      jump\t// in\n    tag_246:\n        /* \"v2_periphery/UniswapV2Router02Part.sol\":9401:9455  uint amountOut = IERC20(WETH).balanceOf(address(this)) */\n      swap1\n      pop\n        /* \"v2_periphery/UniswapV2Router02Part.sol\":9487:9499  amountOutMin */\n      dup7\n        /* \"v2_periphery/UniswapV2Router02Part.sol\":9474:9483  amountOut */\n      dup2\n        /* \"v2_periphery/UniswapV2Router02Part.sol\":9474:9499  amountOut >= amountOutMin */\n      lt\n      iszero\n        /* \"v2_periphery/UniswapV2Router02Part.sol\":9466:9547  require(amountOut >= amountOutMin, 'UniswapV2Router: INSUFFICIENT_OUTPUT_AMOUNT') */\n      tag_247\n      jumpi\n      mload(0x40)\n      0x08c379a000000000000000000000000000000000000000000000000000000000\n      dup2\n      mstore\n      0x04\n      add\n      tag_248\n      swap1\n      tag_87\n      jump\t// in\n    tag_248:\n      mload(0x40)\n      dup1\n      swap2\n      sub\n      swap1\n      revert\n    tag_247:\n        /* \"v2_periphery/UniswapV2Router02Part.sol\":9564:9568  WETH */\n      0x01\n      0x00\n      swap1\n      sload\n      swap1\n      0x0100\n      exp\n      swap1\n      div\n      0xffffffffffffffffffffffffffffffffffffffff\n      and\n        /* \"v2_periphery/UniswapV2Router02Part.sol\":9558:9578  IWETH(WETH).withdraw */\n      0xffffffffffffffffffffffffffffffffffffffff\n      and\n      0x2e1a7d4d\n        /* \"v2_periphery/UniswapV2Router02Part.sol\":9579:9588  amountOut */\n      dup3\n        /* \"v2_periphery/UniswapV2Router02Part.sol\":9558:9589  IWETH(WETH).withdraw(amountOut) */\n      mload(0x40)\n      dup3\n      0xffffffff\n      and\n      0xe0\n      shl\n      dup2\n      mstore\n      0x04\n      add\n      tag_249\n      swap2\n      swap1\n      tag_109\n      jump\t// in\n    tag_249:\n      0x00\n      mload(0x40)\n      dup1\n      dup4\n      sub\n      dup2\n      0x00\n      dup8\n      dup1\n      extcodesize\n      iszero\n      dup1\n      iszero\n      tag_250\n      jumpi\n      0x00\n      dup1\n      revert\n    tag_250:\n      pop\n      gas\n      call\n      iszero\n      dup1\n      iszero\n      tag_252\n      jumpi\n      returndatasize\n      0x00\n      dup1\n      returndatacopy\n      revert(0x00, returndatasize)\n    tag_252:\n      pop\n      pop\n      pop\n      pop\n        /* \"v2_periphery/UniswapV2Router02Part.sol\":9600:9645  TransferHelper.safeTransferETH(to, amountOut) */\n      tag_253\n        /* \"v2_periphery/UniswapV2Router02Part.sol\":9631:9633  to */\n      dup5\n        /* \"v2_periphery/UniswapV2Router02Part.sol\":9635:9644  amountOut */\n      dup3\n        /* \"v2_periphery/UniswapV2Router02Part.sol\":9600:9630  TransferHelper.safeTransferETH */\n      tag_117\n        /* \"v2_periphery/UniswapV2Router02Part.sol\":9600:9645  TransferHelper.safeTransferETH(to, amountOut) */\n      jump\t// in\n    tag_253:\n        /* \"v2_periphery/UniswapV2Router02Part.sol\":9092:9653  {... */\n      pop\n        /* \"v2_periphery/UniswapV2Router02Part.sol\":8818:9653  function swapExactTokensForETHSupportingFeeOnTransferTokens(... */\n      pop\n      pop\n      pop\n      pop\n      pop\n      pop\n      pop\n      jump\t// out\n        /* \"v2_periphery/UniswapV2Router02Part.sol\":2739:3438  function swapExactETHForTokens(uint amountOutMin, address[] calldata path, address to, uint deadline)... */\n    tag_42:\n        /* \"v2_periphery/UniswapV2Router02Part.sol\":2957:2978  uint[] memory amounts */\n      0x60\n        /* \"v2_periphery/UniswapV2Router02Part.sol\":2929:2937  deadline */\n      dup2\n        /* \"v2_periphery/UniswapV2Router02Part.sol\":692:707  block.timestamp */\n      timestamp\n        /* \"v2_periphery/UniswapV2Router02Part.sol\":680:688  deadline */\n      dup2\n        /* \"v2_periphery/UniswapV2Router02Part.sol\":680:707  deadline >= block.timestamp */\n      lt\n      iszero\n        /* \"v2_periphery/UniswapV2Router02Part.sol\":672:736  require(deadline >= block.timestamp, 'UniswapV2Router: EXPIRED') */\n      tag_255\n      jumpi\n      mload(0x40)\n      0x08c379a000000000000000000000000000000000000000000000000000000000\n      dup2\n      mstore\n      0x04\n      add\n      tag_256\n      swap1\n      tag_68\n      jump\t// in\n    tag_256:\n      mload(0x40)\n      dup1\n      swap2\n      sub\n      swap1\n      revert\n    tag_255:\n        /* \"v2_periphery/UniswapV2Router02Part.sol\":3015:3019  WETH */\n      0x01\n      0x00\n      swap1\n      sload\n      swap1\n      0x0100\n      exp\n      swap1\n      div\n      0xffffffffffffffffffffffffffffffffffffffff\n      and\n        /* \"v2_periphery/UniswapV2Router02Part.sol\":3004:3019  path[0] == WETH */\n      0xffffffffffffffffffffffffffffffffffffffff\n      and\n        /* \"v2_periphery/UniswapV2Router02Part.sol\":3004:3008  path */\n      dup7\n      dup7\n        /* \"v2_periphery/UniswapV2Router02Part.sol\":3009:3010  0 */\n      0x00\n        /* \"v2_periphery/UniswapV2Router02Part.sol\":3004:3011  path[0] */\n      dup2\n      dup2\n      lt\n      tag_258\n      jumpi\n      tag_259\n      tag_74\n      jump\t// in\n    tag_259:\n    tag_258:\n      swap1\n      pop\n      0x20\n      mul\n      add\n      0x20\n      dup2\n      add\n      swap1\n      tag_260\n      swap2\n      swap1\n      tag_76\n      jump\t// in\n    tag_260:\n        /* \"v2_periphery/UniswapV2Router02Part.sol\":3004:3019  path[0] == WETH */\n      0xffffffffffffffffffffffffffffffffffffffff\n      and\n      eq\n        /* \"v2_periphery/UniswapV2Router02Part.sol\":2996:3053  require(path[0] == WETH, 'UniswapV2Router: INVALID_PATH') */\n      tag_261\n      jumpi\n      mload(0x40)\n      0x08c379a000000000000000000000000000000000000000000000000000000000\n      dup2\n      mstore\n      0x04\n      add\n      tag_262\n      swap1\n      tag_79\n      jump\t// in\n    tag_262:\n      mload(0x40)\n      dup1\n      swap2\n      sub\n      swap1\n      revert\n    tag_261:\n        /* \"v2_periphery/UniswapV2Router02Part.sol\":3074:3130  UniswapV2Library.getAmountsOut(factory, msg.value, path) */\n      tag_263\n        /* \"v2_periphery/UniswapV2Router02Part.sol\":3105:3112  factory */\n      0x00\n      dup1\n      sload\n      swap1\n      0x0100\n      exp\n      swap1\n      div\n      0xffffffffffffffffffffffffffffffffffffffff\n      and\n        /* \"v2_periphery/UniswapV2Router02Part.sol\":3114:3123  msg.value */\n      callvalue\n        /* \"v2_periphery/UniswapV2Router02Part.sol\":3125:3129  path */\n      dup9\n      dup9\n        /* \"v2_periphery/UniswapV2Router02Part.sol\":3074:3130  UniswapV2Library.getAmountsOut(factory, msg.value, path) */\n      dup1\n      dup1\n      0x20\n      mul\n      0x20\n      add\n      mload(0x40)\n      swap1\n      dup2\n      add\n      0x40\n      mstore\n      dup1\n      swap4\n      swap3\n      swap2\n      swap1\n      dup2\n      dup2\n      mstore\n      0x20\n      add\n      dup4\n      dup4\n      0x20\n      mul\n      dup1\n      dup3\n      dup5\n      calldatacopy\n      0x00\n      dup2\n      dup5\n      add\n      mstore\n      not(0x1f)\n      0x1f\n      dup3\n      add\n      and\n      swap1\n      pop\n      dup1\n      dup4\n      add\n      swap3\n      pop\n      pop\n      pop\n      pop\n      pop\n      pop\n      pop\n        /* \"v2_periphery/UniswapV2Router02Part.sol\":3074:3104  UniswapV2Library.getAmountsOut */\n      tag_81\n        /* \"v2_periphery/UniswapV2Router02Part.sol\":3074:3130  UniswapV2Library.getAmountsOut(factory, msg.value, path) */\n      jump\t// in\n    tag_263:\n        /* \"v2_periphery/UniswapV2Router02Part.sol\":3064:3130  amounts = UniswapV2Library.getAmountsOut(factory, msg.value, path) */\n      swap2\n      pop\n        /* \"v2_periphery/UniswapV2Router02Part.sol\":3180:3192  amountOutMin */\n      dup7\n        /* \"v2_periphery/UniswapV2Router02Part.sol\":3149:3156  amounts */\n      dup3\n        /* \"v2_periphery/UniswapV2Router02Part.sol\":3174:3175  1 */\n      0x01\n        /* \"v2_periphery/UniswapV2Router02Part.sol\":3157:3164  amounts */\n      dup5\n        /* \"v2_periphery/UniswapV2Router02Part.sol\":3157:3171  amounts.length */\n      mload\n        /* \"v2_periphery/UniswapV2Router02Part.sol\":3157:3175  amounts.length - 1 */\n      tag_264\n      swap2\n      swap1\n      tag_71\n      jump\t// in\n    tag_264:\n        /* \"v2_periphery/UniswapV2Router02Part.sol\":3149:3176  amounts[amounts.length - 1] */\n      dup2\n      mload\n      dup2\n      lt\n      tag_265\n      jumpi\n      tag_266\n      tag_74\n      jump\t// in\n    tag_266:\n    tag_265:\n      0x20\n      mul\n      0x20\n      add\n      add\n      mload\n        /* \"v2_periphery/UniswapV2Router02Part.sol\":3149:3192  amounts[amounts.length - 1] >= amountOutMin */\n      lt\n      iszero\n        /* \"v2_periphery/UniswapV2Router02Part.sol\":3141:3240  require(amounts[amounts.length - 1] >= amountOutMin, 'UniswapV2Router: INSUFFICIENT_OUTPUT_AMOUNT') */\n      tag_267\n      jumpi\n      mload(0x40)\n      0x08c379a000000000000000000000000000000000000000000000000000000000\n      dup2\n      mstore\n      0x04\n      add\n      tag_268\n      swap1\n      tag_87\n      jump\t// in\n    tag_268:\n      mload(0x40)\n      dup1\n      swap2\n      sub\n      swap1\n      revert\n    tag_267:\n        /* \"v2_periphery/UniswapV2Router02Part.sol\":3257:3261  WETH */\n      0x01\n      0x00\n      swap1\n      sload\n      swap1\n      0x0100\n      exp\n      swap1\n      div\n      0xffffffffffffffffffffffffffffffffffffffff\n      and\n        /* \"v2_periphery/UniswapV2Router02Part.sol\":3251:3270  IWETH(WETH).deposit */\n      0xffffffffffffffffffffffffffffffffffffffff\n      and\n      0xd0e30db0\n        /* \"v2_periphery/UniswapV2Router02Part.sol\":3278:3285  amounts */\n      dup4\n        /* \"v2_periphery/UniswapV2Router02Part.sol\":3286:3287  0 */\n      0x00\n        /* \"v2_periphery/UniswapV2Router02Part.sol\":3278:3288  amounts[0] */\n      dup2\n      mload\n      dup2\n      lt\n      tag_269\n      jumpi\n      tag_270\n      tag_74\n      jump\t// in\n    tag_270:\n    tag_269:\n      0x20\n      mul\n      0x20\n      add\n      add\n      mload\n        /* \"v2_periphery/UniswapV2Router02Part.sol\":3251:3291  IWETH(WETH).deposit{value: amounts[0]}() */\n      mload(0x40)\n      dup3\n      0xffffffff\n      and\n      0xe0\n      shl\n      dup2\n      mstore\n      0x04\n      add\n      0x00\n      mload(0x40)\n      dup1\n      dup4\n      sub\n      dup2\n      dup6\n      dup9\n      dup1\n      extcodesize\n      iszero\n      dup1\n      iszero\n      tag_271\n      jumpi\n      0x00\n      dup1\n      revert\n    tag_271:\n      pop\n      gas\n      call\n      iszero\n      dup1\n      iszero\n      tag_273\n      jumpi\n      returndatasize\n      0x00\n      dup1\n      returndatacopy\n      revert(0x00, returndatasize)\n    tag_273:\n      pop\n      pop\n      pop\n      pop\n      pop\n        /* \"v2_periphery/UniswapV2Router02Part.sol\":3315:3319  WETH */\n      0x01\n      0x00\n      swap1\n      sload\n      swap1\n      0x0100\n      exp\n      swap1\n      div\n      0xffffffffffffffffffffffffffffffffffffffff\n      and\n        /* \"v2_periphery/UniswapV2Router02Part.sol\":3309:3329  IWETH(WETH).transfer */\n      0xffffffffffffffffffffffffffffffffffffffff\n      and\n      0xa9059cbb\n        /* \"v2_periphery/UniswapV2Router02Part.sol\":3330:3381  UniswapV2Library.pairFor(factory, path[0], path[1]) */\n      tag_274\n        /* \"v2_periphery/UniswapV2Router02Part.sol\":3355:3362  factory */\n      0x00\n      dup1\n      sload\n      swap1\n      0x0100\n      exp\n      swap1\n      div\n      0xffffffffffffffffffffffffffffffffffffffff\n      and\n        /* \"v2_periphery/UniswapV2Router02Part.sol\":3364:3368  path */\n      dup10\n      dup10\n        /* \"v2_periphery/UniswapV2Router02Part.sol\":3369:3370  0 */\n      0x00\n        /* \"v2_periphery/UniswapV2Router02Part.sol\":3364:3371  path[0] */\n      dup2\n      dup2\n      lt\n      tag_275\n      jumpi\n      tag_276\n      tag_74\n      jump\t// in\n    tag_276:\n    tag_275:\n      swap1\n      pop\n      0x20\n      mul\n      add\n      0x20\n      dup2\n      add\n      swap1\n      tag_277\n      swap2\n      swap1\n      tag_76\n      jump\t// in\n    tag_277:\n        /* \"v2_periphery/UniswapV2Router02Part.sol\":3373:3377  path */\n      dup11\n      dup11\n        /* \"v2_periphery/UniswapV2Router02Part.sol\":3378:3379  1 */\n      0x01\n        /* \"v2_periphery/UniswapV2Router02Part.sol\":3373:3380  path[1] */\n      dup2\n      dup2\n      lt\n      tag_278\n      jumpi\n      tag_279\n      tag_74\n      jump\t// in\n    tag_279:\n    tag_278:\n      swap1\n      pop\n      0x20\n      mul\n      add\n      0x20\n      dup2\n      add\n      swap1\n      tag_280\n      swap2\n      swap1\n      tag_76\n      jump\t// in\n    tag_280:\n        /* \"v2_periphery/UniswapV2Router02Part.sol\":3330:3354  UniswapV2Library.pairFor */\n      tag_99\n        /* \"v2_periphery/UniswapV2Router02Part.sol\":3330:3381  UniswapV2Library.pairFor(factory, path[0], path[1]) */\n      jump\t// in\n    tag_274:\n        /* \"v2_periphery/UniswapV2Router02Part.sol\":3383:3390  amounts */\n      dup5\n        /* \"v2_periphery/UniswapV2Router02Part.sol\":3391:3392  0 */\n      0x00\n        /* \"v2_periphery/UniswapV2Router02Part.sol\":3383:3393  amounts[0] */\n      dup2\n      mload\n      dup2\n      lt\n      tag_281\n      jumpi\n      tag_282\n      tag_74\n      jump\t// in\n    tag_282:\n    tag_281:\n      0x20\n      mul\n      0x20\n      add\n      add\n      mload\n        /* \"v2_periphery/UniswapV2Router02Part.sol\":3309:3394  IWETH(WETH).transfer(UniswapV2Library.pairFor(factory, path[0], path[1]), amounts[0]) */\n      mload(0x40)\n      dup4\n      0xffffffff\n      and\n      0xe0\n      shl\n      dup2\n      mstore\n      0x04\n      add\n      tag_283\n      swap3\n      swap2\n      swap1\n      tag_284\n      jump\t// in\n    tag_283:\n      0x20\n      mload(0x40)\n      dup1\n      dup4\n      sub\n      dup2\n      0x00\n      dup8\n      gas\n      call\n      iszero\n      dup1\n      iszero\n      tag_286\n      jumpi\n      returndatasize\n      0x00\n      dup1\n      returndatacopy\n      revert(0x00, returndatasize)\n    tag_286:\n      pop\n      pop\n      pop\n      pop\n      mload(0x40)\n      returndatasize\n      not(0x1f)\n      0x1f\n      dup3\n      add\n      and\n      dup3\n      add\n      dup1\n      0x40\n      mstore\n      pop\n      dup2\n      add\n      swap1\n      tag_287\n      swap2\n      swap1\n      tag_288\n      jump\t// in\n    tag_287:\n        /* \"v2_periphery/UniswapV2Router02Part.sol\":3302:3395  assert(IWETH(WETH).transfer(UniswapV2Library.pairFor(factory, path[0], path[1]), amounts[0])) */\n      tag_289\n      jumpi\n      tag_290\n      tag_291\n      jump\t// in\n    tag_290:\n    tag_289:\n        /* \"v2_periphery/UniswapV2Router02Part.sol\":3406:3430  _swap(amounts, path, to) */\n      tag_292\n        /* \"v2_periphery/UniswapV2Router02Part.sol\":3412:3419  amounts */\n      dup3\n        /* \"v2_periphery/UniswapV2Router02Part.sol\":3421:3425  path */\n      dup8\n      dup8\n        /* \"v2_periphery/UniswapV2Router02Part.sol\":3406:3430  _swap(amounts, path, to) */\n      dup1\n      dup1\n      0x20\n      mul\n      0x20\n      add\n      mload(0x40)\n      swap1\n      dup2\n      add\n      0x40\n      mstore\n      dup1\n      swap4\n      swap3\n      swap2\n      swap1\n      dup2\n      dup2\n      mstore\n      0x20\n      add\n      dup4\n      dup4\n      0x20\n      mul\n      dup1\n      dup3\n      dup5\n      calldatacopy\n      0x00\n      dup2\n      dup5\n      add\n      mstore\n      not(0x1f)\n      0x1f\n      dup3\n      add\n      and\n      swap1\n      pop\n      dup1\n      dup4\n      add\n      swap3\n      pop\n      pop\n      pop\n      pop\n      pop\n      pop\n      pop\n        /* \"v2_periphery/UniswapV2Router02Part.sol\":3427:3429  to */\n      dup7\n        /* \"v2_periphery/UniswapV2Router02Part.sol\":3406:3411  _swap */\n      tag_104\n        /* \"v2_periphery/UniswapV2Router02Part.sol\":3406:3430  _swap(amounts, path, to) */\n      jump\t// in\n    tag_292:\n        /* \"v2_periphery/UniswapV2Router02Part.sol\":2739:3438  function swapExactETHForTokens(uint amountOutMin, address[] calldata path, address to, uint deadline)... */\n      pop\n      swap6\n      swap5\n      pop\n      pop\n      pop\n      pop\n      pop\n      jump\t// out\n        /* \"v2_periphery/UniswapV2Router02Part.sol\":2135:2733  function swapTokensForExactTokens(... */\n    tag_47:\n        /* \"v2_periphery/UniswapV2Router02Part.sol\":2351:2372  uint[] memory amounts */\n      0x60\n        /* \"v2_periphery/UniswapV2Router02Part.sol\":2332:2340  deadline */\n      dup2\n        /* \"v2_periphery/UniswapV2Router02Part.sol\":692:707  block.timestamp */\n      timestamp\n        /* \"v2_periphery/UniswapV2Router02Part.sol\":680:688  deadline */\n      dup2\n        /* \"v2_periphery/UniswapV2Router02Part.sol\":680:707  deadline >= block.timestamp */\n      lt\n      iszero\n        /* \"v2_periphery/UniswapV2Router02Part.sol\":672:736  require(deadline >= block.timestamp, 'UniswapV2Router: EXPIRED') */\n      tag_294\n      jumpi\n      mload(0x40)\n      0x08c379a000000000000000000000000000000000000000000000000000000000\n      dup2\n      mstore\n      0x04\n      add\n      tag_295\n      swap1\n      tag_68\n      jump\t// in\n    tag_295:\n      mload(0x40)\n      dup1\n      swap2\n      sub\n      swap1\n      revert\n    tag_294:\n        /* \"v2_periphery/UniswapV2Router02Part.sol\":2395:2450  UniswapV2Library.getAmountsIn(factory, amountOut, path) */\n      tag_297\n        /* \"v2_periphery/UniswapV2Router02Part.sol\":2425:2432  factory */\n      0x00\n      dup1\n      sload\n      swap1\n      0x0100\n      exp\n      swap1\n      div\n      0xffffffffffffffffffffffffffffffffffffffff\n      and\n        /* \"v2_periphery/UniswapV2Router02Part.sol\":2434:2443  amountOut */\n      dup10\n        /* \"v2_periphery/UniswapV2Router02Part.sol\":2445:2449  path */\n      dup9\n      dup9\n        /* \"v2_periphery/UniswapV2Router02Part.sol\":2395:2450  UniswapV2Library.getAmountsIn(factory, amountOut, path) */\n      dup1\n      dup1\n      0x20\n      mul\n      0x20\n      add\n      mload(0x40)\n      swap1\n      dup2\n      add\n      0x40\n      mstore\n      dup1\n      swap4\n      swap3\n      swap2\n      swap1\n      dup2\n      dup2\n      mstore\n      0x20\n      add\n      dup4\n      dup4\n      0x20\n      mul\n      dup1\n      dup3\n      dup5\n      calldatacopy\n      0x00\n      dup2\n      dup5\n      add\n      mstore\n      not(0x1f)\n      0x1f\n      dup3\n      add\n      and\n      swap1\n      pop\n      dup1\n      dup4\n      add\n      swap3\n      pop\n      pop\n      pop\n      pop\n      pop\n      pop\n      pop\n        /* \"v2_periphery/UniswapV2Router02Part.sol\":2395:2424  UniswapV2Library.getAmountsIn */\n      tag_153\n        /* \"v2_periphery/UniswapV2Router02Part.sol\":2395:2450  UniswapV2Library.getAmountsIn(factory, amountOut, path) */\n      jump\t// in\n    tag_297:\n        /* \"v2_periphery/UniswapV2Router02Part.sol\":2385:2450  amounts = UniswapV2Library.getAmountsIn(factory, amountOut, path) */\n      swap2\n      pop\n        /* \"v2_periphery/UniswapV2Router02Part.sol\":2483:2494  amountInMax */\n      dup7\n        /* \"v2_periphery/UniswapV2Router02Part.sol\":2469:2476  amounts */\n      dup3\n        /* \"v2_periphery/UniswapV2Router02Part.sol\":2477:2478  0 */\n      0x00\n        /* \"v2_periphery/UniswapV2Router02Part.sol\":2469:2479  amounts[0] */\n      dup2\n      mload\n      dup2\n      lt\n      tag_298\n      jumpi\n      tag_299\n      tag_74\n      jump\t// in\n    tag_299:\n    tag_298:\n      0x20\n      mul\n      0x20\n      add\n      add\n      mload\n        /* \"v2_periphery/UniswapV2Router02Part.sol\":2469:2494  amounts[0] <= amountInMax */\n      gt\n      iszero\n        /* \"v2_periphery/UniswapV2Router02Part.sol\":2461:2538  require(amounts[0] <= amountInMax, 'UniswapV2Router: EXCESSIVE_INPUT_AMOUNT') */\n      tag_300\n      jumpi\n      mload(0x40)\n      0x08c379a000000000000000000000000000000000000000000000000000000000\n      dup2\n      mstore\n      0x04\n      add\n      tag_301\n      swap1\n      tag_158\n      jump\t// in\n    tag_301:\n      mload(0x40)\n      dup1\n      swap2\n      sub\n      swap1\n      revert\n    tag_300:\n        /* \"v2_periphery/UniswapV2Router02Part.sol\":2549:2690  TransferHelper.safeTransferFrom(... */\n      tag_302\n        /* \"v2_periphery/UniswapV2Router02Part.sol\":2595:2599  path */\n      dup7\n      dup7\n        /* \"v2_periphery/UniswapV2Router02Part.sol\":2600:2601  0 */\n      0x00\n        /* \"v2_periphery/UniswapV2Router02Part.sol\":2595:2602  path[0] */\n      dup2\n      dup2\n      lt\n      tag_303\n      jumpi\n      tag_304\n      tag_74\n      jump\t// in\n    tag_304:\n    tag_303:\n      swap1\n      pop\n      0x20\n      mul\n      add\n      0x20\n      dup2\n      add\n      swap1\n      tag_305\n      swap2\n      swap1\n      tag_76\n      jump\t// in\n    tag_305:\n        /* \"v2_periphery/UniswapV2Router02Part.sol\":2604:2614  msg.sender */\n      caller\n        /* \"v2_periphery/UniswapV2Router02Part.sol\":2616:2667  UniswapV2Library.pairFor(factory, path[0], path[1]) */\n      tag_306\n        /* \"v2_periphery/UniswapV2Router02Part.sol\":2641:2648  factory */\n      0x00\n      dup1\n      sload\n      swap1\n      0x0100\n      exp\n      swap1\n      div\n      0xffffffffffffffffffffffffffffffffffffffff\n      and\n        /* \"v2_periphery/UniswapV2Router02Part.sol\":2650:2654  path */\n      dup11\n      dup11\n        /* \"v2_periphery/UniswapV2Router02Part.sol\":2655:2656  0 */\n      0x00\n        /* \"v2_periphery/UniswapV2Router02Part.sol\":2650:2657  path[0] */\n      dup2\n      dup2\n      lt\n      tag_307\n      jumpi\n      tag_308\n      tag_74\n      jump\t// in\n    tag_308:\n    tag_307:\n      swap1\n      pop\n      0x20\n      mul\n      add\n      0x20\n      dup2\n      add\n      swap1\n      tag_309\n      swap2\n      swap1\n      tag_76\n      jump\t// in\n    tag_309:\n        /* \"v2_periphery/UniswapV2Router02Part.sol\":2659:2663  path */\n      dup12\n      dup12\n        /* \"v2_periphery/UniswapV2Router02Part.sol\":2664:2665  1 */\n      0x01\n        /* \"v2_periphery/UniswapV2Router02Part.sol\":2659:2666  path[1] */\n      dup2\n      dup2\n      lt\n      tag_310\n      jumpi\n      tag_311\n      tag_74\n      jump\t// in\n    tag_311:\n    tag_310:\n      swap1\n      pop\n      0x20\n      mul\n      add\n      0x20\n      dup2\n      add\n      swap1\n      tag_312\n      swap2\n      swap1\n      tag_76\n      jump\t// in\n    tag_312:\n        /* \"v2_periphery/UniswapV2Router02Part.sol\":2616:2640  UniswapV2Library.pairFor */\n      tag_99\n        /* \"v2_periphery/UniswapV2Router02Part.sol\":2616:2667  UniswapV2Library.pairFor(factory, path[0], path[1]) */\n      jump\t// in\n    tag_306:\n        /* \"v2_periphery/UniswapV2Router02Part.sol\":2669:2676  amounts */\n      dup6\n        /* \"v2_periphery/UniswapV2Router02Part.sol\":2677:2678  0 */\n      0x00\n        /* \"v2_periphery/UniswapV2Router02Part.sol\":2669:2679  amounts[0] */\n      dup2\n      mload\n      dup2\n      lt\n      tag_313\n      jumpi\n      tag_314\n      tag_74\n      jump\t// in\n    tag_314:\n    tag_313:\n      0x20\n      mul\n      0x20\n      add\n      add\n      mload\n        /* \"v2_periphery/UniswapV2Router02Part.sol\":2549:2580  TransferHelper.safeTransferFrom */\n      tag_102\n        /* \"v2_periphery/UniswapV2Router02Part.sol\":2549:2690  TransferHelper.safeTransferFrom(... */\n      jump\t// in\n    tag_302:\n        /* \"v2_periphery/UniswapV2Router02Part.sol\":2701:2725  _swap(amounts, path, to) */\n      tag_315\n        /* \"v2_periphery/UniswapV2Router02Part.sol\":2707:2714  amounts */\n      dup3\n        /* \"v2_periphery/UniswapV2Router02Part.sol\":2716:2720  path */\n      dup8\n      dup8\n        /* \"v2_periphery/UniswapV2Router02Part.sol\":2701:2725  _swap(amounts, path, to) */\n      dup1\n      dup1\n      0x20\n      mul\n      0x20\n      add\n      mload(0x40)\n      swap1\n      dup2\n      add\n      0x40\n      mstore\n      dup1\n      swap4\n      swap3\n      swap2\n      swap1\n      dup2\n      dup2\n      mstore\n      0x20\n      add\n      dup4\n      dup4\n      0x20\n      mul\n      dup1\n      dup3\n      dup5\n      calldatacopy\n      0x00\n      dup2\n      dup5\n      add\n      mstore\n      not(0x1f)\n      0x1f\n      dup3\n      add\n      and\n      swap1\n      pop\n      dup1\n      dup4\n      add\n      swap3\n      pop\n      pop\n      pop\n      pop\n      pop\n      pop\n      pop\n        /* \"v2_periphery/UniswapV2Router02Part.sol\":2722:2724  to */\n      dup7\n        /* \"v2_periphery/UniswapV2Router02Part.sol\":2701:2706  _swap */\n      tag_104\n        /* \"v2_periphery/UniswapV2Router02Part.sol\":2701:2725  _swap(amounts, path, to) */\n      jump\t// in\n    tag_315:\n        /* \"v2_periphery/UniswapV2Router02Part.sol\":2135:2733  function swapTokensForExactTokens(... */\n      pop\n      swap7\n      swap6\n      pop\n      pop\n      pop\n      pop\n      pop\n      pop\n      jump\t// out\n        /* \"v2_periphery/UniswapV2Router02Part.sol\":492:512  address public  WETH */\n    tag_51:\n      0x01\n      0x00\n      swap1\n      sload\n      swap1\n      0x0100\n      exp\n      swap1\n      div\n      0xffffffffffffffffffffffffffffffffffffffff\n      and\n      dup2\n      jump\t// out\n        /* \"v2_periphery/UniswapV2Router02Part.sol\":7973:8812  function swapExactETHForTokensSupportingFeeOnTransferTokens(... */\n    tag_56:\n        /* \"v2_periphery/UniswapV2Router02Part.sol\":8225:8233  deadline */\n      dup1\n        /* \"v2_periphery/UniswapV2Router02Part.sol\":692:707  block.timestamp */\n      timestamp\n        /* \"v2_periphery/UniswapV2Router02Part.sol\":680:688  deadline */\n      dup2\n        /* \"v2_periphery/UniswapV2Router02Part.sol\":680:707  deadline >= block.timestamp */\n      lt\n      iszero\n        /* \"v2_periphery/UniswapV2Router02Part.sol\":672:736  require(deadline >= block.timestamp, 'UniswapV2Router: EXPIRED') */\n      tag_317\n      jumpi\n      mload(0x40)\n      0x08c379a000000000000000000000000000000000000000000000000000000000\n      dup2\n      mstore\n      0x04\n      add\n      tag_318\n      swap1\n      tag_68\n      jump\t// in\n    tag_318:\n      mload(0x40)\n      dup1\n      swap2\n      sub\n      swap1\n      revert\n    tag_317:\n        /* \"v2_periphery/UniswapV2Router02Part.sol\":8270:8274  WETH */\n      0x01\n      0x00\n      swap1\n      sload\n      swap1\n      0x0100\n      exp\n      swap1\n      div\n      0xffffffffffffffffffffffffffffffffffffffff\n      and\n        /* \"v2_periphery/UniswapV2Router02Part.sol\":8259:8274  path[0] == WETH */\n      0xffffffffffffffffffffffffffffffffffffffff\n      and\n        /* \"v2_periphery/UniswapV2Router02Part.sol\":8259:8263  path */\n      dup6\n      dup6\n        /* \"v2_periphery/UniswapV2Router02Part.sol\":8264:8265  0 */\n      0x00\n        /* \"v2_periphery/UniswapV2Router02Part.sol\":8259:8266  path[0] */\n      dup2\n      dup2\n      lt\n      tag_320\n      jumpi\n      tag_321\n      tag_74\n      jump\t// in\n    tag_321:\n    tag_320:\n      swap1\n      pop\n      0x20\n      mul\n      add\n      0x20\n      dup2\n      add\n      swap1\n      tag_322\n      swap2\n      swap1\n      tag_76\n      jump\t// in\n    tag_322:\n        /* \"v2_periphery/UniswapV2Router02Part.sol\":8259:8274  path[0] == WETH */\n      0xffffffffffffffffffffffffffffffffffffffff\n      and\n      eq\n        /* \"v2_periphery/UniswapV2Router02Part.sol\":8251:8308  require(path[0] == WETH, 'UniswapV2Router: INVALID_PATH') */\n      tag_323\n      jumpi\n      mload(0x40)\n      0x08c379a000000000000000000000000000000000000000000000000000000000\n      dup2\n      mstore\n      0x04\n      add\n      tag_324\n      swap1\n      tag_79\n      jump\t// in\n    tag_324:\n      mload(0x40)\n      dup1\n      swap2\n      sub\n      swap1\n      revert\n    tag_323:\n        /* \"v2_periphery/UniswapV2Router02Part.sol\":8319:8332  uint amountIn */\n      0x00\n        /* \"v2_periphery/UniswapV2Router02Part.sol\":8335:8344  msg.value */\n      callvalue\n        /* \"v2_periphery/UniswapV2Router02Part.sol\":8319:8344  uint amountIn = msg.value */\n      swap1\n      pop\n        /* \"v2_periphery/UniswapV2Router02Part.sol\":8361:8365  WETH */\n      0x01\n      0x00\n      swap1\n      sload\n      swap1\n      0x0100\n      exp\n      swap1\n      div\n      0xffffffffffffffffffffffffffffffffffffffff\n      and\n        /* \"v2_periphery/UniswapV2Router02Part.sol\":8355:8374  IWETH(WETH).deposit */\n      0xffffffffffffffffffffffffffffffffffffffff\n      and\n      0xd0e30db0\n        /* \"v2_periphery/UniswapV2Router02Part.sol\":8382:8390  amountIn */\n      dup3\n        /* \"v2_periphery/UniswapV2Router02Part.sol\":8355:8393  IWETH(WETH).deposit{value: amountIn}() */\n      mload(0x40)\n      dup3\n      0xffffffff\n      and\n      0xe0\n      shl\n      dup2\n      mstore\n      0x04\n      add\n      0x00\n      mload(0x40)\n      dup1\n      dup4\n      sub\n      dup2\n      dup6\n      dup9\n      dup1\n      extcodesize\n      iszero\n      dup1\n      iszero\n      tag_325\n      jumpi\n      0x00\n      dup1\n      revert\n    tag_325:\n      pop\n      gas\n      call\n      iszero\n      dup1\n      iszero\n      tag_327\n      jumpi\n      returndatasize\n      0x00\n      dup1\n      returndatacopy\n      revert(0x00, returndatasize)\n    tag_327:\n      pop\n      pop\n      pop\n      pop\n      pop\n        /* \"v2_periphery/UniswapV2Router02Part.sol\":8417:8421  WETH */\n      0x01\n      0x00\n      swap1\n      sload\n      swap1\n      0x0100\n      exp\n      swap1\n      div\n      0xffffffffffffffffffffffffffffffffffffffff\n      and\n        /* \"v2_periphery/UniswapV2Router02Part.sol\":8411:8431  IWETH(WETH).transfer */\n      0xffffffffffffffffffffffffffffffffffffffff\n      and\n      0xa9059cbb\n        /* \"v2_periphery/UniswapV2Router02Part.sol\":8432:8483  UniswapV2Library.pairFor(factory, path[0], path[1]) */\n      tag_328\n        /* \"v2_periphery/UniswapV2Router02Part.sol\":8457:8464  factory */\n      0x00\n      dup1\n      sload\n      swap1\n      0x0100\n      exp\n      swap1\n      div\n      0xffffffffffffffffffffffffffffffffffffffff\n      and\n        /* \"v2_periphery/UniswapV2Router02Part.sol\":8466:8470  path */\n      dup10\n      dup10\n        /* \"v2_periphery/UniswapV2Router02Part.sol\":8471:8472  0 */\n      0x00\n        /* \"v2_periphery/UniswapV2Router02Part.sol\":8466:8473  path[0] */\n      dup2\n      dup2\n      lt\n      tag_329\n      jumpi\n      tag_330\n      tag_74\n      jump\t// in\n    tag_330:\n    tag_329:\n      swap1\n      pop\n      0x20\n      mul\n      add\n      0x20\n      dup2\n      add\n      swap1\n      tag_331\n      swap2\n      swap1\n      tag_76\n      jump\t// in\n    tag_331:\n        /* \"v2_periphery/UniswapV2Router02Part.sol\":8475:8479  path */\n      dup11\n      dup11\n        /* \"v2_periphery/UniswapV2Router02Part.sol\":8480:8481  1 */\n      0x01\n        /* \"v2_periphery/UniswapV2Router02Part.sol\":8475:8482  path[1] */\n      dup2\n      dup2\n      lt\n      tag_332\n      jumpi\n      tag_333\n      tag_74\n      jump\t// in\n    tag_333:\n    tag_332:\n      swap1\n      pop\n      0x20\n      mul\n      add\n      0x20\n      dup2\n      add\n      swap1\n      tag_334\n      swap2\n      swap1\n      tag_76\n      jump\t// in\n    tag_334:\n        /* \"v2_periphery/UniswapV2Router02Part.sol\":8432:8456  UniswapV2Library.pairFor */\n      tag_99\n        /* \"v2_periphery/UniswapV2Router02Part.sol\":8432:8483  UniswapV2Library.pairFor(factory, path[0], path[1]) */\n      jump\t// in\n    tag_328:\n        /* \"v2_periphery/UniswapV2Router02Part.sol\":8485:8493  amountIn */\n      dup4\n        /* \"v2_periphery/UniswapV2Router02Part.sol\":8411:8494  IWETH(WETH).transfer(UniswapV2Library.pairFor(factory, path[0], path[1]), amountIn) */\n      mload(0x40)\n      dup4\n      0xffffffff\n      and\n      0xe0\n      shl\n      dup2\n      mstore\n      0x04\n      add\n      tag_335\n      swap3\n      swap2\n      swap1\n      tag_284\n      jump\t// in\n    tag_335:\n      0x20\n      mload(0x40)\n      dup1\n      dup4\n      sub\n      dup2\n      0x00\n      dup8\n      gas\n      call\n      iszero\n      dup1\n      iszero\n      tag_337\n      jumpi\n      returndatasize\n      0x00\n      dup1\n      returndatacopy\n      revert(0x00, returndatasize)\n    tag_337:\n      pop\n      pop\n      pop\n      pop\n      mload(0x40)\n      returndatasize\n      not(0x1f)\n      0x1f\n      dup3\n      add\n      and\n      dup3\n      add\n      dup1\n      0x40\n      mstore\n      pop\n      dup2\n      add\n      swap1\n      tag_338\n      swap2\n      swap1\n      tag_288\n      jump\t// in\n    tag_338:\n        /* \"v2_periphery/UniswapV2Router02Part.sol\":8404:8495  assert(IWETH(WETH).transfer(UniswapV2Library.pairFor(factory, path[0], path[1]), amountIn)) */\n      tag_339\n      jumpi\n      tag_340\n      tag_291\n      jump\t// in\n    tag_340:\n    tag_339:\n        /* \"v2_periphery/UniswapV2Router02Part.sol\":8506:8524  uint balanceBefore */\n      0x00\n        /* \"v2_periphery/UniswapV2Router02Part.sol\":8534:8538  path */\n      dup7\n      dup7\n        /* \"v2_periphery/UniswapV2Router02Part.sol\":8553:8554  1 */\n      0x01\n        /* \"v2_periphery/UniswapV2Router02Part.sol\":8539:8543  path */\n      dup10\n      dup10\n        /* \"v2_periphery/UniswapV2Router02Part.sol\":8539:8550  path.length */\n      swap1\n      pop\n        /* \"v2_periphery/UniswapV2Router02Part.sol\":8539:8554  path.length - 1 */\n      tag_341\n      swap2\n      swap1\n      tag_71\n      jump\t// in\n    tag_341:\n        /* \"v2_periphery/UniswapV2Router02Part.sol\":8534:8555  path[path.length - 1] */\n      dup2\n      dup2\n      lt\n      tag_342\n      jumpi\n      tag_343\n      tag_74\n      jump\t// in\n    tag_343:\n    tag_342:\n      swap1\n      pop\n      0x20\n      mul\n      add\n      0x20\n      dup2\n      add\n      swap1\n      tag_344\n      swap2\n      swap1\n      tag_76\n      jump\t// in\n    tag_344:\n        /* \"v2_periphery/UniswapV2Router02Part.sol\":8527:8566  IERC20(path[path.length - 1]).balanceOf */\n      0xffffffffffffffffffffffffffffffffffffffff\n      and\n      0x70a08231\n        /* \"v2_periphery/UniswapV2Router02Part.sol\":8567:8569  to */\n      dup7\n        /* \"v2_periphery/UniswapV2Router02Part.sol\":8527:8570  IERC20(path[path.length - 1]).balanceOf(to) */\n      mload(0x40)\n      dup3\n      0xffffffff\n      and\n      0xe0\n      shl\n      dup2\n      mstore\n      0x04\n      add\n      tag_345\n      swap2\n      swap1\n      tag_53\n      jump\t// in\n    tag_345:\n      0x20\n      mload(0x40)\n      dup1\n      dup4\n      sub\n      dup2\n      dup7\n      gas\n      staticcall\n      iszero\n      dup1\n      iszero\n      tag_347\n      jumpi\n      returndatasize\n      0x00\n      dup1\n      returndatacopy\n      revert(0x00, returndatasize)\n    tag_347:\n      pop\n      pop\n      pop\n      pop\n      mload(0x40)\n      returndatasize\n      not(0x1f)\n      0x1f\n      dup3\n      add\n      and\n      dup3\n      add\n      dup1\n      0x40\n      mstore\n      pop\n      dup2\n      add\n      swap1\n      tag_348\n      swap2\n      swap1\n      tag_207\n      jump\t// in\n    tag_348:\n        /* \"v2_periphery/UniswapV2Router02Part.sol\":8506:8570  uint balanceBefore = IERC20(path[path.length - 1]).balanceOf(to) */\n      swap1\n      pop\n        /* \"v2_periphery/UniswapV2Router02Part.sol\":8581:8625  _swapSupportingFeeOnTransferTokens(path, to) */\n      tag_349\n        /* \"v2_periphery/UniswapV2Router02Part.sol\":8616:8620  path */\n      dup8\n      dup8\n        /* \"v2_periphery/UniswapV2Router02Part.sol\":8581:8625  _swapSupportingFeeOnTransferTokens(path, to) */\n      dup1\n      dup1\n      0x20\n      mul\n      0x20\n      add\n      mload(0x40)\n      swap1\n      dup2\n      add\n      0x40\n      mstore\n      dup1\n      swap4\n      swap3\n      swap2\n      swap1\n      dup2\n      dup2\n      mstore\n      0x20\n      add\n      dup4\n      dup4\n      0x20\n      mul\n      dup1\n      dup3\n      dup5\n      calldatacopy\n      0x00\n      dup2\n      dup5\n      add\n      mstore\n      not(0x1f)\n      0x1f\n      dup3\n      add\n      and\n      swap1\n      pop\n      dup1\n      dup4\n      add\n      swap3\n      pop\n      pop\n      pop\n      pop\n      pop\n      pop\n      pop\n        /* \"v2_periphery/UniswapV2Router02Part.sol\":8622:8624  to */\n      dup7\n        /* \"v2_periphery/UniswapV2Router02Part.sol\":8581:8615  _swapSupportingFeeOnTransferTokens */\n      tag_209\n        /* \"v2_periphery/UniswapV2Router02Part.sol\":8581:8625  _swapSupportingFeeOnTransferTokens(path, to) */\n      jump\t// in\n    tag_349:\n        /* \"v2_periphery/UniswapV2Router02Part.sol\":8721:8733  amountOutMin */\n      dup8\n        /* \"v2_periphery/UniswapV2Router02Part.sol\":8704:8717  balanceBefore */\n      dup2\n        /* \"v2_periphery/UniswapV2Router02Part.sol\":8665:8669  path */\n      dup9\n      dup9\n        /* \"v2_periphery/UniswapV2Router02Part.sol\":8684:8685  1 */\n      0x01\n        /* \"v2_periphery/UniswapV2Router02Part.sol\":8670:8674  path */\n      dup12\n      dup12\n        /* \"v2_periphery/UniswapV2Router02Part.sol\":8670:8681  path.length */\n      swap1\n      pop\n        /* \"v2_periphery/UniswapV2Router02Part.sol\":8670:8685  path.length - 1 */\n      tag_350\n      swap2\n      swap1\n      tag_71\n      jump\t// in\n    tag_350:\n        /* \"v2_periphery/UniswapV2Router02Part.sol\":8665:8686  path[path.length - 1] */\n      dup2\n      dup2\n      lt\n      tag_351\n      jumpi\n      tag_352\n      tag_74\n      jump\t// in\n    tag_352:\n    tag_351:\n      swap1\n      pop\n      0x20\n      mul\n      add\n      0x20\n      dup2\n      add\n      swap1\n      tag_353\n      swap2\n      swap1\n      tag_76\n      jump\t// in\n    tag_353:\n        /* \"v2_periphery/UniswapV2Router02Part.sol\":8658:8697  IERC20(path[path.length - 1]).balanceOf */\n      0xffffffffffffffffffffffffffffffffffffffff\n      and\n      0x70a08231\n        /* \"v2_periphery/UniswapV2Router02Part.sol\":8698:8700  to */\n      dup9\n        /* \"v2_periphery/UniswapV2Router02Part.sol\":8658:8701  IERC20(path[path.length - 1]).balanceOf(to) */\n      mload(0x40)\n      dup3\n      0xffffffff\n      and\n      0xe0\n      shl\n      dup2\n      mstore\n      0x04\n      add\n      tag_354\n      swap2\n      swap1\n      tag_53\n      jump\t// in\n    tag_354:\n      0x20\n      mload(0x40)\n      dup1\n      dup4\n      sub\n      dup2\n      dup7\n      gas\n      staticcall\n      iszero\n      dup1\n      iszero\n      tag_356\n      jumpi\n      returndatasize\n      0x00\n      dup1\n      returndatacopy\n      revert(0x00, returndatasize)\n    tag_356:\n      pop\n      pop\n      pop\n      pop\n      mload(0x40)\n      returndatasize\n      not(0x1f)\n      0x1f\n      dup3\n      add\n      and\n      dup3\n      add\n      dup1\n      0x40\n      mstore\n      pop\n      dup2\n      add\n      swap1\n      tag_357\n      swap2\n      swap1\n      tag_207\n      jump\t// in\n    tag_357:\n        /* \"v2_periphery/UniswapV2Router02Part.sol\":8658:8717  IERC20(path[path.length - 1]).balanceOf(to) - balanceBefore */\n      tag_358\n      swap2\n      swap1\n      tag_71\n      jump\t// in\n    tag_358:\n        /* \"v2_periphery/UniswapV2Router02Part.sol\":8658:8733  IERC20(path[path.length - 1]).balanceOf(to) - balanceBefore >= amountOutMin */\n      lt\n      iszero\n        /* \"v2_periphery/UniswapV2Router02Part.sol\":8636:8804  require(... */\n      tag_359\n      jumpi\n      mload(0x40)\n      0x08c379a000000000000000000000000000000000000000000000000000000000\n      dup2\n      mstore\n      0x04\n      add\n      tag_360\n      swap1\n      tag_87\n      jump\t// in\n    tag_360:\n      mload(0x40)\n      dup1\n      swap2\n      sub\n      swap1\n      revert\n    tag_359:\n        /* \"v2_periphery/UniswapV2Router02Part.sol\":8240:8812  {... */\n      pop\n      pop\n        /* \"v2_periphery/UniswapV2Router02Part.sol\":7973:8812  function swapExactETHForTokensSupportingFeeOnTransferTokens(... */\n      pop\n      pop\n      pop\n      pop\n      pop\n      pop\n      jump\t// out\n        /* \"v2_periphery/UniswapV2Router02Part.sol\":462:485  address public  factory */\n    tag_59:\n      0x00\n      dup1\n      sload\n      swap1\n      0x0100\n      exp\n      swap1\n      div\n      0xffffffffffffffffffffffffffffffffffffffff\n      and\n      dup2\n      jump\t// out\n        /* \"v2_periphery/UniswapV2Router02Part.sol\":5138:5950  function swapETHForExactTokens(uint amountOut, address[] calldata path, address to, uint deadline)... */\n    tag_63:\n        /* \"v2_periphery/UniswapV2Router02Part.sol\":5353:5374  uint[] memory amounts */\n      0x60\n        /* \"v2_periphery/UniswapV2Router02Part.sol\":5325:5333  deadline */\n      dup2\n        /* \"v2_periphery/UniswapV2Router02Part.sol\":692:707  block.timestamp */\n      timestamp\n        /* \"v2_periphery/UniswapV2Router02Part.sol\":680:688  deadline */\n      dup2\n        /* \"v2_periphery/UniswapV2Router02Part.sol\":680:707  deadline >= block.timestamp */\n      lt\n      iszero\n        /* \"v2_periphery/UniswapV2Router02Part.sol\":672:736  require(deadline >= block.timestamp, 'UniswapV2Router: EXPIRED') */\n      tag_362\n      jumpi\n      mload(0x40)\n      0x08c379a000000000000000000000000000000000000000000000000000000000\n      dup2\n      mstore\n      0x04\n      add\n      tag_363\n      swap1\n      tag_68\n      jump\t// in\n    tag_363:\n      mload(0x40)\n      dup1\n      swap2\n      sub\n      swap1\n      revert\n    tag_362:\n        /* \"v2_periphery/UniswapV2Router02Part.sol\":5411:5415  WETH */\n      0x01\n      0x00\n      swap1\n      sload\n      swap1\n      0x0100\n      exp\n      swap1\n      div\n      0xffffffffffffffffffffffffffffffffffffffff\n      and\n        /* \"v2_periphery/UniswapV2Router02Part.sol\":5400:5415  path[0] == WETH */\n      0xffffffffffffffffffffffffffffffffffffffff\n      and\n        /* \"v2_periphery/UniswapV2Router02Part.sol\":5400:5404  path */\n      dup7\n      dup7\n        /* \"v2_periphery/UniswapV2Router02Part.sol\":5405:5406  0 */\n      0x00\n        /* \"v2_periphery/UniswapV2Router02Part.sol\":5400:5407  path[0] */\n      dup2\n      dup2\n      lt\n      tag_365\n      jumpi\n      tag_366\n      tag_74\n      jump\t// in\n    tag_366:\n    tag_365:\n      swap1\n      pop\n      0x20\n      mul\n      add\n      0x20\n      dup2\n      add\n      swap1\n      tag_367\n      swap2\n      swap1\n      tag_76\n      jump\t// in\n    tag_367:\n        /* \"v2_periphery/UniswapV2Router02Part.sol\":5400:5415  path[0] == WETH */\n      0xffffffffffffffffffffffffffffffffffffffff\n      and\n      eq\n        /* \"v2_periphery/UniswapV2Router02Part.sol\":5392:5449  require(path[0] == WETH, 'UniswapV2Router: INVALID_PATH') */\n      tag_368\n      jumpi\n      mload(0x40)\n      0x08c379a000000000000000000000000000000000000000000000000000000000\n      dup2\n      mstore\n      0x04\n      add\n      tag_369\n      swap1\n      tag_79\n      jump\t// in\n    tag_369:\n      mload(0x40)\n      dup1\n      swap2\n      sub\n      swap1\n      revert\n    tag_368:\n        /* \"v2_periphery/UniswapV2Router02Part.sol\":5470:5525  UniswapV2Library.getAmountsIn(factory, amountOut, path) */\n      tag_370\n        /* \"v2_periphery/UniswapV2Router02Part.sol\":5500:5507  factory */\n      0x00\n      dup1\n      sload\n      swap1\n      0x0100\n      exp\n      swap1\n      div\n      0xffffffffffffffffffffffffffffffffffffffff\n      and\n        /* \"v2_periphery/UniswapV2Router02Part.sol\":5509:5518  amountOut */\n      dup9\n        /* \"v2_periphery/UniswapV2Router02Part.sol\":5520:5524  path */\n      dup9\n      dup9\n        /* \"v2_periphery/UniswapV2Router02Part.sol\":5470:5525  UniswapV2Library.getAmountsIn(factory, amountOut, path) */\n      dup1\n      dup1\n      0x20\n      mul\n      0x20\n      add\n      mload(0x40)\n      swap1\n      dup2\n      add\n      0x40\n      mstore\n      dup1\n      swap4\n      swap3\n      swap2\n      swap1\n      dup2\n      dup2\n      mstore\n      0x20\n      add\n      dup4\n      dup4\n      0x20\n      mul\n      dup1\n      dup3\n      dup5\n      calldatacopy\n      0x00\n      dup2\n      dup5\n      add\n      mstore\n      not(0x1f)\n      0x1f\n      dup3\n      add\n      and\n      swap1\n      pop\n      dup1\n      dup4\n      add\n      swap3\n      pop\n      pop\n      pop\n      pop\n      pop\n      pop\n      pop\n        /* \"v2_periphery/UniswapV2Router02Part.sol\":5470:5499  UniswapV2Library.getAmountsIn */\n      tag_153\n        /* \"v2_periphery/UniswapV2Router02Part.sol\":5470:5525  UniswapV2Library.getAmountsIn(factory, amountOut, path) */\n      jump\t// in\n    tag_370:\n        /* \"v2_periphery/UniswapV2Router02Part.sol\":5460:5525  amounts = UniswapV2Library.getAmountsIn(factory, amountOut, path) */\n      swap2\n      pop\n        /* \"v2_periphery/UniswapV2Router02Part.sol\":5558:5567  msg.value */\n      callvalue\n        /* \"v2_periphery/UniswapV2Router02Part.sol\":5544:5551  amounts */\n      dup3\n        /* \"v2_periphery/UniswapV2Router02Part.sol\":5552:5553  0 */\n      0x00\n        /* \"v2_periphery/UniswapV2Router02Part.sol\":5544:5554  amounts[0] */\n      dup2\n      mload\n      dup2\n      lt\n      tag_371\n      jumpi\n      tag_372\n      tag_74\n      jump\t// in\n    tag_372:\n    tag_371:\n      0x20\n      mul\n      0x20\n      add\n      add\n      mload\n        /* \"v2_periphery/UniswapV2Router02Part.sol\":5544:5567  amounts[0] <= msg.value */\n      gt\n      iszero\n        /* \"v2_periphery/UniswapV2Router02Part.sol\":5536:5611  require(amounts[0] <= msg.value, 'UniswapV2Router: EXCESSIVE_INPUT_AMOUNT') */\n      tag_373\n      jumpi\n      mload(0x40)\n      0x08c379a000000000000000000000000000000000000000000000000000000000\n      dup2\n      mstore\n      0x04\n      add\n      tag_374\n      swap1\n      tag_158\n      jump\t// in\n    tag_374:\n      mload(0x40)\n      dup1\n      swap2\n      sub\n      swap1\n      revert\n    tag_373:\n        /* \"v2_periphery/UniswapV2Router02Part.sol\":5628:5632  WETH */\n      0x01\n      0x00\n      swap1\n      sload\n      swap1\n      0x0100\n      exp\n      swap1\n      div\n      0xffffffffffffffffffffffffffffffffffffffff\n      and\n        /* \"v2_periphery/UniswapV2Router02Part.sol\":5622:5641  IWETH(WETH).deposit */\n      0xffffffffffffffffffffffffffffffffffffffff\n      and\n      0xd0e30db0\n        /* \"v2_periphery/UniswapV2Router02Part.sol\":5649:5656  amounts */\n      dup4\n        /* \"v2_periphery/UniswapV2Router02Part.sol\":5657:5658  0 */\n      0x00\n        /* \"v2_periphery/UniswapV2Router02Part.sol\":5649:5659  amounts[0] */\n      dup2\n      mload\n      dup2\n      lt\n      tag_375\n      jumpi\n      tag_376\n      tag_74\n      jump\t// in\n    tag_376:\n    tag_375:\n      0x20\n      mul\n      0x20\n      add\n      add\n      mload\n        /* \"v2_periphery/UniswapV2Router02Part.sol\":5622:5662  IWETH(WETH).deposit{value: amounts[0]}() */\n      mload(0x40)\n      dup3\n      0xffffffff\n      and\n      0xe0\n      shl\n      dup2\n      mstore\n      0x04\n      add\n      0x00\n      mload(0x40)\n      dup1\n      dup4\n      sub\n      dup2\n      dup6\n      dup9\n      dup1\n      extcodesize\n      iszero\n      dup1\n      iszero\n      tag_377\n      jumpi\n      0x00\n      dup1\n      revert\n    tag_377:\n      pop\n      gas\n      call\n      iszero\n      dup1\n      iszero\n      tag_379\n      jumpi\n      returndatasize\n      0x00\n      dup1\n      returndatacopy\n      revert(0x00, returndatasize)\n    tag_379:\n      pop\n      pop\n      pop\n      pop\n      pop\n        /* \"v2_periphery/UniswapV2Router02Part.sol\":5686:5690  WETH */\n      0x01\n      0x00\n      swap1\n      sload\n      swap1\n      0x0100\n      exp\n      swap1\n      div\n      0xffffffffffffffffffffffffffffffffffffffff\n      and\n        /* \"v2_periphery/UniswapV2Router02Part.sol\":5680:5700  IWETH(WETH).transfer */\n      0xffffffffffffffffffffffffffffffffffffffff\n      and\n      0xa9059cbb\n        /* \"v2_periphery/UniswapV2Router02Part.sol\":5701:5752  UniswapV2Library.pairFor(factory, path[0], path[1]) */\n      tag_380\n        /* \"v2_periphery/UniswapV2Router02Part.sol\":5726:5733  factory */\n      0x00\n      dup1\n      sload\n      swap1\n      0x0100\n      exp\n      swap1\n      div\n      0xffffffffffffffffffffffffffffffffffffffff\n      and\n        /* \"v2_periphery/UniswapV2Router02Part.sol\":5735:5739  path */\n      dup10\n      dup10\n        /* \"v2_periphery/UniswapV2Router02Part.sol\":5740:5741  0 */\n      0x00\n        /* \"v2_periphery/UniswapV2Router02Part.sol\":5735:5742  path[0] */\n      dup2\n      dup2\n      lt\n      tag_381\n      jumpi\n      tag_382\n      tag_74\n      jump\t// in\n    tag_382:\n    tag_381:\n      swap1\n      pop\n      0x20\n      mul\n      add\n      0x20\n      dup2\n      add\n      swap1\n      tag_383\n      swap2\n      swap1\n      tag_76\n      jump\t// in\n    tag_383:\n        /* \"v2_periphery/UniswapV2Router02Part.sol\":5744:5748  path */\n      dup11\n      dup11\n        /* \"v2_periphery/UniswapV2Router02Part.sol\":5749:5750  1 */\n      0x01\n        /* \"v2_periphery/UniswapV2Router02Part.sol\":5744:5751  path[1] */\n      dup2\n      dup2\n      lt\n      tag_384\n      jumpi\n      tag_385\n      tag_74\n      jump\t// in\n    tag_385:\n    tag_384:\n      swap1\n      pop\n      0x20\n      mul\n      add\n      0x20\n      dup2\n      add\n      swap1\n      tag_386\n      swap2\n      swap1\n      tag_76\n      jump\t// in\n    tag_386:\n        /* \"v2_periphery/UniswapV2Router02Part.sol\":5701:5725  UniswapV2Library.pairFor */\n      tag_99\n        /* \"v2_periphery/UniswapV2Router02Part.sol\":5701:5752  UniswapV2Library.pairFor(factory, path[0], path[1]) */\n      jump\t// in\n    tag_380:\n        /* \"v2_periphery/UniswapV2Router02Part.sol\":5754:5761  amounts */\n      dup5\n        /* \"v2_periphery/UniswapV2Router02Part.sol\":5762:5763  0 */\n      0x00\n        /* \"v2_periphery/UniswapV2Router02Part.sol\":5754:5764  amounts[0] */\n      dup2\n      mload\n      dup2\n      lt\n      tag_387\n      jumpi\n      tag_388\n      tag_74\n      jump\t// in\n    tag_388:\n    tag_387:\n      0x20\n      mul\n      0x20\n      add\n      add\n      mload\n        /* \"v2_periphery/UniswapV2Router02Part.sol\":5680:5765  IWETH(WETH).transfer(UniswapV2Library.pairFor(factory, path[0], path[1]), amounts[0]) */\n      mload(0x40)\n      dup4\n      0xffffffff\n      and\n      0xe0\n      shl\n      dup2\n      mstore\n      0x04\n      add\n      tag_389\n      swap3\n      swap2\n      swap1\n      tag_284\n      jump\t// in\n    tag_389:\n      0x20\n      mload(0x40)\n      dup1\n      dup4\n      sub\n      dup2\n      0x00\n      dup8\n      gas\n      call\n      iszero\n      dup1\n      iszero\n      tag_391\n      jumpi\n      returndatasize\n      0x00\n      dup1\n      returndatacopy\n      revert(0x00, returndatasize)\n    tag_391:\n      pop\n      pop\n      pop\n      pop\n      mload(0x40)\n      returndatasize\n      not(0x1f)\n      0x1f\n      dup3\n      add\n      and\n      dup3\n      add\n      dup1\n      0x40\n      mstore\n      pop\n      dup2\n      add\n      swap1\n      tag_392\n      swap2\n      swap1\n      tag_288\n      jump\t// in\n    tag_392:\n        /* \"v2_periphery/UniswapV2Router02Part.sol\":5673:5766  assert(IWETH(WETH).transfer(UniswapV2Library.pairFor(factory, path[0], path[1]), amounts[0])) */\n      tag_393\n      jumpi\n      tag_394\n      tag_291\n      jump\t// in\n    tag_394:\n    tag_393:\n        /* \"v2_periphery/UniswapV2Router02Part.sol\":5777:5801  _swap(amounts, path, to) */\n      tag_395\n        /* \"v2_periphery/UniswapV2Router02Part.sol\":5783:5790  amounts */\n      dup3\n        /* \"v2_periphery/UniswapV2Router02Part.sol\":5792:5796  path */\n      dup8\n      dup8\n        /* \"v2_periphery/UniswapV2Router02Part.sol\":5777:5801  _swap(amounts, path, to) */\n      dup1\n      dup1\n      0x20\n      mul\n      0x20\n      add\n      mload(0x40)\n      swap1\n      dup2\n      add\n      0x40\n      mstore\n      dup1\n      swap4\n      swap3\n      swap2\n      swap1\n      dup2\n      dup2\n      mstore\n      0x20\n      add\n      dup4\n      dup4\n      0x20\n      mul\n      dup1\n      dup3\n      dup5\n      calldatacopy\n      0x00\n      dup2\n      dup5\n      add\n      mstore\n      not(0x1f)\n      0x1f\n      dup3\n      add\n      and\n      swap1\n      pop\n      dup1\n      dup4\n      add\n      swap3\n      pop\n      pop\n      pop\n      pop\n      pop\n      pop\n      pop\n        /* \"v2_periphery/UniswapV2Router02Part.sol\":5798:5800  to */\n      dup7\n        /* \"v2_periphery/UniswapV2Router02Part.sol\":5777:5782  _swap */\n      tag_104\n        /* \"v2_periphery/UniswapV2Router02Part.sol\":5777:5801  _swap(amounts, path, to) */\n      jump\t// in\n    tag_395:\n        /* \"v2_periphery/UniswapV2Router02Part.sol\":5864:5871  amounts */\n      dup2\n        /* \"v2_periphery/UniswapV2Router02Part.sol\":5872:5873  0 */\n      0x00\n        /* \"v2_periphery/UniswapV2Router02Part.sol\":5864:5874  amounts[0] */\n      dup2\n      mload\n      dup2\n      lt\n      tag_396\n      jumpi\n      tag_397\n      tag_74\n      jump\t// in\n    tag_397:\n    tag_396:\n      0x20\n      mul\n      0x20\n      add\n      add\n      mload\n        /* \"v2_periphery/UniswapV2Router02Part.sol\":5852:5861  msg.value */\n      callvalue\n        /* \"v2_periphery/UniswapV2Router02Part.sol\":5852:5874  msg.value > amounts[0] */\n      gt\n        /* \"v2_periphery/UniswapV2Router02Part.sol\":5848:5942  if (msg.value > amounts[0]) TransferHelper.safeTransferETH(msg.sender, msg.value - amounts[0]) */\n      iszero\n      tag_398\n      jumpi\n        /* \"v2_periphery/UniswapV2Router02Part.sol\":5876:5942  TransferHelper.safeTransferETH(msg.sender, msg.value - amounts[0]) */\n      tag_399\n        /* \"v2_periphery/UniswapV2Router02Part.sol\":5907:5917  msg.sender */\n      caller\n        /* \"v2_periphery/UniswapV2Router02Part.sol\":5931:5938  amounts */\n      dup4\n        /* \"v2_periphery/UniswapV2Router02Part.sol\":5939:5940  0 */\n      0x00\n        /* \"v2_periphery/UniswapV2Router02Part.sol\":5931:5941  amounts[0] */\n      dup2\n      mload\n      dup2\n      lt\n      tag_400\n      jumpi\n      tag_401\n      tag_74\n      jump\t// in\n    tag_401:\n    tag_400:\n      0x20\n      mul\n      0x20\n      add\n      add\n      mload\n        /* \"v2_periphery/UniswapV2Router02Part.sol\":5919:5928  msg.value */\n      callvalue\n        /* \"v2_periphery/UniswapV2Router02Part.sol\":5919:5941  msg.value - amounts[0] */\n      tag_402\n      swap2\n      swap1\n      tag_71\n      jump\t// in\n    tag_402:\n        /* \"v2_periphery/UniswapV2Router02Part.sol\":5876:5906  TransferHelper.safeTransferETH */\n      tag_117\n        /* \"v2_periphery/UniswapV2Router02Part.sol\":5876:5942  TransferHelper.safeTransferETH(msg.sender, msg.value - amounts[0]) */\n      jump\t// in\n    tag_399:\n        /* \"v2_periphery/UniswapV2Router02Part.sol\":5848:5942  if (msg.value > amounts[0]) TransferHelper.safeTransferETH(msg.sender, msg.value - amounts[0]) */\n    tag_398:\n        /* \"v2_periphery/UniswapV2Router02Part.sol\":5138:5950  function swapETHForExactTokens(uint amountOut, address[] calldata path, address to, uint deadline)... */\n      pop\n      swap6\n      swap5\n      pop\n      pop\n      pop\n      pop\n      pop\n      jump\t// out\n        /* \"v2_periphery/libraries/UniswapV2Library.sol\":3416:3927  function getAmountsOut(address factory, uint amountIn, address[] memory path) internal view returns (uint[] memory amounts) {... */\n    tag_81:\n        /* \"v2_periphery/libraries/UniswapV2Library.sol\":3517:3538  uint[] memory amounts */\n      0x60\n        /* \"v2_periphery/libraries/UniswapV2Library.sol\":3574:3575  2 */\n      0x02\n        /* \"v2_periphery/libraries/UniswapV2Library.sol\":3559:3563  path */\n      dup3\n        /* \"v2_periphery/libraries/UniswapV2Library.sol\":3559:3570  path.length */\n      mload\n        /* \"v2_periphery/libraries/UniswapV2Library.sol\":3559:3575  path.length >= 2 */\n      lt\n      iszero\n        /* \"v2_periphery/libraries/UniswapV2Library.sol\":3551:3610  require(path.length >= 2, 'UniswapV2Library: INVALID_PATH') */\n      tag_404\n      jumpi\n      mload(0x40)\n      0x08c379a000000000000000000000000000000000000000000000000000000000\n      dup2\n      mstore\n      0x04\n      add\n      tag_405\n      swap1\n      tag_406\n      jump\t// in\n    tag_405:\n      mload(0x40)\n      dup1\n      swap2\n      sub\n      swap1\n      revert\n    tag_404:\n        /* \"v2_periphery/libraries/UniswapV2Library.sol\":3642:3646  path */\n      dup2\n        /* \"v2_periphery/libraries/UniswapV2Library.sol\":3642:3653  path.length */\n      mload\n        /* \"v2_periphery/libraries/UniswapV2Library.sol\":3631:3654  new uint[](path.length) */\n      0xffffffffffffffff\n      dup2\n      gt\n      iszero\n      tag_407\n      jumpi\n      tag_408\n      tag_409\n      jump\t// in\n    tag_408:\n    tag_407:\n      mload(0x40)\n      swap1\n      dup1\n      dup3\n      mstore\n      dup1\n      0x20\n      mul\n      0x20\n      add\n      dup3\n      add\n      0x40\n      mstore\n      dup1\n      iszero\n      tag_410\n      jumpi\n      dup2\n      0x20\n      add\n      0x20\n      dup3\n      mul\n      dup1\n      calldatasize\n      dup4\n      calldatacopy\n      dup1\n      dup3\n      add\n      swap2\n      pop\n      pop\n      swap1\n      pop\n    tag_410:\n      pop\n        /* \"v2_periphery/libraries/UniswapV2Library.sol\":3621:3654  amounts = new uint[](path.length) */\n      swap1\n      pop\n        /* \"v2_periphery/libraries/UniswapV2Library.sol\":3678:3686  amountIn */\n      dup3\n        /* \"v2_periphery/libraries/UniswapV2Library.sol\":3665:3672  amounts */\n      dup2\n        /* \"v2_periphery/libraries/UniswapV2Library.sol\":3673:3674  0 */\n      0x00\n        /* \"v2_periphery/libraries/UniswapV2Library.sol\":3665:3675  amounts[0] */\n      dup2\n      mload\n      dup2\n      lt\n      tag_411\n      jumpi\n      tag_412\n      tag_74\n      jump\t// in\n    tag_412:\n    tag_411:\n      0x20\n      mul\n      0x20\n      add\n      add\n        /* \"v2_periphery/libraries/UniswapV2Library.sol\":3665:3686  amounts[0] = amountIn */\n      dup2\n      dup2\n      mstore\n      pop\n      pop\n        /* \"v2_periphery/libraries/UniswapV2Library.sol\":3702:3708  uint i */\n      0x00\n        /* \"v2_periphery/libraries/UniswapV2Library.sol\":3697:3920  for (uint i; i < path.length - 1; i++) {... */\n    tag_413:\n        /* \"v2_periphery/libraries/UniswapV2Library.sol\":3728:3729  1 */\n      0x01\n        /* \"v2_periphery/libraries/UniswapV2Library.sol\":3714:3718  path */\n      dup4\n        /* \"v2_periphery/libraries/UniswapV2Library.sol\":3714:3725  path.length */\n      mload\n        /* \"v2_periphery/libraries/UniswapV2Library.sol\":3714:3729  path.length - 1 */\n      tag_416\n      swap2\n      swap1\n      tag_71\n      jump\t// in\n    tag_416:\n        /* \"v2_periphery/libraries/UniswapV2Library.sol\":3710:3711  i */\n      dup2\n        /* \"v2_periphery/libraries/UniswapV2Library.sol\":3710:3729  i < path.length - 1 */\n      lt\n        /* \"v2_periphery/libraries/UniswapV2Library.sol\":3697:3920  for (uint i; i < path.length - 1; i++) {... */\n      iszero\n      tag_414\n      jumpi\n        /* \"v2_periphery/libraries/UniswapV2Library.sol\":3752:3766  uint reserveIn */\n      0x00\n        /* \"v2_periphery/libraries/UniswapV2Library.sol\":3768:3783  uint reserveOut */\n      dup1\n        /* \"v2_periphery/libraries/UniswapV2Library.sol\":3787:3829  getReserves(factory, path[i], path[i + 1]) */\n      tag_417\n        /* \"v2_periphery/libraries/UniswapV2Library.sol\":3799:3806  factory */\n      dup8\n        /* \"v2_periphery/libraries/UniswapV2Library.sol\":3808:3812  path */\n      dup7\n        /* \"v2_periphery/libraries/UniswapV2Library.sol\":3813:3814  i */\n      dup6\n        /* \"v2_periphery/libraries/UniswapV2Library.sol\":3808:3815  path[i] */\n      dup2\n      mload\n      dup2\n      lt\n      tag_418\n      jumpi\n      tag_419\n      tag_74\n      jump\t// in\n    tag_419:\n    tag_418:\n      0x20\n      mul\n      0x20\n      add\n      add\n      mload\n        /* \"v2_periphery/libraries/UniswapV2Library.sol\":3817:3821  path */\n      dup8\n        /* \"v2_periphery/libraries/UniswapV2Library.sol\":3826:3827  1 */\n      0x01\n        /* \"v2_periphery/libraries/UniswapV2Library.sol\":3822:3823  i */\n      dup8\n        /* \"v2_periphery/libraries/UniswapV2Library.sol\":3822:3827  i + 1 */\n      tag_420\n      swap2\n      swap1\n      tag_421\n      jump\t// in\n    tag_420:\n        /* \"v2_periphery/libraries/UniswapV2Library.sol\":3817:3828  path[i + 1] */\n      dup2\n      mload\n      dup2\n      lt\n      tag_422\n      jumpi\n      tag_423\n      tag_74\n      jump\t// in\n    tag_423:\n    tag_422:\n      0x20\n      mul\n      0x20\n      add\n      add\n      mload\n        /* \"v2_periphery/libraries/UniswapV2Library.sol\":3787:3798  getReserves */\n      tag_424\n        /* \"v2_periphery/libraries/UniswapV2Library.sol\":3787:3829  getReserves(factory, path[i], path[i + 1]) */\n      jump\t// in\n    tag_417:\n        /* \"v2_periphery/libraries/UniswapV2Library.sol\":3751:3829  (uint reserveIn, uint reserveOut) = getReserves(factory, path[i], path[i + 1]) */\n      swap2\n      pop\n      swap2\n      pop\n        /* \"v2_periphery/libraries/UniswapV2Library.sol\":3861:3908  getAmountOut(amounts[i], reserveIn, reserveOut) */\n      tag_425\n        /* \"v2_periphery/libraries/UniswapV2Library.sol\":3874:3881  amounts */\n      dup5\n        /* \"v2_periphery/libraries/UniswapV2Library.sol\":3882:3883  i */\n      dup5\n        /* \"v2_periphery/libraries/UniswapV2Library.sol\":3874:3884  amounts[i] */\n      dup2\n      mload\n      dup2\n      lt\n      tag_426\n      jumpi\n      tag_427\n      tag_74\n      jump\t// in\n    tag_427:\n    tag_426:\n      0x20\n      mul\n      0x20\n      add\n      add\n      mload\n        /* \"v2_periphery/libraries/UniswapV2Library.sol\":3886:3895  reserveIn */\n      dup4\n        /* \"v2_periphery/libraries/UniswapV2Library.sol\":3897:3907  reserveOut */\n      dup4\n        /* \"v2_periphery/libraries/UniswapV2Library.sol\":3861:3873  getAmountOut */\n      tag_428\n        /* \"v2_periphery/libraries/UniswapV2Library.sol\":3861:3908  getAmountOut(amounts[i], reserveIn, reserveOut) */\n      jump\t// in\n    tag_425:\n        /* \"v2_periphery/libraries/UniswapV2Library.sol\":3844:3851  amounts */\n      dup5\n        /* \"v2_periphery/libraries/UniswapV2Library.sol\":3856:3857  1 */\n      0x01\n        /* \"v2_periphery/libraries/UniswapV2Library.sol\":3852:3853  i */\n      dup6\n        /* \"v2_periphery/libraries/UniswapV2Library.sol\":3852:3857  i + 1 */\n      tag_429\n      swap2\n      swap1\n      tag_421\n      jump\t// in\n    tag_429:\n        /* \"v2_periphery/libraries/UniswapV2Library.sol\":3844:3858  amounts[i + 1] */\n      dup2\n      mload\n      dup2\n      lt\n      tag_430\n      jumpi\n      tag_431\n      tag_74\n      jump\t// in\n    tag_431:\n    tag_430:\n      0x20\n      mul\n      0x20\n      add\n      add\n        /* \"v2_periphery/libraries/UniswapV2Library.sol\":3844:3908  amounts[i + 1] = getAmountOut(amounts[i], reserveIn, reserveOut) */\n      dup2\n      dup2\n      mstore\n      pop\n      pop\n        /* \"v2_periphery/libraries/UniswapV2Library.sol\":3736:3920  {... */\n      pop\n      pop\n        /* \"v2_periphery/libraries/UniswapV2Library.sol\":3731:3734  i++ */\n      dup1\n      dup1\n      tag_432\n      swap1\n      tag_433\n      jump\t// in\n    tag_432:\n      swap2\n      pop\n      pop\n        /* \"v2_periphery/libraries/UniswapV2Library.sol\":3697:3920  for (uint i; i < path.length - 1; i++) {... */\n      jump(tag_413)\n    tag_414:\n      pop\n        /* \"v2_periphery/libraries/UniswapV2Library.sol\":3416:3927  function getAmountsOut(address factory, uint amountIn, address[] memory path) internal view returns (uint[] memory amounts) {... */\n      swap4\n      swap3\n      pop\n      pop\n      pop\n      jump\t// out\n        /* \"v2_periphery/libraries/UniswapV2Library.sol\":750:1237  function pairFor(address factory, address tokenA, address tokenB) internal pure returns (address pair) {... */\n    tag_99:\n        /* \"v2_periphery/libraries/UniswapV2Library.sol\":839:851  address pair */\n      0x00\n        /* \"v2_periphery/libraries/UniswapV2Library.sol\":865:879  address token0 */\n      dup1\n        /* \"v2_periphery/libraries/UniswapV2Library.sol\":881:895  address token1 */\n      0x00\n        /* \"v2_periphery/libraries/UniswapV2Library.sol\":899:925  sortTokens(tokenA, tokenB) */\n      tag_435\n        /* \"v2_periphery/libraries/UniswapV2Library.sol\":910:916  tokenA */\n      dup6\n        /* \"v2_periphery/libraries/UniswapV2Library.sol\":918:924  tokenB */\n      dup6\n        /* \"v2_periphery/libraries/UniswapV2Library.sol\":899:909  sortTokens */\n      tag_436\n        /* \"v2_periphery/libraries/UniswapV2Library.sol\":899:925  sortTokens(tokenA, tokenB) */\n      jump\t// in\n    tag_435:\n        /* \"v2_periphery/libraries/UniswapV2Library.sol\":864:925  (address token0, address token1) = sortTokens(tokenA, tokenB) */\n      swap2\n      pop\n      swap2\n      pop\n        /* \"v2_periphery/libraries/UniswapV2Library.sol\":1035:1042  factory */\n      dup6\n        /* \"v2_periphery/libraries/UniswapV2Library.sol\":1088:1094  token0 */\n      dup3\n        /* \"v2_periphery/libraries/UniswapV2Library.sol\":1096:1102  token1 */\n      dup3\n        /* \"v2_periphery/libraries/UniswapV2Library.sol\":1071:1103  abi.encodePacked(token0, token1) */\n      add(0x20, mload(0x40))\n      tag_437\n      swap3\n      swap2\n      swap1\n      tag_438\n      jump\t// in\n    tag_437:\n      mload(0x40)\n      0x20\n      dup2\n      dup4\n      sub\n      sub\n      dup2\n      mstore\n      swap1\n      0x40\n      mstore\n        /* \"v2_periphery/libraries/UniswapV2Library.sol\":1061:1104  keccak256(abi.encodePacked(token0, token1)) */\n      dup1\n      mload\n      swap1\n      0x20\n      add\n      keccak256\n        /* \"v2_periphery/libraries/UniswapV2Library.sol\":974:1225  abi.encodePacked(... */\n      add(0x20, mload(0x40))\n      tag_439\n      swap3\n      swap2\n      swap1\n      tag_440\n      jump\t// in\n    tag_439:\n      mload(0x40)\n      0x20\n      dup2\n      dup4\n      sub\n      sub\n      dup2\n      mstore\n      swap1\n      0x40\n      mstore\n        /* \"v2_periphery/libraries/UniswapV2Library.sol\":964:1226  keccak256(abi.encodePacked(... */\n      dup1\n      mload\n      swap1\n      0x20\n      add\n      keccak256\n        /* \"v2_periphery/libraries/UniswapV2Library.sol\":959:1227  uint(keccak256(abi.encodePacked(... */\n      0x00\n      shr\n        /* \"v2_periphery/libraries/UniswapV2Library.sol\":936:1229  pair = address(uint160(uint(keccak256(abi.encodePacked(... */\n      swap3\n      pop\n        /* \"v2_periphery/libraries/UniswapV2Library.sol\":853:1237  {... */\n      pop\n      pop\n        /* \"v2_periphery/libraries/UniswapV2Library.sol\":750:1237  function pairFor(address factory, address tokenA, address tokenB) internal pure returns (address pair) {... */\n      swap4\n      swap3\n      pop\n      pop\n      pop\n      jump\t// out\n        /* \"v2_periphery/libraries/TransferHelper.sol\":1116:1614  function safeTransferFrom(... */\n    tag_102:\n        /* \"v2_periphery/libraries/TransferHelper.sol\":1341:1353  bool success */\n      0x00\n        /* \"v2_periphery/libraries/TransferHelper.sol\":1355:1372  bytes memory data */\n      dup1\n        /* \"v2_periphery/libraries/TransferHelper.sol\":1376:1381  token */\n      dup6\n        /* \"v2_periphery/libraries/TransferHelper.sol\":1376:1386  token.call */\n      0xffffffffffffffffffffffffffffffffffffffff\n      and\n        /* \"v2_periphery/libraries/TransferHelper.sol\":1410:1420  0x23b872dd */\n      0x23b872dd\n        /* \"v2_periphery/libraries/TransferHelper.sol\":1422:1426  from */\n      dup7\n        /* \"v2_periphery/libraries/TransferHelper.sol\":1428:1430  to */\n      dup7\n        /* \"v2_periphery/libraries/TransferHelper.sol\":1432:1437  value */\n      dup7\n        /* \"v2_periphery/libraries/TransferHelper.sol\":1387:1438  abi.encodeWithSelector(0x23b872dd, from, to, value) */\n      add(0x24, mload(0x40))\n      tag_442\n      swap4\n      swap3\n      swap2\n      swap1\n      tag_443\n      jump\t// in\n    tag_442:\n      mload(0x40)\n      0x20\n      dup2\n      dup4\n      sub\n      sub\n      dup2\n      mstore\n      swap1\n      0x40\n      mstore\n      swap1\n      0xe0\n      shl\n      0x20\n      dup3\n      add\n      dup1\n      mload\n      0xffffffffffffffffffffffffffffffffffffffffffffffffffffffff\n      dup4\n      dup2\n      dup4\n      and\n      or\n      dup4\n      mstore\n      pop\n      pop\n      pop\n      pop\n        /* \"v2_periphery/libraries/TransferHelper.sol\":1376:1439  token.call(abi.encodeWithSelector(0x23b872dd, from, to, value)) */\n      mload(0x40)\n      tag_444\n      swap2\n      swap1\n      tag_445\n      jump\t// in\n    tag_444:\n      0x00\n      mload(0x40)\n      dup1\n      dup4\n      sub\n      dup2\n      0x00\n      dup7\n      gas\n      call\n      swap2\n      pop\n      pop\n      returndatasize\n      dup1\n      0x00\n      dup2\n      eq\n      tag_448\n      jumpi\n      mload(0x40)\n      swap2\n      pop\n      and(add(returndatasize, 0x3f), not(0x1f))\n      dup3\n      add\n      0x40\n      mstore\n      returndatasize\n      dup3\n      mstore\n      returndatasize\n      0x00\n      0x20\n      dup5\n      add\n      returndatacopy\n      jump(tag_447)\n    tag_448:\n      0x60\n      swap2\n      pop\n    tag_447:\n      pop\n        /* \"v2_periphery/libraries/TransferHelper.sol\":1340:1439  (bool success, bytes memory data) = token.call(abi.encodeWithSelector(0x23b872dd, from, to, value)) */\n      swap2\n      pop\n      swap2\n      pop\n        /* \"v2_periphery/libraries/TransferHelper.sol\":1472:1479  success */\n      dup2\n        /* \"v2_periphery/libraries/TransferHelper.sol\":1472:1529  success && (data.length == 0 || abi.decode(data, (bool))) */\n      dup1\n      iszero\n      tag_449\n      jumpi\n      pop\n        /* \"v2_periphery/libraries/TransferHelper.sol\":1499:1500  0 */\n      0x00\n        /* \"v2_periphery/libraries/TransferHelper.sol\":1484:1488  data */\n      dup2\n        /* \"v2_periphery/libraries/TransferHelper.sol\":1484:1495  data.length */\n      mload\n        /* \"v2_periphery/libraries/TransferHelper.sol\":1484:1500  data.length == 0 */\n      eq\n        /* \"v2_periphery/libraries/TransferHelper.sol\":1484:1528  data.length == 0 || abi.decode(data, (bool)) */\n      dup1\n      tag_450\n      jumpi\n      pop\n        /* \"v2_periphery/libraries/TransferHelper.sol\":1515:1519  data */\n      dup1\n        /* \"v2_periphery/libraries/TransferHelper.sol\":1504:1528  abi.decode(data, (bool)) */\n      dup1\n      0x20\n      add\n      swap1\n      mload\n      dup2\n      add\n      swap1\n      tag_451\n      swap2\n      swap1\n      tag_288\n      jump\t// in\n    tag_451:\n        /* \"v2_periphery/libraries/TransferHelper.sol\":1484:1528  data.length == 0 || abi.decode(data, (bool)) */\n    tag_450:\n        /* \"v2_periphery/libraries/TransferHelper.sol\":1472:1529  success && (data.length == 0 || abi.decode(data, (bool))) */\n    tag_449:\n        /* \"v2_periphery/libraries/TransferHelper.sol\":1450:1606  require(... */\n      tag_452\n      jumpi\n      mload(0x40)\n      0x08c379a000000000000000000000000000000000000000000000000000000000\n      dup2\n      mstore\n      0x04\n      add\n      tag_453\n      swap1\n      tag_454\n      jump\t// in\n    tag_453:\n      mload(0x40)\n      dup1\n      swap2\n      sub\n      swap1\n      revert\n    tag_452:\n        /* \"v2_periphery/libraries/TransferHelper.sol\":1250:1614  {... */\n      pop\n      pop\n        /* \"v2_periphery/libraries/TransferHelper.sol\":1116:1614  function safeTransferFrom(... */\n      pop\n      pop\n      pop\n      pop\n      jump\t// out\n        /* \"v2_periphery/UniswapV2Router02Part.sol\":768:1503  function _swap(uint[] memory amounts, address[] memory path, address _to) internal virtual {... */\n    tag_104:\n        /* \"v2_periphery/UniswapV2Router02Part.sol\":875:881  uint i */\n      0x00\n        /* \"v2_periphery/UniswapV2Router02Part.sol\":870:1496  for (uint i; i < path.length - 1; i++) {... */\n    tag_456:\n        /* \"v2_periphery/UniswapV2Router02Part.sol\":901:902  1 */\n      0x01\n        /* \"v2_periphery/UniswapV2Router02Part.sol\":887:891  path */\n      dup4\n        /* \"v2_periphery/UniswapV2Router02Part.sol\":887:898  path.length */\n      mload\n        /* \"v2_periphery/UniswapV2Router02Part.sol\":887:902  path.length - 1 */\n      tag_459\n      swap2\n      swap1\n      tag_71\n      jump\t// in\n    tag_459:\n        /* \"v2_periphery/UniswapV2Router02Part.sol\":883:884  i */\n      dup2\n        /* \"v2_periphery/UniswapV2Router02Part.sol\":883:902  i < path.length - 1 */\n      lt\n        /* \"v2_periphery/UniswapV2Router02Part.sol\":870:1496  for (uint i; i < path.length - 1; i++) {... */\n      iszero\n      tag_457\n      jumpi\n        /* \"v2_periphery/UniswapV2Router02Part.sol\":925:938  address input */\n      0x00\n        /* \"v2_periphery/UniswapV2Router02Part.sol\":940:954  address output */\n      dup1\n        /* \"v2_periphery/UniswapV2Router02Part.sol\":959:963  path */\n      dup5\n        /* \"v2_periphery/UniswapV2Router02Part.sol\":964:965  i */\n      dup4\n        /* \"v2_periphery/UniswapV2Router02Part.sol\":959:966  path[i] */\n      dup2\n      mload\n      dup2\n      lt\n      tag_460\n      jumpi\n      tag_461\n      tag_74\n      jump\t// in\n    tag_461:\n    tag_460:\n      0x20\n      mul\n      0x20\n      add\n      add\n      mload\n        /* \"v2_periphery/UniswapV2Router02Part.sol\":968:972  path */\n      dup6\n        /* \"v2_periphery/UniswapV2Router02Part.sol\":977:978  1 */\n      0x01\n        /* \"v2_periphery/UniswapV2Router02Part.sol\":973:974  i */\n      dup6\n        /* \"v2_periphery/UniswapV2Router02Part.sol\":973:978  i + 1 */\n      tag_462\n      swap2\n      swap1\n      tag_421\n      jump\t// in\n    tag_462:\n        /* \"v2_periphery/UniswapV2Router02Part.sol\":968:979  path[i + 1] */\n      dup2\n      mload\n      dup2\n      lt\n      tag_463\n      jumpi\n      tag_464\n      tag_74\n      jump\t// in\n    tag_464:\n    tag_463:\n      0x20\n      mul\n      0x20\n      add\n      add\n      mload\n        /* \"v2_periphery/UniswapV2Router02Part.sol\":924:980  (address input, address output) = (path[i], path[i + 1]) */\n      swap2\n      pop\n      swap2\n      pop\n        /* \"v2_periphery/UniswapV2Router02Part.sol\":996:1010  address token0 */\n      0x00\n        /* \"v2_periphery/UniswapV2Router02Part.sol\":1015:1057  UniswapV2Library.sortTokens(input, output) */\n      tag_465\n        /* \"v2_periphery/UniswapV2Router02Part.sol\":1043:1048  input */\n      dup4\n        /* \"v2_periphery/UniswapV2Router02Part.sol\":1050:1056  output */\n      dup4\n        /* \"v2_periphery/UniswapV2Router02Part.sol\":1015:1042  UniswapV2Library.sortTokens */\n      tag_436\n        /* \"v2_periphery/UniswapV2Router02Part.sol\":1015:1057  UniswapV2Library.sortTokens(input, output) */\n      jump\t// in\n    tag_465:\n        /* \"v2_periphery/UniswapV2Router02Part.sol\":995:1057  (address token0,) = UniswapV2Library.sortTokens(input, output) */\n      pop\n      swap1\n      pop\n        /* \"v2_periphery/UniswapV2Router02Part.sol\":1072:1086  uint amountOut */\n      0x00\n        /* \"v2_periphery/UniswapV2Router02Part.sol\":1089:1096  amounts */\n      dup8\n        /* \"v2_periphery/UniswapV2Router02Part.sol\":1101:1102  1 */\n      0x01\n        /* \"v2_periphery/UniswapV2Router02Part.sol\":1097:1098  i */\n      dup7\n        /* \"v2_periphery/UniswapV2Router02Part.sol\":1097:1102  i + 1 */\n      tag_466\n      swap2\n      swap1\n      tag_421\n      jump\t// in\n    tag_466:\n        /* \"v2_periphery/UniswapV2Router02Part.sol\":1089:1103  amounts[i + 1] */\n      dup2\n      mload\n      dup2\n      lt\n      tag_467\n      jumpi\n      tag_468\n      tag_74\n      jump\t// in\n    tag_468:\n    tag_467:\n      0x20\n      mul\n      0x20\n      add\n      add\n      mload\n        /* \"v2_periphery/UniswapV2Router02Part.sol\":1072:1103  uint amountOut = amounts[i + 1] */\n      swap1\n      pop\n        /* \"v2_periphery/UniswapV2Router02Part.sol\":1119:1134  uint amount0Out */\n      0x00\n        /* \"v2_periphery/UniswapV2Router02Part.sol\":1136:1151  uint amount1Out */\n      dup1\n        /* \"v2_periphery/UniswapV2Router02Part.sol\":1164:1170  token0 */\n      dup4\n        /* \"v2_periphery/UniswapV2Router02Part.sol\":1155:1170  input == token0 */\n      0xffffffffffffffffffffffffffffffffffffffff\n      and\n        /* \"v2_periphery/UniswapV2Router02Part.sol\":1155:1160  input */\n      dup7\n        /* \"v2_periphery/UniswapV2Router02Part.sol\":1155:1170  input == token0 */\n      0xffffffffffffffffffffffffffffffffffffffff\n      and\n      eq\n        /* \"v2_periphery/UniswapV2Router02Part.sol\":1155:1216  input == token0 ? (uint(0), amountOut) : (amountOut, uint(0)) */\n      tag_469\n      jumpi\n        /* \"v2_periphery/UniswapV2Router02Part.sol\":1197:1206  amountOut */\n      dup3\n        /* \"v2_periphery/UniswapV2Router02Part.sol\":1213:1214  0 */\n      0x00\n        /* \"v2_periphery/UniswapV2Router02Part.sol\":1155:1216  input == token0 ? (uint(0), amountOut) : (amountOut, uint(0)) */\n      jump(tag_470)\n    tag_469:\n        /* \"v2_periphery/UniswapV2Router02Part.sol\":1179:1180  0 */\n      0x00\n        /* \"v2_periphery/UniswapV2Router02Part.sol\":1183:1192  amountOut */\n      dup4\n        /* \"v2_periphery/UniswapV2Router02Part.sol\":1155:1216  input == token0 ? (uint(0), amountOut) : (amountOut, uint(0)) */\n    tag_470:\n        /* \"v2_periphery/UniswapV2Router02Part.sol\":1118:1216  (uint amount0Out, uint amount1Out) = input == token0 ? (uint(0), amountOut) : (amountOut, uint(0)) */\n      swap2\n      pop\n      swap2\n      pop\n        /* \"v2_periphery/UniswapV2Router02Part.sol\":1231:1241  address to */\n      0x00\n        /* \"v2_periphery/UniswapV2Router02Part.sol\":1262:1263  2 */\n      0x02\n        /* \"v2_periphery/UniswapV2Router02Part.sol\":1248:1252  path */\n      dup11\n        /* \"v2_periphery/UniswapV2Router02Part.sol\":1248:1259  path.length */\n      mload\n        /* \"v2_periphery/UniswapV2Router02Part.sol\":1248:1263  path.length - 2 */\n      tag_471\n      swap2\n      swap1\n      tag_71\n      jump\t// in\n    tag_471:\n        /* \"v2_periphery/UniswapV2Router02Part.sol\":1244:1245  i */\n      dup9\n        /* \"v2_periphery/UniswapV2Router02Part.sol\":1244:1263  i < path.length - 2 */\n      lt\n        /* \"v2_periphery/UniswapV2Router02Part.sol\":1244:1326  i < path.length - 2 ? UniswapV2Library.pairFor(factory, output, path[i + 2]) : _to */\n      tag_472\n      jumpi\n        /* \"v2_periphery/UniswapV2Router02Part.sol\":1323:1326  _to */\n      dup9\n        /* \"v2_periphery/UniswapV2Router02Part.sol\":1244:1326  i < path.length - 2 ? UniswapV2Library.pairFor(factory, output, path[i + 2]) : _to */\n      jump(tag_473)\n    tag_472:\n        /* \"v2_periphery/UniswapV2Router02Part.sol\":1266:1320  UniswapV2Library.pairFor(factory, output, path[i + 2]) */\n      tag_474\n        /* \"v2_periphery/UniswapV2Router02Part.sol\":1291:1298  factory */\n      0x00\n      dup1\n      sload\n      swap1\n      0x0100\n      exp\n      swap1\n      div\n      0xffffffffffffffffffffffffffffffffffffffff\n      and\n        /* \"v2_periphery/UniswapV2Router02Part.sol\":1300:1306  output */\n      dup8\n        /* \"v2_periphery/UniswapV2Router02Part.sol\":1308:1312  path */\n      dup13\n        /* \"v2_periphery/UniswapV2Router02Part.sol\":1317:1318  2 */\n      0x02\n        /* \"v2_periphery/UniswapV2Router02Part.sol\":1313:1314  i */\n      dup13\n        /* \"v2_periphery/UniswapV2Router02Part.sol\":1313:1318  i + 2 */\n      tag_475\n      swap2\n      swap1\n      tag_421\n      jump\t// in\n    tag_475:\n        /* \"v2_periphery/UniswapV2Router02Part.sol\":1308:1319  path[i + 2] */\n      dup2\n      mload\n      dup2\n      lt\n      tag_476\n      jumpi\n      tag_477\n      tag_74\n      jump\t// in\n    tag_477:\n    tag_476:\n      0x20\n      mul\n      0x20\n      add\n      add\n      mload\n        /* \"v2_periphery/UniswapV2Router02Part.sol\":1266:1290  UniswapV2Library.pairFor */\n      tag_99\n        /* \"v2_periphery/UniswapV2Router02Part.sol\":1266:1320  UniswapV2Library.pairFor(factory, output, path[i + 2]) */\n      jump\t// in\n    tag_474:\n        /* \"v2_periphery/UniswapV2Router02Part.sol\":1244:1326  i < path.length - 2 ? UniswapV2Library.pairFor(factory, output, path[i + 2]) : _to */\n    tag_473:\n        /* \"v2_periphery/UniswapV2Router02Part.sol\":1231:1326  address to = i < path.length - 2 ? UniswapV2Library.pairFor(factory, output, path[i + 2]) : _to */\n      swap1\n      pop\n        /* \"v2_periphery/UniswapV2Router02Part.sol\":1356:1404  UniswapV2Library.pairFor(factory, input, output) */\n      tag_478\n        /* \"v2_periphery/UniswapV2Router02Part.sol\":1381:1388  factory */\n      0x00\n      dup1\n      sload\n      swap1\n      0x0100\n      exp\n      swap1\n      div\n      0xffffffffffffffffffffffffffffffffffffffff\n      and\n        /* \"v2_periphery/UniswapV2Router02Part.sol\":1390:1395  input */\n      dup9\n        /* \"v2_periphery/UniswapV2Router02Part.sol\":1397:1403  output */\n      dup9\n        /* \"v2_periphery/UniswapV2Router02Part.sol\":1356:1380  UniswapV2Library.pairFor */\n      tag_99\n        /* \"v2_periphery/UniswapV2Router02Part.sol\":1356:1404  UniswapV2Library.pairFor(factory, input, output) */\n      jump\t// in\n    tag_478:\n        /* \"v2_periphery/UniswapV2Router02Part.sol\":1341:1410  IUniswapV2Pair(UniswapV2Library.pairFor(factory, input, output)).swap */\n      0xffffffffffffffffffffffffffffffffffffffff\n      and\n      0x022c0d9f\n        /* \"v2_periphery/UniswapV2Router02Part.sol\":1429:1439  amount0Out */\n      dup5\n        /* \"v2_periphery/UniswapV2Router02Part.sol\":1441:1451  amount1Out */\n      dup5\n        /* \"v2_periphery/UniswapV2Router02Part.sol\":1453:1455  to */\n      dup5\n        /* \"v2_periphery/UniswapV2Router02Part.sol\":1467:1468  0 */\n      0x00\n        /* \"v2_periphery/UniswapV2Router02Part.sol\":1457:1469  new bytes(0) */\n      0xffffffffffffffff\n      dup2\n      gt\n      iszero\n      tag_479\n      jumpi\n      tag_480\n      tag_409\n      jump\t// in\n    tag_480:\n    tag_479:\n      mload(0x40)\n      swap1\n      dup1\n      dup3\n      mstore\n      dup1\n      0x1f\n      add\n      not(0x1f)\n      and\n      0x20\n      add\n      dup3\n      add\n      0x40\n      mstore\n      dup1\n      iszero\n      tag_481\n      jumpi\n      dup2\n      0x20\n      add\n      0x01\n      dup3\n      mul\n      dup1\n      calldatasize\n      dup4\n      calldatacopy\n      dup1\n      dup3\n      add\n      swap2\n      pop\n      pop\n      swap1\n      pop\n    tag_481:\n      pop\n        /* \"v2_periphery/UniswapV2Router02Part.sol\":1341:1484  IUniswapV2Pair(UniswapV2Library.pairFor(factory, input, output)).swap(... */\n      mload(0x40)\n      dup6\n      0xffffffff\n      and\n      0xe0\n      shl\n      dup2\n      mstore\n      0x04\n      add\n      tag_482\n      swap5\n      swap4\n      swap3\n      swap2\n      swap1\n      tag_483\n      jump\t// in\n    tag_482:\n      0x00\n      mload(0x40)\n      dup1\n      dup4\n      sub\n      dup2\n      0x00\n      dup8\n      dup1\n      extcodesize\n      iszero\n      dup1\n      iszero\n      tag_484\n      jumpi\n      0x00\n      dup1\n      revert\n    tag_484:\n      pop\n      gas\n      call\n      iszero\n      dup1\n      iszero\n      tag_486\n      jumpi\n      returndatasize\n      0x00\n      dup1\n      returndatacopy\n      revert(0x00, returndatasize)\n    tag_486:\n      pop\n      pop\n      pop\n      pop\n        /* \"v2_periphery/UniswapV2Router02Part.sol\":909:1496  {... */\n      pop\n      pop\n      pop\n      pop\n      pop\n      pop\n      pop\n        /* \"v2_periphery/UniswapV2Router02Part.sol\":904:907  i++ */\n      dup1\n      dup1\n      tag_487\n      swap1\n      tag_433\n      jump\t// in\n    tag_487:\n      swap2\n      pop\n      pop\n        /* \"v2_periphery/UniswapV2Router02Part.sol\":870:1496  for (uint i; i < path.length - 1; i++) {... */\n      jump(tag_456)\n    tag_457:\n      pop\n        /* \"v2_periphery/UniswapV2Router02Part.sol\":768:1503  function _swap(uint[] memory amounts, address[] memory path, address _to) internal virtual {... */\n      pop\n      pop\n      pop\n      jump\t// out\n        /* \"v2_periphery/libraries/TransferHelper.sol\":1622:1839  function safeTransferETH(address to, uint256 value) internal {... */\n    tag_117:\n        /* \"v2_periphery/libraries/TransferHelper.sol\":1695:1707  bool success */\n      0x00\n        /* \"v2_periphery/libraries/TransferHelper.sol\":1713:1715  to */\n      dup3\n        /* \"v2_periphery/libraries/TransferHelper.sol\":1713:1720  to.call */\n      0xffffffffffffffffffffffffffffffffffffffff\n      and\n        /* \"v2_periphery/libraries/TransferHelper.sol\":1728:1733  value */\n      dup3\n        /* \"v2_periphery/libraries/TransferHelper.sol\":1745:1746  0 */\n      0x00\n        /* \"v2_periphery/libraries/TransferHelper.sol\":1735:1747  new bytes(0) */\n      0xffffffffffffffff\n      dup2\n      gt\n      iszero\n      tag_489\n      jumpi\n      tag_490\n      tag_409\n      jump\t// in\n    tag_490:\n    tag_489:\n      mload(0x40)\n      swap1\n      dup1\n      dup3\n      mstore\n      dup1\n      0x1f\n      add\n      not(0x1f)\n      and\n      0x20\n      add\n      dup3\n      add\n      0x40\n      mstore\n      dup1\n      iszero\n      tag_491\n      jumpi\n      dup2\n      0x20\n      add\n      0x01\n      dup3\n      mul\n      dup1\n      calldatasize\n      dup4\n      calldatacopy\n      dup1\n      dup3\n      add\n      swap2\n      pop\n      pop\n      swap1\n      pop\n    tag_491:\n      pop\n        /* \"v2_periphery/libraries/TransferHelper.sol\":1713:1748  to.call{value: value}(new bytes(0)) */\n      mload(0x40)\n      tag_492\n      swap2\n      swap1\n      tag_445\n      jump\t// in\n    tag_492:\n      0x00\n      mload(0x40)\n      dup1\n      dup4\n      sub\n      dup2\n      dup6\n      dup8\n      gas\n      call\n      swap3\n      pop\n      pop\n      pop\n      returndatasize\n      dup1\n      0x00\n      dup2\n      eq\n      tag_495\n      jumpi\n      mload(0x40)\n      swap2\n      pop\n      and(add(returndatasize, 0x3f), not(0x1f))\n      dup3\n      add\n      0x40\n      mstore\n      returndatasize\n      dup3\n      mstore\n      returndatasize\n      0x00\n      0x20\n      dup5\n      add\n      returndatacopy\n      jump(tag_494)\n    tag_495:\n      0x60\n      swap2\n      pop\n    tag_494:\n      pop\n        /* \"v2_periphery/libraries/TransferHelper.sol\":1694:1748  (bool success, ) = to.call{value: value}(new bytes(0)) */\n      pop\n      swap1\n      pop\n        /* \"v2_periphery/libraries/TransferHelper.sol\":1767:1774  success */\n      dup1\n        /* \"v2_periphery/libraries/TransferHelper.sol\":1759:1831  require(success, 'TransferHelper::safeTransferETH: ETH transfer failed') */\n      tag_496\n      jumpi\n      mload(0x40)\n      0x08c379a000000000000000000000000000000000000000000000000000000000\n      dup2\n      mstore\n      0x04\n      add\n      tag_497\n      swap1\n      tag_498\n      jump\t// in\n    tag_497:\n      mload(0x40)\n      dup1\n      swap2\n      sub\n      swap1\n      revert\n    tag_496:\n        /* \"v2_periphery/libraries/TransferHelper.sol\":1683:1839  {... */\n      pop\n        /* \"v2_periphery/libraries/TransferHelper.sol\":1622:1839  function safeTransferETH(address to, uint256 value) internal {... */\n      pop\n      pop\n      jump\t// out\n        /* \"v2_periphery/libraries/UniswapV2Library.sol\":4008:4540  function getAmountsIn(address factory, uint amountOut, address[] memory path) internal view returns (uint[] memory amounts) {... */\n    tag_153:\n        /* \"v2_periphery/libraries/UniswapV2Library.sol\":4109:4130  uint[] memory amounts */\n      0x60\n        /* \"v2_periphery/libraries/UniswapV2Library.sol\":4166:4167  2 */\n      0x02\n        /* \"v2_periphery/libraries/UniswapV2Library.sol\":4151:4155  path */\n      dup3\n        /* \"v2_periphery/libraries/UniswapV2Library.sol\":4151:4162  path.length */\n      mload\n        /* \"v2_periphery/libraries/UniswapV2Library.sol\":4151:4167  path.length >= 2 */\n      lt\n      iszero\n        /* \"v2_periphery/libraries/UniswapV2Library.sol\":4143:4202  require(path.length >= 2, 'UniswapV2Library: INVALID_PATH') */\n      tag_500\n      jumpi\n      mload(0x40)\n      0x08c379a000000000000000000000000000000000000000000000000000000000\n      dup2\n      mstore\n      0x04\n      add\n      tag_501\n      swap1\n      tag_406\n      jump\t// in\n    tag_501:\n      mload(0x40)\n      dup1\n      swap2\n      sub\n      swap1\n      revert\n    tag_500:\n        /* \"v2_periphery/libraries/UniswapV2Library.sol\":4234:4238  path */\n      dup2\n        /* \"v2_periphery/libraries/UniswapV2Library.sol\":4234:4245  path.length */\n      mload\n        /* \"v2_periphery/libraries/UniswapV2Library.sol\":4223:4246  new uint[](path.length) */\n      0xffffffffffffffff\n      dup2\n      gt\n      iszero\n      tag_502\n      jumpi\n      tag_503\n      tag_409\n      jump\t// in\n    tag_503:\n    tag_502:\n      mload(0x40)\n      swap1\n      dup1\n      dup3\n      mstore\n      dup1\n      0x20\n      mul\n      0x20\n      add\n      dup3\n      add\n      0x40\n      mstore\n      dup1\n      iszero\n      tag_504\n      jumpi\n      dup2\n      0x20\n      add\n      0x20\n      dup3\n      mul\n      dup1\n      calldatasize\n      dup4\n      calldatacopy\n      dup1\n      dup3\n      add\n      swap2\n      pop\n      pop\n      swap1\n      pop\n    tag_504:\n      pop\n        /* \"v2_periphery/libraries/UniswapV2Library.sol\":4213:4246  amounts = new uint[](path.length) */\n      swap1\n      pop\n        /* \"v2_periphery/libraries/UniswapV2Library.sol\":4287:4296  amountOut */\n      dup3\n        /* \"v2_periphery/libraries/UniswapV2Library.sol\":4257:4264  amounts */\n      dup2\n        /* \"v2_periphery/libraries/UniswapV2Library.sol\":4282:4283  1 */\n      0x01\n        /* \"v2_periphery/libraries/UniswapV2Library.sol\":4265:4272  amounts */\n      dup4\n        /* \"v2_periphery/libraries/UniswapV2Library.sol\":4265:4279  amounts.length */\n      mload\n        /* \"v2_periphery/libraries/UniswapV2Library.sol\":4265:4283  amounts.length - 1 */\n      tag_505\n      swap2\n      swap1\n      tag_71\n      jump\t// in\n    tag_505:\n        /* \"v2_periphery/libraries/UniswapV2Library.sol\":4257:4284  amounts[amounts.length - 1] */\n      dup2\n      mload\n      dup2\n      lt\n      tag_506\n      jumpi\n      tag_507\n      tag_74\n      jump\t// in\n    tag_507:\n    tag_506:\n      0x20\n      mul\n      0x20\n      add\n      add\n        /* \"v2_periphery/libraries/UniswapV2Library.sol\":4257:4296  amounts[amounts.length - 1] = amountOut */\n      dup2\n      dup2\n      mstore\n      pop\n      pop\n        /* \"v2_periphery/libraries/UniswapV2Library.sol\":4312:4318  uint i */\n      0x00\n        /* \"v2_periphery/libraries/UniswapV2Library.sol\":4335:4336  1 */\n      0x01\n        /* \"v2_periphery/libraries/UniswapV2Library.sol\":4321:4325  path */\n      dup4\n        /* \"v2_periphery/libraries/UniswapV2Library.sol\":4321:4332  path.length */\n      mload\n        /* \"v2_periphery/libraries/UniswapV2Library.sol\":4321:4336  path.length - 1 */\n      tag_511\n      swap2\n      swap1\n      tag_71\n      jump\t// in\n    tag_511:\n        /* \"v2_periphery/libraries/UniswapV2Library.sol\":4312:4336  uint i = path.length - 1 */\n      swap1\n      pop\n        /* \"v2_periphery/libraries/UniswapV2Library.sol\":4307:4533  for (uint i = path.length - 1; i > 0; i--) {... */\n    tag_508:\n        /* \"v2_periphery/libraries/UniswapV2Library.sol\":4342:4343  0 */\n      0x00\n        /* \"v2_periphery/libraries/UniswapV2Library.sol\":4338:4339  i */\n      dup2\n        /* \"v2_periphery/libraries/UniswapV2Library.sol\":4338:4343  i > 0 */\n      gt\n        /* \"v2_periphery/libraries/UniswapV2Library.sol\":4307:4533  for (uint i = path.length - 1; i > 0; i--) {... */\n      iszero\n      tag_509\n      jumpi\n        /* \"v2_periphery/libraries/UniswapV2Library.sol\":4366:4380  uint reserveIn */\n      0x00\n        /* \"v2_periphery/libraries/UniswapV2Library.sol\":4382:4397  uint reserveOut */\n      dup1\n        /* \"v2_periphery/libraries/UniswapV2Library.sol\":4401:4443  getReserves(factory, path[i - 1], path[i]) */\n      tag_512\n        /* \"v2_periphery/libraries/UniswapV2Library.sol\":4413:4420  factory */\n      dup8\n        /* \"v2_periphery/libraries/UniswapV2Library.sol\":4422:4426  path */\n      dup7\n        /* \"v2_periphery/libraries/UniswapV2Library.sol\":4431:4432  1 */\n      0x01\n        /* \"v2_periphery/libraries/UniswapV2Library.sol\":4427:4428  i */\n      dup7\n        /* \"v2_periphery/libraries/UniswapV2Library.sol\":4427:4432  i - 1 */\n      tag_513\n      swap2\n      swap1\n      tag_71\n      jump\t// in\n    tag_513:\n        /* \"v2_periphery/libraries/UniswapV2Library.sol\":4422:4433  path[i - 1] */\n      dup2\n      mload\n      dup2\n      lt\n      tag_514\n      jumpi\n      tag_515\n      tag_74\n      jump\t// in\n    tag_515:\n    tag_514:\n      0x20\n      mul\n      0x20\n      add\n      add\n      mload\n        /* \"v2_periphery/libraries/UniswapV2Library.sol\":4435:4439  path */\n      dup8\n        /* \"v2_periphery/libraries/UniswapV2Library.sol\":4440:4441  i */\n      dup7\n        /* \"v2_periphery/libraries/UniswapV2Library.sol\":4435:4442  path[i] */\n      dup2\n      mload\n      dup2\n      lt\n      tag_516\n      jumpi\n      tag_517\n      tag_74\n      jump\t// in\n    tag_517:\n    tag_516:\n      0x20\n      mul\n      0x20\n      add\n      add\n      mload\n        /* \"v2_periphery/libraries/UniswapV2Library.sol\":4401:4412  getReserves */\n      tag_424\n        /* \"v2_periphery/libraries/UniswapV2Library.sol\":4401:4443  getReserves(factory, path[i - 1], path[i]) */\n      jump\t// in\n    tag_512:\n        /* \"v2_periphery/libraries/UniswapV2Library.sol\":4365:4443  (uint reserveIn, uint reserveOut) = getReserves(factory, path[i - 1], path[i]) */\n      swap2\n      pop\n      swap2\n      pop\n        /* \"v2_periphery/libraries/UniswapV2Library.sol\":4475:4521  getAmountIn(amounts[i], reserveIn, reserveOut) */\n      tag_518\n        /* \"v2_periphery/libraries/UniswapV2Library.sol\":4487:4494  amounts */\n      dup5\n        /* \"v2_periphery/libraries/UniswapV2Library.sol\":4495:4496  i */\n      dup5\n        /* \"v2_periphery/libraries/UniswapV2Library.sol\":4487:4497  amounts[i] */\n      dup2\n      mload\n      dup2\n      lt\n      tag_519\n      jumpi\n      tag_520\n      tag_74\n      jump\t// in\n    tag_520:\n    tag_519:\n      0x20\n      mul\n      0x20\n      add\n      add\n      mload\n        /* \"v2_periphery/libraries/UniswapV2Library.sol\":4499:4508  reserveIn */\n      dup4\n        /* \"v2_periphery/libraries/UniswapV2Library.sol\":4510:4520  reserveOut */\n      dup4\n        /* \"v2_periphery/libraries/UniswapV2Library.sol\":4475:4486  getAmountIn */\n      tag_521\n        /* \"v2_periphery/libraries/UniswapV2Library.sol\":4475:4521  getAmountIn(amounts[i], reserveIn, reserveOut) */\n      jump\t// in\n    tag_518:\n        /* \"v2_periphery/libraries/UniswapV2Library.sol\":4458:4465  amounts */\n      dup5\n        /* \"v2_periphery/libraries/UniswapV2Library.sol\":4470:4471  1 */\n      0x01\n        /* \"v2_periphery/libraries/UniswapV2Library.sol\":4466:4467  i */\n      dup6\n        /* \"v2_periphery/libraries/UniswapV2Library.sol\":4466:4471  i - 1 */\n      tag_522\n      swap2\n      swap1\n      tag_71\n      jump\t// in\n    tag_522:\n        /* \"v2_periphery/libraries/UniswapV2Library.sol\":4458:4472  amounts[i - 1] */\n      dup2\n      mload\n      dup2\n      lt\n      tag_523\n      jumpi\n      tag_524\n      tag_74\n      jump\t// in\n    tag_524:\n    tag_523:\n      0x20\n      mul\n      0x20\n      add\n      add\n        /* \"v2_periphery/libraries/UniswapV2Library.sol\":4458:4521  amounts[i - 1] = getAmountIn(amounts[i], reserveIn, reserveOut) */\n      dup2\n      dup2\n      mstore\n      pop\n      pop\n        /* \"v2_periphery/libraries/UniswapV2Library.sol\":4350:4533  {... */\n      pop\n      pop\n        /* \"v2_periphery/libraries/UniswapV2Library.sol\":4345:4348  i-- */\n      dup1\n      dup1\n      tag_525\n      swap1\n      tag_526\n      jump\t// in\n    tag_525:\n      swap2\n      pop\n      pop\n        /* \"v2_periphery/libraries/UniswapV2Library.sol\":4307:4533  for (uint i = path.length - 1; i > 0; i--) {... */\n      jump(tag_508)\n    tag_509:\n      pop\n        /* \"v2_periphery/libraries/UniswapV2Library.sol\":4008:4540  function getAmountsIn(address factory, uint amountOut, address[] memory path) internal view returns (uint[] memory amounts) {... */\n      swap4\n      swap3\n      pop\n      pop\n      pop\n      jump\t// out\n        /* \"v2_periphery/UniswapV2Router02Part.sol\":6046:7258  function _swapSupportingFeeOnTransferTokens(address[] memory path, address _to) internal virtual {... */\n    tag_209:\n        /* \"v2_periphery/UniswapV2Router02Part.sol\":6159:6165  uint i */\n      0x00\n        /* \"v2_periphery/UniswapV2Router02Part.sol\":6154:7251  for (uint i; i < path.length - 1; i++) {... */\n    tag_528:\n        /* \"v2_periphery/UniswapV2Router02Part.sol\":6185:6186  1 */\n      0x01\n        /* \"v2_periphery/UniswapV2Router02Part.sol\":6171:6175  path */\n      dup4\n        /* \"v2_periphery/UniswapV2Router02Part.sol\":6171:6182  path.length */\n      mload\n        /* \"v2_periphery/UniswapV2Router02Part.sol\":6171:6186  path.length - 1 */\n      tag_531\n      swap2\n      swap1\n      tag_71\n      jump\t// in\n    tag_531:\n        /* \"v2_periphery/UniswapV2Router02Part.sol\":6167:6168  i */\n      dup2\n        /* \"v2_periphery/UniswapV2Router02Part.sol\":6167:6186  i < path.length - 1 */\n      lt\n        /* \"v2_periphery/UniswapV2Router02Part.sol\":6154:7251  for (uint i; i < path.length - 1; i++) {... */\n      iszero\n      tag_529\n      jumpi\n        /* \"v2_periphery/UniswapV2Router02Part.sol\":6209:6222  address input */\n      0x00\n        /* \"v2_periphery/UniswapV2Router02Part.sol\":6224:6238  address output */\n      dup1\n        /* \"v2_periphery/UniswapV2Router02Part.sol\":6243:6247  path */\n      dup5\n        /* \"v2_periphery/UniswapV2Router02Part.sol\":6248:6249  i */\n      dup4\n        /* \"v2_periphery/UniswapV2Router02Part.sol\":6243:6250  path[i] */\n      dup2\n      mload\n      dup2\n      lt\n      tag_532\n      jumpi\n      tag_533\n      tag_74\n      jump\t// in\n    tag_533:\n    tag_532:\n      0x20\n      mul\n      0x20\n      add\n      add\n      mload\n        /* \"v2_periphery/UniswapV2Router02Part.sol\":6252:6256  path */\n      dup6\n        /* \"v2_periphery/UniswapV2Router02Part.sol\":6261:6262  1 */\n      0x01\n        /* \"v2_periphery/UniswapV2Router02Part.sol\":6257:6258  i */\n      dup6\n        /* \"v2_periphery/UniswapV2Router02Part.sol\":6257:6262  i + 1 */\n      tag_534\n      swap2\n      swap1\n      tag_421\n      jump\t// in\n    tag_534:\n        /* \"v2_periphery/UniswapV2Router02Part.sol\":6252:6263  path[i + 1] */\n      dup2\n      mload\n      dup2\n      lt\n      tag_535\n      jumpi\n      tag_536\n      tag_74\n      jump\t// in\n    tag_536:\n    tag_535:\n      0x20\n      mul\n      0x20\n      add\n      add\n      mload\n        /* \"v2_periphery/UniswapV2Router02Part.sol\":6208:6264  (address input, address output) = (path[i], path[i + 1]) */\n      swap2\n      pop\n      swap2\n      pop\n        /* \"v2_periphery/UniswapV2Router02Part.sol\":6280:6294  address token0 */\n      0x00\n        /* \"v2_periphery/UniswapV2Router02Part.sol\":6299:6341  UniswapV2Library.sortTokens(input, output) */\n      tag_537\n        /* \"v2_periphery/UniswapV2Router02Part.sol\":6327:6332  input */\n      dup4\n        /* \"v2_periphery/UniswapV2Router02Part.sol\":6334:6340  output */\n      dup4\n        /* \"v2_periphery/UniswapV2Router02Part.sol\":6299:6326  UniswapV2Library.sortTokens */\n      tag_436\n        /* \"v2_periphery/UniswapV2Router02Part.sol\":6299:6341  UniswapV2Library.sortTokens(input, output) */\n      jump\t// in\n    tag_537:\n        /* \"v2_periphery/UniswapV2Router02Part.sol\":6279:6341  (address token0,) = UniswapV2Library.sortTokens(input, output) */\n      pop\n      swap1\n      pop\n        /* \"v2_periphery/UniswapV2Router02Part.sol\":6356:6375  IUniswapV2Pair pair */\n      0x00\n        /* \"v2_periphery/UniswapV2Router02Part.sol\":6393:6441  UniswapV2Library.pairFor(factory, input, output) */\n      tag_538\n        /* \"v2_periphery/UniswapV2Router02Part.sol\":6418:6425  factory */\n      0x00\n      dup1\n      sload\n      swap1\n      0x0100\n      exp\n      swap1\n      div\n      0xffffffffffffffffffffffffffffffffffffffff\n      and\n        /* \"v2_periphery/UniswapV2Router02Part.sol\":6427:6432  input */\n      dup6\n        /* \"v2_periphery/UniswapV2Router02Part.sol\":6434:6440  output */\n      dup6\n        /* \"v2_periphery/UniswapV2Router02Part.sol\":6393:6417  UniswapV2Library.pairFor */\n      tag_99\n        /* \"v2_periphery/UniswapV2Router02Part.sol\":6393:6441  UniswapV2Library.pairFor(factory, input, output) */\n      jump\t// in\n    tag_538:\n        /* \"v2_periphery/UniswapV2Router02Part.sol\":6356:6442  IUniswapV2Pair pair = IUniswapV2Pair(UniswapV2Library.pairFor(factory, input, output)) */\n      swap1\n      pop\n        /* \"v2_periphery/UniswapV2Router02Part.sol\":6457:6473  uint amountInput */\n      0x00\n        /* \"v2_periphery/UniswapV2Router02Part.sol\":6488:6505  uint amountOutput */\n      dup1\n        /* \"v2_periphery/UniswapV2Router02Part.sol\":6576:6589  uint reserve0 */\n      0x00\n        /* \"v2_periphery/UniswapV2Router02Part.sol\":6591:6604  uint reserve1 */\n      dup1\n        /* \"v2_periphery/UniswapV2Router02Part.sol\":6609:6613  pair */\n      dup5\n        /* \"v2_periphery/UniswapV2Router02Part.sol\":6609:6625  pair.getReserves */\n      0xffffffffffffffffffffffffffffffffffffffff\n      and\n      0x0902f1ac\n        /* \"v2_periphery/UniswapV2Router02Part.sol\":6609:6627  pair.getReserves() */\n      mload(0x40)\n      dup2\n      0xffffffff\n      and\n      0xe0\n      shl\n      dup2\n      mstore\n      0x04\n      add\n      0x60\n      mload(0x40)\n      dup1\n      dup4\n      sub\n      dup2\n      dup7\n      gas\n      staticcall\n      iszero\n      dup1\n      iszero\n      tag_540\n      jumpi\n      returndatasize\n      0x00\n      dup1\n      returndatacopy\n      revert(0x00, returndatasize)\n    tag_540:\n      pop\n      pop\n      pop\n      pop\n      mload(0x40)\n      returndatasize\n      not(0x1f)\n      0x1f\n      dup3\n      add\n      and\n      dup3\n      add\n      dup1\n      0x40\n      mstore\n      pop\n      dup2\n      add\n      swap1\n      tag_541\n      swap2\n      swap1\n      tag_542\n      jump\t// in\n    tag_541:\n        /* \"v2_periphery/UniswapV2Router02Part.sol\":6575:6627  (uint reserve0, uint reserve1,) = pair.getReserves() */\n      pop\n      0xffffffffffffffffffffffffffff\n      and\n      swap2\n      pop\n      0xffffffffffffffffffffffffffff\n      and\n      swap2\n      pop\n        /* \"v2_periphery/UniswapV2Router02Part.sol\":6643:6660  uint reserveInput */\n      0x00\n        /* \"v2_periphery/UniswapV2Router02Part.sol\":6662:6680  uint reserveOutput */\n      dup1\n        /* \"v2_periphery/UniswapV2Router02Part.sol\":6693:6699  token0 */\n      dup8\n        /* \"v2_periphery/UniswapV2Router02Part.sol\":6684:6699  input == token0 */\n      0xffffffffffffffffffffffffffffffffffffffff\n      and\n        /* \"v2_periphery/UniswapV2Router02Part.sol\":6684:6689  input */\n      dup11\n        /* \"v2_periphery/UniswapV2Router02Part.sol\":6684:6699  input == token0 */\n      0xffffffffffffffffffffffffffffffffffffffff\n      and\n      eq\n        /* \"v2_periphery/UniswapV2Router02Part.sol\":6684:6745  input == token0 ? (reserve0, reserve1) : (reserve1, reserve0) */\n      tag_543\n      jumpi\n        /* \"v2_periphery/UniswapV2Router02Part.sol\":6726:6734  reserve1 */\n      dup3\n        /* \"v2_periphery/UniswapV2Router02Part.sol\":6736:6744  reserve0 */\n      dup5\n        /* \"v2_periphery/UniswapV2Router02Part.sol\":6684:6745  input == token0 ? (reserve0, reserve1) : (reserve1, reserve0) */\n      jump(tag_544)\n    tag_543:\n        /* \"v2_periphery/UniswapV2Router02Part.sol\":6703:6711  reserve0 */\n      dup4\n        /* \"v2_periphery/UniswapV2Router02Part.sol\":6713:6721  reserve1 */\n      dup4\n        /* \"v2_periphery/UniswapV2Router02Part.sol\":6684:6745  input == token0 ? (reserve0, reserve1) : (reserve1, reserve0) */\n    tag_544:\n        /* \"v2_periphery/UniswapV2Router02Part.sol\":6642:6745  (uint reserveInput, uint reserveOutput) = input == token0 ? (reserve0, reserve1) : (reserve1, reserve0) */\n      swap2\n      pop\n      swap2\n      pop\n        /* \"v2_periphery/UniswapV2Router02Part.sol\":6815:6827  reserveInput */\n      dup2\n        /* \"v2_periphery/UniswapV2Router02Part.sol\":6781:6786  input */\n      dup11\n        /* \"v2_periphery/UniswapV2Router02Part.sol\":6774:6797  IERC20(input).balanceOf */\n      0xffffffffffffffffffffffffffffffffffffffff\n      and\n      0x70a08231\n        /* \"v2_periphery/UniswapV2Router02Part.sol\":6806:6810  pair */\n      dup10\n        /* \"v2_periphery/UniswapV2Router02Part.sol\":6774:6812  IERC20(input).balanceOf(address(pair)) */\n      mload(0x40)\n      dup3\n      0xffffffff\n      and\n      0xe0\n      shl\n      dup2\n      mstore\n      0x04\n      add\n      tag_545\n      swap2\n      swap1\n      tag_53\n      jump\t// in\n    tag_545:\n      0x20\n      mload(0x40)\n      dup1\n      dup4\n      sub\n      dup2\n      dup7\n      gas\n      staticcall\n      iszero\n      dup1\n      iszero\n      tag_547\n      jumpi\n      returndatasize\n      0x00\n      dup1\n      returndatacopy\n      revert(0x00, returndatasize)\n    tag_547:\n      pop\n      pop\n      pop\n      pop\n      mload(0x40)\n      returndatasize\n      not(0x1f)\n      0x1f\n      dup3\n      add\n      and\n      dup3\n      add\n      dup1\n      0x40\n      mstore\n      pop\n      dup2\n      add\n      swap1\n      tag_548\n      swap2\n      swap1\n      tag_207\n      jump\t// in\n    tag_548:\n        /* \"v2_periphery/UniswapV2Router02Part.sol\":6774:6827  IERC20(input).balanceOf(address(pair)) - reserveInput */\n      tag_549\n      swap2\n      swap1\n      tag_71\n      jump\t// in\n    tag_549:\n        /* \"v2_periphery/UniswapV2Router02Part.sol\":6760:6827  amountInput = IERC20(input).balanceOf(address(pair)) - reserveInput */\n      swap6\n      pop\n        /* \"v2_periphery/UniswapV2Router02Part.sol\":6858:6929  UniswapV2Library.getAmountOut(amountInput, reserveInput, reserveOutput) */\n      tag_550\n        /* \"v2_periphery/UniswapV2Router02Part.sol\":6888:6899  amountInput */\n      dup7\n        /* \"v2_periphery/UniswapV2Router02Part.sol\":6901:6913  reserveInput */\n      dup4\n        /* \"v2_periphery/UniswapV2Router02Part.sol\":6915:6928  reserveOutput */\n      dup4\n        /* \"v2_periphery/UniswapV2Router02Part.sol\":6858:6887  UniswapV2Library.getAmountOut */\n      tag_428\n        /* \"v2_periphery/UniswapV2Router02Part.sol\":6858:6929  UniswapV2Library.getAmountOut(amountInput, reserveInput, reserveOutput) */\n      jump\t// in\n    tag_550:\n        /* \"v2_periphery/UniswapV2Router02Part.sol\":6843:6929  amountOutput = UniswapV2Library.getAmountOut(amountInput, reserveInput, reserveOutput) */\n      swap5\n      pop\n        /* \"v2_periphery/UniswapV2Router02Part.sol\":6520:6945  { // scope to avoid stack too deep errors... */\n      pop\n      pop\n      pop\n      pop\n        /* \"v2_periphery/UniswapV2Router02Part.sol\":6960:6975  uint amount0Out */\n      0x00\n        /* \"v2_periphery/UniswapV2Router02Part.sol\":6977:6992  uint amount1Out */\n      dup1\n        /* \"v2_periphery/UniswapV2Router02Part.sol\":7005:7011  token0 */\n      dup6\n        /* \"v2_periphery/UniswapV2Router02Part.sol\":6996:7011  input == token0 */\n      0xffffffffffffffffffffffffffffffffffffffff\n      and\n        /* \"v2_periphery/UniswapV2Router02Part.sol\":6996:7001  input */\n      dup9\n        /* \"v2_periphery/UniswapV2Router02Part.sol\":6996:7011  input == token0 */\n      0xffffffffffffffffffffffffffffffffffffffff\n      and\n      eq\n        /* \"v2_periphery/UniswapV2Router02Part.sol\":6996:7063  input == token0 ? (uint(0), amountOutput) : (amountOutput, uint(0)) */\n      tag_551\n      jumpi\n        /* \"v2_periphery/UniswapV2Router02Part.sol\":7041:7053  amountOutput */\n      dup3\n        /* \"v2_periphery/UniswapV2Router02Part.sol\":7060:7061  0 */\n      0x00\n        /* \"v2_periphery/UniswapV2Router02Part.sol\":6996:7063  input == token0 ? (uint(0), amountOutput) : (amountOutput, uint(0)) */\n      jump(tag_552)\n    tag_551:\n        /* \"v2_periphery/UniswapV2Router02Part.sol\":7020:7021  0 */\n      0x00\n        /* \"v2_periphery/UniswapV2Router02Part.sol\":7024:7036  amountOutput */\n      dup4\n        /* \"v2_periphery/UniswapV2Router02Part.sol\":6996:7063  input == token0 ? (uint(0), amountOutput) : (amountOutput, uint(0)) */\n    tag_552:\n        /* \"v2_periphery/UniswapV2Router02Part.sol\":6959:7063  (uint amount0Out, uint amount1Out) = input == token0 ? (uint(0), amountOutput) : (amountOutput, uint(0)) */\n      swap2\n      pop\n      swap2\n      pop\n        /* \"v2_periphery/UniswapV2Router02Part.sol\":7078:7088  address to */\n      0x00\n        /* \"v2_periphery/UniswapV2Router02Part.sol\":7109:7110  2 */\n      0x02\n        /* \"v2_periphery/UniswapV2Router02Part.sol\":7095:7099  path */\n      dup13\n        /* \"v2_periphery/UniswapV2Router02Part.sol\":7095:7106  path.length */\n      mload\n        /* \"v2_periphery/UniswapV2Router02Part.sol\":7095:7110  path.length - 2 */\n      tag_553\n      swap2\n      swap1\n      tag_71\n      jump\t// in\n    tag_553:\n        /* \"v2_periphery/UniswapV2Router02Part.sol\":7091:7092  i */\n      dup11\n        /* \"v2_periphery/UniswapV2Router02Part.sol\":7091:7110  i < path.length - 2 */\n      lt\n        /* \"v2_periphery/UniswapV2Router02Part.sol\":7091:7173  i < path.length - 2 ? UniswapV2Library.pairFor(factory, output, path[i + 2]) : _to */\n      tag_554\n      jumpi\n        /* \"v2_periphery/UniswapV2Router02Part.sol\":7170:7173  _to */\n      dup11\n        /* \"v2_periphery/UniswapV2Router02Part.sol\":7091:7173  i < path.length - 2 ? UniswapV2Library.pairFor(factory, output, path[i + 2]) : _to */\n      jump(tag_555)\n    tag_554:\n        /* \"v2_periphery/UniswapV2Router02Part.sol\":7113:7167  UniswapV2Library.pairFor(factory, output, path[i + 2]) */\n      tag_556\n        /* \"v2_periphery/UniswapV2Router02Part.sol\":7138:7145  factory */\n      0x00\n      dup1\n      sload\n      swap1\n      0x0100\n      exp\n      swap1\n      div\n      0xffffffffffffffffffffffffffffffffffffffff\n      and\n        /* \"v2_periphery/UniswapV2Router02Part.sol\":7147:7153  output */\n      dup10\n        /* \"v2_periphery/UniswapV2Router02Part.sol\":7155:7159  path */\n      dup15\n        /* \"v2_periphery/UniswapV2Router02Part.sol\":7164:7165  2 */\n      0x02\n        /* \"v2_periphery/UniswapV2Router02Part.sol\":7160:7161  i */\n      dup15\n        /* \"v2_periphery/UniswapV2Router02Part.sol\":7160:7165  i + 2 */\n      tag_557\n      swap2\n      swap1\n      tag_421\n      jump\t// in\n    tag_557:\n        /* \"v2_periphery/UniswapV2Router02Part.sol\":7155:7166  path[i + 2] */\n      dup2\n      mload\n      dup2\n      lt\n      tag_558\n      jumpi\n      tag_559\n      tag_74\n      jump\t// in\n    tag_559:\n    tag_558:\n      0x20\n      mul\n      0x20\n      add\n      add\n      mload\n        /* \"v2_periphery/UniswapV2Router02Part.sol\":7113:7137  UniswapV2Library.pairFor */\n      tag_99\n        /* \"v2_periphery/UniswapV2Router02Part.sol\":7113:7167  UniswapV2Library.pairFor(factory, output, path[i + 2]) */\n      jump\t// in\n    tag_556:\n        /* \"v2_periphery/UniswapV2Router02Part.sol\":7091:7173  i < path.length - 2 ? UniswapV2Library.pairFor(factory, output, path[i + 2]) : _to */\n    tag_555:\n        /* \"v2_periphery/UniswapV2Router02Part.sol\":7078:7173  address to = i < path.length - 2 ? UniswapV2Library.pairFor(factory, output, path[i + 2]) : _to */\n      swap1\n      pop\n        /* \"v2_periphery/UniswapV2Router02Part.sol\":7188:7192  pair */\n      dup6\n        /* \"v2_periphery/UniswapV2Router02Part.sol\":7188:7197  pair.swap */\n      0xffffffffffffffffffffffffffffffffffffffff\n      and\n      0x022c0d9f\n        /* \"v2_periphery/UniswapV2Router02Part.sol\":7198:7208  amount0Out */\n      dup5\n        /* \"v2_periphery/UniswapV2Router02Part.sol\":7210:7220  amount1Out */\n      dup5\n        /* \"v2_periphery/UniswapV2Router02Part.sol\":7222:7224  to */\n      dup5\n        /* \"v2_periphery/UniswapV2Router02Part.sol\":7236:7237  0 */\n      0x00\n        /* \"v2_periphery/UniswapV2Router02Part.sol\":7226:7238  new bytes(0) */\n      0xffffffffffffffff\n      dup2\n      gt\n      iszero\n      tag_560\n      jumpi\n      tag_561\n      tag_409\n      jump\t// in\n    tag_561:\n    tag_560:\n      mload(0x40)\n      swap1\n      dup1\n      dup3\n      mstore\n      dup1\n      0x1f\n      add\n      not(0x1f)\n      and\n      0x20\n      add\n      dup3\n      add\n      0x40\n      mstore\n      dup1\n      iszero\n      tag_562\n      jumpi\n      dup2\n      0x20\n      add\n      0x01\n      dup3\n      mul\n      dup1\n      calldatasize\n      dup4\n      calldatacopy\n      dup1\n      dup3\n      add\n      swap2\n      pop\n      pop\n      swap1\n      pop\n    tag_562:\n      pop\n        /* \"v2_periphery/UniswapV2Router02Part.sol\":7188:7239  pair.swap(amount0Out, amount1Out, to, new bytes(0)) */\n      mload(0x40)\n      dup6\n      0xffffffff\n      and\n      0xe0\n      shl\n      dup2\n      mstore\n      0x04\n      add\n      tag_563\n      swap5\n      swap4\n      swap3\n      swap2\n      swap1\n      tag_483\n      jump\t// in\n    tag_563:\n      0x00\n      mload(0x40)\n      dup1\n      dup4\n      sub\n      dup2\n      0x00\n      dup8\n      dup1\n      extcodesize\n      iszero\n      dup1\n      iszero\n      tag_564\n      jumpi\n      0x00\n      dup1\n      revert\n    tag_564:\n      pop\n      gas\n      call\n      iszero\n      dup1\n      iszero\n      tag_566\n      jumpi\n      returndatasize\n      0x00\n      dup1\n      returndatacopy\n      revert(0x00, returndatasize)\n    tag_566:\n      pop\n      pop\n      pop\n      pop\n        /* \"v2_periphery/UniswapV2Router02Part.sol\":6193:7251  {... */\n      pop\n      pop\n      pop\n      pop\n      pop\n      pop\n      pop\n      pop\n      pop\n        /* \"v2_periphery/UniswapV2Router02Part.sol\":6188:6191  i++ */\n      dup1\n      dup1\n      tag_567\n      swap1\n      tag_433\n      jump\t// in\n    tag_567:\n      swap2\n      pop\n      pop\n        /* \"v2_periphery/UniswapV2Router02Part.sol\":6154:7251  for (uint i; i < path.length - 1; i++) {... */\n      jump(tag_528)\n    tag_529:\n      pop\n        /* \"v2_periphery/UniswapV2Router02Part.sol\":6046:7258  function _swapSupportingFeeOnTransferTokens(address[] memory path, address _to) internal virtual {... */\n      pop\n      pop\n      jump\t// out\n        /* \"v2_periphery/libraries/UniswapV2Library.sol\":1295:1686  function getReserves(address factory, address tokenA, address tokenB) internal view returns (uint reserveA, uint reserveB) {... */\n    tag_424:\n        /* \"v2_periphery/libraries/UniswapV2Library.sol\":1388:1401  uint reserveA */\n      0x00\n        /* \"v2_periphery/libraries/UniswapV2Library.sol\":1403:1416  uint reserveB */\n      dup1\n        /* \"v2_periphery/libraries/UniswapV2Library.sol\":1430:1444  address token0 */\n      0x00\n        /* \"v2_periphery/libraries/UniswapV2Library.sol\":1449:1475  sortTokens(tokenA, tokenB) */\n      tag_569\n        /* \"v2_periphery/libraries/UniswapV2Library.sol\":1460:1466  tokenA */\n      dup6\n        /* \"v2_periphery/libraries/UniswapV2Library.sol\":1468:1474  tokenB */\n      dup6\n        /* \"v2_periphery/libraries/UniswapV2Library.sol\":1449:1459  sortTokens */\n      tag_436\n        /* \"v2_periphery/libraries/UniswapV2Library.sol\":1449:1475  sortTokens(tokenA, tokenB) */\n      jump\t// in\n    tag_569:\n        /* \"v2_periphery/libraries/UniswapV2Library.sol\":1429:1475  (address token0,) = sortTokens(tokenA, tokenB) */\n      pop\n      swap1\n      pop\n        /* \"v2_periphery/libraries/UniswapV2Library.sol\":1487:1500  uint reserve0 */\n      0x00\n        /* \"v2_periphery/libraries/UniswapV2Library.sol\":1502:1515  uint reserve1 */\n      dup1\n        /* \"v2_periphery/libraries/UniswapV2Library.sol\":1535:1567  pairFor(factory, tokenA, tokenB) */\n      tag_570\n        /* \"v2_periphery/libraries/UniswapV2Library.sol\":1543:1550  factory */\n      dup9\n        /* \"v2_periphery/libraries/UniswapV2Library.sol\":1552:1558  tokenA */\n      dup9\n        /* \"v2_periphery/libraries/UniswapV2Library.sol\":1560:1566  tokenB */\n      dup9\n        /* \"v2_periphery/libraries/UniswapV2Library.sol\":1535:1542  pairFor */\n      tag_99\n        /* \"v2_periphery/libraries/UniswapV2Library.sol\":1535:1567  pairFor(factory, tokenA, tokenB) */\n      jump\t// in\n    tag_570:\n        /* \"v2_periphery/libraries/UniswapV2Library.sol\":1520:1580  IUniswapV2Pair(pairFor(factory, tokenA, tokenB)).getReserves */\n      0xffffffffffffffffffffffffffffffffffffffff\n      and\n      0x0902f1ac\n        /* \"v2_periphery/libraries/UniswapV2Library.sol\":1520:1582  IUniswapV2Pair(pairFor(factory, tokenA, tokenB)).getReserves() */\n      mload(0x40)\n      dup2\n      0xffffffff\n      and\n      0xe0\n      shl\n      dup2\n      mstore\n      0x04\n      add\n      0x60\n      mload(0x40)\n      dup1\n      dup4\n      sub\n      dup2\n      dup7\n      gas\n      staticcall\n      iszero\n      dup1\n      iszero\n      tag_572\n      jumpi\n      returndatasize\n      0x00\n      dup1\n      returndatacopy\n      revert(0x00, returndatasize)\n    tag_572:\n      pop\n      pop\n      pop\n      pop\n      mload(0x40)\n      returndatasize\n      not(0x1f)\n      0x1f\n      dup3\n      add\n      and\n      dup3\n      add\n      dup1\n      0x40\n      mstore\n      pop\n      dup2\n      add\n      swap1\n      tag_573\n      swap2\n      swap1\n      tag_542\n      jump\t// in\n    tag_573:\n        /* \"v2_periphery/libraries/UniswapV2Library.sol\":1486:1582  (uint reserve0, uint reserve1,) = IUniswapV2Pair(pairFor(factory, tokenA, tokenB)).getReserves() */\n      pop\n      0xffffffffffffffffffffffffffff\n      and\n      swap2\n      pop\n      0xffffffffffffffffffffffffffff\n      and\n      swap2\n      pop\n        /* \"v2_periphery/libraries/UniswapV2Library.sol\":1626:1632  token0 */\n      dup3\n        /* \"v2_periphery/libraries/UniswapV2Library.sol\":1616:1632  tokenA == token0 */\n      0xffffffffffffffffffffffffffffffffffffffff\n      and\n        /* \"v2_periphery/libraries/UniswapV2Library.sol\":1616:1622  tokenA */\n      dup8\n        /* \"v2_periphery/libraries/UniswapV2Library.sol\":1616:1632  tokenA == token0 */\n      0xffffffffffffffffffffffffffffffffffffffff\n      and\n      eq\n        /* \"v2_periphery/libraries/UniswapV2Library.sol\":1616:1678  tokenA == token0 ? (reserve0, reserve1) : (reserve1, reserve0) */\n      tag_574\n      jumpi\n        /* \"v2_periphery/libraries/UniswapV2Library.sol\":1659:1667  reserve1 */\n      dup1\n        /* \"v2_periphery/libraries/UniswapV2Library.sol\":1669:1677  reserve0 */\n      dup3\n        /* \"v2_periphery/libraries/UniswapV2Library.sol\":1616:1678  tokenA == token0 ? (reserve0, reserve1) : (reserve1, reserve0) */\n      jump(tag_575)\n    tag_574:\n        /* \"v2_periphery/libraries/UniswapV2Library.sol\":1636:1644  reserve0 */\n      dup2\n        /* \"v2_periphery/libraries/UniswapV2Library.sol\":1646:1654  reserve1 */\n      dup2\n        /* \"v2_periphery/libraries/UniswapV2Library.sol\":1616:1678  tokenA == token0 ? (reserve0, reserve1) : (reserve1, reserve0) */\n    tag_575:\n        /* \"v2_periphery/libraries/UniswapV2Library.sol\":1593:1678  (reserveA, reserveB) = tokenA == token0 ? (reserve0, reserve1) : (reserve1, reserve0) */\n      dup1\n      swap6\n      pop\n      dup2\n      swap7\n      pop\n      pop\n      pop\n        /* \"v2_periphery/libraries/UniswapV2Library.sol\":1418:1686  {... */\n      pop\n      pop\n      pop\n        /* \"v2_periphery/libraries/UniswapV2Library.sol\":1295:1686  function getReserves(address factory, address tokenA, address tokenB) internal view returns (uint reserveA, uint reserveB) {... */\n      swap4\n      pop\n      swap4\n      swap2\n      pop\n      pop\n      jump\t// out\n        /* \"v2_periphery/libraries/UniswapV2Library.sol\":2241:2751  function getAmountOut(uint amountIn, uint reserveIn, uint reserveOut) internal pure returns (uint amountOut) {... */\n    tag_428:\n        /* \"v2_periphery/libraries/UniswapV2Library.sol\":2334:2348  uint amountOut */\n      0x00\n        /* \"v2_periphery/libraries/UniswapV2Library.sol\":2380:2381  0 */\n      dup1\n        /* \"v2_periphery/libraries/UniswapV2Library.sol\":2369:2377  amountIn */\n      dup5\n        /* \"v2_periphery/libraries/UniswapV2Library.sol\":2369:2381  amountIn > 0 */\n      gt\n        /* \"v2_periphery/libraries/UniswapV2Library.sol\":2361:2429  require(amountIn > 0, 'UniswapV2Library: INSUFFICIENT_INPUT_AMOUNT') */\n      tag_577\n      jumpi\n      mload(0x40)\n      0x08c379a000000000000000000000000000000000000000000000000000000000\n      dup2\n      mstore\n      0x04\n      add\n      tag_578\n      swap1\n      tag_579\n      jump\t// in\n    tag_578:\n      mload(0x40)\n      dup1\n      swap2\n      sub\n      swap1\n      revert\n    tag_577:\n        /* \"v2_periphery/libraries/UniswapV2Library.sol\":2460:2461  0 */\n      0x00\n        /* \"v2_periphery/libraries/UniswapV2Library.sol\":2448:2457  reserveIn */\n      dup4\n        /* \"v2_periphery/libraries/UniswapV2Library.sol\":2448:2461  reserveIn > 0 */\n      gt\n        /* \"v2_periphery/libraries/UniswapV2Library.sol\":2448:2479  reserveIn > 0 && reserveOut > 0 */\n      dup1\n      iszero\n      tag_580\n      jumpi\n      pop\n        /* \"v2_periphery/libraries/UniswapV2Library.sol\":2478:2479  0 */\n      0x00\n        /* \"v2_periphery/libraries/UniswapV2Library.sol\":2465:2475  reserveOut */\n      dup3\n        /* \"v2_periphery/libraries/UniswapV2Library.sol\":2465:2479  reserveOut > 0 */\n      gt\n        /* \"v2_periphery/libraries/UniswapV2Library.sol\":2448:2479  reserveIn > 0 && reserveOut > 0 */\n    tag_580:\n        /* \"v2_periphery/libraries/UniswapV2Library.sol\":2440:2524  require(reserveIn > 0 && reserveOut > 0, 'UniswapV2Library: INSUFFICIENT_LIQUIDITY') */\n      tag_581\n      jumpi\n      mload(0x40)\n      0x08c379a000000000000000000000000000000000000000000000000000000000\n      dup2\n      mstore\n      0x04\n      add\n      tag_582\n      swap1\n      tag_583\n      jump\t// in\n    tag_582:\n      mload(0x40)\n      dup1\n      swap2\n      sub\n      swap1\n      revert\n    tag_581:\n        /* \"v2_periphery/libraries/UniswapV2Library.sol\":2535:2555  uint amountInWithFee */\n      0x00\n        /* \"v2_periphery/libraries/UniswapV2Library.sol\":2569:2572  997 */\n      0x03e5\n        /* \"v2_periphery/libraries/UniswapV2Library.sol\":2558:2566  amountIn */\n      dup6\n        /* \"v2_periphery/libraries/UniswapV2Library.sol\":2558:2572  amountIn * 997 */\n      tag_584\n      swap2\n      swap1\n      tag_585\n      jump\t// in\n    tag_584:\n        /* \"v2_periphery/libraries/UniswapV2Library.sol\":2535:2572  uint amountInWithFee = amountIn * 997 */\n      swap1\n      pop\n        /* \"v2_periphery/libraries/UniswapV2Library.sol\":2584:2598  uint numerator */\n      0x00\n        /* \"v2_periphery/libraries/UniswapV2Library.sol\":2619:2629  reserveOut */\n      dup4\n        /* \"v2_periphery/libraries/UniswapV2Library.sol\":2601:2616  amountInWithFee */\n      dup3\n        /* \"v2_periphery/libraries/UniswapV2Library.sol\":2601:2629  amountInWithFee * reserveOut */\n      tag_586\n      swap2\n      swap1\n      tag_585\n      jump\t// in\n    tag_586:\n        /* \"v2_periphery/libraries/UniswapV2Library.sol\":2584:2629  uint numerator = amountInWithFee * reserveOut */\n      swap1\n      pop\n        /* \"v2_periphery/libraries/UniswapV2Library.sol\":2641:2657  uint denominator */\n      0x00\n        /* \"v2_periphery/libraries/UniswapV2Library.sol\":2681:2696  amountInWithFee */\n      dup3\n        /* \"v2_periphery/libraries/UniswapV2Library.sol\":2673:2677  1000 */\n      0x03e8\n        /* \"v2_periphery/libraries/UniswapV2Library.sol\":2661:2670  reserveIn */\n      dup8\n        /* \"v2_periphery/libraries/UniswapV2Library.sol\":2661:2677  reserveIn * 1000 */\n      tag_587\n      swap2\n      swap1\n      tag_585\n      jump\t// in\n    tag_587:\n        /* \"v2_periphery/libraries/UniswapV2Library.sol\":2660:2696  (reserveIn * 1000) + amountInWithFee */\n      tag_588\n      swap2\n      swap1\n      tag_421\n      jump\t// in\n    tag_588:\n        /* \"v2_periphery/libraries/UniswapV2Library.sol\":2641:2696  uint denominator = (reserveIn * 1000) + amountInWithFee */\n      swap1\n      pop\n        /* \"v2_periphery/libraries/UniswapV2Library.sol\":2732:2743  denominator */\n      dup1\n        /* \"v2_periphery/libraries/UniswapV2Library.sol\":2720:2729  numerator */\n      dup3\n        /* \"v2_periphery/libraries/UniswapV2Library.sol\":2720:2743  numerator / denominator */\n      tag_589\n      swap2\n      swap1\n      tag_590\n      jump\t// in\n    tag_589:\n        /* \"v2_periphery/libraries/UniswapV2Library.sol\":2708:2743  amountOut = numerator / denominator */\n      swap4\n      pop\n        /* \"v2_periphery/libraries/UniswapV2Library.sol\":2350:2751  {... */\n      pop\n      pop\n      pop\n        /* \"v2_periphery/libraries/UniswapV2Library.sol\":2241:2751  function getAmountOut(uint amountIn, uint reserveIn, uint reserveOut) internal pure returns (uint amountOut) {... */\n      swap4\n      swap3\n      pop\n      pop\n      pop\n      jump\t// out\n        /* \"v2_periphery/libraries/UniswapV2Library.sol\":309:658  function sortTokens(address tokenA, address tokenB) internal pure returns (address token0, address token1) {... */\n    tag_436:\n        /* \"v2_periphery/libraries/UniswapV2Library.sol\":384:398  address token0 */\n      0x00\n        /* \"v2_periphery/libraries/UniswapV2Library.sol\":400:414  address token1 */\n      dup1\n        /* \"v2_periphery/libraries/UniswapV2Library.sol\":445:451  tokenB */\n      dup3\n        /* \"v2_periphery/libraries/UniswapV2Library.sol\":435:451  tokenA != tokenB */\n      0xffffffffffffffffffffffffffffffffffffffff\n      and\n        /* \"v2_periphery/libraries/UniswapV2Library.sol\":435:441  tokenA */\n      dup5\n        /* \"v2_periphery/libraries/UniswapV2Library.sol\":435:451  tokenA != tokenB */\n      0xffffffffffffffffffffffffffffffffffffffff\n      and\n      sub\n        /* \"v2_periphery/libraries/UniswapV2Library.sol\":427:493  require(tokenA != tokenB, 'UniswapV2Library: IDENTICAL_ADDRESSES') */\n      tag_592\n      jumpi\n      mload(0x40)\n      0x08c379a000000000000000000000000000000000000000000000000000000000\n      dup2\n      mstore\n      0x04\n      add\n      tag_593\n      swap1\n      tag_594\n      jump\t// in\n    tag_593:\n      mload(0x40)\n      dup1\n      swap2\n      sub\n      swap1\n      revert\n    tag_592:\n        /* \"v2_periphery/libraries/UniswapV2Library.sol\":532:538  tokenB */\n      dup3\n        /* \"v2_periphery/libraries/UniswapV2Library.sol\":523:538  tokenA < tokenB */\n      0xffffffffffffffffffffffffffffffffffffffff\n      and\n        /* \"v2_periphery/libraries/UniswapV2Library.sol\":523:529  tokenA */\n      dup5\n        /* \"v2_periphery/libraries/UniswapV2Library.sol\":523:538  tokenA < tokenB */\n      0xffffffffffffffffffffffffffffffffffffffff\n      and\n      lt\n        /* \"v2_periphery/libraries/UniswapV2Library.sol\":523:576  tokenA < tokenB ? (tokenA, tokenB) : (tokenB, tokenA) */\n      tag_595\n      jumpi\n        /* \"v2_periphery/libraries/UniswapV2Library.sol\":561:567  tokenB */\n      dup3\n        /* \"v2_periphery/libraries/UniswapV2Library.sol\":569:575  tokenA */\n      dup5\n        /* \"v2_periphery/libraries/UniswapV2Library.sol\":523:576  tokenA < tokenB ? (tokenA, tokenB) : (tokenB, tokenA) */\n      jump(tag_596)\n    tag_595:\n        /* \"v2_periphery/libraries/UniswapV2Library.sol\":542:548  tokenA */\n      dup4\n        /* \"v2_periphery/libraries/UniswapV2Library.sol\":550:556  tokenB */\n      dup4\n        /* \"v2_periphery/libraries/UniswapV2Library.sol\":523:576  tokenA < tokenB ? (tokenA, tokenB) : (tokenB, tokenA) */\n    tag_596:\n        /* \"v2_periphery/libraries/UniswapV2Library.sol\":504:576  (token0, token1) = tokenA < tokenB ? (tokenA, tokenB) : (tokenB, tokenA) */\n      dup1\n      swap3\n      pop\n      dup2\n      swap4\n      pop\n      pop\n      pop\n        /* \"v2_periphery/libraries/UniswapV2Library.sol\":613:614  0 */\n      0x00\n        /* \"v2_periphery/libraries/UniswapV2Library.sol\":595:615  token0 != address(0) */\n      0xffffffffffffffffffffffffffffffffffffffff\n      and\n        /* \"v2_periphery/libraries/UniswapV2Library.sol\":595:601  token0 */\n      dup3\n        /* \"v2_periphery/libraries/UniswapV2Library.sol\":595:615  token0 != address(0) */\n      0xffffffffffffffffffffffffffffffffffffffff\n      and\n      sub\n        /* \"v2_periphery/libraries/UniswapV2Library.sol\":587:650  require(token0 != address(0), 'UniswapV2Library: ZERO_ADDRESS') */\n      tag_597\n      jumpi\n      mload(0x40)\n      0x08c379a000000000000000000000000000000000000000000000000000000000\n      dup2\n      mstore\n      0x04\n      add\n      tag_598\n      swap1\n      tag_599\n      jump\t// in\n    tag_598:\n      mload(0x40)\n      dup1\n      swap2\n      sub\n      swap1\n      revert\n    tag_597:\n        /* \"v2_periphery/libraries/UniswapV2Library.sol\":309:658  function sortTokens(address tokenA, address tokenB) internal pure returns (address token0, address token1) {... */\n      swap3\n      pop\n      swap3\n      swap1\n      pop\n      jump\t// out\n        /* \"v2_periphery/libraries/UniswapV2Library.sol\":2872:3334  function getAmountIn(uint amountOut, uint reserveIn, uint reserveOut) internal pure returns (uint amountIn) {... */\n    tag_521:\n        /* \"v2_periphery/libraries/UniswapV2Library.sol\":2965:2978  uint amountIn */\n      0x00\n        /* \"v2_periphery/libraries/UniswapV2Library.sol\":3011:3012  0 */\n      dup1\n        /* \"v2_periphery/libraries/UniswapV2Library.sol\":2999:3008  amountOut */\n      dup5\n        /* \"v2_periphery/libraries/UniswapV2Library.sol\":2999:3012  amountOut > 0 */\n      gt\n        /* \"v2_periphery/libraries/UniswapV2Library.sol\":2991:3061  require(amountOut > 0, 'UniswapV2Library: INSUFFICIENT_OUTPUT_AMOUNT') */\n      tag_601\n      jumpi\n      mload(0x40)\n      0x08c379a000000000000000000000000000000000000000000000000000000000\n      dup2\n      mstore\n      0x04\n      add\n      tag_602\n      swap1\n      tag_603\n      jump\t// in\n    tag_602:\n      mload(0x40)\n      dup1\n      swap2\n      sub\n      swap1\n      revert\n    tag_601:\n        /* \"v2_periphery/libraries/UniswapV2Library.sol\":3092:3093  0 */\n      0x00\n        /* \"v2_periphery/libraries/UniswapV2Library.sol\":3080:3089  reserveIn */\n      dup4\n        /* \"v2_periphery/libraries/UniswapV2Library.sol\":3080:3093  reserveIn > 0 */\n      gt\n        /* \"v2_periphery/libraries/UniswapV2Library.sol\":3080:3111  reserveIn > 0 && reserveOut > 0 */\n      dup1\n      iszero\n      tag_604\n      jumpi\n      pop\n        /* \"v2_periphery/libraries/UniswapV2Library.sol\":3110:3111  0 */\n      0x00\n        /* \"v2_periphery/libraries/UniswapV2Library.sol\":3097:3107  reserveOut */\n      dup3\n        /* \"v2_periphery/libraries/UniswapV2Library.sol\":3097:3111  reserveOut > 0 */\n      gt\n        /* \"v2_periphery/libraries/UniswapV2Library.sol\":3080:3111  reserveIn > 0 && reserveOut > 0 */\n    tag_604:\n        /* \"v2_periphery/libraries/UniswapV2Library.sol\":3072:3156  require(reserveIn > 0 && reserveOut > 0, 'UniswapV2Library: INSUFFICIENT_LIQUIDITY') */\n      tag_605\n      jumpi\n      mload(0x40)\n      0x08c379a000000000000000000000000000000000000000000000000000000000\n      dup2\n      mstore\n      0x04\n      add\n      tag_606\n      swap1\n      tag_583\n      jump\t// in\n    tag_606:\n      mload(0x40)\n      dup1\n      swap2\n      sub\n      swap1\n      revert\n    tag_605:\n        /* \"v2_periphery/libraries/UniswapV2Library.sol\":3167:3181  uint numerator */\n      0x00\n        /* \"v2_periphery/libraries/UniswapV2Library.sol\":3208:3212  1000 */\n      0x03e8\n        /* \"v2_periphery/libraries/UniswapV2Library.sol\":3196:3205  amountOut */\n      dup6\n        /* \"v2_periphery/libraries/UniswapV2Library.sol\":3184:3193  reserveIn */\n      dup6\n        /* \"v2_periphery/libraries/UniswapV2Library.sol\":3184:3205  reserveIn * amountOut */\n      tag_607\n      swap2\n      swap1\n      tag_585\n      jump\t// in\n    tag_607:\n        /* \"v2_periphery/libraries/UniswapV2Library.sol\":3184:3212  reserveIn * amountOut * 1000 */\n      tag_608\n      swap2\n      swap1\n      tag_585\n      jump\t// in\n    tag_608:\n        /* \"v2_periphery/libraries/UniswapV2Library.sol\":3167:3212  uint numerator = reserveIn * amountOut * 1000 */\n      swap1\n      pop\n        /* \"v2_periphery/libraries/UniswapV2Library.sol\":3224:3240  uint denominator */\n      0x00\n        /* \"v2_periphery/libraries/UniswapV2Library.sol\":3270:3273  997 */\n      0x03e5\n        /* \"v2_periphery/libraries/UniswapV2Library.sol\":3257:3266  amountOut */\n      dup7\n        /* \"v2_periphery/libraries/UniswapV2Library.sol\":3244:3254  reserveOut */\n      dup6\n        /* \"v2_periphery/libraries/UniswapV2Library.sol\":3244:3266  reserveOut - amountOut */\n      tag_609\n      swap2\n      swap1\n      tag_71\n      jump\t// in\n    tag_609:\n        /* \"v2_periphery/libraries/UniswapV2Library.sol\":3243:3273  (reserveOut - amountOut) * 997 */\n      tag_610\n      swap2\n      swap1\n      tag_585\n      jump\t// in\n    tag_610:\n        /* \"v2_periphery/libraries/UniswapV2Library.sol\":3224:3273  uint denominator = (reserveOut - amountOut) * 997 */\n      swap1\n      pop\n        /* \"v2_periphery/libraries/UniswapV2Library.sol\":3324:3325  1 */\n      0x01\n        /* \"v2_periphery/libraries/UniswapV2Library.sol\":3309:3320  denominator */\n      dup2\n        /* \"v2_periphery/libraries/UniswapV2Library.sol\":3297:3306  numerator */\n      dup4\n        /* \"v2_periphery/libraries/UniswapV2Library.sol\":3297:3320  numerator / denominator */\n      tag_611\n      swap2\n      swap1\n      tag_590\n      jump\t// in\n    tag_611:\n        /* \"v2_periphery/libraries/UniswapV2Library.sol\":3296:3325  (numerator / denominator) + 1 */\n      tag_612\n      swap2\n      swap1\n      tag_421\n      jump\t// in\n    tag_612:\n        /* \"v2_periphery/libraries/UniswapV2Library.sol\":3285:3325  amountIn = (numerator / denominator) + 1 */\n      swap3\n      pop\n        /* \"v2_periphery/libraries/UniswapV2Library.sol\":2980:3334  {... */\n      pop\n      pop\n        /* \"v2_periphery/libraries/UniswapV2Library.sol\":2872:3334  function getAmountIn(uint amountOut, uint reserveIn, uint reserveOut) internal pure returns (uint amountIn) {... */\n      swap4\n      swap3\n      pop\n      pop\n      pop\n      jump\t// out\n        /* \"#utility.yul\":88:205   */\n    tag_614:\n        /* \"#utility.yul\":197:198   */\n      0x00\n        /* \"#utility.yul\":194:195   */\n      dup1\n        /* \"#utility.yul\":187:199   */\n      revert\n        /* \"#utility.yul\":211:328   */\n    tag_615:\n        /* \"#utility.yul\":320:321   */\n      0x00\n        /* \"#utility.yul\":317:318   */\n      dup1\n        /* \"#utility.yul\":310:322   */\n      revert\n        /* \"#utility.yul\":334:411   */\n    tag_616:\n        /* \"#utility.yul\":371:378   */\n      0x00\n        /* \"#utility.yul\":400:405   */\n      dup2\n        /* \"#utility.yul\":389:405   */\n      swap1\n      pop\n        /* \"#utility.yul\":334:411   */\n      swap2\n      swap1\n      pop\n      jump\t// out\n        /* \"#utility.yul\":417:539   */\n    tag_617:\n        /* \"#utility.yul\":490:514   */\n      tag_698\n        /* \"#utility.yul\":508:513   */\n      dup2\n        /* \"#utility.yul\":490:514   */\n      tag_616\n      jump\t// in\n    tag_698:\n        /* \"#utility.yul\":483:488   */\n      dup2\n        /* \"#utility.yul\":480:515   */\n      eq\n        /* \"#utility.yul\":470:533   */\n      tag_699\n      jumpi\n        /* \"#utility.yul\":529:530   */\n      0x00\n        /* \"#utility.yul\":526:527   */\n      dup1\n        /* \"#utility.yul\":519:531   */\n      revert\n        /* \"#utility.yul\":470:533   */\n    tag_699:\n        /* \"#utility.yul\":417:539   */\n      pop\n      jump\t// out\n        /* \"#utility.yul\":545:684   */\n    tag_618:\n        /* \"#utility.yul\":591:596   */\n      0x00\n        /* \"#utility.yul\":629:635   */\n      dup2\n        /* \"#utility.yul\":616:636   */\n      calldataload\n        /* \"#utility.yul\":607:636   */\n      swap1\n      pop\n        /* \"#utility.yul\":645:678   */\n      tag_701\n        /* \"#utility.yul\":672:677   */\n      dup2\n        /* \"#utility.yul\":645:678   */\n      tag_617\n      jump\t// in\n    tag_701:\n        /* \"#utility.yul\":545:684   */\n      swap3\n      swap2\n      pop\n      pop\n      jump\t// out\n        /* \"#utility.yul\":690:807   */\n    tag_619:\n        /* \"#utility.yul\":799:800   */\n      0x00\n        /* \"#utility.yul\":796:797   */\n      dup1\n        /* \"#utility.yul\":789:801   */\n      revert\n        /* \"#utility.yul\":813:930   */\n    tag_620:\n        /* \"#utility.yul\":922:923   */\n      0x00\n        /* \"#utility.yul\":919:920   */\n      dup1\n        /* \"#utility.yul\":912:924   */\n      revert\n        /* \"#utility.yul\":936:1053   */\n    tag_621:\n        /* \"#utility.yul\":1045:1046   */\n      0x00\n        /* \"#utility.yul\":1042:1043   */\n      dup1\n        /* \"#utility.yul\":1035:1047   */\n      revert\n        /* \"#utility.yul\":1076:1644   */\n    tag_622:\n        /* \"#utility.yul\":1149:1157   */\n      0x00\n        /* \"#utility.yul\":1159:1165   */\n      dup1\n        /* \"#utility.yul\":1209:1212   */\n      dup4\n        /* \"#utility.yul\":1202:1206   */\n      0x1f\n        /* \"#utility.yul\":1194:1200   */\n      dup5\n        /* \"#utility.yul\":1190:1207   */\n      add\n        /* \"#utility.yul\":1186:1213   */\n      slt\n        /* \"#utility.yul\":1176:1298   */\n      tag_706\n      jumpi\n        /* \"#utility.yul\":1217:1296   */\n      tag_707\n      tag_619\n      jump\t// in\n    tag_707:\n        /* \"#utility.yul\":1176:1298   */\n    tag_706:\n        /* \"#utility.yul\":1330:1336   */\n      dup3\n        /* \"#utility.yul\":1317:1337   */\n      calldataload\n        /* \"#utility.yul\":1307:1337   */\n      swap1\n      pop\n        /* \"#utility.yul\":1360:1378   */\n      0xffffffffffffffff\n        /* \"#utility.yul\":1352:1358   */\n      dup2\n        /* \"#utility.yul\":1349:1379   */\n      gt\n        /* \"#utility.yul\":1346:1463   */\n      iszero\n      tag_708\n      jumpi\n        /* \"#utility.yul\":1382:1461   */\n      tag_709\n      tag_620\n      jump\t// in\n    tag_709:\n        /* \"#utility.yul\":1346:1463   */\n    tag_708:\n        /* \"#utility.yul\":1496:1500   */\n      0x20\n        /* \"#utility.yul\":1488:1494   */\n      dup4\n        /* \"#utility.yul\":1484:1501   */\n      add\n        /* \"#utility.yul\":1472:1501   */\n      swap2\n      pop\n        /* \"#utility.yul\":1550:1553   */\n      dup4\n        /* \"#utility.yul\":1542:1546   */\n      0x20\n        /* \"#utility.yul\":1534:1540   */\n      dup3\n        /* \"#utility.yul\":1530:1547   */\n      mul\n        /* \"#utility.yul\":1520:1528   */\n      dup4\n        /* \"#utility.yul\":1516:1548   */\n      add\n        /* \"#utility.yul\":1513:1554   */\n      gt\n        /* \"#utility.yul\":1510:1638   */\n      iszero\n      tag_710\n      jumpi\n        /* \"#utility.yul\":1557:1636   */\n      tag_711\n      tag_621\n      jump\t// in\n    tag_711:\n        /* \"#utility.yul\":1510:1638   */\n    tag_710:\n        /* \"#utility.yul\":1076:1644   */\n      swap3\n      pop\n      swap3\n      swap1\n      pop\n      jump\t// out\n        /* \"#utility.yul\":1650:1776   */\n    tag_623:\n        /* \"#utility.yul\":1687:1694   */\n      0x00\n        /* \"#utility.yul\":1727:1769   */\n      0xffffffffffffffffffffffffffffffffffffffff\n        /* \"#utility.yul\":1720:1725   */\n      dup3\n        /* \"#utility.yul\":1716:1770   */\n      and\n        /* \"#utility.yul\":1705:1770   */\n      swap1\n      pop\n        /* \"#utility.yul\":1650:1776   */\n      swap2\n      swap1\n      pop\n      jump\t// out\n        /* \"#utility.yul\":1782:1878   */\n    tag_624:\n        /* \"#utility.yul\":1819:1826   */\n      0x00\n        /* \"#utility.yul\":1848:1872   */\n      tag_714\n        /* \"#utility.yul\":1866:1871   */\n      dup3\n        /* \"#utility.yul\":1848:1872   */\n      tag_623\n      jump\t// in\n    tag_714:\n        /* \"#utility.yul\":1837:1872   */\n      swap1\n      pop\n        /* \"#utility.yul\":1782:1878   */\n      swap2\n      swap1\n      pop\n      jump\t// out\n        /* \"#utility.yul\":1884:2006   */\n    tag_625:\n        /* \"#utility.yul\":1957:1981   */\n      tag_716\n        /* \"#utility.yul\":1975:1980   */\n      dup2\n        /* \"#utility.yul\":1957:1981   */\n      tag_624\n      jump\t// in\n    tag_716:\n        /* \"#utility.yul\":1950:1955   */\n      dup2\n        /* \"#utility.yul\":1947:1982   */\n      eq\n        /* \"#utility.yul\":1937:2000   */\n      tag_717\n      jumpi\n        /* \"#utility.yul\":1996:1997   */\n      0x00\n        /* \"#utility.yul\":1993:1994   */\n      dup1\n        /* \"#utility.yul\":1986:1998   */\n      revert\n        /* \"#utility.yul\":1937:2000   */\n    tag_717:\n        /* \"#utility.yul\":1884:2006   */\n      pop\n      jump\t// out\n        /* \"#utility.yul\":2012:2151   */\n    tag_626:\n        /* \"#utility.yul\":2058:2063   */\n      0x00\n        /* \"#utility.yul\":2096:2102   */\n      dup2\n        /* \"#utility.yul\":2083:2103   */\n      calldataload\n        /* \"#utility.yul\":2074:2103   */\n      swap1\n      pop\n        /* \"#utility.yul\":2112:2145   */\n      tag_719\n        /* \"#utility.yul\":2139:2144   */\n      dup2\n        /* \"#utility.yul\":2112:2145   */\n      tag_625\n      jump\t// in\n    tag_719:\n        /* \"#utility.yul\":2012:2151   */\n      swap3\n      swap2\n      pop\n      pop\n      jump\t// out\n        /* \"#utility.yul\":2157:3298   */\n    tag_17:\n        /* \"#utility.yul\":2279:2285   */\n      0x00\n        /* \"#utility.yul\":2287:2293   */\n      dup1\n        /* \"#utility.yul\":2295:2301   */\n      0x00\n        /* \"#utility.yul\":2303:2309   */\n      dup1\n        /* \"#utility.yul\":2311:2317   */\n      0x00\n        /* \"#utility.yul\":2319:2325   */\n      dup1\n        /* \"#utility.yul\":2368:2371   */\n      0xa0\n        /* \"#utility.yul\":2356:2365   */\n      dup8\n        /* \"#utility.yul\":2347:2354   */\n      dup10\n        /* \"#utility.yul\":2343:2366   */\n      sub\n        /* \"#utility.yul\":2339:2372   */\n      slt\n        /* \"#utility.yul\":2336:2456   */\n      iszero\n      tag_721\n      jumpi\n        /* \"#utility.yul\":2375:2454   */\n      tag_722\n      tag_614\n      jump\t// in\n    tag_722:\n        /* \"#utility.yul\":2336:2456   */\n    tag_721:\n        /* \"#utility.yul\":2495:2496   */\n      0x00\n        /* \"#utility.yul\":2520:2573   */\n      tag_723\n        /* \"#utility.yul\":2565:2572   */\n      dup10\n        /* \"#utility.yul\":2556:2562   */\n      dup3\n        /* \"#utility.yul\":2545:2554   */\n      dup11\n        /* \"#utility.yul\":2541:2563   */\n      add\n        /* \"#utility.yul\":2520:2573   */\n      tag_618\n      jump\t// in\n    tag_723:\n        /* \"#utility.yul\":2510:2573   */\n      swap7\n      pop\n        /* \"#utility.yul\":2466:2583   */\n      pop\n        /* \"#utility.yul\":2622:2624   */\n      0x20\n        /* \"#utility.yul\":2648:2701   */\n      tag_724\n        /* \"#utility.yul\":2693:2700   */\n      dup10\n        /* \"#utility.yul\":2684:2690   */\n      dup3\n        /* \"#utility.yul\":2673:2682   */\n      dup11\n        /* \"#utility.yul\":2669:2691   */\n      add\n        /* \"#utility.yul\":2648:2701   */\n      tag_618\n      jump\t// in\n    tag_724:\n        /* \"#utility.yul\":2638:2701   */\n      swap6\n      pop\n        /* \"#utility.yul\":2593:2711   */\n      pop\n        /* \"#utility.yul\":2778:2780   */\n      0x40\n        /* \"#utility.yul\":2767:2776   */\n      dup8\n        /* \"#utility.yul\":2763:2781   */\n      add\n        /* \"#utility.yul\":2750:2782   */\n      calldataload\n        /* \"#utility.yul\":2809:2827   */\n      0xffffffffffffffff\n        /* \"#utility.yul\":2801:2807   */\n      dup2\n        /* \"#utility.yul\":2798:2828   */\n      gt\n        /* \"#utility.yul\":2795:2912   */\n      iszero\n      tag_725\n      jumpi\n        /* \"#utility.yul\":2831:2910   */\n      tag_726\n      tag_615\n      jump\t// in\n    tag_726:\n        /* \"#utility.yul\":2795:2912   */\n    tag_725:\n        /* \"#utility.yul\":2944:3024   */\n      tag_727\n        /* \"#utility.yul\":3016:3023   */\n      dup10\n        /* \"#utility.yul\":3007:3013   */\n      dup3\n        /* \"#utility.yul\":2996:3005   */\n      dup11\n        /* \"#utility.yul\":2992:3014   */\n      add\n        /* \"#utility.yul\":2944:3024   */\n      tag_622\n      jump\t// in\n    tag_727:\n        /* \"#utility.yul\":2926:3024   */\n      swap5\n      pop\n      swap5\n      pop\n        /* \"#utility.yul\":2721:3034   */\n      pop\n        /* \"#utility.yul\":3073:3075   */\n      0x60\n        /* \"#utility.yul\":3099:3152   */\n      tag_728\n        /* \"#utility.yul\":3144:3151   */\n      dup10\n        /* \"#utility.yul\":3135:3141   */\n      dup3\n        /* \"#utility.yul\":3124:3133   */\n      dup11\n        /* \"#utility.yul\":3120:3142   */\n      add\n        /* \"#utility.yul\":3099:3152   */\n      tag_626\n      jump\t// in\n    tag_728:\n        /* \"#utility.yul\":3089:3152   */\n      swap3\n      pop\n        /* \"#utility.yul\":3044:3162   */\n      pop\n        /* \"#utility.yul\":3201:3204   */\n      0x80\n        /* \"#utility.yul\":3228:3281   */\n      tag_729\n        /* \"#utility.yul\":3273:3280   */\n      dup10\n        /* \"#utility.yul\":3264:3270   */\n      dup3\n        /* \"#utility.yul\":3253:3262   */\n      dup11\n        /* \"#utility.yul\":3249:3271   */\n      add\n        /* \"#utility.yul\":3228:3281   */\n      tag_618\n      jump\t// in\n    tag_729:\n        /* \"#utility.yul\":3218:3281   */\n      swap2\n      pop\n        /* \"#utility.yul\":3172:3291   */\n      pop\n        /* \"#utility.yul\":2157:3298   */\n      swap3\n      swap6\n      pop\n      swap3\n      swap6\n      pop\n      swap3\n      swap6\n      jump\t// out\n        /* \"#utility.yul\":3304:3418   */\n    tag_627:\n        /* \"#utility.yul\":3371:3377   */\n      0x00\n        /* \"#utility.yul\":3405:3410   */\n      dup2\n        /* \"#utility.yul\":3399:3411   */\n      mload\n        /* \"#utility.yul\":3389:3411   */\n      swap1\n      pop\n        /* \"#utility.yul\":3304:3418   */\n      swap2\n      swap1\n      pop\n      jump\t// out\n        /* \"#utility.yul\":3424:3608   */\n    tag_628:\n        /* \"#utility.yul\":3523:3534   */\n      0x00\n        /* \"#utility.yul\":3557:3563   */\n      dup3\n        /* \"#utility.yul\":3552:3555   */\n      dup3\n        /* \"#utility.yul\":3545:3564   */\n      mstore\n        /* \"#utility.yul\":3597:3601   */\n      0x20\n        /* \"#utility.yul\":3592:3595   */\n      dup3\n        /* \"#utility.yul\":3588:3602   */\n      add\n        /* \"#utility.yul\":3573:3602   */\n      swap1\n      pop\n        /* \"#utility.yul\":3424:3608   */\n      swap3\n      swap2\n      pop\n      pop\n      jump\t// out\n        /* \"#utility.yul\":3614:3746   */\n    tag_629:\n        /* \"#utility.yul\":3681:3685   */\n      0x00\n        /* \"#utility.yul\":3704:3707   */\n      dup2\n        /* \"#utility.yul\":3696:3707   */\n      swap1\n      pop\n        /* \"#utility.yul\":3734:3738   */\n      0x20\n        /* \"#utility.yul\":3729:3732   */\n      dup3\n        /* \"#utility.yul\":3725:3739   */\n      add\n        /* \"#utility.yul\":3717:3739   */\n      swap1\n      pop\n        /* \"#utility.yul\":3614:3746   */\n      swap2\n      swap1\n      pop\n      jump\t// out\n        /* \"#utility.yul\":3752:3860   */\n    tag_630:\n        /* \"#utility.yul\":3829:3853   */\n      tag_734\n        /* \"#utility.yul\":3847:3852   */\n      dup2\n        /* \"#utility.yul\":3829:3853   */\n      tag_616\n      jump\t// in\n    tag_734:\n        /* \"#utility.yul\":3824:3827   */\n      dup3\n        /* \"#utility.yul\":3817:3854   */\n      mstore\n        /* \"#utility.yul\":3752:3860   */\n      pop\n      pop\n      jump\t// out\n        /* \"#utility.yul\":3866:4045   */\n    tag_631:\n        /* \"#utility.yul\":3935:3945   */\n      0x00\n        /* \"#utility.yul\":3956:4002   */\n      tag_736\n        /* \"#utility.yul\":3998:4001   */\n      dup4\n        /* \"#utility.yul\":3990:3996   */\n      dup4\n        /* \"#utility.yul\":3956:4002   */\n      tag_630\n      jump\t// in\n    tag_736:\n        /* \"#utility.yul\":4034:4038   */\n      0x20\n        /* \"#utility.yul\":4029:4032   */\n      dup4\n        /* \"#utility.yul\":4025:4039   */\n      add\n        /* \"#utility.yul\":4011:4039   */\n      swap1\n      pop\n        /* \"#utility.yul\":3866:4045   */\n      swap3\n      swap2\n      pop\n      pop\n      jump\t// out\n        /* \"#utility.yul\":4051:4164   */\n    tag_632:\n        /* \"#utility.yul\":4121:4125   */\n      0x00\n        /* \"#utility.yul\":4153:4157   */\n      0x20\n        /* \"#utility.yul\":4148:4151   */\n      dup3\n        /* \"#utility.yul\":4144:4158   */\n      add\n        /* \"#utility.yul\":4136:4158   */\n      swap1\n      pop\n        /* \"#utility.yul\":4051:4164   */\n      swap2\n      swap1\n      pop\n      jump\t// out\n        /* \"#utility.yul\":4200:4932   */\n    tag_633:\n        /* \"#utility.yul\":4319:4322   */\n      0x00\n        /* \"#utility.yul\":4348:4402   */\n      tag_739\n        /* \"#utility.yul\":4396:4401   */\n      dup3\n        /* \"#utility.yul\":4348:4402   */\n      tag_627\n      jump\t// in\n    tag_739:\n        /* \"#utility.yul\":4418:4504   */\n      tag_740\n        /* \"#utility.yul\":4497:4503   */\n      dup2\n        /* \"#utility.yul\":4492:4495   */\n      dup6\n        /* \"#utility.yul\":4418:4504   */\n      tag_628\n      jump\t// in\n    tag_740:\n        /* \"#utility.yul\":4411:4504   */\n      swap4\n      pop\n        /* \"#utility.yul\":4528:4584   */\n      tag_741\n        /* \"#utility.yul\":4578:4583   */\n      dup4\n        /* \"#utility.yul\":4528:4584   */\n      tag_629\n      jump\t// in\n    tag_741:\n        /* \"#utility.yul\":4607:4614   */\n      dup1\n        /* \"#utility.yul\":4638:4639   */\n      0x00\n        /* \"#utility.yul\":4623:4907   */\n    tag_742:\n        /* \"#utility.yul\":4648:4654   */\n      dup4\n        /* \"#utility.yul\":4645:4646   */\n      dup2\n        /* \"#utility.yul\":4642:4655   */\n      lt\n        /* \"#utility.yul\":4623:4907   */\n      iszero\n      tag_744\n      jumpi\n        /* \"#utility.yul\":4724:4730   */\n      dup2\n        /* \"#utility.yul\":4718:4731   */\n      mload\n        /* \"#utility.yul\":4751:4814   */\n      tag_745\n        /* \"#utility.yul\":4810:4813   */\n      dup9\n        /* \"#utility.yul\":4795:4808   */\n      dup3\n        /* \"#utility.yul\":4751:4814   */\n      tag_631\n      jump\t// in\n    tag_745:\n        /* \"#utility.yul\":4744:4814   */\n      swap8\n      pop\n        /* \"#utility.yul\":4837:4897   */\n      tag_746\n        /* \"#utility.yul\":4890:4896   */\n      dup4\n        /* \"#utility.yul\":4837:4897   */\n      tag_632\n      jump\t// in\n    tag_746:\n        /* \"#utility.yul\":4827:4897   */\n      swap3\n      pop\n        /* \"#utility.yul\":4683:4907   */\n      pop\n        /* \"#utility.yul\":4670:4671   */\n      0x01\n        /* \"#utility.yul\":4667:4668   */\n      dup2\n        /* \"#utility.yul\":4663:4672   */\n      add\n        /* \"#utility.yul\":4658:4672   */\n      swap1\n      pop\n        /* \"#utility.yul\":4623:4907   */\n      jump(tag_742)\n    tag_744:\n        /* \"#utility.yul\":4627:4641   */\n      pop\n        /* \"#utility.yul\":4923:4926   */\n      dup6\n        /* \"#utility.yul\":4916:4926   */\n      swap4\n      pop\n        /* \"#utility.yul\":4324:4932   */\n      pop\n      pop\n      pop\n        /* \"#utility.yul\":4200:4932   */\n      swap3\n      swap2\n      pop\n      pop\n      jump\t// out\n        /* \"#utility.yul\":4938:5311   */\n    tag_20:\n        /* \"#utility.yul\":5081:5085   */\n      0x00\n        /* \"#utility.yul\":5119:5121   */\n      0x20\n        /* \"#utility.yul\":5108:5117   */\n      dup3\n        /* \"#utility.yul\":5104:5122   */\n      add\n        /* \"#utility.yul\":5096:5122   */\n      swap1\n      pop\n        /* \"#utility.yul\":5168:5177   */\n      dup2\n        /* \"#utility.yul\":5162:5166   */\n      dup2\n        /* \"#utility.yul\":5158:5178   */\n      sub\n        /* \"#utility.yul\":5154:5155   */\n      0x00\n        /* \"#utility.yul\":5143:5152   */\n      dup4\n        /* \"#utility.yul\":5139:5156   */\n      add\n        /* \"#utility.yul\":5132:5179   */\n      mstore\n        /* \"#utility.yul\":5196:5304   */\n      tag_748\n        /* \"#utility.yul\":5299:5303   */\n      dup2\n        /* \"#utility.yul\":5290:5296   */\n      dup5\n        /* \"#utility.yul\":5196:5304   */\n      tag_633\n      jump\t// in\n    tag_748:\n        /* \"#utility.yul\":5188:5304   */\n      swap1\n      pop\n        /* \"#utility.yul\":4938:5311   */\n      swap3\n      swap2\n      pop\n      pop\n      jump\t// out\n        /* \"#utility.yul\":5317:6312   */\n    tag_41:\n        /* \"#utility.yul\":5430:5436   */\n      0x00\n        /* \"#utility.yul\":5438:5444   */\n      dup1\n        /* \"#utility.yul\":5446:5452   */\n      0x00\n        /* \"#utility.yul\":5454:5460   */\n      dup1\n        /* \"#utility.yul\":5462:5468   */\n      0x00\n        /* \"#utility.yul\":5511:5514   */\n      0x80\n        /* \"#utility.yul\":5499:5508   */\n      dup7\n        /* \"#utility.yul\":5490:5497   */\n      dup9\n        /* \"#utility.yul\":5486:5509   */\n      sub\n        /* \"#utility.yul\":5482:5515   */\n      slt\n        /* \"#utility.yul\":5479:5599   */\n      iszero\n      tag_750\n      jumpi\n        /* \"#utility.yul\":5518:5597   */\n      tag_751\n      tag_614\n      jump\t// in\n    tag_751:\n        /* \"#utility.yul\":5479:5599   */\n    tag_750:\n        /* \"#utility.yul\":5638:5639   */\n      0x00\n        /* \"#utility.yul\":5663:5716   */\n      tag_752\n        /* \"#utility.yul\":5708:5715   */\n      dup9\n        /* \"#utility.yul\":5699:5705   */\n      dup3\n        /* \"#utility.yul\":5688:5697   */\n      dup10\n        /* \"#utility.yul\":5684:5706   */\n      add\n        /* \"#utility.yul\":5663:5716   */\n      tag_618\n      jump\t// in\n    tag_752:\n        /* \"#utility.yul\":5653:5716   */\n      swap6\n      pop\n        /* \"#utility.yul\":5609:5726   */\n      pop\n        /* \"#utility.yul\":5793:5795   */\n      0x20\n        /* \"#utility.yul\":5782:5791   */\n      dup7\n        /* \"#utility.yul\":5778:5796   */\n      add\n        /* \"#utility.yul\":5765:5797   */\n      calldataload\n        /* \"#utility.yul\":5824:5842   */\n      0xffffffffffffffff\n        /* \"#utility.yul\":5816:5822   */\n      dup2\n        /* \"#utility.yul\":5813:5843   */\n      gt\n        /* \"#utility.yul\":5810:5927   */\n      iszero\n      tag_753\n      jumpi\n        /* \"#utility.yul\":5846:5925   */\n      tag_754\n      tag_615\n      jump\t// in\n    tag_754:\n        /* \"#utility.yul\":5810:5927   */\n    tag_753:\n        /* \"#utility.yul\":5959:6039   */\n      tag_755\n        /* \"#utility.yul\":6031:6038   */\n      dup9\n        /* \"#utility.yul\":6022:6028   */\n      dup3\n        /* \"#utility.yul\":6011:6020   */\n      dup10\n        /* \"#utility.yul\":6007:6029   */\n      add\n        /* \"#utility.yul\":5959:6039   */\n      tag_622\n      jump\t// in\n    tag_755:\n        /* \"#utility.yul\":5941:6039   */\n      swap5\n      pop\n      swap5\n      pop\n        /* \"#utility.yul\":5736:6049   */\n      pop\n        /* \"#utility.yul\":6088:6090   */\n      0x40\n        /* \"#utility.yul\":6114:6167   */\n      tag_756\n        /* \"#utility.yul\":6159:6166   */\n      dup9\n        /* \"#utility.yul\":6150:6156   */\n      dup3\n        /* \"#utility.yul\":6139:6148   */\n      dup10\n        /* \"#utility.yul\":6135:6157   */\n      add\n        /* \"#utility.yul\":6114:6167   */\n      tag_626\n      jump\t// in\n    tag_756:\n        /* \"#utility.yul\":6104:6167   */\n      swap3\n      pop\n        /* \"#utility.yul\":6059:6177   */\n      pop\n        /* \"#utility.yul\":6216:6218   */\n      0x60\n        /* \"#utility.yul\":6242:6295   */\n      tag_757\n        /* \"#utility.yul\":6287:6294   */\n      dup9\n        /* \"#utility.yul\":6278:6284   */\n      dup3\n        /* \"#utility.yul\":6267:6276   */\n      dup10\n        /* \"#utility.yul\":6263:6285   */\n      add\n        /* \"#utility.yul\":6242:6295   */\n      tag_618\n      jump\t// in\n    tag_757:\n        /* \"#utility.yul\":6232:6295   */\n      swap2\n      pop\n        /* \"#utility.yul\":6187:6305   */\n      pop\n        /* \"#utility.yul\":5317:6312   */\n      swap3\n      swap6\n      pop\n      swap3\n      swap6\n      swap1\n      swap4\n      pop\n      jump\t// out\n        /* \"#utility.yul\":6318:6436   */\n    tag_634:\n        /* \"#utility.yul\":6405:6429   */\n      tag_759\n        /* \"#utility.yul\":6423:6428   */\n      dup2\n        /* \"#utility.yul\":6405:6429   */\n      tag_624\n      jump\t// in\n    tag_759:\n        /* \"#utility.yul\":6400:6403   */\n      dup3\n        /* \"#utility.yul\":6393:6430   */\n      mstore\n        /* \"#utility.yul\":6318:6436   */\n      pop\n      pop\n      jump\t// out\n        /* \"#utility.yul\":6442:6664   */\n    tag_53:\n        /* \"#utility.yul\":6535:6539   */\n      0x00\n        /* \"#utility.yul\":6573:6575   */\n      0x20\n        /* \"#utility.yul\":6562:6571   */\n      dup3\n        /* \"#utility.yul\":6558:6576   */\n      add\n        /* \"#utility.yul\":6550:6576   */\n      swap1\n      pop\n        /* \"#utility.yul\":6586:6657   */\n      tag_761\n        /* \"#utility.yul\":6654:6655   */\n      0x00\n        /* \"#utility.yul\":6643:6652   */\n      dup4\n        /* \"#utility.yul\":6639:6656   */\n      add\n        /* \"#utility.yul\":6630:6636   */\n      dup5\n        /* \"#utility.yul\":6586:6657   */\n      tag_634\n      jump\t// in\n    tag_761:\n        /* \"#utility.yul\":6442:6664   */\n      swap3\n      swap2\n      pop\n      pop\n      jump\t// out\n        /* \"#utility.yul\":6670:6839   */\n    tag_635:\n        /* \"#utility.yul\":6754:6765   */\n      0x00\n        /* \"#utility.yul\":6788:6794   */\n      dup3\n        /* \"#utility.yul\":6783:6786   */\n      dup3\n        /* \"#utility.yul\":6776:6795   */\n      mstore\n        /* \"#utility.yul\":6828:6832   */\n      0x20\n        /* \"#utility.yul\":6823:6826   */\n      dup3\n        /* \"#utility.yul\":6819:6833   */\n      add\n        /* \"#utility.yul\":6804:6833   */\n      swap1\n      pop\n        /* \"#utility.yul\":6670:6839   */\n      swap3\n      swap2\n      pop\n      pop\n      jump\t// out\n        /* \"#utility.yul\":6845:7019   */\n    tag_636:\n        /* \"#utility.yul\":6985:7011   */\n      0x556e69737761705632526f757465723a20455850495245440000000000000000\n        /* \"#utility.yul\":6981:6982   */\n      0x00\n        /* \"#utility.yul\":6973:6979   */\n      dup3\n        /* \"#utility.yul\":6969:6983   */\n      add\n        /* \"#utility.yul\":6962:7012   */\n      mstore\n        /* \"#utility.yul\":6845:7019   */\n      pop\n      jump\t// out\n        /* \"#utility.yul\":7025:7391   */\n    tag_637:\n        /* \"#utility.yul\":7167:7170   */\n      0x00\n        /* \"#utility.yul\":7188:7255   */\n      tag_765\n        /* \"#utility.yul\":7252:7254   */\n      0x18\n        /* \"#utility.yul\":7247:7250   */\n      dup4\n        /* \"#utility.yul\":7188:7255   */\n      tag_635\n      jump\t// in\n    tag_765:\n        /* \"#utility.yul\":7181:7255   */\n      swap2\n      pop\n        /* \"#utility.yul\":7264:7357   */\n      tag_766\n        /* \"#utility.yul\":7353:7356   */\n      dup3\n        /* \"#utility.yul\":7264:7357   */\n      tag_636\n      jump\t// in\n    tag_766:\n        /* \"#utility.yul\":7382:7384   */\n      0x20\n        /* \"#utility.yul\":7377:7380   */\n      dup3\n        /* \"#utility.yul\":7373:7385   */\n      add\n        /* \"#utility.yul\":7366:7385   */\n      swap1\n      pop\n        /* \"#utility.yul\":7025:7391   */\n      swap2\n      swap1\n      pop\n      jump\t// out\n        /* \"#utility.yul\":7397:7816   */\n    tag_68:\n        /* \"#utility.yul\":7563:7567   */\n      0x00\n        /* \"#utility.yul\":7601:7603   */\n      0x20\n        /* \"#utility.yul\":7590:7599   */\n      dup3\n        /* \"#utility.yul\":7586:7604   */\n      add\n        /* \"#utility.yul\":7578:7604   */\n      swap1\n      pop\n        /* \"#utility.yul\":7650:7659   */\n      dup2\n        /* \"#utility.yul\":7644:7648   */\n      dup2\n        /* \"#utility.yul\":7640:7660   */\n      sub\n        /* \"#utility.yul\":7636:7637   */\n      0x00\n        /* \"#utility.yul\":7625:7634   */\n      dup4\n        /* \"#utility.yul\":7621:7638   */\n      add\n        /* \"#utility.yul\":7614:7661   */\n      mstore\n        /* \"#utility.yul\":7678:7809   */\n      tag_768\n        /* \"#utility.yul\":7804:7808   */\n      dup2\n        /* \"#utility.yul\":7678:7809   */\n      tag_637\n      jump\t// in\n    tag_768:\n        /* \"#utility.yul\":7670:7809   */\n      swap1\n      pop\n        /* \"#utility.yul\":7397:7816   */\n      swap2\n      swap1\n      pop\n      jump\t// out\n        /* \"#utility.yul\":7822:8002   */\n    tag_638:\n        /* \"#utility.yul\":7870:7947   */\n      0x4e487b7100000000000000000000000000000000000000000000000000000000\n        /* \"#utility.yul\":7867:7868   */\n      0x00\n        /* \"#utility.yul\":7860:7948   */\n      mstore\n        /* \"#utility.yul\":7967:7971   */\n      0x11\n        /* \"#utility.yul\":7964:7965   */\n      0x04\n        /* \"#utility.yul\":7957:7972   */\n      mstore\n        /* \"#utility.yul\":7991:7995   */\n      0x24\n        /* \"#utility.yul\":7988:7989   */\n      0x00\n        /* \"#utility.yul\":7981:7996   */\n      revert\n        /* \"#utility.yul\":8008:8199   */\n    tag_71:\n        /* \"#utility.yul\":8048:8052   */\n      0x00\n        /* \"#utility.yul\":8068:8088   */\n      tag_771\n        /* \"#utility.yul\":8086:8087   */\n      dup3\n        /* \"#utility.yul\":8068:8088   */\n      tag_616\n      jump\t// in\n    tag_771:\n        /* \"#utility.yul\":8063:8088   */\n      swap2\n      pop\n        /* \"#utility.yul\":8102:8122   */\n      tag_772\n        /* \"#utility.yul\":8120:8121   */\n      dup4\n        /* \"#utility.yul\":8102:8122   */\n      tag_616\n      jump\t// in\n    tag_772:\n        /* \"#utility.yul\":8097:8122   */\n      swap3\n      pop\n        /* \"#utility.yul\":8141:8142   */\n      dup3\n        /* \"#utility.yul\":8138:8139   */\n      dup3\n        /* \"#utility.yul\":8135:8143   */\n      lt\n        /* \"#utility.yul\":8132:8166   */\n      iszero\n      tag_773\n      jumpi\n        /* \"#utility.yul\":8146:8164   */\n      tag_774\n      tag_638\n      jump\t// in\n    tag_774:\n        /* \"#utility.yul\":8132:8166   */\n    tag_773:\n        /* \"#utility.yul\":8191:8192   */\n      dup3\n        /* \"#utility.yul\":8188:8189   */\n      dup3\n        /* \"#utility.yul\":8184:8193   */\n      sub\n        /* \"#utility.yul\":8176:8193   */\n      swap1\n      pop\n        /* \"#utility.yul\":8008:8199   */\n      swap3\n      swap2\n      pop\n      pop\n      jump\t// out\n        /* \"#utility.yul\":8205:8385   */\n    tag_74:\n        /* \"#utility.yul\":8253:8330   */\n      0x4e487b7100000000000000000000000000000000000000000000000000000000\n        /* \"#utility.yul\":8250:8251   */\n      0x00\n        /* \"#utility.yul\":8243:8331   */\n      mstore\n        /* \"#utility.yul\":8350:8354   */\n      0x32\n        /* \"#utility.yul\":8347:8348   */\n      0x04\n        /* \"#utility.yul\":8340:8355   */\n      mstore\n        /* \"#utility.yul\":8374:8378   */\n      0x24\n        /* \"#utility.yul\":8371:8372   */\n      0x00\n        /* \"#utility.yul\":8364:8379   */\n      revert\n        /* \"#utility.yul\":8391:8720   */\n    tag_76:\n        /* \"#utility.yul\":8450:8456   */\n      0x00\n        /* \"#utility.yul\":8499:8501   */\n      0x20\n        /* \"#utility.yul\":8487:8496   */\n      dup3\n        /* \"#utility.yul\":8478:8485   */\n      dup5\n        /* \"#utility.yul\":8474:8497   */\n      sub\n        /* \"#utility.yul\":8470:8502   */\n      slt\n        /* \"#utility.yul\":8467:8586   */\n      iszero\n      tag_777\n      jumpi\n        /* \"#utility.yul\":8505:8584   */\n      tag_778\n      tag_614\n      jump\t// in\n    tag_778:\n        /* \"#utility.yul\":8467:8586   */\n    tag_777:\n        /* \"#utility.yul\":8625:8626   */\n      0x00\n        /* \"#utility.yul\":8650:8703   */\n      tag_779\n        /* \"#utility.yul\":8695:8702   */\n      dup5\n        /* \"#utility.yul\":8686:8692   */\n      dup3\n        /* \"#utility.yul\":8675:8684   */\n      dup6\n        /* \"#utility.yul\":8671:8693   */\n      add\n        /* \"#utility.yul\":8650:8703   */\n      tag_626\n      jump\t// in\n    tag_779:\n        /* \"#utility.yul\":8640:8703   */\n      swap2\n      pop\n        /* \"#utility.yul\":8596:8713   */\n      pop\n        /* \"#utility.yul\":8391:8720   */\n      swap3\n      swap2\n      pop\n      pop\n      jump\t// out\n        /* \"#utility.yul\":8726:8905   */\n    tag_639:\n        /* \"#utility.yul\":8866:8897   */\n      0x556e69737761705632526f757465723a20494e56414c49445f50415448000000\n        /* \"#utility.yul\":8862:8863   */\n      0x00\n        /* \"#utility.yul\":8854:8860   */\n      dup3\n        /* \"#utility.yul\":8850:8864   */\n      add\n        /* \"#utility.yul\":8843:8898   */\n      mstore\n        /* \"#utility.yul\":8726:8905   */\n      pop\n      jump\t// out\n        /* \"#utility.yul\":8911:9277   */\n    tag_640:\n        /* \"#utility.yul\":9053:9056   */\n      0x00\n        /* \"#utility.yul\":9074:9141   */\n      tag_782\n        /* \"#utility.yul\":9138:9140   */\n      0x1d\n        /* \"#utility.yul\":9133:9136   */\n      dup4\n        /* \"#utility.yul\":9074:9141   */\n      tag_635\n      jump\t// in\n    tag_782:\n        /* \"#utility.yul\":9067:9141   */\n      swap2\n      pop\n        /* \"#utility.yul\":9150:9243   */\n      tag_783\n        /* \"#utility.yul\":9239:9242   */\n      dup3\n        /* \"#utility.yul\":9150:9243   */\n      tag_639\n      jump\t// in\n    tag_783:\n        /* \"#utility.yul\":9268:9270   */\n      0x20\n        /* \"#utility.yul\":9263:9266   */\n      dup3\n        /* \"#utility.yul\":9259:9271   */\n      add\n        /* \"#utility.yul\":9252:9271   */\n      swap1\n      pop\n        /* \"#utility.yul\":8911:9277   */\n      swap2\n      swap1\n      pop\n      jump\t// out\n        /* \"#utility.yul\":9283:9702   */\n    tag_79:\n        /* \"#utility.yul\":9449:9453   */\n      0x00\n        /* \"#utility.yul\":9487:9489   */\n      0x20\n        /* \"#utility.yul\":9476:9485   */\n      dup3\n        /* \"#utility.yul\":9472:9490   */\n      add\n        /* \"#utility.yul\":9464:9490   */\n      swap1\n      pop\n        /* \"#utility.yul\":9536:9545   */\n      dup2\n        /* \"#utility.yul\":9530:9534   */\n      dup2\n        /* \"#utility.yul\":9526:9546   */\n      sub\n        /* \"#utility.yul\":9522:9523   */\n      0x00\n        /* \"#utility.yul\":9511:9520   */\n      dup4\n        /* \"#utility.yul\":9507:9524   */\n      add\n        /* \"#utility.yul\":9500:9547   */\n      mstore\n        /* \"#utility.yul\":9564:9695   */\n      tag_785\n        /* \"#utility.yul\":9690:9694   */\n      dup2\n        /* \"#utility.yul\":9564:9695   */\n      tag_640\n      jump\t// in\n    tag_785:\n        /* \"#utility.yul\":9556:9695   */\n      swap1\n      pop\n        /* \"#utility.yul\":9283:9702   */\n      swap2\n      swap1\n      pop\n      jump\t// out\n        /* \"#utility.yul\":9708:9938   */\n    tag_641:\n        /* \"#utility.yul\":9848:9882   */\n      0x556e69737761705632526f757465723a20494e53554646494349454e545f4f55\n        /* \"#utility.yul\":9844:9845   */\n      0x00\n        /* \"#utility.yul\":9836:9842   */\n      dup3\n        /* \"#utility.yul\":9832:9846   */\n      add\n        /* \"#utility.yul\":9825:9883   */\n      mstore\n        /* \"#utility.yul\":9917:9930   */\n      0x545055545f414d4f554e54000000000000000000000000000000000000000000\n        /* \"#utility.yul\":9912:9914   */\n      0x20\n        /* \"#utility.yul\":9904:9910   */\n      dup3\n        /* \"#utility.yul\":9900:9915   */\n      add\n        /* \"#utility.yul\":9893:9931   */\n      mstore\n        /* \"#utility.yul\":9708:9938   */\n      pop\n      jump\t// out\n        /* \"#utility.yul\":9944:10310   */\n    tag_642:\n        /* \"#utility.yul\":10086:10089   */\n      0x00\n        /* \"#utility.yul\":10107:10174   */\n      tag_788\n        /* \"#utility.yul\":10171:10173   */\n      0x2b\n        /* \"#utility.yul\":10166:10169   */\n      dup4\n        /* \"#utility.yul\":10107:10174   */\n      tag_635\n      jump\t// in\n    tag_788:\n        /* \"#utility.yul\":10100:10174   */\n      swap2\n      pop\n        /* \"#utility.yul\":10183:10276   */\n      tag_789\n        /* \"#utility.yul\":10272:10275   */\n      dup3\n        /* \"#utility.yul\":10183:10276   */\n      tag_641\n      jump\t// in\n    tag_789:\n        /* \"#utility.yul\":10301:10303   */\n      0x40\n        /* \"#utility.yul\":10296:10299   */\n      dup3\n        /* \"#utility.yul\":10292:10304   */\n      add\n        /* \"#utility.yul\":10285:10304   */\n      swap1\n      pop\n        /* \"#utility.yul\":9944:10310   */\n      swap2\n      swap1\n      pop\n      jump\t// out\n        /* \"#utility.yul\":10316:10735   */\n    tag_87:\n        /* \"#utility.yul\":10482:10486   */\n      0x00\n        /* \"#utility.yul\":10520:10522   */\n      0x20\n        /* \"#utility.yul\":10509:10518   */\n      dup3\n        /* \"#utility.yul\":10505:10523   */\n      add\n        /* \"#utility.yul\":10497:10523   */\n      swap1\n      pop\n        /* \"#utility.yul\":10569:10578   */\n      dup2\n        /* \"#utility.yul\":10563:10567   */\n      dup2\n        /* \"#utility.yul\":10559:10579   */\n      sub\n        /* \"#utility.yul\":10555:10556   */\n      0x00\n        /* \"#utility.yul\":10544:10553   */\n      dup4\n        /* \"#utility.yul\":10540:10557   */\n      add\n        /* \"#utility.yul\":10533:10580   */\n      mstore\n        /* \"#utility.yul\":10597:10728   */\n      tag_791\n        /* \"#utility.yul\":10723:10727   */\n      dup2\n        /* \"#utility.yul\":10597:10728   */\n      tag_642\n      jump\t// in\n    tag_791:\n        /* \"#utility.yul\":10589:10728   */\n      swap1\n      pop\n        /* \"#utility.yul\":10316:10735   */\n      swap2\n      swap1\n      pop\n      jump\t// out\n        /* \"#utility.yul\":10741:10859   */\n    tag_643:\n        /* \"#utility.yul\":10828:10852   */\n      tag_793\n        /* \"#utility.yul\":10846:10851   */\n      dup2\n        /* \"#utility.yul\":10828:10852   */\n      tag_616\n      jump\t// in\n    tag_793:\n        /* \"#utility.yul\":10823:10826   */\n      dup3\n        /* \"#utility.yul\":10816:10853   */\n      mstore\n        /* \"#utility.yul\":10741:10859   */\n      pop\n      pop\n      jump\t// out\n        /* \"#utility.yul\":10865:11087   */\n    tag_109:\n        /* \"#utility.yul\":10958:10962   */\n      0x00\n        /* \"#utility.yul\":10996:10998   */\n      0x20\n        /* \"#utility.yul\":10985:10994   */\n      dup3\n        /* \"#utility.yul\":10981:10999   */\n      add\n        /* \"#utility.yul\":10973:10999   */\n      swap1\n      pop\n        /* \"#utility.yul\":11009:11080   */\n      tag_795\n        /* \"#utility.yul\":11077:11078   */\n      0x00\n        /* \"#utility.yul\":11066:11075   */\n      dup4\n        /* \"#utility.yul\":11062:11079   */\n      add\n        /* \"#utility.yul\":11053:11059   */\n      dup5\n        /* \"#utility.yul\":11009:11080   */\n      tag_643\n      jump\t// in\n    tag_795:\n        /* \"#utility.yul\":10865:11087   */\n      swap3\n      swap2\n      pop\n      pop\n      jump\t// out\n        /* \"#utility.yul\":11093:11319   */\n    tag_644:\n        /* \"#utility.yul\":11233:11267   */\n      0x556e69737761705632526f757465723a204558434553534956455f494e505554\n        /* \"#utility.yul\":11229:11230   */\n      0x00\n        /* \"#utility.yul\":11221:11227   */\n      dup3\n        /* \"#utility.yul\":11217:11231   */\n      add\n        /* \"#utility.yul\":11210:11268   */\n      mstore\n        /* \"#utility.yul\":11302:11311   */\n      0x5f414d4f554e5400000000000000000000000000000000000000000000000000\n        /* \"#utility.yul\":11297:11299   */\n      0x20\n        /* \"#utility.yul\":11289:11295   */\n      dup3\n        /* \"#utility.yul\":11285:11300   */\n      add\n        /* \"#utility.yul\":11278:11312   */\n      mstore\n        /* \"#utility.yul\":11093:11319   */\n      pop\n      jump\t// out\n        /* \"#utility.yul\":11325:11691   */\n    tag_645:\n        /* \"#utility.yul\":11467:11470   */\n      0x00\n        /* \"#utility.yul\":11488:11555   */\n      tag_798\n        /* \"#utility.yul\":11552:11554   */\n      0x27\n        /* \"#utility.yul\":11547:11550   */\n      dup4\n        /* \"#utility.yul\":11488:11555   */\n      tag_635\n      jump\t// in\n    tag_798:\n        /* \"#utility.yul\":11481:11555   */\n      swap2\n      pop\n        /* \"#utility.yul\":11564:11657   */\n      tag_799\n        /* \"#utility.yul\":11653:11656   */\n      dup3\n        /* \"#utility.yul\":11564:11657   */\n      tag_644\n      jump\t// in\n    tag_799:\n        /* \"#utility.yul\":11682:11684   */\n      0x40\n        /* \"#utility.yul\":11677:11680   */\n      dup3\n        /* \"#utility.yul\":11673:11685   */\n      add\n        /* \"#utility.yul\":11666:11685   */\n      swap1\n      pop\n        /* \"#utility.yul\":11325:11691   */\n      swap2\n      swap1\n      pop\n      jump\t// out\n        /* \"#utility.yul\":11697:12116   */\n    tag_158:\n        /* \"#utility.yul\":11863:11867   */\n      0x00\n        /* \"#utility.yul\":11901:11903   */\n      0x20\n        /* \"#utility.yul\":11890:11899   */\n      dup3\n        /* \"#utility.yul\":11886:11904   */\n      add\n        /* \"#utility.yul\":11878:11904   */\n      swap1\n      pop\n        /* \"#utility.yul\":11950:11959   */\n      dup2\n        /* \"#utility.yul\":11944:11948   */\n      dup2\n        /* \"#utility.yul\":11940:11960   */\n      sub\n        /* \"#utility.yul\":11936:11937   */\n      0x00\n        /* \"#utility.yul\":11925:11934   */\n      dup4\n        /* \"#utility.yul\":11921:11938   */\n      add\n        /* \"#utility.yul\":11914:11961   */\n      mstore\n        /* \"#utility.yul\":11978:12109   */\n      tag_801\n        /* \"#utility.yul\":12104:12108   */\n      dup2\n        /* \"#utility.yul\":11978:12109   */\n      tag_645\n      jump\t// in\n    tag_801:\n        /* \"#utility.yul\":11970:12109   */\n      swap1\n      pop\n        /* \"#utility.yul\":11697:12116   */\n      swap2\n      swap1\n      pop\n      jump\t// out\n        /* \"#utility.yul\":12122:12265   */\n    tag_646:\n        /* \"#utility.yul\":12179:12184   */\n      0x00\n        /* \"#utility.yul\":12210:12216   */\n      dup2\n        /* \"#utility.yul\":12204:12217   */\n      mload\n        /* \"#utility.yul\":12195:12217   */\n      swap1\n      pop\n        /* \"#utility.yul\":12226:12259   */\n      tag_803\n        /* \"#utility.yul\":12253:12258   */\n      dup2\n        /* \"#utility.yul\":12226:12259   */\n      tag_617\n      jump\t// in\n    tag_803:\n        /* \"#utility.yul\":12122:12265   */\n      swap3\n      swap2\n      pop\n      pop\n      jump\t// out\n        /* \"#utility.yul\":12271:12622   */\n    tag_207:\n        /* \"#utility.yul\":12341:12347   */\n      0x00\n        /* \"#utility.yul\":12390:12392   */\n      0x20\n        /* \"#utility.yul\":12378:12387   */\n      dup3\n        /* \"#utility.yul\":12369:12376   */\n      dup5\n        /* \"#utility.yul\":12365:12388   */\n      sub\n        /* \"#utility.yul\":12361:12393   */\n      slt\n        /* \"#utility.yul\":12358:12477   */\n      iszero\n      tag_805\n      jumpi\n        /* \"#utility.yul\":12396:12475   */\n      tag_806\n      tag_614\n      jump\t// in\n    tag_806:\n        /* \"#utility.yul\":12358:12477   */\n    tag_805:\n        /* \"#utility.yul\":12516:12517   */\n      0x00\n        /* \"#utility.yul\":12541:12605   */\n      tag_807\n        /* \"#utility.yul\":12597:12604   */\n      dup5\n        /* \"#utility.yul\":12588:12594   */\n      dup3\n        /* \"#utility.yul\":12577:12586   */\n      dup6\n        /* \"#utility.yul\":12573:12595   */\n      add\n        /* \"#utility.yul\":12541:12605   */\n      tag_646\n      jump\t// in\n    tag_807:\n        /* \"#utility.yul\":12531:12605   */\n      swap2\n      pop\n        /* \"#utility.yul\":12487:12615   */\n      pop\n        /* \"#utility.yul\":12271:12622   */\n      swap3\n      swap2\n      pop\n      pop\n      jump\t// out\n        /* \"#utility.yul\":12628:12960   */\n    tag_284:\n        /* \"#utility.yul\":12749:12753   */\n      0x00\n        /* \"#utility.yul\":12787:12789   */\n      0x40\n        /* \"#utility.yul\":12776:12785   */\n      dup3\n        /* \"#utility.yul\":12772:12790   */\n      add\n        /* \"#utility.yul\":12764:12790   */\n      swap1\n      pop\n        /* \"#utility.yul\":12800:12871   */\n      tag_809\n        /* \"#utility.yul\":12868:12869   */\n      0x00\n        /* \"#utility.yul\":12857:12866   */\n      dup4\n        /* \"#utility.yul\":12853:12870   */\n      add\n        /* \"#utility.yul\":12844:12850   */\n      dup6\n        /* \"#utility.yul\":12800:12871   */\n      tag_634\n      jump\t// in\n    tag_809:\n        /* \"#utility.yul\":12881:12953   */\n      tag_810\n        /* \"#utility.yul\":12949:12951   */\n      0x20\n        /* \"#utility.yul\":12938:12947   */\n      dup4\n        /* \"#utility.yul\":12934:12952   */\n      add\n        /* \"#utility.yul\":12925:12931   */\n      dup5\n        /* \"#utility.yul\":12881:12953   */\n      tag_643\n      jump\t// in\n    tag_810:\n        /* \"#utility.yul\":12628:12960   */\n      swap4\n      swap3\n      pop\n      pop\n      pop\n      jump\t// out\n        /* \"#utility.yul\":12966:13056   */\n    tag_647:\n        /* \"#utility.yul\":13000:13007   */\n      0x00\n        /* \"#utility.yul\":13043:13048   */\n      dup2\n        /* \"#utility.yul\":13036:13049   */\n      iszero\n        /* \"#utility.yul\":13029:13050   */\n      iszero\n        /* \"#utility.yul\":13018:13050   */\n      swap1\n      pop\n        /* \"#utility.yul\":12966:13056   */\n      swap2\n      swap1\n      pop\n      jump\t// out\n        /* \"#utility.yul\":13062:13178   */\n    tag_648:\n        /* \"#utility.yul\":13132:13153   */\n      tag_813\n        /* \"#utility.yul\":13147:13152   */\n      dup2\n        /* \"#utility.yul\":13132:13153   */\n      tag_647\n      jump\t// in\n    tag_813:\n        /* \"#utility.yul\":13125:13130   */\n      dup2\n        /* \"#utility.yul\":13122:13154   */\n      eq\n        /* \"#utility.yul\":13112:13172   */\n      tag_814\n      jumpi\n        /* \"#utility.yul\":13168:13169   */\n      0x00\n        /* \"#utility.yul\":13165:13166   */\n      dup1\n        /* \"#utility.yul\":13158:13170   */\n      revert\n        /* \"#utility.yul\":13112:13172   */\n    tag_814:\n        /* \"#utility.yul\":13062:13178   */\n      pop\n      jump\t// out\n        /* \"#utility.yul\":13184:13321   */\n    tag_649:\n        /* \"#utility.yul\":13238:13243   */\n      0x00\n        /* \"#utility.yul\":13269:13275   */\n      dup2\n        /* \"#utility.yul\":13263:13276   */\n      mload\n        /* \"#utility.yul\":13254:13276   */\n      swap1\n      pop\n        /* \"#utility.yul\":13285:13315   */\n      tag_816\n        /* \"#utility.yul\":13309:13314   */\n      dup2\n        /* \"#utility.yul\":13285:13315   */\n      tag_648\n      jump\t// in\n    tag_816:\n        /* \"#utility.yul\":13184:13321   */\n      swap3\n      swap2\n      pop\n      pop\n      jump\t// out\n        /* \"#utility.yul\":13327:13672   */\n    tag_288:\n        /* \"#utility.yul\":13394:13400   */\n      0x00\n        /* \"#utility.yul\":13443:13445   */\n      0x20\n        /* \"#utility.yul\":13431:13440   */\n      dup3\n        /* \"#utility.yul\":13422:13429   */\n      dup5\n        /* \"#utility.yul\":13418:13441   */\n      sub\n        /* \"#utility.yul\":13414:13446   */\n      slt\n        /* \"#utility.yul\":13411:13530   */\n      iszero\n      tag_818\n      jumpi\n        /* \"#utility.yul\":13449:13528   */\n      tag_819\n      tag_614\n      jump\t// in\n    tag_819:\n        /* \"#utility.yul\":13411:13530   */\n    tag_818:\n        /* \"#utility.yul\":13569:13570   */\n      0x00\n        /* \"#utility.yul\":13594:13655   */\n      tag_820\n        /* \"#utility.yul\":13647:13654   */\n      dup5\n        /* \"#utility.yul\":13638:13644   */\n      dup3\n        /* \"#utility.yul\":13627:13636   */\n      dup6\n        /* \"#utility.yul\":13623:13645   */\n      add\n        /* \"#utility.yul\":13594:13655   */\n      tag_649\n      jump\t// in\n    tag_820:\n        /* \"#utility.yul\":13584:13655   */\n      swap2\n      pop\n        /* \"#utility.yul\":13540:13665   */\n      pop\n        /* \"#utility.yul\":13327:13672   */\n      swap3\n      swap2\n      pop\n      pop\n      jump\t// out\n        /* \"#utility.yul\":13678:13858   */\n    tag_291:\n        /* \"#utility.yul\":13726:13803   */\n      0x4e487b7100000000000000000000000000000000000000000000000000000000\n        /* \"#utility.yul\":13723:13724   */\n      0x00\n        /* \"#utility.yul\":13716:13804   */\n      mstore\n        /* \"#utility.yul\":13823:13827   */\n      0x01\n        /* \"#utility.yul\":13820:13821   */\n      0x04\n        /* \"#utility.yul\":13813:13828   */\n      mstore\n        /* \"#utility.yul\":13847:13851   */\n      0x24\n        /* \"#utility.yul\":13844:13845   */\n      0x00\n        /* \"#utility.yul\":13837:13852   */\n      revert\n        /* \"#utility.yul\":13864:14044   */\n    tag_650:\n        /* \"#utility.yul\":14004:14036   */\n      0x556e697377617056324c6962726172793a20494e56414c49445f504154480000\n        /* \"#utility.yul\":14000:14001   */\n      0x00\n        /* \"#utility.yul\":13992:13998   */\n      dup3\n        /* \"#utility.yul\":13988:14002   */\n      add\n        /* \"#utility.yul\":13981:14037   */\n      mstore\n        /* \"#utility.yul\":13864:14044   */\n      pop\n      jump\t// out\n        /* \"#utility.yul\":14050:14416   */\n    tag_651:\n        /* \"#utility.yul\":14192:14195   */\n      0x00\n        /* \"#utility.yul\":14213:14280   */\n      tag_824\n        /* \"#utility.yul\":14277:14279   */\n      0x1e\n        /* \"#utility.yul\":14272:14275   */\n      dup4\n        /* \"#utility.yul\":14213:14280   */\n      tag_635\n      jump\t// in\n    tag_824:\n        /* \"#utility.yul\":14206:14280   */\n      swap2\n      pop\n        /* \"#utility.yul\":14289:14382   */\n      tag_825\n        /* \"#utility.yul\":14378:14381   */\n      dup3\n        /* \"#utility.yul\":14289:14382   */\n      tag_650\n      jump\t// in\n    tag_825:\n        /* \"#utility.yul\":14407:14409   */\n      0x20\n        /* \"#utility.yul\":14402:14405   */\n      dup3\n        /* \"#utility.yul\":14398:14410   */\n      add\n        /* \"#utility.yul\":14391:14410   */\n      swap1\n      pop\n        /* \"#utility.yul\":14050:14416   */\n      swap2\n      swap1\n      pop\n      jump\t// out\n        /* \"#utility.yul\":14422:14841   */\n    tag_406:\n        /* \"#utility.yul\":14588:14592   */\n      0x00\n        /* \"#utility.yul\":14626:14628   */\n      0x20\n        /* \"#utility.yul\":14615:14624   */\n      dup3\n        /* \"#utility.yul\":14611:14629   */\n      add\n        /* \"#utility.yul\":14603:14629   */\n      swap1\n      pop\n        /* \"#utility.yul\":14675:14684   */\n      dup2\n        /* \"#utility.yul\":14669:14673   */\n      dup2\n        /* \"#utility.yul\":14665:14685   */\n      sub\n        /* \"#utility.yul\":14661:14662   */\n      0x00\n        /* \"#utility.yul\":14650:14659   */\n      dup4\n        /* \"#utility.yul\":14646:14663   */\n      add\n        /* \"#utility.yul\":14639:14686   */\n      mstore\n        /* \"#utility.yul\":14703:14834   */\n      tag_827\n        /* \"#utility.yul\":14829:14833   */\n      dup2\n        /* \"#utility.yul\":14703:14834   */\n      tag_651\n      jump\t// in\n    tag_827:\n        /* \"#utility.yul\":14695:14834   */\n      swap1\n      pop\n        /* \"#utility.yul\":14422:14841   */\n      swap2\n      swap1\n      pop\n      jump\t// out\n        /* \"#utility.yul\":14847:15027   */\n    tag_409:\n        /* \"#utility.yul\":14895:14972   */\n      0x4e487b7100000000000000000000000000000000000000000000000000000000\n        /* \"#utility.yul\":14892:14893   */\n      0x00\n        /* \"#utility.yul\":14885:14973   */\n      mstore\n        /* \"#utility.yul\":14992:14996   */\n      0x41\n        /* \"#utility.yul\":14989:14990   */\n      0x04\n        /* \"#utility.yul\":14982:14997   */\n      mstore\n        /* \"#utility.yul\":15016:15020   */\n      0x24\n        /* \"#utility.yul\":15013:15014   */\n      0x00\n        /* \"#utility.yul\":15006:15021   */\n      revert\n        /* \"#utility.yul\":15033:15338   */\n    tag_421:\n        /* \"#utility.yul\":15073:15076   */\n      0x00\n        /* \"#utility.yul\":15092:15112   */\n      tag_830\n        /* \"#utility.yul\":15110:15111   */\n      dup3\n        /* \"#utility.yul\":15092:15112   */\n      tag_616\n      jump\t// in\n    tag_830:\n        /* \"#utility.yul\":15087:15112   */\n      swap2\n      pop\n        /* \"#utility.yul\":15126:15146   */\n      tag_831\n        /* \"#utility.yul\":15144:15145   */\n      dup4\n        /* \"#utility.yul\":15126:15146   */\n      tag_616\n      jump\t// in\n    tag_831:\n        /* \"#utility.yul\":15121:15146   */\n      swap3\n      pop\n        /* \"#utility.yul\":15280:15281   */\n      dup3\n        /* \"#utility.yul\":15212:15278   */\n      0xffffffffffffffffffffffffffffffffffffffffffffffffffffffffffffffff\n        /* \"#utility.yul\":15208:15282   */\n      sub\n        /* \"#utility.yul\":15205:15206   */\n      dup3\n        /* \"#utility.yul\":15202:15283   */\n      gt\n        /* \"#utility.yul\":15199:15306   */\n      iszero\n      tag_832\n      jumpi\n        /* \"#utility.yul\":15286:15304   */\n      tag_833\n      tag_638\n      jump\t// in\n    tag_833:\n        /* \"#utility.yul\":15199:15306   */\n    tag_832:\n        /* \"#utility.yul\":15330:15331   */\n      dup3\n        /* \"#utility.yul\":15327:15328   */\n      dup3\n        /* \"#utility.yul\":15323:15332   */\n      add\n        /* \"#utility.yul\":15316:15332   */\n      swap1\n      pop\n        /* \"#utility.yul\":15033:15338   */\n      swap3\n      swap2\n      pop\n      pop\n      jump\t// out\n        /* \"#utility.yul\":15344:15577   */\n    tag_433:\n        /* \"#utility.yul\":15383:15386   */\n      0x00\n        /* \"#utility.yul\":15406:15430   */\n      tag_835\n        /* \"#utility.yul\":15424:15429   */\n      dup3\n        /* \"#utility.yul\":15406:15430   */\n      tag_616\n      jump\t// in\n    tag_835:\n        /* \"#utility.yul\":15397:15430   */\n      swap2\n      pop\n        /* \"#utility.yul\":15452:15518   */\n      0xffffffffffffffffffffffffffffffffffffffffffffffffffffffffffffffff\n        /* \"#utility.yul\":15445:15450   */\n      dup3\n        /* \"#utility.yul\":15442:15519   */\n      sub\n        /* \"#utility.yul\":15439:15542   */\n      tag_836\n      jumpi\n        /* \"#utility.yul\":15522:15540   */\n      tag_837\n      tag_638\n      jump\t// in\n    tag_837:\n        /* \"#utility.yul\":15439:15542   */\n    tag_836:\n        /* \"#utility.yul\":15569:15570   */\n      0x01\n        /* \"#utility.yul\":15562:15567   */\n      dup3\n        /* \"#utility.yul\":15558:15571   */\n      add\n        /* \"#utility.yul\":15551:15571   */\n      swap1\n      pop\n        /* \"#utility.yul\":15344:15577   */\n      swap2\n      swap1\n      pop\n      jump\t// out\n        /* \"#utility.yul\":15583:15677   */\n    tag_652:\n        /* \"#utility.yul\":15616:15624   */\n      0x00\n        /* \"#utility.yul\":15664:15669   */\n      dup2\n        /* \"#utility.yul\":15660:15662   */\n      0x60\n        /* \"#utility.yul\":15656:15670   */\n      shl\n        /* \"#utility.yul\":15635:15670   */\n      swap1\n      pop\n        /* \"#utility.yul\":15583:15677   */\n      swap2\n      swap1\n      pop\n      jump\t// out\n        /* \"#utility.yul\":15683:15777   */\n    tag_653:\n        /* \"#utility.yul\":15722:15729   */\n      0x00\n        /* \"#utility.yul\":15751:15771   */\n      tag_840\n        /* \"#utility.yul\":15765:15770   */\n      dup3\n        /* \"#utility.yul\":15751:15771   */\n      tag_652\n      jump\t// in\n    tag_840:\n        /* \"#utility.yul\":15740:15771   */\n      swap1\n      pop\n        /* \"#utility.yul\":15683:15777   */\n      swap2\n      swap1\n      pop\n      jump\t// out\n        /* \"#utility.yul\":15783:15883   */\n    tag_654:\n        /* \"#utility.yul\":15822:15829   */\n      0x00\n        /* \"#utility.yul\":15851:15877   */\n      tag_842\n        /* \"#utility.yul\":15871:15876   */\n      dup3\n        /* \"#utility.yul\":15851:15877   */\n      tag_653\n      jump\t// in\n    tag_842:\n        /* \"#utility.yul\":15840:15877   */\n      swap1\n      pop\n        /* \"#utility.yul\":15783:15883   */\n      swap2\n      swap1\n      pop\n      jump\t// out\n        /* \"#utility.yul\":15889:16046   */\n    tag_655:\n        /* \"#utility.yul\":15994:16039   */\n      tag_844\n        /* \"#utility.yul\":16014:16038   */\n      tag_845\n        /* \"#utility.yul\":16032:16037   */\n      dup3\n        /* \"#utility.yul\":16014:16038   */\n      tag_624\n      jump\t// in\n    tag_845:\n        /* \"#utility.yul\":15994:16039   */\n      tag_654\n      jump\t// in\n    tag_844:\n        /* \"#utility.yul\":15989:15992   */\n      dup3\n        /* \"#utility.yul\":15982:16040   */\n      mstore\n        /* \"#utility.yul\":15889:16046   */\n      pop\n      pop\n      jump\t// out\n        /* \"#utility.yul\":16052:16449   */\n    tag_438:\n        /* \"#utility.yul\":16192:16195   */\n      0x00\n        /* \"#utility.yul\":16207:16282   */\n      tag_847\n        /* \"#utility.yul\":16278:16281   */\n      dup3\n        /* \"#utility.yul\":16269:16275   */\n      dup6\n        /* \"#utility.yul\":16207:16282   */\n      tag_655\n      jump\t// in\n    tag_847:\n        /* \"#utility.yul\":16307:16309   */\n      0x14\n        /* \"#utility.yul\":16302:16305   */\n      dup3\n        /* \"#utility.yul\":16298:16310   */\n      add\n        /* \"#utility.yul\":16291:16310   */\n      swap2\n      pop\n        /* \"#utility.yul\":16320:16395   */\n      tag_848\n        /* \"#utility.yul\":16391:16394   */\n      dup3\n        /* \"#utility.yul\":16382:16388   */\n      dup5\n        /* \"#utility.yul\":16320:16395   */\n      tag_655\n      jump\t// in\n    tag_848:\n        /* \"#utility.yul\":16420:16422   */\n      0x14\n        /* \"#utility.yul\":16415:16418   */\n      dup3\n        /* \"#utility.yul\":16411:16423   */\n      add\n        /* \"#utility.yul\":16404:16423   */\n      swap2\n      pop\n        /* \"#utility.yul\":16440:16443   */\n      dup2\n        /* \"#utility.yul\":16433:16443   */\n      swap1\n      pop\n        /* \"#utility.yul\":16052:16449   */\n      swap4\n      swap3\n      pop\n      pop\n      pop\n      jump\t// out\n        /* \"#utility.yul\":16455:16603   */\n    tag_656:\n        /* \"#utility.yul\":16557:16568   */\n      0x00\n        /* \"#utility.yul\":16594:16597   */\n      dup2\n        /* \"#utility.yul\":16579:16597   */\n      swap1\n      pop\n        /* \"#utility.yul\":16455:16603   */\n      swap3\n      swap2\n      pop\n      pop\n      jump\t// out\n        /* \"#utility.yul\":16609:16823   */\n    tag_657:\n        /* \"#utility.yul\":16749:16815   */\n      0xff00000000000000000000000000000000000000000000000000000000000000\n        /* \"#utility.yul\":16745:16746   */\n      0x00\n        /* \"#utility.yul\":16737:16743   */\n      dup3\n        /* \"#utility.yul\":16733:16747   */\n      add\n        /* \"#utility.yul\":16726:16816   */\n      mstore\n        /* \"#utility.yul\":16609:16823   */\n      pop\n      jump\t// out\n        /* \"#utility.yul\":16829:17229   */\n    tag_658:\n        /* \"#utility.yul\":16989:16992   */\n      0x00\n        /* \"#utility.yul\":17010:17094   */\n      tag_852\n        /* \"#utility.yul\":17092:17093   */\n      0x01\n        /* \"#utility.yul\":17087:17090   */\n      dup4\n        /* \"#utility.yul\":17010:17094   */\n      tag_656\n      jump\t// in\n    tag_852:\n        /* \"#utility.yul\":17003:17094   */\n      swap2\n      pop\n        /* \"#utility.yul\":17103:17196   */\n      tag_853\n        /* \"#utility.yul\":17192:17195   */\n      dup3\n        /* \"#utility.yul\":17103:17196   */\n      tag_657\n      jump\t// in\n    tag_853:\n        /* \"#utility.yul\":17221:17222   */\n      0x01\n        /* \"#utility.yul\":17216:17219   */\n      dup3\n        /* \"#utility.yul\":17212:17223   */\n      add\n        /* \"#utility.yul\":17205:17223   */\n      swap1\n      pop\n        /* \"#utility.yul\":16829:17229   */\n      swap2\n      swap1\n      pop\n      jump\t// out\n        /* \"#utility.yul\":17235:17312   */\n    tag_659:\n        /* \"#utility.yul\":17272:17279   */\n      0x00\n        /* \"#utility.yul\":17301:17306   */\n      dup2\n        /* \"#utility.yul\":17290:17306   */\n      swap1\n      pop\n        /* \"#utility.yul\":17235:17312   */\n      swap2\n      swap1\n      pop\n      jump\t// out\n        /* \"#utility.yul\":17318:17397   */\n    tag_660:\n        /* \"#utility.yul\":17357:17364   */\n      0x00\n        /* \"#utility.yul\":17386:17391   */\n      dup2\n        /* \"#utility.yul\":17375:17391   */\n      swap1\n      pop\n        /* \"#utility.yul\":17318:17397   */\n      swap2\n      swap1\n      pop\n      jump\t// out\n        /* \"#utility.yul\":17403:17560   */\n    tag_661:\n        /* \"#utility.yul\":17508:17553   */\n      tag_857\n        /* \"#utility.yul\":17528:17552   */\n      tag_858\n        /* \"#utility.yul\":17546:17551   */\n      dup3\n        /* \"#utility.yul\":17528:17552   */\n      tag_659\n      jump\t// in\n    tag_858:\n        /* \"#utility.yul\":17508:17553   */\n      tag_660\n      jump\t// in\n    tag_857:\n        /* \"#utility.yul\":17503:17506   */\n      dup3\n        /* \"#utility.yul\":17496:17554   */\n      mstore\n        /* \"#utility.yul\":17403:17560   */\n      pop\n      pop\n      jump\t// out\n        /* \"#utility.yul\":17566:17780   */\n    tag_662:\n        /* \"#utility.yul\":17706:17772   */\n      0x96e8ac4277198ff8b6f785478aa9a39f403cb768dd02cbee326c3e7da348845f\n        /* \"#utility.yul\":17702:17703   */\n      0x00\n        /* \"#utility.yul\":17694:17700   */\n      dup3\n        /* \"#utility.yul\":17690:17704   */\n      add\n        /* \"#utility.yul\":17683:17773   */\n      mstore\n        /* \"#utility.yul\":17566:17780   */\n      pop\n      jump\t// out\n        /* \"#utility.yul\":17786:18188   */\n    tag_663:\n        /* \"#utility.yul\":17946:17949   */\n      0x00\n        /* \"#utility.yul\":17967:18052   */\n      tag_861\n        /* \"#utility.yul\":18049:18051   */\n      0x20\n        /* \"#utility.yul\":18044:18047   */\n      dup4\n        /* \"#utility.yul\":17967:18052   */\n      tag_656\n      jump\t// in\n    tag_861:\n        /* \"#utility.yul\":17960:18052   */\n      swap2\n      pop\n        /* \"#utility.yul\":18061:18154   */\n      tag_862\n        /* \"#utility.yul\":18150:18153   */\n      dup3\n        /* \"#utility.yul\":18061:18154   */\n      tag_662\n      jump\t// in\n    tag_862:\n        /* \"#utility.yul\":18179:18181   */\n      0x20\n        /* \"#utility.yul\":18174:18177   */\n      dup3\n        /* \"#utility.yul\":18170:18182   */\n      add\n        /* \"#utility.yul\":18163:18182   */\n      swap1\n      pop\n        /* \"#utility.yul\":17786:18188   */\n      swap2\n      swap1\n      pop\n      jump\t// out\n        /* \"#utility.yul\":18194:19123   */\n    tag_440:\n        /* \"#utility.yul\":18536:18539   */\n      0x00\n        /* \"#utility.yul\":18558:18706   */\n      tag_864\n        /* \"#utility.yul\":18702:18705   */\n      dup3\n        /* \"#utility.yul\":18558:18706   */\n      tag_658\n      jump\t// in\n    tag_864:\n        /* \"#utility.yul\":18551:18706   */\n      swap2\n      pop\n        /* \"#utility.yul\":18716:18791   */\n      tag_865\n        /* \"#utility.yul\":18787:18790   */\n      dup3\n        /* \"#utility.yul\":18778:18784   */\n      dup6\n        /* \"#utility.yul\":18716:18791   */\n      tag_655\n      jump\t// in\n    tag_865:\n        /* \"#utility.yul\":18816:18818   */\n      0x14\n        /* \"#utility.yul\":18811:18814   */\n      dup3\n        /* \"#utility.yul\":18807:18819   */\n      add\n        /* \"#utility.yul\":18800:18819   */\n      swap2\n      pop\n        /* \"#utility.yul\":18829:18904   */\n      tag_866\n        /* \"#utility.yul\":18900:18903   */\n      dup3\n        /* \"#utility.yul\":18891:18897   */\n      dup5\n        /* \"#utility.yul\":18829:18904   */\n      tag_661\n      jump\t// in\n    tag_866:\n        /* \"#utility.yul\":18929:18931   */\n      0x20\n        /* \"#utility.yul\":18924:18927   */\n      dup3\n        /* \"#utility.yul\":18920:18932   */\n      add\n        /* \"#utility.yul\":18913:18932   */\n      swap2\n      pop\n        /* \"#utility.yul\":18949:19097   */\n      tag_867\n        /* \"#utility.yul\":19093:19096   */\n      dup3\n        /* \"#utility.yul\":18949:19097   */\n      tag_663\n      jump\t// in\n    tag_867:\n        /* \"#utility.yul\":18942:19097   */\n      swap2\n      pop\n        /* \"#utility.yul\":19114:19117   */\n      dup2\n        /* \"#utility.yul\":19107:19117   */\n      swap1\n      pop\n        /* \"#utility.yul\":18194:19123   */\n      swap4\n      swap3\n      pop\n      pop\n      pop\n      jump\t// out\n        /* \"#utility.yul\":19129:19571   */\n    tag_443:\n        /* \"#utility.yul\":19278:19282   */\n      0x00\n        /* \"#utility.yul\":19316:19318   */\n      0x60\n        /* \"#utility.yul\":19305:19314   */\n      dup3\n        /* \"#utility.yul\":19301:19319   */\n      add\n        /* \"#utility.yul\":19293:19319   */\n      swap1\n      pop\n        /* \"#utility.yul\":19329:19400   */\n      tag_869\n        /* \"#utility.yul\":19397:19398   */\n      0x00\n        /* \"#utility.yul\":19386:19395   */\n      dup4\n        /* \"#utility.yul\":19382:19399   */\n      add\n        /* \"#utility.yul\":19373:19379   */\n      dup7\n        /* \"#utility.yul\":19329:19400   */\n      tag_634\n      jump\t// in\n    tag_869:\n        /* \"#utility.yul\":19410:19482   */\n      tag_870\n        /* \"#utility.yul\":19478:19480   */\n      0x20\n        /* \"#utility.yul\":19467:19476   */\n      dup4\n        /* \"#utility.yul\":19463:19481   */\n      add\n        /* \"#utility.yul\":19454:19460   */\n      dup6\n        /* \"#utility.yul\":19410:19482   */\n      tag_634\n      jump\t// in\n    tag_870:\n        /* \"#utility.yul\":19492:19564   */\n      tag_871\n        /* \"#utility.yul\":19560:19562   */\n      0x40\n        /* \"#utility.yul\":19549:19558   */\n      dup4\n        /* \"#utility.yul\":19545:19563   */\n      add\n        /* \"#utility.yul\":19536:19542   */\n      dup5\n        /* \"#utility.yul\":19492:19564   */\n      tag_643\n      jump\t// in\n    tag_871:\n        /* \"#utility.yul\":19129:19571   */\n      swap5\n      swap4\n      pop\n      pop\n      pop\n      pop\n      jump\t// out\n        /* \"#utility.yul\":19577:19675   */\n    tag_664:\n        /* \"#utility.yul\":19628:19634   */\n      0x00\n        /* \"#utility.yul\":19662:19667   */\n      dup2\n        /* \"#utility.yul\":19656:19668   */\n      mload\n        /* \"#utility.yul\":19646:19668   */\n      swap1\n      pop\n        /* \"#utility.yul\":19577:19675   */\n      swap2\n      swap1\n      pop\n      jump\t// out\n        /* \"#utility.yul\":19681:19828   */\n    tag_665:\n        /* \"#utility.yul\":19782:19793   */\n      0x00\n        /* \"#utility.yul\":19819:19822   */\n      dup2\n        /* \"#utility.yul\":19804:19822   */\n      swap1\n      pop\n        /* \"#utility.yul\":19681:19828   */\n      swap3\n      swap2\n      pop\n      pop\n      jump\t// out\n        /* \"#utility.yul\":19834:20141   */\n    tag_666:\n        /* \"#utility.yul\":19902:19903   */\n      0x00\n        /* \"#utility.yul\":19912:20025   */\n    tag_875:\n        /* \"#utility.yul\":19926:19932   */\n      dup4\n        /* \"#utility.yul\":19923:19924   */\n      dup2\n        /* \"#utility.yul\":19920:19933   */\n      lt\n        /* \"#utility.yul\":19912:20025   */\n      iszero\n      tag_877\n      jumpi\n        /* \"#utility.yul\":20011:20012   */\n      dup1\n        /* \"#utility.yul\":20006:20009   */\n      dup3\n        /* \"#utility.yul\":20002:20013   */\n      add\n        /* \"#utility.yul\":19996:20014   */\n      mload\n        /* \"#utility.yul\":19992:19993   */\n      dup2\n        /* \"#utility.yul\":19987:19990   */\n      dup5\n        /* \"#utility.yul\":19983:19994   */\n      add\n        /* \"#utility.yul\":19976:20015   */\n      mstore\n        /* \"#utility.yul\":19948:19950   */\n      0x20\n        /* \"#utility.yul\":19945:19946   */\n      dup2\n        /* \"#utility.yul\":19941:19951   */\n      add\n        /* \"#utility.yul\":19936:19951   */\n      swap1\n      pop\n        /* \"#utility.yul\":19912:20025   */\n      jump(tag_875)\n    tag_877:\n        /* \"#utility.yul\":20043:20049   */\n      dup4\n        /* \"#utility.yul\":20040:20041   */\n      dup2\n        /* \"#utility.yul\":20037:20050   */\n      gt\n        /* \"#utility.yul\":20034:20135   */\n      iszero\n      tag_878\n      jumpi\n        /* \"#utility.yul\":20123:20124   */\n      0x00\n        /* \"#utility.yul\":20114:20120   */\n      dup5\n        /* \"#utility.yul\":20109:20112   */\n      dup5\n        /* \"#utility.yul\":20105:20121   */\n      add\n        /* \"#utility.yul\":20098:20125   */\n      mstore\n        /* \"#utility.yul\":20034:20135   */\n    tag_878:\n        /* \"#utility.yul\":19883:20141   */\n      pop\n        /* \"#utility.yul\":19834:20141   */\n      pop\n      pop\n      pop\n      jump\t// out\n        /* \"#utility.yul\":20147:20520   */\n    tag_667:\n        /* \"#utility.yul\":20251:20254   */\n      0x00\n        /* \"#utility.yul\":20279:20317   */\n      tag_880\n        /* \"#utility.yul\":20311:20316   */\n      dup3\n        /* \"#utility.yul\":20279:20317   */\n      tag_664\n      jump\t// in\n    tag_880:\n        /* \"#utility.yul\":20333:20421   */\n      tag_881\n        /* \"#utility.yul\":20414:20420   */\n      dup2\n        /* \"#utility.yul\":20409:20412   */\n      dup6\n        /* \"#utility.yul\":20333:20421   */\n      tag_665\n      jump\t// in\n    tag_881:\n        /* \"#utility.yul\":20326:20421   */\n      swap4\n      pop\n        /* \"#utility.yul\":20430:20482   */\n      tag_882\n        /* \"#utility.yul\":20475:20481   */\n      dup2\n        /* \"#utility.yul\":20470:20473   */\n      dup6\n        /* \"#utility.yul\":20463:20467   */\n      0x20\n        /* \"#utility.yul\":20456:20461   */\n      dup7\n        /* \"#utility.yul\":20452:20468   */\n      add\n        /* \"#utility.yul\":20430:20482   */\n      tag_666\n      jump\t// in\n    tag_882:\n        /* \"#utility.yul\":20507:20513   */\n      dup1\n        /* \"#utility.yul\":20502:20505   */\n      dup5\n        /* \"#utility.yul\":20498:20514   */\n      add\n        /* \"#utility.yul\":20491:20514   */\n      swap2\n      pop\n        /* \"#utility.yul\":20255:20520   */\n      pop\n        /* \"#utility.yul\":20147:20520   */\n      swap3\n      swap2\n      pop\n      pop\n      jump\t// out\n        /* \"#utility.yul\":20526:20797   */\n    tag_445:\n        /* \"#utility.yul\":20656:20659   */\n      0x00\n        /* \"#utility.yul\":20678:20771   */\n      tag_884\n        /* \"#utility.yul\":20767:20770   */\n      dup3\n        /* \"#utility.yul\":20758:20764   */\n      dup5\n        /* \"#utility.yul\":20678:20771   */\n      tag_667\n      jump\t// in\n    tag_884:\n        /* \"#utility.yul\":20671:20771   */\n      swap2\n      pop\n        /* \"#utility.yul\":20788:20791   */\n      dup2\n        /* \"#utility.yul\":20781:20791   */\n      swap1\n      pop\n        /* \"#utility.yul\":20526:20797   */\n      swap3\n      swap2\n      pop\n      pop\n      jump\t// out\n        /* \"#utility.yul\":20803:21039   */\n    tag_668:\n        /* \"#utility.yul\":20943:20977   */\n      0x5472616e7366657248656c7065723a3a7472616e7366657246726f6d3a207472\n        /* \"#utility.yul\":20939:20940   */\n      0x00\n        /* \"#utility.yul\":20931:20937   */\n      dup3\n        /* \"#utility.yul\":20927:20941   */\n      add\n        /* \"#utility.yul\":20920:20978   */\n      mstore\n        /* \"#utility.yul\":21012:21031   */\n      0x616e7366657246726f6d206661696c6564000000000000000000000000000000\n        /* \"#utility.yul\":21007:21009   */\n      0x20\n        /* \"#utility.yul\":20999:21005   */\n      dup3\n        /* \"#utility.yul\":20995:21010   */\n      add\n        /* \"#utility.yul\":20988:21032   */\n      mstore\n        /* \"#utility.yul\":20803:21039   */\n      pop\n      jump\t// out\n        /* \"#utility.yul\":21045:21411   */\n    tag_669:\n        /* \"#utility.yul\":21187:21190   */\n      0x00\n        /* \"#utility.yul\":21208:21275   */\n      tag_887\n        /* \"#utility.yul\":21272:21274   */\n      0x31\n        /* \"#utility.yul\":21267:21270   */\n      dup4\n        /* \"#utility.yul\":21208:21275   */\n      tag_635\n      jump\t// in\n    tag_887:\n        /* \"#utility.yul\":21201:21275   */\n      swap2\n      pop\n        /* \"#utility.yul\":21284:21377   */\n      tag_888\n        /* \"#utility.yul\":21373:21376   */\n      dup3\n        /* \"#utility.yul\":21284:21377   */\n      tag_668\n      jump\t// in\n    tag_888:\n        /* \"#utility.yul\":21402:21404   */\n      0x40\n        /* \"#utility.yul\":21397:21400   */\n      dup3\n        /* \"#utility.yul\":21393:21405   */\n      add\n        /* \"#utility.yul\":21386:21405   */\n      swap1\n      pop\n        /* \"#utility.yul\":21045:21411   */\n      swap2\n      swap1\n      pop\n      jump\t// out\n        /* \"#utility.yul\":21417:21836   */\n    tag_454:\n        /* \"#utility.yul\":21583:21587   */\n      0x00\n        /* \"#utility.yul\":21621:21623   */\n      0x20\n        /* \"#utility.yul\":21610:21619   */\n      dup3\n        /* \"#utility.yul\":21606:21624   */\n      add\n        /* \"#utility.yul\":21598:21624   */\n      swap1\n      pop\n        /* \"#utility.yul\":21670:21679   */\n      dup2\n        /* \"#utility.yul\":21664:21668   */\n      dup2\n        /* \"#utility.yul\":21660:21680   */\n      sub\n        /* \"#utility.yul\":21656:21657   */\n      0x00\n        /* \"#utility.yul\":21645:21654   */\n      dup4\n        /* \"#utility.yul\":21641:21658   */\n      add\n        /* \"#utility.yul\":21634:21681   */\n      mstore\n        /* \"#utility.yul\":21698:21829   */\n      tag_890\n        /* \"#utility.yul\":21824:21828   */\n      dup2\n        /* \"#utility.yul\":21698:21829   */\n      tag_669\n      jump\t// in\n    tag_890:\n        /* \"#utility.yul\":21690:21829   */\n      swap1\n      pop\n        /* \"#utility.yul\":21417:21836   */\n      swap2\n      swap1\n      pop\n      jump\t// out\n        /* \"#utility.yul\":21842:22010   */\n    tag_670:\n        /* \"#utility.yul\":21925:21936   */\n      0x00\n        /* \"#utility.yul\":21959:21965   */\n      dup3\n        /* \"#utility.yul\":21954:21957   */\n      dup3\n        /* \"#utility.yul\":21947:21966   */\n      mstore\n        /* \"#utility.yul\":21999:22003   */\n      0x20\n        /* \"#utility.yul\":21994:21997   */\n      dup3\n        /* \"#utility.yul\":21990:22004   */\n      add\n        /* \"#utility.yul\":21975:22004   */\n      swap1\n      pop\n        /* \"#utility.yul\":21842:22010   */\n      swap3\n      swap2\n      pop\n      pop\n      jump\t// out\n        /* \"#utility.yul\":22016:22118   */\n    tag_671:\n        /* \"#utility.yul\":22057:22063   */\n      0x00\n        /* \"#utility.yul\":22108:22110   */\n      0x1f\n        /* \"#utility.yul\":22104:22111   */\n      not\n        /* \"#utility.yul\":22099:22101   */\n      0x1f\n        /* \"#utility.yul\":22092:22097   */\n      dup4\n        /* \"#utility.yul\":22088:22102   */\n      add\n        /* \"#utility.yul\":22084:22112   */\n      and\n        /* \"#utility.yul\":22074:22112   */\n      swap1\n      pop\n        /* \"#utility.yul\":22016:22118   */\n      swap2\n      swap1\n      pop\n      jump\t// out\n        /* \"#utility.yul\":22124:22484   */\n    tag_672:\n        /* \"#utility.yul\":22210:22213   */\n      0x00\n        /* \"#utility.yul\":22238:22276   */\n      tag_894\n        /* \"#utility.yul\":22270:22275   */\n      dup3\n        /* \"#utility.yul\":22238:22276   */\n      tag_664\n      jump\t// in\n    tag_894:\n        /* \"#utility.yul\":22292:22362   */\n      tag_895\n        /* \"#utility.yul\":22355:22361   */\n      dup2\n        /* \"#utility.yul\":22350:22353   */\n      dup6\n        /* \"#utility.yul\":22292:22362   */\n      tag_670\n      jump\t// in\n    tag_895:\n        /* \"#utility.yul\":22285:22362   */\n      swap4\n      pop\n        /* \"#utility.yul\":22371:22423   */\n      tag_896\n        /* \"#utility.yul\":22416:22422   */\n      dup2\n        /* \"#utility.yul\":22411:22414   */\n      dup6\n        /* \"#utility.yul\":22404:22408   */\n      0x20\n        /* \"#utility.yul\":22397:22402   */\n      dup7\n        /* \"#utility.yul\":22393:22409   */\n      add\n        /* \"#utility.yul\":22371:22423   */\n      tag_666\n      jump\t// in\n    tag_896:\n        /* \"#utility.yul\":22448:22477   */\n      tag_897\n        /* \"#utility.yul\":22470:22476   */\n      dup2\n        /* \"#utility.yul\":22448:22477   */\n      tag_671\n      jump\t// in\n    tag_897:\n        /* \"#utility.yul\":22443:22446   */\n      dup5\n        /* \"#utility.yul\":22439:22478   */\n      add\n        /* \"#utility.yul\":22432:22478   */\n      swap2\n      pop\n        /* \"#utility.yul\":22214:22484   */\n      pop\n        /* \"#utility.yul\":22124:22484   */\n      swap3\n      swap2\n      pop\n      pop\n      jump\t// out\n        /* \"#utility.yul\":22490:23130   */\n    tag_483:\n        /* \"#utility.yul\":22685:22689   */\n      0x00\n        /* \"#utility.yul\":22723:22726   */\n      0x80\n        /* \"#utility.yul\":22712:22721   */\n      dup3\n        /* \"#utility.yul\":22708:22727   */\n      add\n        /* \"#utility.yul\":22700:22727   */\n      swap1\n      pop\n        /* \"#utility.yul\":22737:22808   */\n      tag_899\n        /* \"#utility.yul\":22805:22806   */\n      0x00\n        /* \"#utility.yul\":22794:22803   */\n      dup4\n        /* \"#utility.yul\":22790:22807   */\n      add\n        /* \"#utility.yul\":22781:22787   */\n      dup8\n        /* \"#utility.yul\":22737:22808   */\n      tag_643\n      jump\t// in\n    tag_899:\n        /* \"#utility.yul\":22818:22890   */\n      tag_900\n        /* \"#utility.yul\":22886:22888   */\n      0x20\n        /* \"#utility.yul\":22875:22884   */\n      dup4\n        /* \"#utility.yul\":22871:22889   */\n      add\n        /* \"#utility.yul\":22862:22868   */\n      dup7\n        /* \"#utility.yul\":22818:22890   */\n      tag_643\n      jump\t// in\n    tag_900:\n        /* \"#utility.yul\":22900:22972   */\n      tag_901\n        /* \"#utility.yul\":22968:22970   */\n      0x40\n        /* \"#utility.yul\":22957:22966   */\n      dup4\n        /* \"#utility.yul\":22953:22971   */\n      add\n        /* \"#utility.yul\":22944:22950   */\n      dup6\n        /* \"#utility.yul\":22900:22972   */\n      tag_634\n      jump\t// in\n    tag_901:\n        /* \"#utility.yul\":23019:23028   */\n      dup2\n        /* \"#utility.yul\":23013:23017   */\n      dup2\n        /* \"#utility.yul\":23009:23029   */\n      sub\n        /* \"#utility.yul\":23004:23006   */\n      0x60\n        /* \"#utility.yul\":22993:23002   */\n      dup4\n        /* \"#utility.yul\":22989:23007   */\n      add\n        /* \"#utility.yul\":22982:23030   */\n      mstore\n        /* \"#utility.yul\":23047:23123   */\n      tag_902\n        /* \"#utility.yul\":23118:23122   */\n      dup2\n        /* \"#utility.yul\":23109:23115   */\n      dup5\n        /* \"#utility.yul\":23047:23123   */\n      tag_672\n      jump\t// in\n    tag_902:\n        /* \"#utility.yul\":23039:23123   */\n      swap1\n      pop\n        /* \"#utility.yul\":22490:23130   */\n      swap6\n      swap5\n      pop\n      pop\n      pop\n      pop\n      pop\n      jump\t// out\n        /* \"#utility.yul\":23136:23375   */\n    tag_673:\n        /* \"#utility.yul\":23276:23310   */\n      0x5472616e7366657248656c7065723a3a736166655472616e736665724554483a\n        /* \"#utility.yul\":23272:23273   */\n      0x00\n        /* \"#utility.yul\":23264:23270   */\n      dup3\n        /* \"#utility.yul\":23260:23274   */\n      add\n        /* \"#utility.yul\":23253:23311   */\n      mstore\n        /* \"#utility.yul\":23345:23367   */\n      0x20455448207472616e73666572206661696c6564000000000000000000000000\n        /* \"#utility.yul\":23340:23342   */\n      0x20\n        /* \"#utility.yul\":23332:23338   */\n      dup3\n        /* \"#utility.yul\":23328:23343   */\n      add\n        /* \"#utility.yul\":23321:23368   */\n      mstore\n        /* \"#utility.yul\":23136:23375   */\n      pop\n      jump\t// out\n        /* \"#utility.yul\":23381:23747   */\n    tag_674:\n        /* \"#utility.yul\":23523:23526   */\n      0x00\n        /* \"#utility.yul\":23544:23611   */\n      tag_905\n        /* \"#utility.yul\":23608:23610   */\n      0x34\n        /* \"#utility.yul\":23603:23606   */\n      dup4\n        /* \"#utility.yul\":23544:23611   */\n      tag_635\n      jump\t// in\n    tag_905:\n        /* \"#utility.yul\":23537:23611   */\n      swap2\n      pop\n        /* \"#utility.yul\":23620:23713   */\n      tag_906\n        /* \"#utility.yul\":23709:23712   */\n      dup3\n        /* \"#utility.yul\":23620:23713   */\n      tag_673\n      jump\t// in\n    tag_906:\n        /* \"#utility.yul\":23738:23740   */\n      0x40\n        /* \"#utility.yul\":23733:23736   */\n      dup3\n        /* \"#utility.yul\":23729:23741   */\n      add\n        /* \"#utility.yul\":23722:23741   */\n      swap1\n      pop\n        /* \"#utility.yul\":23381:23747   */\n      swap2\n      swap1\n      pop\n      jump\t// out\n        /* \"#utility.yul\":23753:24172   */\n    tag_498:\n        /* \"#utility.yul\":23919:23923   */\n      0x00\n        /* \"#utility.yul\":23957:23959   */\n      0x20\n        /* \"#utility.yul\":23946:23955   */\n      dup3\n        /* \"#utility.yul\":23942:23960   */\n      add\n        /* \"#utility.yul\":23934:23960   */\n      swap1\n      pop\n        /* \"#utility.yul\":24006:24015   */\n      dup2\n        /* \"#utility.yul\":24000:24004   */\n      dup2\n        /* \"#utility.yul\":23996:24016   */\n      sub\n        /* \"#utility.yul\":23992:23993   */\n      0x00\n        /* \"#utility.yul\":23981:23990   */\n      dup4\n        /* \"#utility.yul\":23977:23994   */\n      add\n        /* \"#utility.yul\":23970:24017   */\n      mstore\n        /* \"#utility.yul\":24034:24165   */\n      tag_908\n        /* \"#utility.yul\":24160:24164   */\n      dup2\n        /* \"#utility.yul\":24034:24165   */\n      tag_674\n      jump\t// in\n    tag_908:\n        /* \"#utility.yul\":24026:24165   */\n      swap1\n      pop\n        /* \"#utility.yul\":23753:24172   */\n      swap2\n      swap1\n      pop\n      jump\t// out\n        /* \"#utility.yul\":24178:24349   */\n    tag_526:\n        /* \"#utility.yul\":24217:24220   */\n      0x00\n        /* \"#utility.yul\":24240:24264   */\n      tag_910\n        /* \"#utility.yul\":24258:24263   */\n      dup3\n        /* \"#utility.yul\":24240:24264   */\n      tag_616\n      jump\t// in\n    tag_910:\n        /* \"#utility.yul\":24231:24264   */\n      swap2\n      pop\n        /* \"#utility.yul\":24286:24290   */\n      0x00\n        /* \"#utility.yul\":24279:24284   */\n      dup3\n        /* \"#utility.yul\":24276:24291   */\n      sub\n        /* \"#utility.yul\":24273:24314   */\n      tag_911\n      jumpi\n        /* \"#utility.yul\":24294:24312   */\n      tag_912\n      tag_638\n      jump\t// in\n    tag_912:\n        /* \"#utility.yul\":24273:24314   */\n    tag_911:\n        /* \"#utility.yul\":24341:24342   */\n      0x01\n        /* \"#utility.yul\":24334:24339   */\n      dup3\n        /* \"#utility.yul\":24330:24343   */\n      sub\n        /* \"#utility.yul\":24323:24343   */\n      swap1\n      pop\n        /* \"#utility.yul\":24178:24349   */\n      swap2\n      swap1\n      pop\n      jump\t// out\n        /* \"#utility.yul\":24355:24469   */\n    tag_675:\n        /* \"#utility.yul\":24392:24399   */\n      0x00\n        /* \"#utility.yul\":24432:24462   */\n      0xffffffffffffffffffffffffffff\n        /* \"#utility.yul\":24425:24430   */\n      dup3\n        /* \"#utility.yul\":24421:24463   */\n      and\n        /* \"#utility.yul\":24410:24463   */\n      swap1\n      pop\n        /* \"#utility.yul\":24355:24469   */\n      swap2\n      swap1\n      pop\n      jump\t// out\n        /* \"#utility.yul\":24475:24597   */\n    tag_676:\n        /* \"#utility.yul\":24548:24572   */\n      tag_915\n        /* \"#utility.yul\":24566:24571   */\n      dup2\n        /* \"#utility.yul\":24548:24572   */\n      tag_675\n      jump\t// in\n    tag_915:\n        /* \"#utility.yul\":24541:24546   */\n      dup2\n        /* \"#utility.yul\":24538:24573   */\n      eq\n        /* \"#utility.yul\":24528:24591   */\n      tag_916\n      jumpi\n        /* \"#utility.yul\":24587:24588   */\n      0x00\n        /* \"#utility.yul\":24584:24585   */\n      dup1\n        /* \"#utility.yul\":24577:24589   */\n      revert\n        /* \"#utility.yul\":24528:24591   */\n    tag_916:\n        /* \"#utility.yul\":24475:24597   */\n      pop\n      jump\t// out\n        /* \"#utility.yul\":24603:24746   */\n    tag_677:\n        /* \"#utility.yul\":24660:24665   */\n      0x00\n        /* \"#utility.yul\":24691:24697   */\n      dup2\n        /* \"#utility.yul\":24685:24698   */\n      mload\n        /* \"#utility.yul\":24676:24698   */\n      swap1\n      pop\n        /* \"#utility.yul\":24707:24740   */\n      tag_918\n        /* \"#utility.yul\":24734:24739   */\n      dup2\n        /* \"#utility.yul\":24707:24740   */\n      tag_676\n      jump\t// in\n    tag_918:\n        /* \"#utility.yul\":24603:24746   */\n      swap3\n      swap2\n      pop\n      pop\n      jump\t// out\n        /* \"#utility.yul\":24752:24845   */\n    tag_678:\n        /* \"#utility.yul\":24788:24795   */\n      0x00\n        /* \"#utility.yul\":24828:24838   */\n      0xffffffff\n        /* \"#utility.yul\":24821:24826   */\n      dup3\n        /* \"#utility.yul\":24817:24839   */\n      and\n        /* \"#utility.yul\":24806:24839   */\n      swap1\n      pop\n        /* \"#utility.yul\":24752:24845   */\n      swap2\n      swap1\n      pop\n      jump\t// out\n        /* \"#utility.yul\":24851:24971   */\n    tag_679:\n        /* \"#utility.yul\":24923:24946   */\n      tag_921\n        /* \"#utility.yul\":24940:24945   */\n      dup2\n        /* \"#utility.yul\":24923:24946   */\n      tag_678\n      jump\t// in\n    tag_921:\n        /* \"#utility.yul\":24916:24921   */\n      dup2\n        /* \"#utility.yul\":24913:24947   */\n      eq\n        /* \"#utility.yul\":24903:24965   */\n      tag_922\n      jumpi\n        /* \"#utility.yul\":24961:24962   */\n      0x00\n        /* \"#utility.yul\":24958:24959   */\n      dup1\n        /* \"#utility.yul\":24951:24963   */\n      revert\n        /* \"#utility.yul\":24903:24965   */\n    tag_922:\n        /* \"#utility.yul\":24851:24971   */\n      pop\n      jump\t// out\n        /* \"#utility.yul\":24977:25118   */\n    tag_680:\n        /* \"#utility.yul\":25033:25038   */\n      0x00\n        /* \"#utility.yul\":25064:25070   */\n      dup2\n        /* \"#utility.yul\":25058:25071   */\n      mload\n        /* \"#utility.yul\":25049:25071   */\n      swap1\n      pop\n        /* \"#utility.yul\":25080:25112   */\n      tag_924\n        /* \"#utility.yul\":25106:25111   */\n      dup2\n        /* \"#utility.yul\":25080:25112   */\n      tag_679\n      jump\t// in\n    tag_924:\n        /* \"#utility.yul\":24977:25118   */\n      swap3\n      swap2\n      pop\n      pop\n      jump\t// out\n        /* \"#utility.yul\":25124:25785   */\n    tag_542:\n        /* \"#utility.yul\":25211:25217   */\n      0x00\n        /* \"#utility.yul\":25219:25225   */\n      dup1\n        /* \"#utility.yul\":25227:25233   */\n      0x00\n        /* \"#utility.yul\":25276:25278   */\n      0x60\n        /* \"#utility.yul\":25264:25273   */\n      dup5\n        /* \"#utility.yul\":25255:25262   */\n      dup7\n        /* \"#utility.yul\":25251:25274   */\n      sub\n        /* \"#utility.yul\":25247:25279   */\n      slt\n        /* \"#utility.yul\":25244:25363   */\n      iszero\n      tag_926\n      jumpi\n        /* \"#utility.yul\":25282:25361   */\n      tag_927\n      tag_614\n      jump\t// in\n    tag_927:\n        /* \"#utility.yul\":25244:25363   */\n    tag_926:\n        /* \"#utility.yul\":25402:25403   */\n      0x00\n        /* \"#utility.yul\":25427:25491   */\n      tag_928\n        /* \"#utility.yul\":25483:25490   */\n      dup7\n        /* \"#utility.yul\":25474:25480   */\n      dup3\n        /* \"#utility.yul\":25463:25472   */\n      dup8\n        /* \"#utility.yul\":25459:25481   */\n      add\n        /* \"#utility.yul\":25427:25491   */\n      tag_677\n      jump\t// in\n    tag_928:\n        /* \"#utility.yul\":25417:25491   */\n      swap4\n      pop\n        /* \"#utility.yul\":25373:25501   */\n      pop\n        /* \"#utility.yul\":25540:25542   */\n      0x20\n        /* \"#utility.yul\":25566:25630   */\n      tag_929\n        /* \"#utility.yul\":25622:25629   */\n      dup7\n        /* \"#utility.yul\":25613:25619   */\n      dup3\n        /* \"#utility.yul\":25602:25611   */\n      dup8\n        /* \"#utility.yul\":25598:25620   */\n      add\n        /* \"#utility.yul\":25566:25630   */\n      tag_677\n      jump\t// in\n    tag_929:\n        /* \"#utility.yul\":25556:25630   */\n      swap3\n      pop\n        /* \"#utility.yul\":25511:25640   */\n      pop\n        /* \"#utility.yul\":25679:25681   */\n      0x40\n        /* \"#utility.yul\":25705:25768   */\n      tag_930\n        /* \"#utility.yul\":25760:25767   */\n      dup7\n        /* \"#utility.yul\":25751:25757   */\n      dup3\n        /* \"#utility.yul\":25740:25749   */\n      dup8\n        /* \"#utility.yul\":25736:25758   */\n      add\n        /* \"#utility.yul\":25705:25768   */\n      tag_680\n      jump\t// in\n    tag_930:\n        /* \"#utility.yul\":25695:25768   */\n      swap2\n      pop\n        /* \"#utility.yul\":25650:25778   */\n      pop\n        /* \"#utility.yul\":25124:25785   */\n      swap3\n      pop\n      swap3\n      pop\n      swap3\n      jump\t// out\n        /* \"#utility.yul\":25791:26021   */\n    tag_681:\n        /* \"#utility.yul\":25931:25965   */\n      0x556e697377617056324c6962726172793a20494e53554646494349454e545f49\n        /* \"#utility.yul\":25927:25928   */\n      0x00\n        /* \"#utility.yul\":25919:25925   */\n      dup3\n        /* \"#utility.yul\":25915:25929   */\n      add\n        /* \"#utility.yul\":25908:25966   */\n      mstore\n        /* \"#utility.yul\":26000:26013   */\n      0x4e5055545f414d4f554e54000000000000000000000000000000000000000000\n        /* \"#utility.yul\":25995:25997   */\n      0x20\n        /* \"#utility.yul\":25987:25993   */\n      dup3\n        /* \"#utility.yul\":25983:25998   */\n      add\n        /* \"#utility.yul\":25976:26014   */\n      mstore\n        /* \"#utility.yul\":25791:26021   */\n      pop\n      jump\t// out\n        /* \"#utility.yul\":26027:26393   */\n    tag_682:\n        /* \"#utility.yul\":26169:26172   */\n      0x00\n        /* \"#utility.yul\":26190:26257   */\n      tag_933\n        /* \"#utility.yul\":26254:26256   */\n      0x2b\n        /* \"#utility.yul\":26249:26252   */\n      dup4\n        /* \"#utility.yul\":26190:26257   */\n      tag_635\n      jump\t// in\n    tag_933:\n        /* \"#utility.yul\":26183:26257   */\n      swap2\n      pop\n        /* \"#utility.yul\":26266:26359   */\n      tag_934\n        /* \"#utility.yul\":26355:26358   */\n      dup3\n        /* \"#utility.yul\":26266:26359   */\n      tag_681\n      jump\t// in\n    tag_934:\n        /* \"#utility.yul\":26384:26386   */\n      0x40\n        /* \"#utility.yul\":26379:26382   */\n      dup3\n        /* \"#utility.yul\":26375:26387   */\n      add\n        /* \"#utility.yul\":26368:26387   */\n      swap1\n      pop\n        /* \"#utility.yul\":26027:26393   */\n      swap2\n      swap1\n      pop\n      jump\t// out\n        /* \"#utility.yul\":26399:26818   */\n    tag_579:\n        /* \"#utility.yul\":26565:26569   */\n      0x00\n        /* \"#utility.yul\":26603:26605   */\n      0x20\n        /* \"#utility.yul\":26592:26601   */\n      dup3\n        /* \"#utility.yul\":26588:26606   */\n      add\n        /* \"#utility.yul\":26580:26606   */\n      swap1\n      pop\n        /* \"#utility.yul\":26652:26661   */\n      dup2\n        /* \"#utility.yul\":26646:26650   */\n      dup2\n        /* \"#utility.yul\":26642:26662   */\n      sub\n        /* \"#utility.yul\":26638:26639   */\n      0x00\n        /* \"#utility.yul\":26627:26636   */\n      dup4\n        /* \"#utility.yul\":26623:26640   */\n      add\n        /* \"#utility.yul\":26616:26663   */\n      mstore\n        /* \"#utility.yul\":26680:26811   */\n      tag_936\n        /* \"#utility.yul\":26806:26810   */\n      dup2\n        /* \"#utility.yul\":26680:26811   */\n      tag_682\n      jump\t// in\n    tag_936:\n        /* \"#utility.yul\":26672:26811   */\n      swap1\n      pop\n        /* \"#utility.yul\":26399:26818   */\n      swap2\n      swap1\n      pop\n      jump\t// out\n        /* \"#utility.yul\":26824:27051   */\n    tag_683:\n        /* \"#utility.yul\":26964:26998   */\n      0x556e697377617056324c6962726172793a20494e53554646494349454e545f4c\n        /* \"#utility.yul\":26960:26961   */\n      0x00\n        /* \"#utility.yul\":26952:26958   */\n      dup3\n        /* \"#utility.yul\":26948:26962   */\n      add\n        /* \"#utility.yul\":26941:26999   */\n      mstore\n        /* \"#utility.yul\":27033:27043   */\n      0x4951554944495459000000000000000000000000000000000000000000000000\n        /* \"#utility.yul\":27028:27030   */\n      0x20\n        /* \"#utility.yul\":27020:27026   */\n      dup3\n        /* \"#utility.yul\":27016:27031   */\n      add\n        /* \"#utility.yul\":27009:27044   */\n      mstore\n        /* \"#utility.yul\":26824:27051   */\n      pop\n      jump\t// out\n        /* \"#utility.yul\":27057:27423   */\n    tag_684:\n        /* \"#utility.yul\":27199:27202   */\n      0x00\n        /* \"#utility.yul\":27220:27287   */\n      tag_939\n        /* \"#utility.yul\":27284:27286   */\n      0x28\n        /* \"#utility.yul\":27279:27282   */\n      dup4\n        /* \"#utility.yul\":27220:27287   */\n      tag_635\n      jump\t// in\n    tag_939:\n        /* \"#utility.yul\":27213:27287   */\n      swap2\n      pop\n        /* \"#utility.yul\":27296:27389   */\n      tag_940\n        /* \"#utility.yul\":27385:27388   */\n      dup3\n        /* \"#utility.yul\":27296:27389   */\n      tag_683\n      jump\t// in\n    tag_940:\n        /* \"#utility.yul\":27414:27416   */\n      0x40\n        /* \"#utility.yul\":27409:27412   */\n      dup3\n        /* \"#utility.yul\":27405:27417   */\n      add\n        /* \"#utility.yul\":27398:27417   */\n      swap1\n      pop\n        /* \"#utility.yul\":27057:27423   */\n      swap2\n      swap1\n      pop\n      jump\t// out\n        /* \"#utility.yul\":27429:27848   */\n    tag_583:\n        /* \"#utility.yul\":27595:27599   */\n      0x00\n        /* \"#utility.yul\":27633:27635   */\n      0x20\n        /* \"#utility.yul\":27622:27631   */\n      dup3\n        /* \"#utility.yul\":27618:27636   */\n      add\n        /* \"#utility.yul\":27610:27636   */\n      swap1\n      pop\n        /* \"#utility.yul\":27682:27691   */\n      dup2\n        /* \"#utility.yul\":27676:27680   */\n      dup2\n        /* \"#utility.yul\":27672:27692   */\n      sub\n        /* \"#utility.yul\":27668:27669   */\n      0x00\n        /* \"#utility.yul\":27657:27666   */\n      dup4\n        /* \"#utility.yul\":27653:27670   */\n      add\n        /* \"#utility.yul\":27646:27693   */\n      mstore\n        /* \"#utility.yul\":27710:27841   */\n      tag_942\n        /* \"#utility.yul\":27836:27840   */\n      dup2\n        /* \"#utility.yul\":27710:27841   */\n      tag_684\n      jump\t// in\n    tag_942:\n        /* \"#utility.yul\":27702:27841   */\n      swap1\n      pop\n        /* \"#utility.yul\":27429:27848   */\n      swap2\n      swap1\n      pop\n      jump\t// out\n        /* \"#utility.yul\":27854:28202   */\n    tag_585:\n        /* \"#utility.yul\":27894:27901   */\n      0x00\n        /* \"#utility.yul\":27917:27937   */\n      tag_944\n        /* \"#utility.yul\":27935:27936   */\n      dup3\n        /* \"#utility.yul\":27917:27937   */\n      tag_616\n      jump\t// in\n    tag_944:\n        /* \"#utility.yul\":27912:27937   */\n      swap2\n      pop\n        /* \"#utility.yul\":27951:27971   */\n      tag_945\n        /* \"#utility.yul\":27969:27970   */\n      dup4\n        /* \"#utility.yul\":27951:27971   */\n      tag_616\n      jump\t// in\n    tag_945:\n        /* \"#utility.yul\":27946:27971   */\n      swap3\n      pop\n        /* \"#utility.yul\":28139:28140   */\n      dup2\n        /* \"#utility.yul\":28071:28137   */\n      0xffffffffffffffffffffffffffffffffffffffffffffffffffffffffffffffff\n        /* \"#utility.yul\":28067:28141   */\n      div\n        /* \"#utility.yul\":28064:28065   */\n      dup4\n        /* \"#utility.yul\":28061:28142   */\n      gt\n        /* \"#utility.yul\":28056:28057   */\n      dup3\n        /* \"#utility.yul\":28049:28058   */\n      iszero\n        /* \"#utility.yul\":28042:28059   */\n      iszero\n        /* \"#utility.yul\":28038:28143   */\n      and\n        /* \"#utility.yul\":28035:28166   */\n      iszero\n      tag_946\n      jumpi\n        /* \"#utility.yul\":28146:28164   */\n      tag_947\n      tag_638\n      jump\t// in\n    tag_947:\n        /* \"#utility.yul\":28035:28166   */\n    tag_946:\n        /* \"#utility.yul\":28194:28195   */\n      dup3\n        /* \"#utility.yul\":28191:28192   */\n      dup3\n        /* \"#utility.yul\":28187:28196   */\n      mul\n        /* \"#utility.yul\":28176:28196   */\n      swap1\n      pop\n        /* \"#utility.yul\":27854:28202   */\n      swap3\n      swap2\n      pop\n      pop\n      jump\t// out\n        /* \"#utility.yul\":28208:28388   */\n    tag_685:\n        /* \"#utility.yul\":28256:28333   */\n      0x4e487b7100000000000000000000000000000000000000000000000000000000\n        /* \"#utility.yul\":28253:28254   */\n      0x00\n        /* \"#utility.yul\":28246:28334   */\n      mstore\n        /* \"#utility.yul\":28353:28357   */\n      0x12\n        /* \"#utility.yul\":28350:28351   */\n      0x04\n        /* \"#utility.yul\":28343:28358   */\n      mstore\n        /* \"#utility.yul\":28377:28381   */\n      0x24\n        /* \"#utility.yul\":28374:28375   */\n      0x00\n        /* \"#utility.yul\":28367:28382   */\n      revert\n        /* \"#utility.yul\":28394:28579   */\n    tag_590:\n        /* \"#utility.yul\":28434:28435   */\n      0x00\n        /* \"#utility.yul\":28451:28471   */\n      tag_950\n        /* \"#utility.yul\":28469:28470   */\n      dup3\n        /* \"#utility.yul\":28451:28471   */\n      tag_616\n      jump\t// in\n    tag_950:\n        /* \"#utility.yul\":28446:28471   */\n      swap2\n      pop\n        /* \"#utility.yul\":28485:28505   */\n      tag_951\n        /* \"#utility.yul\":28503:28504   */\n      dup4\n        /* \"#utility.yul\":28485:28505   */\n      tag_616\n      jump\t// in\n    tag_951:\n        /* \"#utility.yul\":28480:28505   */\n      swap3\n      pop\n        /* \"#utility.yul\":28524:28525   */\n      dup3\n        /* \"#utility.yul\":28514:28549   */\n      tag_952\n      jumpi\n        /* \"#utility.yul\":28529:28547   */\n      tag_953\n      tag_685\n      jump\t// in\n    tag_953:\n        /* \"#utility.yul\":28514:28549   */\n    tag_952:\n        /* \"#utility.yul\":28571:28572   */\n      dup3\n        /* \"#utility.yul\":28568:28569   */\n      dup3\n        /* \"#utility.yul\":28564:28573   */\n      div\n        /* \"#utility.yul\":28559:28573   */\n      swap1\n      pop\n        /* \"#utility.yul\":28394:28579   */\n      swap3\n      swap2\n      pop\n      pop\n      jump\t// out\n        /* \"#utility.yul\":28585:28809   */\n    tag_686:\n        /* \"#utility.yul\":28725:28759   */\n      0x556e697377617056324c6962726172793a204944454e544943414c5f41444452\n        /* \"#utility.yul\":28721:28722   */\n      0x00\n        /* \"#utility.yul\":28713:28719   */\n      dup3\n        /* \"#utility.yul\":28709:28723   */\n      add\n        /* \"#utility.yul\":28702:28760   */\n      mstore\n        /* \"#utility.yul\":28794:28801   */\n      0x4553534553000000000000000000000000000000000000000000000000000000\n        /* \"#utility.yul\":28789:28791   */\n      0x20\n        /* \"#utility.yul\":28781:28787   */\n      dup3\n        /* \"#utility.yul\":28777:28792   */\n      add\n        /* \"#utility.yul\":28770:28802   */\n      mstore\n        /* \"#utility.yul\":28585:28809   */\n      pop\n      jump\t// out\n        /* \"#utility.yul\":28815:29181   */\n    tag_687:\n        /* \"#utility.yul\":28957:28960   */\n      0x00\n        /* \"#utility.yul\":28978:29045   */\n      tag_956\n        /* \"#utility.yul\":29042:29044   */\n      0x25\n        /* \"#utility.yul\":29037:29040   */\n      dup4\n        /* \"#utility.yul\":28978:29045   */\n      tag_635\n      jump\t// in\n    tag_956:\n        /* \"#utility.yul\":28971:29045   */\n      swap2\n      pop\n        /* \"#utility.yul\":29054:29147   */\n      tag_957\n        /* \"#utility.yul\":29143:29146   */\n      dup3\n        /* \"#utility.yul\":29054:29147   */\n      tag_686\n      jump\t// in\n    tag_957:\n        /* \"#utility.yul\":29172:29174   */\n      0x40\n        /* \"#utility.yul\":29167:29170   */\n      dup3\n        /* \"#utility.yul\":29163:29175   */\n      add\n        /* \"#utility.yul\":29156:29175   */\n      swap1\n      pop\n        /* \"#utility.yul\":28815:29181   */\n      swap2\n      swap1\n      pop\n      jump\t// out\n        /* \"#utility.yul\":29187:29606   */\n    tag_594:\n        /* \"#utility.yul\":29353:29357   */\n      0x00\n        /* \"#utility.yul\":29391:29393   */\n      0x20\n        /* \"#utility.yul\":29380:29389   */\n      dup3\n        /* \"#utility.yul\":29376:29394   */\n      add\n        /* \"#utility.yul\":29368:29394   */\n      swap1\n      pop\n        /* \"#utility.yul\":29440:29449   */\n      dup2\n        /* \"#utility.yul\":29434:29438   */\n      dup2\n        /* \"#utility.yul\":29430:29450   */\n      sub\n        /* \"#utility.yul\":29426:29427   */\n      0x00\n        /* \"#utility.yul\":29415:29424   */\n      dup4\n        /* \"#utility.yul\":29411:29428   */\n      add\n        /* \"#utility.yul\":29404:29451   */\n      mstore\n        /* \"#utility.yul\":29468:29599   */\n      tag_959\n        /* \"#utility.yul\":29594:29598   */\n      dup2\n        /* \"#utility.yul\":29468:29599   */\n      tag_687\n      jump\t// in\n    tag_959:\n        /* \"#utility.yul\":29460:29599   */\n      swap1\n      pop\n        /* \"#utility.yul\":29187:29606   */\n      swap2\n      swap1\n      pop\n      jump\t// out\n        /* \"#utility.yul\":29612:29792   */\n    tag_688:\n        /* \"#utility.yul\":29752:29784   */\n      0x556e697377617056324c6962726172793a205a45524f5f414444524553530000\n        /* \"#utility.yul\":29748:29749   */\n      0x00\n        /* \"#utility.yul\":29740:29746   */\n      dup3\n        /* \"#utility.yul\":29736:29750   */\n      add\n        /* \"#utility.yul\":29729:29785   */\n      mstore\n        /* \"#utility.yul\":29612:29792   */\n      pop\n      jump\t// out\n        /* \"#utility.yul\":29798:30164   */\n    tag_689:\n        /* \"#utility.yul\":29940:29943   */\n      0x00\n        /* \"#utility.yul\":29961:30028   */\n      tag_962\n        /* \"#utility.yul\":30025:30027   */\n      0x1e\n        /* \"#utility.yul\":30020:30023   */\n      dup4\n        /* \"#utility.yul\":29961:30028   */\n      tag_635\n      jump\t// in\n    tag_962:\n        /* \"#utility.yul\":29954:30028   */\n      swap2\n      pop\n        /* \"#utility.yul\":30037:30130   */\n      tag_963\n        /* \"#utility.yul\":30126:30129   */\n      dup3\n        /* \"#utility.yul\":30037:30130   */\n      tag_688\n      jump\t// in\n    tag_963:\n        /* \"#utility.yul\":30155:30157   */\n      0x20\n        /* \"#utility.yul\":30150:30153   */\n      dup3\n        /* \"#utility.yul\":30146:30158   */\n      add\n        /* \"#utility.yul\":30139:30158   */\n      swap1\n      pop\n        /* \"#utility.yul\":29798:30164   */\n      swap2\n      swap1\n      pop\n      jump\t// out\n        /* \"#utility.yul\":30170:30589   */\n    tag_599:\n        /* \"#utility.yul\":30336:30340   */\n      0x00\n        /* \"#utility.yul\":30374:30376   */\n      0x20\n        /* \"#utility.yul\":30363:30372   */\n      dup3\n        /* \"#utility.yul\":30359:30377   */\n      add\n        /* \"#utility.yul\":30351:30377   */\n      swap1\n      pop\n        /* \"#utility.yul\":30423:30432   */\n      dup2\n        /* \"#utility.yul\":30417:30421   */\n      dup2\n        /* \"#utility.yul\":30413:30433   */\n      sub\n        /* \"#utility.yul\":30409:30410   */\n      0x00\n        /* \"#utility.yul\":30398:30407   */\n      dup4\n        /* \"#utility.yul\":30394:30411   */\n      add\n        /* \"#utility.yul\":30387:30434   */\n      mstore\n        /* \"#utility.yul\":30451:30582   */\n      tag_965\n        /* \"#utility.yul\":30577:30581   */\n      dup2\n        /* \"#utility.yul\":30451:30582   */\n      tag_689\n      jump\t// in\n    tag_965:\n        /* \"#utility.yul\":30443:30582   */\n      swap1\n      pop\n        /* \"#utility.yul\":30170:30589   */\n      swap2\n      swap1\n      pop\n      jump\t// out\n        /* \"#utility.yul\":30595:30826   */\n    tag_690:\n        /* \"#utility.yul\":30735:30769   */\n      0x556e697377617056324c6962726172793a20494e53554646494349454e545f4f\n        /* \"#utility.yul\":30731:30732   */\n      0x00\n        /* \"#utility.yul\":30723:30729   */\n      dup3\n        /* \"#utility.yul\":30719:30733   */\n      add\n        /* \"#utility.yul\":30712:30770   */\n      mstore\n        /* \"#utility.yul\":30804:30818   */\n      0x55545055545f414d4f554e540000000000000000000000000000000000000000\n        /* \"#utility.yul\":30799:30801   */\n      0x20\n        /* \"#utility.yul\":30791:30797   */\n      dup3\n        /* \"#utility.yul\":30787:30802   */\n      add\n        /* \"#utility.yul\":30780:30819   */\n      mstore\n        /* \"#utility.yul\":30595:30826   */\n      pop\n      jump\t// out\n        /* \"#utility.yul\":30832:31198   */\n    tag_691:\n        /* \"#utility.yul\":30974:30977   */\n      0x00\n        /* \"#utility.yul\":30995:31062   */\n      tag_968\n        /* \"#utility.yul\":31059:31061   */\n      0x2c\n        /* \"#utility.yul\":31054:31057   */\n      dup4\n        /* \"#utility.yul\":30995:31062   */\n      tag_635\n      jump\t// in\n    tag_968:\n        /* \"#utility.yul\":30988:31062   */\n      swap2\n      pop\n        /* \"#utility.yul\":31071:31164   */\n      tag_969\n        /* \"#utility.yul\":31160:31163   */\n      dup3\n        /* \"#utility.yul\":31071:31164   */\n      tag_690\n      jump\t// in\n    tag_969:\n        /* \"#utility.yul\":31189:31191   */\n      0x40\n        /* \"#utility.yul\":31184:31187   */\n      dup3\n        /* \"#utility.yul\":31180:31192   */\n      add\n        /* \"#utility.yul\":31173:31192   */\n      swap1\n      pop\n        /* \"#utility.yul\":30832:31198   */\n      swap2\n      swap1\n      pop\n      jump\t// out\n        /* \"#utility.yul\":31204:31623   */\n    tag_603:\n        /* \"#utility.yul\":31370:31374   */\n      0x00\n        /* \"#utility.yul\":31408:31410   */\n      0x20\n        /* \"#utility.yul\":31397:31406   */\n      dup3\n        /* \"#utility.yul\":31393:31411   */\n      add\n        /* \"#utility.yul\":31385:31411   */\n      swap1\n      pop\n        /* \"#utility.yul\":31457:31466   */\n      dup2\n        /* \"#utility.yul\":31451:31455   */\n      dup2\n        /* \"#utility.yul\":31447:31467   */\n      sub\n        /* \"#utility.yul\":31443:31444   */\n      0x00\n        /* \"#utility.yul\":31432:31441   */\n      dup4\n        /* \"#utility.yul\":31428:31445   */\n      add\n        /* \"#utility.yul\":31421:31468   */\n      mstore\n        /* \"#utility.yul\":31485:31616   */\n      tag_971\n        /* \"#utility.yul\":31611:31615   */\n      dup2\n        /* \"#utility.yul\":31485:31616   */\n      tag_691\n      jump\t// in\n    tag_971:\n        /* \"#utility.yul\":31477:31616   */\n      swap1\n      pop\n        /* \"#utility.yul\":31204:31623   */\n      swap2\n      swap1\n      pop\n      jump\t// out\n\n    auxdata: 0xa2646970667358221220331136855f5c99974712d143e9f4338b35fcb46e92377d92f6c37efcbf9ba0f364736f6c634300080f0033\n}\n",
				"bytecode": {
					"linkReferences": {},
					"object": "60806040523480156200001157600080fd5b506040516200453d3803806200453d83398181016040528101906200003791906200012a565b816000806101000a81548173ffffffffffffffffffffffffffffffffffffffff021916908373ffffffffffffffffffffffffffffffffffffffff16021790555080600160006101000a81548173ffffffffffffffffffffffffffffffffffffffff021916908373ffffffffffffffffffffffffffffffffffffffff160217905550505062000171565b600080fd5b600073ffffffffffffffffffffffffffffffffffffffff82169050919050565b6000620000f282620000c5565b9050919050565b6200010481620000e5565b81146200011057600080fd5b50565b6000815190506200012481620000f9565b92915050565b60008060408385031215620001445762000143620000c0565b5b6000620001548582860162000113565b9250506020620001678582860162000113565b9150509250929050565b6143bc80620001816000396000f3fe60806040526004361061009c5760003560e01c80637ff36ab5116100645780637ff36ab5146101aa5780638803dbee146101da578063ad5c464814610217578063b6f9de9514610242578063c45a01551461025e578063fb3bdb41146102895761009c565b806318cbafe5146100a157806338ed1739146100de5780634a25d94a1461011b5780635c11d79514610158578063791ac94714610181575b600080fd5b3480156100ad57600080fd5b506100c860048036038101906100c391906133a9565b6102b9565b6040516100d59190613501565b60405180910390f35b3480156100ea57600080fd5b50610105600480360381019061010091906133a9565b6106a2565b6040516101129190613501565b60405180910390f35b34801561012757600080fd5b50610142600480360381019061013d91906133a9565b6108e0565b60405161014f9190613501565b60405180910390f35b34801561016457600080fd5b5061017f600480360381019061017a91906133a9565b610cbd565b005b34801561018d57600080fd5b506101a860048036038101906101a391906133a9565b610fb5565b005b6101c460048036038101906101bf9190613523565b61133c565b6040516101d19190613501565b60405180910390f35b3480156101e657600080fd5b5061020160048036038101906101fc91906133a9565b611748565b60405161020e9190613501565b60405180910390f35b34801561022357600080fd5b5061022c61197a565b60405161023991906135ba565b60405180910390f35b61025c60048036038101906102579190613523565b6119a0565b005b34801561026a57600080fd5b50610273611e51565b60405161028091906135ba565b60405180910390f35b6102a3600480360381019061029e9190613523565b611e75565b6040516102b09190613501565b60405180910390f35b606081428110156102ff576040517f08c379a00000000000000000000000000000000000000000000000000000000081526004016102f690613632565b60405180910390fd5b600160009054906101000a900473ffffffffffffffffffffffffffffffffffffffff1673ffffffffffffffffffffffffffffffffffffffff16868660018989905061034a9190613681565b81811061035a576103596136b5565b5b905060200201602081019061036f91906136e4565b73ffffffffffffffffffffffffffffffffffffffff16146103c5576040517f08c379a00000000000000000000000000000000000000000000000000000000081526004016103bc9061375d565b60405180910390fd5b61043160008054906101000a900473ffffffffffffffffffffffffffffffffffffffff1689888880806020026020016040519081016040528093929190818152602001838360200280828437600081840152601f19601f820116905080830192505050505050506122c9565b91508682600184516104439190613681565b81518110610454576104536136b5565b5b6020026020010151101561049d576040517f08c379a0000000000000000000000000000000000000000000000000000000008152600401610494906137ef565b60405180910390fd5b610566868660008181106104b4576104b36136b5565b5b90506020020160208101906104c991906136e4565b3361054560008054906101000a900473ffffffffffffffffffffffffffffffffffffffff168a8a6000818110610502576105016136b5565b5b905060200201602081019061051791906136e4565b8b8b600181811061052b5761052a6136b5565b5b905060200201602081019061054091906136e4565b612454565b85600081518110610559576105586136b5565b5b60200260200101516124c6565b6105b282878780806020026020016040519081016040528093929190818152602001838360200280828437600081840152601f19601f82011690508083019250505050505050306125ff565b600160009054906101000a900473ffffffffffffffffffffffffffffffffffffffff1673ffffffffffffffffffffffffffffffffffffffff16632e1a7d4d83600185516105ff9190613681565b815181106106105761060f6136b5565b5b60200260200101516040518263ffffffff1660e01b8152600401610634919061381e565b600060405180830381600087803b15801561064e57600080fd5b505af1158015610662573d6000803e3d6000fd5b505050506106978483600185516106799190613681565b8151811061068a576106896136b5565b5b6020026020010151612858565b509695505050505050565b606081428110156106e8576040517f08c379a00000000000000000000000000000000000000000000000000000000081526004016106df90613632565b60405180910390fd5b61075460008054906101000a900473ffffffffffffffffffffffffffffffffffffffff1689888880806020026020016040519081016040528093929190818152602001838360200280828437600081840152601f19601f820116905080830192505050505050506122c9565b91508682600184516107669190613681565b81518110610777576107766136b5565b5b602002602001015110156107c0576040517f08c379a00000000000000000000000000000000000000000000000000000000081526004016107b7906137ef565b60405180910390fd5b610889868660008181106107d7576107d66136b5565b5b90506020020160208101906107ec91906136e4565b3361086860008054906101000a900473ffffffffffffffffffffffffffffffffffffffff168a8a6000818110610825576108246136b5565b5b905060200201602081019061083a91906136e4565b8b8b600181811061084e5761084d6136b5565b5b905060200201602081019061086391906136e4565b612454565b8560008151811061087c5761087b6136b5565b5b60200260200101516124c6565b6108d582878780806020026020016040519081016040528093929190818152602001838360200280828437600081840152601f19601f82011690508083019250505050505050866125ff565b509695505050505050565b60608142811015610926576040517f08c379a000000000000000000000000000000000000000000000000000000000815260040161091d90613632565b60405180910390fd5b600160009054906101000a900473ffffffffffffffffffffffffffffffffffffffff1673ffffffffffffffffffffffffffffffffffffffff1686866001898990506109719190613681565b818110610981576109806136b5565b5b905060200201602081019061099691906136e4565b73ffffffffffffffffffffffffffffffffffffffff16146109ec576040517f08c379a00000000000000000000000000000000000000000000000000000000081526004016109e39061375d565b60405180910390fd5b610a5860008054906101000a900473ffffffffffffffffffffffffffffffffffffffff1689888880806020026020016040519081016040528093929190818152602001838360200280828437600081840152601f19601f82011690508083019250505050505050612958565b91508682600081518110610a6f57610a6e6136b5565b5b60200260200101511115610ab8576040517f08c379a0000000000000000000000000000000000000000000000000000000008152600401610aaf906138ab565b60405180910390fd5b610b8186866000818110610acf57610ace6136b5565b5b9050602002016020810190610ae491906136e4565b33610b6060008054906101000a900473ffffffffffffffffffffffffffffffffffffffff168a8a6000818110610b1d57610b1c6136b5565b5b9050602002016020810190610b3291906136e4565b8b8b6001818110610b4657610b456136b5565b5b9050602002016020810190610b5b91906136e4565b612454565b85600081518110610b7457610b736136b5565b5b60200260200101516124c6565b610bcd82878780806020026020016040519081016040528093929190818152602001838360200280828437600081840152601f19601f82011690508083019250505050505050306125ff565b600160009054906101000a900473ffffffffffffffffffffffffffffffffffffffff1673ffffffffffffffffffffffffffffffffffffffff16632e1a7d4d8360018551610c1a9190613681565b81518110610c2b57610c2a6136b5565b5b60200260200101516040518263ffffffff1660e01b8152600401610c4f919061381e565b600060405180830381600087803b158015610c6957600080fd5b505af1158015610c7d573d6000803e3d6000fd5b50505050610cb2848360018551610c949190613681565b81518110610ca557610ca46136b5565b5b6020026020010151612858565b509695505050505050565b8042811015610d01576040517f08c379a0000000000000000000000000000000000000000000000000000000008152600401610cf890613632565b60405180910390fd5b610daf85856000818110610d1857610d176136b5565b5b9050602002016020810190610d2d91906136e4565b33610da960008054906101000a900473ffffffffffffffffffffffffffffffffffffffff1689896000818110610d6657610d656136b5565b5b9050602002016020810190610d7b91906136e4565b8a8a6001818110610d8f57610d8e6136b5565b5b9050602002016020810190610da491906136e4565b612454565b8a6124c6565b60008585600188889050610dc39190613681565b818110610dd357610dd26136b5565b5b9050602002016020810190610de891906136e4565b73ffffffffffffffffffffffffffffffffffffffff166370a08231856040518263ffffffff1660e01b8152600401610e2091906135ba565b602060405180830381865afa158015610e3d573d6000803e3d6000fd5b505050506040513d601f19601f82011682018060405250810190610e6191906138e0565b9050610eae868680806020026020016040519081016040528093929190818152602001838360200280828437600081840152601f19601f8201169050808301925050505050505085612af3565b8681878760018a8a9050610ec29190613681565b818110610ed257610ed16136b5565b5b9050602002016020810190610ee791906136e4565b73ffffffffffffffffffffffffffffffffffffffff166370a08231876040518263ffffffff1660e01b8152600401610f1f91906135ba565b602060405180830381865afa158015610f3c573d6000803e3d6000fd5b505050506040513d601f19601f82011682018060405250810190610f6091906138e0565b610f6a9190613681565b1015610fab576040517f08c379a0000000000000000000000000000000000000000000000000000000008152600401610fa2906137ef565b60405180910390fd5b5050505050505050565b8042811015610ff9576040517f08c379a0000000000000000000000000000000000000000000000000000000008152600401610ff090613632565b60405180910390fd5b600160009054906101000a900473ffffffffffffffffffffffffffffffffffffffff1673ffffffffffffffffffffffffffffffffffffffff1685856001888890506110449190613681565b818110611054576110536136b5565b5b905060200201602081019061106991906136e4565b73ffffffffffffffffffffffffffffffffffffffff16146110bf576040517f08c379a00000000000000000000000000000000000000000000000000000000081526004016110b69061375d565b60405180910390fd5b61116d858560008181106110d6576110d56136b5565b5b90506020020160208101906110eb91906136e4565b3361116760008054906101000a900473ffffffffffffffffffffffffffffffffffffffff1689896000818110611124576111236136b5565b5b905060200201602081019061113991906136e4565b8a8a600181811061114d5761114c6136b5565b5b905060200201602081019061116291906136e4565b612454565b8a6124c6565b6111b8858580806020026020016040519081016040528093929190818152602001838360200280828437600081840152601f19601f8201169050808301925050505050505030612af3565b6000600160009054906101000a900473ffffffffffffffffffffffffffffffffffffffff1673ffffffffffffffffffffffffffffffffffffffff166370a08231306040518263ffffffff1660e01b815260040161121591906135ba565b602060405180830381865afa158015611232573d6000803e3d6000fd5b505050506040513d601f19601f8201168201806040525081019061125691906138e0565b90508681101561129b576040517f08c379a0000000000000000000000000000000000000000000000000000000008152600401611292906137ef565b60405180910390fd5b600160009054906101000a900473ffffffffffffffffffffffffffffffffffffffff1673ffffffffffffffffffffffffffffffffffffffff16632e1a7d4d826040518263ffffffff1660e01b81526004016112f6919061381e565b600060405180830381600087803b15801561131057600080fd5b505af1158015611324573d6000803e3d6000fd5b505050506113328482612858565b5050505050505050565b60608142811015611382576040517f08c379a000000000000000000000000000000000000000000000000000000000815260040161137990613632565b60405180910390fd5b600160009054906101000a900473ffffffffffffffffffffffffffffffffffffffff1673ffffffffffffffffffffffffffffffffffffffff16868660008181106113cf576113ce6136b5565b5b90506020020160208101906113e491906136e4565b73ffffffffffffffffffffffffffffffffffffffff161461143a576040517f08c379a00000000000000000000000000000000000000000000000000000000081526004016114319061375d565b60405180910390fd5b6114a660008054906101000a900473ffffffffffffffffffffffffffffffffffffffff1634888880806020026020016040519081016040528093929190818152602001838360200280828437600081840152601f19601f820116905080830192505050505050506122c9565b91508682600184516114b89190613681565b815181106114c9576114c86136b5565b5b60200260200101511015611512576040517f08c379a0000000000000000000000000000000000000000000000000000000008152600401611509906137ef565b60405180910390fd5b600160009054906101000a900473ffffffffffffffffffffffffffffffffffffffff1673ffffffffffffffffffffffffffffffffffffffff1663d0e30db083600081518110611564576115636136b5565b5b60200260200101516040518263ffffffff1660e01b81526004016000604051808303818588803b15801561159757600080fd5b505af11580156115ab573d6000803e3d6000fd5b5050505050600160009054906101000a900473ffffffffffffffffffffffffffffffffffffffff1673ffffffffffffffffffffffffffffffffffffffff1663a9059cbb61166960008054906101000a900473ffffffffffffffffffffffffffffffffffffffff1689896000818110611626576116256136b5565b5b905060200201602081019061163b91906136e4565b8a8a600181811061164f5761164e6136b5565b5b905060200201602081019061166491906136e4565b612454565b8460008151811061167d5761167c6136b5565b5b60200260200101516040518363ffffffff1660e01b81526004016116a292919061390d565b6020604051808303816000875af11580156116c1573d6000803e3d6000fd5b505050506040513d601f19601f820116820180604052508101906116e5919061396e565b6116f2576116f161399b565b5b61173e82878780806020026020016040519081016040528093929190818152602001838360200280828437600081840152601f19601f82011690508083019250505050505050866125ff565b5095945050505050565b6060814281101561178e576040517f08c379a000000000000000000000000000000000000000000000000000000000815260040161178590613632565b60405180910390fd5b6117fa60008054906101000a900473ffffffffffffffffffffffffffffffffffffffff1689888880806020026020016040519081016040528093929190818152602001838360200280828437600081840152601f19601f82011690508083019250505050505050612958565b91508682600081518110611811576118106136b5565b5b6020026020010151111561185a576040517f08c379a0000000000000000000000000000000000000000000000000000000008152600401611851906138ab565b60405180910390fd5b61192386866000818110611871576118706136b5565b5b905060200201602081019061188691906136e4565b3361190260008054906101000a900473ffffffffffffffffffffffffffffffffffffffff168a8a60008181106118bf576118be6136b5565b5b90506020020160208101906118d491906136e4565b8b8b60018181106118e8576118e76136b5565b5b90506020020160208101906118fd91906136e4565b612454565b85600081518110611916576119156136b5565b5b60200260200101516124c6565b61196f82878780806020026020016040519081016040528093929190818152602001838360200280828437600081840152601f19601f82011690508083019250505050505050866125ff565b509695505050505050565b600160009054906101000a900473ffffffffffffffffffffffffffffffffffffffff1681565b80428110156119e4576040517f08c379a00000000000000000000000000000000000000000000000000000000081526004016119db90613632565b60405180910390fd5b600160009054906101000a900473ffffffffffffffffffffffffffffffffffffffff1673ffffffffffffffffffffffffffffffffffffffff1685856000818110611a3157611a306136b5565b5b9050602002016020810190611a4691906136e4565b73ffffffffffffffffffffffffffffffffffffffff1614611a9c576040517f08c379a0000000000000000000000000000000000000000000000000000000008152600401611a939061375d565b60405180910390fd5b6000349050600160009054906101000a900473ffffffffffffffffffffffffffffffffffffffff1673ffffffffffffffffffffffffffffffffffffffff1663d0e30db0826040518263ffffffff1660e01b81526004016000604051808303818588803b158015611b0b57600080fd5b505af1158015611b1f573d6000803e3d6000fd5b5050505050600160009054906101000a900473ffffffffffffffffffffffffffffffffffffffff1673ffffffffffffffffffffffffffffffffffffffff1663a9059cbb611bdd60008054906101000a900473ffffffffffffffffffffffffffffffffffffffff1689896000818110611b9a57611b996136b5565b5b9050602002016020810190611baf91906136e4565b8a8a6001818110611bc357611bc26136b5565b5b9050602002016020810190611bd891906136e4565b612454565b836040518363ffffffff1660e01b8152600401611bfb92919061390d565b6020604051808303816000875af1158015611c1a573d6000803e3d6000fd5b505050506040513d601f19601f82011682018060405250810190611c3e919061396e565b611c4b57611c4a61399b565b5b60008686600189899050611c5f9190613681565b818110611c6f57611c6e6136b5565b5b9050602002016020810190611c8491906136e4565b73ffffffffffffffffffffffffffffffffffffffff166370a08231866040518263ffffffff1660e01b8152600401611cbc91906135ba565b602060405180830381865afa158015611cd9573d6000803e3d6000fd5b505050506040513d601f19601f82011682018060405250810190611cfd91906138e0565b9050611d4a878780806020026020016040519081016040528093929190818152602001838360200280828437600081840152601f19601f8201169050808301925050505050505086612af3565b8781888860018b8b9050611d5e9190613681565b818110611d6e57611d6d6136b5565b5b9050602002016020810190611d8391906136e4565b73ffffffffffffffffffffffffffffffffffffffff166370a08231886040518263ffffffff1660e01b8152600401611dbb91906135ba565b602060405180830381865afa158015611dd8573d6000803e3d6000fd5b505050506040513d601f19601f82011682018060405250810190611dfc91906138e0565b611e069190613681565b1015611e47576040517f08c379a0000000000000000000000000000000000000000000000000000000008152600401611e3e906137ef565b60405180910390fd5b5050505050505050565b60008054906101000a900473ffffffffffffffffffffffffffffffffffffffff1681565b60608142811015611ebb576040517f08c379a0000000000000000000000000000000000000000000000000000000008152600401611eb290613632565b60405180910390fd5b600160009054906101000a900473ffffffffffffffffffffffffffffffffffffffff1673ffffffffffffffffffffffffffffffffffffffff1686866000818110611f0857611f076136b5565b5b9050602002016020810190611f1d91906136e4565b73ffffffffffffffffffffffffffffffffffffffff1614611f73576040517f08c379a0000000000000000000000000000000000000000000000000000000008152600401611f6a9061375d565b60405180910390fd5b611fdf60008054906101000a900473ffffffffffffffffffffffffffffffffffffffff1688888880806020026020016040519081016040528093929190818152602001838360200280828437600081840152601f19601f82011690508083019250505050505050612958565b91503482600081518110611ff657611ff56136b5565b5b6020026020010151111561203f576040517f08c379a0000000000000000000000000000000000000000000000000000000008152600401612036906138ab565b60405180910390fd5b600160009054906101000a900473ffffffffffffffffffffffffffffffffffffffff1673ffffffffffffffffffffffffffffffffffffffff1663d0e30db083600081518110612091576120906136b5565b5b60200260200101516040518263ffffffff1660e01b81526004016000604051808303818588803b1580156120c457600080fd5b505af11580156120d8573d6000803e3d6000fd5b5050505050600160009054906101000a900473ffffffffffffffffffffffffffffffffffffffff1673ffffffffffffffffffffffffffffffffffffffff1663a9059cbb61219660008054906101000a900473ffffffffffffffffffffffffffffffffffffffff1689896000818110612153576121526136b5565b5b905060200201602081019061216891906136e4565b8a8a600181811061217c5761217b6136b5565b5b905060200201602081019061219191906136e4565b612454565b846000815181106121aa576121a96136b5565b5b60200260200101516040518363ffffffff1660e01b81526004016121cf92919061390d565b6020604051808303816000875af11580156121ee573d6000803e3d6000fd5b505050506040513d601f19601f82011682018060405250810190612212919061396e565b61221f5761221e61399b565b5b61226b82878780806020026020016040519081016040528093929190818152602001838360200280828437600081840152601f19601f82011690508083019250505050505050866125ff565b8160008151811061227f5761227e6136b5565b5b60200260200101513411156122bf576122be33836000815181106122a6576122a56136b5565b5b6020026020010151346122b99190613681565b612858565b5b5095945050505050565b6060600282511015612310576040517f08c379a000000000000000000000000000000000000000000000000000000000815260040161230790613a16565b60405180910390fd5b815167ffffffffffffffff81111561232b5761232a613a36565b5b6040519080825280602002602001820160405280156123595781602001602082028036833780820191505090505b5090508281600081518110612371576123706136b5565b5b60200260200101818152505060005b6001835161238e9190613681565b81101561244c576000806123e3878685815181106123af576123ae6136b5565b5b6020026020010151876001876123c59190613a65565b815181106123d6576123d56136b5565b5b6020026020010151612e9d565b9150915061240c8484815181106123fd576123fc6136b5565b5b60200260200101518383612fa0565b8460018561241a9190613a65565b8151811061242b5761242a6136b5565b5b6020026020010181815250505050808061244490613abb565b915050612380565b509392505050565b6000806000612463858561308a565b9150915085828260405160200161247b929190613b4b565b604051602081830303815290604052805190602001206040516020016124a2929190613c45565b6040516020818303038152906040528051906020012060001c925050509392505050565b6000808573ffffffffffffffffffffffffffffffffffffffff166323b872dd8686866040516024016124fa93929190613c87565b6040516020818303038152906040529060e01b6020820180517bffffffffffffffffffffffffffffffffffffffffffffffffffffffff83818316178352505050506040516125489190613d38565b6000604051808303816000865af19150503d8060008114612585576040519150601f19603f3d011682016040523d82523d6000602084013e61258a565b606091505b50915091508180156125b857506000815114806125b75750808060200190518101906125b6919061396e565b5b5b6125f7576040517f08c379a00000000000000000000000000000000000000000000000000000000081526004016125ee90613dc1565b60405180910390fd5b505050505050565b60005b600183516126109190613681565b8110156128525760008084838151811061262d5761262c6136b5565b5b6020026020010151856001856126439190613a65565b81518110612654576126536136b5565b5b602002602001015191509150600061266c838361308a565b50905060008760018661267f9190613a65565b815181106126905761268f6136b5565b5b602002602001015190506000808373ffffffffffffffffffffffffffffffffffffffff168673ffffffffffffffffffffffffffffffffffffffff16146126d8578260006126dc565b6000835b91509150600060028a516126f09190613681565b88106126fc578861274e565b61274d60008054906101000a900473ffffffffffffffffffffffffffffffffffffffff16878c60028c61272f9190613a65565b815181106127405761273f6136b5565b5b6020026020010151612454565b5b905061277b60008054906101000a900473ffffffffffffffffffffffffffffffffffffffff168888612454565b73ffffffffffffffffffffffffffffffffffffffff1663022c0d9f848484600067ffffffffffffffff8111156127b4576127b3613a36565b5b6040519080825280601f01601f1916602001820160405280156127e65781602001600182028036833780820191505090505b506040518563ffffffff1660e01b81526004016128069493929190613e3c565b600060405180830381600087803b15801561282057600080fd5b505af1158015612834573d6000803e3d6000fd5b5050505050505050505050808061284a90613abb565b915050612602565b50505050565b60008273ffffffffffffffffffffffffffffffffffffffff1682600067ffffffffffffffff81111561288d5761288c613a36565b5b6040519080825280601f01601f1916602001820160405280156128bf5781602001600182028036833780820191505090505b506040516128cd9190613d38565b60006040518083038185875af1925050503d806000811461290a576040519150601f19603f3d011682016040523d82523d6000602084013e61290f565b606091505b5050905080612953576040517f08c379a000000000000000000000000000000000000000000000000000000000815260040161294a90613efa565b60405180910390fd5b505050565b606060028251101561299f576040517f08c379a000000000000000000000000000000000000000000000000000000000815260040161299690613a16565b60405180910390fd5b815167ffffffffffffffff8111156129ba576129b9613a36565b5b6040519080825280602002602001820160405280156129e85781602001602082028036833780820191505090505b5090508281600183516129fb9190613681565b81518110612a0c57612a0b6136b5565b5b602002602001018181525050600060018351612a289190613681565b90505b6000811115612aeb57600080612a828786600186612a499190613681565b81518110612a5a57612a596136b5565b5b6020026020010151878681518110612a7557612a746136b5565b5b6020026020010151612e9d565b91509150612aab848481518110612a9c57612a9b6136b5565b5b602002602001015183836131b6565b84600185612ab99190613681565b81518110612aca57612ac96136b5565b5b60200260200101818152505050508080612ae390613f1a565b915050612a2b565b509392505050565b60005b60018351612b049190613681565b811015612e9857600080848381518110612b2157612b206136b5565b5b602002602001015185600185612b379190613a65565b81518110612b4857612b476136b5565b5b6020026020010151915091506000612b60838361308a565b5090506000612b9060008054906101000a900473ffffffffffffffffffffffffffffffffffffffff168585612454565b90506000806000808473ffffffffffffffffffffffffffffffffffffffff16630902f1ac6040518163ffffffff1660e01b8152600401606060405180830381865afa158015612be3573d6000803e3d6000fd5b505050506040513d601f19601f82011682018060405250810190612c079190613fc5565b506dffffffffffffffffffffffffffff1691506dffffffffffffffffffffffffffff1691506000808773ffffffffffffffffffffffffffffffffffffffff168a73ffffffffffffffffffffffffffffffffffffffff1614612c69578284612c6c565b83835b91509150818a73ffffffffffffffffffffffffffffffffffffffff166370a08231896040518263ffffffff1660e01b8152600401612caa91906135ba565b602060405180830381865afa158015612cc7573d6000803e3d6000fd5b505050506040513d601f19601f82011682018060405250810190612ceb91906138e0565b612cf59190613681565b9550612d02868383612fa0565b9450505050506000808573ffffffffffffffffffffffffffffffffffffffff168873ffffffffffffffffffffffffffffffffffffffff1614612d4657826000612d4a565b6000835b91509150600060028c51612d5e9190613681565b8a10612d6a578a612dbc565b612dbb60008054906101000a900473ffffffffffffffffffffffffffffffffffffffff16898e60028e612d9d9190613a65565b81518110612dae57612dad6136b5565b5b6020026020010151612454565b5b90508573ffffffffffffffffffffffffffffffffffffffff1663022c0d9f848484600067ffffffffffffffff811115612df857612df7613a36565b5b6040519080825280601f01601f191660200182016040528015612e2a5781602001600182028036833780820191505090505b506040518563ffffffff1660e01b8152600401612e4a9493929190613e3c565b600060405180830381600087803b158015612e6457600080fd5b505af1158015612e78573d6000803e3d6000fd5b505050505050505050505050508080612e9090613abb565b915050612af6565b505050565b6000806000612eac858561308a565b509050600080612ebd888888612454565b73ffffffffffffffffffffffffffffffffffffffff16630902f1ac6040518163ffffffff1660e01b8152600401606060405180830381865afa158015612f07573d6000803e3d6000fd5b505050506040513d601f19601f82011682018060405250810190612f2b9190613fc5565b506dffffffffffffffffffffffffffff1691506dffffffffffffffffffffffffffff1691508273ffffffffffffffffffffffffffffffffffffffff168773ffffffffffffffffffffffffffffffffffffffff1614612f8a578082612f8d565b81815b8095508196505050505050935093915050565b6000808411612fe4576040517f08c379a0000000000000000000000000000000000000000000000000000000008152600401612fdb9061408a565b60405180910390fd5b600083118015612ff45750600082115b613033576040517f08c379a000000000000000000000000000000000000000000000000000000000815260040161302a9061411c565b60405180910390fd5b60006103e585613043919061413c565b905060008382613053919061413c565b90506000826103e887613066919061413c565b6130709190613a65565b9050808261307e91906141c5565b93505050509392505050565b6000808273ffffffffffffffffffffffffffffffffffffffff168473ffffffffffffffffffffffffffffffffffffffff16036130fb576040517f08c379a00000000000000000000000000000000000000000000000000000000081526004016130f290614268565b60405180910390fd5b8273ffffffffffffffffffffffffffffffffffffffff168473ffffffffffffffffffffffffffffffffffffffff1610613135578284613138565b83835b8092508193505050600073ffffffffffffffffffffffffffffffffffffffff168273ffffffffffffffffffffffffffffffffffffffff16036131af576040517f08c379a00000000000000000000000000000000000000000000000000000000081526004016131a6906142d4565b60405180910390fd5b9250929050565b60008084116131fa576040517f08c379a00000000000000000000000000000000000000000000000000000000081526004016131f190614366565b60405180910390fd5b60008311801561320a5750600082115b613249576040517f08c379a00000000000000000000000000000000000000000000000000000000081526004016132409061411c565b60405180910390fd5b60006103e8858561325a919061413c565b613264919061413c565b905060006103e586856132779190613681565b613281919061413c565b90506001818361329191906141c5565b61329b9190613a65565b925050509392505050565b600080fd5b600080fd5b6000819050919050565b6132c3816132b0565b81146132ce57600080fd5b50565b6000813590506132e0816132ba565b92915050565b600080fd5b600080fd5b600080fd5b60008083601f84011261330b5761330a6132e6565b5b8235905067ffffffffffffffff811115613328576133276132eb565b5b602083019150836020820283011115613344576133436132f0565b5b9250929050565b600073ffffffffffffffffffffffffffffffffffffffff82169050919050565b60006133768261334b565b9050919050565b6133868161336b565b811461339157600080fd5b50565b6000813590506133a38161337d565b92915050565b60008060008060008060a087890312156133c6576133c56132a6565b5b60006133d489828a016132d1565b96505060206133e589828a016132d1565b955050604087013567ffffffffffffffff811115613406576134056132ab565b5b61341289828a016132f5565b9450945050606061342589828a01613394565b925050608061343689828a016132d1565b9150509295509295509295565b600081519050919050565b600082825260208201905092915050565b6000819050602082019050919050565b613478816132b0565b82525050565b600061348a838361346f565b60208301905092915050565b6000602082019050919050565b60006134ae82613443565b6134b8818561344e565b93506134c38361345f565b8060005b838110156134f45781516134db888261347e565b97506134e683613496565b9250506001810190506134c7565b5085935050505092915050565b6000602082019050818103600083015261351b81846134a3565b905092915050565b60008060008060006080868803121561353f5761353e6132a6565b5b600061354d888289016132d1565b955050602086013567ffffffffffffffff81111561356e5761356d6132ab565b5b61357a888289016132f5565b9450945050604061358d88828901613394565b925050606061359e888289016132d1565b9150509295509295909350565b6135b48161336b565b82525050565b60006020820190506135cf60008301846135ab565b92915050565b600082825260208201905092915050565b7f556e69737761705632526f757465723a20455850495245440000000000000000600082015250565b600061361c6018836135d5565b9150613627826135e6565b602082019050919050565b6000602082019050818103600083015261364b8161360f565b9050919050565b7f4e487b7100000000000000000000000000000000000000000000000000000000600052601160045260246000fd5b600061368c826132b0565b9150613697836132b0565b9250828210156136aa576136a9613652565b5b828203905092915050565b7f4e487b7100000000000000000000000000000000000000000000000000000000600052603260045260246000fd5b6000602082840312156136fa576136f96132a6565b5b600061370884828501613394565b91505092915050565b7f556e69737761705632526f757465723a20494e56414c49445f50415448000000600082015250565b6000613747601d836135d5565b915061375282613711565b602082019050919050565b600060208201905081810360008301526137768161373a565b9050919050565b7f556e69737761705632526f757465723a20494e53554646494349454e545f4f5560008201527f545055545f414d4f554e54000000000000000000000000000000000000000000602082015250565b60006137d9602b836135d5565b91506137e48261377d565b604082019050919050565b60006020820190508181036000830152613808816137cc565b9050919050565b613818816132b0565b82525050565b6000602082019050613833600083018461380f565b92915050565b7f556e69737761705632526f757465723a204558434553534956455f494e50555460008201527f5f414d4f554e5400000000000000000000000000000000000000000000000000602082015250565b60006138956027836135d5565b91506138a082613839565b604082019050919050565b600060208201905081810360008301526138c481613888565b9050919050565b6000815190506138da816132ba565b92915050565b6000602082840312156138f6576138f56132a6565b5b6000613904848285016138cb565b91505092915050565b600060408201905061392260008301856135ab565b61392f602083018461380f565b9392505050565b60008115159050919050565b61394b81613936565b811461395657600080fd5b50565b60008151905061396881613942565b92915050565b600060208284031215613984576139836132a6565b5b600061399284828501613959565b91505092915050565b7f4e487b7100000000000000000000000000000000000000000000000000000000600052600160045260246000fd5b7f556e697377617056324c6962726172793a20494e56414c49445f504154480000600082015250565b6000613a00601e836135d5565b9150613a0b826139ca565b602082019050919050565b60006020820190508181036000830152613a2f816139f3565b9050919050565b7f4e487b7100000000000000000000000000000000000000000000000000000000600052604160045260246000fd5b6000613a70826132b0565b9150613a7b836132b0565b9250827fffffffffffffffffffffffffffffffffffffffffffffffffffffffffffffffff03821115613ab057613aaf613652565b5b828201905092915050565b6000613ac6826132b0565b91507fffffffffffffffffffffffffffffffffffffffffffffffffffffffffffffffff8203613af857613af7613652565b5b600182019050919050565b60008160601b9050919050565b6000613b1b82613b03565b9050919050565b6000613b2d82613b10565b9050919050565b613b45613b408261336b565b613b22565b82525050565b6000613b578285613b34565b601482019150613b678284613b34565b6014820191508190509392505050565b600081905092915050565b7fff00000000000000000000000000000000000000000000000000000000000000600082015250565b6000613bb8600183613b77565b9150613bc382613b82565b600182019050919050565b6000819050919050565b6000819050919050565b613bf3613bee82613bce565b613bd8565b82525050565b7f96e8ac4277198ff8b6f785478aa9a39f403cb768dd02cbee326c3e7da348845f600082015250565b6000613c2f602083613b77565b9150613c3a82613bf9565b602082019050919050565b6000613c5082613bab565b9150613c5c8285613b34565b601482019150613c6c8284613be2565b602082019150613c7b82613c22565b91508190509392505050565b6000606082019050613c9c60008301866135ab565b613ca960208301856135ab565b613cb6604083018461380f565b949350505050565b600081519050919050565b600081905092915050565b60005b83811015613cf2578082015181840152602081019050613cd7565b83811115613d01576000848401525b50505050565b6000613d1282613cbe565b613d1c8185613cc9565b9350613d2c818560208601613cd4565b80840191505092915050565b6000613d448284613d07565b915081905092915050565b7f5472616e7366657248656c7065723a3a7472616e7366657246726f6d3a20747260008201527f616e7366657246726f6d206661696c6564000000000000000000000000000000602082015250565b6000613dab6031836135d5565b9150613db682613d4f565b604082019050919050565b60006020820190508181036000830152613dda81613d9e565b9050919050565b600082825260208201905092915050565b6000601f19601f8301169050919050565b6000613e0e82613cbe565b613e188185613de1565b9350613e28818560208601613cd4565b613e3181613df2565b840191505092915050565b6000608082019050613e51600083018761380f565b613e5e602083018661380f565b613e6b60408301856135ab565b8181036060830152613e7d8184613e03565b905095945050505050565b7f5472616e7366657248656c7065723a3a736166655472616e736665724554483a60008201527f20455448207472616e73666572206661696c6564000000000000000000000000602082015250565b6000613ee46034836135d5565b9150613eef82613e88565b604082019050919050565b60006020820190508181036000830152613f1381613ed7565b9050919050565b6000613f25826132b0565b915060008203613f3857613f37613652565b5b600182039050919050565b60006dffffffffffffffffffffffffffff82169050919050565b613f6681613f43565b8114613f7157600080fd5b50565b600081519050613f8381613f5d565b92915050565b600063ffffffff82169050919050565b613fa281613f89565b8114613fad57600080fd5b50565b600081519050613fbf81613f99565b92915050565b600080600060608486031215613fde57613fdd6132a6565b5b6000613fec86828701613f74565b9350506020613ffd86828701613f74565b925050604061400e86828701613fb0565b9150509250925092565b7f556e697377617056324c6962726172793a20494e53554646494349454e545f4960008201527f4e5055545f414d4f554e54000000000000000000000000000000000000000000602082015250565b6000614074602b836135d5565b915061407f82614018565b604082019050919050565b600060208201905081810360008301526140a381614067565b9050919050565b7f556e697377617056324c6962726172793a20494e53554646494349454e545f4c60008201527f4951554944495459000000000000000000000000000000000000000000000000602082015250565b60006141066028836135d5565b9150614111826140aa565b604082019050919050565b60006020820190508181036000830152614135816140f9565b9050919050565b6000614147826132b0565b9150614152836132b0565b9250817fffffffffffffffffffffffffffffffffffffffffffffffffffffffffffffffff048311821515161561418b5761418a613652565b5b828202905092915050565b7f4e487b7100000000000000000000000000000000000000000000000000000000600052601260045260246000fd5b60006141d0826132b0565b91506141db836132b0565b9250826141eb576141ea614196565b5b828204905092915050565b7f556e697377617056324c6962726172793a204944454e544943414c5f4144445260008201527f4553534553000000000000000000000000000000000000000000000000000000602082015250565b60006142526025836135d5565b915061425d826141f6565b604082019050919050565b6000602082019050818103600083015261428181614245565b9050919050565b7f556e697377617056324c6962726172793a205a45524f5f414444524553530000600082015250565b60006142be601e836135d5565b91506142c982614288565b602082019050919050565b600060208201905081810360008301526142ed816142b1565b9050919050565b7f556e697377617056324c6962726172793a20494e53554646494349454e545f4f60008201527f55545055545f414d4f554e540000000000000000000000000000000000000000602082015250565b6000614350602c836135d5565b915061435b826142f4565b604082019050919050565b6000602082019050818103600083015261437f81614343565b905091905056fea2646970667358221220331136855f5c99974712d143e9f4338b35fcb46e92377d92f6c37efcbf9ba0f364736f6c634300080f0033",
					"opcodes": "PUSH1 0x80 PUSH1 0x40 MSTORE CALLVALUE DUP1 ISZERO PUSH3 0x11 JUMPI PUSH1 0x0 DUP1 REVERT JUMPDEST POP PUSH1 0x40 MLOAD PUSH3 0x453D CODESIZE SUB DUP1 PUSH3 0x453D DUP4 CODECOPY DUP2 DUP2 ADD PUSH1 0x40 MSTORE DUP2 ADD SWAP1 PUSH3 0x37 SWAP2 SWAP1 PUSH3 0x12A JUMP JUMPDEST DUP2 PUSH1 0x0 DUP1 PUSH2 0x100 EXP DUP2 SLOAD DUP2 PUSH20 0xFFFFFFFFFFFFFFFFFFFFFFFFFFFFFFFFFFFFFFFF MUL NOT AND SWAP1 DUP4 PUSH20 0xFFFFFFFFFFFFFFFFFFFFFFFFFFFFFFFFFFFFFFFF AND MUL OR SWAP1 SSTORE POP DUP1 PUSH1 0x1 PUSH1 0x0 PUSH2 0x100 EXP DUP2 SLOAD DUP2 PUSH20 0xFFFFFFFFFFFFFFFFFFFFFFFFFFFFFFFFFFFFFFFF MUL NOT AND SWAP1 DUP4 PUSH20 0xFFFFFFFFFFFFFFFFFFFFFFFFFFFFFFFFFFFFFFFF AND MUL OR SWAP1 SSTORE POP POP POP PUSH3 0x171 JUMP JUMPDEST PUSH1 0x0 DUP1 REVERT JUMPDEST PUSH1 0x0 PUSH20 0xFFFFFFFFFFFFFFFFFFFFFFFFFFFFFFFFFFFFFFFF DUP3 AND SWAP1 POP SWAP2 SWAP1 POP JUMP JUMPDEST PUSH1 0x0 PUSH3 0xF2 DUP3 PUSH3 0xC5 JUMP JUMPDEST SWAP1 POP SWAP2 SWAP1 POP JUMP JUMPDEST PUSH3 0x104 DUP2 PUSH3 0xE5 JUMP JUMPDEST DUP2 EQ PUSH3 0x110 JUMPI PUSH1 0x0 DUP1 REVERT JUMPDEST POP JUMP JUMPDEST PUSH1 0x0 DUP2 MLOAD SWAP1 POP PUSH3 0x124 DUP2 PUSH3 0xF9 JUMP JUMPDEST SWAP3 SWAP2 POP POP JUMP JUMPDEST PUSH1 0x0 DUP1 PUSH1 0x40 DUP4 DUP6 SUB SLT ISZERO PUSH3 0x144 JUMPI PUSH3 0x143 PUSH3 0xC0 JUMP JUMPDEST JUMPDEST PUSH1 0x0 PUSH3 0x154 DUP6 DUP3 DUP7 ADD PUSH3 0x113 JUMP JUMPDEST SWAP3 POP POP PUSH1 0x20 PUSH3 0x167 DUP6 DUP3 DUP7 ADD PUSH3 0x113 JUMP JUMPDEST SWAP2 POP POP SWAP3 POP SWAP3 SWAP1 POP JUMP JUMPDEST PUSH2 0x43BC DUP1 PUSH3 0x181 PUSH1 0x0 CODECOPY PUSH1 0x0 RETURN INVALID PUSH1 0x80 PUSH1 0x40 MSTORE PUSH1 0x4 CALLDATASIZE LT PUSH2 0x9C JUMPI PUSH1 0x0 CALLDATALOAD PUSH1 0xE0 SHR DUP1 PUSH4 0x7FF36AB5 GT PUSH2 0x64 JUMPI DUP1 PUSH4 0x7FF36AB5 EQ PUSH2 0x1AA JUMPI DUP1 PUSH4 0x8803DBEE EQ PUSH2 0x1DA JUMPI DUP1 PUSH4 0xAD5C4648 EQ PUSH2 0x217 JUMPI DUP1 PUSH4 0xB6F9DE95 EQ PUSH2 0x242 JUMPI DUP1 PUSH4 0xC45A0155 EQ PUSH2 0x25E JUMPI DUP1 PUSH4 0xFB3BDB41 EQ PUSH2 0x289 JUMPI PUSH2 0x9C JUMP JUMPDEST DUP1 PUSH4 0x18CBAFE5 EQ PUSH2 0xA1 JUMPI DUP1 PUSH4 0x38ED1739 EQ PUSH2 0xDE JUMPI DUP1 PUSH4 0x4A25D94A EQ PUSH2 0x11B JUMPI DUP1 PUSH4 0x5C11D795 EQ PUSH2 0x158 JUMPI DUP1 PUSH4 0x791AC947 EQ PUSH2 0x181 JUMPI JUMPDEST PUSH1 0x0 DUP1 REVERT JUMPDEST CALLVALUE DUP1 ISZERO PUSH2 0xAD JUMPI PUSH1 0x0 DUP1 REVERT JUMPDEST POP PUSH2 0xC8 PUSH1 0x4 DUP1 CALLDATASIZE SUB DUP2 ADD SWAP1 PUSH2 0xC3 SWAP2 SWAP1 PUSH2 0x33A9 JUMP JUMPDEST PUSH2 0x2B9 JUMP JUMPDEST PUSH1 0x40 MLOAD PUSH2 0xD5 SWAP2 SWAP1 PUSH2 0x3501 JUMP JUMPDEST PUSH1 0x40 MLOAD DUP1 SWAP2 SUB SWAP1 RETURN JUMPDEST CALLVALUE DUP1 ISZERO PUSH2 0xEA JUMPI PUSH1 0x0 DUP1 REVERT JUMPDEST POP PUSH2 0x105 PUSH1 0x4 DUP1 CALLDATASIZE SUB DUP2 ADD SWAP1 PUSH2 0x100 SWAP2 SWAP1 PUSH2 0x33A9 JUMP JUMPDEST PUSH2 0x6A2 JUMP JUMPDEST PUSH1 0x40 MLOAD PUSH2 0x112 SWAP2 SWAP1 PUSH2 0x3501 JUMP JUMPDEST PUSH1 0x40 MLOAD DUP1 SWAP2 SUB SWAP1 RETURN JUMPDEST CALLVALUE DUP1 ISZERO PUSH2 0x127 JUMPI PUSH1 0x0 DUP1 REVERT JUMPDEST POP PUSH2 0x142 PUSH1 0x4 DUP1 CALLDATASIZE SUB DUP2 ADD SWAP1 PUSH2 0x13D SWAP2 SWAP1 PUSH2 0x33A9 JUMP JUMPDEST PUSH2 0x8E0 JUMP JUMPDEST PUSH1 0x40 MLOAD PUSH2 0x14F SWAP2 SWAP1 PUSH2 0x3501 JUMP JUMPDEST PUSH1 0x40 MLOAD DUP1 SWAP2 SUB SWAP1 RETURN JUMPDEST CALLVALUE DUP1 ISZERO PUSH2 0x164 JUMPI PUSH1 0x0 DUP1 REVERT JUMPDEST POP PUSH2 0x17F PUSH1 0x4 DUP1 CALLDATASIZE SUB DUP2 ADD SWAP1 PUSH2 0x17A SWAP2 SWAP1 PUSH2 0x33A9 JUMP JUMPDEST PUSH2 0xCBD JUMP JUMPDEST STOP JUMPDEST CALLVALUE DUP1 ISZERO PUSH2 0x18D JUMPI PUSH1 0x0 DUP1 REVERT JUMPDEST POP PUSH2 0x1A8 PUSH1 0x4 DUP1 CALLDATASIZE SUB DUP2 ADD SWAP1 PUSH2 0x1A3 SWAP2 SWAP1 PUSH2 0x33A9 JUMP JUMPDEST PUSH2 0xFB5 JUMP JUMPDEST STOP JUMPDEST PUSH2 0x1C4 PUSH1 0x4 DUP1 CALLDATASIZE SUB DUP2 ADD SWAP1 PUSH2 0x1BF SWAP2 SWAP1 PUSH2 0x3523 JUMP JUMPDEST PUSH2 0x133C JUMP JUMPDEST PUSH1 0x40 MLOAD PUSH2 0x1D1 SWAP2 SWAP1 PUSH2 0x3501 JUMP JUMPDEST PUSH1 0x40 MLOAD DUP1 SWAP2 SUB SWAP1 RETURN JUMPDEST CALLVALUE DUP1 ISZERO PUSH2 0x1E6 JUMPI PUSH1 0x0 DUP1 REVERT JUMPDEST POP PUSH2 0x201 PUSH1 0x4 DUP1 CALLDATASIZE SUB DUP2 ADD SWAP1 PUSH2 0x1FC SWAP2 SWAP1 PUSH2 0x33A9 JUMP JUMPDEST PUSH2 0x1748 JUMP JUMPDEST PUSH1 0x40 MLOAD PUSH2 0x20E SWAP2 SWAP1 PUSH2 0x3501 JUMP JUMPDEST PUSH1 0x40 MLOAD DUP1 SWAP2 SUB SWAP1 RETURN JUMPDEST CALLVALUE DUP1 ISZERO PUSH2 0x223 JUMPI PUSH1 0x0 DUP1 REVERT JUMPDEST POP PUSH2 0x22C PUSH2 0x197A JUMP JUMPDEST PUSH1 0x40 MLOAD PUSH2 0x239 SWAP2 SWAP1 PUSH2 0x35BA JUMP JUMPDEST PUSH1 0x40 MLOAD DUP1 SWAP2 SUB SWAP1 RETURN JUMPDEST PUSH2 0x25C PUSH1 0x4 DUP1 CALLDATASIZE SUB DUP2 ADD SWAP1 PUSH2 0x257 SWAP2 SWAP1 PUSH2 0x3523 JUMP JUMPDEST PUSH2 0x19A0 JUMP JUMPDEST STOP JUMPDEST CALLVALUE DUP1 ISZERO PUSH2 0x26A JUMPI PUSH1 0x0 DUP1 REVERT JUMPDEST POP PUSH2 0x273 PUSH2 0x1E51 JUMP JUMPDEST PUSH1 0x40 MLOAD PUSH2 0x280 SWAP2 SWAP1 PUSH2 0x35BA JUMP JUMPDEST PUSH1 0x40 MLOAD DUP1 SWAP2 SUB SWAP1 RETURN JUMPDEST PUSH2 0x2A3 PUSH1 0x4 DUP1 CALLDATASIZE SUB DUP2 ADD SWAP1 PUSH2 0x29E SWAP2 SWAP1 PUSH2 0x3523 JUMP JUMPDEST PUSH2 0x1E75 JUMP JUMPDEST PUSH1 0x40 MLOAD PUSH2 0x2B0 SWAP2 SWAP1 PUSH2 0x3501 JUMP JUMPDEST PUSH1 0x40 MLOAD DUP1 SWAP2 SUB SWAP1 RETURN JUMPDEST PUSH1 0x60 DUP2 TIMESTAMP DUP2 LT ISZERO PUSH2 0x2FF JUMPI PUSH1 0x40 MLOAD PUSH32 0x8C379A000000000000000000000000000000000000000000000000000000000 DUP2 MSTORE PUSH1 0x4 ADD PUSH2 0x2F6 SWAP1 PUSH2 0x3632 JUMP JUMPDEST PUSH1 0x40 MLOAD DUP1 SWAP2 SUB SWAP1 REVERT JUMPDEST PUSH1 0x1 PUSH1 0x0 SWAP1 SLOAD SWAP1 PUSH2 0x100 EXP SWAP1 DIV PUSH20 0xFFFFFFFFFFFFFFFFFFFFFFFFFFFFFFFFFFFFFFFF AND PUSH20 0xFFFFFFFFFFFFFFFFFFFFFFFFFFFFFFFFFFFFFFFF AND DUP7 DUP7 PUSH1 0x1 DUP10 DUP10 SWAP1 POP PUSH2 0x34A SWAP2 SWAP1 PUSH2 0x3681 JUMP JUMPDEST DUP2 DUP2 LT PUSH2 0x35A JUMPI PUSH2 0x359 PUSH2 0x36B5 JUMP JUMPDEST JUMPDEST SWAP1 POP PUSH1 0x20 MUL ADD PUSH1 0x20 DUP2 ADD SWAP1 PUSH2 0x36F SWAP2 SWAP1 PUSH2 0x36E4 JUMP JUMPDEST PUSH20 0xFFFFFFFFFFFFFFFFFFFFFFFFFFFFFFFFFFFFFFFF AND EQ PUSH2 0x3C5 JUMPI PUSH1 0x40 MLOAD PUSH32 0x8C379A000000000000000000000000000000000000000000000000000000000 DUP2 MSTORE PUSH1 0x4 ADD PUSH2 0x3BC SWAP1 PUSH2 0x375D JUMP JUMPDEST PUSH1 0x40 MLOAD DUP1 SWAP2 SUB SWAP1 REVERT JUMPDEST PUSH2 0x431 PUSH1 0x0 DUP1 SLOAD SWAP1 PUSH2 0x100 EXP SWAP1 DIV PUSH20 0xFFFFFFFFFFFFFFFFFFFFFFFFFFFFFFFFFFFFFFFF AND DUP10 DUP9 DUP9 DUP1 DUP1 PUSH1 0x20 MUL PUSH1 0x20 ADD PUSH1 0x40 MLOAD SWAP1 DUP2 ADD PUSH1 0x40 MSTORE DUP1 SWAP4 SWAP3 SWAP2 SWAP1 DUP2 DUP2 MSTORE PUSH1 0x20 ADD DUP4 DUP4 PUSH1 0x20 MUL DUP1 DUP3 DUP5 CALLDATACOPY PUSH1 0x0 DUP2 DUP5 ADD MSTORE PUSH1 0x1F NOT PUSH1 0x1F DUP3 ADD AND SWAP1 POP DUP1 DUP4 ADD SWAP3 POP POP POP POP POP POP POP PUSH2 0x22C9 JUMP JUMPDEST SWAP2 POP DUP7 DUP3 PUSH1 0x1 DUP5 MLOAD PUSH2 0x443 SWAP2 SWAP1 PUSH2 0x3681 JUMP JUMPDEST DUP2 MLOAD DUP2 LT PUSH2 0x454 JUMPI PUSH2 0x453 PUSH2 0x36B5 JUMP JUMPDEST JUMPDEST PUSH1 0x20 MUL PUSH1 0x20 ADD ADD MLOAD LT ISZERO PUSH2 0x49D JUMPI PUSH1 0x40 MLOAD PUSH32 0x8C379A000000000000000000000000000000000000000000000000000000000 DUP2 MSTORE PUSH1 0x4 ADD PUSH2 0x494 SWAP1 PUSH2 0x37EF JUMP JUMPDEST PUSH1 0x40 MLOAD DUP1 SWAP2 SUB SWAP1 REVERT JUMPDEST PUSH2 0x566 DUP7 DUP7 PUSH1 0x0 DUP2 DUP2 LT PUSH2 0x4B4 JUMPI PUSH2 0x4B3 PUSH2 0x36B5 JUMP JUMPDEST JUMPDEST SWAP1 POP PUSH1 0x20 MUL ADD PUSH1 0x20 DUP2 ADD SWAP1 PUSH2 0x4C9 SWAP2 SWAP1 PUSH2 0x36E4 JUMP JUMPDEST CALLER PUSH2 0x545 PUSH1 0x0 DUP1 SLOAD SWAP1 PUSH2 0x100 EXP SWAP1 DIV PUSH20 0xFFFFFFFFFFFFFFFFFFFFFFFFFFFFFFFFFFFFFFFF AND DUP11 DUP11 PUSH1 0x0 DUP2 DUP2 LT PUSH2 0x502 JUMPI PUSH2 0x501 PUSH2 0x36B5 JUMP JUMPDEST JUMPDEST SWAP1 POP PUSH1 0x20 MUL ADD PUSH1 0x20 DUP2 ADD SWAP1 PUSH2 0x517 SWAP2 SWAP1 PUSH2 0x36E4 JUMP JUMPDEST DUP12 DUP12 PUSH1 0x1 DUP2 DUP2 LT PUSH2 0x52B JUMPI PUSH2 0x52A PUSH2 0x36B5 JUMP JUMPDEST JUMPDEST SWAP1 POP PUSH1 0x20 MUL ADD PUSH1 0x20 DUP2 ADD SWAP1 PUSH2 0x540 SWAP2 SWAP1 PUSH2 0x36E4 JUMP JUMPDEST PUSH2 0x2454 JUMP JUMPDEST DUP6 PUSH1 0x0 DUP2 MLOAD DUP2 LT PUSH2 0x559 JUMPI PUSH2 0x558 PUSH2 0x36B5 JUMP JUMPDEST JUMPDEST PUSH1 0x20 MUL PUSH1 0x20 ADD ADD MLOAD PUSH2 0x24C6 JUMP JUMPDEST PUSH2 0x5B2 DUP3 DUP8 DUP8 DUP1 DUP1 PUSH1 0x20 MUL PUSH1 0x20 ADD PUSH1 0x40 MLOAD SWAP1 DUP2 ADD PUSH1 0x40 MSTORE DUP1 SWAP4 SWAP3 SWAP2 SWAP1 DUP2 DUP2 MSTORE PUSH1 0x20 ADD DUP4 DUP4 PUSH1 0x20 MUL DUP1 DUP3 DUP5 CALLDATACOPY PUSH1 0x0 DUP2 DUP5 ADD MSTORE PUSH1 0x1F NOT PUSH1 0x1F DUP3 ADD AND SWAP1 POP DUP1 DUP4 ADD SWAP3 POP POP POP POP POP POP POP ADDRESS PUSH2 0x25FF JUMP JUMPDEST PUSH1 0x1 PUSH1 0x0 SWAP1 SLOAD SWAP1 PUSH2 0x100 EXP SWAP1 DIV PUSH20 0xFFFFFFFFFFFFFFFFFFFFFFFFFFFFFFFFFFFFFFFF AND PUSH20 0xFFFFFFFFFFFFFFFFFFFFFFFFFFFFFFFFFFFFFFFF AND PUSH4 0x2E1A7D4D DUP4 PUSH1 0x1 DUP6 MLOAD PUSH2 0x5FF SWAP2 SWAP1 PUSH2 0x3681 JUMP JUMPDEST DUP2 MLOAD DUP2 LT PUSH2 0x610 JUMPI PUSH2 0x60F PUSH2 0x36B5 JUMP JUMPDEST JUMPDEST PUSH1 0x20 MUL PUSH1 0x20 ADD ADD MLOAD PUSH1 0x40 MLOAD DUP3 PUSH4 0xFFFFFFFF AND PUSH1 0xE0 SHL DUP2 MSTORE PUSH1 0x4 ADD PUSH2 0x634 SWAP2 SWAP1 PUSH2 0x381E JUMP JUMPDEST PUSH1 0x0 PUSH1 0x40 MLOAD DUP1 DUP4 SUB DUP2 PUSH1 0x0 DUP8 DUP1 EXTCODESIZE ISZERO DUP1 ISZERO PUSH2 0x64E JUMPI PUSH1 0x0 DUP1 REVERT JUMPDEST POP GAS CALL ISZERO DUP1 ISZERO PUSH2 0x662 JUMPI RETURNDATASIZE PUSH1 0x0 DUP1 RETURNDATACOPY RETURNDATASIZE PUSH1 0x0 REVERT JUMPDEST POP POP POP POP PUSH2 0x697 DUP5 DUP4 PUSH1 0x1 DUP6 MLOAD PUSH2 0x679 SWAP2 SWAP1 PUSH2 0x3681 JUMP JUMPDEST DUP2 MLOAD DUP2 LT PUSH2 0x68A JUMPI PUSH2 0x689 PUSH2 0x36B5 JUMP JUMPDEST JUMPDEST PUSH1 0x20 MUL PUSH1 0x20 ADD ADD MLOAD PUSH2 0x2858 JUMP JUMPDEST POP SWAP7 SWAP6 POP POP POP POP POP POP JUMP JUMPDEST PUSH1 0x60 DUP2 TIMESTAMP DUP2 LT ISZERO PUSH2 0x6E8 JUMPI PUSH1 0x40 MLOAD PUSH32 0x8C379A000000000000000000000000000000000000000000000000000000000 DUP2 MSTORE PUSH1 0x4 ADD PUSH2 0x6DF SWAP1 PUSH2 0x3632 JUMP JUMPDEST PUSH1 0x40 MLOAD DUP1 SWAP2 SUB SWAP1 REVERT JUMPDEST PUSH2 0x754 PUSH1 0x0 DUP1 SLOAD SWAP1 PUSH2 0x100 EXP SWAP1 DIV PUSH20 0xFFFFFFFFFFFFFFFFFFFFFFFFFFFFFFFFFFFFFFFF AND DUP10 DUP9 DUP9 DUP1 DUP1 PUSH1 0x20 MUL PUSH1 0x20 ADD PUSH1 0x40 MLOAD SWAP1 DUP2 ADD PUSH1 0x40 MSTORE DUP1 SWAP4 SWAP3 SWAP2 SWAP1 DUP2 DUP2 MSTORE PUSH1 0x20 ADD DUP4 DUP4 PUSH1 0x20 MUL DUP1 DUP3 DUP5 CALLDATACOPY PUSH1 0x0 DUP2 DUP5 ADD MSTORE PUSH1 0x1F NOT PUSH1 0x1F DUP3 ADD AND SWAP1 POP DUP1 DUP4 ADD SWAP3 POP POP POP POP POP POP POP PUSH2 0x22C9 JUMP JUMPDEST SWAP2 POP DUP7 DUP3 PUSH1 0x1 DUP5 MLOAD PUSH2 0x766 SWAP2 SWAP1 PUSH2 0x3681 JUMP JUMPDEST DUP2 MLOAD DUP2 LT PUSH2 0x777 JUMPI PUSH2 0x776 PUSH2 0x36B5 JUMP JUMPDEST JUMPDEST PUSH1 0x20 MUL PUSH1 0x20 ADD ADD MLOAD LT ISZERO PUSH2 0x7C0 JUMPI PUSH1 0x40 MLOAD PUSH32 0x8C379A000000000000000000000000000000000000000000000000000000000 DUP2 MSTORE PUSH1 0x4 ADD PUSH2 0x7B7 SWAP1 PUSH2 0x37EF JUMP JUMPDEST PUSH1 0x40 MLOAD DUP1 SWAP2 SUB SWAP1 REVERT JUMPDEST PUSH2 0x889 DUP7 DUP7 PUSH1 0x0 DUP2 DUP2 LT PUSH2 0x7D7 JUMPI PUSH2 0x7D6 PUSH2 0x36B5 JUMP JUMPDEST JUMPDEST SWAP1 POP PUSH1 0x20 MUL ADD PUSH1 0x20 DUP2 ADD SWAP1 PUSH2 0x7EC SWAP2 SWAP1 PUSH2 0x36E4 JUMP JUMPDEST CALLER PUSH2 0x868 PUSH1 0x0 DUP1 SLOAD SWAP1 PUSH2 0x100 EXP SWAP1 DIV PUSH20 0xFFFFFFFFFFFFFFFFFFFFFFFFFFFFFFFFFFFFFFFF AND DUP11 DUP11 PUSH1 0x0 DUP2 DUP2 LT PUSH2 0x825 JUMPI PUSH2 0x824 PUSH2 0x36B5 JUMP JUMPDEST JUMPDEST SWAP1 POP PUSH1 0x20 MUL ADD PUSH1 0x20 DUP2 ADD SWAP1 PUSH2 0x83A SWAP2 SWAP1 PUSH2 0x36E4 JUMP JUMPDEST DUP12 DUP12 PUSH1 0x1 DUP2 DUP2 LT PUSH2 0x84E JUMPI PUSH2 0x84D PUSH2 0x36B5 JUMP JUMPDEST JUMPDEST SWAP1 POP PUSH1 0x20 MUL ADD PUSH1 0x20 DUP2 ADD SWAP1 PUSH2 0x863 SWAP2 SWAP1 PUSH2 0x36E4 JUMP JUMPDEST PUSH2 0x2454 JUMP JUMPDEST DUP6 PUSH1 0x0 DUP2 MLOAD DUP2 LT PUSH2 0x87C JUMPI PUSH2 0x87B PUSH2 0x36B5 JUMP JUMPDEST JUMPDEST PUSH1 0x20 MUL PUSH1 0x20 ADD ADD MLOAD PUSH2 0x24C6 JUMP JUMPDEST PUSH2 0x8D5 DUP3 DUP8 DUP8 DUP1 DUP1 PUSH1 0x20 MUL PUSH1 0x20 ADD PUSH1 0x40 MLOAD SWAP1 DUP2 ADD PUSH1 0x40 MSTORE DUP1 SWAP4 SWAP3 SWAP2 SWAP1 DUP2 DUP2 MSTORE PUSH1 0x20 ADD DUP4 DUP4 PUSH1 0x20 MUL DUP1 DUP3 DUP5 CALLDATACOPY PUSH1 0x0 DUP2 DUP5 ADD MSTORE PUSH1 0x1F NOT PUSH1 0x1F DUP3 ADD AND SWAP1 POP DUP1 DUP4 ADD SWAP3 POP POP POP POP POP POP POP DUP7 PUSH2 0x25FF JUMP JUMPDEST POP SWAP7 SWAP6 POP POP POP POP POP POP JUMP JUMPDEST PUSH1 0x60 DUP2 TIMESTAMP DUP2 LT ISZERO PUSH2 0x926 JUMPI PUSH1 0x40 MLOAD PUSH32 0x8C379A000000000000000000000000000000000000000000000000000000000 DUP2 MSTORE PUSH1 0x4 ADD PUSH2 0x91D SWAP1 PUSH2 0x3632 JUMP JUMPDEST PUSH1 0x40 MLOAD DUP1 SWAP2 SUB SWAP1 REVERT JUMPDEST PUSH1 0x1 PUSH1 0x0 SWAP1 SLOAD SWAP1 PUSH2 0x100 EXP SWAP1 DIV PUSH20 0xFFFFFFFFFFFFFFFFFFFFFFFFFFFFFFFFFFFFFFFF AND PUSH20 0xFFFFFFFFFFFFFFFFFFFFFFFFFFFFFFFFFFFFFFFF AND DUP7 DUP7 PUSH1 0x1 DUP10 DUP10 SWAP1 POP PUSH2 0x971 SWAP2 SWAP1 PUSH2 0x3681 JUMP JUMPDEST DUP2 DUP2 LT PUSH2 0x981 JUMPI PUSH2 0x980 PUSH2 0x36B5 JUMP JUMPDEST JUMPDEST SWAP1 POP PUSH1 0x20 MUL ADD PUSH1 0x20 DUP2 ADD SWAP1 PUSH2 0x996 SWAP2 SWAP1 PUSH2 0x36E4 JUMP JUMPDEST PUSH20 0xFFFFFFFFFFFFFFFFFFFFFFFFFFFFFFFFFFFFFFFF AND EQ PUSH2 0x9EC JUMPI PUSH1 0x40 MLOAD PUSH32 0x8C379A000000000000000000000000000000000000000000000000000000000 DUP2 MSTORE PUSH1 0x4 ADD PUSH2 0x9E3 SWAP1 PUSH2 0x375D JUMP JUMPDEST PUSH1 0x40 MLOAD DUP1 SWAP2 SUB SWAP1 REVERT JUMPDEST PUSH2 0xA58 PUSH1 0x0 DUP1 SLOAD SWAP1 PUSH2 0x100 EXP SWAP1 DIV PUSH20 0xFFFFFFFFFFFFFFFFFFFFFFFFFFFFFFFFFFFFFFFF AND DUP10 DUP9 DUP9 DUP1 DUP1 PUSH1 0x20 MUL PUSH1 0x20 ADD PUSH1 0x40 MLOAD SWAP1 DUP2 ADD PUSH1 0x40 MSTORE DUP1 SWAP4 SWAP3 SWAP2 SWAP1 DUP2 DUP2 MSTORE PUSH1 0x20 ADD DUP4 DUP4 PUSH1 0x20 MUL DUP1 DUP3 DUP5 CALLDATACOPY PUSH1 0x0 DUP2 DUP5 ADD MSTORE PUSH1 0x1F NOT PUSH1 0x1F DUP3 ADD AND SWAP1 POP DUP1 DUP4 ADD SWAP3 POP POP POP POP POP POP POP PUSH2 0x2958 JUMP JUMPDEST SWAP2 POP DUP7 DUP3 PUSH1 0x0 DUP2 MLOAD DUP2 LT PUSH2 0xA6F JUMPI PUSH2 0xA6E PUSH2 0x36B5 JUMP JUMPDEST JUMPDEST PUSH1 0x20 MUL PUSH1 0x20 ADD ADD MLOAD GT ISZERO PUSH2 0xAB8 JUMPI PUSH1 0x40 MLOAD PUSH32 0x8C379A000000000000000000000000000000000000000000000000000000000 DUP2 MSTORE PUSH1 0x4 ADD PUSH2 0xAAF SWAP1 PUSH2 0x38AB JUMP JUMPDEST PUSH1 0x40 MLOAD DUP1 SWAP2 SUB SWAP1 REVERT JUMPDEST PUSH2 0xB81 DUP7 DUP7 PUSH1 0x0 DUP2 DUP2 LT PUSH2 0xACF JUMPI PUSH2 0xACE PUSH2 0x36B5 JUMP JUMPDEST JUMPDEST SWAP1 POP PUSH1 0x20 MUL ADD PUSH1 0x20 DUP2 ADD SWAP1 PUSH2 0xAE4 SWAP2 SWAP1 PUSH2 0x36E4 JUMP JUMPDEST CALLER PUSH2 0xB60 PUSH1 0x0 DUP1 SLOAD SWAP1 PUSH2 0x100 EXP SWAP1 DIV PUSH20 0xFFFFFFFFFFFFFFFFFFFFFFFFFFFFFFFFFFFFFFFF AND DUP11 DUP11 PUSH1 0x0 DUP2 DUP2 LT PUSH2 0xB1D JUMPI PUSH2 0xB1C PUSH2 0x36B5 JUMP JUMPDEST JUMPDEST SWAP1 POP PUSH1 0x20 MUL ADD PUSH1 0x20 DUP2 ADD SWAP1 PUSH2 0xB32 SWAP2 SWAP1 PUSH2 0x36E4 JUMP JUMPDEST DUP12 DUP12 PUSH1 0x1 DUP2 DUP2 LT PUSH2 0xB46 JUMPI PUSH2 0xB45 PUSH2 0x36B5 JUMP JUMPDEST JUMPDEST SWAP1 POP PUSH1 0x20 MUL ADD PUSH1 0x20 DUP2 ADD SWAP1 PUSH2 0xB5B SWAP2 SWAP1 PUSH2 0x36E4 JUMP JUMPDEST PUSH2 0x2454 JUMP JUMPDEST DUP6 PUSH1 0x0 DUP2 MLOAD DUP2 LT PUSH2 0xB74 JUMPI PUSH2 0xB73 PUSH2 0x36B5 JUMP JUMPDEST JUMPDEST PUSH1 0x20 MUL PUSH1 0x20 ADD ADD MLOAD PUSH2 0x24C6 JUMP JUMPDEST PUSH2 0xBCD DUP3 DUP8 DUP8 DUP1 DUP1 PUSH1 0x20 MUL PUSH1 0x20 ADD PUSH1 0x40 MLOAD SWAP1 DUP2 ADD PUSH1 0x40 MSTORE DUP1 SWAP4 SWAP3 SWAP2 SWAP1 DUP2 DUP2 MSTORE PUSH1 0x20 ADD DUP4 DUP4 PUSH1 0x20 MUL DUP1 DUP3 DUP5 CALLDATACOPY PUSH1 0x0 DUP2 DUP5 ADD MSTORE PUSH1 0x1F NOT PUSH1 0x1F DUP3 ADD AND SWAP1 POP DUP1 DUP4 ADD SWAP3 POP POP POP POP POP POP POP ADDRESS PUSH2 0x25FF JUMP JUMPDEST PUSH1 0x1 PUSH1 0x0 SWAP1 SLOAD SWAP1 PUSH2 0x100 EXP SWAP1 DIV PUSH20 0xFFFFFFFFFFFFFFFFFFFFFFFFFFFFFFFFFFFFFFFF AND PUSH20 0xFFFFFFFFFFFFFFFFFFFFFFFFFFFFFFFFFFFFFFFF AND PUSH4 0x2E1A7D4D DUP4 PUSH1 0x1 DUP6 MLOAD PUSH2 0xC1A SWAP2 SWAP1 PUSH2 0x3681 JUMP JUMPDEST DUP2 MLOAD DUP2 LT PUSH2 0xC2B JUMPI PUSH2 0xC2A PUSH2 0x36B5 JUMP JUMPDEST JUMPDEST PUSH1 0x20 MUL PUSH1 0x20 ADD ADD MLOAD PUSH1 0x40 MLOAD DUP3 PUSH4 0xFFFFFFFF AND PUSH1 0xE0 SHL DUP2 MSTORE PUSH1 0x4 ADD PUSH2 0xC4F SWAP2 SWAP1 PUSH2 0x381E JUMP JUMPDEST PUSH1 0x0 PUSH1 0x40 MLOAD DUP1 DUP4 SUB DUP2 PUSH1 0x0 DUP8 DUP1 EXTCODESIZE ISZERO DUP1 ISZERO PUSH2 0xC69 JUMPI PUSH1 0x0 DUP1 REVERT JUMPDEST POP GAS CALL ISZERO DUP1 ISZERO PUSH2 0xC7D JUMPI RETURNDATASIZE PUSH1 0x0 DUP1 RETURNDATACOPY RETURNDATASIZE PUSH1 0x0 REVERT JUMPDEST POP POP POP POP PUSH2 0xCB2 DUP5 DUP4 PUSH1 0x1 DUP6 MLOAD PUSH2 0xC94 SWAP2 SWAP1 PUSH2 0x3681 JUMP JUMPDEST DUP2 MLOAD DUP2 LT PUSH2 0xCA5 JUMPI PUSH2 0xCA4 PUSH2 0x36B5 JUMP JUMPDEST JUMPDEST PUSH1 0x20 MUL PUSH1 0x20 ADD ADD MLOAD PUSH2 0x2858 JUMP JUMPDEST POP SWAP7 SWAP6 POP POP POP POP POP POP JUMP JUMPDEST DUP1 TIMESTAMP DUP2 LT ISZERO PUSH2 0xD01 JUMPI PUSH1 0x40 MLOAD PUSH32 0x8C379A000000000000000000000000000000000000000000000000000000000 DUP2 MSTORE PUSH1 0x4 ADD PUSH2 0xCF8 SWAP1 PUSH2 0x3632 JUMP JUMPDEST PUSH1 0x40 MLOAD DUP1 SWAP2 SUB SWAP1 REVERT JUMPDEST PUSH2 0xDAF DUP6 DUP6 PUSH1 0x0 DUP2 DUP2 LT PUSH2 0xD18 JUMPI PUSH2 0xD17 PUSH2 0x36B5 JUMP JUMPDEST JUMPDEST SWAP1 POP PUSH1 0x20 MUL ADD PUSH1 0x20 DUP2 ADD SWAP1 PUSH2 0xD2D SWAP2 SWAP1 PUSH2 0x36E4 JUMP JUMPDEST CALLER PUSH2 0xDA9 PUSH1 0x0 DUP1 SLOAD SWAP1 PUSH2 0x100 EXP SWAP1 DIV PUSH20 0xFFFFFFFFFFFFFFFFFFFFFFFFFFFFFFFFFFFFFFFF AND DUP10 DUP10 PUSH1 0x0 DUP2 DUP2 LT PUSH2 0xD66 JUMPI PUSH2 0xD65 PUSH2 0x36B5 JUMP JUMPDEST JUMPDEST SWAP1 POP PUSH1 0x20 MUL ADD PUSH1 0x20 DUP2 ADD SWAP1 PUSH2 0xD7B SWAP2 SWAP1 PUSH2 0x36E4 JUMP JUMPDEST DUP11 DUP11 PUSH1 0x1 DUP2 DUP2 LT PUSH2 0xD8F JUMPI PUSH2 0xD8E PUSH2 0x36B5 JUMP JUMPDEST JUMPDEST SWAP1 POP PUSH1 0x20 MUL ADD PUSH1 0x20 DUP2 ADD SWAP1 PUSH2 0xDA4 SWAP2 SWAP1 PUSH2 0x36E4 JUMP JUMPDEST PUSH2 0x2454 JUMP JUMPDEST DUP11 PUSH2 0x24C6 JUMP JUMPDEST PUSH1 0x0 DUP6 DUP6 PUSH1 0x1 DUP9 DUP9 SWAP1 POP PUSH2 0xDC3 SWAP2 SWAP1 PUSH2 0x3681 JUMP JUMPDEST DUP2 DUP2 LT PUSH2 0xDD3 JUMPI PUSH2 0xDD2 PUSH2 0x36B5 JUMP JUMPDEST JUMPDEST SWAP1 POP PUSH1 0x20 MUL ADD PUSH1 0x20 DUP2 ADD SWAP1 PUSH2 0xDE8 SWAP2 SWAP1 PUSH2 0x36E4 JUMP JUMPDEST PUSH20 0xFFFFFFFFFFFFFFFFFFFFFFFFFFFFFFFFFFFFFFFF AND PUSH4 0x70A08231 DUP6 PUSH1 0x40 MLOAD DUP3 PUSH4 0xFFFFFFFF AND PUSH1 0xE0 SHL DUP2 MSTORE PUSH1 0x4 ADD PUSH2 0xE20 SWAP2 SWAP1 PUSH2 0x35BA JUMP JUMPDEST PUSH1 0x20 PUSH1 0x40 MLOAD DUP1 DUP4 SUB DUP2 DUP7 GAS STATICCALL ISZERO DUP1 ISZERO PUSH2 0xE3D JUMPI RETURNDATASIZE PUSH1 0x0 DUP1 RETURNDATACOPY RETURNDATASIZE PUSH1 0x0 REVERT JUMPDEST POP POP POP POP PUSH1 0x40 MLOAD RETURNDATASIZE PUSH1 0x1F NOT PUSH1 0x1F DUP3 ADD AND DUP3 ADD DUP1 PUSH1 0x40 MSTORE POP DUP2 ADD SWAP1 PUSH2 0xE61 SWAP2 SWAP1 PUSH2 0x38E0 JUMP JUMPDEST SWAP1 POP PUSH2 0xEAE DUP7 DUP7 DUP1 DUP1 PUSH1 0x20 MUL PUSH1 0x20 ADD PUSH1 0x40 MLOAD SWAP1 DUP2 ADD PUSH1 0x40 MSTORE DUP1 SWAP4 SWAP3 SWAP2 SWAP1 DUP2 DUP2 MSTORE PUSH1 0x20 ADD DUP4 DUP4 PUSH1 0x20 MUL DUP1 DUP3 DUP5 CALLDATACOPY PUSH1 0x0 DUP2 DUP5 ADD MSTORE PUSH1 0x1F NOT PUSH1 0x1F DUP3 ADD AND SWAP1 POP DUP1 DUP4 ADD SWAP3 POP POP POP POP POP POP POP DUP6 PUSH2 0x2AF3 JUMP JUMPDEST DUP7 DUP2 DUP8 DUP8 PUSH1 0x1 DUP11 DUP11 SWAP1 POP PUSH2 0xEC2 SWAP2 SWAP1 PUSH2 0x3681 JUMP JUMPDEST DUP2 DUP2 LT PUSH2 0xED2 JUMPI PUSH2 0xED1 PUSH2 0x36B5 JUMP JUMPDEST JUMPDEST SWAP1 POP PUSH1 0x20 MUL ADD PUSH1 0x20 DUP2 ADD SWAP1 PUSH2 0xEE7 SWAP2 SWAP1 PUSH2 0x36E4 JUMP JUMPDEST PUSH20 0xFFFFFFFFFFFFFFFFFFFFFFFFFFFFFFFFFFFFFFFF AND PUSH4 0x70A08231 DUP8 PUSH1 0x40 MLOAD DUP3 PUSH4 0xFFFFFFFF AND PUSH1 0xE0 SHL DUP2 MSTORE PUSH1 0x4 ADD PUSH2 0xF1F SWAP2 SWAP1 PUSH2 0x35BA JUMP JUMPDEST PUSH1 0x20 PUSH1 0x40 MLOAD DUP1 DUP4 SUB DUP2 DUP7 GAS STATICCALL ISZERO DUP1 ISZERO PUSH2 0xF3C JUMPI RETURNDATASIZE PUSH1 0x0 DUP1 RETURNDATACOPY RETURNDATASIZE PUSH1 0x0 REVERT JUMPDEST POP POP POP POP PUSH1 0x40 MLOAD RETURNDATASIZE PUSH1 0x1F NOT PUSH1 0x1F DUP3 ADD AND DUP3 ADD DUP1 PUSH1 0x40 MSTORE POP DUP2 ADD SWAP1 PUSH2 0xF60 SWAP2 SWAP1 PUSH2 0x38E0 JUMP JUMPDEST PUSH2 0xF6A SWAP2 SWAP1 PUSH2 0x3681 JUMP JUMPDEST LT ISZERO PUSH2 0xFAB JUMPI PUSH1 0x40 MLOAD PUSH32 0x8C379A000000000000000000000000000000000000000000000000000000000 DUP2 MSTORE PUSH1 0x4 ADD PUSH2 0xFA2 SWAP1 PUSH2 0x37EF JUMP JUMPDEST PUSH1 0x40 MLOAD DUP1 SWAP2 SUB SWAP1 REVERT JUMPDEST POP POP POP POP POP POP POP POP JUMP JUMPDEST DUP1 TIMESTAMP DUP2 LT ISZERO PUSH2 0xFF9 JUMPI PUSH1 0x40 MLOAD PUSH32 0x8C379A000000000000000000000000000000000000000000000000000000000 DUP2 MSTORE PUSH1 0x4 ADD PUSH2 0xFF0 SWAP1 PUSH2 0x3632 JUMP JUMPDEST PUSH1 0x40 MLOAD DUP1 SWAP2 SUB SWAP1 REVERT JUMPDEST PUSH1 0x1 PUSH1 0x0 SWAP1 SLOAD SWAP1 PUSH2 0x100 EXP SWAP1 DIV PUSH20 0xFFFFFFFFFFFFFFFFFFFFFFFFFFFFFFFFFFFFFFFF AND PUSH20 0xFFFFFFFFFFFFFFFFFFFFFFFFFFFFFFFFFFFFFFFF AND DUP6 DUP6 PUSH1 0x1 DUP9 DUP9 SWAP1 POP PUSH2 0x1044 SWAP2 SWAP1 PUSH2 0x3681 JUMP JUMPDEST DUP2 DUP2 LT PUSH2 0x1054 JUMPI PUSH2 0x1053 PUSH2 0x36B5 JUMP JUMPDEST JUMPDEST SWAP1 POP PUSH1 0x20 MUL ADD PUSH1 0x20 DUP2 ADD SWAP1 PUSH2 0x1069 SWAP2 SWAP1 PUSH2 0x36E4 JUMP JUMPDEST PUSH20 0xFFFFFFFFFFFFFFFFFFFFFFFFFFFFFFFFFFFFFFFF AND EQ PUSH2 0x10BF JUMPI PUSH1 0x40 MLOAD PUSH32 0x8C379A000000000000000000000000000000000000000000000000000000000 DUP2 MSTORE PUSH1 0x4 ADD PUSH2 0x10B6 SWAP1 PUSH2 0x375D JUMP JUMPDEST PUSH1 0x40 MLOAD DUP1 SWAP2 SUB SWAP1 REVERT JUMPDEST PUSH2 0x116D DUP6 DUP6 PUSH1 0x0 DUP2 DUP2 LT PUSH2 0x10D6 JUMPI PUSH2 0x10D5 PUSH2 0x36B5 JUMP JUMPDEST JUMPDEST SWAP1 POP PUSH1 0x20 MUL ADD PUSH1 0x20 DUP2 ADD SWAP1 PUSH2 0x10EB SWAP2 SWAP1 PUSH2 0x36E4 JUMP JUMPDEST CALLER PUSH2 0x1167 PUSH1 0x0 DUP1 SLOAD SWAP1 PUSH2 0x100 EXP SWAP1 DIV PUSH20 0xFFFFFFFFFFFFFFFFFFFFFFFFFFFFFFFFFFFFFFFF AND DUP10 DUP10 PUSH1 0x0 DUP2 DUP2 LT PUSH2 0x1124 JUMPI PUSH2 0x1123 PUSH2 0x36B5 JUMP JUMPDEST JUMPDEST SWAP1 POP PUSH1 0x20 MUL ADD PUSH1 0x20 DUP2 ADD SWAP1 PUSH2 0x1139 SWAP2 SWAP1 PUSH2 0x36E4 JUMP JUMPDEST DUP11 DUP11 PUSH1 0x1 DUP2 DUP2 LT PUSH2 0x114D JUMPI PUSH2 0x114C PUSH2 0x36B5 JUMP JUMPDEST JUMPDEST SWAP1 POP PUSH1 0x20 MUL ADD PUSH1 0x20 DUP2 ADD SWAP1 PUSH2 0x1162 SWAP2 SWAP1 PUSH2 0x36E4 JUMP JUMPDEST PUSH2 0x2454 JUMP JUMPDEST DUP11 PUSH2 0x24C6 JUMP JUMPDEST PUSH2 0x11B8 DUP6 DUP6 DUP1 DUP1 PUSH1 0x20 MUL PUSH1 0x20 ADD PUSH1 0x40 MLOAD SWAP1 DUP2 ADD PUSH1 0x40 MSTORE DUP1 SWAP4 SWAP3 SWAP2 SWAP1 DUP2 DUP2 MSTORE PUSH1 0x20 ADD DUP4 DUP4 PUSH1 0x20 MUL DUP1 DUP3 DUP5 CALLDATACOPY PUSH1 0x0 DUP2 DUP5 ADD MSTORE PUSH1 0x1F NOT PUSH1 0x1F DUP3 ADD AND SWAP1 POP DUP1 DUP4 ADD SWAP3 POP POP POP POP POP POP POP ADDRESS PUSH2 0x2AF3 JUMP JUMPDEST PUSH1 0x0 PUSH1 0x1 PUSH1 0x0 SWAP1 SLOAD SWAP1 PUSH2 0x100 EXP SWAP1 DIV PUSH20 0xFFFFFFFFFFFFFFFFFFFFFFFFFFFFFFFFFFFFFFFF AND PUSH20 0xFFFFFFFFFFFFFFFFFFFFFFFFFFFFFFFFFFFFFFFF AND PUSH4 0x70A08231 ADDRESS PUSH1 0x40 MLOAD DUP3 PUSH4 0xFFFFFFFF AND PUSH1 0xE0 SHL DUP2 MSTORE PUSH1 0x4 ADD PUSH2 0x1215 SWAP2 SWAP1 PUSH2 0x35BA JUMP JUMPDEST PUSH1 0x20 PUSH1 0x40 MLOAD DUP1 DUP4 SUB DUP2 DUP7 GAS STATICCALL ISZERO DUP1 ISZERO PUSH2 0x1232 JUMPI RETURNDATASIZE PUSH1 0x0 DUP1 RETURNDATACOPY RETURNDATASIZE PUSH1 0x0 REVERT JUMPDEST POP POP POP POP PUSH1 0x40 MLOAD RETURNDATASIZE PUSH1 0x1F NOT PUSH1 0x1F DUP3 ADD AND DUP3 ADD DUP1 PUSH1 0x40 MSTORE POP DUP2 ADD SWAP1 PUSH2 0x1256 SWAP2 SWAP1 PUSH2 0x38E0 JUMP JUMPDEST SWAP1 POP DUP7 DUP2 LT ISZERO PUSH2 0x129B JUMPI PUSH1 0x40 MLOAD PUSH32 0x8C379A000000000000000000000000000000000000000000000000000000000 DUP2 MSTORE PUSH1 0x4 ADD PUSH2 0x1292 SWAP1 PUSH2 0x37EF JUMP JUMPDEST PUSH1 0x40 MLOAD DUP1 SWAP2 SUB SWAP1 REVERT JUMPDEST PUSH1 0x1 PUSH1 0x0 SWAP1 SLOAD SWAP1 PUSH2 0x100 EXP SWAP1 DIV PUSH20 0xFFFFFFFFFFFFFFFFFFFFFFFFFFFFFFFFFFFFFFFF AND PUSH20 0xFFFFFFFFFFFFFFFFFFFFFFFFFFFFFFFFFFFFFFFF AND PUSH4 0x2E1A7D4D DUP3 PUSH1 0x40 MLOAD DUP3 PUSH4 0xFFFFFFFF AND PUSH1 0xE0 SHL DUP2 MSTORE PUSH1 0x4 ADD PUSH2 0x12F6 SWAP2 SWAP1 PUSH2 0x381E JUMP JUMPDEST PUSH1 0x0 PUSH1 0x40 MLOAD DUP1 DUP4 SUB DUP2 PUSH1 0x0 DUP8 DUP1 EXTCODESIZE ISZERO DUP1 ISZERO PUSH2 0x1310 JUMPI PUSH1 0x0 DUP1 REVERT JUMPDEST POP GAS CALL ISZERO DUP1 ISZERO PUSH2 0x1324 JUMPI RETURNDATASIZE PUSH1 0x0 DUP1 RETURNDATACOPY RETURNDATASIZE PUSH1 0x0 REVERT JUMPDEST POP POP POP POP PUSH2 0x1332 DUP5 DUP3 PUSH2 0x2858 JUMP JUMPDEST POP POP POP POP POP POP POP POP JUMP JUMPDEST PUSH1 0x60 DUP2 TIMESTAMP DUP2 LT ISZERO PUSH2 0x1382 JUMPI PUSH1 0x40 MLOAD PUSH32 0x8C379A000000000000000000000000000000000000000000000000000000000 DUP2 MSTORE PUSH1 0x4 ADD PUSH2 0x1379 SWAP1 PUSH2 0x3632 JUMP JUMPDEST PUSH1 0x40 MLOAD DUP1 SWAP2 SUB SWAP1 REVERT JUMPDEST PUSH1 0x1 PUSH1 0x0 SWAP1 SLOAD SWAP1 PUSH2 0x100 EXP SWAP1 DIV PUSH20 0xFFFFFFFFFFFFFFFFFFFFFFFFFFFFFFFFFFFFFFFF AND PUSH20 0xFFFFFFFFFFFFFFFFFFFFFFFFFFFFFFFFFFFFFFFF AND DUP7 DUP7 PUSH1 0x0 DUP2 DUP2 LT PUSH2 0x13CF JUMPI PUSH2 0x13CE PUSH2 0x36B5 JUMP JUMPDEST JUMPDEST SWAP1 POP PUSH1 0x20 MUL ADD PUSH1 0x20 DUP2 ADD SWAP1 PUSH2 0x13E4 SWAP2 SWAP1 PUSH2 0x36E4 JUMP JUMPDEST PUSH20 0xFFFFFFFFFFFFFFFFFFFFFFFFFFFFFFFFFFFFFFFF AND EQ PUSH2 0x143A JUMPI PUSH1 0x40 MLOAD PUSH32 0x8C379A000000000000000000000000000000000000000000000000000000000 DUP2 MSTORE PUSH1 0x4 ADD PUSH2 0x1431 SWAP1 PUSH2 0x375D JUMP JUMPDEST PUSH1 0x40 MLOAD DUP1 SWAP2 SUB SWAP1 REVERT JUMPDEST PUSH2 0x14A6 PUSH1 0x0 DUP1 SLOAD SWAP1 PUSH2 0x100 EXP SWAP1 DIV PUSH20 0xFFFFFFFFFFFFFFFFFFFFFFFFFFFFFFFFFFFFFFFF AND CALLVALUE DUP9 DUP9 DUP1 DUP1 PUSH1 0x20 MUL PUSH1 0x20 ADD PUSH1 0x40 MLOAD SWAP1 DUP2 ADD PUSH1 0x40 MSTORE DUP1 SWAP4 SWAP3 SWAP2 SWAP1 DUP2 DUP2 MSTORE PUSH1 0x20 ADD DUP4 DUP4 PUSH1 0x20 MUL DUP1 DUP3 DUP5 CALLDATACOPY PUSH1 0x0 DUP2 DUP5 ADD MSTORE PUSH1 0x1F NOT PUSH1 0x1F DUP3 ADD AND SWAP1 POP DUP1 DUP4 ADD SWAP3 POP POP POP POP POP POP POP PUSH2 0x22C9 JUMP JUMPDEST SWAP2 POP DUP7 DUP3 PUSH1 0x1 DUP5 MLOAD PUSH2 0x14B8 SWAP2 SWAP1 PUSH2 0x3681 JUMP JUMPDEST DUP2 MLOAD DUP2 LT PUSH2 0x14C9 JUMPI PUSH2 0x14C8 PUSH2 0x36B5 JUMP JUMPDEST JUMPDEST PUSH1 0x20 MUL PUSH1 0x20 ADD ADD MLOAD LT ISZERO PUSH2 0x1512 JUMPI PUSH1 0x40 MLOAD PUSH32 0x8C379A000000000000000000000000000000000000000000000000000000000 DUP2 MSTORE PUSH1 0x4 ADD PUSH2 0x1509 SWAP1 PUSH2 0x37EF JUMP JUMPDEST PUSH1 0x40 MLOAD DUP1 SWAP2 SUB SWAP1 REVERT JUMPDEST PUSH1 0x1 PUSH1 0x0 SWAP1 SLOAD SWAP1 PUSH2 0x100 EXP SWAP1 DIV PUSH20 0xFFFFFFFFFFFFFFFFFFFFFFFFFFFFFFFFFFFFFFFF AND PUSH20 0xFFFFFFFFFFFFFFFFFFFFFFFFFFFFFFFFFFFFFFFF AND PUSH4 0xD0E30DB0 DUP4 PUSH1 0x0 DUP2 MLOAD DUP2 LT PUSH2 0x1564 JUMPI PUSH2 0x1563 PUSH2 0x36B5 JUMP JUMPDEST JUMPDEST PUSH1 0x20 MUL PUSH1 0x20 ADD ADD MLOAD PUSH1 0x40 MLOAD DUP3 PUSH4 0xFFFFFFFF AND PUSH1 0xE0 SHL DUP2 MSTORE PUSH1 0x4 ADD PUSH1 0x0 PUSH1 0x40 MLOAD DUP1 DUP4 SUB DUP2 DUP6 DUP9 DUP1 EXTCODESIZE ISZERO DUP1 ISZERO PUSH2 0x1597 JUMPI PUSH1 0x0 DUP1 REVERT JUMPDEST POP GAS CALL ISZERO DUP1 ISZERO PUSH2 0x15AB JUMPI RETURNDATASIZE PUSH1 0x0 DUP1 RETURNDATACOPY RETURNDATASIZE PUSH1 0x0 REVERT JUMPDEST POP POP POP POP POP PUSH1 0x1 PUSH1 0x0 SWAP1 SLOAD SWAP1 PUSH2 0x100 EXP SWAP1 DIV PUSH20 0xFFFFFFFFFFFFFFFFFFFFFFFFFFFFFFFFFFFFFFFF AND PUSH20 0xFFFFFFFFFFFFFFFFFFFFFFFFFFFFFFFFFFFFFFFF AND PUSH4 0xA9059CBB PUSH2 0x1669 PUSH1 0x0 DUP1 SLOAD SWAP1 PUSH2 0x100 EXP SWAP1 DIV PUSH20 0xFFFFFFFFFFFFFFFFFFFFFFFFFFFFFFFFFFFFFFFF AND DUP10 DUP10 PUSH1 0x0 DUP2 DUP2 LT PUSH2 0x1626 JUMPI PUSH2 0x1625 PUSH2 0x36B5 JUMP JUMPDEST JUMPDEST SWAP1 POP PUSH1 0x20 MUL ADD PUSH1 0x20 DUP2 ADD SWAP1 PUSH2 0x163B SWAP2 SWAP1 PUSH2 0x36E4 JUMP JUMPDEST DUP11 DUP11 PUSH1 0x1 DUP2 DUP2 LT PUSH2 0x164F JUMPI PUSH2 0x164E PUSH2 0x36B5 JUMP JUMPDEST JUMPDEST SWAP1 POP PUSH1 0x20 MUL ADD PUSH1 0x20 DUP2 ADD SWAP1 PUSH2 0x1664 SWAP2 SWAP1 PUSH2 0x36E4 JUMP JUMPDEST PUSH2 0x2454 JUMP JUMPDEST DUP5 PUSH1 0x0 DUP2 MLOAD DUP2 LT PUSH2 0x167D JUMPI PUSH2 0x167C PUSH2 0x36B5 JUMP JUMPDEST JUMPDEST PUSH1 0x20 MUL PUSH1 0x20 ADD ADD MLOAD PUSH1 0x40 MLOAD DUP4 PUSH4 0xFFFFFFFF AND PUSH1 0xE0 SHL DUP2 MSTORE PUSH1 0x4 ADD PUSH2 0x16A2 SWAP3 SWAP2 SWAP1 PUSH2 0x390D JUMP JUMPDEST PUSH1 0x20 PUSH1 0x40 MLOAD DUP1 DUP4 SUB DUP2 PUSH1 0x0 DUP8 GAS CALL ISZERO DUP1 ISZERO PUSH2 0x16C1 JUMPI RETURNDATASIZE PUSH1 0x0 DUP1 RETURNDATACOPY RETURNDATASIZE PUSH1 0x0 REVERT JUMPDEST POP POP POP POP PUSH1 0x40 MLOAD RETURNDATASIZE PUSH1 0x1F NOT PUSH1 0x1F DUP3 ADD AND DUP3 ADD DUP1 PUSH1 0x40 MSTORE POP DUP2 ADD SWAP1 PUSH2 0x16E5 SWAP2 SWAP1 PUSH2 0x396E JUMP JUMPDEST PUSH2 0x16F2 JUMPI PUSH2 0x16F1 PUSH2 0x399B JUMP JUMPDEST JUMPDEST PUSH2 0x173E DUP3 DUP8 DUP8 DUP1 DUP1 PUSH1 0x20 MUL PUSH1 0x20 ADD PUSH1 0x40 MLOAD SWAP1 DUP2 ADD PUSH1 0x40 MSTORE DUP1 SWAP4 SWAP3 SWAP2 SWAP1 DUP2 DUP2 MSTORE PUSH1 0x20 ADD DUP4 DUP4 PUSH1 0x20 MUL DUP1 DUP3 DUP5 CALLDATACOPY PUSH1 0x0 DUP2 DUP5 ADD MSTORE PUSH1 0x1F NOT PUSH1 0x1F DUP3 ADD AND SWAP1 POP DUP1 DUP4 ADD SWAP3 POP POP POP POP POP POP POP DUP7 PUSH2 0x25FF JUMP JUMPDEST POP SWAP6 SWAP5 POP POP POP POP POP JUMP JUMPDEST PUSH1 0x60 DUP2 TIMESTAMP DUP2 LT ISZERO PUSH2 0x178E JUMPI PUSH1 0x40 MLOAD PUSH32 0x8C379A000000000000000000000000000000000000000000000000000000000 DUP2 MSTORE PUSH1 0x4 ADD PUSH2 0x1785 SWAP1 PUSH2 0x3632 JUMP JUMPDEST PUSH1 0x40 MLOAD DUP1 SWAP2 SUB SWAP1 REVERT JUMPDEST PUSH2 0x17FA PUSH1 0x0 DUP1 SLOAD SWAP1 PUSH2 0x100 EXP SWAP1 DIV PUSH20 0xFFFFFFFFFFFFFFFFFFFFFFFFFFFFFFFFFFFFFFFF AND DUP10 DUP9 DUP9 DUP1 DUP1 PUSH1 0x20 MUL PUSH1 0x20 ADD PUSH1 0x40 MLOAD SWAP1 DUP2 ADD PUSH1 0x40 MSTORE DUP1 SWAP4 SWAP3 SWAP2 SWAP1 DUP2 DUP2 MSTORE PUSH1 0x20 ADD DUP4 DUP4 PUSH1 0x20 MUL DUP1 DUP3 DUP5 CALLDATACOPY PUSH1 0x0 DUP2 DUP5 ADD MSTORE PUSH1 0x1F NOT PUSH1 0x1F DUP3 ADD AND SWAP1 POP DUP1 DUP4 ADD SWAP3 POP POP POP POP POP POP POP PUSH2 0x2958 JUMP JUMPDEST SWAP2 POP DUP7 DUP3 PUSH1 0x0 DUP2 MLOAD DUP2 LT PUSH2 0x1811 JUMPI PUSH2 0x1810 PUSH2 0x36B5 JUMP JUMPDEST JUMPDEST PUSH1 0x20 MUL PUSH1 0x20 ADD ADD MLOAD GT ISZERO PUSH2 0x185A JUMPI PUSH1 0x40 MLOAD PUSH32 0x8C379A000000000000000000000000000000000000000000000000000000000 DUP2 MSTORE PUSH1 0x4 ADD PUSH2 0x1851 SWAP1 PUSH2 0x38AB JUMP JUMPDEST PUSH1 0x40 MLOAD DUP1 SWAP2 SUB SWAP1 REVERT JUMPDEST PUSH2 0x1923 DUP7 DUP7 PUSH1 0x0 DUP2 DUP2 LT PUSH2 0x1871 JUMPI PUSH2 0x1870 PUSH2 0x36B5 JUMP JUMPDEST JUMPDEST SWAP1 POP PUSH1 0x20 MUL ADD PUSH1 0x20 DUP2 ADD SWAP1 PUSH2 0x1886 SWAP2 SWAP1 PUSH2 0x36E4 JUMP JUMPDEST CALLER PUSH2 0x1902 PUSH1 0x0 DUP1 SLOAD SWAP1 PUSH2 0x100 EXP SWAP1 DIV PUSH20 0xFFFFFFFFFFFFFFFFFFFFFFFFFFFFFFFFFFFFFFFF AND DUP11 DUP11 PUSH1 0x0 DUP2 DUP2 LT PUSH2 0x18BF JUMPI PUSH2 0x18BE PUSH2 0x36B5 JUMP JUMPDEST JUMPDEST SWAP1 POP PUSH1 0x20 MUL ADD PUSH1 0x20 DUP2 ADD SWAP1 PUSH2 0x18D4 SWAP2 SWAP1 PUSH2 0x36E4 JUMP JUMPDEST DUP12 DUP12 PUSH1 0x1 DUP2 DUP2 LT PUSH2 0x18E8 JUMPI PUSH2 0x18E7 PUSH2 0x36B5 JUMP JUMPDEST JUMPDEST SWAP1 POP PUSH1 0x20 MUL ADD PUSH1 0x20 DUP2 ADD SWAP1 PUSH2 0x18FD SWAP2 SWAP1 PUSH2 0x36E4 JUMP JUMPDEST PUSH2 0x2454 JUMP JUMPDEST DUP6 PUSH1 0x0 DUP2 MLOAD DUP2 LT PUSH2 0x1916 JUMPI PUSH2 0x1915 PUSH2 0x36B5 JUMP JUMPDEST JUMPDEST PUSH1 0x20 MUL PUSH1 0x20 ADD ADD MLOAD PUSH2 0x24C6 JUMP JUMPDEST PUSH2 0x196F DUP3 DUP8 DUP8 DUP1 DUP1 PUSH1 0x20 MUL PUSH1 0x20 ADD PUSH1 0x40 MLOAD SWAP1 DUP2 ADD PUSH1 0x40 MSTORE DUP1 SWAP4 SWAP3 SWAP2 SWAP1 DUP2 DUP2 MSTORE PUSH1 0x20 ADD DUP4 DUP4 PUSH1 0x20 MUL DUP1 DUP3 DUP5 CALLDATACOPY PUSH1 0x0 DUP2 DUP5 ADD MSTORE PUSH1 0x1F NOT PUSH1 0x1F DUP3 ADD AND SWAP1 POP DUP1 DUP4 ADD SWAP3 POP POP POP POP POP POP POP DUP7 PUSH2 0x25FF JUMP JUMPDEST POP SWAP7 SWAP6 POP POP POP POP POP POP JUMP JUMPDEST PUSH1 0x1 PUSH1 0x0 SWAP1 SLOAD SWAP1 PUSH2 0x100 EXP SWAP1 DIV PUSH20 0xFFFFFFFFFFFFFFFFFFFFFFFFFFFFFFFFFFFFFFFF AND DUP2 JUMP JUMPDEST DUP1 TIMESTAMP DUP2 LT ISZERO PUSH2 0x19E4 JUMPI PUSH1 0x40 MLOAD PUSH32 0x8C379A000000000000000000000000000000000000000000000000000000000 DUP2 MSTORE PUSH1 0x4 ADD PUSH2 0x19DB SWAP1 PUSH2 0x3632 JUMP JUMPDEST PUSH1 0x40 MLOAD DUP1 SWAP2 SUB SWAP1 REVERT JUMPDEST PUSH1 0x1 PUSH1 0x0 SWAP1 SLOAD SWAP1 PUSH2 0x100 EXP SWAP1 DIV PUSH20 0xFFFFFFFFFFFFFFFFFFFFFFFFFFFFFFFFFFFFFFFF AND PUSH20 0xFFFFFFFFFFFFFFFFFFFFFFFFFFFFFFFFFFFFFFFF AND DUP6 DUP6 PUSH1 0x0 DUP2 DUP2 LT PUSH2 0x1A31 JUMPI PUSH2 0x1A30 PUSH2 0x36B5 JUMP JUMPDEST JUMPDEST SWAP1 POP PUSH1 0x20 MUL ADD PUSH1 0x20 DUP2 ADD SWAP1 PUSH2 0x1A46 SWAP2 SWAP1 PUSH2 0x36E4 JUMP JUMPDEST PUSH20 0xFFFFFFFFFFFFFFFFFFFFFFFFFFFFFFFFFFFFFFFF AND EQ PUSH2 0x1A9C JUMPI PUSH1 0x40 MLOAD PUSH32 0x8C379A000000000000000000000000000000000000000000000000000000000 DUP2 MSTORE PUSH1 0x4 ADD PUSH2 0x1A93 SWAP1 PUSH2 0x375D JUMP JUMPDEST PUSH1 0x40 MLOAD DUP1 SWAP2 SUB SWAP1 REVERT JUMPDEST PUSH1 0x0 CALLVALUE SWAP1 POP PUSH1 0x1 PUSH1 0x0 SWAP1 SLOAD SWAP1 PUSH2 0x100 EXP SWAP1 DIV PUSH20 0xFFFFFFFFFFFFFFFFFFFFFFFFFFFFFFFFFFFFFFFF AND PUSH20 0xFFFFFFFFFFFFFFFFFFFFFFFFFFFFFFFFFFFFFFFF AND PUSH4 0xD0E30DB0 DUP3 PUSH1 0x40 MLOAD DUP3 PUSH4 0xFFFFFFFF AND PUSH1 0xE0 SHL DUP2 MSTORE PUSH1 0x4 ADD PUSH1 0x0 PUSH1 0x40 MLOAD DUP1 DUP4 SUB DUP2 DUP6 DUP9 DUP1 EXTCODESIZE ISZERO DUP1 ISZERO PUSH2 0x1B0B JUMPI PUSH1 0x0 DUP1 REVERT JUMPDEST POP GAS CALL ISZERO DUP1 ISZERO PUSH2 0x1B1F JUMPI RETURNDATASIZE PUSH1 0x0 DUP1 RETURNDATACOPY RETURNDATASIZE PUSH1 0x0 REVERT JUMPDEST POP POP POP POP POP PUSH1 0x1 PUSH1 0x0 SWAP1 SLOAD SWAP1 PUSH2 0x100 EXP SWAP1 DIV PUSH20 0xFFFFFFFFFFFFFFFFFFFFFFFFFFFFFFFFFFFFFFFF AND PUSH20 0xFFFFFFFFFFFFFFFFFFFFFFFFFFFFFFFFFFFFFFFF AND PUSH4 0xA9059CBB PUSH2 0x1BDD PUSH1 0x0 DUP1 SLOAD SWAP1 PUSH2 0x100 EXP SWAP1 DIV PUSH20 0xFFFFFFFFFFFFFFFFFFFFFFFFFFFFFFFFFFFFFFFF AND DUP10 DUP10 PUSH1 0x0 DUP2 DUP2 LT PUSH2 0x1B9A JUMPI PUSH2 0x1B99 PUSH2 0x36B5 JUMP JUMPDEST JUMPDEST SWAP1 POP PUSH1 0x20 MUL ADD PUSH1 0x20 DUP2 ADD SWAP1 PUSH2 0x1BAF SWAP2 SWAP1 PUSH2 0x36E4 JUMP JUMPDEST DUP11 DUP11 PUSH1 0x1 DUP2 DUP2 LT PUSH2 0x1BC3 JUMPI PUSH2 0x1BC2 PUSH2 0x36B5 JUMP JUMPDEST JUMPDEST SWAP1 POP PUSH1 0x20 MUL ADD PUSH1 0x20 DUP2 ADD SWAP1 PUSH2 0x1BD8 SWAP2 SWAP1 PUSH2 0x36E4 JUMP JUMPDEST PUSH2 0x2454 JUMP JUMPDEST DUP4 PUSH1 0x40 MLOAD DUP4 PUSH4 0xFFFFFFFF AND PUSH1 0xE0 SHL DUP2 MSTORE PUSH1 0x4 ADD PUSH2 0x1BFB SWAP3 SWAP2 SWAP1 PUSH2 0x390D JUMP JUMPDEST PUSH1 0x20 PUSH1 0x40 MLOAD DUP1 DUP4 SUB DUP2 PUSH1 0x0 DUP8 GAS CALL ISZERO DUP1 ISZERO PUSH2 0x1C1A JUMPI RETURNDATASIZE PUSH1 0x0 DUP1 RETURNDATACOPY RETURNDATASIZE PUSH1 0x0 REVERT JUMPDEST POP POP POP POP PUSH1 0x40 MLOAD RETURNDATASIZE PUSH1 0x1F NOT PUSH1 0x1F DUP3 ADD AND DUP3 ADD DUP1 PUSH1 0x40 MSTORE POP DUP2 ADD SWAP1 PUSH2 0x1C3E SWAP2 SWAP1 PUSH2 0x396E JUMP JUMPDEST PUSH2 0x1C4B JUMPI PUSH2 0x1C4A PUSH2 0x399B JUMP JUMPDEST JUMPDEST PUSH1 0x0 DUP7 DUP7 PUSH1 0x1 DUP10 DUP10 SWAP1 POP PUSH2 0x1C5F SWAP2 SWAP1 PUSH2 0x3681 JUMP JUMPDEST DUP2 DUP2 LT PUSH2 0x1C6F JUMPI PUSH2 0x1C6E PUSH2 0x36B5 JUMP JUMPDEST JUMPDEST SWAP1 POP PUSH1 0x20 MUL ADD PUSH1 0x20 DUP2 ADD SWAP1 PUSH2 0x1C84 SWAP2 SWAP1 PUSH2 0x36E4 JUMP JUMPDEST PUSH20 0xFFFFFFFFFFFFFFFFFFFFFFFFFFFFFFFFFFFFFFFF AND PUSH4 0x70A08231 DUP7 PUSH1 0x40 MLOAD DUP3 PUSH4 0xFFFFFFFF AND PUSH1 0xE0 SHL DUP2 MSTORE PUSH1 0x4 ADD PUSH2 0x1CBC SWAP2 SWAP1 PUSH2 0x35BA JUMP JUMPDEST PUSH1 0x20 PUSH1 0x40 MLOAD DUP1 DUP4 SUB DUP2 DUP7 GAS STATICCALL ISZERO DUP1 ISZERO PUSH2 0x1CD9 JUMPI RETURNDATASIZE PUSH1 0x0 DUP1 RETURNDATACOPY RETURNDATASIZE PUSH1 0x0 REVERT JUMPDEST POP POP POP POP PUSH1 0x40 MLOAD RETURNDATASIZE PUSH1 0x1F NOT PUSH1 0x1F DUP3 ADD AND DUP3 ADD DUP1 PUSH1 0x40 MSTORE POP DUP2 ADD SWAP1 PUSH2 0x1CFD SWAP2 SWAP1 PUSH2 0x38E0 JUMP JUMPDEST SWAP1 POP PUSH2 0x1D4A DUP8 DUP8 DUP1 DUP1 PUSH1 0x20 MUL PUSH1 0x20 ADD PUSH1 0x40 MLOAD SWAP1 DUP2 ADD PUSH1 0x40 MSTORE DUP1 SWAP4 SWAP3 SWAP2 SWAP1 DUP2 DUP2 MSTORE PUSH1 0x20 ADD DUP4 DUP4 PUSH1 0x20 MUL DUP1 DUP3 DUP5 CALLDATACOPY PUSH1 0x0 DUP2 DUP5 ADD MSTORE PUSH1 0x1F NOT PUSH1 0x1F DUP3 ADD AND SWAP1 POP DUP1 DUP4 ADD SWAP3 POP POP POP POP POP POP POP DUP7 PUSH2 0x2AF3 JUMP JUMPDEST DUP8 DUP2 DUP9 DUP9 PUSH1 0x1 DUP12 DUP12 SWAP1 POP PUSH2 0x1D5E SWAP2 SWAP1 PUSH2 0x3681 JUMP JUMPDEST DUP2 DUP2 LT PUSH2 0x1D6E JUMPI PUSH2 0x1D6D PUSH2 0x36B5 JUMP JUMPDEST JUMPDEST SWAP1 POP PUSH1 0x20 MUL ADD PUSH1 0x20 DUP2 ADD SWAP1 PUSH2 0x1D83 SWAP2 SWAP1 PUSH2 0x36E4 JUMP JUMPDEST PUSH20 0xFFFFFFFFFFFFFFFFFFFFFFFFFFFFFFFFFFFFFFFF AND PUSH4 0x70A08231 DUP9 PUSH1 0x40 MLOAD DUP3 PUSH4 0xFFFFFFFF AND PUSH1 0xE0 SHL DUP2 MSTORE PUSH1 0x4 ADD PUSH2 0x1DBB SWAP2 SWAP1 PUSH2 0x35BA JUMP JUMPDEST PUSH1 0x20 PUSH1 0x40 MLOAD DUP1 DUP4 SUB DUP2 DUP7 GAS STATICCALL ISZERO DUP1 ISZERO PUSH2 0x1DD8 JUMPI RETURNDATASIZE PUSH1 0x0 DUP1 RETURNDATACOPY RETURNDATASIZE PUSH1 0x0 REVERT JUMPDEST POP POP POP POP PUSH1 0x40 MLOAD RETURNDATASIZE PUSH1 0x1F NOT PUSH1 0x1F DUP3 ADD AND DUP3 ADD DUP1 PUSH1 0x40 MSTORE POP DUP2 ADD SWAP1 PUSH2 0x1DFC SWAP2 SWAP1 PUSH2 0x38E0 JUMP JUMPDEST PUSH2 0x1E06 SWAP2 SWAP1 PUSH2 0x3681 JUMP JUMPDEST LT ISZERO PUSH2 0x1E47 JUMPI PUSH1 0x40 MLOAD PUSH32 0x8C379A000000000000000000000000000000000000000000000000000000000 DUP2 MSTORE PUSH1 0x4 ADD PUSH2 0x1E3E SWAP1 PUSH2 0x37EF JUMP JUMPDEST PUSH1 0x40 MLOAD DUP1 SWAP2 SUB SWAP1 REVERT JUMPDEST POP POP POP POP POP POP POP POP JUMP JUMPDEST PUSH1 0x0 DUP1 SLOAD SWAP1 PUSH2 0x100 EXP SWAP1 DIV PUSH20 0xFFFFFFFFFFFFFFFFFFFFFFFFFFFFFFFFFFFFFFFF AND DUP2 JUMP JUMPDEST PUSH1 0x60 DUP2 TIMESTAMP DUP2 LT ISZERO PUSH2 0x1EBB JUMPI PUSH1 0x40 MLOAD PUSH32 0x8C379A000000000000000000000000000000000000000000000000000000000 DUP2 MSTORE PUSH1 0x4 ADD PUSH2 0x1EB2 SWAP1 PUSH2 0x3632 JUMP JUMPDEST PUSH1 0x40 MLOAD DUP1 SWAP2 SUB SWAP1 REVERT JUMPDEST PUSH1 0x1 PUSH1 0x0 SWAP1 SLOAD SWAP1 PUSH2 0x100 EXP SWAP1 DIV PUSH20 0xFFFFFFFFFFFFFFFFFFFFFFFFFFFFFFFFFFFFFFFF AND PUSH20 0xFFFFFFFFFFFFFFFFFFFFFFFFFFFFFFFFFFFFFFFF AND DUP7 DUP7 PUSH1 0x0 DUP2 DUP2 LT PUSH2 0x1F08 JUMPI PUSH2 0x1F07 PUSH2 0x36B5 JUMP JUMPDEST JUMPDEST SWAP1 POP PUSH1 0x20 MUL ADD PUSH1 0x20 DUP2 ADD SWAP1 PUSH2 0x1F1D SWAP2 SWAP1 PUSH2 0x36E4 JUMP JUMPDEST PUSH20 0xFFFFFFFFFFFFFFFFFFFFFFFFFFFFFFFFFFFFFFFF AND EQ PUSH2 0x1F73 JUMPI PUSH1 0x40 MLOAD PUSH32 0x8C379A000000000000000000000000000000000000000000000000000000000 DUP2 MSTORE PUSH1 0x4 ADD PUSH2 0x1F6A SWAP1 PUSH2 0x375D JUMP JUMPDEST PUSH1 0x40 MLOAD DUP1 SWAP2 SUB SWAP1 REVERT JUMPDEST PUSH2 0x1FDF PUSH1 0x0 DUP1 SLOAD SWAP1 PUSH2 0x100 EXP SWAP1 DIV PUSH20 0xFFFFFFFFFFFFFFFFFFFFFFFFFFFFFFFFFFFFFFFF AND DUP9 DUP9 DUP9 DUP1 DUP1 PUSH1 0x20 MUL PUSH1 0x20 ADD PUSH1 0x40 MLOAD SWAP1 DUP2 ADD PUSH1 0x40 MSTORE DUP1 SWAP4 SWAP3 SWAP2 SWAP1 DUP2 DUP2 MSTORE PUSH1 0x20 ADD DUP4 DUP4 PUSH1 0x20 MUL DUP1 DUP3 DUP5 CALLDATACOPY PUSH1 0x0 DUP2 DUP5 ADD MSTORE PUSH1 0x1F NOT PUSH1 0x1F DUP3 ADD AND SWAP1 POP DUP1 DUP4 ADD SWAP3 POP POP POP POP POP POP POP PUSH2 0x2958 JUMP JUMPDEST SWAP2 POP CALLVALUE DUP3 PUSH1 0x0 DUP2 MLOAD DUP2 LT PUSH2 0x1FF6 JUMPI PUSH2 0x1FF5 PUSH2 0x36B5 JUMP JUMPDEST JUMPDEST PUSH1 0x20 MUL PUSH1 0x20 ADD ADD MLOAD GT ISZERO PUSH2 0x203F JUMPI PUSH1 0x40 MLOAD PUSH32 0x8C379A000000000000000000000000000000000000000000000000000000000 DUP2 MSTORE PUSH1 0x4 ADD PUSH2 0x2036 SWAP1 PUSH2 0x38AB JUMP JUMPDEST PUSH1 0x40 MLOAD DUP1 SWAP2 SUB SWAP1 REVERT JUMPDEST PUSH1 0x1 PUSH1 0x0 SWAP1 SLOAD SWAP1 PUSH2 0x100 EXP SWAP1 DIV PUSH20 0xFFFFFFFFFFFFFFFFFFFFFFFFFFFFFFFFFFFFFFFF AND PUSH20 0xFFFFFFFFFFFFFFFFFFFFFFFFFFFFFFFFFFFFFFFF AND PUSH4 0xD0E30DB0 DUP4 PUSH1 0x0 DUP2 MLOAD DUP2 LT PUSH2 0x2091 JUMPI PUSH2 0x2090 PUSH2 0x36B5 JUMP JUMPDEST JUMPDEST PUSH1 0x20 MUL PUSH1 0x20 ADD ADD MLOAD PUSH1 0x40 MLOAD DUP3 PUSH4 0xFFFFFFFF AND PUSH1 0xE0 SHL DUP2 MSTORE PUSH1 0x4 ADD PUSH1 0x0 PUSH1 0x40 MLOAD DUP1 DUP4 SUB DUP2 DUP6 DUP9 DUP1 EXTCODESIZE ISZERO DUP1 ISZERO PUSH2 0x20C4 JUMPI PUSH1 0x0 DUP1 REVERT JUMPDEST POP GAS CALL ISZERO DUP1 ISZERO PUSH2 0x20D8 JUMPI RETURNDATASIZE PUSH1 0x0 DUP1 RETURNDATACOPY RETURNDATASIZE PUSH1 0x0 REVERT JUMPDEST POP POP POP POP POP PUSH1 0x1 PUSH1 0x0 SWAP1 SLOAD SWAP1 PUSH2 0x100 EXP SWAP1 DIV PUSH20 0xFFFFFFFFFFFFFFFFFFFFFFFFFFFFFFFFFFFFFFFF AND PUSH20 0xFFFFFFFFFFFFFFFFFFFFFFFFFFFFFFFFFFFFFFFF AND PUSH4 0xA9059CBB PUSH2 0x2196 PUSH1 0x0 DUP1 SLOAD SWAP1 PUSH2 0x100 EXP SWAP1 DIV PUSH20 0xFFFFFFFFFFFFFFFFFFFFFFFFFFFFFFFFFFFFFFFF AND DUP10 DUP10 PUSH1 0x0 DUP2 DUP2 LT PUSH2 0x2153 JUMPI PUSH2 0x2152 PUSH2 0x36B5 JUMP JUMPDEST JUMPDEST SWAP1 POP PUSH1 0x20 MUL ADD PUSH1 0x20 DUP2 ADD SWAP1 PUSH2 0x2168 SWAP2 SWAP1 PUSH2 0x36E4 JUMP JUMPDEST DUP11 DUP11 PUSH1 0x1 DUP2 DUP2 LT PUSH2 0x217C JUMPI PUSH2 0x217B PUSH2 0x36B5 JUMP JUMPDEST JUMPDEST SWAP1 POP PUSH1 0x20 MUL ADD PUSH1 0x20 DUP2 ADD SWAP1 PUSH2 0x2191 SWAP2 SWAP1 PUSH2 0x36E4 JUMP JUMPDEST PUSH2 0x2454 JUMP JUMPDEST DUP5 PUSH1 0x0 DUP2 MLOAD DUP2 LT PUSH2 0x21AA JUMPI PUSH2 0x21A9 PUSH2 0x36B5 JUMP JUMPDEST JUMPDEST PUSH1 0x20 MUL PUSH1 0x20 ADD ADD MLOAD PUSH1 0x40 MLOAD DUP4 PUSH4 0xFFFFFFFF AND PUSH1 0xE0 SHL DUP2 MSTORE PUSH1 0x4 ADD PUSH2 0x21CF SWAP3 SWAP2 SWAP1 PUSH2 0x390D JUMP JUMPDEST PUSH1 0x20 PUSH1 0x40 MLOAD DUP1 DUP4 SUB DUP2 PUSH1 0x0 DUP8 GAS CALL ISZERO DUP1 ISZERO PUSH2 0x21EE JUMPI RETURNDATASIZE PUSH1 0x0 DUP1 RETURNDATACOPY RETURNDATASIZE PUSH1 0x0 REVERT JUMPDEST POP POP POP POP PUSH1 0x40 MLOAD RETURNDATASIZE PUSH1 0x1F NOT PUSH1 0x1F DUP3 ADD AND DUP3 ADD DUP1 PUSH1 0x40 MSTORE POP DUP2 ADD SWAP1 PUSH2 0x2212 SWAP2 SWAP1 PUSH2 0x396E JUMP JUMPDEST PUSH2 0x221F JUMPI PUSH2 0x221E PUSH2 0x399B JUMP JUMPDEST JUMPDEST PUSH2 0x226B DUP3 DUP8 DUP8 DUP1 DUP1 PUSH1 0x20 MUL PUSH1 0x20 ADD PUSH1 0x40 MLOAD SWAP1 DUP2 ADD PUSH1 0x40 MSTORE DUP1 SWAP4 SWAP3 SWAP2 SWAP1 DUP2 DUP2 MSTORE PUSH1 0x20 ADD DUP4 DUP4 PUSH1 0x20 MUL DUP1 DUP3 DUP5 CALLDATACOPY PUSH1 0x0 DUP2 DUP5 ADD MSTORE PUSH1 0x1F NOT PUSH1 0x1F DUP3 ADD AND SWAP1 POP DUP1 DUP4 ADD SWAP3 POP POP POP POP POP POP POP DUP7 PUSH2 0x25FF JUMP JUMPDEST DUP2 PUSH1 0x0 DUP2 MLOAD DUP2 LT PUSH2 0x227F JUMPI PUSH2 0x227E PUSH2 0x36B5 JUMP JUMPDEST JUMPDEST PUSH1 0x20 MUL PUSH1 0x20 ADD ADD MLOAD CALLVALUE GT ISZERO PUSH2 0x22BF JUMPI PUSH2 0x22BE CALLER DUP4 PUSH1 0x0 DUP2 MLOAD DUP2 LT PUSH2 0x22A6 JUMPI PUSH2 0x22A5 PUSH2 0x36B5 JUMP JUMPDEST JUMPDEST PUSH1 0x20 MUL PUSH1 0x20 ADD ADD MLOAD CALLVALUE PUSH2 0x22B9 SWAP2 SWAP1 PUSH2 0x3681 JUMP JUMPDEST PUSH2 0x2858 JUMP JUMPDEST JUMPDEST POP SWAP6 SWAP5 POP POP POP POP POP JUMP JUMPDEST PUSH1 0x60 PUSH1 0x2 DUP3 MLOAD LT ISZERO PUSH2 0x2310 JUMPI PUSH1 0x40 MLOAD PUSH32 0x8C379A000000000000000000000000000000000000000000000000000000000 DUP2 MSTORE PUSH1 0x4 ADD PUSH2 0x2307 SWAP1 PUSH2 0x3A16 JUMP JUMPDEST PUSH1 0x40 MLOAD DUP1 SWAP2 SUB SWAP1 REVERT JUMPDEST DUP2 MLOAD PUSH8 0xFFFFFFFFFFFFFFFF DUP2 GT ISZERO PUSH2 0x232B JUMPI PUSH2 0x232A PUSH2 0x3A36 JUMP JUMPDEST JUMPDEST PUSH1 0x40 MLOAD SWAP1 DUP1 DUP3 MSTORE DUP1 PUSH1 0x20 MUL PUSH1 0x20 ADD DUP3 ADD PUSH1 0x40 MSTORE DUP1 ISZERO PUSH2 0x2359 JUMPI DUP2 PUSH1 0x20 ADD PUSH1 0x20 DUP3 MUL DUP1 CALLDATASIZE DUP4 CALLDATACOPY DUP1 DUP3 ADD SWAP2 POP POP SWAP1 POP JUMPDEST POP SWAP1 POP DUP3 DUP2 PUSH1 0x0 DUP2 MLOAD DUP2 LT PUSH2 0x2371 JUMPI PUSH2 0x2370 PUSH2 0x36B5 JUMP JUMPDEST JUMPDEST PUSH1 0x20 MUL PUSH1 0x20 ADD ADD DUP2 DUP2 MSTORE POP POP PUSH1 0x0 JUMPDEST PUSH1 0x1 DUP4 MLOAD PUSH2 0x238E SWAP2 SWAP1 PUSH2 0x3681 JUMP JUMPDEST DUP2 LT ISZERO PUSH2 0x244C JUMPI PUSH1 0x0 DUP1 PUSH2 0x23E3 DUP8 DUP7 DUP6 DUP2 MLOAD DUP2 LT PUSH2 0x23AF JUMPI PUSH2 0x23AE PUSH2 0x36B5 JUMP JUMPDEST JUMPDEST PUSH1 0x20 MUL PUSH1 0x20 ADD ADD MLOAD DUP8 PUSH1 0x1 DUP8 PUSH2 0x23C5 SWAP2 SWAP1 PUSH2 0x3A65 JUMP JUMPDEST DUP2 MLOAD DUP2 LT PUSH2 0x23D6 JUMPI PUSH2 0x23D5 PUSH2 0x36B5 JUMP JUMPDEST JUMPDEST PUSH1 0x20 MUL PUSH1 0x20 ADD ADD MLOAD PUSH2 0x2E9D JUMP JUMPDEST SWAP2 POP SWAP2 POP PUSH2 0x240C DUP5 DUP5 DUP2 MLOAD DUP2 LT PUSH2 0x23FD JUMPI PUSH2 0x23FC PUSH2 0x36B5 JUMP JUMPDEST JUMPDEST PUSH1 0x20 MUL PUSH1 0x20 ADD ADD MLOAD DUP4 DUP4 PUSH2 0x2FA0 JUMP JUMPDEST DUP5 PUSH1 0x1 DUP6 PUSH2 0x241A SWAP2 SWAP1 PUSH2 0x3A65 JUMP JUMPDEST DUP2 MLOAD DUP2 LT PUSH2 0x242B JUMPI PUSH2 0x242A PUSH2 0x36B5 JUMP JUMPDEST JUMPDEST PUSH1 0x20 MUL PUSH1 0x20 ADD ADD DUP2 DUP2 MSTORE POP POP POP POP DUP1 DUP1 PUSH2 0x2444 SWAP1 PUSH2 0x3ABB JUMP JUMPDEST SWAP2 POP POP PUSH2 0x2380 JUMP JUMPDEST POP SWAP4 SWAP3 POP POP POP JUMP JUMPDEST PUSH1 0x0 DUP1 PUSH1 0x0 PUSH2 0x2463 DUP6 DUP6 PUSH2 0x308A JUMP JUMPDEST SWAP2 POP SWAP2 POP DUP6 DUP3 DUP3 PUSH1 0x40 MLOAD PUSH1 0x20 ADD PUSH2 0x247B SWAP3 SWAP2 SWAP1 PUSH2 0x3B4B JUMP JUMPDEST PUSH1 0x40 MLOAD PUSH1 0x20 DUP2 DUP4 SUB SUB DUP2 MSTORE SWAP1 PUSH1 0x40 MSTORE DUP1 MLOAD SWAP1 PUSH1 0x20 ADD KECCAK256 PUSH1 0x40 MLOAD PUSH1 0x20 ADD PUSH2 0x24A2 SWAP3 SWAP2 SWAP1 PUSH2 0x3C45 JUMP JUMPDEST PUSH1 0x40 MLOAD PUSH1 0x20 DUP2 DUP4 SUB SUB DUP2 MSTORE SWAP1 PUSH1 0x40 MSTORE DUP1 MLOAD SWAP1 PUSH1 0x20 ADD KECCAK256 PUSH1 0x0 SHR SWAP3 POP POP POP SWAP4 SWAP3 POP POP POP JUMP JUMPDEST PUSH1 0x0 DUP1 DUP6 PUSH20 0xFFFFFFFFFFFFFFFFFFFFFFFFFFFFFFFFFFFFFFFF AND PUSH4 0x23B872DD DUP7 DUP7 DUP7 PUSH1 0x40 MLOAD PUSH1 0x24 ADD PUSH2 0x24FA SWAP4 SWAP3 SWAP2 SWAP1 PUSH2 0x3C87 JUMP JUMPDEST PUSH1 0x40 MLOAD PUSH1 0x20 DUP2 DUP4 SUB SUB DUP2 MSTORE SWAP1 PUSH1 0x40 MSTORE SWAP1 PUSH1 0xE0 SHL PUSH1 0x20 DUP3 ADD DUP1 MLOAD PUSH28 0xFFFFFFFFFFFFFFFFFFFFFFFFFFFFFFFFFFFFFFFFFFFFFFFFFFFFFFFF DUP4 DUP2 DUP4 AND OR DUP4 MSTORE POP POP POP POP PUSH1 0x40 MLOAD PUSH2 0x2548 SWAP2 SWAP1 PUSH2 0x3D38 JUMP JUMPDEST PUSH1 0x0 PUSH1 0x40 MLOAD DUP1 DUP4 SUB DUP2 PUSH1 0x0 DUP7 GAS CALL SWAP2 POP POP RETURNDATASIZE DUP1 PUSH1 0x0 DUP2 EQ PUSH2 0x2585 JUMPI PUSH1 0x40 MLOAD SWAP2 POP PUSH1 0x1F NOT PUSH1 0x3F RETURNDATASIZE ADD AND DUP3 ADD PUSH1 0x40 MSTORE RETURNDATASIZE DUP3 MSTORE RETURNDATASIZE PUSH1 0x0 PUSH1 0x20 DUP5 ADD RETURNDATACOPY PUSH2 0x258A JUMP JUMPDEST PUSH1 0x60 SWAP2 POP JUMPDEST POP SWAP2 POP SWAP2 POP DUP2 DUP1 ISZERO PUSH2 0x25B8 JUMPI POP PUSH1 0x0 DUP2 MLOAD EQ DUP1 PUSH2 0x25B7 JUMPI POP DUP1 DUP1 PUSH1 0x20 ADD SWAP1 MLOAD DUP2 ADD SWAP1 PUSH2 0x25B6 SWAP2 SWAP1 PUSH2 0x396E JUMP JUMPDEST JUMPDEST JUMPDEST PUSH2 0x25F7 JUMPI PUSH1 0x40 MLOAD PUSH32 0x8C379A000000000000000000000000000000000000000000000000000000000 DUP2 MSTORE PUSH1 0x4 ADD PUSH2 0x25EE SWAP1 PUSH2 0x3DC1 JUMP JUMPDEST PUSH1 0x40 MLOAD DUP1 SWAP2 SUB SWAP1 REVERT JUMPDEST POP POP POP POP POP POP JUMP JUMPDEST PUSH1 0x0 JUMPDEST PUSH1 0x1 DUP4 MLOAD PUSH2 0x2610 SWAP2 SWAP1 PUSH2 0x3681 JUMP JUMPDEST DUP2 LT ISZERO PUSH2 0x2852 JUMPI PUSH1 0x0 DUP1 DUP5 DUP4 DUP2 MLOAD DUP2 LT PUSH2 0x262D JUMPI PUSH2 0x262C PUSH2 0x36B5 JUMP JUMPDEST JUMPDEST PUSH1 0x20 MUL PUSH1 0x20 ADD ADD MLOAD DUP6 PUSH1 0x1 DUP6 PUSH2 0x2643 SWAP2 SWAP1 PUSH2 0x3A65 JUMP JUMPDEST DUP2 MLOAD DUP2 LT PUSH2 0x2654 JUMPI PUSH2 0x2653 PUSH2 0x36B5 JUMP JUMPDEST JUMPDEST PUSH1 0x20 MUL PUSH1 0x20 ADD ADD MLOAD SWAP2 POP SWAP2 POP PUSH1 0x0 PUSH2 0x266C DUP4 DUP4 PUSH2 0x308A JUMP JUMPDEST POP SWAP1 POP PUSH1 0x0 DUP8 PUSH1 0x1 DUP7 PUSH2 0x267F SWAP2 SWAP1 PUSH2 0x3A65 JUMP JUMPDEST DUP2 MLOAD DUP2 LT PUSH2 0x2690 JUMPI PUSH2 0x268F PUSH2 0x36B5 JUMP JUMPDEST JUMPDEST PUSH1 0x20 MUL PUSH1 0x20 ADD ADD MLOAD SWAP1 POP PUSH1 0x0 DUP1 DUP4 PUSH20 0xFFFFFFFFFFFFFFFFFFFFFFFFFFFFFFFFFFFFFFFF AND DUP7 PUSH20 0xFFFFFFFFFFFFFFFFFFFFFFFFFFFFFFFFFFFFFFFF AND EQ PUSH2 0x26D8 JUMPI DUP3 PUSH1 0x0 PUSH2 0x26DC JUMP JUMPDEST PUSH1 0x0 DUP4 JUMPDEST SWAP2 POP SWAP2 POP PUSH1 0x0 PUSH1 0x2 DUP11 MLOAD PUSH2 0x26F0 SWAP2 SWAP1 PUSH2 0x3681 JUMP JUMPDEST DUP9 LT PUSH2 0x26FC JUMPI DUP9 PUSH2 0x274E JUMP JUMPDEST PUSH2 0x274D PUSH1 0x0 DUP1 SLOAD SWAP1 PUSH2 0x100 EXP SWAP1 DIV PUSH20 0xFFFFFFFFFFFFFFFFFFFFFFFFFFFFFFFFFFFFFFFF AND DUP8 DUP13 PUSH1 0x2 DUP13 PUSH2 0x272F SWAP2 SWAP1 PUSH2 0x3A65 JUMP JUMPDEST DUP2 MLOAD DUP2 LT PUSH2 0x2740 JUMPI PUSH2 0x273F PUSH2 0x36B5 JUMP JUMPDEST JUMPDEST PUSH1 0x20 MUL PUSH1 0x20 ADD ADD MLOAD PUSH2 0x2454 JUMP JUMPDEST JUMPDEST SWAP1 POP PUSH2 0x277B PUSH1 0x0 DUP1 SLOAD SWAP1 PUSH2 0x100 EXP SWAP1 DIV PUSH20 0xFFFFFFFFFFFFFFFFFFFFFFFFFFFFFFFFFFFFFFFF AND DUP9 DUP9 PUSH2 0x2454 JUMP JUMPDEST PUSH20 0xFFFFFFFFFFFFFFFFFFFFFFFFFFFFFFFFFFFFFFFF AND PUSH4 0x22C0D9F DUP5 DUP5 DUP5 PUSH1 0x0 PUSH8 0xFFFFFFFFFFFFFFFF DUP2 GT ISZERO PUSH2 0x27B4 JUMPI PUSH2 0x27B3 PUSH2 0x3A36 JUMP JUMPDEST JUMPDEST PUSH1 0x40 MLOAD SWAP1 DUP1 DUP3 MSTORE DUP1 PUSH1 0x1F ADD PUSH1 0x1F NOT AND PUSH1 0x20 ADD DUP3 ADD PUSH1 0x40 MSTORE DUP1 ISZERO PUSH2 0x27E6 JUMPI DUP2 PUSH1 0x20 ADD PUSH1 0x1 DUP3 MUL DUP1 CALLDATASIZE DUP4 CALLDATACOPY DUP1 DUP3 ADD SWAP2 POP POP SWAP1 POP JUMPDEST POP PUSH1 0x40 MLOAD DUP6 PUSH4 0xFFFFFFFF AND PUSH1 0xE0 SHL DUP2 MSTORE PUSH1 0x4 ADD PUSH2 0x2806 SWAP5 SWAP4 SWAP3 SWAP2 SWAP1 PUSH2 0x3E3C JUMP JUMPDEST PUSH1 0x0 PUSH1 0x40 MLOAD DUP1 DUP4 SUB DUP2 PUSH1 0x0 DUP8 DUP1 EXTCODESIZE ISZERO DUP1 ISZERO PUSH2 0x2820 JUMPI PUSH1 0x0 DUP1 REVERT JUMPDEST POP GAS CALL ISZERO DUP1 ISZERO PUSH2 0x2834 JUMPI RETURNDATASIZE PUSH1 0x0 DUP1 RETURNDATACOPY RETURNDATASIZE PUSH1 0x0 REVERT JUMPDEST POP POP POP POP POP POP POP POP POP POP POP DUP1 DUP1 PUSH2 0x284A SWAP1 PUSH2 0x3ABB JUMP JUMPDEST SWAP2 POP POP PUSH2 0x2602 JUMP JUMPDEST POP POP POP POP JUMP JUMPDEST PUSH1 0x0 DUP3 PUSH20 0xFFFFFFFFFFFFFFFFFFFFFFFFFFFFFFFFFFFFFFFF AND DUP3 PUSH1 0x0 PUSH8 0xFFFFFFFFFFFFFFFF DUP2 GT ISZERO PUSH2 0x288D JUMPI PUSH2 0x288C PUSH2 0x3A36 JUMP JUMPDEST JUMPDEST PUSH1 0x40 MLOAD SWAP1 DUP1 DUP3 MSTORE DUP1 PUSH1 0x1F ADD PUSH1 0x1F NOT AND PUSH1 0x20 ADD DUP3 ADD PUSH1 0x40 MSTORE DUP1 ISZERO PUSH2 0x28BF JUMPI DUP2 PUSH1 0x20 ADD PUSH1 0x1 DUP3 MUL DUP1 CALLDATASIZE DUP4 CALLDATACOPY DUP1 DUP3 ADD SWAP2 POP POP SWAP1 POP JUMPDEST POP PUSH1 0x40 MLOAD PUSH2 0x28CD SWAP2 SWAP1 PUSH2 0x3D38 JUMP JUMPDEST PUSH1 0x0 PUSH1 0x40 MLOAD DUP1 DUP4 SUB DUP2 DUP6 DUP8 GAS CALL SWAP3 POP POP POP RETURNDATASIZE DUP1 PUSH1 0x0 DUP2 EQ PUSH2 0x290A JUMPI PUSH1 0x40 MLOAD SWAP2 POP PUSH1 0x1F NOT PUSH1 0x3F RETURNDATASIZE ADD AND DUP3 ADD PUSH1 0x40 MSTORE RETURNDATASIZE DUP3 MSTORE RETURNDATASIZE PUSH1 0x0 PUSH1 0x20 DUP5 ADD RETURNDATACOPY PUSH2 0x290F JUMP JUMPDEST PUSH1 0x60 SWAP2 POP JUMPDEST POP POP SWAP1 POP DUP1 PUSH2 0x2953 JUMPI PUSH1 0x40 MLOAD PUSH32 0x8C379A000000000000000000000000000000000000000000000000000000000 DUP2 MSTORE PUSH1 0x4 ADD PUSH2 0x294A SWAP1 PUSH2 0x3EFA JUMP JUMPDEST PUSH1 0x40 MLOAD DUP1 SWAP2 SUB SWAP1 REVERT JUMPDEST POP POP POP JUMP JUMPDEST PUSH1 0x60 PUSH1 0x2 DUP3 MLOAD LT ISZERO PUSH2 0x299F JUMPI PUSH1 0x40 MLOAD PUSH32 0x8C379A000000000000000000000000000000000000000000000000000000000 DUP2 MSTORE PUSH1 0x4 ADD PUSH2 0x2996 SWAP1 PUSH2 0x3A16 JUMP JUMPDEST PUSH1 0x40 MLOAD DUP1 SWAP2 SUB SWAP1 REVERT JUMPDEST DUP2 MLOAD PUSH8 0xFFFFFFFFFFFFFFFF DUP2 GT ISZERO PUSH2 0x29BA JUMPI PUSH2 0x29B9 PUSH2 0x3A36 JUMP JUMPDEST JUMPDEST PUSH1 0x40 MLOAD SWAP1 DUP1 DUP3 MSTORE DUP1 PUSH1 0x20 MUL PUSH1 0x20 ADD DUP3 ADD PUSH1 0x40 MSTORE DUP1 ISZERO PUSH2 0x29E8 JUMPI DUP2 PUSH1 0x20 ADD PUSH1 0x20 DUP3 MUL DUP1 CALLDATASIZE DUP4 CALLDATACOPY DUP1 DUP3 ADD SWAP2 POP POP SWAP1 POP JUMPDEST POP SWAP1 POP DUP3 DUP2 PUSH1 0x1 DUP4 MLOAD PUSH2 0x29FB SWAP2 SWAP1 PUSH2 0x3681 JUMP JUMPDEST DUP2 MLOAD DUP2 LT PUSH2 0x2A0C JUMPI PUSH2 0x2A0B PUSH2 0x36B5 JUMP JUMPDEST JUMPDEST PUSH1 0x20 MUL PUSH1 0x20 ADD ADD DUP2 DUP2 MSTORE POP POP PUSH1 0x0 PUSH1 0x1 DUP4 MLOAD PUSH2 0x2A28 SWAP2 SWAP1 PUSH2 0x3681 JUMP JUMPDEST SWAP1 POP JUMPDEST PUSH1 0x0 DUP2 GT ISZERO PUSH2 0x2AEB JUMPI PUSH1 0x0 DUP1 PUSH2 0x2A82 DUP8 DUP7 PUSH1 0x1 DUP7 PUSH2 0x2A49 SWAP2 SWAP1 PUSH2 0x3681 JUMP JUMPDEST DUP2 MLOAD DUP2 LT PUSH2 0x2A5A JUMPI PUSH2 0x2A59 PUSH2 0x36B5 JUMP JUMPDEST JUMPDEST PUSH1 0x20 MUL PUSH1 0x20 ADD ADD MLOAD DUP8 DUP7 DUP2 MLOAD DUP2 LT PUSH2 0x2A75 JUMPI PUSH2 0x2A74 PUSH2 0x36B5 JUMP JUMPDEST JUMPDEST PUSH1 0x20 MUL PUSH1 0x20 ADD ADD MLOAD PUSH2 0x2E9D JUMP JUMPDEST SWAP2 POP SWAP2 POP PUSH2 0x2AAB DUP5 DUP5 DUP2 MLOAD DUP2 LT PUSH2 0x2A9C JUMPI PUSH2 0x2A9B PUSH2 0x36B5 JUMP JUMPDEST JUMPDEST PUSH1 0x20 MUL PUSH1 0x20 ADD ADD MLOAD DUP4 DUP4 PUSH2 0x31B6 JUMP JUMPDEST DUP5 PUSH1 0x1 DUP6 PUSH2 0x2AB9 SWAP2 SWAP1 PUSH2 0x3681 JUMP JUMPDEST DUP2 MLOAD DUP2 LT PUSH2 0x2ACA JUMPI PUSH2 0x2AC9 PUSH2 0x36B5 JUMP JUMPDEST JUMPDEST PUSH1 0x20 MUL PUSH1 0x20 ADD ADD DUP2 DUP2 MSTORE POP POP POP POP DUP1 DUP1 PUSH2 0x2AE3 SWAP1 PUSH2 0x3F1A JUMP JUMPDEST SWAP2 POP POP PUSH2 0x2A2B JUMP JUMPDEST POP SWAP4 SWAP3 POP POP POP JUMP JUMPDEST PUSH1 0x0 JUMPDEST PUSH1 0x1 DUP4 MLOAD PUSH2 0x2B04 SWAP2 SWAP1 PUSH2 0x3681 JUMP JUMPDEST DUP2 LT ISZERO PUSH2 0x2E98 JUMPI PUSH1 0x0 DUP1 DUP5 DUP4 DUP2 MLOAD DUP2 LT PUSH2 0x2B21 JUMPI PUSH2 0x2B20 PUSH2 0x36B5 JUMP JUMPDEST JUMPDEST PUSH1 0x20 MUL PUSH1 0x20 ADD ADD MLOAD DUP6 PUSH1 0x1 DUP6 PUSH2 0x2B37 SWAP2 SWAP1 PUSH2 0x3A65 JUMP JUMPDEST DUP2 MLOAD DUP2 LT PUSH2 0x2B48 JUMPI PUSH2 0x2B47 PUSH2 0x36B5 JUMP JUMPDEST JUMPDEST PUSH1 0x20 MUL PUSH1 0x20 ADD ADD MLOAD SWAP2 POP SWAP2 POP PUSH1 0x0 PUSH2 0x2B60 DUP4 DUP4 PUSH2 0x308A JUMP JUMPDEST POP SWAP1 POP PUSH1 0x0 PUSH2 0x2B90 PUSH1 0x0 DUP1 SLOAD SWAP1 PUSH2 0x100 EXP SWAP1 DIV PUSH20 0xFFFFFFFFFFFFFFFFFFFFFFFFFFFFFFFFFFFFFFFF AND DUP6 DUP6 PUSH2 0x2454 JUMP JUMPDEST SWAP1 POP PUSH1 0x0 DUP1 PUSH1 0x0 DUP1 DUP5 PUSH20 0xFFFFFFFFFFFFFFFFFFFFFFFFFFFFFFFFFFFFFFFF AND PUSH4 0x902F1AC PUSH1 0x40 MLOAD DUP2 PUSH4 0xFFFFFFFF AND PUSH1 0xE0 SHL DUP2 MSTORE PUSH1 0x4 ADD PUSH1 0x60 PUSH1 0x40 MLOAD DUP1 DUP4 SUB DUP2 DUP7 GAS STATICCALL ISZERO DUP1 ISZERO PUSH2 0x2BE3 JUMPI RETURNDATASIZE PUSH1 0x0 DUP1 RETURNDATACOPY RETURNDATASIZE PUSH1 0x0 REVERT JUMPDEST POP POP POP POP PUSH1 0x40 MLOAD RETURNDATASIZE PUSH1 0x1F NOT PUSH1 0x1F DUP3 ADD AND DUP3 ADD DUP1 PUSH1 0x40 MSTORE POP DUP2 ADD SWAP1 PUSH2 0x2C07 SWAP2 SWAP1 PUSH2 0x3FC5 JUMP JUMPDEST POP PUSH14 0xFFFFFFFFFFFFFFFFFFFFFFFFFFFF AND SWAP2 POP PUSH14 0xFFFFFFFFFFFFFFFFFFFFFFFFFFFF AND SWAP2 POP PUSH1 0x0 DUP1 DUP8 PUSH20 0xFFFFFFFFFFFFFFFFFFFFFFFFFFFFFFFFFFFFFFFF AND DUP11 PUSH20 0xFFFFFFFFFFFFFFFFFFFFFFFFFFFFFFFFFFFFFFFF AND EQ PUSH2 0x2C69 JUMPI DUP3 DUP5 PUSH2 0x2C6C JUMP JUMPDEST DUP4 DUP4 JUMPDEST SWAP2 POP SWAP2 POP DUP2 DUP11 PUSH20 0xFFFFFFFFFFFFFFFFFFFFFFFFFFFFFFFFFFFFFFFF AND PUSH4 0x70A08231 DUP10 PUSH1 0x40 MLOAD DUP3 PUSH4 0xFFFFFFFF AND PUSH1 0xE0 SHL DUP2 MSTORE PUSH1 0x4 ADD PUSH2 0x2CAA SWAP2 SWAP1 PUSH2 0x35BA JUMP JUMPDEST PUSH1 0x20 PUSH1 0x40 MLOAD DUP1 DUP4 SUB DUP2 DUP7 GAS STATICCALL ISZERO DUP1 ISZERO PUSH2 0x2CC7 JUMPI RETURNDATASIZE PUSH1 0x0 DUP1 RETURNDATACOPY RETURNDATASIZE PUSH1 0x0 REVERT JUMPDEST POP POP POP POP PUSH1 0x40 MLOAD RETURNDATASIZE PUSH1 0x1F NOT PUSH1 0x1F DUP3 ADD AND DUP3 ADD DUP1 PUSH1 0x40 MSTORE POP DUP2 ADD SWAP1 PUSH2 0x2CEB SWAP2 SWAP1 PUSH2 0x38E0 JUMP JUMPDEST PUSH2 0x2CF5 SWAP2 SWAP1 PUSH2 0x3681 JUMP JUMPDEST SWAP6 POP PUSH2 0x2D02 DUP7 DUP4 DUP4 PUSH2 0x2FA0 JUMP JUMPDEST SWAP5 POP POP POP POP POP PUSH1 0x0 DUP1 DUP6 PUSH20 0xFFFFFFFFFFFFFFFFFFFFFFFFFFFFFFFFFFFFFFFF AND DUP9 PUSH20 0xFFFFFFFFFFFFFFFFFFFFFFFFFFFFFFFFFFFFFFFF AND EQ PUSH2 0x2D46 JUMPI DUP3 PUSH1 0x0 PUSH2 0x2D4A JUMP JUMPDEST PUSH1 0x0 DUP4 JUMPDEST SWAP2 POP SWAP2 POP PUSH1 0x0 PUSH1 0x2 DUP13 MLOAD PUSH2 0x2D5E SWAP2 SWAP1 PUSH2 0x3681 JUMP JUMPDEST DUP11 LT PUSH2 0x2D6A JUMPI DUP11 PUSH2 0x2DBC JUMP JUMPDEST PUSH2 0x2DBB PUSH1 0x0 DUP1 SLOAD SWAP1 PUSH2 0x100 EXP SWAP1 DIV PUSH20 0xFFFFFFFFFFFFFFFFFFFFFFFFFFFFFFFFFFFFFFFF AND DUP10 DUP15 PUSH1 0x2 DUP15 PUSH2 0x2D9D SWAP2 SWAP1 PUSH2 0x3A65 JUMP JUMPDEST DUP2 MLOAD DUP2 LT PUSH2 0x2DAE JUMPI PUSH2 0x2DAD PUSH2 0x36B5 JUMP JUMPDEST JUMPDEST PUSH1 0x20 MUL PUSH1 0x20 ADD ADD MLOAD PUSH2 0x2454 JUMP JUMPDEST JUMPDEST SWAP1 POP DUP6 PUSH20 0xFFFFFFFFFFFFFFFFFFFFFFFFFFFFFFFFFFFFFFFF AND PUSH4 0x22C0D9F DUP5 DUP5 DUP5 PUSH1 0x0 PUSH8 0xFFFFFFFFFFFFFFFF DUP2 GT ISZERO PUSH2 0x2DF8 JUMPI PUSH2 0x2DF7 PUSH2 0x3A36 JUMP JUMPDEST JUMPDEST PUSH1 0x40 MLOAD SWAP1 DUP1 DUP3 MSTORE DUP1 PUSH1 0x1F ADD PUSH1 0x1F NOT AND PUSH1 0x20 ADD DUP3 ADD PUSH1 0x40 MSTORE DUP1 ISZERO PUSH2 0x2E2A JUMPI DUP2 PUSH1 0x20 ADD PUSH1 0x1 DUP3 MUL DUP1 CALLDATASIZE DUP4 CALLDATACOPY DUP1 DUP3 ADD SWAP2 POP POP SWAP1 POP JUMPDEST POP PUSH1 0x40 MLOAD DUP6 PUSH4 0xFFFFFFFF AND PUSH1 0xE0 SHL DUP2 MSTORE PUSH1 0x4 ADD PUSH2 0x2E4A SWAP5 SWAP4 SWAP3 SWAP2 SWAP1 PUSH2 0x3E3C JUMP JUMPDEST PUSH1 0x0 PUSH1 0x40 MLOAD DUP1 DUP4 SUB DUP2 PUSH1 0x0 DUP8 DUP1 EXTCODESIZE ISZERO DUP1 ISZERO PUSH2 0x2E64 JUMPI PUSH1 0x0 DUP1 REVERT JUMPDEST POP GAS CALL ISZERO DUP1 ISZERO PUSH2 0x2E78 JUMPI RETURNDATASIZE PUSH1 0x0 DUP1 RETURNDATACOPY RETURNDATASIZE PUSH1 0x0 REVERT JUMPDEST POP POP POP POP POP POP POP POP POP POP POP POP POP DUP1 DUP1 PUSH2 0x2E90 SWAP1 PUSH2 0x3ABB JUMP JUMPDEST SWAP2 POP POP PUSH2 0x2AF6 JUMP JUMPDEST POP POP POP JUMP JUMPDEST PUSH1 0x0 DUP1 PUSH1 0x0 PUSH2 0x2EAC DUP6 DUP6 PUSH2 0x308A JUMP JUMPDEST POP SWAP1 POP PUSH1 0x0 DUP1 PUSH2 0x2EBD DUP9 DUP9 DUP9 PUSH2 0x2454 JUMP JUMPDEST PUSH20 0xFFFFFFFFFFFFFFFFFFFFFFFFFFFFFFFFFFFFFFFF AND PUSH4 0x902F1AC PUSH1 0x40 MLOAD DUP2 PUSH4 0xFFFFFFFF AND PUSH1 0xE0 SHL DUP2 MSTORE PUSH1 0x4 ADD PUSH1 0x60 PUSH1 0x40 MLOAD DUP1 DUP4 SUB DUP2 DUP7 GAS STATICCALL ISZERO DUP1 ISZERO PUSH2 0x2F07 JUMPI RETURNDATASIZE PUSH1 0x0 DUP1 RETURNDATACOPY RETURNDATASIZE PUSH1 0x0 REVERT JUMPDEST POP POP POP POP PUSH1 0x40 MLOAD RETURNDATASIZE PUSH1 0x1F NOT PUSH1 0x1F DUP3 ADD AND DUP3 ADD DUP1 PUSH1 0x40 MSTORE POP DUP2 ADD SWAP1 PUSH2 0x2F2B SWAP2 SWAP1 PUSH2 0x3FC5 JUMP JUMPDEST POP PUSH14 0xFFFFFFFFFFFFFFFFFFFFFFFFFFFF AND SWAP2 POP PUSH14 0xFFFFFFFFFFFFFFFFFFFFFFFFFFFF AND SWAP2 POP DUP3 PUSH20 0xFFFFFFFFFFFFFFFFFFFFFFFFFFFFFFFFFFFFFFFF AND DUP8 PUSH20 0xFFFFFFFFFFFFFFFFFFFFFFFFFFFFFFFFFFFFFFFF AND EQ PUSH2 0x2F8A JUMPI DUP1 DUP3 PUSH2 0x2F8D JUMP JUMPDEST DUP2 DUP2 JUMPDEST DUP1 SWAP6 POP DUP2 SWAP7 POP POP POP POP POP POP SWAP4 POP SWAP4 SWAP2 POP POP JUMP JUMPDEST PUSH1 0x0 DUP1 DUP5 GT PUSH2 0x2FE4 JUMPI PUSH1 0x40 MLOAD PUSH32 0x8C379A000000000000000000000000000000000000000000000000000000000 DUP2 MSTORE PUSH1 0x4 ADD PUSH2 0x2FDB SWAP1 PUSH2 0x408A JUMP JUMPDEST PUSH1 0x40 MLOAD DUP1 SWAP2 SUB SWAP1 REVERT JUMPDEST PUSH1 0x0 DUP4 GT DUP1 ISZERO PUSH2 0x2FF4 JUMPI POP PUSH1 0x0 DUP3 GT JUMPDEST PUSH2 0x3033 JUMPI PUSH1 0x40 MLOAD PUSH32 0x8C379A000000000000000000000000000000000000000000000000000000000 DUP2 MSTORE PUSH1 0x4 ADD PUSH2 0x302A SWAP1 PUSH2 0x411C JUMP JUMPDEST PUSH1 0x40 MLOAD DUP1 SWAP2 SUB SWAP1 REVERT JUMPDEST PUSH1 0x0 PUSH2 0x3E5 DUP6 PUSH2 0x3043 SWAP2 SWAP1 PUSH2 0x413C JUMP JUMPDEST SWAP1 POP PUSH1 0x0 DUP4 DUP3 PUSH2 0x3053 SWAP2 SWAP1 PUSH2 0x413C JUMP JUMPDEST SWAP1 POP PUSH1 0x0 DUP3 PUSH2 0x3E8 DUP8 PUSH2 0x3066 SWAP2 SWAP1 PUSH2 0x413C JUMP JUMPDEST PUSH2 0x3070 SWAP2 SWAP1 PUSH2 0x3A65 JUMP JUMPDEST SWAP1 POP DUP1 DUP3 PUSH2 0x307E SWAP2 SWAP1 PUSH2 0x41C5 JUMP JUMPDEST SWAP4 POP POP POP POP SWAP4 SWAP3 POP POP POP JUMP JUMPDEST PUSH1 0x0 DUP1 DUP3 PUSH20 0xFFFFFFFFFFFFFFFFFFFFFFFFFFFFFFFFFFFFFFFF AND DUP5 PUSH20 0xFFFFFFFFFFFFFFFFFFFFFFFFFFFFFFFFFFFFFFFF AND SUB PUSH2 0x30FB JUMPI PUSH1 0x40 MLOAD PUSH32 0x8C379A000000000000000000000000000000000000000000000000000000000 DUP2 MSTORE PUSH1 0x4 ADD PUSH2 0x30F2 SWAP1 PUSH2 0x4268 JUMP JUMPDEST PUSH1 0x40 MLOAD DUP1 SWAP2 SUB SWAP1 REVERT JUMPDEST DUP3 PUSH20 0xFFFFFFFFFFFFFFFFFFFFFFFFFFFFFFFFFFFFFFFF AND DUP5 PUSH20 0xFFFFFFFFFFFFFFFFFFFFFFFFFFFFFFFFFFFFFFFF AND LT PUSH2 0x3135 JUMPI DUP3 DUP5 PUSH2 0x3138 JUMP JUMPDEST DUP4 DUP4 JUMPDEST DUP1 SWAP3 POP DUP2 SWAP4 POP POP POP PUSH1 0x0 PUSH20 0xFFFFFFFFFFFFFFFFFFFFFFFFFFFFFFFFFFFFFFFF AND DUP3 PUSH20 0xFFFFFFFFFFFFFFFFFFFFFFFFFFFFFFFFFFFFFFFF AND SUB PUSH2 0x31AF JUMPI PUSH1 0x40 MLOAD PUSH32 0x8C379A000000000000000000000000000000000000000000000000000000000 DUP2 MSTORE PUSH1 0x4 ADD PUSH2 0x31A6 SWAP1 PUSH2 0x42D4 JUMP JUMPDEST PUSH1 0x40 MLOAD DUP1 SWAP2 SUB SWAP1 REVERT JUMPDEST SWAP3 POP SWAP3 SWAP1 POP JUMP JUMPDEST PUSH1 0x0 DUP1 DUP5 GT PUSH2 0x31FA JUMPI PUSH1 0x40 MLOAD PUSH32 0x8C379A000000000000000000000000000000000000000000000000000000000 DUP2 MSTORE PUSH1 0x4 ADD PUSH2 0x31F1 SWAP1 PUSH2 0x4366 JUMP JUMPDEST PUSH1 0x40 MLOAD DUP1 SWAP2 SUB SWAP1 REVERT JUMPDEST PUSH1 0x0 DUP4 GT DUP1 ISZERO PUSH2 0x320A JUMPI POP PUSH1 0x0 DUP3 GT JUMPDEST PUSH2 0x3249 JUMPI PUSH1 0x40 MLOAD PUSH32 0x8C379A000000000000000000000000000000000000000000000000000000000 DUP2 MSTORE PUSH1 0x4 ADD PUSH2 0x3240 SWAP1 PUSH2 0x411C JUMP JUMPDEST PUSH1 0x40 MLOAD DUP1 SWAP2 SUB SWAP1 REVERT JUMPDEST PUSH1 0x0 PUSH2 0x3E8 DUP6 DUP6 PUSH2 0x325A SWAP2 SWAP1 PUSH2 0x413C JUMP JUMPDEST PUSH2 0x3264 SWAP2 SWAP1 PUSH2 0x413C JUMP JUMPDEST SWAP1 POP PUSH1 0x0 PUSH2 0x3E5 DUP7 DUP6 PUSH2 0x3277 SWAP2 SWAP1 PUSH2 0x3681 JUMP JUMPDEST PUSH2 0x3281 SWAP2 SWAP1 PUSH2 0x413C JUMP JUMPDEST SWAP1 POP PUSH1 0x1 DUP2 DUP4 PUSH2 0x3291 SWAP2 SWAP1 PUSH2 0x41C5 JUMP JUMPDEST PUSH2 0x329B SWAP2 SWAP1 PUSH2 0x3A65 JUMP JUMPDEST SWAP3 POP POP POP SWAP4 SWAP3 POP POP POP JUMP JUMPDEST PUSH1 0x0 DUP1 REVERT JUMPDEST PUSH1 0x0 DUP1 REVERT JUMPDEST PUSH1 0x0 DUP2 SWAP1 POP SWAP2 SWAP1 POP JUMP JUMPDEST PUSH2 0x32C3 DUP2 PUSH2 0x32B0 JUMP JUMPDEST DUP2 EQ PUSH2 0x32CE JUMPI PUSH1 0x0 DUP1 REVERT JUMPDEST POP JUMP JUMPDEST PUSH1 0x0 DUP2 CALLDATALOAD SWAP1 POP PUSH2 0x32E0 DUP2 PUSH2 0x32BA JUMP JUMPDEST SWAP3 SWAP2 POP POP JUMP JUMPDEST PUSH1 0x0 DUP1 REVERT JUMPDEST PUSH1 0x0 DUP1 REVERT JUMPDEST PUSH1 0x0 DUP1 REVERT JUMPDEST PUSH1 0x0 DUP1 DUP4 PUSH1 0x1F DUP5 ADD SLT PUSH2 0x330B JUMPI PUSH2 0x330A PUSH2 0x32E6 JUMP JUMPDEST JUMPDEST DUP3 CALLDATALOAD SWAP1 POP PUSH8 0xFFFFFFFFFFFFFFFF DUP2 GT ISZERO PUSH2 0x3328 JUMPI PUSH2 0x3327 PUSH2 0x32EB JUMP JUMPDEST JUMPDEST PUSH1 0x20 DUP4 ADD SWAP2 POP DUP4 PUSH1 0x20 DUP3 MUL DUP4 ADD GT ISZERO PUSH2 0x3344 JUMPI PUSH2 0x3343 PUSH2 0x32F0 JUMP JUMPDEST JUMPDEST SWAP3 POP SWAP3 SWAP1 POP JUMP JUMPDEST PUSH1 0x0 PUSH20 0xFFFFFFFFFFFFFFFFFFFFFFFFFFFFFFFFFFFFFFFF DUP3 AND SWAP1 POP SWAP2 SWAP1 POP JUMP JUMPDEST PUSH1 0x0 PUSH2 0x3376 DUP3 PUSH2 0x334B JUMP JUMPDEST SWAP1 POP SWAP2 SWAP1 POP JUMP JUMPDEST PUSH2 0x3386 DUP2 PUSH2 0x336B JUMP JUMPDEST DUP2 EQ PUSH2 0x3391 JUMPI PUSH1 0x0 DUP1 REVERT JUMPDEST POP JUMP JUMPDEST PUSH1 0x0 DUP2 CALLDATALOAD SWAP1 POP PUSH2 0x33A3 DUP2 PUSH2 0x337D JUMP JUMPDEST SWAP3 SWAP2 POP POP JUMP JUMPDEST PUSH1 0x0 DUP1 PUSH1 0x0 DUP1 PUSH1 0x0 DUP1 PUSH1 0xA0 DUP8 DUP10 SUB SLT ISZERO PUSH2 0x33C6 JUMPI PUSH2 0x33C5 PUSH2 0x32A6 JUMP JUMPDEST JUMPDEST PUSH1 0x0 PUSH2 0x33D4 DUP10 DUP3 DUP11 ADD PUSH2 0x32D1 JUMP JUMPDEST SWAP7 POP POP PUSH1 0x20 PUSH2 0x33E5 DUP10 DUP3 DUP11 ADD PUSH2 0x32D1 JUMP JUMPDEST SWAP6 POP POP PUSH1 0x40 DUP8 ADD CALLDATALOAD PUSH8 0xFFFFFFFFFFFFFFFF DUP2 GT ISZERO PUSH2 0x3406 JUMPI PUSH2 0x3405 PUSH2 0x32AB JUMP JUMPDEST JUMPDEST PUSH2 0x3412 DUP10 DUP3 DUP11 ADD PUSH2 0x32F5 JUMP JUMPDEST SWAP5 POP SWAP5 POP POP PUSH1 0x60 PUSH2 0x3425 DUP10 DUP3 DUP11 ADD PUSH2 0x3394 JUMP JUMPDEST SWAP3 POP POP PUSH1 0x80 PUSH2 0x3436 DUP10 DUP3 DUP11 ADD PUSH2 0x32D1 JUMP JUMPDEST SWAP2 POP POP SWAP3 SWAP6 POP SWAP3 SWAP6 POP SWAP3 SWAP6 JUMP JUMPDEST PUSH1 0x0 DUP2 MLOAD SWAP1 POP SWAP2 SWAP1 POP JUMP JUMPDEST PUSH1 0x0 DUP3 DUP3 MSTORE PUSH1 0x20 DUP3 ADD SWAP1 POP SWAP3 SWAP2 POP POP JUMP JUMPDEST PUSH1 0x0 DUP2 SWAP1 POP PUSH1 0x20 DUP3 ADD SWAP1 POP SWAP2 SWAP1 POP JUMP JUMPDEST PUSH2 0x3478 DUP2 PUSH2 0x32B0 JUMP JUMPDEST DUP3 MSTORE POP POP JUMP JUMPDEST PUSH1 0x0 PUSH2 0x348A DUP4 DUP4 PUSH2 0x346F JUMP JUMPDEST PUSH1 0x20 DUP4 ADD SWAP1 POP SWAP3 SWAP2 POP POP JUMP JUMPDEST PUSH1 0x0 PUSH1 0x20 DUP3 ADD SWAP1 POP SWAP2 SWAP1 POP JUMP JUMPDEST PUSH1 0x0 PUSH2 0x34AE DUP3 PUSH2 0x3443 JUMP JUMPDEST PUSH2 0x34B8 DUP2 DUP6 PUSH2 0x344E JUMP JUMPDEST SWAP4 POP PUSH2 0x34C3 DUP4 PUSH2 0x345F JUMP JUMPDEST DUP1 PUSH1 0x0 JUMPDEST DUP4 DUP2 LT ISZERO PUSH2 0x34F4 JUMPI DUP2 MLOAD PUSH2 0x34DB DUP9 DUP3 PUSH2 0x347E JUMP JUMPDEST SWAP8 POP PUSH2 0x34E6 DUP4 PUSH2 0x3496 JUMP JUMPDEST SWAP3 POP POP PUSH1 0x1 DUP2 ADD SWAP1 POP PUSH2 0x34C7 JUMP JUMPDEST POP DUP6 SWAP4 POP POP POP POP SWAP3 SWAP2 POP POP JUMP JUMPDEST PUSH1 0x0 PUSH1 0x20 DUP3 ADD SWAP1 POP DUP2 DUP2 SUB PUSH1 0x0 DUP4 ADD MSTORE PUSH2 0x351B DUP2 DUP5 PUSH2 0x34A3 JUMP JUMPDEST SWAP1 POP SWAP3 SWAP2 POP POP JUMP JUMPDEST PUSH1 0x0 DUP1 PUSH1 0x0 DUP1 PUSH1 0x0 PUSH1 0x80 DUP7 DUP9 SUB SLT ISZERO PUSH2 0x353F JUMPI PUSH2 0x353E PUSH2 0x32A6 JUMP JUMPDEST JUMPDEST PUSH1 0x0 PUSH2 0x354D DUP9 DUP3 DUP10 ADD PUSH2 0x32D1 JUMP JUMPDEST SWAP6 POP POP PUSH1 0x20 DUP7 ADD CALLDATALOAD PUSH8 0xFFFFFFFFFFFFFFFF DUP2 GT ISZERO PUSH2 0x356E JUMPI PUSH2 0x356D PUSH2 0x32AB JUMP JUMPDEST JUMPDEST PUSH2 0x357A DUP9 DUP3 DUP10 ADD PUSH2 0x32F5 JUMP JUMPDEST SWAP5 POP SWAP5 POP POP PUSH1 0x40 PUSH2 0x358D DUP9 DUP3 DUP10 ADD PUSH2 0x3394 JUMP JUMPDEST SWAP3 POP POP PUSH1 0x60 PUSH2 0x359E DUP9 DUP3 DUP10 ADD PUSH2 0x32D1 JUMP JUMPDEST SWAP2 POP POP SWAP3 SWAP6 POP SWAP3 SWAP6 SWAP1 SWAP4 POP JUMP JUMPDEST PUSH2 0x35B4 DUP2 PUSH2 0x336B JUMP JUMPDEST DUP3 MSTORE POP POP JUMP JUMPDEST PUSH1 0x0 PUSH1 0x20 DUP3 ADD SWAP1 POP PUSH2 0x35CF PUSH1 0x0 DUP4 ADD DUP5 PUSH2 0x35AB JUMP JUMPDEST SWAP3 SWAP2 POP POP JUMP JUMPDEST PUSH1 0x0 DUP3 DUP3 MSTORE PUSH1 0x20 DUP3 ADD SWAP1 POP SWAP3 SWAP2 POP POP JUMP JUMPDEST PUSH32 0x556E69737761705632526F757465723A20455850495245440000000000000000 PUSH1 0x0 DUP3 ADD MSTORE POP JUMP JUMPDEST PUSH1 0x0 PUSH2 0x361C PUSH1 0x18 DUP4 PUSH2 0x35D5 JUMP JUMPDEST SWAP2 POP PUSH2 0x3627 DUP3 PUSH2 0x35E6 JUMP JUMPDEST PUSH1 0x20 DUP3 ADD SWAP1 POP SWAP2 SWAP1 POP JUMP JUMPDEST PUSH1 0x0 PUSH1 0x20 DUP3 ADD SWAP1 POP DUP2 DUP2 SUB PUSH1 0x0 DUP4 ADD MSTORE PUSH2 0x364B DUP2 PUSH2 0x360F JUMP JUMPDEST SWAP1 POP SWAP2 SWAP1 POP JUMP JUMPDEST PUSH32 0x4E487B7100000000000000000000000000000000000000000000000000000000 PUSH1 0x0 MSTORE PUSH1 0x11 PUSH1 0x4 MSTORE PUSH1 0x24 PUSH1 0x0 REVERT JUMPDEST PUSH1 0x0 PUSH2 0x368C DUP3 PUSH2 0x32B0 JUMP JUMPDEST SWAP2 POP PUSH2 0x3697 DUP4 PUSH2 0x32B0 JUMP JUMPDEST SWAP3 POP DUP3 DUP3 LT ISZERO PUSH2 0x36AA JUMPI PUSH2 0x36A9 PUSH2 0x3652 JUMP JUMPDEST JUMPDEST DUP3 DUP3 SUB SWAP1 POP SWAP3 SWAP2 POP POP JUMP JUMPDEST PUSH32 0x4E487B7100000000000000000000000000000000000000000000000000000000 PUSH1 0x0 MSTORE PUSH1 0x32 PUSH1 0x4 MSTORE PUSH1 0x24 PUSH1 0x0 REVERT JUMPDEST PUSH1 0x0 PUSH1 0x20 DUP3 DUP5 SUB SLT ISZERO PUSH2 0x36FA JUMPI PUSH2 0x36F9 PUSH2 0x32A6 JUMP JUMPDEST JUMPDEST PUSH1 0x0 PUSH2 0x3708 DUP5 DUP3 DUP6 ADD PUSH2 0x3394 JUMP JUMPDEST SWAP2 POP POP SWAP3 SWAP2 POP POP JUMP JUMPDEST PUSH32 0x556E69737761705632526F757465723A20494E56414C49445F50415448000000 PUSH1 0x0 DUP3 ADD MSTORE POP JUMP JUMPDEST PUSH1 0x0 PUSH2 0x3747 PUSH1 0x1D DUP4 PUSH2 0x35D5 JUMP JUMPDEST SWAP2 POP PUSH2 0x3752 DUP3 PUSH2 0x3711 JUMP JUMPDEST PUSH1 0x20 DUP3 ADD SWAP1 POP SWAP2 SWAP1 POP JUMP JUMPDEST PUSH1 0x0 PUSH1 0x20 DUP3 ADD SWAP1 POP DUP2 DUP2 SUB PUSH1 0x0 DUP4 ADD MSTORE PUSH2 0x3776 DUP2 PUSH2 0x373A JUMP JUMPDEST SWAP1 POP SWAP2 SWAP1 POP JUMP JUMPDEST PUSH32 0x556E69737761705632526F757465723A20494E53554646494349454E545F4F55 PUSH1 0x0 DUP3 ADD MSTORE PUSH32 0x545055545F414D4F554E54000000000000000000000000000000000000000000 PUSH1 0x20 DUP3 ADD MSTORE POP JUMP JUMPDEST PUSH1 0x0 PUSH2 0x37D9 PUSH1 0x2B DUP4 PUSH2 0x35D5 JUMP JUMPDEST SWAP2 POP PUSH2 0x37E4 DUP3 PUSH2 0x377D JUMP JUMPDEST PUSH1 0x40 DUP3 ADD SWAP1 POP SWAP2 SWAP1 POP JUMP JUMPDEST PUSH1 0x0 PUSH1 0x20 DUP3 ADD SWAP1 POP DUP2 DUP2 SUB PUSH1 0x0 DUP4 ADD MSTORE PUSH2 0x3808 DUP2 PUSH2 0x37CC JUMP JUMPDEST SWAP1 POP SWAP2 SWAP1 POP JUMP JUMPDEST PUSH2 0x3818 DUP2 PUSH2 0x32B0 JUMP JUMPDEST DUP3 MSTORE POP POP JUMP JUMPDEST PUSH1 0x0 PUSH1 0x20 DUP3 ADD SWAP1 POP PUSH2 0x3833 PUSH1 0x0 DUP4 ADD DUP5 PUSH2 0x380F JUMP JUMPDEST SWAP3 SWAP2 POP POP JUMP JUMPDEST PUSH32 0x556E69737761705632526F757465723A204558434553534956455F494E505554 PUSH1 0x0 DUP3 ADD MSTORE PUSH32 0x5F414D4F554E5400000000000000000000000000000000000000000000000000 PUSH1 0x20 DUP3 ADD MSTORE POP JUMP JUMPDEST PUSH1 0x0 PUSH2 0x3895 PUSH1 0x27 DUP4 PUSH2 0x35D5 JUMP JUMPDEST SWAP2 POP PUSH2 0x38A0 DUP3 PUSH2 0x3839 JUMP JUMPDEST PUSH1 0x40 DUP3 ADD SWAP1 POP SWAP2 SWAP1 POP JUMP JUMPDEST PUSH1 0x0 PUSH1 0x20 DUP3 ADD SWAP1 POP DUP2 DUP2 SUB PUSH1 0x0 DUP4 ADD MSTORE PUSH2 0x38C4 DUP2 PUSH2 0x3888 JUMP JUMPDEST SWAP1 POP SWAP2 SWAP1 POP JUMP JUMPDEST PUSH1 0x0 DUP2 MLOAD SWAP1 POP PUSH2 0x38DA DUP2 PUSH2 0x32BA JUMP JUMPDEST SWAP3 SWAP2 POP POP JUMP JUMPDEST PUSH1 0x0 PUSH1 0x20 DUP3 DUP5 SUB SLT ISZERO PUSH2 0x38F6 JUMPI PUSH2 0x38F5 PUSH2 0x32A6 JUMP JUMPDEST JUMPDEST PUSH1 0x0 PUSH2 0x3904 DUP5 DUP3 DUP6 ADD PUSH2 0x38CB JUMP JUMPDEST SWAP2 POP POP SWAP3 SWAP2 POP POP JUMP JUMPDEST PUSH1 0x0 PUSH1 0x40 DUP3 ADD SWAP1 POP PUSH2 0x3922 PUSH1 0x0 DUP4 ADD DUP6 PUSH2 0x35AB JUMP JUMPDEST PUSH2 0x392F PUSH1 0x20 DUP4 ADD DUP5 PUSH2 0x380F JUMP JUMPDEST SWAP4 SWAP3 POP POP POP JUMP JUMPDEST PUSH1 0x0 DUP2 ISZERO ISZERO SWAP1 POP SWAP2 SWAP1 POP JUMP JUMPDEST PUSH2 0x394B DUP2 PUSH2 0x3936 JUMP JUMPDEST DUP2 EQ PUSH2 0x3956 JUMPI PUSH1 0x0 DUP1 REVERT JUMPDEST POP JUMP JUMPDEST PUSH1 0x0 DUP2 MLOAD SWAP1 POP PUSH2 0x3968 DUP2 PUSH2 0x3942 JUMP JUMPDEST SWAP3 SWAP2 POP POP JUMP JUMPDEST PUSH1 0x0 PUSH1 0x20 DUP3 DUP5 SUB SLT ISZERO PUSH2 0x3984 JUMPI PUSH2 0x3983 PUSH2 0x32A6 JUMP JUMPDEST JUMPDEST PUSH1 0x0 PUSH2 0x3992 DUP5 DUP3 DUP6 ADD PUSH2 0x3959 JUMP JUMPDEST SWAP2 POP POP SWAP3 SWAP2 POP POP JUMP JUMPDEST PUSH32 0x4E487B7100000000000000000000000000000000000000000000000000000000 PUSH1 0x0 MSTORE PUSH1 0x1 PUSH1 0x4 MSTORE PUSH1 0x24 PUSH1 0x0 REVERT JUMPDEST PUSH32 0x556E697377617056324C6962726172793A20494E56414C49445F504154480000 PUSH1 0x0 DUP3 ADD MSTORE POP JUMP JUMPDEST PUSH1 0x0 PUSH2 0x3A00 PUSH1 0x1E DUP4 PUSH2 0x35D5 JUMP JUMPDEST SWAP2 POP PUSH2 0x3A0B DUP3 PUSH2 0x39CA JUMP JUMPDEST PUSH1 0x20 DUP3 ADD SWAP1 POP SWAP2 SWAP1 POP JUMP JUMPDEST PUSH1 0x0 PUSH1 0x20 DUP3 ADD SWAP1 POP DUP2 DUP2 SUB PUSH1 0x0 DUP4 ADD MSTORE PUSH2 0x3A2F DUP2 PUSH2 0x39F3 JUMP JUMPDEST SWAP1 POP SWAP2 SWAP1 POP JUMP JUMPDEST PUSH32 0x4E487B7100000000000000000000000000000000000000000000000000000000 PUSH1 0x0 MSTORE PUSH1 0x41 PUSH1 0x4 MSTORE PUSH1 0x24 PUSH1 0x0 REVERT JUMPDEST PUSH1 0x0 PUSH2 0x3A70 DUP3 PUSH2 0x32B0 JUMP JUMPDEST SWAP2 POP PUSH2 0x3A7B DUP4 PUSH2 0x32B0 JUMP JUMPDEST SWAP3 POP DUP3 PUSH32 0xFFFFFFFFFFFFFFFFFFFFFFFFFFFFFFFFFFFFFFFFFFFFFFFFFFFFFFFFFFFFFFFF SUB DUP3 GT ISZERO PUSH2 0x3AB0 JUMPI PUSH2 0x3AAF PUSH2 0x3652 JUMP JUMPDEST JUMPDEST DUP3 DUP3 ADD SWAP1 POP SWAP3 SWAP2 POP POP JUMP JUMPDEST PUSH1 0x0 PUSH2 0x3AC6 DUP3 PUSH2 0x32B0 JUMP JUMPDEST SWAP2 POP PUSH32 0xFFFFFFFFFFFFFFFFFFFFFFFFFFFFFFFFFFFFFFFFFFFFFFFFFFFFFFFFFFFFFFFF DUP3 SUB PUSH2 0x3AF8 JUMPI PUSH2 0x3AF7 PUSH2 0x3652 JUMP JUMPDEST JUMPDEST PUSH1 0x1 DUP3 ADD SWAP1 POP SWAP2 SWAP1 POP JUMP JUMPDEST PUSH1 0x0 DUP2 PUSH1 0x60 SHL SWAP1 POP SWAP2 SWAP1 POP JUMP JUMPDEST PUSH1 0x0 PUSH2 0x3B1B DUP3 PUSH2 0x3B03 JUMP JUMPDEST SWAP1 POP SWAP2 SWAP1 POP JUMP JUMPDEST PUSH1 0x0 PUSH2 0x3B2D DUP3 PUSH2 0x3B10 JUMP JUMPDEST SWAP1 POP SWAP2 SWAP1 POP JUMP JUMPDEST PUSH2 0x3B45 PUSH2 0x3B40 DUP3 PUSH2 0x336B JUMP JUMPDEST PUSH2 0x3B22 JUMP JUMPDEST DUP3 MSTORE POP POP JUMP JUMPDEST PUSH1 0x0 PUSH2 0x3B57 DUP3 DUP6 PUSH2 0x3B34 JUMP JUMPDEST PUSH1 0x14 DUP3 ADD SWAP2 POP PUSH2 0x3B67 DUP3 DUP5 PUSH2 0x3B34 JUMP JUMPDEST PUSH1 0x14 DUP3 ADD SWAP2 POP DUP2 SWAP1 POP SWAP4 SWAP3 POP POP POP JUMP JUMPDEST PUSH1 0x0 DUP2 SWAP1 POP SWAP3 SWAP2 POP POP JUMP JUMPDEST PUSH32 0xFF00000000000000000000000000000000000000000000000000000000000000 PUSH1 0x0 DUP3 ADD MSTORE POP JUMP JUMPDEST PUSH1 0x0 PUSH2 0x3BB8 PUSH1 0x1 DUP4 PUSH2 0x3B77 JUMP JUMPDEST SWAP2 POP PUSH2 0x3BC3 DUP3 PUSH2 0x3B82 JUMP JUMPDEST PUSH1 0x1 DUP3 ADD SWAP1 POP SWAP2 SWAP1 POP JUMP JUMPDEST PUSH1 0x0 DUP2 SWAP1 POP SWAP2 SWAP1 POP JUMP JUMPDEST PUSH1 0x0 DUP2 SWAP1 POP SWAP2 SWAP1 POP JUMP JUMPDEST PUSH2 0x3BF3 PUSH2 0x3BEE DUP3 PUSH2 0x3BCE JUMP JUMPDEST PUSH2 0x3BD8 JUMP JUMPDEST DUP3 MSTORE POP POP JUMP JUMPDEST PUSH32 0x96E8AC4277198FF8B6F785478AA9A39F403CB768DD02CBEE326C3E7DA348845F PUSH1 0x0 DUP3 ADD MSTORE POP JUMP JUMPDEST PUSH1 0x0 PUSH2 0x3C2F PUSH1 0x20 DUP4 PUSH2 0x3B77 JUMP JUMPDEST SWAP2 POP PUSH2 0x3C3A DUP3 PUSH2 0x3BF9 JUMP JUMPDEST PUSH1 0x20 DUP3 ADD SWAP1 POP SWAP2 SWAP1 POP JUMP JUMPDEST PUSH1 0x0 PUSH2 0x3C50 DUP3 PUSH2 0x3BAB JUMP JUMPDEST SWAP2 POP PUSH2 0x3C5C DUP3 DUP6 PUSH2 0x3B34 JUMP JUMPDEST PUSH1 0x14 DUP3 ADD SWAP2 POP PUSH2 0x3C6C DUP3 DUP5 PUSH2 0x3BE2 JUMP JUMPDEST PUSH1 0x20 DUP3 ADD SWAP2 POP PUSH2 0x3C7B DUP3 PUSH2 0x3C22 JUMP JUMPDEST SWAP2 POP DUP2 SWAP1 POP SWAP4 SWAP3 POP POP POP JUMP JUMPDEST PUSH1 0x0 PUSH1 0x60 DUP3 ADD SWAP1 POP PUSH2 0x3C9C PUSH1 0x0 DUP4 ADD DUP7 PUSH2 0x35AB JUMP JUMPDEST PUSH2 0x3CA9 PUSH1 0x20 DUP4 ADD DUP6 PUSH2 0x35AB JUMP JUMPDEST PUSH2 0x3CB6 PUSH1 0x40 DUP4 ADD DUP5 PUSH2 0x380F JUMP JUMPDEST SWAP5 SWAP4 POP POP POP POP JUMP JUMPDEST PUSH1 0x0 DUP2 MLOAD SWAP1 POP SWAP2 SWAP1 POP JUMP JUMPDEST PUSH1 0x0 DUP2 SWAP1 POP SWAP3 SWAP2 POP POP JUMP JUMPDEST PUSH1 0x0 JUMPDEST DUP4 DUP2 LT ISZERO PUSH2 0x3CF2 JUMPI DUP1 DUP3 ADD MLOAD DUP2 DUP5 ADD MSTORE PUSH1 0x20 DUP2 ADD SWAP1 POP PUSH2 0x3CD7 JUMP JUMPDEST DUP4 DUP2 GT ISZERO PUSH2 0x3D01 JUMPI PUSH1 0x0 DUP5 DUP5 ADD MSTORE JUMPDEST POP POP POP POP JUMP JUMPDEST PUSH1 0x0 PUSH2 0x3D12 DUP3 PUSH2 0x3CBE JUMP JUMPDEST PUSH2 0x3D1C DUP2 DUP6 PUSH2 0x3CC9 JUMP JUMPDEST SWAP4 POP PUSH2 0x3D2C DUP2 DUP6 PUSH1 0x20 DUP7 ADD PUSH2 0x3CD4 JUMP JUMPDEST DUP1 DUP5 ADD SWAP2 POP POP SWAP3 SWAP2 POP POP JUMP JUMPDEST PUSH1 0x0 PUSH2 0x3D44 DUP3 DUP5 PUSH2 0x3D07 JUMP JUMPDEST SWAP2 POP DUP2 SWAP1 POP SWAP3 SWAP2 POP POP JUMP JUMPDEST PUSH32 0x5472616E7366657248656C7065723A3A7472616E7366657246726F6D3A207472 PUSH1 0x0 DUP3 ADD MSTORE PUSH32 0x616E7366657246726F6D206661696C6564000000000000000000000000000000 PUSH1 0x20 DUP3 ADD MSTORE POP JUMP JUMPDEST PUSH1 0x0 PUSH2 0x3DAB PUSH1 0x31 DUP4 PUSH2 0x35D5 JUMP JUMPDEST SWAP2 POP PUSH2 0x3DB6 DUP3 PUSH2 0x3D4F JUMP JUMPDEST PUSH1 0x40 DUP3 ADD SWAP1 POP SWAP2 SWAP1 POP JUMP JUMPDEST PUSH1 0x0 PUSH1 0x20 DUP3 ADD SWAP1 POP DUP2 DUP2 SUB PUSH1 0x0 DUP4 ADD MSTORE PUSH2 0x3DDA DUP2 PUSH2 0x3D9E JUMP JUMPDEST SWAP1 POP SWAP2 SWAP1 POP JUMP JUMPDEST PUSH1 0x0 DUP3 DUP3 MSTORE PUSH1 0x20 DUP3 ADD SWAP1 POP SWAP3 SWAP2 POP POP JUMP JUMPDEST PUSH1 0x0 PUSH1 0x1F NOT PUSH1 0x1F DUP4 ADD AND SWAP1 POP SWAP2 SWAP1 POP JUMP JUMPDEST PUSH1 0x0 PUSH2 0x3E0E DUP3 PUSH2 0x3CBE JUMP JUMPDEST PUSH2 0x3E18 DUP2 DUP6 PUSH2 0x3DE1 JUMP JUMPDEST SWAP4 POP PUSH2 0x3E28 DUP2 DUP6 PUSH1 0x20 DUP7 ADD PUSH2 0x3CD4 JUMP JUMPDEST PUSH2 0x3E31 DUP2 PUSH2 0x3DF2 JUMP JUMPDEST DUP5 ADD SWAP2 POP POP SWAP3 SWAP2 POP POP JUMP JUMPDEST PUSH1 0x0 PUSH1 0x80 DUP3 ADD SWAP1 POP PUSH2 0x3E51 PUSH1 0x0 DUP4 ADD DUP8 PUSH2 0x380F JUMP JUMPDEST PUSH2 0x3E5E PUSH1 0x20 DUP4 ADD DUP7 PUSH2 0x380F JUMP JUMPDEST PUSH2 0x3E6B PUSH1 0x40 DUP4 ADD DUP6 PUSH2 0x35AB JUMP JUMPDEST DUP2 DUP2 SUB PUSH1 0x60 DUP4 ADD MSTORE PUSH2 0x3E7D DUP2 DUP5 PUSH2 0x3E03 JUMP JUMPDEST SWAP1 POP SWAP6 SWAP5 POP POP POP POP POP JUMP JUMPDEST PUSH32 0x5472616E7366657248656C7065723A3A736166655472616E736665724554483A PUSH1 0x0 DUP3 ADD MSTORE PUSH32 0x20455448207472616E73666572206661696C6564000000000000000000000000 PUSH1 0x20 DUP3 ADD MSTORE POP JUMP JUMPDEST PUSH1 0x0 PUSH2 0x3EE4 PUSH1 0x34 DUP4 PUSH2 0x35D5 JUMP JUMPDEST SWAP2 POP PUSH2 0x3EEF DUP3 PUSH2 0x3E88 JUMP JUMPDEST PUSH1 0x40 DUP3 ADD SWAP1 POP SWAP2 SWAP1 POP JUMP JUMPDEST PUSH1 0x0 PUSH1 0x20 DUP3 ADD SWAP1 POP DUP2 DUP2 SUB PUSH1 0x0 DUP4 ADD MSTORE PUSH2 0x3F13 DUP2 PUSH2 0x3ED7 JUMP JUMPDEST SWAP1 POP SWAP2 SWAP1 POP JUMP JUMPDEST PUSH1 0x0 PUSH2 0x3F25 DUP3 PUSH2 0x32B0 JUMP JUMPDEST SWAP2 POP PUSH1 0x0 DUP3 SUB PUSH2 0x3F38 JUMPI PUSH2 0x3F37 PUSH2 0x3652 JUMP JUMPDEST JUMPDEST PUSH1 0x1 DUP3 SUB SWAP1 POP SWAP2 SWAP1 POP JUMP JUMPDEST PUSH1 0x0 PUSH14 0xFFFFFFFFFFFFFFFFFFFFFFFFFFFF DUP3 AND SWAP1 POP SWAP2 SWAP1 POP JUMP JUMPDEST PUSH2 0x3F66 DUP2 PUSH2 0x3F43 JUMP JUMPDEST DUP2 EQ PUSH2 0x3F71 JUMPI PUSH1 0x0 DUP1 REVERT JUMPDEST POP JUMP JUMPDEST PUSH1 0x0 DUP2 MLOAD SWAP1 POP PUSH2 0x3F83 DUP2 PUSH2 0x3F5D JUMP JUMPDEST SWAP3 SWAP2 POP POP JUMP JUMPDEST PUSH1 0x0 PUSH4 0xFFFFFFFF DUP3 AND SWAP1 POP SWAP2 SWAP1 POP JUMP JUMPDEST PUSH2 0x3FA2 DUP2 PUSH2 0x3F89 JUMP JUMPDEST DUP2 EQ PUSH2 0x3FAD JUMPI PUSH1 0x0 DUP1 REVERT JUMPDEST POP JUMP JUMPDEST PUSH1 0x0 DUP2 MLOAD SWAP1 POP PUSH2 0x3FBF DUP2 PUSH2 0x3F99 JUMP JUMPDEST SWAP3 SWAP2 POP POP JUMP JUMPDEST PUSH1 0x0 DUP1 PUSH1 0x0 PUSH1 0x60 DUP5 DUP7 SUB SLT ISZERO PUSH2 0x3FDE JUMPI PUSH2 0x3FDD PUSH2 0x32A6 JUMP JUMPDEST JUMPDEST PUSH1 0x0 PUSH2 0x3FEC DUP7 DUP3 DUP8 ADD PUSH2 0x3F74 JUMP JUMPDEST SWAP4 POP POP PUSH1 0x20 PUSH2 0x3FFD DUP7 DUP3 DUP8 ADD PUSH2 0x3F74 JUMP JUMPDEST SWAP3 POP POP PUSH1 0x40 PUSH2 0x400E DUP7 DUP3 DUP8 ADD PUSH2 0x3FB0 JUMP JUMPDEST SWAP2 POP POP SWAP3 POP SWAP3 POP SWAP3 JUMP JUMPDEST PUSH32 0x556E697377617056324C6962726172793A20494E53554646494349454E545F49 PUSH1 0x0 DUP3 ADD MSTORE PUSH32 0x4E5055545F414D4F554E54000000000000000000000000000000000000000000 PUSH1 0x20 DUP3 ADD MSTORE POP JUMP JUMPDEST PUSH1 0x0 PUSH2 0x4074 PUSH1 0x2B DUP4 PUSH2 0x35D5 JUMP JUMPDEST SWAP2 POP PUSH2 0x407F DUP3 PUSH2 0x4018 JUMP JUMPDEST PUSH1 0x40 DUP3 ADD SWAP1 POP SWAP2 SWAP1 POP JUMP JUMPDEST PUSH1 0x0 PUSH1 0x20 DUP3 ADD SWAP1 POP DUP2 DUP2 SUB PUSH1 0x0 DUP4 ADD MSTORE PUSH2 0x40A3 DUP2 PUSH2 0x4067 JUMP JUMPDEST SWAP1 POP SWAP2 SWAP1 POP JUMP JUMPDEST PUSH32 0x556E697377617056324C6962726172793A20494E53554646494349454E545F4C PUSH1 0x0 DUP3 ADD MSTORE PUSH32 0x4951554944495459000000000000000000000000000000000000000000000000 PUSH1 0x20 DUP3 ADD MSTORE POP JUMP JUMPDEST PUSH1 0x0 PUSH2 0x4106 PUSH1 0x28 DUP4 PUSH2 0x35D5 JUMP JUMPDEST SWAP2 POP PUSH2 0x4111 DUP3 PUSH2 0x40AA JUMP JUMPDEST PUSH1 0x40 DUP3 ADD SWAP1 POP SWAP2 SWAP1 POP JUMP JUMPDEST PUSH1 0x0 PUSH1 0x20 DUP3 ADD SWAP1 POP DUP2 DUP2 SUB PUSH1 0x0 DUP4 ADD MSTORE PUSH2 0x4135 DUP2 PUSH2 0x40F9 JUMP JUMPDEST SWAP1 POP SWAP2 SWAP1 POP JUMP JUMPDEST PUSH1 0x0 PUSH2 0x4147 DUP3 PUSH2 0x32B0 JUMP JUMPDEST SWAP2 POP PUSH2 0x4152 DUP4 PUSH2 0x32B0 JUMP JUMPDEST SWAP3 POP DUP2 PUSH32 0xFFFFFFFFFFFFFFFFFFFFFFFFFFFFFFFFFFFFFFFFFFFFFFFFFFFFFFFFFFFFFFFF DIV DUP4 GT DUP3 ISZERO ISZERO AND ISZERO PUSH2 0x418B JUMPI PUSH2 0x418A PUSH2 0x3652 JUMP JUMPDEST JUMPDEST DUP3 DUP3 MUL SWAP1 POP SWAP3 SWAP2 POP POP JUMP JUMPDEST PUSH32 0x4E487B7100000000000000000000000000000000000000000000000000000000 PUSH1 0x0 MSTORE PUSH1 0x12 PUSH1 0x4 MSTORE PUSH1 0x24 PUSH1 0x0 REVERT JUMPDEST PUSH1 0x0 PUSH2 0x41D0 DUP3 PUSH2 0x32B0 JUMP JUMPDEST SWAP2 POP PUSH2 0x41DB DUP4 PUSH2 0x32B0 JUMP JUMPDEST SWAP3 POP DUP3 PUSH2 0x41EB JUMPI PUSH2 0x41EA PUSH2 0x4196 JUMP JUMPDEST JUMPDEST DUP3 DUP3 DIV SWAP1 POP SWAP3 SWAP2 POP POP JUMP JUMPDEST PUSH32 0x556E697377617056324C6962726172793A204944454E544943414C5F41444452 PUSH1 0x0 DUP3 ADD MSTORE PUSH32 0x4553534553000000000000000000000000000000000000000000000000000000 PUSH1 0x20 DUP3 ADD MSTORE POP JUMP JUMPDEST PUSH1 0x0 PUSH2 0x4252 PUSH1 0x25 DUP4 PUSH2 0x35D5 JUMP JUMPDEST SWAP2 POP PUSH2 0x425D DUP3 PUSH2 0x41F6 JUMP JUMPDEST PUSH1 0x40 DUP3 ADD SWAP1 POP SWAP2 SWAP1 POP JUMP JUMPDEST PUSH1 0x0 PUSH1 0x20 DUP3 ADD SWAP1 POP DUP2 DUP2 SUB PUSH1 0x0 DUP4 ADD MSTORE PUSH2 0x4281 DUP2 PUSH2 0x4245 JUMP JUMPDEST SWAP1 POP SWAP2 SWAP1 POP JUMP JUMPDEST PUSH32 0x556E697377617056324C6962726172793A205A45524F5F414444524553530000 PUSH1 0x0 DUP3 ADD MSTORE POP JUMP JUMPDEST PUSH1 0x0 PUSH2 0x42BE PUSH1 0x1E DUP4 PUSH2 0x35D5 JUMP JUMPDEST SWAP2 POP PUSH2 0x42C9 DUP3 PUSH2 0x4288 JUMP JUMPDEST PUSH1 0x20 DUP3 ADD SWAP1 POP SWAP2 SWAP1 POP JUMP JUMPDEST PUSH1 0x0 PUSH1 0x20 DUP3 ADD SWAP1 POP DUP2 DUP2 SUB PUSH1 0x0 DUP4 ADD MSTORE PUSH2 0x42ED DUP2 PUSH2 0x42B1 JUMP JUMPDEST SWAP1 POP SWAP2 SWAP1 POP JUMP JUMPDEST PUSH32 0x556E697377617056324C6962726172793A20494E53554646494349454E545F4F PUSH1 0x0 DUP3 ADD MSTORE PUSH32 0x55545055545F414D4F554E540000000000000000000000000000000000000000 PUSH1 0x20 DUP3 ADD MSTORE POP JUMP JUMPDEST PUSH1 0x0 PUSH2 0x4350 PUSH1 0x2C DUP4 PUSH2 0x35D5 JUMP JUMPDEST SWAP2 POP PUSH2 0x435B DUP3 PUSH2 0x42F4 JUMP JUMPDEST PUSH1 0x40 DUP3 ADD SWAP1 POP SWAP2 SWAP1 POP JUMP JUMPDEST PUSH1 0x0 PUSH1 0x20 DUP3 ADD SWAP1 POP DUP2 DUP2 SUB PUSH1 0x0 DUP4 ADD MSTORE PUSH2 0x437F DUP2 PUSH2 0x4343 JUMP JUMPDEST SWAP1 POP SWAP2 SWAP1 POP JUMP INVALID LOG2 PUSH5 0x6970667358 0x22 SLT KECCAK256 CALLER GT CALLDATASIZE DUP6 0x5F 0x5C SWAP10 SWAP8 SELFBALANCE SLT 0xD1 NUMBER 0xE9 DELEGATECALL CALLER DUP12 CALLDATALOAD 0xFC 0xB4 PUSH15 0x92377D92F6C37EFCBF9BA0F364736F PUSH13 0x634300080F0033000000000000 "
				},
				"gasEstimates": {
					"creation": {
						"codeDepositCost": "3468000",
						"executionCost": "infinite",
						"totalCost": "infinite"
					},
					"external": {
						"WETH()": "2558",
						"factory()": "2599",
						"swapETHForExactTokens(uint256,address[],address,uint256)": "infinite",
						"swapExactETHForTokens(uint256,address[],address,uint256)": "infinite",
						"swapExactETHForTokensSupportingFeeOnTransferTokens(uint256,address[],address,uint256)": "infinite",
						"swapExactTokensForETH(uint256,uint256,address[],address,uint256)": "infinite",
						"swapExactTokensForETHSupportingFeeOnTransferTokens(uint256,uint256,address[],address,uint256)": "infinite",
						"swapExactTokensForTokens(uint256,uint256,address[],address,uint256)": "infinite",
						"swapExactTokensForTokensSupportingFeeOnTransferTokens(uint256,uint256,address[],address,uint256)": "infinite",
						"swapTokensForExactETH(uint256,uint256,address[],address,uint256)": "infinite",
						"swapTokensForExactTokens(uint256,uint256,address[],address,uint256)": "infinite"
					},
					"internal": {
						"_swap(uint256[] memory,address[] memory,address)": "infinite",
						"_swapSupportingFeeOnTransferTokens(address[] memory,address)": "infinite"
					}
				},
				"methodIdentifiers": {
					"WETH()": "ad5c4648",
					"factory()": "c45a0155",
					"swapETHForExactTokens(uint256,address[],address,uint256)": "fb3bdb41",
					"swapExactETHForTokens(uint256,address[],address,uint256)": "7ff36ab5",
					"swapExactETHForTokensSupportingFeeOnTransferTokens(uint256,address[],address,uint256)": "b6f9de95",
					"swapExactTokensForETH(uint256,uint256,address[],address,uint256)": "18cbafe5",
					"swapExactTokensForETHSupportingFeeOnTransferTokens(uint256,uint256,address[],address,uint256)": "791ac947",
					"swapExactTokensForTokens(uint256,uint256,address[],address,uint256)": "38ed1739",
					"swapExactTokensForTokensSupportingFeeOnTransferTokens(uint256,uint256,address[],address,uint256)": "5c11d795",
					"swapTokensForExactETH(uint256,uint256,address[],address,uint256)": "4a25d94a",
					"swapTokensForExactTokens(uint256,uint256,address[],address,uint256)": "8803dbee"
				}
			},
			"storageLayout": {
				"storage": [
					{
						"astId": 9,
						"contract": "v2_periphery/UniswapV2Router02Part.sol:UniswapV2Router02Part",
						"label": "factory",
						"offset": 0,
						"slot": "0",
						"type": "t_address"
					},
					{
						"astId": 11,
						"contract": "v2_periphery/UniswapV2Router02Part.sol:UniswapV2Router02Part",
						"label": "WETH",
						"offset": 0,
						"slot": "1",
						"type": "t_address"
					}
				],
				"types": {
					"t_address": {
						"encoding": "inplace",
						"label": "address",
						"numberOfBytes": "20"
					}
				}
			},
			"userdoc": {
				"kind": "user",
				"methods": {},
				"version": 1
			}
		}
	}
}