{
	"v2_periphery/UniswapV2Router02Part.sol": {
		"UniswapV2Router02Part": {
			"abi": [
				{
					"inputs": [],
					"name": "WETH",
					"outputs": [
						{
							"internalType": "address",
							"name": "",
							"type": "address"
						}
					],
					"stateMutability": "view",
					"type": "function"
				},
				{
					"inputs": [],
					"name": "factory",
					"outputs": [
						{
							"internalType": "address",
							"name": "",
							"type": "address"
						}
					],
					"stateMutability": "view",
					"type": "function"
				},
				{
					"inputs": [
						{
							"internalType": "address",
							"name": "a",
							"type": "address"
						}
					],
					"name": "setfactory",
					"outputs": [],
					"stateMutability": "nonpayable",
					"type": "function"
				},
				{
					"inputs": [
						{
							"internalType": "uint256",
							"name": "amountOutMin",
							"type": "uint256"
						},
						{
							"internalType": "address[]",
							"name": "path",
							"type": "address[]"
						},
						{
							"internalType": "address",
							"name": "to",
							"type": "address"
						},
						{
							"internalType": "uint256",
							"name": "deadline",
							"type": "uint256"
						}
					],
					"name": "swapExactETHForTokensSupportingFeeOnTransferTokens",
					"outputs": [],
					"stateMutability": "payable",
					"type": "function"
				},
				{
					"inputs": [
						{
							"internalType": "uint256",
							"name": "amountIn",
							"type": "uint256"
						},
						{
							"internalType": "uint256",
							"name": "amountOutMin",
							"type": "uint256"
						},
						{
							"internalType": "address[]",
							"name": "path",
							"type": "address[]"
						},
						{
							"internalType": "address",
							"name": "to",
							"type": "address"
						},
						{
							"internalType": "uint256",
							"name": "deadline",
							"type": "uint256"
						}
					],
					"name": "swapExactTokensForETHSupportingFeeOnTransferTokens",
					"outputs": [],
					"stateMutability": "nonpayable",
					"type": "function"
				},
				{
					"inputs": [
						{
							"internalType": "uint256",
							"name": "amountIn",
							"type": "uint256"
						},
						{
							"internalType": "uint256",
							"name": "amountOutMin",
							"type": "uint256"
						},
						{
							"internalType": "address[]",
							"name": "path",
							"type": "address[]"
						},
						{
							"internalType": "address",
							"name": "to",
							"type": "address"
						},
						{
							"internalType": "uint256",
							"name": "deadline",
							"type": "uint256"
						}
					],
					"name": "swapExactTokensForTokensSupportingFeeOnTransferTokens",
					"outputs": [],
					"stateMutability": "nonpayable",
					"type": "function"
				}
			],
			"devdoc": {
				"kind": "dev",
				"methods": {},
				"version": 1
			},
			"evm": {
				"assembly": "    /* \"v2_periphery/UniswapV2Router02Part.sol\":423:4419  contract UniswapV2Router02Part  {... */\n  mstore(0x40, 0x80)\n  callvalue\n  dup1\n  iszero\n  tag_1\n  jumpi\n  0x00\n  dup1\n  revert\ntag_1:\n  pop\n  dataSize(sub_0)\n  dup1\n  dataOffset(sub_0)\n  0x00\n  codecopy\n  0x00\n  return\nstop\n\nsub_0: assembly {\n        /* \"v2_periphery/UniswapV2Router02Part.sol\":423:4419  contract UniswapV2Router02Part  {... */\n      mstore(0x40, 0x80)\n      jumpi(tag_1, lt(calldatasize, 0x04))\n      shr(0xe0, calldataload(0x00))\n      dup1\n      0x5c11d795\n      eq\n      tag_2\n      jumpi\n      dup1\n      0x791ac947\n      eq\n      tag_3\n      jumpi\n      dup1\n      0xad15cd0d\n      eq\n      tag_4\n      jumpi\n      dup1\n      0xad5c4648\n      eq\n      tag_5\n      jumpi\n      dup1\n      0xb6f9de95\n      eq\n      tag_6\n      jumpi\n      dup1\n      0xc45a0155\n      eq\n      tag_7\n      jumpi\n    tag_1:\n      0x00\n      dup1\n      revert\n        /* \"v2_periphery/UniswapV2Router02Part.sol\":2025:2728  function swapExactTokensForTokensSupportingFeeOnTransferTokens(... */\n    tag_2:\n      callvalue\n      dup1\n      iszero\n      tag_8\n      jumpi\n      0x00\n      dup1\n      revert\n    tag_8:\n      pop\n      tag_9\n      0x04\n      dup1\n      calldatasize\n      sub\n      dup2\n      add\n      swap1\n      tag_10\n      swap2\n      swap1\n      tag_11\n      jump\t// in\n    tag_10:\n      tag_12\n      jump\t// in\n    tag_9:\n      stop\n        /* \"v2_periphery/UniswapV2Router02Part.sol\":3579:4414  function swapExactTokensForETHSupportingFeeOnTransferTokens(... */\n    tag_3:\n      callvalue\n      dup1\n      iszero\n      tag_13\n      jumpi\n      0x00\n      dup1\n      revert\n    tag_13:\n      pop\n      tag_14\n      0x04\n      dup1\n      calldatasize\n      sub\n      dup2\n      add\n      swap1\n      tag_15\n      swap2\n      swap1\n      tag_11\n      jump\t// in\n    tag_15:\n      tag_16\n      jump\t// in\n    tag_14:\n      stop\n        /* \"v2_periphery/UniswapV2Router02Part.sol\":519:589  function setfactory(address a) external {... */\n    tag_4:\n      callvalue\n      dup1\n      iszero\n      tag_17\n      jumpi\n      0x00\n      dup1\n      revert\n    tag_17:\n      pop\n      tag_18\n      0x04\n      dup1\n      calldatasize\n      sub\n      dup2\n      add\n      swap1\n      tag_19\n      swap2\n      swap1\n      tag_20\n      jump\t// in\n    tag_19:\n      tag_21\n      jump\t// in\n    tag_18:\n      stop\n        /* \"v2_periphery/UniswapV2Router02Part.sol\":492:512  address public  WETH */\n    tag_5:\n      callvalue\n      dup1\n      iszero\n      tag_22\n      jumpi\n      0x00\n      dup1\n      revert\n    tag_22:\n      pop\n      tag_23\n      tag_24\n      jump\t// in\n    tag_23:\n      mload(0x40)\n      tag_25\n      swap2\n      swap1\n      tag_26\n      jump\t// in\n    tag_25:\n      mload(0x40)\n      dup1\n      swap2\n      sub\n      swap1\n      return\n        /* \"v2_periphery/UniswapV2Router02Part.sol\":2734:3573  function swapExactETHForTokensSupportingFeeOnTransferTokens(... */\n    tag_6:\n      tag_27\n      0x04\n      dup1\n      calldatasize\n      sub\n      dup2\n      add\n      swap1\n      tag_28\n      swap2\n      swap1\n      tag_29\n      jump\t// in\n    tag_28:\n      tag_30\n      jump\t// in\n    tag_27:\n      stop\n        /* \"v2_periphery/UniswapV2Router02Part.sol\":462:485  address public  factory */\n    tag_7:\n      callvalue\n      dup1\n      iszero\n      tag_31\n      jumpi\n      0x00\n      dup1\n      revert\n    tag_31:\n      pop\n      tag_32\n      tag_33\n      jump\t// in\n    tag_32:\n      mload(0x40)\n      tag_34\n      swap2\n      swap1\n      tag_26\n      jump\t// in\n    tag_34:\n      mload(0x40)\n      dup1\n      swap2\n      sub\n      swap1\n      return\n        /* \"v2_periphery/UniswapV2Router02Part.sol\":2025:2728  function swapExactTokensForTokensSupportingFeeOnTransferTokens(... */\n    tag_12:\n        /* \"v2_periphery/UniswapV2Router02Part.sol\":2251:2259  deadline */\n      dup1\n        /* \"v2_periphery/UniswapV2Router02Part.sol\":657:672  block.timestamp */\n      timestamp\n        /* \"v2_periphery/UniswapV2Router02Part.sol\":645:653  deadline */\n      dup2\n        /* \"v2_periphery/UniswapV2Router02Part.sol\":645:672  deadline >= block.timestamp */\n      lt\n      iszero\n        /* \"v2_periphery/UniswapV2Router02Part.sol\":637:701  require(deadline >= block.timestamp, 'UniswapV2Router: EXPIRED') */\n      tag_36\n      jumpi\n      mload(0x40)\n      0x08c379a000000000000000000000000000000000000000000000000000000000\n      dup2\n      mstore\n      0x04\n      add\n      tag_37\n      swap1\n      tag_38\n      jump\t// in\n    tag_37:\n      mload(0x40)\n      dup1\n      swap2\n      sub\n      swap1\n      revert\n    tag_36:\n        /* \"v2_periphery/UniswapV2Router02Part.sol\":2272:2411  TransferHelper.safeTransferFrom(... */\n      tag_40\n        /* \"v2_periphery/UniswapV2Router02Part.sol\":2318:2322  path */\n      dup6\n      dup6\n        /* \"v2_periphery/UniswapV2Router02Part.sol\":2323:2324  0 */\n      0x00\n        /* \"v2_periphery/UniswapV2Router02Part.sol\":2318:2325  path[0] */\n      dup2\n      dup2\n      lt\n      tag_41\n      jumpi\n      tag_42\n      tag_43\n      jump\t// in\n    tag_42:\n    tag_41:\n      swap1\n      pop\n      0x20\n      mul\n      add\n      0x20\n      dup2\n      add\n      swap1\n      tag_44\n      swap2\n      swap1\n      tag_20\n      jump\t// in\n    tag_44:\n        /* \"v2_periphery/UniswapV2Router02Part.sol\":2327:2337  msg.sender */\n      caller\n        /* \"v2_periphery/UniswapV2Router02Part.sol\":2339:2390  UniswapV2Library.pairFor(factory, path[0], path[1]) */\n      tag_45\n        /* \"v2_periphery/UniswapV2Router02Part.sol\":2364:2371  factory */\n      0x00\n      dup1\n      sload\n      swap1\n      0x0100\n      exp\n      swap1\n      div\n      0xffffffffffffffffffffffffffffffffffffffff\n      and\n        /* \"v2_periphery/UniswapV2Router02Part.sol\":2373:2377  path */\n      dup10\n      dup10\n        /* \"v2_periphery/UniswapV2Router02Part.sol\":2378:2379  0 */\n      0x00\n        /* \"v2_periphery/UniswapV2Router02Part.sol\":2373:2380  path[0] */\n      dup2\n      dup2\n      lt\n      tag_46\n      jumpi\n      tag_47\n      tag_43\n      jump\t// in\n    tag_47:\n    tag_46:\n      swap1\n      pop\n      0x20\n      mul\n      add\n      0x20\n      dup2\n      add\n      swap1\n      tag_48\n      swap2\n      swap1\n      tag_20\n      jump\t// in\n    tag_48:\n        /* \"v2_periphery/UniswapV2Router02Part.sol\":2382:2386  path */\n      dup11\n      dup11\n        /* \"v2_periphery/UniswapV2Router02Part.sol\":2387:2388  1 */\n      0x01\n        /* \"v2_periphery/UniswapV2Router02Part.sol\":2382:2389  path[1] */\n      dup2\n      dup2\n      lt\n      tag_49\n      jumpi\n      tag_50\n      tag_43\n      jump\t// in\n    tag_50:\n    tag_49:\n      swap1\n      pop\n      0x20\n      mul\n      add\n      0x20\n      dup2\n      add\n      swap1\n      tag_51\n      swap2\n      swap1\n      tag_20\n      jump\t// in\n    tag_51:\n        /* \"v2_periphery/UniswapV2Router02Part.sol\":2339:2363  UniswapV2Library.pairFor */\n      tag_52\n        /* \"v2_periphery/UniswapV2Router02Part.sol\":2339:2390  UniswapV2Library.pairFor(factory, path[0], path[1]) */\n      jump\t// in\n    tag_45:\n        /* \"v2_periphery/UniswapV2Router02Part.sol\":2392:2400  amountIn */\n      dup11\n        /* \"v2_periphery/UniswapV2Router02Part.sol\":2272:2303  TransferHelper.safeTransferFrom */\n      tag_53\n        /* \"v2_periphery/UniswapV2Router02Part.sol\":2272:2411  TransferHelper.safeTransferFrom(... */\n      jump\t// in\n    tag_40:\n        /* \"v2_periphery/UniswapV2Router02Part.sol\":2422:2440  uint balanceBefore */\n      0x00\n        /* \"v2_periphery/UniswapV2Router02Part.sol\":2450:2454  path */\n      dup6\n      dup6\n        /* \"v2_periphery/UniswapV2Router02Part.sol\":2469:2470  1 */\n      0x01\n        /* \"v2_periphery/UniswapV2Router02Part.sol\":2455:2459  path */\n      dup9\n      dup9\n        /* \"v2_periphery/UniswapV2Router02Part.sol\":2455:2466  path.length */\n      swap1\n      pop\n        /* \"v2_periphery/UniswapV2Router02Part.sol\":2455:2470  path.length - 1 */\n      tag_54\n      swap2\n      swap1\n      tag_55\n      jump\t// in\n    tag_54:\n        /* \"v2_periphery/UniswapV2Router02Part.sol\":2450:2471  path[path.length - 1] */\n      dup2\n      dup2\n      lt\n      tag_56\n      jumpi\n      tag_57\n      tag_43\n      jump\t// in\n    tag_57:\n    tag_56:\n      swap1\n      pop\n      0x20\n      mul\n      add\n      0x20\n      dup2\n      add\n      swap1\n      tag_58\n      swap2\n      swap1\n      tag_20\n      jump\t// in\n    tag_58:\n        /* \"v2_periphery/UniswapV2Router02Part.sol\":2443:2482  IERC20(path[path.length - 1]).balanceOf */\n      0xffffffffffffffffffffffffffffffffffffffff\n      and\n      0x70a08231\n        /* \"v2_periphery/UniswapV2Router02Part.sol\":2483:2485  to */\n      dup6\n        /* \"v2_periphery/UniswapV2Router02Part.sol\":2443:2486  IERC20(path[path.length - 1]).balanceOf(to) */\n      mload(0x40)\n      dup3\n      0xffffffff\n      and\n      0xe0\n      shl\n      dup2\n      mstore\n      0x04\n      add\n      tag_59\n      swap2\n      swap1\n      tag_26\n      jump\t// in\n    tag_59:\n      0x20\n      mload(0x40)\n      dup1\n      dup4\n      sub\n      dup2\n      dup7\n      gas\n      staticcall\n      iszero\n      dup1\n      iszero\n      tag_61\n      jumpi\n      returndatasize\n      0x00\n      dup1\n      returndatacopy\n      revert(0x00, returndatasize)\n    tag_61:\n      pop\n      pop\n      pop\n      pop\n      mload(0x40)\n      returndatasize\n      not(0x1f)\n      0x1f\n      dup3\n      add\n      and\n      dup3\n      add\n      dup1\n      0x40\n      mstore\n      pop\n      dup2\n      add\n      swap1\n      tag_62\n      swap2\n      swap1\n      tag_63\n      jump\t// in\n    tag_62:\n        /* \"v2_periphery/UniswapV2Router02Part.sol\":2422:2486  uint balanceBefore = IERC20(path[path.length - 1]).balanceOf(to) */\n      swap1\n      pop\n        /* \"v2_periphery/UniswapV2Router02Part.sol\":2497:2541  _swapSupportingFeeOnTransferTokens(path, to) */\n      tag_64\n        /* \"v2_periphery/UniswapV2Router02Part.sol\":2532:2536  path */\n      dup7\n      dup7\n        /* \"v2_periphery/UniswapV2Router02Part.sol\":2497:2541  _swapSupportingFeeOnTransferTokens(path, to) */\n      dup1\n      dup1\n      0x20\n      mul\n      0x20\n      add\n      mload(0x40)\n      swap1\n      dup2\n      add\n      0x40\n      mstore\n      dup1\n      swap4\n      swap3\n      swap2\n      swap1\n      dup2\n      dup2\n      mstore\n      0x20\n      add\n      dup4\n      dup4\n      0x20\n      mul\n      dup1\n      dup3\n      dup5\n      calldatacopy\n      0x00\n      dup2\n      dup5\n      add\n      mstore\n      not(0x1f)\n      0x1f\n      dup3\n      add\n      and\n      swap1\n      pop\n      dup1\n      dup4\n      add\n      swap3\n      pop\n      pop\n      pop\n      pop\n      pop\n      pop\n      pop\n        /* \"v2_periphery/UniswapV2Router02Part.sol\":2538:2540  to */\n      dup6\n        /* \"v2_periphery/UniswapV2Router02Part.sol\":2497:2531  _swapSupportingFeeOnTransferTokens */\n      tag_65\n        /* \"v2_periphery/UniswapV2Router02Part.sol\":2497:2541  _swapSupportingFeeOnTransferTokens(path, to) */\n      jump\t// in\n    tag_64:\n        /* \"v2_periphery/UniswapV2Router02Part.sol\":2637:2649  amountOutMin */\n      dup7\n        /* \"v2_periphery/UniswapV2Router02Part.sol\":2620:2633  balanceBefore */\n      dup2\n        /* \"v2_periphery/UniswapV2Router02Part.sol\":2581:2585  path */\n      dup8\n      dup8\n        /* \"v2_periphery/UniswapV2Router02Part.sol\":2600:2601  1 */\n      0x01\n        /* \"v2_periphery/UniswapV2Router02Part.sol\":2586:2590  path */\n      dup11\n      dup11\n        /* \"v2_periphery/UniswapV2Router02Part.sol\":2586:2597  path.length */\n      swap1\n      pop\n        /* \"v2_periphery/UniswapV2Router02Part.sol\":2586:2601  path.length - 1 */\n      tag_66\n      swap2\n      swap1\n      tag_55\n      jump\t// in\n    tag_66:\n        /* \"v2_periphery/UniswapV2Router02Part.sol\":2581:2602  path[path.length - 1] */\n      dup2\n      dup2\n      lt\n      tag_67\n      jumpi\n      tag_68\n      tag_43\n      jump\t// in\n    tag_68:\n    tag_67:\n      swap1\n      pop\n      0x20\n      mul\n      add\n      0x20\n      dup2\n      add\n      swap1\n      tag_69\n      swap2\n      swap1\n      tag_20\n      jump\t// in\n    tag_69:\n        /* \"v2_periphery/UniswapV2Router02Part.sol\":2574:2613  IERC20(path[path.length - 1]).balanceOf */\n      0xffffffffffffffffffffffffffffffffffffffff\n      and\n      0x70a08231\n        /* \"v2_periphery/UniswapV2Router02Part.sol\":2614:2616  to */\n      dup8\n        /* \"v2_periphery/UniswapV2Router02Part.sol\":2574:2617  IERC20(path[path.length - 1]).balanceOf(to) */\n      mload(0x40)\n      dup3\n      0xffffffff\n      and\n      0xe0\n      shl\n      dup2\n      mstore\n      0x04\n      add\n      tag_70\n      swap2\n      swap1\n      tag_26\n      jump\t// in\n    tag_70:\n      0x20\n      mload(0x40)\n      dup1\n      dup4\n      sub\n      dup2\n      dup7\n      gas\n      staticcall\n      iszero\n      dup1\n      iszero\n      tag_72\n      jumpi\n      returndatasize\n      0x00\n      dup1\n      returndatacopy\n      revert(0x00, returndatasize)\n    tag_72:\n      pop\n      pop\n      pop\n      pop\n      mload(0x40)\n      returndatasize\n      not(0x1f)\n      0x1f\n      dup3\n      add\n      and\n      dup3\n      add\n      dup1\n      0x40\n      mstore\n      pop\n      dup2\n      add\n      swap1\n      tag_73\n      swap2\n      swap1\n      tag_63\n      jump\t// in\n    tag_73:\n        /* \"v2_periphery/UniswapV2Router02Part.sol\":2574:2633  IERC20(path[path.length - 1]).balanceOf(to) - balanceBefore */\n      tag_74\n      swap2\n      swap1\n      tag_55\n      jump\t// in\n    tag_74:\n        /* \"v2_periphery/UniswapV2Router02Part.sol\":2574:2649  IERC20(path[path.length - 1]).balanceOf(to) - balanceBefore >= amountOutMin */\n      lt\n      iszero\n        /* \"v2_periphery/UniswapV2Router02Part.sol\":2552:2720  require(... */\n      tag_75\n      jumpi\n      mload(0x40)\n      0x08c379a000000000000000000000000000000000000000000000000000000000\n      dup2\n      mstore\n      0x04\n      add\n      tag_76\n      swap1\n      tag_77\n      jump\t// in\n    tag_76:\n      mload(0x40)\n      dup1\n      swap2\n      sub\n      swap1\n      revert\n    tag_75:\n        /* \"v2_periphery/UniswapV2Router02Part.sol\":2261:2728  {... */\n      pop\n        /* \"v2_periphery/UniswapV2Router02Part.sol\":2025:2728  function swapExactTokensForTokensSupportingFeeOnTransferTokens(... */\n      pop\n      pop\n      pop\n      pop\n      pop\n      pop\n      pop\n      jump\t// out\n        /* \"v2_periphery/UniswapV2Router02Part.sol\":3579:4414  function swapExactTokensForETHSupportingFeeOnTransferTokens(... */\n    tag_16:\n        /* \"v2_periphery/UniswapV2Router02Part.sol\":3838:3846  deadline */\n      dup1\n        /* \"v2_periphery/UniswapV2Router02Part.sol\":657:672  block.timestamp */\n      timestamp\n        /* \"v2_periphery/UniswapV2Router02Part.sol\":645:653  deadline */\n      dup2\n        /* \"v2_periphery/UniswapV2Router02Part.sol\":645:672  deadline >= block.timestamp */\n      lt\n      iszero\n        /* \"v2_periphery/UniswapV2Router02Part.sol\":637:701  require(deadline >= block.timestamp, 'UniswapV2Router: EXPIRED') */\n      tag_79\n      jumpi\n      mload(0x40)\n      0x08c379a000000000000000000000000000000000000000000000000000000000\n      dup2\n      mstore\n      0x04\n      add\n      tag_80\n      swap1\n      tag_38\n      jump\t// in\n    tag_80:\n      mload(0x40)\n      dup1\n      swap2\n      sub\n      swap1\n      revert\n    tag_79:\n        /* \"v2_periphery/UniswapV2Router02Part.sol\":3897:3901  WETH */\n      0x01\n      0x00\n      swap1\n      sload\n      swap1\n      0x0100\n      exp\n      swap1\n      div\n      0xffffffffffffffffffffffffffffffffffffffff\n      and\n        /* \"v2_periphery/UniswapV2Router02Part.sol\":3872:3901  path[path.length - 1] == WETH */\n      0xffffffffffffffffffffffffffffffffffffffff\n      and\n        /* \"v2_periphery/UniswapV2Router02Part.sol\":3872:3876  path */\n      dup6\n      dup6\n        /* \"v2_periphery/UniswapV2Router02Part.sol\":3891:3892  1 */\n      0x01\n        /* \"v2_periphery/UniswapV2Router02Part.sol\":3877:3881  path */\n      dup9\n      dup9\n        /* \"v2_periphery/UniswapV2Router02Part.sol\":3877:3888  path.length */\n      swap1\n      pop\n        /* \"v2_periphery/UniswapV2Router02Part.sol\":3877:3892  path.length - 1 */\n      tag_82\n      swap2\n      swap1\n      tag_55\n      jump\t// in\n    tag_82:\n        /* \"v2_periphery/UniswapV2Router02Part.sol\":3872:3893  path[path.length - 1] */\n      dup2\n      dup2\n      lt\n      tag_83\n      jumpi\n      tag_84\n      tag_43\n      jump\t// in\n    tag_84:\n    tag_83:\n      swap1\n      pop\n      0x20\n      mul\n      add\n      0x20\n      dup2\n      add\n      swap1\n      tag_85\n      swap2\n      swap1\n      tag_20\n      jump\t// in\n    tag_85:\n        /* \"v2_periphery/UniswapV2Router02Part.sol\":3872:3901  path[path.length - 1] == WETH */\n      0xffffffffffffffffffffffffffffffffffffffff\n      and\n      eq\n        /* \"v2_periphery/UniswapV2Router02Part.sol\":3864:3935  require(path[path.length - 1] == WETH, 'UniswapV2Router: INVALID_PATH') */\n      tag_86\n      jumpi\n      mload(0x40)\n      0x08c379a000000000000000000000000000000000000000000000000000000000\n      dup2\n      mstore\n      0x04\n      add\n      tag_87\n      swap1\n      tag_88\n      jump\t// in\n    tag_87:\n      mload(0x40)\n      dup1\n      swap2\n      sub\n      swap1\n      revert\n    tag_86:\n        /* \"v2_periphery/UniswapV2Router02Part.sol\":3946:4085  TransferHelper.safeTransferFrom(... */\n      tag_89\n        /* \"v2_periphery/UniswapV2Router02Part.sol\":3992:3996  path */\n      dup6\n      dup6\n        /* \"v2_periphery/UniswapV2Router02Part.sol\":3997:3998  0 */\n      0x00\n        /* \"v2_periphery/UniswapV2Router02Part.sol\":3992:3999  path[0] */\n      dup2\n      dup2\n      lt\n      tag_90\n      jumpi\n      tag_91\n      tag_43\n      jump\t// in\n    tag_91:\n    tag_90:\n      swap1\n      pop\n      0x20\n      mul\n      add\n      0x20\n      dup2\n      add\n      swap1\n      tag_92\n      swap2\n      swap1\n      tag_20\n      jump\t// in\n    tag_92:\n        /* \"v2_periphery/UniswapV2Router02Part.sol\":4001:4011  msg.sender */\n      caller\n        /* \"v2_periphery/UniswapV2Router02Part.sol\":4013:4064  UniswapV2Library.pairFor(factory, path[0], path[1]) */\n      tag_93\n        /* \"v2_periphery/UniswapV2Router02Part.sol\":4038:4045  factory */\n      0x00\n      dup1\n      sload\n      swap1\n      0x0100\n      exp\n      swap1\n      div\n      0xffffffffffffffffffffffffffffffffffffffff\n      and\n        /* \"v2_periphery/UniswapV2Router02Part.sol\":4047:4051  path */\n      dup10\n      dup10\n        /* \"v2_periphery/UniswapV2Router02Part.sol\":4052:4053  0 */\n      0x00\n        /* \"v2_periphery/UniswapV2Router02Part.sol\":4047:4054  path[0] */\n      dup2\n      dup2\n      lt\n      tag_94\n      jumpi\n      tag_95\n      tag_43\n      jump\t// in\n    tag_95:\n    tag_94:\n      swap1\n      pop\n      0x20\n      mul\n      add\n      0x20\n      dup2\n      add\n      swap1\n      tag_96\n      swap2\n      swap1\n      tag_20\n      jump\t// in\n    tag_96:\n        /* \"v2_periphery/UniswapV2Router02Part.sol\":4056:4060  path */\n      dup11\n      dup11\n        /* \"v2_periphery/UniswapV2Router02Part.sol\":4061:4062  1 */\n      0x01\n        /* \"v2_periphery/UniswapV2Router02Part.sol\":4056:4063  path[1] */\n      dup2\n      dup2\n      lt\n      tag_97\n      jumpi\n      tag_98\n      tag_43\n      jump\t// in\n    tag_98:\n    tag_97:\n      swap1\n      pop\n      0x20\n      mul\n      add\n      0x20\n      dup2\n      add\n      swap1\n      tag_99\n      swap2\n      swap1\n      tag_20\n      jump\t// in\n    tag_99:\n        /* \"v2_periphery/UniswapV2Router02Part.sol\":4013:4037  UniswapV2Library.pairFor */\n      tag_52\n        /* \"v2_periphery/UniswapV2Router02Part.sol\":4013:4064  UniswapV2Library.pairFor(factory, path[0], path[1]) */\n      jump\t// in\n    tag_93:\n        /* \"v2_periphery/UniswapV2Router02Part.sol\":4066:4074  amountIn */\n      dup11\n        /* \"v2_periphery/UniswapV2Router02Part.sol\":3946:3977  TransferHelper.safeTransferFrom */\n      tag_53\n        /* \"v2_periphery/UniswapV2Router02Part.sol\":3946:4085  TransferHelper.safeTransferFrom(... */\n      jump\t// in\n    tag_89:\n        /* \"v2_periphery/UniswapV2Router02Part.sol\":4096:4151  _swapSupportingFeeOnTransferTokens(path, address(this)) */\n      tag_100\n        /* \"v2_periphery/UniswapV2Router02Part.sol\":4131:4135  path */\n      dup6\n      dup6\n        /* \"v2_periphery/UniswapV2Router02Part.sol\":4096:4151  _swapSupportingFeeOnTransferTokens(path, address(this)) */\n      dup1\n      dup1\n      0x20\n      mul\n      0x20\n      add\n      mload(0x40)\n      swap1\n      dup2\n      add\n      0x40\n      mstore\n      dup1\n      swap4\n      swap3\n      swap2\n      swap1\n      dup2\n      dup2\n      mstore\n      0x20\n      add\n      dup4\n      dup4\n      0x20\n      mul\n      dup1\n      dup3\n      dup5\n      calldatacopy\n      0x00\n      dup2\n      dup5\n      add\n      mstore\n      not(0x1f)\n      0x1f\n      dup3\n      add\n      and\n      swap1\n      pop\n      dup1\n      dup4\n      add\n      swap3\n      pop\n      pop\n      pop\n      pop\n      pop\n      pop\n      pop\n        /* \"v2_periphery/UniswapV2Router02Part.sol\":4145:4149  this */\n      address\n        /* \"v2_periphery/UniswapV2Router02Part.sol\":4096:4130  _swapSupportingFeeOnTransferTokens */\n      tag_65\n        /* \"v2_periphery/UniswapV2Router02Part.sol\":4096:4151  _swapSupportingFeeOnTransferTokens(path, address(this)) */\n      jump\t// in\n    tag_100:\n        /* \"v2_periphery/UniswapV2Router02Part.sol\":4162:4176  uint amountOut */\n      0x00\n        /* \"v2_periphery/UniswapV2Router02Part.sol\":4186:4190  WETH */\n      0x01\n      0x00\n      swap1\n      sload\n      swap1\n      0x0100\n      exp\n      swap1\n      div\n      0xffffffffffffffffffffffffffffffffffffffff\n      and\n        /* \"v2_periphery/UniswapV2Router02Part.sol\":4179:4201  IERC20(WETH).balanceOf */\n      0xffffffffffffffffffffffffffffffffffffffff\n      and\n      0x70a08231\n        /* \"v2_periphery/UniswapV2Router02Part.sol\":4210:4214  this */\n      address\n        /* \"v2_periphery/UniswapV2Router02Part.sol\":4179:4216  IERC20(WETH).balanceOf(address(this)) */\n      mload(0x40)\n      dup3\n      0xffffffff\n      and\n      0xe0\n      shl\n      dup2\n      mstore\n      0x04\n      add\n      tag_101\n      swap2\n      swap1\n      tag_26\n      jump\t// in\n    tag_101:\n      0x20\n      mload(0x40)\n      dup1\n      dup4\n      sub\n      dup2\n      dup7\n      gas\n      staticcall\n      iszero\n      dup1\n      iszero\n      tag_103\n      jumpi\n      returndatasize\n      0x00\n      dup1\n      returndatacopy\n      revert(0x00, returndatasize)\n    tag_103:\n      pop\n      pop\n      pop\n      pop\n      mload(0x40)\n      returndatasize\n      not(0x1f)\n      0x1f\n      dup3\n      add\n      and\n      dup3\n      add\n      dup1\n      0x40\n      mstore\n      pop\n      dup2\n      add\n      swap1\n      tag_104\n      swap2\n      swap1\n      tag_63\n      jump\t// in\n    tag_104:\n        /* \"v2_periphery/UniswapV2Router02Part.sol\":4162:4216  uint amountOut = IERC20(WETH).balanceOf(address(this)) */\n      swap1\n      pop\n        /* \"v2_periphery/UniswapV2Router02Part.sol\":4248:4260  amountOutMin */\n      dup7\n        /* \"v2_periphery/UniswapV2Router02Part.sol\":4235:4244  amountOut */\n      dup2\n        /* \"v2_periphery/UniswapV2Router02Part.sol\":4235:4260  amountOut >= amountOutMin */\n      lt\n      iszero\n        /* \"v2_periphery/UniswapV2Router02Part.sol\":4227:4308  require(amountOut >= amountOutMin, 'UniswapV2Router: INSUFFICIENT_OUTPUT_AMOUNT') */\n      tag_105\n      jumpi\n      mload(0x40)\n      0x08c379a000000000000000000000000000000000000000000000000000000000\n      dup2\n      mstore\n      0x04\n      add\n      tag_106\n      swap1\n      tag_77\n      jump\t// in\n    tag_106:\n      mload(0x40)\n      dup1\n      swap2\n      sub\n      swap1\n      revert\n    tag_105:\n        /* \"v2_periphery/UniswapV2Router02Part.sol\":4325:4329  WETH */\n      0x01\n      0x00\n      swap1\n      sload\n      swap1\n      0x0100\n      exp\n      swap1\n      div\n      0xffffffffffffffffffffffffffffffffffffffff\n      and\n        /* \"v2_periphery/UniswapV2Router02Part.sol\":4319:4339  IWETH(WETH).withdraw */\n      0xffffffffffffffffffffffffffffffffffffffff\n      and\n      0x2e1a7d4d\n        /* \"v2_periphery/UniswapV2Router02Part.sol\":4340:4349  amountOut */\n      dup3\n        /* \"v2_periphery/UniswapV2Router02Part.sol\":4319:4350  IWETH(WETH).withdraw(amountOut) */\n      mload(0x40)\n      dup3\n      0xffffffff\n      and\n      0xe0\n      shl\n      dup2\n      mstore\n      0x04\n      add\n      tag_107\n      swap2\n      swap1\n      tag_108\n      jump\t// in\n    tag_107:\n      0x00\n      mload(0x40)\n      dup1\n      dup4\n      sub\n      dup2\n      0x00\n      dup8\n      dup1\n      extcodesize\n      iszero\n      dup1\n      iszero\n      tag_109\n      jumpi\n      0x00\n      dup1\n      revert\n    tag_109:\n      pop\n      gas\n      call\n      iszero\n      dup1\n      iszero\n      tag_111\n      jumpi\n      returndatasize\n      0x00\n      dup1\n      returndatacopy\n      revert(0x00, returndatasize)\n    tag_111:\n      pop\n      pop\n      pop\n      pop\n        /* \"v2_periphery/UniswapV2Router02Part.sol\":4361:4406  TransferHelper.safeTransferETH(to, amountOut) */\n      tag_112\n        /* \"v2_periphery/UniswapV2Router02Part.sol\":4392:4394  to */\n      dup5\n        /* \"v2_periphery/UniswapV2Router02Part.sol\":4396:4405  amountOut */\n      dup3\n        /* \"v2_periphery/UniswapV2Router02Part.sol\":4361:4391  TransferHelper.safeTransferETH */\n      tag_113\n        /* \"v2_periphery/UniswapV2Router02Part.sol\":4361:4406  TransferHelper.safeTransferETH(to, amountOut) */\n      jump\t// in\n    tag_112:\n        /* \"v2_periphery/UniswapV2Router02Part.sol\":3853:4414  {... */\n      pop\n        /* \"v2_periphery/UniswapV2Router02Part.sol\":3579:4414  function swapExactTokensForETHSupportingFeeOnTransferTokens(... */\n      pop\n      pop\n      pop\n      pop\n      pop\n      pop\n      pop\n      jump\t// out\n        /* \"v2_periphery/UniswapV2Router02Part.sol\":519:589  function setfactory(address a) external {... */\n    tag_21:\n        /* \"v2_periphery/UniswapV2Router02Part.sol\":580:581  a */\n      dup1\n        /* \"v2_periphery/UniswapV2Router02Part.sol\":570:577  factory */\n      0x00\n      dup1\n        /* \"v2_periphery/UniswapV2Router02Part.sol\":570:581  factory = a */\n      0x0100\n      exp\n      dup2\n      sload\n      dup2\n      0xffffffffffffffffffffffffffffffffffffffff\n      mul\n      not\n      and\n      swap1\n      dup4\n      0xffffffffffffffffffffffffffffffffffffffff\n      and\n      mul\n      or\n      swap1\n      sstore\n      pop\n        /* \"v2_periphery/UniswapV2Router02Part.sol\":519:589  function setfactory(address a) external {... */\n      pop\n      jump\t// out\n        /* \"v2_periphery/UniswapV2Router02Part.sol\":492:512  address public  WETH */\n    tag_24:\n      0x01\n      0x00\n      swap1\n      sload\n      swap1\n      0x0100\n      exp\n      swap1\n      div\n      0xffffffffffffffffffffffffffffffffffffffff\n      and\n      dup2\n      jump\t// out\n        /* \"v2_periphery/UniswapV2Router02Part.sol\":2734:3573  function swapExactETHForTokensSupportingFeeOnTransferTokens(... */\n    tag_30:\n        /* \"v2_periphery/UniswapV2Router02Part.sol\":2986:2994  deadline */\n      dup1\n        /* \"v2_periphery/UniswapV2Router02Part.sol\":657:672  block.timestamp */\n      timestamp\n        /* \"v2_periphery/UniswapV2Router02Part.sol\":645:653  deadline */\n      dup2\n        /* \"v2_periphery/UniswapV2Router02Part.sol\":645:672  deadline >= block.timestamp */\n      lt\n      iszero\n        /* \"v2_periphery/UniswapV2Router02Part.sol\":637:701  require(deadline >= block.timestamp, 'UniswapV2Router: EXPIRED') */\n      tag_116\n      jumpi\n      mload(0x40)\n      0x08c379a000000000000000000000000000000000000000000000000000000000\n      dup2\n      mstore\n      0x04\n      add\n      tag_117\n      swap1\n      tag_38\n      jump\t// in\n    tag_117:\n      mload(0x40)\n      dup1\n      swap2\n      sub\n      swap1\n      revert\n    tag_116:\n        /* \"v2_periphery/UniswapV2Router02Part.sol\":3031:3035  WETH */\n      0x01\n      0x00\n      swap1\n      sload\n      swap1\n      0x0100\n      exp\n      swap1\n      div\n      0xffffffffffffffffffffffffffffffffffffffff\n      and\n        /* \"v2_periphery/UniswapV2Router02Part.sol\":3020:3035  path[0] == WETH */\n      0xffffffffffffffffffffffffffffffffffffffff\n      and\n        /* \"v2_periphery/UniswapV2Router02Part.sol\":3020:3024  path */\n      dup6\n      dup6\n        /* \"v2_periphery/UniswapV2Router02Part.sol\":3025:3026  0 */\n      0x00\n        /* \"v2_periphery/UniswapV2Router02Part.sol\":3020:3027  path[0] */\n      dup2\n      dup2\n      lt\n      tag_119\n      jumpi\n      tag_120\n      tag_43\n      jump\t// in\n    tag_120:\n    tag_119:\n      swap1\n      pop\n      0x20\n      mul\n      add\n      0x20\n      dup2\n      add\n      swap1\n      tag_121\n      swap2\n      swap1\n      tag_20\n      jump\t// in\n    tag_121:\n        /* \"v2_periphery/UniswapV2Router02Part.sol\":3020:3035  path[0] == WETH */\n      0xffffffffffffffffffffffffffffffffffffffff\n      and\n      eq\n        /* \"v2_periphery/UniswapV2Router02Part.sol\":3012:3069  require(path[0] == WETH, 'UniswapV2Router: INVALID_PATH') */\n      tag_122\n      jumpi\n      mload(0x40)\n      0x08c379a000000000000000000000000000000000000000000000000000000000\n      dup2\n      mstore\n      0x04\n      add\n      tag_123\n      swap1\n      tag_88\n      jump\t// in\n    tag_123:\n      mload(0x40)\n      dup1\n      swap2\n      sub\n      swap1\n      revert\n    tag_122:\n        /* \"v2_periphery/UniswapV2Router02Part.sol\":3080:3093  uint amountIn */\n      0x00\n        /* \"v2_periphery/UniswapV2Router02Part.sol\":3096:3105  msg.value */\n      callvalue\n        /* \"v2_periphery/UniswapV2Router02Part.sol\":3080:3105  uint amountIn = msg.value */\n      swap1\n      pop\n        /* \"v2_periphery/UniswapV2Router02Part.sol\":3122:3126  WETH */\n      0x01\n      0x00\n      swap1\n      sload\n      swap1\n      0x0100\n      exp\n      swap1\n      div\n      0xffffffffffffffffffffffffffffffffffffffff\n      and\n        /* \"v2_periphery/UniswapV2Router02Part.sol\":3116:3135  IWETH(WETH).deposit */\n      0xffffffffffffffffffffffffffffffffffffffff\n      and\n      0xd0e30db0\n        /* \"v2_periphery/UniswapV2Router02Part.sol\":3143:3151  amountIn */\n      dup3\n        /* \"v2_periphery/UniswapV2Router02Part.sol\":3116:3154  IWETH(WETH).deposit{value: amountIn}() */\n      mload(0x40)\n      dup3\n      0xffffffff\n      and\n      0xe0\n      shl\n      dup2\n      mstore\n      0x04\n      add\n      0x00\n      mload(0x40)\n      dup1\n      dup4\n      sub\n      dup2\n      dup6\n      dup9\n      dup1\n      extcodesize\n      iszero\n      dup1\n      iszero\n      tag_124\n      jumpi\n      0x00\n      dup1\n      revert\n    tag_124:\n      pop\n      gas\n      call\n      iszero\n      dup1\n      iszero\n      tag_126\n      jumpi\n      returndatasize\n      0x00\n      dup1\n      returndatacopy\n      revert(0x00, returndatasize)\n    tag_126:\n      pop\n      pop\n      pop\n      pop\n      pop\n        /* \"v2_periphery/UniswapV2Router02Part.sol\":3178:3182  WETH */\n      0x01\n      0x00\n      swap1\n      sload\n      swap1\n      0x0100\n      exp\n      swap1\n      div\n      0xffffffffffffffffffffffffffffffffffffffff\n      and\n        /* \"v2_periphery/UniswapV2Router02Part.sol\":3172:3192  IWETH(WETH).transfer */\n      0xffffffffffffffffffffffffffffffffffffffff\n      and\n      0xa9059cbb\n        /* \"v2_periphery/UniswapV2Router02Part.sol\":3193:3244  UniswapV2Library.pairFor(factory, path[0], path[1]) */\n      tag_127\n        /* \"v2_periphery/UniswapV2Router02Part.sol\":3218:3225  factory */\n      0x00\n      dup1\n      sload\n      swap1\n      0x0100\n      exp\n      swap1\n      div\n      0xffffffffffffffffffffffffffffffffffffffff\n      and\n        /* \"v2_periphery/UniswapV2Router02Part.sol\":3227:3231  path */\n      dup10\n      dup10\n        /* \"v2_periphery/UniswapV2Router02Part.sol\":3232:3233  0 */\n      0x00\n        /* \"v2_periphery/UniswapV2Router02Part.sol\":3227:3234  path[0] */\n      dup2\n      dup2\n      lt\n      tag_128\n      jumpi\n      tag_129\n      tag_43\n      jump\t// in\n    tag_129:\n    tag_128:\n      swap1\n      pop\n      0x20\n      mul\n      add\n      0x20\n      dup2\n      add\n      swap1\n      tag_130\n      swap2\n      swap1\n      tag_20\n      jump\t// in\n    tag_130:\n        /* \"v2_periphery/UniswapV2Router02Part.sol\":3236:3240  path */\n      dup11\n      dup11\n        /* \"v2_periphery/UniswapV2Router02Part.sol\":3241:3242  1 */\n      0x01\n        /* \"v2_periphery/UniswapV2Router02Part.sol\":3236:3243  path[1] */\n      dup2\n      dup2\n      lt\n      tag_131\n      jumpi\n      tag_132\n      tag_43\n      jump\t// in\n    tag_132:\n    tag_131:\n      swap1\n      pop\n      0x20\n      mul\n      add\n      0x20\n      dup2\n      add\n      swap1\n      tag_133\n      swap2\n      swap1\n      tag_20\n      jump\t// in\n    tag_133:\n        /* \"v2_periphery/UniswapV2Router02Part.sol\":3193:3217  UniswapV2Library.pairFor */\n      tag_52\n        /* \"v2_periphery/UniswapV2Router02Part.sol\":3193:3244  UniswapV2Library.pairFor(factory, path[0], path[1]) */\n      jump\t// in\n    tag_127:\n        /* \"v2_periphery/UniswapV2Router02Part.sol\":3246:3254  amountIn */\n      dup4\n        /* \"v2_periphery/UniswapV2Router02Part.sol\":3172:3255  IWETH(WETH).transfer(UniswapV2Library.pairFor(factory, path[0], path[1]), amountIn) */\n      mload(0x40)\n      dup4\n      0xffffffff\n      and\n      0xe0\n      shl\n      dup2\n      mstore\n      0x04\n      add\n      tag_134\n      swap3\n      swap2\n      swap1\n      tag_135\n      jump\t// in\n    tag_134:\n      0x20\n      mload(0x40)\n      dup1\n      dup4\n      sub\n      dup2\n      0x00\n      dup8\n      gas\n      call\n      iszero\n      dup1\n      iszero\n      tag_137\n      jumpi\n      returndatasize\n      0x00\n      dup1\n      returndatacopy\n      revert(0x00, returndatasize)\n    tag_137:\n      pop\n      pop\n      pop\n      pop\n      mload(0x40)\n      returndatasize\n      not(0x1f)\n      0x1f\n      dup3\n      add\n      and\n      dup3\n      add\n      dup1\n      0x40\n      mstore\n      pop\n      dup2\n      add\n      swap1\n      tag_138\n      swap2\n      swap1\n      tag_139\n      jump\t// in\n    tag_138:\n        /* \"v2_periphery/UniswapV2Router02Part.sol\":3165:3256  assert(IWETH(WETH).transfer(UniswapV2Library.pairFor(factory, path[0], path[1]), amountIn)) */\n      tag_140\n      jumpi\n      tag_141\n      tag_142\n      jump\t// in\n    tag_141:\n    tag_140:\n        /* \"v2_periphery/UniswapV2Router02Part.sol\":3267:3285  uint balanceBefore */\n      0x00\n        /* \"v2_periphery/UniswapV2Router02Part.sol\":3295:3299  path */\n      dup7\n      dup7\n        /* \"v2_periphery/UniswapV2Router02Part.sol\":3314:3315  1 */\n      0x01\n        /* \"v2_periphery/UniswapV2Router02Part.sol\":3300:3304  path */\n      dup10\n      dup10\n        /* \"v2_periphery/UniswapV2Router02Part.sol\":3300:3311  path.length */\n      swap1\n      pop\n        /* \"v2_periphery/UniswapV2Router02Part.sol\":3300:3315  path.length - 1 */\n      tag_143\n      swap2\n      swap1\n      tag_55\n      jump\t// in\n    tag_143:\n        /* \"v2_periphery/UniswapV2Router02Part.sol\":3295:3316  path[path.length - 1] */\n      dup2\n      dup2\n      lt\n      tag_144\n      jumpi\n      tag_145\n      tag_43\n      jump\t// in\n    tag_145:\n    tag_144:\n      swap1\n      pop\n      0x20\n      mul\n      add\n      0x20\n      dup2\n      add\n      swap1\n      tag_146\n      swap2\n      swap1\n      tag_20\n      jump\t// in\n    tag_146:\n        /* \"v2_periphery/UniswapV2Router02Part.sol\":3288:3327  IERC20(path[path.length - 1]).balanceOf */\n      0xffffffffffffffffffffffffffffffffffffffff\n      and\n      0x70a08231\n        /* \"v2_periphery/UniswapV2Router02Part.sol\":3328:3330  to */\n      dup7\n        /* \"v2_periphery/UniswapV2Router02Part.sol\":3288:3331  IERC20(path[path.length - 1]).balanceOf(to) */\n      mload(0x40)\n      dup3\n      0xffffffff\n      and\n      0xe0\n      shl\n      dup2\n      mstore\n      0x04\n      add\n      tag_147\n      swap2\n      swap1\n      tag_26\n      jump\t// in\n    tag_147:\n      0x20\n      mload(0x40)\n      dup1\n      dup4\n      sub\n      dup2\n      dup7\n      gas\n      staticcall\n      iszero\n      dup1\n      iszero\n      tag_149\n      jumpi\n      returndatasize\n      0x00\n      dup1\n      returndatacopy\n      revert(0x00, returndatasize)\n    tag_149:\n      pop\n      pop\n      pop\n      pop\n      mload(0x40)\n      returndatasize\n      not(0x1f)\n      0x1f\n      dup3\n      add\n      and\n      dup3\n      add\n      dup1\n      0x40\n      mstore\n      pop\n      dup2\n      add\n      swap1\n      tag_150\n      swap2\n      swap1\n      tag_63\n      jump\t// in\n    tag_150:\n        /* \"v2_periphery/UniswapV2Router02Part.sol\":3267:3331  uint balanceBefore = IERC20(path[path.length - 1]).balanceOf(to) */\n      swap1\n      pop\n        /* \"v2_periphery/UniswapV2Router02Part.sol\":3342:3386  _swapSupportingFeeOnTransferTokens(path, to) */\n      tag_151\n        /* \"v2_periphery/UniswapV2Router02Part.sol\":3377:3381  path */\n      dup8\n      dup8\n        /* \"v2_periphery/UniswapV2Router02Part.sol\":3342:3386  _swapSupportingFeeOnTransferTokens(path, to) */\n      dup1\n      dup1\n      0x20\n      mul\n      0x20\n      add\n      mload(0x40)\n      swap1\n      dup2\n      add\n      0x40\n      mstore\n      dup1\n      swap4\n      swap3\n      swap2\n      swap1\n      dup2\n      dup2\n      mstore\n      0x20\n      add\n      dup4\n      dup4\n      0x20\n      mul\n      dup1\n      dup3\n      dup5\n      calldatacopy\n      0x00\n      dup2\n      dup5\n      add\n      mstore\n      not(0x1f)\n      0x1f\n      dup3\n      add\n      and\n      swap1\n      pop\n      dup1\n      dup4\n      add\n      swap3\n      pop\n      pop\n      pop\n      pop\n      pop\n      pop\n      pop\n        /* \"v2_periphery/UniswapV2Router02Part.sol\":3383:3385  to */\n      dup7\n        /* \"v2_periphery/UniswapV2Router02Part.sol\":3342:3376  _swapSupportingFeeOnTransferTokens */\n      tag_65\n        /* \"v2_periphery/UniswapV2Router02Part.sol\":3342:3386  _swapSupportingFeeOnTransferTokens(path, to) */\n      jump\t// in\n    tag_151:\n        /* \"v2_periphery/UniswapV2Router02Part.sol\":3482:3494  amountOutMin */\n      dup8\n        /* \"v2_periphery/UniswapV2Router02Part.sol\":3465:3478  balanceBefore */\n      dup2\n        /* \"v2_periphery/UniswapV2Router02Part.sol\":3426:3430  path */\n      dup9\n      dup9\n        /* \"v2_periphery/UniswapV2Router02Part.sol\":3445:3446  1 */\n      0x01\n        /* \"v2_periphery/UniswapV2Router02Part.sol\":3431:3435  path */\n      dup12\n      dup12\n        /* \"v2_periphery/UniswapV2Router02Part.sol\":3431:3442  path.length */\n      swap1\n      pop\n        /* \"v2_periphery/UniswapV2Router02Part.sol\":3431:3446  path.length - 1 */\n      tag_152\n      swap2\n      swap1\n      tag_55\n      jump\t// in\n    tag_152:\n        /* \"v2_periphery/UniswapV2Router02Part.sol\":3426:3447  path[path.length - 1] */\n      dup2\n      dup2\n      lt\n      tag_153\n      jumpi\n      tag_154\n      tag_43\n      jump\t// in\n    tag_154:\n    tag_153:\n      swap1\n      pop\n      0x20\n      mul\n      add\n      0x20\n      dup2\n      add\n      swap1\n      tag_155\n      swap2\n      swap1\n      tag_20\n      jump\t// in\n    tag_155:\n        /* \"v2_periphery/UniswapV2Router02Part.sol\":3419:3458  IERC20(path[path.length - 1]).balanceOf */\n      0xffffffffffffffffffffffffffffffffffffffff\n      and\n      0x70a08231\n        /* \"v2_periphery/UniswapV2Router02Part.sol\":3459:3461  to */\n      dup9\n        /* \"v2_periphery/UniswapV2Router02Part.sol\":3419:3462  IERC20(path[path.length - 1]).balanceOf(to) */\n      mload(0x40)\n      dup3\n      0xffffffff\n      and\n      0xe0\n      shl\n      dup2\n      mstore\n      0x04\n      add\n      tag_156\n      swap2\n      swap1\n      tag_26\n      jump\t// in\n    tag_156:\n      0x20\n      mload(0x40)\n      dup1\n      dup4\n      sub\n      dup2\n      dup7\n      gas\n      staticcall\n      iszero\n      dup1\n      iszero\n      tag_158\n      jumpi\n      returndatasize\n      0x00\n      dup1\n      returndatacopy\n      revert(0x00, returndatasize)\n    tag_158:\n      pop\n      pop\n      pop\n      pop\n      mload(0x40)\n      returndatasize\n      not(0x1f)\n      0x1f\n      dup3\n      add\n      and\n      dup3\n      add\n      dup1\n      0x40\n      mstore\n      pop\n      dup2\n      add\n      swap1\n      tag_159\n      swap2\n      swap1\n      tag_63\n      jump\t// in\n    tag_159:\n        /* \"v2_periphery/UniswapV2Router02Part.sol\":3419:3478  IERC20(path[path.length - 1]).balanceOf(to) - balanceBefore */\n      tag_160\n      swap2\n      swap1\n      tag_55\n      jump\t// in\n    tag_160:\n        /* \"v2_periphery/UniswapV2Router02Part.sol\":3419:3494  IERC20(path[path.length - 1]).balanceOf(to) - balanceBefore >= amountOutMin */\n      lt\n      iszero\n        /* \"v2_periphery/UniswapV2Router02Part.sol\":3397:3565  require(... */\n      tag_161\n      jumpi\n      mload(0x40)\n      0x08c379a000000000000000000000000000000000000000000000000000000000\n      dup2\n      mstore\n      0x04\n      add\n      tag_162\n      swap1\n      tag_77\n      jump\t// in\n    tag_162:\n      mload(0x40)\n      dup1\n      swap2\n      sub\n      swap1\n      revert\n    tag_161:\n        /* \"v2_periphery/UniswapV2Router02Part.sol\":3001:3573  {... */\n      pop\n      pop\n        /* \"v2_periphery/UniswapV2Router02Part.sol\":2734:3573  function swapExactETHForTokensSupportingFeeOnTransferTokens(... */\n      pop\n      pop\n      pop\n      pop\n      pop\n      pop\n      jump\t// out\n        /* \"v2_periphery/UniswapV2Router02Part.sol\":462:485  address public  factory */\n    tag_33:\n      0x00\n      dup1\n      sload\n      swap1\n      0x0100\n      exp\n      swap1\n      div\n      0xffffffffffffffffffffffffffffffffffffffff\n      and\n      dup2\n      jump\t// out\n        /* \"v2_periphery/libraries/UniswapV2Library.sol\":750:1237  function pairFor(address factory, address tokenA, address tokenB) internal pure returns (address pair) {... */\n    tag_52:\n        /* \"v2_periphery/libraries/UniswapV2Library.sol\":839:851  address pair */\n      0x00\n        /* \"v2_periphery/libraries/UniswapV2Library.sol\":865:879  address token0 */\n      dup1\n        /* \"v2_periphery/libraries/UniswapV2Library.sol\":881:895  address token1 */\n      0x00\n        /* \"v2_periphery/libraries/UniswapV2Library.sol\":899:925  sortTokens(tokenA, tokenB) */\n      tag_164\n        /* \"v2_periphery/libraries/UniswapV2Library.sol\":910:916  tokenA */\n      dup6\n        /* \"v2_periphery/libraries/UniswapV2Library.sol\":918:924  tokenB */\n      dup6\n        /* \"v2_periphery/libraries/UniswapV2Library.sol\":899:909  sortTokens */\n      tag_165\n        /* \"v2_periphery/libraries/UniswapV2Library.sol\":899:925  sortTokens(tokenA, tokenB) */\n      jump\t// in\n    tag_164:\n        /* \"v2_periphery/libraries/UniswapV2Library.sol\":864:925  (address token0, address token1) = sortTokens(tokenA, tokenB) */\n      swap2\n      pop\n      swap2\n      pop\n        /* \"v2_periphery/libraries/UniswapV2Library.sol\":1035:1042  factory */\n      dup6\n        /* \"v2_periphery/libraries/UniswapV2Library.sol\":1088:1094  token0 */\n      dup3\n        /* \"v2_periphery/libraries/UniswapV2Library.sol\":1096:1102  token1 */\n      dup3\n        /* \"v2_periphery/libraries/UniswapV2Library.sol\":1071:1103  abi.encodePacked(token0, token1) */\n      add(0x20, mload(0x40))\n      tag_166\n      swap3\n      swap2\n      swap1\n      tag_167\n      jump\t// in\n    tag_166:\n      mload(0x40)\n      0x20\n      dup2\n      dup4\n      sub\n      sub\n      dup2\n      mstore\n      swap1\n      0x40\n      mstore\n        /* \"v2_periphery/libraries/UniswapV2Library.sol\":1061:1104  keccak256(abi.encodePacked(token0, token1)) */\n      dup1\n      mload\n      swap1\n      0x20\n      add\n      keccak256\n        /* \"v2_periphery/libraries/UniswapV2Library.sol\":974:1225  abi.encodePacked(... */\n      add(0x20, mload(0x40))\n      tag_168\n      swap3\n      swap2\n      swap1\n      tag_169\n      jump\t// in\n    tag_168:\n      mload(0x40)\n      0x20\n      dup2\n      dup4\n      sub\n      sub\n      dup2\n      mstore\n      swap1\n      0x40\n      mstore\n        /* \"v2_periphery/libraries/UniswapV2Library.sol\":964:1226  keccak256(abi.encodePacked(... */\n      dup1\n      mload\n      swap1\n      0x20\n      add\n      keccak256\n        /* \"v2_periphery/libraries/UniswapV2Library.sol\":959:1227  uint(keccak256(abi.encodePacked(... */\n      0x00\n      shr\n        /* \"v2_periphery/libraries/UniswapV2Library.sol\":936:1229  pair = address(uint160(uint(keccak256(abi.encodePacked(... */\n      swap3\n      pop\n        /* \"v2_periphery/libraries/UniswapV2Library.sol\":853:1237  {... */\n      pop\n      pop\n        /* \"v2_periphery/libraries/UniswapV2Library.sol\":750:1237  function pairFor(address factory, address tokenA, address tokenB) internal pure returns (address pair) {... */\n      swap4\n      swap3\n      pop\n      pop\n      pop\n      jump\t// out\n        /* \"v2_periphery/libraries/TransferHelper.sol\":1116:1614  function safeTransferFrom(... */\n    tag_53:\n        /* \"v2_periphery/libraries/TransferHelper.sol\":1341:1353  bool success */\n      0x00\n        /* \"v2_periphery/libraries/TransferHelper.sol\":1355:1372  bytes memory data */\n      dup1\n        /* \"v2_periphery/libraries/TransferHelper.sol\":1376:1381  token */\n      dup6\n        /* \"v2_periphery/libraries/TransferHelper.sol\":1376:1386  token.call */\n      0xffffffffffffffffffffffffffffffffffffffff\n      and\n        /* \"v2_periphery/libraries/TransferHelper.sol\":1410:1420  0x23b872dd */\n      0x23b872dd\n        /* \"v2_periphery/libraries/TransferHelper.sol\":1422:1426  from */\n      dup7\n        /* \"v2_periphery/libraries/TransferHelper.sol\":1428:1430  to */\n      dup7\n        /* \"v2_periphery/libraries/TransferHelper.sol\":1432:1437  value */\n      dup7\n        /* \"v2_periphery/libraries/TransferHelper.sol\":1387:1438  abi.encodeWithSelector(0x23b872dd, from, to, value) */\n      add(0x24, mload(0x40))\n      tag_171\n      swap4\n      swap3\n      swap2\n      swap1\n      tag_172\n      jump\t// in\n    tag_171:\n      mload(0x40)\n      0x20\n      dup2\n      dup4\n      sub\n      sub\n      dup2\n      mstore\n      swap1\n      0x40\n      mstore\n      swap1\n      0xe0\n      shl\n      0x20\n      dup3\n      add\n      dup1\n      mload\n      0xffffffffffffffffffffffffffffffffffffffffffffffffffffffff\n      dup4\n      dup2\n      dup4\n      and\n      or\n      dup4\n      mstore\n      pop\n      pop\n      pop\n      pop\n        /* \"v2_periphery/libraries/TransferHelper.sol\":1376:1439  token.call(abi.encodeWithSelector(0x23b872dd, from, to, value)) */\n      mload(0x40)\n      tag_173\n      swap2\n      swap1\n      tag_174\n      jump\t// in\n    tag_173:\n      0x00\n      mload(0x40)\n      dup1\n      dup4\n      sub\n      dup2\n      0x00\n      dup7\n      gas\n      call\n      swap2\n      pop\n      pop\n      returndatasize\n      dup1\n      0x00\n      dup2\n      eq\n      tag_177\n      jumpi\n      mload(0x40)\n      swap2\n      pop\n      and(add(returndatasize, 0x3f), not(0x1f))\n      dup3\n      add\n      0x40\n      mstore\n      returndatasize\n      dup3\n      mstore\n      returndatasize\n      0x00\n      0x20\n      dup5\n      add\n      returndatacopy\n      jump(tag_176)\n    tag_177:\n      0x60\n      swap2\n      pop\n    tag_176:\n      pop\n        /* \"v2_periphery/libraries/TransferHelper.sol\":1340:1439  (bool success, bytes memory data) = token.call(abi.encodeWithSelector(0x23b872dd, from, to, value)) */\n      swap2\n      pop\n      swap2\n      pop\n        /* \"v2_periphery/libraries/TransferHelper.sol\":1472:1479  success */\n      dup2\n        /* \"v2_periphery/libraries/TransferHelper.sol\":1472:1529  success && (data.length == 0 || abi.decode(data, (bool))) */\n      dup1\n      iszero\n      tag_178\n      jumpi\n      pop\n        /* \"v2_periphery/libraries/TransferHelper.sol\":1499:1500  0 */\n      0x00\n        /* \"v2_periphery/libraries/TransferHelper.sol\":1484:1488  data */\n      dup2\n        /* \"v2_periphery/libraries/TransferHelper.sol\":1484:1495  data.length */\n      mload\n        /* \"v2_periphery/libraries/TransferHelper.sol\":1484:1500  data.length == 0 */\n      eq\n        /* \"v2_periphery/libraries/TransferHelper.sol\":1484:1528  data.length == 0 || abi.decode(data, (bool)) */\n      dup1\n      tag_179\n      jumpi\n      pop\n        /* \"v2_periphery/libraries/TransferHelper.sol\":1515:1519  data */\n      dup1\n        /* \"v2_periphery/libraries/TransferHelper.sol\":1504:1528  abi.decode(data, (bool)) */\n      dup1\n      0x20\n      add\n      swap1\n      mload\n      dup2\n      add\n      swap1\n      tag_180\n      swap2\n      swap1\n      tag_139\n      jump\t// in\n    tag_180:\n        /* \"v2_periphery/libraries/TransferHelper.sol\":1484:1528  data.length == 0 || abi.decode(data, (bool)) */\n    tag_179:\n        /* \"v2_periphery/libraries/TransferHelper.sol\":1472:1529  success && (data.length == 0 || abi.decode(data, (bool))) */\n    tag_178:\n        /* \"v2_periphery/libraries/TransferHelper.sol\":1450:1606  require(... */\n      tag_181\n      jumpi\n      mload(0x40)\n      0x08c379a000000000000000000000000000000000000000000000000000000000\n      dup2\n      mstore\n      0x04\n      add\n      tag_182\n      swap1\n      tag_183\n      jump\t// in\n    tag_182:\n      mload(0x40)\n      dup1\n      swap2\n      sub\n      swap1\n      revert\n    tag_181:\n        /* \"v2_periphery/libraries/TransferHelper.sol\":1250:1614  {... */\n      pop\n      pop\n        /* \"v2_periphery/libraries/TransferHelper.sol\":1116:1614  function safeTransferFrom(... */\n      pop\n      pop\n      pop\n      pop\n      jump\t// out\n        /* \"v2_periphery/UniswapV2Router02Part.sol\":807:2019  function _swapSupportingFeeOnTransferTokens(address[] memory path, address _to) internal virtual {... */\n    tag_65:\n        /* \"v2_periphery/UniswapV2Router02Part.sol\":920:926  uint i */\n      0x00\n        /* \"v2_periphery/UniswapV2Router02Part.sol\":915:2012  for (uint i; i < path.length - 1; i++) {... */\n    tag_185:\n        /* \"v2_periphery/UniswapV2Router02Part.sol\":946:947  1 */\n      0x01\n        /* \"v2_periphery/UniswapV2Router02Part.sol\":932:936  path */\n      dup4\n        /* \"v2_periphery/UniswapV2Router02Part.sol\":932:943  path.length */\n      mload\n        /* \"v2_periphery/UniswapV2Router02Part.sol\":932:947  path.length - 1 */\n      tag_188\n      swap2\n      swap1\n      tag_55\n      jump\t// in\n    tag_188:\n        /* \"v2_periphery/UniswapV2Router02Part.sol\":928:929  i */\n      dup2\n        /* \"v2_periphery/UniswapV2Router02Part.sol\":928:947  i < path.length - 1 */\n      lt\n        /* \"v2_periphery/UniswapV2Router02Part.sol\":915:2012  for (uint i; i < path.length - 1; i++) {... */\n      iszero\n      tag_186\n      jumpi\n        /* \"v2_periphery/UniswapV2Router02Part.sol\":970:983  address input */\n      0x00\n        /* \"v2_periphery/UniswapV2Router02Part.sol\":985:999  address output */\n      dup1\n        /* \"v2_periphery/UniswapV2Router02Part.sol\":1004:1008  path */\n      dup5\n        /* \"v2_periphery/UniswapV2Router02Part.sol\":1009:1010  i */\n      dup4\n        /* \"v2_periphery/UniswapV2Router02Part.sol\":1004:1011  path[i] */\n      dup2\n      mload\n      dup2\n      lt\n      tag_189\n      jumpi\n      tag_190\n      tag_43\n      jump\t// in\n    tag_190:\n    tag_189:\n      0x20\n      mul\n      0x20\n      add\n      add\n      mload\n        /* \"v2_periphery/UniswapV2Router02Part.sol\":1013:1017  path */\n      dup6\n        /* \"v2_periphery/UniswapV2Router02Part.sol\":1022:1023  1 */\n      0x01\n        /* \"v2_periphery/UniswapV2Router02Part.sol\":1018:1019  i */\n      dup6\n        /* \"v2_periphery/UniswapV2Router02Part.sol\":1018:1023  i + 1 */\n      tag_191\n      swap2\n      swap1\n      tag_192\n      jump\t// in\n    tag_191:\n        /* \"v2_periphery/UniswapV2Router02Part.sol\":1013:1024  path[i + 1] */\n      dup2\n      mload\n      dup2\n      lt\n      tag_193\n      jumpi\n      tag_194\n      tag_43\n      jump\t// in\n    tag_194:\n    tag_193:\n      0x20\n      mul\n      0x20\n      add\n      add\n      mload\n        /* \"v2_periphery/UniswapV2Router02Part.sol\":969:1025  (address input, address output) = (path[i], path[i + 1]) */\n      swap2\n      pop\n      swap2\n      pop\n        /* \"v2_periphery/UniswapV2Router02Part.sol\":1041:1055  address token0 */\n      0x00\n        /* \"v2_periphery/UniswapV2Router02Part.sol\":1060:1102  UniswapV2Library.sortTokens(input, output) */\n      tag_195\n        /* \"v2_periphery/UniswapV2Router02Part.sol\":1088:1093  input */\n      dup4\n        /* \"v2_periphery/UniswapV2Router02Part.sol\":1095:1101  output */\n      dup4\n        /* \"v2_periphery/UniswapV2Router02Part.sol\":1060:1087  UniswapV2Library.sortTokens */\n      tag_165\n        /* \"v2_periphery/UniswapV2Router02Part.sol\":1060:1102  UniswapV2Library.sortTokens(input, output) */\n      jump\t// in\n    tag_195:\n        /* \"v2_periphery/UniswapV2Router02Part.sol\":1040:1102  (address token0,) = UniswapV2Library.sortTokens(input, output) */\n      pop\n      swap1\n      pop\n        /* \"v2_periphery/UniswapV2Router02Part.sol\":1117:1136  IUniswapV2Pair pair */\n      0x00\n        /* \"v2_periphery/UniswapV2Router02Part.sol\":1154:1202  UniswapV2Library.pairFor(factory, input, output) */\n      tag_196\n        /* \"v2_periphery/UniswapV2Router02Part.sol\":1179:1186  factory */\n      0x00\n      dup1\n      sload\n      swap1\n      0x0100\n      exp\n      swap1\n      div\n      0xffffffffffffffffffffffffffffffffffffffff\n      and\n        /* \"v2_periphery/UniswapV2Router02Part.sol\":1188:1193  input */\n      dup6\n        /* \"v2_periphery/UniswapV2Router02Part.sol\":1195:1201  output */\n      dup6\n        /* \"v2_periphery/UniswapV2Router02Part.sol\":1154:1178  UniswapV2Library.pairFor */\n      tag_52\n        /* \"v2_periphery/UniswapV2Router02Part.sol\":1154:1202  UniswapV2Library.pairFor(factory, input, output) */\n      jump\t// in\n    tag_196:\n        /* \"v2_periphery/UniswapV2Router02Part.sol\":1117:1203  IUniswapV2Pair pair = IUniswapV2Pair(UniswapV2Library.pairFor(factory, input, output)) */\n      swap1\n      pop\n        /* \"v2_periphery/UniswapV2Router02Part.sol\":1218:1234  uint amountInput */\n      0x00\n        /* \"v2_periphery/UniswapV2Router02Part.sol\":1249:1266  uint amountOutput */\n      dup1\n        /* \"v2_periphery/UniswapV2Router02Part.sol\":1337:1350  uint reserve0 */\n      0x00\n        /* \"v2_periphery/UniswapV2Router02Part.sol\":1352:1365  uint reserve1 */\n      dup1\n        /* \"v2_periphery/UniswapV2Router02Part.sol\":1370:1374  pair */\n      dup5\n        /* \"v2_periphery/UniswapV2Router02Part.sol\":1370:1386  pair.getReserves */\n      0xffffffffffffffffffffffffffffffffffffffff\n      and\n      0x0902f1ac\n        /* \"v2_periphery/UniswapV2Router02Part.sol\":1370:1388  pair.getReserves() */\n      mload(0x40)\n      dup2\n      0xffffffff\n      and\n      0xe0\n      shl\n      dup2\n      mstore\n      0x04\n      add\n      0x60\n      mload(0x40)\n      dup1\n      dup4\n      sub\n      dup2\n      dup7\n      gas\n      staticcall\n      iszero\n      dup1\n      iszero\n      tag_198\n      jumpi\n      returndatasize\n      0x00\n      dup1\n      returndatacopy\n      revert(0x00, returndatasize)\n    tag_198:\n      pop\n      pop\n      pop\n      pop\n      mload(0x40)\n      returndatasize\n      not(0x1f)\n      0x1f\n      dup3\n      add\n      and\n      dup3\n      add\n      dup1\n      0x40\n      mstore\n      pop\n      dup2\n      add\n      swap1\n      tag_199\n      swap2\n      swap1\n      tag_200\n      jump\t// in\n    tag_199:\n        /* \"v2_periphery/UniswapV2Router02Part.sol\":1336:1388  (uint reserve0, uint reserve1,) = pair.getReserves() */\n      pop\n      0xffffffffffffffffffffffffffff\n      and\n      swap2\n      pop\n      0xffffffffffffffffffffffffffff\n      and\n      swap2\n      pop\n        /* \"v2_periphery/UniswapV2Router02Part.sol\":1404:1421  uint reserveInput */\n      0x00\n        /* \"v2_periphery/UniswapV2Router02Part.sol\":1423:1441  uint reserveOutput */\n      dup1\n        /* \"v2_periphery/UniswapV2Router02Part.sol\":1454:1460  token0 */\n      dup8\n        /* \"v2_periphery/UniswapV2Router02Part.sol\":1445:1460  input == token0 */\n      0xffffffffffffffffffffffffffffffffffffffff\n      and\n        /* \"v2_periphery/UniswapV2Router02Part.sol\":1445:1450  input */\n      dup11\n        /* \"v2_periphery/UniswapV2Router02Part.sol\":1445:1460  input == token0 */\n      0xffffffffffffffffffffffffffffffffffffffff\n      and\n      eq\n        /* \"v2_periphery/UniswapV2Router02Part.sol\":1445:1506  input == token0 ? (reserve0, reserve1) : (reserve1, reserve0) */\n      tag_201\n      jumpi\n        /* \"v2_periphery/UniswapV2Router02Part.sol\":1487:1495  reserve1 */\n      dup3\n        /* \"v2_periphery/UniswapV2Router02Part.sol\":1497:1505  reserve0 */\n      dup5\n        /* \"v2_periphery/UniswapV2Router02Part.sol\":1445:1506  input == token0 ? (reserve0, reserve1) : (reserve1, reserve0) */\n      jump(tag_202)\n    tag_201:\n        /* \"v2_periphery/UniswapV2Router02Part.sol\":1464:1472  reserve0 */\n      dup4\n        /* \"v2_periphery/UniswapV2Router02Part.sol\":1474:1482  reserve1 */\n      dup4\n        /* \"v2_periphery/UniswapV2Router02Part.sol\":1445:1506  input == token0 ? (reserve0, reserve1) : (reserve1, reserve0) */\n    tag_202:\n        /* \"v2_periphery/UniswapV2Router02Part.sol\":1403:1506  (uint reserveInput, uint reserveOutput) = input == token0 ? (reserve0, reserve1) : (reserve1, reserve0) */\n      swap2\n      pop\n      swap2\n      pop\n        /* \"v2_periphery/UniswapV2Router02Part.sol\":1576:1588  reserveInput */\n      dup2\n        /* \"v2_periphery/UniswapV2Router02Part.sol\":1542:1547  input */\n      dup11\n        /* \"v2_periphery/UniswapV2Router02Part.sol\":1535:1558  IERC20(input).balanceOf */\n      0xffffffffffffffffffffffffffffffffffffffff\n      and\n      0x70a08231\n        /* \"v2_periphery/UniswapV2Router02Part.sol\":1567:1571  pair */\n      dup10\n        /* \"v2_periphery/UniswapV2Router02Part.sol\":1535:1573  IERC20(input).balanceOf(address(pair)) */\n      mload(0x40)\n      dup3\n      0xffffffff\n      and\n      0xe0\n      shl\n      dup2\n      mstore\n      0x04\n      add\n      tag_203\n      swap2\n      swap1\n      tag_26\n      jump\t// in\n    tag_203:\n      0x20\n      mload(0x40)\n      dup1\n      dup4\n      sub\n      dup2\n      dup7\n      gas\n      staticcall\n      iszero\n      dup1\n      iszero\n      tag_205\n      jumpi\n      returndatasize\n      0x00\n      dup1\n      returndatacopy\n      revert(0x00, returndatasize)\n    tag_205:\n      pop\n      pop\n      pop\n      pop\n      mload(0x40)\n      returndatasize\n      not(0x1f)\n      0x1f\n      dup3\n      add\n      and\n      dup3\n      add\n      dup1\n      0x40\n      mstore\n      pop\n      dup2\n      add\n      swap1\n      tag_206\n      swap2\n      swap1\n      tag_63\n      jump\t// in\n    tag_206:\n        /* \"v2_periphery/UniswapV2Router02Part.sol\":1535:1588  IERC20(input).balanceOf(address(pair)) - reserveInput */\n      tag_207\n      swap2\n      swap1\n      tag_55\n      jump\t// in\n    tag_207:\n        /* \"v2_periphery/UniswapV2Router02Part.sol\":1521:1588  amountInput = IERC20(input).balanceOf(address(pair)) - reserveInput */\n      swap6\n      pop\n        /* \"v2_periphery/UniswapV2Router02Part.sol\":1619:1690  UniswapV2Library.getAmountOut(amountInput, reserveInput, reserveOutput) */\n      tag_208\n        /* \"v2_periphery/UniswapV2Router02Part.sol\":1649:1660  amountInput */\n      dup7\n        /* \"v2_periphery/UniswapV2Router02Part.sol\":1662:1674  reserveInput */\n      dup4\n        /* \"v2_periphery/UniswapV2Router02Part.sol\":1676:1689  reserveOutput */\n      dup4\n        /* \"v2_periphery/UniswapV2Router02Part.sol\":1619:1648  UniswapV2Library.getAmountOut */\n      tag_209\n        /* \"v2_periphery/UniswapV2Router02Part.sol\":1619:1690  UniswapV2Library.getAmountOut(amountInput, reserveInput, reserveOutput) */\n      jump\t// in\n    tag_208:\n        /* \"v2_periphery/UniswapV2Router02Part.sol\":1604:1690  amountOutput = UniswapV2Library.getAmountOut(amountInput, reserveInput, reserveOutput) */\n      swap5\n      pop\n        /* \"v2_periphery/UniswapV2Router02Part.sol\":1281:1706  { // scope to avoid stack too deep errors... */\n      pop\n      pop\n      pop\n      pop\n        /* \"v2_periphery/UniswapV2Router02Part.sol\":1721:1736  uint amount0Out */\n      0x00\n        /* \"v2_periphery/UniswapV2Router02Part.sol\":1738:1753  uint amount1Out */\n      dup1\n        /* \"v2_periphery/UniswapV2Router02Part.sol\":1766:1772  token0 */\n      dup6\n        /* \"v2_periphery/UniswapV2Router02Part.sol\":1757:1772  input == token0 */\n      0xffffffffffffffffffffffffffffffffffffffff\n      and\n        /* \"v2_periphery/UniswapV2Router02Part.sol\":1757:1762  input */\n      dup9\n        /* \"v2_periphery/UniswapV2Router02Part.sol\":1757:1772  input == token0 */\n      0xffffffffffffffffffffffffffffffffffffffff\n      and\n      eq\n        /* \"v2_periphery/UniswapV2Router02Part.sol\":1757:1824  input == token0 ? (uint(0), amountOutput) : (amountOutput, uint(0)) */\n      tag_210\n      jumpi\n        /* \"v2_periphery/UniswapV2Router02Part.sol\":1802:1814  amountOutput */\n      dup3\n        /* \"v2_periphery/UniswapV2Router02Part.sol\":1821:1822  0 */\n      0x00\n        /* \"v2_periphery/UniswapV2Router02Part.sol\":1757:1824  input == token0 ? (uint(0), amountOutput) : (amountOutput, uint(0)) */\n      jump(tag_211)\n    tag_210:\n        /* \"v2_periphery/UniswapV2Router02Part.sol\":1781:1782  0 */\n      0x00\n        /* \"v2_periphery/UniswapV2Router02Part.sol\":1785:1797  amountOutput */\n      dup4\n        /* \"v2_periphery/UniswapV2Router02Part.sol\":1757:1824  input == token0 ? (uint(0), amountOutput) : (amountOutput, uint(0)) */\n    tag_211:\n        /* \"v2_periphery/UniswapV2Router02Part.sol\":1720:1824  (uint amount0Out, uint amount1Out) = input == token0 ? (uint(0), amountOutput) : (amountOutput, uint(0)) */\n      swap2\n      pop\n      swap2\n      pop\n        /* \"v2_periphery/UniswapV2Router02Part.sol\":1839:1849  address to */\n      0x00\n        /* \"v2_periphery/UniswapV2Router02Part.sol\":1870:1871  2 */\n      0x02\n        /* \"v2_periphery/UniswapV2Router02Part.sol\":1856:1860  path */\n      dup13\n        /* \"v2_periphery/UniswapV2Router02Part.sol\":1856:1867  path.length */\n      mload\n        /* \"v2_periphery/UniswapV2Router02Part.sol\":1856:1871  path.length - 2 */\n      tag_212\n      swap2\n      swap1\n      tag_55\n      jump\t// in\n    tag_212:\n        /* \"v2_periphery/UniswapV2Router02Part.sol\":1852:1853  i */\n      dup11\n        /* \"v2_periphery/UniswapV2Router02Part.sol\":1852:1871  i < path.length - 2 */\n      lt\n        /* \"v2_periphery/UniswapV2Router02Part.sol\":1852:1934  i < path.length - 2 ? UniswapV2Library.pairFor(factory, output, path[i + 2]) : _to */\n      tag_213\n      jumpi\n        /* \"v2_periphery/UniswapV2Router02Part.sol\":1931:1934  _to */\n      dup11\n        /* \"v2_periphery/UniswapV2Router02Part.sol\":1852:1934  i < path.length - 2 ? UniswapV2Library.pairFor(factory, output, path[i + 2]) : _to */\n      jump(tag_214)\n    tag_213:\n        /* \"v2_periphery/UniswapV2Router02Part.sol\":1874:1928  UniswapV2Library.pairFor(factory, output, path[i + 2]) */\n      tag_215\n        /* \"v2_periphery/UniswapV2Router02Part.sol\":1899:1906  factory */\n      0x00\n      dup1\n      sload\n      swap1\n      0x0100\n      exp\n      swap1\n      div\n      0xffffffffffffffffffffffffffffffffffffffff\n      and\n        /* \"v2_periphery/UniswapV2Router02Part.sol\":1908:1914  output */\n      dup10\n        /* \"v2_periphery/UniswapV2Router02Part.sol\":1916:1920  path */\n      dup15\n        /* \"v2_periphery/UniswapV2Router02Part.sol\":1925:1926  2 */\n      0x02\n        /* \"v2_periphery/UniswapV2Router02Part.sol\":1921:1922  i */\n      dup15\n        /* \"v2_periphery/UniswapV2Router02Part.sol\":1921:1926  i + 2 */\n      tag_216\n      swap2\n      swap1\n      tag_192\n      jump\t// in\n    tag_216:\n        /* \"v2_periphery/UniswapV2Router02Part.sol\":1916:1927  path[i + 2] */\n      dup2\n      mload\n      dup2\n      lt\n      tag_217\n      jumpi\n      tag_218\n      tag_43\n      jump\t// in\n    tag_218:\n    tag_217:\n      0x20\n      mul\n      0x20\n      add\n      add\n      mload\n        /* \"v2_periphery/UniswapV2Router02Part.sol\":1874:1898  UniswapV2Library.pairFor */\n      tag_52\n        /* \"v2_periphery/UniswapV2Router02Part.sol\":1874:1928  UniswapV2Library.pairFor(factory, output, path[i + 2]) */\n      jump\t// in\n    tag_215:\n        /* \"v2_periphery/UniswapV2Router02Part.sol\":1852:1934  i < path.length - 2 ? UniswapV2Library.pairFor(factory, output, path[i + 2]) : _to */\n    tag_214:\n        /* \"v2_periphery/UniswapV2Router02Part.sol\":1839:1934  address to = i < path.length - 2 ? UniswapV2Library.pairFor(factory, output, path[i + 2]) : _to */\n      swap1\n      pop\n        /* \"v2_periphery/UniswapV2Router02Part.sol\":1949:1953  pair */\n      dup6\n        /* \"v2_periphery/UniswapV2Router02Part.sol\":1949:1958  pair.swap */\n      0xffffffffffffffffffffffffffffffffffffffff\n      and\n      0x022c0d9f\n        /* \"v2_periphery/UniswapV2Router02Part.sol\":1959:1969  amount0Out */\n      dup5\n        /* \"v2_periphery/UniswapV2Router02Part.sol\":1971:1981  amount1Out */\n      dup5\n        /* \"v2_periphery/UniswapV2Router02Part.sol\":1983:1985  to */\n      dup5\n        /* \"v2_periphery/UniswapV2Router02Part.sol\":1997:1998  0 */\n      0x00\n        /* \"v2_periphery/UniswapV2Router02Part.sol\":1987:1999  new bytes(0) */\n      0xffffffffffffffff\n      dup2\n      gt\n      iszero\n      tag_219\n      jumpi\n      tag_220\n      tag_221\n      jump\t// in\n    tag_220:\n    tag_219:\n      mload(0x40)\n      swap1\n      dup1\n      dup3\n      mstore\n      dup1\n      0x1f\n      add\n      not(0x1f)\n      and\n      0x20\n      add\n      dup3\n      add\n      0x40\n      mstore\n      dup1\n      iszero\n      tag_222\n      jumpi\n      dup2\n      0x20\n      add\n      0x01\n      dup3\n      mul\n      dup1\n      calldatasize\n      dup4\n      calldatacopy\n      dup1\n      dup3\n      add\n      swap2\n      pop\n      pop\n      swap1\n      pop\n    tag_222:\n      pop\n        /* \"v2_periphery/UniswapV2Router02Part.sol\":1949:2000  pair.swap(amount0Out, amount1Out, to, new bytes(0)) */\n      mload(0x40)\n      dup6\n      0xffffffff\n      and\n      0xe0\n      shl\n      dup2\n      mstore\n      0x04\n      add\n      tag_223\n      swap5\n      swap4\n      swap3\n      swap2\n      swap1\n      tag_224\n      jump\t// in\n    tag_223:\n      0x00\n      mload(0x40)\n      dup1\n      dup4\n      sub\n      dup2\n      0x00\n      dup8\n      dup1\n      extcodesize\n      iszero\n      dup1\n      iszero\n      tag_225\n      jumpi\n      0x00\n      dup1\n      revert\n    tag_225:\n      pop\n      gas\n      call\n      iszero\n      dup1\n      iszero\n      tag_227\n      jumpi\n      returndatasize\n      0x00\n      dup1\n      returndatacopy\n      revert(0x00, returndatasize)\n    tag_227:\n      pop\n      pop\n      pop\n      pop\n        /* \"v2_periphery/UniswapV2Router02Part.sol\":954:2012  {... */\n      pop\n      pop\n      pop\n      pop\n      pop\n      pop\n      pop\n      pop\n      pop\n        /* \"v2_periphery/UniswapV2Router02Part.sol\":949:952  i++ */\n      dup1\n      dup1\n      tag_228\n      swap1\n      tag_229\n      jump\t// in\n    tag_228:\n      swap2\n      pop\n      pop\n        /* \"v2_periphery/UniswapV2Router02Part.sol\":915:2012  for (uint i; i < path.length - 1; i++) {... */\n      jump(tag_185)\n    tag_186:\n      pop\n        /* \"v2_periphery/UniswapV2Router02Part.sol\":807:2019  function _swapSupportingFeeOnTransferTokens(address[] memory path, address _to) internal virtual {... */\n      pop\n      pop\n      jump\t// out\n        /* \"v2_periphery/libraries/TransferHelper.sol\":1622:1839  function safeTransferETH(address to, uint256 value) internal {... */\n    tag_113:\n        /* \"v2_periphery/libraries/TransferHelper.sol\":1695:1707  bool success */\n      0x00\n        /* \"v2_periphery/libraries/TransferHelper.sol\":1713:1715  to */\n      dup3\n        /* \"v2_periphery/libraries/TransferHelper.sol\":1713:1720  to.call */\n      0xffffffffffffffffffffffffffffffffffffffff\n      and\n        /* \"v2_periphery/libraries/TransferHelper.sol\":1728:1733  value */\n      dup3\n        /* \"v2_periphery/libraries/TransferHelper.sol\":1745:1746  0 */\n      0x00\n        /* \"v2_periphery/libraries/TransferHelper.sol\":1735:1747  new bytes(0) */\n      0xffffffffffffffff\n      dup2\n      gt\n      iszero\n      tag_231\n      jumpi\n      tag_232\n      tag_221\n      jump\t// in\n    tag_232:\n    tag_231:\n      mload(0x40)\n      swap1\n      dup1\n      dup3\n      mstore\n      dup1\n      0x1f\n      add\n      not(0x1f)\n      and\n      0x20\n      add\n      dup3\n      add\n      0x40\n      mstore\n      dup1\n      iszero\n      tag_233\n      jumpi\n      dup2\n      0x20\n      add\n      0x01\n      dup3\n      mul\n      dup1\n      calldatasize\n      dup4\n      calldatacopy\n      dup1\n      dup3\n      add\n      swap2\n      pop\n      pop\n      swap1\n      pop\n    tag_233:\n      pop\n        /* \"v2_periphery/libraries/TransferHelper.sol\":1713:1748  to.call{value: value}(new bytes(0)) */\n      mload(0x40)\n      tag_234\n      swap2\n      swap1\n      tag_174\n      jump\t// in\n    tag_234:\n      0x00\n      mload(0x40)\n      dup1\n      dup4\n      sub\n      dup2\n      dup6\n      dup8\n      gas\n      call\n      swap3\n      pop\n      pop\n      pop\n      returndatasize\n      dup1\n      0x00\n      dup2\n      eq\n      tag_237\n      jumpi\n      mload(0x40)\n      swap2\n      pop\n      and(add(returndatasize, 0x3f), not(0x1f))\n      dup3\n      add\n      0x40\n      mstore\n      returndatasize\n      dup3\n      mstore\n      returndatasize\n      0x00\n      0x20\n      dup5\n      add\n      returndatacopy\n      jump(tag_236)\n    tag_237:\n      0x60\n      swap2\n      pop\n    tag_236:\n      pop\n        /* \"v2_periphery/libraries/TransferHelper.sol\":1694:1748  (bool success, ) = to.call{value: value}(new bytes(0)) */\n      pop\n      swap1\n      pop\n        /* \"v2_periphery/libraries/TransferHelper.sol\":1767:1774  success */\n      dup1\n        /* \"v2_periphery/libraries/TransferHelper.sol\":1759:1831  require(success, 'TransferHelper::safeTransferETH: ETH transfer failed') */\n      tag_238\n      jumpi\n      mload(0x40)\n      0x08c379a000000000000000000000000000000000000000000000000000000000\n      dup2\n      mstore\n      0x04\n      add\n      tag_239\n      swap1\n      tag_240\n      jump\t// in\n    tag_239:\n      mload(0x40)\n      dup1\n      swap2\n      sub\n      swap1\n      revert\n    tag_238:\n        /* \"v2_periphery/libraries/TransferHelper.sol\":1683:1839  {... */\n      pop\n        /* \"v2_periphery/libraries/TransferHelper.sol\":1622:1839  function safeTransferETH(address to, uint256 value) internal {... */\n      pop\n      pop\n      jump\t// out\n        /* \"v2_periphery/libraries/UniswapV2Library.sol\":309:658  function sortTokens(address tokenA, address tokenB) internal pure returns (address token0, address token1) {... */\n    tag_165:\n        /* \"v2_periphery/libraries/UniswapV2Library.sol\":384:398  address token0 */\n      0x00\n        /* \"v2_periphery/libraries/UniswapV2Library.sol\":400:414  address token1 */\n      dup1\n        /* \"v2_periphery/libraries/UniswapV2Library.sol\":445:451  tokenB */\n      dup3\n        /* \"v2_periphery/libraries/UniswapV2Library.sol\":435:451  tokenA != tokenB */\n      0xffffffffffffffffffffffffffffffffffffffff\n      and\n        /* \"v2_periphery/libraries/UniswapV2Library.sol\":435:441  tokenA */\n      dup5\n        /* \"v2_periphery/libraries/UniswapV2Library.sol\":435:451  tokenA != tokenB */\n      0xffffffffffffffffffffffffffffffffffffffff\n      and\n      eq\n      iszero\n        /* \"v2_periphery/libraries/UniswapV2Library.sol\":427:493  require(tokenA != tokenB, 'UniswapV2Library: IDENTICAL_ADDRESSES') */\n      tag_242\n      jumpi\n      mload(0x40)\n      0x08c379a000000000000000000000000000000000000000000000000000000000\n      dup2\n      mstore\n      0x04\n      add\n      tag_243\n      swap1\n      tag_244\n      jump\t// in\n    tag_243:\n      mload(0x40)\n      dup1\n      swap2\n      sub\n      swap1\n      revert\n    tag_242:\n        /* \"v2_periphery/libraries/UniswapV2Library.sol\":532:538  tokenB */\n      dup3\n        /* \"v2_periphery/libraries/UniswapV2Library.sol\":523:538  tokenA < tokenB */\n      0xffffffffffffffffffffffffffffffffffffffff\n      and\n        /* \"v2_periphery/libraries/UniswapV2Library.sol\":523:529  tokenA */\n      dup5\n        /* \"v2_periphery/libraries/UniswapV2Library.sol\":523:538  tokenA < tokenB */\n      0xffffffffffffffffffffffffffffffffffffffff\n      and\n      lt\n        /* \"v2_periphery/libraries/UniswapV2Library.sol\":523:576  tokenA < tokenB ? (tokenA, tokenB) : (tokenB, tokenA) */\n      tag_245\n      jumpi\n        /* \"v2_periphery/libraries/UniswapV2Library.sol\":561:567  tokenB */\n      dup3\n        /* \"v2_periphery/libraries/UniswapV2Library.sol\":569:575  tokenA */\n      dup5\n        /* \"v2_periphery/libraries/UniswapV2Library.sol\":523:576  tokenA < tokenB ? (tokenA, tokenB) : (tokenB, tokenA) */\n      jump(tag_246)\n    tag_245:\n        /* \"v2_periphery/libraries/UniswapV2Library.sol\":542:548  tokenA */\n      dup4\n        /* \"v2_periphery/libraries/UniswapV2Library.sol\":550:556  tokenB */\n      dup4\n        /* \"v2_periphery/libraries/UniswapV2Library.sol\":523:576  tokenA < tokenB ? (tokenA, tokenB) : (tokenB, tokenA) */\n    tag_246:\n        /* \"v2_periphery/libraries/UniswapV2Library.sol\":504:576  (token0, token1) = tokenA < tokenB ? (tokenA, tokenB) : (tokenB, tokenA) */\n      dup1\n      swap3\n      pop\n      dup2\n      swap4\n      pop\n      pop\n      pop\n        /* \"v2_periphery/libraries/UniswapV2Library.sol\":613:614  0 */\n      0x00\n        /* \"v2_periphery/libraries/UniswapV2Library.sol\":595:615  token0 != address(0) */\n      0xffffffffffffffffffffffffffffffffffffffff\n      and\n        /* \"v2_periphery/libraries/UniswapV2Library.sol\":595:601  token0 */\n      dup3\n        /* \"v2_periphery/libraries/UniswapV2Library.sol\":595:615  token0 != address(0) */\n      0xffffffffffffffffffffffffffffffffffffffff\n      and\n      eq\n      iszero\n        /* \"v2_periphery/libraries/UniswapV2Library.sol\":587:650  require(token0 != address(0), 'UniswapV2Library: ZERO_ADDRESS') */\n      tag_247\n      jumpi\n      mload(0x40)\n      0x08c379a000000000000000000000000000000000000000000000000000000000\n      dup2\n      mstore\n      0x04\n      add\n      tag_248\n      swap1\n      tag_249\n      jump\t// in\n    tag_248:\n      mload(0x40)\n      dup1\n      swap2\n      sub\n      swap1\n      revert\n    tag_247:\n        /* \"v2_periphery/libraries/UniswapV2Library.sol\":309:658  function sortTokens(address tokenA, address tokenB) internal pure returns (address token0, address token1) {... */\n      swap3\n      pop\n      swap3\n      swap1\n      pop\n      jump\t// out\n        /* \"v2_periphery/libraries/UniswapV2Library.sol\":2241:2751  function getAmountOut(uint amountIn, uint reserveIn, uint reserveOut) internal pure returns (uint amountOut) {... */\n    tag_209:\n        /* \"v2_periphery/libraries/UniswapV2Library.sol\":2334:2348  uint amountOut */\n      0x00\n        /* \"v2_periphery/libraries/UniswapV2Library.sol\":2380:2381  0 */\n      dup1\n        /* \"v2_periphery/libraries/UniswapV2Library.sol\":2369:2377  amountIn */\n      dup5\n        /* \"v2_periphery/libraries/UniswapV2Library.sol\":2369:2381  amountIn > 0 */\n      gt\n        /* \"v2_periphery/libraries/UniswapV2Library.sol\":2361:2429  require(amountIn > 0, 'UniswapV2Library: INSUFFICIENT_INPUT_AMOUNT') */\n      tag_251\n      jumpi\n      mload(0x40)\n      0x08c379a000000000000000000000000000000000000000000000000000000000\n      dup2\n      mstore\n      0x04\n      add\n      tag_252\n      swap1\n      tag_253\n      jump\t// in\n    tag_252:\n      mload(0x40)\n      dup1\n      swap2\n      sub\n      swap1\n      revert\n    tag_251:\n        /* \"v2_periphery/libraries/UniswapV2Library.sol\":2460:2461  0 */\n      0x00\n        /* \"v2_periphery/libraries/UniswapV2Library.sol\":2448:2457  reserveIn */\n      dup4\n        /* \"v2_periphery/libraries/UniswapV2Library.sol\":2448:2461  reserveIn > 0 */\n      gt\n        /* \"v2_periphery/libraries/UniswapV2Library.sol\":2448:2479  reserveIn > 0 && reserveOut > 0 */\n      dup1\n      iszero\n      tag_254\n      jumpi\n      pop\n        /* \"v2_periphery/libraries/UniswapV2Library.sol\":2478:2479  0 */\n      0x00\n        /* \"v2_periphery/libraries/UniswapV2Library.sol\":2465:2475  reserveOut */\n      dup3\n        /* \"v2_periphery/libraries/UniswapV2Library.sol\":2465:2479  reserveOut > 0 */\n      gt\n        /* \"v2_periphery/libraries/UniswapV2Library.sol\":2448:2479  reserveIn > 0 && reserveOut > 0 */\n    tag_254:\n        /* \"v2_periphery/libraries/UniswapV2Library.sol\":2440:2524  require(reserveIn > 0 && reserveOut > 0, 'UniswapV2Library: INSUFFICIENT_LIQUIDITY') */\n      tag_255\n      jumpi\n      mload(0x40)\n      0x08c379a000000000000000000000000000000000000000000000000000000000\n      dup2\n      mstore\n      0x04\n      add\n      tag_256\n      swap1\n      tag_257\n      jump\t// in\n    tag_256:\n      mload(0x40)\n      dup1\n      swap2\n      sub\n      swap1\n      revert\n    tag_255:\n        /* \"v2_periphery/libraries/UniswapV2Library.sol\":2535:2555  uint amountInWithFee */\n      0x00\n        /* \"v2_periphery/libraries/UniswapV2Library.sol\":2569:2572  997 */\n      0x03e5\n        /* \"v2_periphery/libraries/UniswapV2Library.sol\":2558:2566  amountIn */\n      dup6\n        /* \"v2_periphery/libraries/UniswapV2Library.sol\":2558:2572  amountIn * 997 */\n      tag_258\n      swap2\n      swap1\n      tag_259\n      jump\t// in\n    tag_258:\n        /* \"v2_periphery/libraries/UniswapV2Library.sol\":2535:2572  uint amountInWithFee = amountIn * 997 */\n      swap1\n      pop\n        /* \"v2_periphery/libraries/UniswapV2Library.sol\":2584:2598  uint numerator */\n      0x00\n        /* \"v2_periphery/libraries/UniswapV2Library.sol\":2619:2629  reserveOut */\n      dup4\n        /* \"v2_periphery/libraries/UniswapV2Library.sol\":2601:2616  amountInWithFee */\n      dup3\n        /* \"v2_periphery/libraries/UniswapV2Library.sol\":2601:2629  amountInWithFee * reserveOut */\n      tag_260\n      swap2\n      swap1\n      tag_259\n      jump\t// in\n    tag_260:\n        /* \"v2_periphery/libraries/UniswapV2Library.sol\":2584:2629  uint numerator = amountInWithFee * reserveOut */\n      swap1\n      pop\n        /* \"v2_periphery/libraries/UniswapV2Library.sol\":2641:2657  uint denominator */\n      0x00\n        /* \"v2_periphery/libraries/UniswapV2Library.sol\":2681:2696  amountInWithFee */\n      dup3\n        /* \"v2_periphery/libraries/UniswapV2Library.sol\":2673:2677  1000 */\n      0x03e8\n        /* \"v2_periphery/libraries/UniswapV2Library.sol\":2661:2670  reserveIn */\n      dup8\n        /* \"v2_periphery/libraries/UniswapV2Library.sol\":2661:2677  reserveIn * 1000 */\n      tag_261\n      swap2\n      swap1\n      tag_259\n      jump\t// in\n    tag_261:\n        /* \"v2_periphery/libraries/UniswapV2Library.sol\":2660:2696  (reserveIn * 1000) + amountInWithFee */\n      tag_262\n      swap2\n      swap1\n      tag_192\n      jump\t// in\n    tag_262:\n        /* \"v2_periphery/libraries/UniswapV2Library.sol\":2641:2696  uint denominator = (reserveIn * 1000) + amountInWithFee */\n      swap1\n      pop\n        /* \"v2_periphery/libraries/UniswapV2Library.sol\":2732:2743  denominator */\n      dup1\n        /* \"v2_periphery/libraries/UniswapV2Library.sol\":2720:2729  numerator */\n      dup3\n        /* \"v2_periphery/libraries/UniswapV2Library.sol\":2720:2743  numerator / denominator */\n      tag_263\n      swap2\n      swap1\n      tag_264\n      jump\t// in\n    tag_263:\n        /* \"v2_periphery/libraries/UniswapV2Library.sol\":2708:2743  amountOut = numerator / denominator */\n      swap4\n      pop\n        /* \"v2_periphery/libraries/UniswapV2Library.sol\":2350:2751  {... */\n      pop\n      pop\n      pop\n        /* \"v2_periphery/libraries/UniswapV2Library.sol\":2241:2751  function getAmountOut(uint amountIn, uint reserveIn, uint reserveOut) internal pure returns (uint amountOut) {... */\n      swap4\n      swap3\n      pop\n      pop\n      pop\n      jump\t// out\n        /* \"#utility.yul\":88:205   */\n    tag_266:\n        /* \"#utility.yul\":197:198   */\n      0x00\n        /* \"#utility.yul\":194:195   */\n      dup1\n        /* \"#utility.yul\":187:199   */\n      revert\n        /* \"#utility.yul\":211:328   */\n    tag_267:\n        /* \"#utility.yul\":320:321   */\n      0x00\n        /* \"#utility.yul\":317:318   */\n      dup1\n        /* \"#utility.yul\":310:322   */\n      revert\n        /* \"#utility.yul\":334:411   */\n    tag_268:\n        /* \"#utility.yul\":371:378   */\n      0x00\n        /* \"#utility.yul\":400:405   */\n      dup2\n        /* \"#utility.yul\":389:405   */\n      swap1\n      pop\n        /* \"#utility.yul\":334:411   */\n      swap2\n      swap1\n      pop\n      jump\t// out\n        /* \"#utility.yul\":417:539   */\n    tag_269:\n        /* \"#utility.yul\":490:514   */\n      tag_337\n        /* \"#utility.yul\":508:513   */\n      dup2\n        /* \"#utility.yul\":490:514   */\n      tag_268\n      jump\t// in\n    tag_337:\n        /* \"#utility.yul\":483:488   */\n      dup2\n        /* \"#utility.yul\":480:515   */\n      eq\n        /* \"#utility.yul\":470:533   */\n      tag_338\n      jumpi\n        /* \"#utility.yul\":529:530   */\n      0x00\n        /* \"#utility.yul\":526:527   */\n      dup1\n        /* \"#utility.yul\":519:531   */\n      revert\n        /* \"#utility.yul\":470:533   */\n    tag_338:\n        /* \"#utility.yul\":417:539   */\n      pop\n      jump\t// out\n        /* \"#utility.yul\":545:684   */\n    tag_270:\n        /* \"#utility.yul\":591:596   */\n      0x00\n        /* \"#utility.yul\":629:635   */\n      dup2\n        /* \"#utility.yul\":616:636   */\n      calldataload\n        /* \"#utility.yul\":607:636   */\n      swap1\n      pop\n        /* \"#utility.yul\":645:678   */\n      tag_340\n        /* \"#utility.yul\":672:677   */\n      dup2\n        /* \"#utility.yul\":645:678   */\n      tag_269\n      jump\t// in\n    tag_340:\n        /* \"#utility.yul\":545:684   */\n      swap3\n      swap2\n      pop\n      pop\n      jump\t// out\n        /* \"#utility.yul\":690:807   */\n    tag_271:\n        /* \"#utility.yul\":799:800   */\n      0x00\n        /* \"#utility.yul\":796:797   */\n      dup1\n        /* \"#utility.yul\":789:801   */\n      revert\n        /* \"#utility.yul\":813:930   */\n    tag_272:\n        /* \"#utility.yul\":922:923   */\n      0x00\n        /* \"#utility.yul\":919:920   */\n      dup1\n        /* \"#utility.yul\":912:924   */\n      revert\n        /* \"#utility.yul\":936:1053   */\n    tag_273:\n        /* \"#utility.yul\":1045:1046   */\n      0x00\n        /* \"#utility.yul\":1042:1043   */\n      dup1\n        /* \"#utility.yul\":1035:1047   */\n      revert\n        /* \"#utility.yul\":1076:1644   */\n    tag_274:\n        /* \"#utility.yul\":1149:1157   */\n      0x00\n        /* \"#utility.yul\":1159:1165   */\n      dup1\n        /* \"#utility.yul\":1209:1212   */\n      dup4\n        /* \"#utility.yul\":1202:1206   */\n      0x1f\n        /* \"#utility.yul\":1194:1200   */\n      dup5\n        /* \"#utility.yul\":1190:1207   */\n      add\n        /* \"#utility.yul\":1186:1213   */\n      slt\n        /* \"#utility.yul\":1176:1298   */\n      tag_345\n      jumpi\n        /* \"#utility.yul\":1217:1296   */\n      tag_346\n      tag_271\n      jump\t// in\n    tag_346:\n        /* \"#utility.yul\":1176:1298   */\n    tag_345:\n        /* \"#utility.yul\":1330:1336   */\n      dup3\n        /* \"#utility.yul\":1317:1337   */\n      calldataload\n        /* \"#utility.yul\":1307:1337   */\n      swap1\n      pop\n        /* \"#utility.yul\":1360:1378   */\n      0xffffffffffffffff\n        /* \"#utility.yul\":1352:1358   */\n      dup2\n        /* \"#utility.yul\":1349:1379   */\n      gt\n        /* \"#utility.yul\":1346:1463   */\n      iszero\n      tag_347\n      jumpi\n        /* \"#utility.yul\":1382:1461   */\n      tag_348\n      tag_272\n      jump\t// in\n    tag_348:\n        /* \"#utility.yul\":1346:1463   */\n    tag_347:\n        /* \"#utility.yul\":1496:1500   */\n      0x20\n        /* \"#utility.yul\":1488:1494   */\n      dup4\n        /* \"#utility.yul\":1484:1501   */\n      add\n        /* \"#utility.yul\":1472:1501   */\n      swap2\n      pop\n        /* \"#utility.yul\":1550:1553   */\n      dup4\n        /* \"#utility.yul\":1542:1546   */\n      0x20\n        /* \"#utility.yul\":1534:1540   */\n      dup3\n        /* \"#utility.yul\":1530:1547   */\n      mul\n        /* \"#utility.yul\":1520:1528   */\n      dup4\n        /* \"#utility.yul\":1516:1548   */\n      add\n        /* \"#utility.yul\":1513:1554   */\n      gt\n        /* \"#utility.yul\":1510:1638   */\n      iszero\n      tag_349\n      jumpi\n        /* \"#utility.yul\":1557:1636   */\n      tag_350\n      tag_273\n      jump\t// in\n    tag_350:\n        /* \"#utility.yul\":1510:1638   */\n    tag_349:\n        /* \"#utility.yul\":1076:1644   */\n      swap3\n      pop\n      swap3\n      swap1\n      pop\n      jump\t// out\n        /* \"#utility.yul\":1650:1776   */\n    tag_275:\n        /* \"#utility.yul\":1687:1694   */\n      0x00\n        /* \"#utility.yul\":1727:1769   */\n      0xffffffffffffffffffffffffffffffffffffffff\n        /* \"#utility.yul\":1720:1725   */\n      dup3\n        /* \"#utility.yul\":1716:1770   */\n      and\n        /* \"#utility.yul\":1705:1770   */\n      swap1\n      pop\n        /* \"#utility.yul\":1650:1776   */\n      swap2\n      swap1\n      pop\n      jump\t// out\n        /* \"#utility.yul\":1782:1878   */\n    tag_276:\n        /* \"#utility.yul\":1819:1826   */\n      0x00\n        /* \"#utility.yul\":1848:1872   */\n      tag_353\n        /* \"#utility.yul\":1866:1871   */\n      dup3\n        /* \"#utility.yul\":1848:1872   */\n      tag_275\n      jump\t// in\n    tag_353:\n        /* \"#utility.yul\":1837:1872   */\n      swap1\n      pop\n        /* \"#utility.yul\":1782:1878   */\n      swap2\n      swap1\n      pop\n      jump\t// out\n        /* \"#utility.yul\":1884:2006   */\n    tag_277:\n        /* \"#utility.yul\":1957:1981   */\n      tag_355\n        /* \"#utility.yul\":1975:1980   */\n      dup2\n        /* \"#utility.yul\":1957:1981   */\n      tag_276\n      jump\t// in\n    tag_355:\n        /* \"#utility.yul\":1950:1955   */\n      dup2\n        /* \"#utility.yul\":1947:1982   */\n      eq\n        /* \"#utility.yul\":1937:2000   */\n      tag_356\n      jumpi\n        /* \"#utility.yul\":1996:1997   */\n      0x00\n        /* \"#utility.yul\":1993:1994   */\n      dup1\n        /* \"#utility.yul\":1986:1998   */\n      revert\n        /* \"#utility.yul\":1937:2000   */\n    tag_356:\n        /* \"#utility.yul\":1884:2006   */\n      pop\n      jump\t// out\n        /* \"#utility.yul\":2012:2151   */\n    tag_278:\n        /* \"#utility.yul\":2058:2063   */\n      0x00\n        /* \"#utility.yul\":2096:2102   */\n      dup2\n        /* \"#utility.yul\":2083:2103   */\n      calldataload\n        /* \"#utility.yul\":2074:2103   */\n      swap1\n      pop\n        /* \"#utility.yul\":2112:2145   */\n      tag_358\n        /* \"#utility.yul\":2139:2144   */\n      dup2\n        /* \"#utility.yul\":2112:2145   */\n      tag_277\n      jump\t// in\n    tag_358:\n        /* \"#utility.yul\":2012:2151   */\n      swap3\n      swap2\n      pop\n      pop\n      jump\t// out\n        /* \"#utility.yul\":2157:3298   */\n    tag_11:\n        /* \"#utility.yul\":2279:2285   */\n      0x00\n        /* \"#utility.yul\":2287:2293   */\n      dup1\n        /* \"#utility.yul\":2295:2301   */\n      0x00\n        /* \"#utility.yul\":2303:2309   */\n      dup1\n        /* \"#utility.yul\":2311:2317   */\n      0x00\n        /* \"#utility.yul\":2319:2325   */\n      dup1\n        /* \"#utility.yul\":2368:2371   */\n      0xa0\n        /* \"#utility.yul\":2356:2365   */\n      dup8\n        /* \"#utility.yul\":2347:2354   */\n      dup10\n        /* \"#utility.yul\":2343:2366   */\n      sub\n        /* \"#utility.yul\":2339:2372   */\n      slt\n        /* \"#utility.yul\":2336:2456   */\n      iszero\n      tag_360\n      jumpi\n        /* \"#utility.yul\":2375:2454   */\n      tag_361\n      tag_266\n      jump\t// in\n    tag_361:\n        /* \"#utility.yul\":2336:2456   */\n    tag_360:\n        /* \"#utility.yul\":2495:2496   */\n      0x00\n        /* \"#utility.yul\":2520:2573   */\n      tag_362\n        /* \"#utility.yul\":2565:2572   */\n      dup10\n        /* \"#utility.yul\":2556:2562   */\n      dup3\n        /* \"#utility.yul\":2545:2554   */\n      dup11\n        /* \"#utility.yul\":2541:2563   */\n      add\n        /* \"#utility.yul\":2520:2573   */\n      tag_270\n      jump\t// in\n    tag_362:\n        /* \"#utility.yul\":2510:2573   */\n      swap7\n      pop\n        /* \"#utility.yul\":2466:2583   */\n      pop\n        /* \"#utility.yul\":2622:2624   */\n      0x20\n        /* \"#utility.yul\":2648:2701   */\n      tag_363\n        /* \"#utility.yul\":2693:2700   */\n      dup10\n        /* \"#utility.yul\":2684:2690   */\n      dup3\n        /* \"#utility.yul\":2673:2682   */\n      dup11\n        /* \"#utility.yul\":2669:2691   */\n      add\n        /* \"#utility.yul\":2648:2701   */\n      tag_270\n      jump\t// in\n    tag_363:\n        /* \"#utility.yul\":2638:2701   */\n      swap6\n      pop\n        /* \"#utility.yul\":2593:2711   */\n      pop\n        /* \"#utility.yul\":2778:2780   */\n      0x40\n        /* \"#utility.yul\":2767:2776   */\n      dup8\n        /* \"#utility.yul\":2763:2781   */\n      add\n        /* \"#utility.yul\":2750:2782   */\n      calldataload\n        /* \"#utility.yul\":2809:2827   */\n      0xffffffffffffffff\n        /* \"#utility.yul\":2801:2807   */\n      dup2\n        /* \"#utility.yul\":2798:2828   */\n      gt\n        /* \"#utility.yul\":2795:2912   */\n      iszero\n      tag_364\n      jumpi\n        /* \"#utility.yul\":2831:2910   */\n      tag_365\n      tag_267\n      jump\t// in\n    tag_365:\n        /* \"#utility.yul\":2795:2912   */\n    tag_364:\n        /* \"#utility.yul\":2944:3024   */\n      tag_366\n        /* \"#utility.yul\":3016:3023   */\n      dup10\n        /* \"#utility.yul\":3007:3013   */\n      dup3\n        /* \"#utility.yul\":2996:3005   */\n      dup11\n        /* \"#utility.yul\":2992:3014   */\n      add\n        /* \"#utility.yul\":2944:3024   */\n      tag_274\n      jump\t// in\n    tag_366:\n        /* \"#utility.yul\":2926:3024   */\n      swap5\n      pop\n      swap5\n      pop\n        /* \"#utility.yul\":2721:3034   */\n      pop\n        /* \"#utility.yul\":3073:3075   */\n      0x60\n        /* \"#utility.yul\":3099:3152   */\n      tag_367\n        /* \"#utility.yul\":3144:3151   */\n      dup10\n        /* \"#utility.yul\":3135:3141   */\n      dup3\n        /* \"#utility.yul\":3124:3133   */\n      dup11\n        /* \"#utility.yul\":3120:3142   */\n      add\n        /* \"#utility.yul\":3099:3152   */\n      tag_278\n      jump\t// in\n    tag_367:\n        /* \"#utility.yul\":3089:3152   */\n      swap3\n      pop\n        /* \"#utility.yul\":3044:3162   */\n      pop\n        /* \"#utility.yul\":3201:3204   */\n      0x80\n        /* \"#utility.yul\":3228:3281   */\n      tag_368\n        /* \"#utility.yul\":3273:3280   */\n      dup10\n        /* \"#utility.yul\":3264:3270   */\n      dup3\n        /* \"#utility.yul\":3253:3262   */\n      dup11\n        /* \"#utility.yul\":3249:3271   */\n      add\n        /* \"#utility.yul\":3228:3281   */\n      tag_270\n      jump\t// in\n    tag_368:\n        /* \"#utility.yul\":3218:3281   */\n      swap2\n      pop\n        /* \"#utility.yul\":3172:3291   */\n      pop\n        /* \"#utility.yul\":2157:3298   */\n      swap3\n      swap6\n      pop\n      swap3\n      swap6\n      pop\n      swap3\n      swap6\n      jump\t// out\n        /* \"#utility.yul\":3304:3633   */\n    tag_20:\n        /* \"#utility.yul\":3363:3369   */\n      0x00\n        /* \"#utility.yul\":3412:3414   */\n      0x20\n        /* \"#utility.yul\":3400:3409   */\n      dup3\n        /* \"#utility.yul\":3391:3398   */\n      dup5\n        /* \"#utility.yul\":3387:3410   */\n      sub\n        /* \"#utility.yul\":3383:3415   */\n      slt\n        /* \"#utility.yul\":3380:3499   */\n      iszero\n      tag_370\n      jumpi\n        /* \"#utility.yul\":3418:3497   */\n      tag_371\n      tag_266\n      jump\t// in\n    tag_371:\n        /* \"#utility.yul\":3380:3499   */\n    tag_370:\n        /* \"#utility.yul\":3538:3539   */\n      0x00\n        /* \"#utility.yul\":3563:3616   */\n      tag_372\n        /* \"#utility.yul\":3608:3615   */\n      dup5\n        /* \"#utility.yul\":3599:3605   */\n      dup3\n        /* \"#utility.yul\":3588:3597   */\n      dup6\n        /* \"#utility.yul\":3584:3606   */\n      add\n        /* \"#utility.yul\":3563:3616   */\n      tag_278\n      jump\t// in\n    tag_372:\n        /* \"#utility.yul\":3553:3616   */\n      swap2\n      pop\n        /* \"#utility.yul\":3509:3626   */\n      pop\n        /* \"#utility.yul\":3304:3633   */\n      swap3\n      swap2\n      pop\n      pop\n      jump\t// out\n        /* \"#utility.yul\":3639:3757   */\n    tag_279:\n        /* \"#utility.yul\":3726:3750   */\n      tag_374\n        /* \"#utility.yul\":3744:3749   */\n      dup2\n        /* \"#utility.yul\":3726:3750   */\n      tag_276\n      jump\t// in\n    tag_374:\n        /* \"#utility.yul\":3721:3724   */\n      dup3\n        /* \"#utility.yul\":3714:3751   */\n      mstore\n        /* \"#utility.yul\":3639:3757   */\n      pop\n      pop\n      jump\t// out\n        /* \"#utility.yul\":3763:3985   */\n    tag_26:\n        /* \"#utility.yul\":3856:3860   */\n      0x00\n        /* \"#utility.yul\":3894:3896   */\n      0x20\n        /* \"#utility.yul\":3883:3892   */\n      dup3\n        /* \"#utility.yul\":3879:3897   */\n      add\n        /* \"#utility.yul\":3871:3897   */\n      swap1\n      pop\n        /* \"#utility.yul\":3907:3978   */\n      tag_376\n        /* \"#utility.yul\":3975:3976   */\n      0x00\n        /* \"#utility.yul\":3964:3973   */\n      dup4\n        /* \"#utility.yul\":3960:3977   */\n      add\n        /* \"#utility.yul\":3951:3957   */\n      dup5\n        /* \"#utility.yul\":3907:3978   */\n      tag_279\n      jump\t// in\n    tag_376:\n        /* \"#utility.yul\":3763:3985   */\n      swap3\n      swap2\n      pop\n      pop\n      jump\t// out\n        /* \"#utility.yul\":3991:4986   */\n    tag_29:\n        /* \"#utility.yul\":4104:4110   */\n      0x00\n        /* \"#utility.yul\":4112:4118   */\n      dup1\n        /* \"#utility.yul\":4120:4126   */\n      0x00\n        /* \"#utility.yul\":4128:4134   */\n      dup1\n        /* \"#utility.yul\":4136:4142   */\n      0x00\n        /* \"#utility.yul\":4185:4188   */\n      0x80\n        /* \"#utility.yul\":4173:4182   */\n      dup7\n        /* \"#utility.yul\":4164:4171   */\n      dup9\n        /* \"#utility.yul\":4160:4183   */\n      sub\n        /* \"#utility.yul\":4156:4189   */\n      slt\n        /* \"#utility.yul\":4153:4273   */\n      iszero\n      tag_378\n      jumpi\n        /* \"#utility.yul\":4192:4271   */\n      tag_379\n      tag_266\n      jump\t// in\n    tag_379:\n        /* \"#utility.yul\":4153:4273   */\n    tag_378:\n        /* \"#utility.yul\":4312:4313   */\n      0x00\n        /* \"#utility.yul\":4337:4390   */\n      tag_380\n        /* \"#utility.yul\":4382:4389   */\n      dup9\n        /* \"#utility.yul\":4373:4379   */\n      dup3\n        /* \"#utility.yul\":4362:4371   */\n      dup10\n        /* \"#utility.yul\":4358:4380   */\n      add\n        /* \"#utility.yul\":4337:4390   */\n      tag_270\n      jump\t// in\n    tag_380:\n        /* \"#utility.yul\":4327:4390   */\n      swap6\n      pop\n        /* \"#utility.yul\":4283:4400   */\n      pop\n        /* \"#utility.yul\":4467:4469   */\n      0x20\n        /* \"#utility.yul\":4456:4465   */\n      dup7\n        /* \"#utility.yul\":4452:4470   */\n      add\n        /* \"#utility.yul\":4439:4471   */\n      calldataload\n        /* \"#utility.yul\":4498:4516   */\n      0xffffffffffffffff\n        /* \"#utility.yul\":4490:4496   */\n      dup2\n        /* \"#utility.yul\":4487:4517   */\n      gt\n        /* \"#utility.yul\":4484:4601   */\n      iszero\n      tag_381\n      jumpi\n        /* \"#utility.yul\":4520:4599   */\n      tag_382\n      tag_267\n      jump\t// in\n    tag_382:\n        /* \"#utility.yul\":4484:4601   */\n    tag_381:\n        /* \"#utility.yul\":4633:4713   */\n      tag_383\n        /* \"#utility.yul\":4705:4712   */\n      dup9\n        /* \"#utility.yul\":4696:4702   */\n      dup3\n        /* \"#utility.yul\":4685:4694   */\n      dup10\n        /* \"#utility.yul\":4681:4703   */\n      add\n        /* \"#utility.yul\":4633:4713   */\n      tag_274\n      jump\t// in\n    tag_383:\n        /* \"#utility.yul\":4615:4713   */\n      swap5\n      pop\n      swap5\n      pop\n        /* \"#utility.yul\":4410:4723   */\n      pop\n        /* \"#utility.yul\":4762:4764   */\n      0x40\n        /* \"#utility.yul\":4788:4841   */\n      tag_384\n        /* \"#utility.yul\":4833:4840   */\n      dup9\n        /* \"#utility.yul\":4824:4830   */\n      dup3\n        /* \"#utility.yul\":4813:4822   */\n      dup10\n        /* \"#utility.yul\":4809:4831   */\n      add\n        /* \"#utility.yul\":4788:4841   */\n      tag_278\n      jump\t// in\n    tag_384:\n        /* \"#utility.yul\":4778:4841   */\n      swap3\n      pop\n        /* \"#utility.yul\":4733:4851   */\n      pop\n        /* \"#utility.yul\":4890:4892   */\n      0x60\n        /* \"#utility.yul\":4916:4969   */\n      tag_385\n        /* \"#utility.yul\":4961:4968   */\n      dup9\n        /* \"#utility.yul\":4952:4958   */\n      dup3\n        /* \"#utility.yul\":4941:4950   */\n      dup10\n        /* \"#utility.yul\":4937:4959   */\n      add\n        /* \"#utility.yul\":4916:4969   */\n      tag_270\n      jump\t// in\n    tag_385:\n        /* \"#utility.yul\":4906:4969   */\n      swap2\n      pop\n        /* \"#utility.yul\":4861:4979   */\n      pop\n        /* \"#utility.yul\":3991:4986   */\n      swap3\n      swap6\n      pop\n      swap3\n      swap6\n      swap1\n      swap4\n      pop\n      jump\t// out\n        /* \"#utility.yul\":4992:5161   */\n    tag_280:\n        /* \"#utility.yul\":5076:5087   */\n      0x00\n        /* \"#utility.yul\":5110:5116   */\n      dup3\n        /* \"#utility.yul\":5105:5108   */\n      dup3\n        /* \"#utility.yul\":5098:5117   */\n      mstore\n        /* \"#utility.yul\":5150:5154   */\n      0x20\n        /* \"#utility.yul\":5145:5148   */\n      dup3\n        /* \"#utility.yul\":5141:5155   */\n      add\n        /* \"#utility.yul\":5126:5155   */\n      swap1\n      pop\n        /* \"#utility.yul\":4992:5161   */\n      swap3\n      swap2\n      pop\n      pop\n      jump\t// out\n        /* \"#utility.yul\":5167:5341   */\n    tag_281:\n        /* \"#utility.yul\":5307:5333   */\n      0x556e69737761705632526f757465723a20455850495245440000000000000000\n        /* \"#utility.yul\":5303:5304   */\n      0x00\n        /* \"#utility.yul\":5295:5301   */\n      dup3\n        /* \"#utility.yul\":5291:5305   */\n      add\n        /* \"#utility.yul\":5284:5334   */\n      mstore\n        /* \"#utility.yul\":5167:5341   */\n      pop\n      jump\t// out\n        /* \"#utility.yul\":5347:5713   */\n    tag_282:\n        /* \"#utility.yul\":5489:5492   */\n      0x00\n        /* \"#utility.yul\":5510:5577   */\n      tag_389\n        /* \"#utility.yul\":5574:5576   */\n      0x18\n        /* \"#utility.yul\":5569:5572   */\n      dup4\n        /* \"#utility.yul\":5510:5577   */\n      tag_280\n      jump\t// in\n    tag_389:\n        /* \"#utility.yul\":5503:5577   */\n      swap2\n      pop\n        /* \"#utility.yul\":5586:5679   */\n      tag_390\n        /* \"#utility.yul\":5675:5678   */\n      dup3\n        /* \"#utility.yul\":5586:5679   */\n      tag_281\n      jump\t// in\n    tag_390:\n        /* \"#utility.yul\":5704:5706   */\n      0x20\n        /* \"#utility.yul\":5699:5702   */\n      dup3\n        /* \"#utility.yul\":5695:5707   */\n      add\n        /* \"#utility.yul\":5688:5707   */\n      swap1\n      pop\n        /* \"#utility.yul\":5347:5713   */\n      swap2\n      swap1\n      pop\n      jump\t// out\n        /* \"#utility.yul\":5719:6138   */\n    tag_38:\n        /* \"#utility.yul\":5885:5889   */\n      0x00\n        /* \"#utility.yul\":5923:5925   */\n      0x20\n        /* \"#utility.yul\":5912:5921   */\n      dup3\n        /* \"#utility.yul\":5908:5926   */\n      add\n        /* \"#utility.yul\":5900:5926   */\n      swap1\n      pop\n        /* \"#utility.yul\":5972:5981   */\n      dup2\n        /* \"#utility.yul\":5966:5970   */\n      dup2\n        /* \"#utility.yul\":5962:5982   */\n      sub\n        /* \"#utility.yul\":5958:5959   */\n      0x00\n        /* \"#utility.yul\":5947:5956   */\n      dup4\n        /* \"#utility.yul\":5943:5960   */\n      add\n        /* \"#utility.yul\":5936:5983   */\n      mstore\n        /* \"#utility.yul\":6000:6131   */\n      tag_392\n        /* \"#utility.yul\":6126:6130   */\n      dup2\n        /* \"#utility.yul\":6000:6131   */\n      tag_282\n      jump\t// in\n    tag_392:\n        /* \"#utility.yul\":5992:6131   */\n      swap1\n      pop\n        /* \"#utility.yul\":5719:6138   */\n      swap2\n      swap1\n      pop\n      jump\t// out\n        /* \"#utility.yul\":6144:6324   */\n    tag_43:\n        /* \"#utility.yul\":6192:6269   */\n      0x4e487b7100000000000000000000000000000000000000000000000000000000\n        /* \"#utility.yul\":6189:6190   */\n      0x00\n        /* \"#utility.yul\":6182:6270   */\n      mstore\n        /* \"#utility.yul\":6289:6293   */\n      0x32\n        /* \"#utility.yul\":6286:6287   */\n      0x04\n        /* \"#utility.yul\":6279:6294   */\n      mstore\n        /* \"#utility.yul\":6313:6317   */\n      0x24\n        /* \"#utility.yul\":6310:6311   */\n      0x00\n        /* \"#utility.yul\":6303:6318   */\n      revert\n        /* \"#utility.yul\":6330:6510   */\n    tag_283:\n        /* \"#utility.yul\":6378:6455   */\n      0x4e487b7100000000000000000000000000000000000000000000000000000000\n        /* \"#utility.yul\":6375:6376   */\n      0x00\n        /* \"#utility.yul\":6368:6456   */\n      mstore\n        /* \"#utility.yul\":6475:6479   */\n      0x11\n        /* \"#utility.yul\":6472:6473   */\n      0x04\n        /* \"#utility.yul\":6465:6480   */\n      mstore\n        /* \"#utility.yul\":6499:6503   */\n      0x24\n        /* \"#utility.yul\":6496:6497   */\n      0x00\n        /* \"#utility.yul\":6489:6504   */\n      revert\n        /* \"#utility.yul\":6516:6707   */\n    tag_55:\n        /* \"#utility.yul\":6556:6560   */\n      0x00\n        /* \"#utility.yul\":6576:6596   */\n      tag_396\n        /* \"#utility.yul\":6594:6595   */\n      dup3\n        /* \"#utility.yul\":6576:6596   */\n      tag_268\n      jump\t// in\n    tag_396:\n        /* \"#utility.yul\":6571:6596   */\n      swap2\n      pop\n        /* \"#utility.yul\":6610:6630   */\n      tag_397\n        /* \"#utility.yul\":6628:6629   */\n      dup4\n        /* \"#utility.yul\":6610:6630   */\n      tag_268\n      jump\t// in\n    tag_397:\n        /* \"#utility.yul\":6605:6630   */\n      swap3\n      pop\n        /* \"#utility.yul\":6649:6650   */\n      dup3\n        /* \"#utility.yul\":6646:6647   */\n      dup3\n        /* \"#utility.yul\":6643:6651   */\n      lt\n        /* \"#utility.yul\":6640:6674   */\n      iszero\n      tag_398\n      jumpi\n        /* \"#utility.yul\":6654:6672   */\n      tag_399\n      tag_283\n      jump\t// in\n    tag_399:\n        /* \"#utility.yul\":6640:6674   */\n    tag_398:\n        /* \"#utility.yul\":6699:6700   */\n      dup3\n        /* \"#utility.yul\":6696:6697   */\n      dup3\n        /* \"#utility.yul\":6692:6701   */\n      sub\n        /* \"#utility.yul\":6684:6701   */\n      swap1\n      pop\n        /* \"#utility.yul\":6516:6707   */\n      swap3\n      swap2\n      pop\n      pop\n      jump\t// out\n        /* \"#utility.yul\":6713:6856   */\n    tag_284:\n        /* \"#utility.yul\":6770:6775   */\n      0x00\n        /* \"#utility.yul\":6801:6807   */\n      dup2\n        /* \"#utility.yul\":6795:6808   */\n      mload\n        /* \"#utility.yul\":6786:6808   */\n      swap1\n      pop\n        /* \"#utility.yul\":6817:6850   */\n      tag_401\n        /* \"#utility.yul\":6844:6849   */\n      dup2\n        /* \"#utility.yul\":6817:6850   */\n      tag_269\n      jump\t// in\n    tag_401:\n        /* \"#utility.yul\":6713:6856   */\n      swap3\n      swap2\n      pop\n      pop\n      jump\t// out\n        /* \"#utility.yul\":6862:7213   */\n    tag_63:\n        /* \"#utility.yul\":6932:6938   */\n      0x00\n        /* \"#utility.yul\":6981:6983   */\n      0x20\n        /* \"#utility.yul\":6969:6978   */\n      dup3\n        /* \"#utility.yul\":6960:6967   */\n      dup5\n        /* \"#utility.yul\":6956:6979   */\n      sub\n        /* \"#utility.yul\":6952:6984   */\n      slt\n        /* \"#utility.yul\":6949:7068   */\n      iszero\n      tag_403\n      jumpi\n        /* \"#utility.yul\":6987:7066   */\n      tag_404\n      tag_266\n      jump\t// in\n    tag_404:\n        /* \"#utility.yul\":6949:7068   */\n    tag_403:\n        /* \"#utility.yul\":7107:7108   */\n      0x00\n        /* \"#utility.yul\":7132:7196   */\n      tag_405\n        /* \"#utility.yul\":7188:7195   */\n      dup5\n        /* \"#utility.yul\":7179:7185   */\n      dup3\n        /* \"#utility.yul\":7168:7177   */\n      dup6\n        /* \"#utility.yul\":7164:7186   */\n      add\n        /* \"#utility.yul\":7132:7196   */\n      tag_284\n      jump\t// in\n    tag_405:\n        /* \"#utility.yul\":7122:7196   */\n      swap2\n      pop\n        /* \"#utility.yul\":7078:7206   */\n      pop\n        /* \"#utility.yul\":6862:7213   */\n      swap3\n      swap2\n      pop\n      pop\n      jump\t// out\n        /* \"#utility.yul\":7219:7449   */\n    tag_285:\n        /* \"#utility.yul\":7359:7393   */\n      0x556e69737761705632526f757465723a20494e53554646494349454e545f4f55\n        /* \"#utility.yul\":7355:7356   */\n      0x00\n        /* \"#utility.yul\":7347:7353   */\n      dup3\n        /* \"#utility.yul\":7343:7357   */\n      add\n        /* \"#utility.yul\":7336:7394   */\n      mstore\n        /* \"#utility.yul\":7428:7441   */\n      0x545055545f414d4f554e54000000000000000000000000000000000000000000\n        /* \"#utility.yul\":7423:7425   */\n      0x20\n        /* \"#utility.yul\":7415:7421   */\n      dup3\n        /* \"#utility.yul\":7411:7426   */\n      add\n        /* \"#utility.yul\":7404:7442   */\n      mstore\n        /* \"#utility.yul\":7219:7449   */\n      pop\n      jump\t// out\n        /* \"#utility.yul\":7455:7821   */\n    tag_286:\n        /* \"#utility.yul\":7597:7600   */\n      0x00\n        /* \"#utility.yul\":7618:7685   */\n      tag_408\n        /* \"#utility.yul\":7682:7684   */\n      0x2b\n        /* \"#utility.yul\":7677:7680   */\n      dup4\n        /* \"#utility.yul\":7618:7685   */\n      tag_280\n      jump\t// in\n    tag_408:\n        /* \"#utility.yul\":7611:7685   */\n      swap2\n      pop\n        /* \"#utility.yul\":7694:7787   */\n      tag_409\n        /* \"#utility.yul\":7783:7786   */\n      dup3\n        /* \"#utility.yul\":7694:7787   */\n      tag_285\n      jump\t// in\n    tag_409:\n        /* \"#utility.yul\":7812:7814   */\n      0x40\n        /* \"#utility.yul\":7807:7810   */\n      dup3\n        /* \"#utility.yul\":7803:7815   */\n      add\n        /* \"#utility.yul\":7796:7815   */\n      swap1\n      pop\n        /* \"#utility.yul\":7455:7821   */\n      swap2\n      swap1\n      pop\n      jump\t// out\n        /* \"#utility.yul\":7827:8246   */\n    tag_77:\n        /* \"#utility.yul\":7993:7997   */\n      0x00\n        /* \"#utility.yul\":8031:8033   */\n      0x20\n        /* \"#utility.yul\":8020:8029   */\n      dup3\n        /* \"#utility.yul\":8016:8034   */\n      add\n        /* \"#utility.yul\":8008:8034   */\n      swap1\n      pop\n        /* \"#utility.yul\":8080:8089   */\n      dup2\n        /* \"#utility.yul\":8074:8078   */\n      dup2\n        /* \"#utility.yul\":8070:8090   */\n      sub\n        /* \"#utility.yul\":8066:8067   */\n      0x00\n        /* \"#utility.yul\":8055:8064   */\n      dup4\n        /* \"#utility.yul\":8051:8068   */\n      add\n        /* \"#utility.yul\":8044:8091   */\n      mstore\n        /* \"#utility.yul\":8108:8239   */\n      tag_411\n        /* \"#utility.yul\":8234:8238   */\n      dup2\n        /* \"#utility.yul\":8108:8239   */\n      tag_286\n      jump\t// in\n    tag_411:\n        /* \"#utility.yul\":8100:8239   */\n      swap1\n      pop\n        /* \"#utility.yul\":7827:8246   */\n      swap2\n      swap1\n      pop\n      jump\t// out\n        /* \"#utility.yul\":8252:8431   */\n    tag_287:\n        /* \"#utility.yul\":8392:8423   */\n      0x556e69737761705632526f757465723a20494e56414c49445f50415448000000\n        /* \"#utility.yul\":8388:8389   */\n      0x00\n        /* \"#utility.yul\":8380:8386   */\n      dup3\n        /* \"#utility.yul\":8376:8390   */\n      add\n        /* \"#utility.yul\":8369:8424   */\n      mstore\n        /* \"#utility.yul\":8252:8431   */\n      pop\n      jump\t// out\n        /* \"#utility.yul\":8437:8803   */\n    tag_288:\n        /* \"#utility.yul\":8579:8582   */\n      0x00\n        /* \"#utility.yul\":8600:8667   */\n      tag_414\n        /* \"#utility.yul\":8664:8666   */\n      0x1d\n        /* \"#utility.yul\":8659:8662   */\n      dup4\n        /* \"#utility.yul\":8600:8667   */\n      tag_280\n      jump\t// in\n    tag_414:\n        /* \"#utility.yul\":8593:8667   */\n      swap2\n      pop\n        /* \"#utility.yul\":8676:8769   */\n      tag_415\n        /* \"#utility.yul\":8765:8768   */\n      dup3\n        /* \"#utility.yul\":8676:8769   */\n      tag_287\n      jump\t// in\n    tag_415:\n        /* \"#utility.yul\":8794:8796   */\n      0x20\n        /* \"#utility.yul\":8789:8792   */\n      dup3\n        /* \"#utility.yul\":8785:8797   */\n      add\n        /* \"#utility.yul\":8778:8797   */\n      swap1\n      pop\n        /* \"#utility.yul\":8437:8803   */\n      swap2\n      swap1\n      pop\n      jump\t// out\n        /* \"#utility.yul\":8809:9228   */\n    tag_88:\n        /* \"#utility.yul\":8975:8979   */\n      0x00\n        /* \"#utility.yul\":9013:9015   */\n      0x20\n        /* \"#utility.yul\":9002:9011   */\n      dup3\n        /* \"#utility.yul\":8998:9016   */\n      add\n        /* \"#utility.yul\":8990:9016   */\n      swap1\n      pop\n        /* \"#utility.yul\":9062:9071   */\n      dup2\n        /* \"#utility.yul\":9056:9060   */\n      dup2\n        /* \"#utility.yul\":9052:9072   */\n      sub\n        /* \"#utility.yul\":9048:9049   */\n      0x00\n        /* \"#utility.yul\":9037:9046   */\n      dup4\n        /* \"#utility.yul\":9033:9050   */\n      add\n        /* \"#utility.yul\":9026:9073   */\n      mstore\n        /* \"#utility.yul\":9090:9221   */\n      tag_417\n        /* \"#utility.yul\":9216:9220   */\n      dup2\n        /* \"#utility.yul\":9090:9221   */\n      tag_288\n      jump\t// in\n    tag_417:\n        /* \"#utility.yul\":9082:9221   */\n      swap1\n      pop\n        /* \"#utility.yul\":8809:9228   */\n      swap2\n      swap1\n      pop\n      jump\t// out\n        /* \"#utility.yul\":9234:9352   */\n    tag_289:\n        /* \"#utility.yul\":9321:9345   */\n      tag_419\n        /* \"#utility.yul\":9339:9344   */\n      dup2\n        /* \"#utility.yul\":9321:9345   */\n      tag_268\n      jump\t// in\n    tag_419:\n        /* \"#utility.yul\":9316:9319   */\n      dup3\n        /* \"#utility.yul\":9309:9346   */\n      mstore\n        /* \"#utility.yul\":9234:9352   */\n      pop\n      pop\n      jump\t// out\n        /* \"#utility.yul\":9358:9580   */\n    tag_108:\n        /* \"#utility.yul\":9451:9455   */\n      0x00\n        /* \"#utility.yul\":9489:9491   */\n      0x20\n        /* \"#utility.yul\":9478:9487   */\n      dup3\n        /* \"#utility.yul\":9474:9492   */\n      add\n        /* \"#utility.yul\":9466:9492   */\n      swap1\n      pop\n        /* \"#utility.yul\":9502:9573   */\n      tag_421\n        /* \"#utility.yul\":9570:9571   */\n      0x00\n        /* \"#utility.yul\":9559:9568   */\n      dup4\n        /* \"#utility.yul\":9555:9572   */\n      add\n        /* \"#utility.yul\":9546:9552   */\n      dup5\n        /* \"#utility.yul\":9502:9573   */\n      tag_289\n      jump\t// in\n    tag_421:\n        /* \"#utility.yul\":9358:9580   */\n      swap3\n      swap2\n      pop\n      pop\n      jump\t// out\n        /* \"#utility.yul\":9586:9918   */\n    tag_135:\n        /* \"#utility.yul\":9707:9711   */\n      0x00\n        /* \"#utility.yul\":9745:9747   */\n      0x40\n        /* \"#utility.yul\":9734:9743   */\n      dup3\n        /* \"#utility.yul\":9730:9748   */\n      add\n        /* \"#utility.yul\":9722:9748   */\n      swap1\n      pop\n        /* \"#utility.yul\":9758:9829   */\n      tag_423\n        /* \"#utility.yul\":9826:9827   */\n      0x00\n        /* \"#utility.yul\":9815:9824   */\n      dup4\n        /* \"#utility.yul\":9811:9828   */\n      add\n        /* \"#utility.yul\":9802:9808   */\n      dup6\n        /* \"#utility.yul\":9758:9829   */\n      tag_279\n      jump\t// in\n    tag_423:\n        /* \"#utility.yul\":9839:9911   */\n      tag_424\n        /* \"#utility.yul\":9907:9909   */\n      0x20\n        /* \"#utility.yul\":9896:9905   */\n      dup4\n        /* \"#utility.yul\":9892:9910   */\n      add\n        /* \"#utility.yul\":9883:9889   */\n      dup5\n        /* \"#utility.yul\":9839:9911   */\n      tag_289\n      jump\t// in\n    tag_424:\n        /* \"#utility.yul\":9586:9918   */\n      swap4\n      swap3\n      pop\n      pop\n      pop\n      jump\t// out\n        /* \"#utility.yul\":9924:10014   */\n    tag_290:\n        /* \"#utility.yul\":9958:9965   */\n      0x00\n        /* \"#utility.yul\":10001:10006   */\n      dup2\n        /* \"#utility.yul\":9994:10007   */\n      iszero\n        /* \"#utility.yul\":9987:10008   */\n      iszero\n        /* \"#utility.yul\":9976:10008   */\n      swap1\n      pop\n        /* \"#utility.yul\":9924:10014   */\n      swap2\n      swap1\n      pop\n      jump\t// out\n        /* \"#utility.yul\":10020:10136   */\n    tag_291:\n        /* \"#utility.yul\":10090:10111   */\n      tag_427\n        /* \"#utility.yul\":10105:10110   */\n      dup2\n        /* \"#utility.yul\":10090:10111   */\n      tag_290\n      jump\t// in\n    tag_427:\n        /* \"#utility.yul\":10083:10088   */\n      dup2\n        /* \"#utility.yul\":10080:10112   */\n      eq\n        /* \"#utility.yul\":10070:10130   */\n      tag_428\n      jumpi\n        /* \"#utility.yul\":10126:10127   */\n      0x00\n        /* \"#utility.yul\":10123:10124   */\n      dup1\n        /* \"#utility.yul\":10116:10128   */\n      revert\n        /* \"#utility.yul\":10070:10130   */\n    tag_428:\n        /* \"#utility.yul\":10020:10136   */\n      pop\n      jump\t// out\n        /* \"#utility.yul\":10142:10279   */\n    tag_292:\n        /* \"#utility.yul\":10196:10201   */\n      0x00\n        /* \"#utility.yul\":10227:10233   */\n      dup2\n        /* \"#utility.yul\":10221:10234   */\n      mload\n        /* \"#utility.yul\":10212:10234   */\n      swap1\n      pop\n        /* \"#utility.yul\":10243:10273   */\n      tag_430\n        /* \"#utility.yul\":10267:10272   */\n      dup2\n        /* \"#utility.yul\":10243:10273   */\n      tag_291\n      jump\t// in\n    tag_430:\n        /* \"#utility.yul\":10142:10279   */\n      swap3\n      swap2\n      pop\n      pop\n      jump\t// out\n        /* \"#utility.yul\":10285:10630   */\n    tag_139:\n        /* \"#utility.yul\":10352:10358   */\n      0x00\n        /* \"#utility.yul\":10401:10403   */\n      0x20\n        /* \"#utility.yul\":10389:10398   */\n      dup3\n        /* \"#utility.yul\":10380:10387   */\n      dup5\n        /* \"#utility.yul\":10376:10399   */\n      sub\n        /* \"#utility.yul\":10372:10404   */\n      slt\n        /* \"#utility.yul\":10369:10488   */\n      iszero\n      tag_432\n      jumpi\n        /* \"#utility.yul\":10407:10486   */\n      tag_433\n      tag_266\n      jump\t// in\n    tag_433:\n        /* \"#utility.yul\":10369:10488   */\n    tag_432:\n        /* \"#utility.yul\":10527:10528   */\n      0x00\n        /* \"#utility.yul\":10552:10613   */\n      tag_434\n        /* \"#utility.yul\":10605:10612   */\n      dup5\n        /* \"#utility.yul\":10596:10602   */\n      dup3\n        /* \"#utility.yul\":10585:10594   */\n      dup6\n        /* \"#utility.yul\":10581:10603   */\n      add\n        /* \"#utility.yul\":10552:10613   */\n      tag_292\n      jump\t// in\n    tag_434:\n        /* \"#utility.yul\":10542:10613   */\n      swap2\n      pop\n        /* \"#utility.yul\":10498:10623   */\n      pop\n        /* \"#utility.yul\":10285:10630   */\n      swap3\n      swap2\n      pop\n      pop\n      jump\t// out\n        /* \"#utility.yul\":10636:10816   */\n    tag_142:\n        /* \"#utility.yul\":10684:10761   */\n      0x4e487b7100000000000000000000000000000000000000000000000000000000\n        /* \"#utility.yul\":10681:10682   */\n      0x00\n        /* \"#utility.yul\":10674:10762   */\n      mstore\n        /* \"#utility.yul\":10781:10785   */\n      0x01\n        /* \"#utility.yul\":10778:10779   */\n      0x04\n        /* \"#utility.yul\":10771:10786   */\n      mstore\n        /* \"#utility.yul\":10805:10809   */\n      0x24\n        /* \"#utility.yul\":10802:10803   */\n      0x00\n        /* \"#utility.yul\":10795:10810   */\n      revert\n        /* \"#utility.yul\":10822:10916   */\n    tag_293:\n        /* \"#utility.yul\":10855:10863   */\n      0x00\n        /* \"#utility.yul\":10903:10908   */\n      dup2\n        /* \"#utility.yul\":10899:10901   */\n      0x60\n        /* \"#utility.yul\":10895:10909   */\n      shl\n        /* \"#utility.yul\":10874:10909   */\n      swap1\n      pop\n        /* \"#utility.yul\":10822:10916   */\n      swap2\n      swap1\n      pop\n      jump\t// out\n        /* \"#utility.yul\":10922:11016   */\n    tag_294:\n        /* \"#utility.yul\":10961:10968   */\n      0x00\n        /* \"#utility.yul\":10990:11010   */\n      tag_438\n        /* \"#utility.yul\":11004:11009   */\n      dup3\n        /* \"#utility.yul\":10990:11010   */\n      tag_293\n      jump\t// in\n    tag_438:\n        /* \"#utility.yul\":10979:11010   */\n      swap1\n      pop\n        /* \"#utility.yul\":10922:11016   */\n      swap2\n      swap1\n      pop\n      jump\t// out\n        /* \"#utility.yul\":11022:11122   */\n    tag_295:\n        /* \"#utility.yul\":11061:11068   */\n      0x00\n        /* \"#utility.yul\":11090:11116   */\n      tag_440\n        /* \"#utility.yul\":11110:11115   */\n      dup3\n        /* \"#utility.yul\":11090:11116   */\n      tag_294\n      jump\t// in\n    tag_440:\n        /* \"#utility.yul\":11079:11116   */\n      swap1\n      pop\n        /* \"#utility.yul\":11022:11122   */\n      swap2\n      swap1\n      pop\n      jump\t// out\n        /* \"#utility.yul\":11128:11285   */\n    tag_296:\n        /* \"#utility.yul\":11233:11278   */\n      tag_442\n        /* \"#utility.yul\":11253:11277   */\n      tag_443\n        /* \"#utility.yul\":11271:11276   */\n      dup3\n        /* \"#utility.yul\":11253:11277   */\n      tag_276\n      jump\t// in\n    tag_443:\n        /* \"#utility.yul\":11233:11278   */\n      tag_295\n      jump\t// in\n    tag_442:\n        /* \"#utility.yul\":11228:11231   */\n      dup3\n        /* \"#utility.yul\":11221:11279   */\n      mstore\n        /* \"#utility.yul\":11128:11285   */\n      pop\n      pop\n      jump\t// out\n        /* \"#utility.yul\":11291:11688   */\n    tag_167:\n        /* \"#utility.yul\":11431:11434   */\n      0x00\n        /* \"#utility.yul\":11446:11521   */\n      tag_445\n        /* \"#utility.yul\":11517:11520   */\n      dup3\n        /* \"#utility.yul\":11508:11514   */\n      dup6\n        /* \"#utility.yul\":11446:11521   */\n      tag_296\n      jump\t// in\n    tag_445:\n        /* \"#utility.yul\":11546:11548   */\n      0x14\n        /* \"#utility.yul\":11541:11544   */\n      dup3\n        /* \"#utility.yul\":11537:11549   */\n      add\n        /* \"#utility.yul\":11530:11549   */\n      swap2\n      pop\n        /* \"#utility.yul\":11559:11634   */\n      tag_446\n        /* \"#utility.yul\":11630:11633   */\n      dup3\n        /* \"#utility.yul\":11621:11627   */\n      dup5\n        /* \"#utility.yul\":11559:11634   */\n      tag_296\n      jump\t// in\n    tag_446:\n        /* \"#utility.yul\":11659:11661   */\n      0x14\n        /* \"#utility.yul\":11654:11657   */\n      dup3\n        /* \"#utility.yul\":11650:11662   */\n      add\n        /* \"#utility.yul\":11643:11662   */\n      swap2\n      pop\n        /* \"#utility.yul\":11679:11682   */\n      dup2\n        /* \"#utility.yul\":11672:11682   */\n      swap1\n      pop\n        /* \"#utility.yul\":11291:11688   */\n      swap4\n      swap3\n      pop\n      pop\n      pop\n      jump\t// out\n        /* \"#utility.yul\":11694:11842   */\n    tag_297:\n        /* \"#utility.yul\":11796:11807   */\n      0x00\n        /* \"#utility.yul\":11833:11836   */\n      dup2\n        /* \"#utility.yul\":11818:11836   */\n      swap1\n      pop\n        /* \"#utility.yul\":11694:11842   */\n      swap3\n      swap2\n      pop\n      pop\n      jump\t// out\n        /* \"#utility.yul\":11848:12062   */\n    tag_298:\n        /* \"#utility.yul\":11988:12054   */\n      0xff00000000000000000000000000000000000000000000000000000000000000\n        /* \"#utility.yul\":11984:11985   */\n      0x00\n        /* \"#utility.yul\":11976:11982   */\n      dup3\n        /* \"#utility.yul\":11972:11986   */\n      add\n        /* \"#utility.yul\":11965:12055   */\n      mstore\n        /* \"#utility.yul\":11848:12062   */\n      pop\n      jump\t// out\n        /* \"#utility.yul\":12068:12468   */\n    tag_299:\n        /* \"#utility.yul\":12228:12231   */\n      0x00\n        /* \"#utility.yul\":12249:12333   */\n      tag_450\n        /* \"#utility.yul\":12331:12332   */\n      0x01\n        /* \"#utility.yul\":12326:12329   */\n      dup4\n        /* \"#utility.yul\":12249:12333   */\n      tag_297\n      jump\t// in\n    tag_450:\n        /* \"#utility.yul\":12242:12333   */\n      swap2\n      pop\n        /* \"#utility.yul\":12342:12435   */\n      tag_451\n        /* \"#utility.yul\":12431:12434   */\n      dup3\n        /* \"#utility.yul\":12342:12435   */\n      tag_298\n      jump\t// in\n    tag_451:\n        /* \"#utility.yul\":12460:12461   */\n      0x01\n        /* \"#utility.yul\":12455:12458   */\n      dup3\n        /* \"#utility.yul\":12451:12462   */\n      add\n        /* \"#utility.yul\":12444:12462   */\n      swap1\n      pop\n        /* \"#utility.yul\":12068:12468   */\n      swap2\n      swap1\n      pop\n      jump\t// out\n        /* \"#utility.yul\":12474:12551   */\n    tag_300:\n        /* \"#utility.yul\":12511:12518   */\n      0x00\n        /* \"#utility.yul\":12540:12545   */\n      dup2\n        /* \"#utility.yul\":12529:12545   */\n      swap1\n      pop\n        /* \"#utility.yul\":12474:12551   */\n      swap2\n      swap1\n      pop\n      jump\t// out\n        /* \"#utility.yul\":12557:12636   */\n    tag_301:\n        /* \"#utility.yul\":12596:12603   */\n      0x00\n        /* \"#utility.yul\":12625:12630   */\n      dup2\n        /* \"#utility.yul\":12614:12630   */\n      swap1\n      pop\n        /* \"#utility.yul\":12557:12636   */\n      swap2\n      swap1\n      pop\n      jump\t// out\n        /* \"#utility.yul\":12642:12799   */\n    tag_302:\n        /* \"#utility.yul\":12747:12792   */\n      tag_455\n        /* \"#utility.yul\":12767:12791   */\n      tag_456\n        /* \"#utility.yul\":12785:12790   */\n      dup3\n        /* \"#utility.yul\":12767:12791   */\n      tag_300\n      jump\t// in\n    tag_456:\n        /* \"#utility.yul\":12747:12792   */\n      tag_301\n      jump\t// in\n    tag_455:\n        /* \"#utility.yul\":12742:12745   */\n      dup3\n        /* \"#utility.yul\":12735:12793   */\n      mstore\n        /* \"#utility.yul\":12642:12799   */\n      pop\n      pop\n      jump\t// out\n        /* \"#utility.yul\":12805:13019   */\n    tag_303:\n        /* \"#utility.yul\":12945:13011   */\n      0x96e8ac4277198ff8b6f785478aa9a39f403cb768dd02cbee326c3e7da348845f\n        /* \"#utility.yul\":12941:12942   */\n      0x00\n        /* \"#utility.yul\":12933:12939   */\n      dup3\n        /* \"#utility.yul\":12929:12943   */\n      add\n        /* \"#utility.yul\":12922:13012   */\n      mstore\n        /* \"#utility.yul\":12805:13019   */\n      pop\n      jump\t// out\n        /* \"#utility.yul\":13025:13427   */\n    tag_304:\n        /* \"#utility.yul\":13185:13188   */\n      0x00\n        /* \"#utility.yul\":13206:13291   */\n      tag_459\n        /* \"#utility.yul\":13288:13290   */\n      0x20\n        /* \"#utility.yul\":13283:13286   */\n      dup4\n        /* \"#utility.yul\":13206:13291   */\n      tag_297\n      jump\t// in\n    tag_459:\n        /* \"#utility.yul\":13199:13291   */\n      swap2\n      pop\n        /* \"#utility.yul\":13300:13393   */\n      tag_460\n        /* \"#utility.yul\":13389:13392   */\n      dup3\n        /* \"#utility.yul\":13300:13393   */\n      tag_303\n      jump\t// in\n    tag_460:\n        /* \"#utility.yul\":13418:13420   */\n      0x20\n        /* \"#utility.yul\":13413:13416   */\n      dup3\n        /* \"#utility.yul\":13409:13421   */\n      add\n        /* \"#utility.yul\":13402:13421   */\n      swap1\n      pop\n        /* \"#utility.yul\":13025:13427   */\n      swap2\n      swap1\n      pop\n      jump\t// out\n        /* \"#utility.yul\":13433:14362   */\n    tag_169:\n        /* \"#utility.yul\":13775:13778   */\n      0x00\n        /* \"#utility.yul\":13797:13945   */\n      tag_462\n        /* \"#utility.yul\":13941:13944   */\n      dup3\n        /* \"#utility.yul\":13797:13945   */\n      tag_299\n      jump\t// in\n    tag_462:\n        /* \"#utility.yul\":13790:13945   */\n      swap2\n      pop\n        /* \"#utility.yul\":13955:14030   */\n      tag_463\n        /* \"#utility.yul\":14026:14029   */\n      dup3\n        /* \"#utility.yul\":14017:14023   */\n      dup6\n        /* \"#utility.yul\":13955:14030   */\n      tag_296\n      jump\t// in\n    tag_463:\n        /* \"#utility.yul\":14055:14057   */\n      0x14\n        /* \"#utility.yul\":14050:14053   */\n      dup3\n        /* \"#utility.yul\":14046:14058   */\n      add\n        /* \"#utility.yul\":14039:14058   */\n      swap2\n      pop\n        /* \"#utility.yul\":14068:14143   */\n      tag_464\n        /* \"#utility.yul\":14139:14142   */\n      dup3\n        /* \"#utility.yul\":14130:14136   */\n      dup5\n        /* \"#utility.yul\":14068:14143   */\n      tag_302\n      jump\t// in\n    tag_464:\n        /* \"#utility.yul\":14168:14170   */\n      0x20\n        /* \"#utility.yul\":14163:14166   */\n      dup3\n        /* \"#utility.yul\":14159:14171   */\n      add\n        /* \"#utility.yul\":14152:14171   */\n      swap2\n      pop\n        /* \"#utility.yul\":14188:14336   */\n      tag_465\n        /* \"#utility.yul\":14332:14335   */\n      dup3\n        /* \"#utility.yul\":14188:14336   */\n      tag_304\n      jump\t// in\n    tag_465:\n        /* \"#utility.yul\":14181:14336   */\n      swap2\n      pop\n        /* \"#utility.yul\":14353:14356   */\n      dup2\n        /* \"#utility.yul\":14346:14356   */\n      swap1\n      pop\n        /* \"#utility.yul\":13433:14362   */\n      swap4\n      swap3\n      pop\n      pop\n      pop\n      jump\t// out\n        /* \"#utility.yul\":14368:14810   */\n    tag_172:\n        /* \"#utility.yul\":14517:14521   */\n      0x00\n        /* \"#utility.yul\":14555:14557   */\n      0x60\n        /* \"#utility.yul\":14544:14553   */\n      dup3\n        /* \"#utility.yul\":14540:14558   */\n      add\n        /* \"#utility.yul\":14532:14558   */\n      swap1\n      pop\n        /* \"#utility.yul\":14568:14639   */\n      tag_467\n        /* \"#utility.yul\":14636:14637   */\n      0x00\n        /* \"#utility.yul\":14625:14634   */\n      dup4\n        /* \"#utility.yul\":14621:14638   */\n      add\n        /* \"#utility.yul\":14612:14618   */\n      dup7\n        /* \"#utility.yul\":14568:14639   */\n      tag_279\n      jump\t// in\n    tag_467:\n        /* \"#utility.yul\":14649:14721   */\n      tag_468\n        /* \"#utility.yul\":14717:14719   */\n      0x20\n        /* \"#utility.yul\":14706:14715   */\n      dup4\n        /* \"#utility.yul\":14702:14720   */\n      add\n        /* \"#utility.yul\":14693:14699   */\n      dup6\n        /* \"#utility.yul\":14649:14721   */\n      tag_279\n      jump\t// in\n    tag_468:\n        /* \"#utility.yul\":14731:14803   */\n      tag_469\n        /* \"#utility.yul\":14799:14801   */\n      0x40\n        /* \"#utility.yul\":14788:14797   */\n      dup4\n        /* \"#utility.yul\":14784:14802   */\n      add\n        /* \"#utility.yul\":14775:14781   */\n      dup5\n        /* \"#utility.yul\":14731:14803   */\n      tag_289\n      jump\t// in\n    tag_469:\n        /* \"#utility.yul\":14368:14810   */\n      swap5\n      swap4\n      pop\n      pop\n      pop\n      pop\n      jump\t// out\n        /* \"#utility.yul\":14816:14914   */\n    tag_305:\n        /* \"#utility.yul\":14867:14873   */\n      0x00\n        /* \"#utility.yul\":14901:14906   */\n      dup2\n        /* \"#utility.yul\":14895:14907   */\n      mload\n        /* \"#utility.yul\":14885:14907   */\n      swap1\n      pop\n        /* \"#utility.yul\":14816:14914   */\n      swap2\n      swap1\n      pop\n      jump\t// out\n        /* \"#utility.yul\":14920:15067   */\n    tag_306:\n        /* \"#utility.yul\":15021:15032   */\n      0x00\n        /* \"#utility.yul\":15058:15061   */\n      dup2\n        /* \"#utility.yul\":15043:15061   */\n      swap1\n      pop\n        /* \"#utility.yul\":14920:15067   */\n      swap3\n      swap2\n      pop\n      pop\n      jump\t// out\n        /* \"#utility.yul\":15073:15380   */\n    tag_307:\n        /* \"#utility.yul\":15141:15142   */\n      0x00\n        /* \"#utility.yul\":15151:15264   */\n    tag_473:\n        /* \"#utility.yul\":15165:15171   */\n      dup4\n        /* \"#utility.yul\":15162:15163   */\n      dup2\n        /* \"#utility.yul\":15159:15172   */\n      lt\n        /* \"#utility.yul\":15151:15264   */\n      iszero\n      tag_475\n      jumpi\n        /* \"#utility.yul\":15250:15251   */\n      dup1\n        /* \"#utility.yul\":15245:15248   */\n      dup3\n        /* \"#utility.yul\":15241:15252   */\n      add\n        /* \"#utility.yul\":15235:15253   */\n      mload\n        /* \"#utility.yul\":15231:15232   */\n      dup2\n        /* \"#utility.yul\":15226:15229   */\n      dup5\n        /* \"#utility.yul\":15222:15233   */\n      add\n        /* \"#utility.yul\":15215:15254   */\n      mstore\n        /* \"#utility.yul\":15187:15189   */\n      0x20\n        /* \"#utility.yul\":15184:15185   */\n      dup2\n        /* \"#utility.yul\":15180:15190   */\n      add\n        /* \"#utility.yul\":15175:15190   */\n      swap1\n      pop\n        /* \"#utility.yul\":15151:15264   */\n      jump(tag_473)\n    tag_475:\n        /* \"#utility.yul\":15282:15288   */\n      dup4\n        /* \"#utility.yul\":15279:15280   */\n      dup2\n        /* \"#utility.yul\":15276:15289   */\n      gt\n        /* \"#utility.yul\":15273:15374   */\n      iszero\n      tag_476\n      jumpi\n        /* \"#utility.yul\":15362:15363   */\n      0x00\n        /* \"#utility.yul\":15353:15359   */\n      dup5\n        /* \"#utility.yul\":15348:15351   */\n      dup5\n        /* \"#utility.yul\":15344:15360   */\n      add\n        /* \"#utility.yul\":15337:15364   */\n      mstore\n        /* \"#utility.yul\":15273:15374   */\n    tag_476:\n        /* \"#utility.yul\":15122:15380   */\n      pop\n        /* \"#utility.yul\":15073:15380   */\n      pop\n      pop\n      pop\n      jump\t// out\n        /* \"#utility.yul\":15386:15759   */\n    tag_308:\n        /* \"#utility.yul\":15490:15493   */\n      0x00\n        /* \"#utility.yul\":15518:15556   */\n      tag_478\n        /* \"#utility.yul\":15550:15555   */\n      dup3\n        /* \"#utility.yul\":15518:15556   */\n      tag_305\n      jump\t// in\n    tag_478:\n        /* \"#utility.yul\":15572:15660   */\n      tag_479\n        /* \"#utility.yul\":15653:15659   */\n      dup2\n        /* \"#utility.yul\":15648:15651   */\n      dup6\n        /* \"#utility.yul\":15572:15660   */\n      tag_306\n      jump\t// in\n    tag_479:\n        /* \"#utility.yul\":15565:15660   */\n      swap4\n      pop\n        /* \"#utility.yul\":15669:15721   */\n      tag_480\n        /* \"#utility.yul\":15714:15720   */\n      dup2\n        /* \"#utility.yul\":15709:15712   */\n      dup6\n        /* \"#utility.yul\":15702:15706   */\n      0x20\n        /* \"#utility.yul\":15695:15700   */\n      dup7\n        /* \"#utility.yul\":15691:15707   */\n      add\n        /* \"#utility.yul\":15669:15721   */\n      tag_307\n      jump\t// in\n    tag_480:\n        /* \"#utility.yul\":15746:15752   */\n      dup1\n        /* \"#utility.yul\":15741:15744   */\n      dup5\n        /* \"#utility.yul\":15737:15753   */\n      add\n        /* \"#utility.yul\":15730:15753   */\n      swap2\n      pop\n        /* \"#utility.yul\":15494:15759   */\n      pop\n        /* \"#utility.yul\":15386:15759   */\n      swap3\n      swap2\n      pop\n      pop\n      jump\t// out\n        /* \"#utility.yul\":15765:16036   */\n    tag_174:\n        /* \"#utility.yul\":15895:15898   */\n      0x00\n        /* \"#utility.yul\":15917:16010   */\n      tag_482\n        /* \"#utility.yul\":16006:16009   */\n      dup3\n        /* \"#utility.yul\":15997:16003   */\n      dup5\n        /* \"#utility.yul\":15917:16010   */\n      tag_308\n      jump\t// in\n    tag_482:\n        /* \"#utility.yul\":15910:16010   */\n      swap2\n      pop\n        /* \"#utility.yul\":16027:16030   */\n      dup2\n        /* \"#utility.yul\":16020:16030   */\n      swap1\n      pop\n        /* \"#utility.yul\":15765:16036   */\n      swap3\n      swap2\n      pop\n      pop\n      jump\t// out\n        /* \"#utility.yul\":16042:16278   */\n    tag_309:\n        /* \"#utility.yul\":16182:16216   */\n      0x5472616e7366657248656c7065723a3a7472616e7366657246726f6d3a207472\n        /* \"#utility.yul\":16178:16179   */\n      0x00\n        /* \"#utility.yul\":16170:16176   */\n      dup3\n        /* \"#utility.yul\":16166:16180   */\n      add\n        /* \"#utility.yul\":16159:16217   */\n      mstore\n        /* \"#utility.yul\":16251:16270   */\n      0x616e7366657246726f6d206661696c6564000000000000000000000000000000\n        /* \"#utility.yul\":16246:16248   */\n      0x20\n        /* \"#utility.yul\":16238:16244   */\n      dup3\n        /* \"#utility.yul\":16234:16249   */\n      add\n        /* \"#utility.yul\":16227:16271   */\n      mstore\n        /* \"#utility.yul\":16042:16278   */\n      pop\n      jump\t// out\n        /* \"#utility.yul\":16284:16650   */\n    tag_310:\n        /* \"#utility.yul\":16426:16429   */\n      0x00\n        /* \"#utility.yul\":16447:16514   */\n      tag_485\n        /* \"#utility.yul\":16511:16513   */\n      0x31\n        /* \"#utility.yul\":16506:16509   */\n      dup4\n        /* \"#utility.yul\":16447:16514   */\n      tag_280\n      jump\t// in\n    tag_485:\n        /* \"#utility.yul\":16440:16514   */\n      swap2\n      pop\n        /* \"#utility.yul\":16523:16616   */\n      tag_486\n        /* \"#utility.yul\":16612:16615   */\n      dup3\n        /* \"#utility.yul\":16523:16616   */\n      tag_309\n      jump\t// in\n    tag_486:\n        /* \"#utility.yul\":16641:16643   */\n      0x40\n        /* \"#utility.yul\":16636:16639   */\n      dup3\n        /* \"#utility.yul\":16632:16644   */\n      add\n        /* \"#utility.yul\":16625:16644   */\n      swap1\n      pop\n        /* \"#utility.yul\":16284:16650   */\n      swap2\n      swap1\n      pop\n      jump\t// out\n        /* \"#utility.yul\":16656:17075   */\n    tag_183:\n        /* \"#utility.yul\":16822:16826   */\n      0x00\n        /* \"#utility.yul\":16860:16862   */\n      0x20\n        /* \"#utility.yul\":16849:16858   */\n      dup3\n        /* \"#utility.yul\":16845:16863   */\n      add\n        /* \"#utility.yul\":16837:16863   */\n      swap1\n      pop\n        /* \"#utility.yul\":16909:16918   */\n      dup2\n        /* \"#utility.yul\":16903:16907   */\n      dup2\n        /* \"#utility.yul\":16899:16919   */\n      sub\n        /* \"#utility.yul\":16895:16896   */\n      0x00\n        /* \"#utility.yul\":16884:16893   */\n      dup4\n        /* \"#utility.yul\":16880:16897   */\n      add\n        /* \"#utility.yul\":16873:16920   */\n      mstore\n        /* \"#utility.yul\":16937:17068   */\n      tag_488\n        /* \"#utility.yul\":17063:17067   */\n      dup2\n        /* \"#utility.yul\":16937:17068   */\n      tag_310\n      jump\t// in\n    tag_488:\n        /* \"#utility.yul\":16929:17068   */\n      swap1\n      pop\n        /* \"#utility.yul\":16656:17075   */\n      swap2\n      swap1\n      pop\n      jump\t// out\n        /* \"#utility.yul\":17081:17386   */\n    tag_192:\n        /* \"#utility.yul\":17121:17124   */\n      0x00\n        /* \"#utility.yul\":17140:17160   */\n      tag_490\n        /* \"#utility.yul\":17158:17159   */\n      dup3\n        /* \"#utility.yul\":17140:17160   */\n      tag_268\n      jump\t// in\n    tag_490:\n        /* \"#utility.yul\":17135:17160   */\n      swap2\n      pop\n        /* \"#utility.yul\":17174:17194   */\n      tag_491\n        /* \"#utility.yul\":17192:17193   */\n      dup4\n        /* \"#utility.yul\":17174:17194   */\n      tag_268\n      jump\t// in\n    tag_491:\n        /* \"#utility.yul\":17169:17194   */\n      swap3\n      pop\n        /* \"#utility.yul\":17328:17329   */\n      dup3\n        /* \"#utility.yul\":17260:17326   */\n      0xffffffffffffffffffffffffffffffffffffffffffffffffffffffffffffffff\n        /* \"#utility.yul\":17256:17330   */\n      sub\n        /* \"#utility.yul\":17253:17254   */\n      dup3\n        /* \"#utility.yul\":17250:17331   */\n      gt\n        /* \"#utility.yul\":17247:17354   */\n      iszero\n      tag_492\n      jumpi\n        /* \"#utility.yul\":17334:17352   */\n      tag_493\n      tag_283\n      jump\t// in\n    tag_493:\n        /* \"#utility.yul\":17247:17354   */\n    tag_492:\n        /* \"#utility.yul\":17378:17379   */\n      dup3\n        /* \"#utility.yul\":17375:17376   */\n      dup3\n        /* \"#utility.yul\":17371:17380   */\n      add\n        /* \"#utility.yul\":17364:17380   */\n      swap1\n      pop\n        /* \"#utility.yul\":17081:17386   */\n      swap3\n      swap2\n      pop\n      pop\n      jump\t// out\n        /* \"#utility.yul\":17392:17506   */\n    tag_311:\n        /* \"#utility.yul\":17429:17436   */\n      0x00\n        /* \"#utility.yul\":17469:17499   */\n      0xffffffffffffffffffffffffffff\n        /* \"#utility.yul\":17462:17467   */\n      dup3\n        /* \"#utility.yul\":17458:17500   */\n      and\n        /* \"#utility.yul\":17447:17500   */\n      swap1\n      pop\n        /* \"#utility.yul\":17392:17506   */\n      swap2\n      swap1\n      pop\n      jump\t// out\n        /* \"#utility.yul\":17512:17634   */\n    tag_312:\n        /* \"#utility.yul\":17585:17609   */\n      tag_496\n        /* \"#utility.yul\":17603:17608   */\n      dup2\n        /* \"#utility.yul\":17585:17609   */\n      tag_311\n      jump\t// in\n    tag_496:\n        /* \"#utility.yul\":17578:17583   */\n      dup2\n        /* \"#utility.yul\":17575:17610   */\n      eq\n        /* \"#utility.yul\":17565:17628   */\n      tag_497\n      jumpi\n        /* \"#utility.yul\":17624:17625   */\n      0x00\n        /* \"#utility.yul\":17621:17622   */\n      dup1\n        /* \"#utility.yul\":17614:17626   */\n      revert\n        /* \"#utility.yul\":17565:17628   */\n    tag_497:\n        /* \"#utility.yul\":17512:17634   */\n      pop\n      jump\t// out\n        /* \"#utility.yul\":17640:17783   */\n    tag_313:\n        /* \"#utility.yul\":17697:17702   */\n      0x00\n        /* \"#utility.yul\":17728:17734   */\n      dup2\n        /* \"#utility.yul\":17722:17735   */\n      mload\n        /* \"#utility.yul\":17713:17735   */\n      swap1\n      pop\n        /* \"#utility.yul\":17744:17777   */\n      tag_499\n        /* \"#utility.yul\":17771:17776   */\n      dup2\n        /* \"#utility.yul\":17744:17777   */\n      tag_312\n      jump\t// in\n    tag_499:\n        /* \"#utility.yul\":17640:17783   */\n      swap3\n      swap2\n      pop\n      pop\n      jump\t// out\n        /* \"#utility.yul\":17789:17882   */\n    tag_314:\n        /* \"#utility.yul\":17825:17832   */\n      0x00\n        /* \"#utility.yul\":17865:17875   */\n      0xffffffff\n        /* \"#utility.yul\":17858:17863   */\n      dup3\n        /* \"#utility.yul\":17854:17876   */\n      and\n        /* \"#utility.yul\":17843:17876   */\n      swap1\n      pop\n        /* \"#utility.yul\":17789:17882   */\n      swap2\n      swap1\n      pop\n      jump\t// out\n        /* \"#utility.yul\":17888:18008   */\n    tag_315:\n        /* \"#utility.yul\":17960:17983   */\n      tag_502\n        /* \"#utility.yul\":17977:17982   */\n      dup2\n        /* \"#utility.yul\":17960:17983   */\n      tag_314\n      jump\t// in\n    tag_502:\n        /* \"#utility.yul\":17953:17958   */\n      dup2\n        /* \"#utility.yul\":17950:17984   */\n      eq\n        /* \"#utility.yul\":17940:18002   */\n      tag_503\n      jumpi\n        /* \"#utility.yul\":17998:17999   */\n      0x00\n        /* \"#utility.yul\":17995:17996   */\n      dup1\n        /* \"#utility.yul\":17988:18000   */\n      revert\n        /* \"#utility.yul\":17940:18002   */\n    tag_503:\n        /* \"#utility.yul\":17888:18008   */\n      pop\n      jump\t// out\n        /* \"#utility.yul\":18014:18155   */\n    tag_316:\n        /* \"#utility.yul\":18070:18075   */\n      0x00\n        /* \"#utility.yul\":18101:18107   */\n      dup2\n        /* \"#utility.yul\":18095:18108   */\n      mload\n        /* \"#utility.yul\":18086:18108   */\n      swap1\n      pop\n        /* \"#utility.yul\":18117:18149   */\n      tag_505\n        /* \"#utility.yul\":18143:18148   */\n      dup2\n        /* \"#utility.yul\":18117:18149   */\n      tag_315\n      jump\t// in\n    tag_505:\n        /* \"#utility.yul\":18014:18155   */\n      swap3\n      swap2\n      pop\n      pop\n      jump\t// out\n        /* \"#utility.yul\":18161:18822   */\n    tag_200:\n        /* \"#utility.yul\":18248:18254   */\n      0x00\n        /* \"#utility.yul\":18256:18262   */\n      dup1\n        /* \"#utility.yul\":18264:18270   */\n      0x00\n        /* \"#utility.yul\":18313:18315   */\n      0x60\n        /* \"#utility.yul\":18301:18310   */\n      dup5\n        /* \"#utility.yul\":18292:18299   */\n      dup7\n        /* \"#utility.yul\":18288:18311   */\n      sub\n        /* \"#utility.yul\":18284:18316   */\n      slt\n        /* \"#utility.yul\":18281:18400   */\n      iszero\n      tag_507\n      jumpi\n        /* \"#utility.yul\":18319:18398   */\n      tag_508\n      tag_266\n      jump\t// in\n    tag_508:\n        /* \"#utility.yul\":18281:18400   */\n    tag_507:\n        /* \"#utility.yul\":18439:18440   */\n      0x00\n        /* \"#utility.yul\":18464:18528   */\n      tag_509\n        /* \"#utility.yul\":18520:18527   */\n      dup7\n        /* \"#utility.yul\":18511:18517   */\n      dup3\n        /* \"#utility.yul\":18500:18509   */\n      dup8\n        /* \"#utility.yul\":18496:18518   */\n      add\n        /* \"#utility.yul\":18464:18528   */\n      tag_313\n      jump\t// in\n    tag_509:\n        /* \"#utility.yul\":18454:18528   */\n      swap4\n      pop\n        /* \"#utility.yul\":18410:18538   */\n      pop\n        /* \"#utility.yul\":18577:18579   */\n      0x20\n        /* \"#utility.yul\":18603:18667   */\n      tag_510\n        /* \"#utility.yul\":18659:18666   */\n      dup7\n        /* \"#utility.yul\":18650:18656   */\n      dup3\n        /* \"#utility.yul\":18639:18648   */\n      dup8\n        /* \"#utility.yul\":18635:18657   */\n      add\n        /* \"#utility.yul\":18603:18667   */\n      tag_313\n      jump\t// in\n    tag_510:\n        /* \"#utility.yul\":18593:18667   */\n      swap3\n      pop\n        /* \"#utility.yul\":18548:18677   */\n      pop\n        /* \"#utility.yul\":18716:18718   */\n      0x40\n        /* \"#utility.yul\":18742:18805   */\n      tag_511\n        /* \"#utility.yul\":18797:18804   */\n      dup7\n        /* \"#utility.yul\":18788:18794   */\n      dup3\n        /* \"#utility.yul\":18777:18786   */\n      dup8\n        /* \"#utility.yul\":18773:18795   */\n      add\n        /* \"#utility.yul\":18742:18805   */\n      tag_316\n      jump\t// in\n    tag_511:\n        /* \"#utility.yul\":18732:18805   */\n      swap2\n      pop\n        /* \"#utility.yul\":18687:18815   */\n      pop\n        /* \"#utility.yul\":18161:18822   */\n      swap3\n      pop\n      swap3\n      pop\n      swap3\n      jump\t// out\n        /* \"#utility.yul\":18828:19008   */\n    tag_221:\n        /* \"#utility.yul\":18876:18953   */\n      0x4e487b7100000000000000000000000000000000000000000000000000000000\n        /* \"#utility.yul\":18873:18874   */\n      0x00\n        /* \"#utility.yul\":18866:18954   */\n      mstore\n        /* \"#utility.yul\":18973:18977   */\n      0x41\n        /* \"#utility.yul\":18970:18971   */\n      0x04\n        /* \"#utility.yul\":18963:18978   */\n      mstore\n        /* \"#utility.yul\":18997:19001   */\n      0x24\n        /* \"#utility.yul\":18994:18995   */\n      0x00\n        /* \"#utility.yul\":18987:19002   */\n      revert\n        /* \"#utility.yul\":19014:19182   */\n    tag_317:\n        /* \"#utility.yul\":19097:19108   */\n      0x00\n        /* \"#utility.yul\":19131:19137   */\n      dup3\n        /* \"#utility.yul\":19126:19129   */\n      dup3\n        /* \"#utility.yul\":19119:19138   */\n      mstore\n        /* \"#utility.yul\":19171:19175   */\n      0x20\n        /* \"#utility.yul\":19166:19169   */\n      dup3\n        /* \"#utility.yul\":19162:19176   */\n      add\n        /* \"#utility.yul\":19147:19176   */\n      swap1\n      pop\n        /* \"#utility.yul\":19014:19182   */\n      swap3\n      swap2\n      pop\n      pop\n      jump\t// out\n        /* \"#utility.yul\":19188:19290   */\n    tag_318:\n        /* \"#utility.yul\":19229:19235   */\n      0x00\n        /* \"#utility.yul\":19280:19282   */\n      0x1f\n        /* \"#utility.yul\":19276:19283   */\n      not\n        /* \"#utility.yul\":19271:19273   */\n      0x1f\n        /* \"#utility.yul\":19264:19269   */\n      dup4\n        /* \"#utility.yul\":19260:19274   */\n      add\n        /* \"#utility.yul\":19256:19284   */\n      and\n        /* \"#utility.yul\":19246:19284   */\n      swap1\n      pop\n        /* \"#utility.yul\":19188:19290   */\n      swap2\n      swap1\n      pop\n      jump\t// out\n        /* \"#utility.yul\":19296:19656   */\n    tag_319:\n        /* \"#utility.yul\":19382:19385   */\n      0x00\n        /* \"#utility.yul\":19410:19448   */\n      tag_516\n        /* \"#utility.yul\":19442:19447   */\n      dup3\n        /* \"#utility.yul\":19410:19448   */\n      tag_305\n      jump\t// in\n    tag_516:\n        /* \"#utility.yul\":19464:19534   */\n      tag_517\n        /* \"#utility.yul\":19527:19533   */\n      dup2\n        /* \"#utility.yul\":19522:19525   */\n      dup6\n        /* \"#utility.yul\":19464:19534   */\n      tag_317\n      jump\t// in\n    tag_517:\n        /* \"#utility.yul\":19457:19534   */\n      swap4\n      pop\n        /* \"#utility.yul\":19543:19595   */\n      tag_518\n        /* \"#utility.yul\":19588:19594   */\n      dup2\n        /* \"#utility.yul\":19583:19586   */\n      dup6\n        /* \"#utility.yul\":19576:19580   */\n      0x20\n        /* \"#utility.yul\":19569:19574   */\n      dup7\n        /* \"#utility.yul\":19565:19581   */\n      add\n        /* \"#utility.yul\":19543:19595   */\n      tag_307\n      jump\t// in\n    tag_518:\n        /* \"#utility.yul\":19620:19649   */\n      tag_519\n        /* \"#utility.yul\":19642:19648   */\n      dup2\n        /* \"#utility.yul\":19620:19649   */\n      tag_318\n      jump\t// in\n    tag_519:\n        /* \"#utility.yul\":19615:19618   */\n      dup5\n        /* \"#utility.yul\":19611:19650   */\n      add\n        /* \"#utility.yul\":19604:19650   */\n      swap2\n      pop\n        /* \"#utility.yul\":19386:19656   */\n      pop\n        /* \"#utility.yul\":19296:19656   */\n      swap3\n      swap2\n      pop\n      pop\n      jump\t// out\n        /* \"#utility.yul\":19662:20302   */\n    tag_224:\n        /* \"#utility.yul\":19857:19861   */\n      0x00\n        /* \"#utility.yul\":19895:19898   */\n      0x80\n        /* \"#utility.yul\":19884:19893   */\n      dup3\n        /* \"#utility.yul\":19880:19899   */\n      add\n        /* \"#utility.yul\":19872:19899   */\n      swap1\n      pop\n        /* \"#utility.yul\":19909:19980   */\n      tag_521\n        /* \"#utility.yul\":19977:19978   */\n      0x00\n        /* \"#utility.yul\":19966:19975   */\n      dup4\n        /* \"#utility.yul\":19962:19979   */\n      add\n        /* \"#utility.yul\":19953:19959   */\n      dup8\n        /* \"#utility.yul\":19909:19980   */\n      tag_289\n      jump\t// in\n    tag_521:\n        /* \"#utility.yul\":19990:20062   */\n      tag_522\n        /* \"#utility.yul\":20058:20060   */\n      0x20\n        /* \"#utility.yul\":20047:20056   */\n      dup4\n        /* \"#utility.yul\":20043:20061   */\n      add\n        /* \"#utility.yul\":20034:20040   */\n      dup7\n        /* \"#utility.yul\":19990:20062   */\n      tag_289\n      jump\t// in\n    tag_522:\n        /* \"#utility.yul\":20072:20144   */\n      tag_523\n        /* \"#utility.yul\":20140:20142   */\n      0x40\n        /* \"#utility.yul\":20129:20138   */\n      dup4\n        /* \"#utility.yul\":20125:20143   */\n      add\n        /* \"#utility.yul\":20116:20122   */\n      dup6\n        /* \"#utility.yul\":20072:20144   */\n      tag_279\n      jump\t// in\n    tag_523:\n        /* \"#utility.yul\":20191:20200   */\n      dup2\n        /* \"#utility.yul\":20185:20189   */\n      dup2\n        /* \"#utility.yul\":20181:20201   */\n      sub\n        /* \"#utility.yul\":20176:20178   */\n      0x60\n        /* \"#utility.yul\":20165:20174   */\n      dup4\n        /* \"#utility.yul\":20161:20179   */\n      add\n        /* \"#utility.yul\":20154:20202   */\n      mstore\n        /* \"#utility.yul\":20219:20295   */\n      tag_524\n        /* \"#utility.yul\":20290:20294   */\n      dup2\n        /* \"#utility.yul\":20281:20287   */\n      dup5\n        /* \"#utility.yul\":20219:20295   */\n      tag_319\n      jump\t// in\n    tag_524:\n        /* \"#utility.yul\":20211:20295   */\n      swap1\n      pop\n        /* \"#utility.yul\":19662:20302   */\n      swap6\n      swap5\n      pop\n      pop\n      pop\n      pop\n      pop\n      jump\t// out\n        /* \"#utility.yul\":20308:20541   */\n    tag_229:\n        /* \"#utility.yul\":20347:20350   */\n      0x00\n        /* \"#utility.yul\":20370:20394   */\n      tag_526\n        /* \"#utility.yul\":20388:20393   */\n      dup3\n        /* \"#utility.yul\":20370:20394   */\n      tag_268\n      jump\t// in\n    tag_526:\n        /* \"#utility.yul\":20361:20394   */\n      swap2\n      pop\n        /* \"#utility.yul\":20416:20482   */\n      0xffffffffffffffffffffffffffffffffffffffffffffffffffffffffffffffff\n        /* \"#utility.yul\":20409:20414   */\n      dup3\n        /* \"#utility.yul\":20406:20483   */\n      eq\n        /* \"#utility.yul\":20403:20506   */\n      iszero\n      tag_527\n      jumpi\n        /* \"#utility.yul\":20486:20504   */\n      tag_528\n      tag_283\n      jump\t// in\n    tag_528:\n        /* \"#utility.yul\":20403:20506   */\n    tag_527:\n        /* \"#utility.yul\":20533:20534   */\n      0x01\n        /* \"#utility.yul\":20526:20531   */\n      dup3\n        /* \"#utility.yul\":20522:20535   */\n      add\n        /* \"#utility.yul\":20515:20535   */\n      swap1\n      pop\n        /* \"#utility.yul\":20308:20541   */\n      swap2\n      swap1\n      pop\n      jump\t// out\n        /* \"#utility.yul\":20547:20786   */\n    tag_320:\n        /* \"#utility.yul\":20687:20721   */\n      0x5472616e7366657248656c7065723a3a736166655472616e736665724554483a\n        /* \"#utility.yul\":20683:20684   */\n      0x00\n        /* \"#utility.yul\":20675:20681   */\n      dup3\n        /* \"#utility.yul\":20671:20685   */\n      add\n        /* \"#utility.yul\":20664:20722   */\n      mstore\n        /* \"#utility.yul\":20756:20778   */\n      0x20455448207472616e73666572206661696c6564000000000000000000000000\n        /* \"#utility.yul\":20751:20753   */\n      0x20\n        /* \"#utility.yul\":20743:20749   */\n      dup3\n        /* \"#utility.yul\":20739:20754   */\n      add\n        /* \"#utility.yul\":20732:20779   */\n      mstore\n        /* \"#utility.yul\":20547:20786   */\n      pop\n      jump\t// out\n        /* \"#utility.yul\":20792:21158   */\n    tag_321:\n        /* \"#utility.yul\":20934:20937   */\n      0x00\n        /* \"#utility.yul\":20955:21022   */\n      tag_531\n        /* \"#utility.yul\":21019:21021   */\n      0x34\n        /* \"#utility.yul\":21014:21017   */\n      dup4\n        /* \"#utility.yul\":20955:21022   */\n      tag_280\n      jump\t// in\n    tag_531:\n        /* \"#utility.yul\":20948:21022   */\n      swap2\n      pop\n        /* \"#utility.yul\":21031:21124   */\n      tag_532\n        /* \"#utility.yul\":21120:21123   */\n      dup3\n        /* \"#utility.yul\":21031:21124   */\n      tag_320\n      jump\t// in\n    tag_532:\n        /* \"#utility.yul\":21149:21151   */\n      0x40\n        /* \"#utility.yul\":21144:21147   */\n      dup3\n        /* \"#utility.yul\":21140:21152   */\n      add\n        /* \"#utility.yul\":21133:21152   */\n      swap1\n      pop\n        /* \"#utility.yul\":20792:21158   */\n      swap2\n      swap1\n      pop\n      jump\t// out\n        /* \"#utility.yul\":21164:21583   */\n    tag_240:\n        /* \"#utility.yul\":21330:21334   */\n      0x00\n        /* \"#utility.yul\":21368:21370   */\n      0x20\n        /* \"#utility.yul\":21357:21366   */\n      dup3\n        /* \"#utility.yul\":21353:21371   */\n      add\n        /* \"#utility.yul\":21345:21371   */\n      swap1\n      pop\n        /* \"#utility.yul\":21417:21426   */\n      dup2\n        /* \"#utility.yul\":21411:21415   */\n      dup2\n        /* \"#utility.yul\":21407:21427   */\n      sub\n        /* \"#utility.yul\":21403:21404   */\n      0x00\n        /* \"#utility.yul\":21392:21401   */\n      dup4\n        /* \"#utility.yul\":21388:21405   */\n      add\n        /* \"#utility.yul\":21381:21428   */\n      mstore\n        /* \"#utility.yul\":21445:21576   */\n      tag_534\n        /* \"#utility.yul\":21571:21575   */\n      dup2\n        /* \"#utility.yul\":21445:21576   */\n      tag_321\n      jump\t// in\n    tag_534:\n        /* \"#utility.yul\":21437:21576   */\n      swap1\n      pop\n        /* \"#utility.yul\":21164:21583   */\n      swap2\n      swap1\n      pop\n      jump\t// out\n        /* \"#utility.yul\":21589:21813   */\n    tag_322:\n        /* \"#utility.yul\":21729:21763   */\n      0x556e697377617056324c6962726172793a204944454e544943414c5f41444452\n        /* \"#utility.yul\":21725:21726   */\n      0x00\n        /* \"#utility.yul\":21717:21723   */\n      dup3\n        /* \"#utility.yul\":21713:21727   */\n      add\n        /* \"#utility.yul\":21706:21764   */\n      mstore\n        /* \"#utility.yul\":21798:21805   */\n      0x4553534553000000000000000000000000000000000000000000000000000000\n        /* \"#utility.yul\":21793:21795   */\n      0x20\n        /* \"#utility.yul\":21785:21791   */\n      dup3\n        /* \"#utility.yul\":21781:21796   */\n      add\n        /* \"#utility.yul\":21774:21806   */\n      mstore\n        /* \"#utility.yul\":21589:21813   */\n      pop\n      jump\t// out\n        /* \"#utility.yul\":21819:22185   */\n    tag_323:\n        /* \"#utility.yul\":21961:21964   */\n      0x00\n        /* \"#utility.yul\":21982:22049   */\n      tag_537\n        /* \"#utility.yul\":22046:22048   */\n      0x25\n        /* \"#utility.yul\":22041:22044   */\n      dup4\n        /* \"#utility.yul\":21982:22049   */\n      tag_280\n      jump\t// in\n    tag_537:\n        /* \"#utility.yul\":21975:22049   */\n      swap2\n      pop\n        /* \"#utility.yul\":22058:22151   */\n      tag_538\n        /* \"#utility.yul\":22147:22150   */\n      dup3\n        /* \"#utility.yul\":22058:22151   */\n      tag_322\n      jump\t// in\n    tag_538:\n        /* \"#utility.yul\":22176:22178   */\n      0x40\n        /* \"#utility.yul\":22171:22174   */\n      dup3\n        /* \"#utility.yul\":22167:22179   */\n      add\n        /* \"#utility.yul\":22160:22179   */\n      swap1\n      pop\n        /* \"#utility.yul\":21819:22185   */\n      swap2\n      swap1\n      pop\n      jump\t// out\n        /* \"#utility.yul\":22191:22610   */\n    tag_244:\n        /* \"#utility.yul\":22357:22361   */\n      0x00\n        /* \"#utility.yul\":22395:22397   */\n      0x20\n        /* \"#utility.yul\":22384:22393   */\n      dup3\n        /* \"#utility.yul\":22380:22398   */\n      add\n        /* \"#utility.yul\":22372:22398   */\n      swap1\n      pop\n        /* \"#utility.yul\":22444:22453   */\n      dup2\n        /* \"#utility.yul\":22438:22442   */\n      dup2\n        /* \"#utility.yul\":22434:22454   */\n      sub\n        /* \"#utility.yul\":22430:22431   */\n      0x00\n        /* \"#utility.yul\":22419:22428   */\n      dup4\n        /* \"#utility.yul\":22415:22432   */\n      add\n        /* \"#utility.yul\":22408:22455   */\n      mstore\n        /* \"#utility.yul\":22472:22603   */\n      tag_540\n        /* \"#utility.yul\":22598:22602   */\n      dup2\n        /* \"#utility.yul\":22472:22603   */\n      tag_323\n      jump\t// in\n    tag_540:\n        /* \"#utility.yul\":22464:22603   */\n      swap1\n      pop\n        /* \"#utility.yul\":22191:22610   */\n      swap2\n      swap1\n      pop\n      jump\t// out\n        /* \"#utility.yul\":22616:22796   */\n    tag_324:\n        /* \"#utility.yul\":22756:22788   */\n      0x556e697377617056324c6962726172793a205a45524f5f414444524553530000\n        /* \"#utility.yul\":22752:22753   */\n      0x00\n        /* \"#utility.yul\":22744:22750   */\n      dup3\n        /* \"#utility.yul\":22740:22754   */\n      add\n        /* \"#utility.yul\":22733:22789   */\n      mstore\n        /* \"#utility.yul\":22616:22796   */\n      pop\n      jump\t// out\n        /* \"#utility.yul\":22802:23168   */\n    tag_325:\n        /* \"#utility.yul\":22944:22947   */\n      0x00\n        /* \"#utility.yul\":22965:23032   */\n      tag_543\n        /* \"#utility.yul\":23029:23031   */\n      0x1e\n        /* \"#utility.yul\":23024:23027   */\n      dup4\n        /* \"#utility.yul\":22965:23032   */\n      tag_280\n      jump\t// in\n    tag_543:\n        /* \"#utility.yul\":22958:23032   */\n      swap2\n      pop\n        /* \"#utility.yul\":23041:23134   */\n      tag_544\n        /* \"#utility.yul\":23130:23133   */\n      dup3\n        /* \"#utility.yul\":23041:23134   */\n      tag_324\n      jump\t// in\n    tag_544:\n        /* \"#utility.yul\":23159:23161   */\n      0x20\n        /* \"#utility.yul\":23154:23157   */\n      dup3\n        /* \"#utility.yul\":23150:23162   */\n      add\n        /* \"#utility.yul\":23143:23162   */\n      swap1\n      pop\n        /* \"#utility.yul\":22802:23168   */\n      swap2\n      swap1\n      pop\n      jump\t// out\n        /* \"#utility.yul\":23174:23593   */\n    tag_249:\n        /* \"#utility.yul\":23340:23344   */\n      0x00\n        /* \"#utility.yul\":23378:23380   */\n      0x20\n        /* \"#utility.yul\":23367:23376   */\n      dup3\n        /* \"#utility.yul\":23363:23381   */\n      add\n        /* \"#utility.yul\":23355:23381   */\n      swap1\n      pop\n        /* \"#utility.yul\":23427:23436   */\n      dup2\n        /* \"#utility.yul\":23421:23425   */\n      dup2\n        /* \"#utility.yul\":23417:23437   */\n      sub\n        /* \"#utility.yul\":23413:23414   */\n      0x00\n        /* \"#utility.yul\":23402:23411   */\n      dup4\n        /* \"#utility.yul\":23398:23415   */\n      add\n        /* \"#utility.yul\":23391:23438   */\n      mstore\n        /* \"#utility.yul\":23455:23586   */\n      tag_546\n        /* \"#utility.yul\":23581:23585   */\n      dup2\n        /* \"#utility.yul\":23455:23586   */\n      tag_325\n      jump\t// in\n    tag_546:\n        /* \"#utility.yul\":23447:23586   */\n      swap1\n      pop\n        /* \"#utility.yul\":23174:23593   */\n      swap2\n      swap1\n      pop\n      jump\t// out\n        /* \"#utility.yul\":23599:23829   */\n    tag_326:\n        /* \"#utility.yul\":23739:23773   */\n      0x556e697377617056324c6962726172793a20494e53554646494349454e545f49\n        /* \"#utility.yul\":23735:23736   */\n      0x00\n        /* \"#utility.yul\":23727:23733   */\n      dup3\n        /* \"#utility.yul\":23723:23737   */\n      add\n        /* \"#utility.yul\":23716:23774   */\n      mstore\n        /* \"#utility.yul\":23808:23821   */\n      0x4e5055545f414d4f554e54000000000000000000000000000000000000000000\n        /* \"#utility.yul\":23803:23805   */\n      0x20\n        /* \"#utility.yul\":23795:23801   */\n      dup3\n        /* \"#utility.yul\":23791:23806   */\n      add\n        /* \"#utility.yul\":23784:23822   */\n      mstore\n        /* \"#utility.yul\":23599:23829   */\n      pop\n      jump\t// out\n        /* \"#utility.yul\":23835:24201   */\n    tag_327:\n        /* \"#utility.yul\":23977:23980   */\n      0x00\n        /* \"#utility.yul\":23998:24065   */\n      tag_549\n        /* \"#utility.yul\":24062:24064   */\n      0x2b\n        /* \"#utility.yul\":24057:24060   */\n      dup4\n        /* \"#utility.yul\":23998:24065   */\n      tag_280\n      jump\t// in\n    tag_549:\n        /* \"#utility.yul\":23991:24065   */\n      swap2\n      pop\n        /* \"#utility.yul\":24074:24167   */\n      tag_550\n        /* \"#utility.yul\":24163:24166   */\n      dup3\n        /* \"#utility.yul\":24074:24167   */\n      tag_326\n      jump\t// in\n    tag_550:\n        /* \"#utility.yul\":24192:24194   */\n      0x40\n        /* \"#utility.yul\":24187:24190   */\n      dup3\n        /* \"#utility.yul\":24183:24195   */\n      add\n        /* \"#utility.yul\":24176:24195   */\n      swap1\n      pop\n        /* \"#utility.yul\":23835:24201   */\n      swap2\n      swap1\n      pop\n      jump\t// out\n        /* \"#utility.yul\":24207:24626   */\n    tag_253:\n        /* \"#utility.yul\":24373:24377   */\n      0x00\n        /* \"#utility.yul\":24411:24413   */\n      0x20\n        /* \"#utility.yul\":24400:24409   */\n      dup3\n        /* \"#utility.yul\":24396:24414   */\n      add\n        /* \"#utility.yul\":24388:24414   */\n      swap1\n      pop\n        /* \"#utility.yul\":24460:24469   */\n      dup2\n        /* \"#utility.yul\":24454:24458   */\n      dup2\n        /* \"#utility.yul\":24450:24470   */\n      sub\n        /* \"#utility.yul\":24446:24447   */\n      0x00\n        /* \"#utility.yul\":24435:24444   */\n      dup4\n        /* \"#utility.yul\":24431:24448   */\n      add\n        /* \"#utility.yul\":24424:24471   */\n      mstore\n        /* \"#utility.yul\":24488:24619   */\n      tag_552\n        /* \"#utility.yul\":24614:24618   */\n      dup2\n        /* \"#utility.yul\":24488:24619   */\n      tag_327\n      jump\t// in\n    tag_552:\n        /* \"#utility.yul\":24480:24619   */\n      swap1\n      pop\n        /* \"#utility.yul\":24207:24626   */\n      swap2\n      swap1\n      pop\n      jump\t// out\n        /* \"#utility.yul\":24632:24859   */\n    tag_328:\n        /* \"#utility.yul\":24772:24806   */\n      0x556e697377617056324c6962726172793a20494e53554646494349454e545f4c\n        /* \"#utility.yul\":24768:24769   */\n      0x00\n        /* \"#utility.yul\":24760:24766   */\n      dup3\n        /* \"#utility.yul\":24756:24770   */\n      add\n        /* \"#utility.yul\":24749:24807   */\n      mstore\n        /* \"#utility.yul\":24841:24851   */\n      0x4951554944495459000000000000000000000000000000000000000000000000\n        /* \"#utility.yul\":24836:24838   */\n      0x20\n        /* \"#utility.yul\":24828:24834   */\n      dup3\n        /* \"#utility.yul\":24824:24839   */\n      add\n        /* \"#utility.yul\":24817:24852   */\n      mstore\n        /* \"#utility.yul\":24632:24859   */\n      pop\n      jump\t// out\n        /* \"#utility.yul\":24865:25231   */\n    tag_329:\n        /* \"#utility.yul\":25007:25010   */\n      0x00\n        /* \"#utility.yul\":25028:25095   */\n      tag_555\n        /* \"#utility.yul\":25092:25094   */\n      0x28\n        /* \"#utility.yul\":25087:25090   */\n      dup4\n        /* \"#utility.yul\":25028:25095   */\n      tag_280\n      jump\t// in\n    tag_555:\n        /* \"#utility.yul\":25021:25095   */\n      swap2\n      pop\n        /* \"#utility.yul\":25104:25197   */\n      tag_556\n        /* \"#utility.yul\":25193:25196   */\n      dup3\n        /* \"#utility.yul\":25104:25197   */\n      tag_328\n      jump\t// in\n    tag_556:\n        /* \"#utility.yul\":25222:25224   */\n      0x40\n        /* \"#utility.yul\":25217:25220   */\n      dup3\n        /* \"#utility.yul\":25213:25225   */\n      add\n        /* \"#utility.yul\":25206:25225   */\n      swap1\n      pop\n        /* \"#utility.yul\":24865:25231   */\n      swap2\n      swap1\n      pop\n      jump\t// out\n        /* \"#utility.yul\":25237:25656   */\n    tag_257:\n        /* \"#utility.yul\":25403:25407   */\n      0x00\n        /* \"#utility.yul\":25441:25443   */\n      0x20\n        /* \"#utility.yul\":25430:25439   */\n      dup3\n        /* \"#utility.yul\":25426:25444   */\n      add\n        /* \"#utility.yul\":25418:25444   */\n      swap1\n      pop\n        /* \"#utility.yul\":25490:25499   */\n      dup2\n        /* \"#utility.yul\":25484:25488   */\n      dup2\n        /* \"#utility.yul\":25480:25500   */\n      sub\n        /* \"#utility.yul\":25476:25477   */\n      0x00\n        /* \"#utility.yul\":25465:25474   */\n      dup4\n        /* \"#utility.yul\":25461:25478   */\n      add\n        /* \"#utility.yul\":25454:25501   */\n      mstore\n        /* \"#utility.yul\":25518:25649   */\n      tag_558\n        /* \"#utility.yul\":25644:25648   */\n      dup2\n        /* \"#utility.yul\":25518:25649   */\n      tag_329\n      jump\t// in\n    tag_558:\n        /* \"#utility.yul\":25510:25649   */\n      swap1\n      pop\n        /* \"#utility.yul\":25237:25656   */\n      swap2\n      swap1\n      pop\n      jump\t// out\n        /* \"#utility.yul\":25662:26010   */\n    tag_259:\n        /* \"#utility.yul\":25702:25709   */\n      0x00\n        /* \"#utility.yul\":25725:25745   */\n      tag_560\n        /* \"#utility.yul\":25743:25744   */\n      dup3\n        /* \"#utility.yul\":25725:25745   */\n      tag_268\n      jump\t// in\n    tag_560:\n        /* \"#utility.yul\":25720:25745   */\n      swap2\n      pop\n        /* \"#utility.yul\":25759:25779   */\n      tag_561\n        /* \"#utility.yul\":25777:25778   */\n      dup4\n        /* \"#utility.yul\":25759:25779   */\n      tag_268\n      jump\t// in\n    tag_561:\n        /* \"#utility.yul\":25754:25779   */\n      swap3\n      pop\n        /* \"#utility.yul\":25947:25948   */\n      dup2\n        /* \"#utility.yul\":25879:25945   */\n      0xffffffffffffffffffffffffffffffffffffffffffffffffffffffffffffffff\n        /* \"#utility.yul\":25875:25949   */\n      div\n        /* \"#utility.yul\":25872:25873   */\n      dup4\n        /* \"#utility.yul\":25869:25950   */\n      gt\n        /* \"#utility.yul\":25864:25865   */\n      dup3\n        /* \"#utility.yul\":25857:25866   */\n      iszero\n        /* \"#utility.yul\":25850:25867   */\n      iszero\n        /* \"#utility.yul\":25846:25951   */\n      and\n        /* \"#utility.yul\":25843:25974   */\n      iszero\n      tag_562\n      jumpi\n        /* \"#utility.yul\":25954:25972   */\n      tag_563\n      tag_283\n      jump\t// in\n    tag_563:\n        /* \"#utility.yul\":25843:25974   */\n    tag_562:\n        /* \"#utility.yul\":26002:26003   */\n      dup3\n        /* \"#utility.yul\":25999:26000   */\n      dup3\n        /* \"#utility.yul\":25995:26004   */\n      mul\n        /* \"#utility.yul\":25984:26004   */\n      swap1\n      pop\n        /* \"#utility.yul\":25662:26010   */\n      swap3\n      swap2\n      pop\n      pop\n      jump\t// out\n        /* \"#utility.yul\":26016:26196   */\n    tag_330:\n        /* \"#utility.yul\":26064:26141   */\n      0x4e487b7100000000000000000000000000000000000000000000000000000000\n        /* \"#utility.yul\":26061:26062   */\n      0x00\n        /* \"#utility.yul\":26054:26142   */\n      mstore\n        /* \"#utility.yul\":26161:26165   */\n      0x12\n        /* \"#utility.yul\":26158:26159   */\n      0x04\n        /* \"#utility.yul\":26151:26166   */\n      mstore\n        /* \"#utility.yul\":26185:26189   */\n      0x24\n        /* \"#utility.yul\":26182:26183   */\n      0x00\n        /* \"#utility.yul\":26175:26190   */\n      revert\n        /* \"#utility.yul\":26202:26387   */\n    tag_264:\n        /* \"#utility.yul\":26242:26243   */\n      0x00\n        /* \"#utility.yul\":26259:26279   */\n      tag_566\n        /* \"#utility.yul\":26277:26278   */\n      dup3\n        /* \"#utility.yul\":26259:26279   */\n      tag_268\n      jump\t// in\n    tag_566:\n        /* \"#utility.yul\":26254:26279   */\n      swap2\n      pop\n        /* \"#utility.yul\":26293:26313   */\n      tag_567\n        /* \"#utility.yul\":26311:26312   */\n      dup4\n        /* \"#utility.yul\":26293:26313   */\n      tag_268\n      jump\t// in\n    tag_567:\n        /* \"#utility.yul\":26288:26313   */\n      swap3\n      pop\n        /* \"#utility.yul\":26332:26333   */\n      dup3\n        /* \"#utility.yul\":26322:26357   */\n      tag_568\n      jumpi\n        /* \"#utility.yul\":26337:26355   */\n      tag_569\n      tag_330\n      jump\t// in\n    tag_569:\n        /* \"#utility.yul\":26322:26357   */\n    tag_568:\n        /* \"#utility.yul\":26379:26380   */\n      dup3\n        /* \"#utility.yul\":26376:26377   */\n      dup3\n        /* \"#utility.yul\":26372:26381   */\n      div\n        /* \"#utility.yul\":26367:26381   */\n      swap1\n      pop\n        /* \"#utility.yul\":26202:26387   */\n      swap3\n      swap2\n      pop\n      pop\n      jump\t// out\n\n    auxdata: 0xa2646970667358221220cf08413f6afb178f5df6496d6504f8539b4893b3b8f4e4b04913d10bff353efe64736f6c634300080a0033\n}\n",
				"bytecode": {
					"linkReferences": {},
					"object": "608060405234801561001057600080fd5b506123ef806100206000396000f3fe6080604052600436106100555760003560e01c80635c11d7951461005a578063791ac94714610083578063ad15cd0d146100ac578063ad5c4648146100d5578063b6f9de9514610100578063c45a01551461011c575b600080fd5b34801561006657600080fd5b50610081600480360381019061007c9190611674565b610147565b005b34801561008f57600080fd5b506100aa60048036038101906100a59190611674565b61043f565b005b3480156100b857600080fd5b506100d360048036038101906100ce919061170e565b6107c6565b005b3480156100e157600080fd5b506100ea610809565b6040516100f7919061174a565b60405180910390f35b61011a60048036038101906101159190611765565b61082f565b005b34801561012857600080fd5b50610131610ce0565b60405161013e919061174a565b60405180910390f35b804281101561018b576040517f08c379a00000000000000000000000000000000000000000000000000000000081526004016101829061184a565b60405180910390fd5b610239858560008181106101a2576101a161186a565b5b90506020020160208101906101b7919061170e565b3361023360008054906101000a900473ffffffffffffffffffffffffffffffffffffffff16898960008181106101f0576101ef61186a565b5b9050602002016020810190610205919061170e565b8a8a60018181106102195761021861186a565b5b905060200201602081019061022e919061170e565b610d04565b8a610d76565b6000858560018888905061024d91906118c8565b81811061025d5761025c61186a565b5b9050602002016020810190610272919061170e565b73ffffffffffffffffffffffffffffffffffffffff166370a08231856040518263ffffffff1660e01b81526004016102aa919061174a565b602060405180830381865afa1580156102c7573d6000803e3d6000fd5b505050506040513d601f19601f820116820180604052508101906102eb9190611911565b9050610338868680806020026020016040519081016040528093929190818152602001838360200280828437600081840152601f19601f8201169050808301925050505050505085610eaf565b8681878760018a8a905061034c91906118c8565b81811061035c5761035b61186a565b5b9050602002016020810190610371919061170e565b73ffffffffffffffffffffffffffffffffffffffff166370a08231876040518263ffffffff1660e01b81526004016103a9919061174a565b602060405180830381865afa1580156103c6573d6000803e3d6000fd5b505050506040513d601f19601f820116820180604052508101906103ea9190611911565b6103f491906118c8565b1015610435576040517f08c379a000000000000000000000000000000000000000000000000000000000815260040161042c906119b0565b60405180910390fd5b5050505050505050565b8042811015610483576040517f08c379a000000000000000000000000000000000000000000000000000000000815260040161047a9061184a565b60405180910390fd5b600160009054906101000a900473ffffffffffffffffffffffffffffffffffffffff1673ffffffffffffffffffffffffffffffffffffffff1685856001888890506104ce91906118c8565b8181106104de576104dd61186a565b5b90506020020160208101906104f3919061170e565b73ffffffffffffffffffffffffffffffffffffffff1614610549576040517f08c379a000000000000000000000000000000000000000000000000000000000815260040161054090611a1c565b60405180910390fd5b6105f7858560008181106105605761055f61186a565b5b9050602002016020810190610575919061170e565b336105f160008054906101000a900473ffffffffffffffffffffffffffffffffffffffff16898960008181106105ae576105ad61186a565b5b90506020020160208101906105c3919061170e565b8a8a60018181106105d7576105d661186a565b5b90506020020160208101906105ec919061170e565b610d04565b8a610d76565b610642858580806020026020016040519081016040528093929190818152602001838360200280828437600081840152601f19601f8201169050808301925050505050505030610eaf565b6000600160009054906101000a900473ffffffffffffffffffffffffffffffffffffffff1673ffffffffffffffffffffffffffffffffffffffff166370a08231306040518263ffffffff1660e01b815260040161069f919061174a565b602060405180830381865afa1580156106bc573d6000803e3d6000fd5b505050506040513d601f19601f820116820180604052508101906106e09190611911565b905086811015610725576040517f08c379a000000000000000000000000000000000000000000000000000000000815260040161071c906119b0565b60405180910390fd5b600160009054906101000a900473ffffffffffffffffffffffffffffffffffffffff1673ffffffffffffffffffffffffffffffffffffffff16632e1a7d4d826040518263ffffffff1660e01b81526004016107809190611a4b565b600060405180830381600087803b15801561079a57600080fd5b505af11580156107ae573d6000803e3d6000fd5b505050506107bc8482611259565b5050505050505050565b806000806101000a81548173ffffffffffffffffffffffffffffffffffffffff021916908373ffffffffffffffffffffffffffffffffffffffff16021790555050565b600160009054906101000a900473ffffffffffffffffffffffffffffffffffffffff1681565b8042811015610873576040517f08c379a000000000000000000000000000000000000000000000000000000000815260040161086a9061184a565b60405180910390fd5b600160009054906101000a900473ffffffffffffffffffffffffffffffffffffffff1673ffffffffffffffffffffffffffffffffffffffff16858560008181106108c0576108bf61186a565b5b90506020020160208101906108d5919061170e565b73ffffffffffffffffffffffffffffffffffffffff161461092b576040517f08c379a000000000000000000000000000000000000000000000000000000000815260040161092290611a1c565b60405180910390fd5b6000349050600160009054906101000a900473ffffffffffffffffffffffffffffffffffffffff1673ffffffffffffffffffffffffffffffffffffffff1663d0e30db0826040518263ffffffff1660e01b81526004016000604051808303818588803b15801561099a57600080fd5b505af11580156109ae573d6000803e3d6000fd5b5050505050600160009054906101000a900473ffffffffffffffffffffffffffffffffffffffff1673ffffffffffffffffffffffffffffffffffffffff1663a9059cbb610a6c60008054906101000a900473ffffffffffffffffffffffffffffffffffffffff1689896000818110610a2957610a2861186a565b5b9050602002016020810190610a3e919061170e565b8a8a6001818110610a5257610a5161186a565b5b9050602002016020810190610a67919061170e565b610d04565b836040518363ffffffff1660e01b8152600401610a8a929190611a66565b6020604051808303816000875af1158015610aa9573d6000803e3d6000fd5b505050506040513d601f19601f82011682018060405250810190610acd9190611ac7565b610ada57610ad9611af4565b5b60008686600189899050610aee91906118c8565b818110610afe57610afd61186a565b5b9050602002016020810190610b13919061170e565b73ffffffffffffffffffffffffffffffffffffffff166370a08231866040518263ffffffff1660e01b8152600401610b4b919061174a565b602060405180830381865afa158015610b68573d6000803e3d6000fd5b505050506040513d601f19601f82011682018060405250810190610b8c9190611911565b9050610bd9878780806020026020016040519081016040528093929190818152602001838360200280828437600081840152601f19601f8201169050808301925050505050505086610eaf565b8781888860018b8b9050610bed91906118c8565b818110610bfd57610bfc61186a565b5b9050602002016020810190610c12919061170e565b73ffffffffffffffffffffffffffffffffffffffff166370a08231886040518263ffffffff1660e01b8152600401610c4a919061174a565b602060405180830381865afa158015610c67573d6000803e3d6000fd5b505050506040513d601f19601f82011682018060405250810190610c8b9190611911565b610c9591906118c8565b1015610cd6576040517f08c379a0000000000000000000000000000000000000000000000000000000008152600401610ccd906119b0565b60405180910390fd5b5050505050505050565b60008054906101000a900473ffffffffffffffffffffffffffffffffffffffff1681565b6000806000610d138585611359565b91509150858282604051602001610d2b929190611b6b565b60405160208183030381529060405280519060200120604051602001610d52929190611c65565b6040516020818303038152906040528051906020012060001c925050509392505050565b6000808573ffffffffffffffffffffffffffffffffffffffff166323b872dd868686604051602401610daa93929190611ca7565b6040516020818303038152906040529060e01b6020820180517bffffffffffffffffffffffffffffffffffffffffffffffffffffffff8381831617835250505050604051610df89190611d58565b6000604051808303816000865af19150503d8060008114610e35576040519150601f19603f3d011682016040523d82523d6000602084013e610e3a565b606091505b5091509150818015610e685750600081511480610e67575080806020019051810190610e669190611ac7565b5b5b610ea7576040517f08c379a0000000000000000000000000000000000000000000000000000000008152600401610e9e90611de1565b60405180910390fd5b505050505050565b60005b60018351610ec091906118c8565b81101561125457600080848381518110610edd57610edc61186a565b5b602002602001015185600185610ef39190611e01565b81518110610f0457610f0361186a565b5b6020026020010151915091506000610f1c8383611359565b5090506000610f4c60008054906101000a900473ffffffffffffffffffffffffffffffffffffffff168585610d04565b90506000806000808473ffffffffffffffffffffffffffffffffffffffff16630902f1ac6040518163ffffffff1660e01b8152600401606060405180830381865afa158015610f9f573d6000803e3d6000fd5b505050506040513d601f19601f82011682018060405250810190610fc39190611ed9565b506dffffffffffffffffffffffffffff1691506dffffffffffffffffffffffffffff1691506000808773ffffffffffffffffffffffffffffffffffffffff168a73ffffffffffffffffffffffffffffffffffffffff1614611025578284611028565b83835b91509150818a73ffffffffffffffffffffffffffffffffffffffff166370a08231896040518263ffffffff1660e01b8152600401611066919061174a565b602060405180830381865afa158015611083573d6000803e3d6000fd5b505050506040513d601f19601f820116820180604052508101906110a79190611911565b6110b191906118c8565b95506110be868383611487565b9450505050506000808573ffffffffffffffffffffffffffffffffffffffff168873ffffffffffffffffffffffffffffffffffffffff161461110257826000611106565b6000835b91509150600060028c5161111a91906118c8565b8a10611126578a611178565b61117760008054906101000a900473ffffffffffffffffffffffffffffffffffffffff16898e60028e6111599190611e01565b8151811061116a5761116961186a565b5b6020026020010151610d04565b5b90508573ffffffffffffffffffffffffffffffffffffffff1663022c0d9f848484600067ffffffffffffffff8111156111b4576111b3611f2c565b5b6040519080825280601f01601f1916602001820160405280156111e65781602001600182028036833780820191505090505b506040518563ffffffff1660e01b81526004016112069493929190611fb6565b600060405180830381600087803b15801561122057600080fd5b505af1158015611234573d6000803e3d6000fd5b50505050505050505050505050808061124c90612002565b915050610eb2565b505050565b60008273ffffffffffffffffffffffffffffffffffffffff1682600067ffffffffffffffff81111561128e5761128d611f2c565b5b6040519080825280601f01601f1916602001820160405280156112c05781602001600182028036833780820191505090505b506040516112ce9190611d58565b60006040518083038185875af1925050503d806000811461130b576040519150601f19603f3d011682016040523d82523d6000602084013e611310565b606091505b5050905080611354576040517f08c379a000000000000000000000000000000000000000000000000000000000815260040161134b906120bd565b60405180910390fd5b505050565b6000808273ffffffffffffffffffffffffffffffffffffffff168473ffffffffffffffffffffffffffffffffffffffff1614156113cb576040517f08c379a00000000000000000000000000000000000000000000000000000000081526004016113c29061214f565b60405180910390fd5b8273ffffffffffffffffffffffffffffffffffffffff168473ffffffffffffffffffffffffffffffffffffffff1610611405578284611408565b83835b8092508193505050600073ffffffffffffffffffffffffffffffffffffffff168273ffffffffffffffffffffffffffffffffffffffff161415611480576040517f08c379a0000000000000000000000000000000000000000000000000000000008152600401611477906121bb565b60405180910390fd5b9250929050565b60008084116114cb576040517f08c379a00000000000000000000000000000000000000000000000000000000081526004016114c29061224d565b60405180910390fd5b6000831180156114db5750600082115b61151a576040517f08c379a0000000000000000000000000000000000000000000000000000000008152600401611511906122df565b60405180910390fd5b60006103e58561152a91906122ff565b90506000838261153a91906122ff565b90506000826103e88761154d91906122ff565b6115579190611e01565b905080826115659190612388565b93505050509392505050565b600080fd5b600080fd5b6000819050919050565b61158e8161157b565b811461159957600080fd5b50565b6000813590506115ab81611585565b92915050565b600080fd5b600080fd5b600080fd5b60008083601f8401126115d6576115d56115b1565b5b8235905067ffffffffffffffff8111156115f3576115f26115b6565b5b60208301915083602082028301111561160f5761160e6115bb565b5b9250929050565b600073ffffffffffffffffffffffffffffffffffffffff82169050919050565b600061164182611616565b9050919050565b61165181611636565b811461165c57600080fd5b50565b60008135905061166e81611648565b92915050565b60008060008060008060a0878903121561169157611690611571565b5b600061169f89828a0161159c565b96505060206116b089828a0161159c565b955050604087013567ffffffffffffffff8111156116d1576116d0611576565b5b6116dd89828a016115c0565b945094505060606116f089828a0161165f565b925050608061170189828a0161159c565b9150509295509295509295565b60006020828403121561172457611723611571565b5b60006117328482850161165f565b91505092915050565b61174481611636565b82525050565b600060208201905061175f600083018461173b565b92915050565b60008060008060006080868803121561178157611780611571565b5b600061178f8882890161159c565b955050602086013567ffffffffffffffff8111156117b0576117af611576565b5b6117bc888289016115c0565b945094505060406117cf8882890161165f565b92505060606117e08882890161159c565b9150509295509295909350565b600082825260208201905092915050565b7f556e69737761705632526f757465723a20455850495245440000000000000000600082015250565b60006118346018836117ed565b915061183f826117fe565b602082019050919050565b6000602082019050818103600083015261186381611827565b9050919050565b7f4e487b7100000000000000000000000000000000000000000000000000000000600052603260045260246000fd5b7f4e487b7100000000000000000000000000000000000000000000000000000000600052601160045260246000fd5b60006118d38261157b565b91506118de8361157b565b9250828210156118f1576118f0611899565b5b828203905092915050565b60008151905061190b81611585565b92915050565b60006020828403121561192757611926611571565b5b6000611935848285016118fc565b91505092915050565b7f556e69737761705632526f757465723a20494e53554646494349454e545f4f5560008201527f545055545f414d4f554e54000000000000000000000000000000000000000000602082015250565b600061199a602b836117ed565b91506119a58261193e565b604082019050919050565b600060208201905081810360008301526119c98161198d565b9050919050565b7f556e69737761705632526f757465723a20494e56414c49445f50415448000000600082015250565b6000611a06601d836117ed565b9150611a11826119d0565b602082019050919050565b60006020820190508181036000830152611a35816119f9565b9050919050565b611a458161157b565b82525050565b6000602082019050611a606000830184611a3c565b92915050565b6000604082019050611a7b600083018561173b565b611a886020830184611a3c565b9392505050565b60008115159050919050565b611aa481611a8f565b8114611aaf57600080fd5b50565b600081519050611ac181611a9b565b92915050565b600060208284031215611add57611adc611571565b5b6000611aeb84828501611ab2565b91505092915050565b7f4e487b7100000000000000000000000000000000000000000000000000000000600052600160045260246000fd5b60008160601b9050919050565b6000611b3b82611b23565b9050919050565b6000611b4d82611b30565b9050919050565b611b65611b6082611636565b611b42565b82525050565b6000611b778285611b54565b601482019150611b878284611b54565b6014820191508190509392505050565b600081905092915050565b7fff00000000000000000000000000000000000000000000000000000000000000600082015250565b6000611bd8600183611b97565b9150611be382611ba2565b600182019050919050565b6000819050919050565b6000819050919050565b611c13611c0e82611bee565b611bf8565b82525050565b7f96e8ac4277198ff8b6f785478aa9a39f403cb768dd02cbee326c3e7da348845f600082015250565b6000611c4f602083611b97565b9150611c5a82611c19565b602082019050919050565b6000611c7082611bcb565b9150611c7c8285611b54565b601482019150611c8c8284611c02565b602082019150611c9b82611c42565b91508190509392505050565b6000606082019050611cbc600083018661173b565b611cc9602083018561173b565b611cd66040830184611a3c565b949350505050565b600081519050919050565b600081905092915050565b60005b83811015611d12578082015181840152602081019050611cf7565b83811115611d21576000848401525b50505050565b6000611d3282611cde565b611d3c8185611ce9565b9350611d4c818560208601611cf4565b80840191505092915050565b6000611d648284611d27565b915081905092915050565b7f5472616e7366657248656c7065723a3a7472616e7366657246726f6d3a20747260008201527f616e7366657246726f6d206661696c6564000000000000000000000000000000602082015250565b6000611dcb6031836117ed565b9150611dd682611d6f565b604082019050919050565b60006020820190508181036000830152611dfa81611dbe565b9050919050565b6000611e0c8261157b565b9150611e178361157b565b9250827fffffffffffffffffffffffffffffffffffffffffffffffffffffffffffffffff03821115611e4c57611e4b611899565b5b828201905092915050565b60006dffffffffffffffffffffffffffff82169050919050565b611e7a81611e57565b8114611e8557600080fd5b50565b600081519050611e9781611e71565b92915050565b600063ffffffff82169050919050565b611eb681611e9d565b8114611ec157600080fd5b50565b600081519050611ed381611ead565b92915050565b600080600060608486031215611ef257611ef1611571565b5b6000611f0086828701611e88565b9350506020611f1186828701611e88565b9250506040611f2286828701611ec4565b9150509250925092565b7f4e487b7100000000000000000000000000000000000000000000000000000000600052604160045260246000fd5b600082825260208201905092915050565b6000601f19601f8301169050919050565b6000611f8882611cde565b611f928185611f5b565b9350611fa2818560208601611cf4565b611fab81611f6c565b840191505092915050565b6000608082019050611fcb6000830187611a3c565b611fd86020830186611a3c565b611fe5604083018561173b565b8181036060830152611ff78184611f7d565b905095945050505050565b600061200d8261157b565b91507fffffffffffffffffffffffffffffffffffffffffffffffffffffffffffffffff8214156120405761203f611899565b5b600182019050919050565b7f5472616e7366657248656c7065723a3a736166655472616e736665724554483a60008201527f20455448207472616e73666572206661696c6564000000000000000000000000602082015250565b60006120a76034836117ed565b91506120b28261204b565b604082019050919050565b600060208201905081810360008301526120d68161209a565b9050919050565b7f556e697377617056324c6962726172793a204944454e544943414c5f4144445260008201527f4553534553000000000000000000000000000000000000000000000000000000602082015250565b60006121396025836117ed565b9150612144826120dd565b604082019050919050565b600060208201905081810360008301526121688161212c565b9050919050565b7f556e697377617056324c6962726172793a205a45524f5f414444524553530000600082015250565b60006121a5601e836117ed565b91506121b08261216f565b602082019050919050565b600060208201905081810360008301526121d481612198565b9050919050565b7f556e697377617056324c6962726172793a20494e53554646494349454e545f4960008201527f4e5055545f414d4f554e54000000000000000000000000000000000000000000602082015250565b6000612237602b836117ed565b9150612242826121db565b604082019050919050565b600060208201905081810360008301526122668161222a565b9050919050565b7f556e697377617056324c6962726172793a20494e53554646494349454e545f4c60008201527f4951554944495459000000000000000000000000000000000000000000000000602082015250565b60006122c96028836117ed565b91506122d48261226d565b604082019050919050565b600060208201905081810360008301526122f8816122bc565b9050919050565b600061230a8261157b565b91506123158361157b565b9250817fffffffffffffffffffffffffffffffffffffffffffffffffffffffffffffffff048311821515161561234e5761234d611899565b5b828202905092915050565b7f4e487b7100000000000000000000000000000000000000000000000000000000600052601260045260246000fd5b60006123938261157b565b915061239e8361157b565b9250826123ae576123ad612359565b5b82820490509291505056fea2646970667358221220cf08413f6afb178f5df6496d6504f8539b4893b3b8f4e4b04913d10bff353efe64736f6c634300080a0033",
					"opcodes": "PUSH1 0x80 PUSH1 0x40 MSTORE CALLVALUE DUP1 ISZERO PUSH2 0x10 JUMPI PUSH1 0x0 DUP1 REVERT JUMPDEST POP PUSH2 0x23EF DUP1 PUSH2 0x20 PUSH1 0x0 CODECOPY PUSH1 0x0 RETURN INVALID PUSH1 0x80 PUSH1 0x40 MSTORE PUSH1 0x4 CALLDATASIZE LT PUSH2 0x55 JUMPI PUSH1 0x0 CALLDATALOAD PUSH1 0xE0 SHR DUP1 PUSH4 0x5C11D795 EQ PUSH2 0x5A JUMPI DUP1 PUSH4 0x791AC947 EQ PUSH2 0x83 JUMPI DUP1 PUSH4 0xAD15CD0D EQ PUSH2 0xAC JUMPI DUP1 PUSH4 0xAD5C4648 EQ PUSH2 0xD5 JUMPI DUP1 PUSH4 0xB6F9DE95 EQ PUSH2 0x100 JUMPI DUP1 PUSH4 0xC45A0155 EQ PUSH2 0x11C JUMPI JUMPDEST PUSH1 0x0 DUP1 REVERT JUMPDEST CALLVALUE DUP1 ISZERO PUSH2 0x66 JUMPI PUSH1 0x0 DUP1 REVERT JUMPDEST POP PUSH2 0x81 PUSH1 0x4 DUP1 CALLDATASIZE SUB DUP2 ADD SWAP1 PUSH2 0x7C SWAP2 SWAP1 PUSH2 0x1674 JUMP JUMPDEST PUSH2 0x147 JUMP JUMPDEST STOP JUMPDEST CALLVALUE DUP1 ISZERO PUSH2 0x8F JUMPI PUSH1 0x0 DUP1 REVERT JUMPDEST POP PUSH2 0xAA PUSH1 0x4 DUP1 CALLDATASIZE SUB DUP2 ADD SWAP1 PUSH2 0xA5 SWAP2 SWAP1 PUSH2 0x1674 JUMP JUMPDEST PUSH2 0x43F JUMP JUMPDEST STOP JUMPDEST CALLVALUE DUP1 ISZERO PUSH2 0xB8 JUMPI PUSH1 0x0 DUP1 REVERT JUMPDEST POP PUSH2 0xD3 PUSH1 0x4 DUP1 CALLDATASIZE SUB DUP2 ADD SWAP1 PUSH2 0xCE SWAP2 SWAP1 PUSH2 0x170E JUMP JUMPDEST PUSH2 0x7C6 JUMP JUMPDEST STOP JUMPDEST CALLVALUE DUP1 ISZERO PUSH2 0xE1 JUMPI PUSH1 0x0 DUP1 REVERT JUMPDEST POP PUSH2 0xEA PUSH2 0x809 JUMP JUMPDEST PUSH1 0x40 MLOAD PUSH2 0xF7 SWAP2 SWAP1 PUSH2 0x174A JUMP JUMPDEST PUSH1 0x40 MLOAD DUP1 SWAP2 SUB SWAP1 RETURN JUMPDEST PUSH2 0x11A PUSH1 0x4 DUP1 CALLDATASIZE SUB DUP2 ADD SWAP1 PUSH2 0x115 SWAP2 SWAP1 PUSH2 0x1765 JUMP JUMPDEST PUSH2 0x82F JUMP JUMPDEST STOP JUMPDEST CALLVALUE DUP1 ISZERO PUSH2 0x128 JUMPI PUSH1 0x0 DUP1 REVERT JUMPDEST POP PUSH2 0x131 PUSH2 0xCE0 JUMP JUMPDEST PUSH1 0x40 MLOAD PUSH2 0x13E SWAP2 SWAP1 PUSH2 0x174A JUMP JUMPDEST PUSH1 0x40 MLOAD DUP1 SWAP2 SUB SWAP1 RETURN JUMPDEST DUP1 TIMESTAMP DUP2 LT ISZERO PUSH2 0x18B JUMPI PUSH1 0x40 MLOAD PUSH32 0x8C379A000000000000000000000000000000000000000000000000000000000 DUP2 MSTORE PUSH1 0x4 ADD PUSH2 0x182 SWAP1 PUSH2 0x184A JUMP JUMPDEST PUSH1 0x40 MLOAD DUP1 SWAP2 SUB SWAP1 REVERT JUMPDEST PUSH2 0x239 DUP6 DUP6 PUSH1 0x0 DUP2 DUP2 LT PUSH2 0x1A2 JUMPI PUSH2 0x1A1 PUSH2 0x186A JUMP JUMPDEST JUMPDEST SWAP1 POP PUSH1 0x20 MUL ADD PUSH1 0x20 DUP2 ADD SWAP1 PUSH2 0x1B7 SWAP2 SWAP1 PUSH2 0x170E JUMP JUMPDEST CALLER PUSH2 0x233 PUSH1 0x0 DUP1 SLOAD SWAP1 PUSH2 0x100 EXP SWAP1 DIV PUSH20 0xFFFFFFFFFFFFFFFFFFFFFFFFFFFFFFFFFFFFFFFF AND DUP10 DUP10 PUSH1 0x0 DUP2 DUP2 LT PUSH2 0x1F0 JUMPI PUSH2 0x1EF PUSH2 0x186A JUMP JUMPDEST JUMPDEST SWAP1 POP PUSH1 0x20 MUL ADD PUSH1 0x20 DUP2 ADD SWAP1 PUSH2 0x205 SWAP2 SWAP1 PUSH2 0x170E JUMP JUMPDEST DUP11 DUP11 PUSH1 0x1 DUP2 DUP2 LT PUSH2 0x219 JUMPI PUSH2 0x218 PUSH2 0x186A JUMP JUMPDEST JUMPDEST SWAP1 POP PUSH1 0x20 MUL ADD PUSH1 0x20 DUP2 ADD SWAP1 PUSH2 0x22E SWAP2 SWAP1 PUSH2 0x170E JUMP JUMPDEST PUSH2 0xD04 JUMP JUMPDEST DUP11 PUSH2 0xD76 JUMP JUMPDEST PUSH1 0x0 DUP6 DUP6 PUSH1 0x1 DUP9 DUP9 SWAP1 POP PUSH2 0x24D SWAP2 SWAP1 PUSH2 0x18C8 JUMP JUMPDEST DUP2 DUP2 LT PUSH2 0x25D JUMPI PUSH2 0x25C PUSH2 0x186A JUMP JUMPDEST JUMPDEST SWAP1 POP PUSH1 0x20 MUL ADD PUSH1 0x20 DUP2 ADD SWAP1 PUSH2 0x272 SWAP2 SWAP1 PUSH2 0x170E JUMP JUMPDEST PUSH20 0xFFFFFFFFFFFFFFFFFFFFFFFFFFFFFFFFFFFFFFFF AND PUSH4 0x70A08231 DUP6 PUSH1 0x40 MLOAD DUP3 PUSH4 0xFFFFFFFF AND PUSH1 0xE0 SHL DUP2 MSTORE PUSH1 0x4 ADD PUSH2 0x2AA SWAP2 SWAP1 PUSH2 0x174A JUMP JUMPDEST PUSH1 0x20 PUSH1 0x40 MLOAD DUP1 DUP4 SUB DUP2 DUP7 GAS STATICCALL ISZERO DUP1 ISZERO PUSH2 0x2C7 JUMPI RETURNDATASIZE PUSH1 0x0 DUP1 RETURNDATACOPY RETURNDATASIZE PUSH1 0x0 REVERT JUMPDEST POP POP POP POP PUSH1 0x40 MLOAD RETURNDATASIZE PUSH1 0x1F NOT PUSH1 0x1F DUP3 ADD AND DUP3 ADD DUP1 PUSH1 0x40 MSTORE POP DUP2 ADD SWAP1 PUSH2 0x2EB SWAP2 SWAP1 PUSH2 0x1911 JUMP JUMPDEST SWAP1 POP PUSH2 0x338 DUP7 DUP7 DUP1 DUP1 PUSH1 0x20 MUL PUSH1 0x20 ADD PUSH1 0x40 MLOAD SWAP1 DUP2 ADD PUSH1 0x40 MSTORE DUP1 SWAP4 SWAP3 SWAP2 SWAP1 DUP2 DUP2 MSTORE PUSH1 0x20 ADD DUP4 DUP4 PUSH1 0x20 MUL DUP1 DUP3 DUP5 CALLDATACOPY PUSH1 0x0 DUP2 DUP5 ADD MSTORE PUSH1 0x1F NOT PUSH1 0x1F DUP3 ADD AND SWAP1 POP DUP1 DUP4 ADD SWAP3 POP POP POP POP POP POP POP DUP6 PUSH2 0xEAF JUMP JUMPDEST DUP7 DUP2 DUP8 DUP8 PUSH1 0x1 DUP11 DUP11 SWAP1 POP PUSH2 0x34C SWAP2 SWAP1 PUSH2 0x18C8 JUMP JUMPDEST DUP2 DUP2 LT PUSH2 0x35C JUMPI PUSH2 0x35B PUSH2 0x186A JUMP JUMPDEST JUMPDEST SWAP1 POP PUSH1 0x20 MUL ADD PUSH1 0x20 DUP2 ADD SWAP1 PUSH2 0x371 SWAP2 SWAP1 PUSH2 0x170E JUMP JUMPDEST PUSH20 0xFFFFFFFFFFFFFFFFFFFFFFFFFFFFFFFFFFFFFFFF AND PUSH4 0x70A08231 DUP8 PUSH1 0x40 MLOAD DUP3 PUSH4 0xFFFFFFFF AND PUSH1 0xE0 SHL DUP2 MSTORE PUSH1 0x4 ADD PUSH2 0x3A9 SWAP2 SWAP1 PUSH2 0x174A JUMP JUMPDEST PUSH1 0x20 PUSH1 0x40 MLOAD DUP1 DUP4 SUB DUP2 DUP7 GAS STATICCALL ISZERO DUP1 ISZERO PUSH2 0x3C6 JUMPI RETURNDATASIZE PUSH1 0x0 DUP1 RETURNDATACOPY RETURNDATASIZE PUSH1 0x0 REVERT JUMPDEST POP POP POP POP PUSH1 0x40 MLOAD RETURNDATASIZE PUSH1 0x1F NOT PUSH1 0x1F DUP3 ADD AND DUP3 ADD DUP1 PUSH1 0x40 MSTORE POP DUP2 ADD SWAP1 PUSH2 0x3EA SWAP2 SWAP1 PUSH2 0x1911 JUMP JUMPDEST PUSH2 0x3F4 SWAP2 SWAP1 PUSH2 0x18C8 JUMP JUMPDEST LT ISZERO PUSH2 0x435 JUMPI PUSH1 0x40 MLOAD PUSH32 0x8C379A000000000000000000000000000000000000000000000000000000000 DUP2 MSTORE PUSH1 0x4 ADD PUSH2 0x42C SWAP1 PUSH2 0x19B0 JUMP JUMPDEST PUSH1 0x40 MLOAD DUP1 SWAP2 SUB SWAP1 REVERT JUMPDEST POP POP POP POP POP POP POP POP JUMP JUMPDEST DUP1 TIMESTAMP DUP2 LT ISZERO PUSH2 0x483 JUMPI PUSH1 0x40 MLOAD PUSH32 0x8C379A000000000000000000000000000000000000000000000000000000000 DUP2 MSTORE PUSH1 0x4 ADD PUSH2 0x47A SWAP1 PUSH2 0x184A JUMP JUMPDEST PUSH1 0x40 MLOAD DUP1 SWAP2 SUB SWAP1 REVERT JUMPDEST PUSH1 0x1 PUSH1 0x0 SWAP1 SLOAD SWAP1 PUSH2 0x100 EXP SWAP1 DIV PUSH20 0xFFFFFFFFFFFFFFFFFFFFFFFFFFFFFFFFFFFFFFFF AND PUSH20 0xFFFFFFFFFFFFFFFFFFFFFFFFFFFFFFFFFFFFFFFF AND DUP6 DUP6 PUSH1 0x1 DUP9 DUP9 SWAP1 POP PUSH2 0x4CE SWAP2 SWAP1 PUSH2 0x18C8 JUMP JUMPDEST DUP2 DUP2 LT PUSH2 0x4DE JUMPI PUSH2 0x4DD PUSH2 0x186A JUMP JUMPDEST JUMPDEST SWAP1 POP PUSH1 0x20 MUL ADD PUSH1 0x20 DUP2 ADD SWAP1 PUSH2 0x4F3 SWAP2 SWAP1 PUSH2 0x170E JUMP JUMPDEST PUSH20 0xFFFFFFFFFFFFFFFFFFFFFFFFFFFFFFFFFFFFFFFF AND EQ PUSH2 0x549 JUMPI PUSH1 0x40 MLOAD PUSH32 0x8C379A000000000000000000000000000000000000000000000000000000000 DUP2 MSTORE PUSH1 0x4 ADD PUSH2 0x540 SWAP1 PUSH2 0x1A1C JUMP JUMPDEST PUSH1 0x40 MLOAD DUP1 SWAP2 SUB SWAP1 REVERT JUMPDEST PUSH2 0x5F7 DUP6 DUP6 PUSH1 0x0 DUP2 DUP2 LT PUSH2 0x560 JUMPI PUSH2 0x55F PUSH2 0x186A JUMP JUMPDEST JUMPDEST SWAP1 POP PUSH1 0x20 MUL ADD PUSH1 0x20 DUP2 ADD SWAP1 PUSH2 0x575 SWAP2 SWAP1 PUSH2 0x170E JUMP JUMPDEST CALLER PUSH2 0x5F1 PUSH1 0x0 DUP1 SLOAD SWAP1 PUSH2 0x100 EXP SWAP1 DIV PUSH20 0xFFFFFFFFFFFFFFFFFFFFFFFFFFFFFFFFFFFFFFFF AND DUP10 DUP10 PUSH1 0x0 DUP2 DUP2 LT PUSH2 0x5AE JUMPI PUSH2 0x5AD PUSH2 0x186A JUMP JUMPDEST JUMPDEST SWAP1 POP PUSH1 0x20 MUL ADD PUSH1 0x20 DUP2 ADD SWAP1 PUSH2 0x5C3 SWAP2 SWAP1 PUSH2 0x170E JUMP JUMPDEST DUP11 DUP11 PUSH1 0x1 DUP2 DUP2 LT PUSH2 0x5D7 JUMPI PUSH2 0x5D6 PUSH2 0x186A JUMP JUMPDEST JUMPDEST SWAP1 POP PUSH1 0x20 MUL ADD PUSH1 0x20 DUP2 ADD SWAP1 PUSH2 0x5EC SWAP2 SWAP1 PUSH2 0x170E JUMP JUMPDEST PUSH2 0xD04 JUMP JUMPDEST DUP11 PUSH2 0xD76 JUMP JUMPDEST PUSH2 0x642 DUP6 DUP6 DUP1 DUP1 PUSH1 0x20 MUL PUSH1 0x20 ADD PUSH1 0x40 MLOAD SWAP1 DUP2 ADD PUSH1 0x40 MSTORE DUP1 SWAP4 SWAP3 SWAP2 SWAP1 DUP2 DUP2 MSTORE PUSH1 0x20 ADD DUP4 DUP4 PUSH1 0x20 MUL DUP1 DUP3 DUP5 CALLDATACOPY PUSH1 0x0 DUP2 DUP5 ADD MSTORE PUSH1 0x1F NOT PUSH1 0x1F DUP3 ADD AND SWAP1 POP DUP1 DUP4 ADD SWAP3 POP POP POP POP POP POP POP ADDRESS PUSH2 0xEAF JUMP JUMPDEST PUSH1 0x0 PUSH1 0x1 PUSH1 0x0 SWAP1 SLOAD SWAP1 PUSH2 0x100 EXP SWAP1 DIV PUSH20 0xFFFFFFFFFFFFFFFFFFFFFFFFFFFFFFFFFFFFFFFF AND PUSH20 0xFFFFFFFFFFFFFFFFFFFFFFFFFFFFFFFFFFFFFFFF AND PUSH4 0x70A08231 ADDRESS PUSH1 0x40 MLOAD DUP3 PUSH4 0xFFFFFFFF AND PUSH1 0xE0 SHL DUP2 MSTORE PUSH1 0x4 ADD PUSH2 0x69F SWAP2 SWAP1 PUSH2 0x174A JUMP JUMPDEST PUSH1 0x20 PUSH1 0x40 MLOAD DUP1 DUP4 SUB DUP2 DUP7 GAS STATICCALL ISZERO DUP1 ISZERO PUSH2 0x6BC JUMPI RETURNDATASIZE PUSH1 0x0 DUP1 RETURNDATACOPY RETURNDATASIZE PUSH1 0x0 REVERT JUMPDEST POP POP POP POP PUSH1 0x40 MLOAD RETURNDATASIZE PUSH1 0x1F NOT PUSH1 0x1F DUP3 ADD AND DUP3 ADD DUP1 PUSH1 0x40 MSTORE POP DUP2 ADD SWAP1 PUSH2 0x6E0 SWAP2 SWAP1 PUSH2 0x1911 JUMP JUMPDEST SWAP1 POP DUP7 DUP2 LT ISZERO PUSH2 0x725 JUMPI PUSH1 0x40 MLOAD PUSH32 0x8C379A000000000000000000000000000000000000000000000000000000000 DUP2 MSTORE PUSH1 0x4 ADD PUSH2 0x71C SWAP1 PUSH2 0x19B0 JUMP JUMPDEST PUSH1 0x40 MLOAD DUP1 SWAP2 SUB SWAP1 REVERT JUMPDEST PUSH1 0x1 PUSH1 0x0 SWAP1 SLOAD SWAP1 PUSH2 0x100 EXP SWAP1 DIV PUSH20 0xFFFFFFFFFFFFFFFFFFFFFFFFFFFFFFFFFFFFFFFF AND PUSH20 0xFFFFFFFFFFFFFFFFFFFFFFFFFFFFFFFFFFFFFFFF AND PUSH4 0x2E1A7D4D DUP3 PUSH1 0x40 MLOAD DUP3 PUSH4 0xFFFFFFFF AND PUSH1 0xE0 SHL DUP2 MSTORE PUSH1 0x4 ADD PUSH2 0x780 SWAP2 SWAP1 PUSH2 0x1A4B JUMP JUMPDEST PUSH1 0x0 PUSH1 0x40 MLOAD DUP1 DUP4 SUB DUP2 PUSH1 0x0 DUP8 DUP1 EXTCODESIZE ISZERO DUP1 ISZERO PUSH2 0x79A JUMPI PUSH1 0x0 DUP1 REVERT JUMPDEST POP GAS CALL ISZERO DUP1 ISZERO PUSH2 0x7AE JUMPI RETURNDATASIZE PUSH1 0x0 DUP1 RETURNDATACOPY RETURNDATASIZE PUSH1 0x0 REVERT JUMPDEST POP POP POP POP PUSH2 0x7BC DUP5 DUP3 PUSH2 0x1259 JUMP JUMPDEST POP POP POP POP POP POP POP POP JUMP JUMPDEST DUP1 PUSH1 0x0 DUP1 PUSH2 0x100 EXP DUP2 SLOAD DUP2 PUSH20 0xFFFFFFFFFFFFFFFFFFFFFFFFFFFFFFFFFFFFFFFF MUL NOT AND SWAP1 DUP4 PUSH20 0xFFFFFFFFFFFFFFFFFFFFFFFFFFFFFFFFFFFFFFFF AND MUL OR SWAP1 SSTORE POP POP JUMP JUMPDEST PUSH1 0x1 PUSH1 0x0 SWAP1 SLOAD SWAP1 PUSH2 0x100 EXP SWAP1 DIV PUSH20 0xFFFFFFFFFFFFFFFFFFFFFFFFFFFFFFFFFFFFFFFF AND DUP2 JUMP JUMPDEST DUP1 TIMESTAMP DUP2 LT ISZERO PUSH2 0x873 JUMPI PUSH1 0x40 MLOAD PUSH32 0x8C379A000000000000000000000000000000000000000000000000000000000 DUP2 MSTORE PUSH1 0x4 ADD PUSH2 0x86A SWAP1 PUSH2 0x184A JUMP JUMPDEST PUSH1 0x40 MLOAD DUP1 SWAP2 SUB SWAP1 REVERT JUMPDEST PUSH1 0x1 PUSH1 0x0 SWAP1 SLOAD SWAP1 PUSH2 0x100 EXP SWAP1 DIV PUSH20 0xFFFFFFFFFFFFFFFFFFFFFFFFFFFFFFFFFFFFFFFF AND PUSH20 0xFFFFFFFFFFFFFFFFFFFFFFFFFFFFFFFFFFFFFFFF AND DUP6 DUP6 PUSH1 0x0 DUP2 DUP2 LT PUSH2 0x8C0 JUMPI PUSH2 0x8BF PUSH2 0x186A JUMP JUMPDEST JUMPDEST SWAP1 POP PUSH1 0x20 MUL ADD PUSH1 0x20 DUP2 ADD SWAP1 PUSH2 0x8D5 SWAP2 SWAP1 PUSH2 0x170E JUMP JUMPDEST PUSH20 0xFFFFFFFFFFFFFFFFFFFFFFFFFFFFFFFFFFFFFFFF AND EQ PUSH2 0x92B JUMPI PUSH1 0x40 MLOAD PUSH32 0x8C379A000000000000000000000000000000000000000000000000000000000 DUP2 MSTORE PUSH1 0x4 ADD PUSH2 0x922 SWAP1 PUSH2 0x1A1C JUMP JUMPDEST PUSH1 0x40 MLOAD DUP1 SWAP2 SUB SWAP1 REVERT JUMPDEST PUSH1 0x0 CALLVALUE SWAP1 POP PUSH1 0x1 PUSH1 0x0 SWAP1 SLOAD SWAP1 PUSH2 0x100 EXP SWAP1 DIV PUSH20 0xFFFFFFFFFFFFFFFFFFFFFFFFFFFFFFFFFFFFFFFF AND PUSH20 0xFFFFFFFFFFFFFFFFFFFFFFFFFFFFFFFFFFFFFFFF AND PUSH4 0xD0E30DB0 DUP3 PUSH1 0x40 MLOAD DUP3 PUSH4 0xFFFFFFFF AND PUSH1 0xE0 SHL DUP2 MSTORE PUSH1 0x4 ADD PUSH1 0x0 PUSH1 0x40 MLOAD DUP1 DUP4 SUB DUP2 DUP6 DUP9 DUP1 EXTCODESIZE ISZERO DUP1 ISZERO PUSH2 0x99A JUMPI PUSH1 0x0 DUP1 REVERT JUMPDEST POP GAS CALL ISZERO DUP1 ISZERO PUSH2 0x9AE JUMPI RETURNDATASIZE PUSH1 0x0 DUP1 RETURNDATACOPY RETURNDATASIZE PUSH1 0x0 REVERT JUMPDEST POP POP POP POP POP PUSH1 0x1 PUSH1 0x0 SWAP1 SLOAD SWAP1 PUSH2 0x100 EXP SWAP1 DIV PUSH20 0xFFFFFFFFFFFFFFFFFFFFFFFFFFFFFFFFFFFFFFFF AND PUSH20 0xFFFFFFFFFFFFFFFFFFFFFFFFFFFFFFFFFFFFFFFF AND PUSH4 0xA9059CBB PUSH2 0xA6C PUSH1 0x0 DUP1 SLOAD SWAP1 PUSH2 0x100 EXP SWAP1 DIV PUSH20 0xFFFFFFFFFFFFFFFFFFFFFFFFFFFFFFFFFFFFFFFF AND DUP10 DUP10 PUSH1 0x0 DUP2 DUP2 LT PUSH2 0xA29 JUMPI PUSH2 0xA28 PUSH2 0x186A JUMP JUMPDEST JUMPDEST SWAP1 POP PUSH1 0x20 MUL ADD PUSH1 0x20 DUP2 ADD SWAP1 PUSH2 0xA3E SWAP2 SWAP1 PUSH2 0x170E JUMP JUMPDEST DUP11 DUP11 PUSH1 0x1 DUP2 DUP2 LT PUSH2 0xA52 JUMPI PUSH2 0xA51 PUSH2 0x186A JUMP JUMPDEST JUMPDEST SWAP1 POP PUSH1 0x20 MUL ADD PUSH1 0x20 DUP2 ADD SWAP1 PUSH2 0xA67 SWAP2 SWAP1 PUSH2 0x170E JUMP JUMPDEST PUSH2 0xD04 JUMP JUMPDEST DUP4 PUSH1 0x40 MLOAD DUP4 PUSH4 0xFFFFFFFF AND PUSH1 0xE0 SHL DUP2 MSTORE PUSH1 0x4 ADD PUSH2 0xA8A SWAP3 SWAP2 SWAP1 PUSH2 0x1A66 JUMP JUMPDEST PUSH1 0x20 PUSH1 0x40 MLOAD DUP1 DUP4 SUB DUP2 PUSH1 0x0 DUP8 GAS CALL ISZERO DUP1 ISZERO PUSH2 0xAA9 JUMPI RETURNDATASIZE PUSH1 0x0 DUP1 RETURNDATACOPY RETURNDATASIZE PUSH1 0x0 REVERT JUMPDEST POP POP POP POP PUSH1 0x40 MLOAD RETURNDATASIZE PUSH1 0x1F NOT PUSH1 0x1F DUP3 ADD AND DUP3 ADD DUP1 PUSH1 0x40 MSTORE POP DUP2 ADD SWAP1 PUSH2 0xACD SWAP2 SWAP1 PUSH2 0x1AC7 JUMP JUMPDEST PUSH2 0xADA JUMPI PUSH2 0xAD9 PUSH2 0x1AF4 JUMP JUMPDEST JUMPDEST PUSH1 0x0 DUP7 DUP7 PUSH1 0x1 DUP10 DUP10 SWAP1 POP PUSH2 0xAEE SWAP2 SWAP1 PUSH2 0x18C8 JUMP JUMPDEST DUP2 DUP2 LT PUSH2 0xAFE JUMPI PUSH2 0xAFD PUSH2 0x186A JUMP JUMPDEST JUMPDEST SWAP1 POP PUSH1 0x20 MUL ADD PUSH1 0x20 DUP2 ADD SWAP1 PUSH2 0xB13 SWAP2 SWAP1 PUSH2 0x170E JUMP JUMPDEST PUSH20 0xFFFFFFFFFFFFFFFFFFFFFFFFFFFFFFFFFFFFFFFF AND PUSH4 0x70A08231 DUP7 PUSH1 0x40 MLOAD DUP3 PUSH4 0xFFFFFFFF AND PUSH1 0xE0 SHL DUP2 MSTORE PUSH1 0x4 ADD PUSH2 0xB4B SWAP2 SWAP1 PUSH2 0x174A JUMP JUMPDEST PUSH1 0x20 PUSH1 0x40 MLOAD DUP1 DUP4 SUB DUP2 DUP7 GAS STATICCALL ISZERO DUP1 ISZERO PUSH2 0xB68 JUMPI RETURNDATASIZE PUSH1 0x0 DUP1 RETURNDATACOPY RETURNDATASIZE PUSH1 0x0 REVERT JUMPDEST POP POP POP POP PUSH1 0x40 MLOAD RETURNDATASIZE PUSH1 0x1F NOT PUSH1 0x1F DUP3 ADD AND DUP3 ADD DUP1 PUSH1 0x40 MSTORE POP DUP2 ADD SWAP1 PUSH2 0xB8C SWAP2 SWAP1 PUSH2 0x1911 JUMP JUMPDEST SWAP1 POP PUSH2 0xBD9 DUP8 DUP8 DUP1 DUP1 PUSH1 0x20 MUL PUSH1 0x20 ADD PUSH1 0x40 MLOAD SWAP1 DUP2 ADD PUSH1 0x40 MSTORE DUP1 SWAP4 SWAP3 SWAP2 SWAP1 DUP2 DUP2 MSTORE PUSH1 0x20 ADD DUP4 DUP4 PUSH1 0x20 MUL DUP1 DUP3 DUP5 CALLDATACOPY PUSH1 0x0 DUP2 DUP5 ADD MSTORE PUSH1 0x1F NOT PUSH1 0x1F DUP3 ADD AND SWAP1 POP DUP1 DUP4 ADD SWAP3 POP POP POP POP POP POP POP DUP7 PUSH2 0xEAF JUMP JUMPDEST DUP8 DUP2 DUP9 DUP9 PUSH1 0x1 DUP12 DUP12 SWAP1 POP PUSH2 0xBED SWAP2 SWAP1 PUSH2 0x18C8 JUMP JUMPDEST DUP2 DUP2 LT PUSH2 0xBFD JUMPI PUSH2 0xBFC PUSH2 0x186A JUMP JUMPDEST JUMPDEST SWAP1 POP PUSH1 0x20 MUL ADD PUSH1 0x20 DUP2 ADD SWAP1 PUSH2 0xC12 SWAP2 SWAP1 PUSH2 0x170E JUMP JUMPDEST PUSH20 0xFFFFFFFFFFFFFFFFFFFFFFFFFFFFFFFFFFFFFFFF AND PUSH4 0x70A08231 DUP9 PUSH1 0x40 MLOAD DUP3 PUSH4 0xFFFFFFFF AND PUSH1 0xE0 SHL DUP2 MSTORE PUSH1 0x4 ADD PUSH2 0xC4A SWAP2 SWAP1 PUSH2 0x174A JUMP JUMPDEST PUSH1 0x20 PUSH1 0x40 MLOAD DUP1 DUP4 SUB DUP2 DUP7 GAS STATICCALL ISZERO DUP1 ISZERO PUSH2 0xC67 JUMPI RETURNDATASIZE PUSH1 0x0 DUP1 RETURNDATACOPY RETURNDATASIZE PUSH1 0x0 REVERT JUMPDEST POP POP POP POP PUSH1 0x40 MLOAD RETURNDATASIZE PUSH1 0x1F NOT PUSH1 0x1F DUP3 ADD AND DUP3 ADD DUP1 PUSH1 0x40 MSTORE POP DUP2 ADD SWAP1 PUSH2 0xC8B SWAP2 SWAP1 PUSH2 0x1911 JUMP JUMPDEST PUSH2 0xC95 SWAP2 SWAP1 PUSH2 0x18C8 JUMP JUMPDEST LT ISZERO PUSH2 0xCD6 JUMPI PUSH1 0x40 MLOAD PUSH32 0x8C379A000000000000000000000000000000000000000000000000000000000 DUP2 MSTORE PUSH1 0x4 ADD PUSH2 0xCCD SWAP1 PUSH2 0x19B0 JUMP JUMPDEST PUSH1 0x40 MLOAD DUP1 SWAP2 SUB SWAP1 REVERT JUMPDEST POP POP POP POP POP POP POP POP JUMP JUMPDEST PUSH1 0x0 DUP1 SLOAD SWAP1 PUSH2 0x100 EXP SWAP1 DIV PUSH20 0xFFFFFFFFFFFFFFFFFFFFFFFFFFFFFFFFFFFFFFFF AND DUP2 JUMP JUMPDEST PUSH1 0x0 DUP1 PUSH1 0x0 PUSH2 0xD13 DUP6 DUP6 PUSH2 0x1359 JUMP JUMPDEST SWAP2 POP SWAP2 POP DUP6 DUP3 DUP3 PUSH1 0x40 MLOAD PUSH1 0x20 ADD PUSH2 0xD2B SWAP3 SWAP2 SWAP1 PUSH2 0x1B6B JUMP JUMPDEST PUSH1 0x40 MLOAD PUSH1 0x20 DUP2 DUP4 SUB SUB DUP2 MSTORE SWAP1 PUSH1 0x40 MSTORE DUP1 MLOAD SWAP1 PUSH1 0x20 ADD KECCAK256 PUSH1 0x40 MLOAD PUSH1 0x20 ADD PUSH2 0xD52 SWAP3 SWAP2 SWAP1 PUSH2 0x1C65 JUMP JUMPDEST PUSH1 0x40 MLOAD PUSH1 0x20 DUP2 DUP4 SUB SUB DUP2 MSTORE SWAP1 PUSH1 0x40 MSTORE DUP1 MLOAD SWAP1 PUSH1 0x20 ADD KECCAK256 PUSH1 0x0 SHR SWAP3 POP POP POP SWAP4 SWAP3 POP POP POP JUMP JUMPDEST PUSH1 0x0 DUP1 DUP6 PUSH20 0xFFFFFFFFFFFFFFFFFFFFFFFFFFFFFFFFFFFFFFFF AND PUSH4 0x23B872DD DUP7 DUP7 DUP7 PUSH1 0x40 MLOAD PUSH1 0x24 ADD PUSH2 0xDAA SWAP4 SWAP3 SWAP2 SWAP1 PUSH2 0x1CA7 JUMP JUMPDEST PUSH1 0x40 MLOAD PUSH1 0x20 DUP2 DUP4 SUB SUB DUP2 MSTORE SWAP1 PUSH1 0x40 MSTORE SWAP1 PUSH1 0xE0 SHL PUSH1 0x20 DUP3 ADD DUP1 MLOAD PUSH28 0xFFFFFFFFFFFFFFFFFFFFFFFFFFFFFFFFFFFFFFFFFFFFFFFFFFFFFFFF DUP4 DUP2 DUP4 AND OR DUP4 MSTORE POP POP POP POP PUSH1 0x40 MLOAD PUSH2 0xDF8 SWAP2 SWAP1 PUSH2 0x1D58 JUMP JUMPDEST PUSH1 0x0 PUSH1 0x40 MLOAD DUP1 DUP4 SUB DUP2 PUSH1 0x0 DUP7 GAS CALL SWAP2 POP POP RETURNDATASIZE DUP1 PUSH1 0x0 DUP2 EQ PUSH2 0xE35 JUMPI PUSH1 0x40 MLOAD SWAP2 POP PUSH1 0x1F NOT PUSH1 0x3F RETURNDATASIZE ADD AND DUP3 ADD PUSH1 0x40 MSTORE RETURNDATASIZE DUP3 MSTORE RETURNDATASIZE PUSH1 0x0 PUSH1 0x20 DUP5 ADD RETURNDATACOPY PUSH2 0xE3A JUMP JUMPDEST PUSH1 0x60 SWAP2 POP JUMPDEST POP SWAP2 POP SWAP2 POP DUP2 DUP1 ISZERO PUSH2 0xE68 JUMPI POP PUSH1 0x0 DUP2 MLOAD EQ DUP1 PUSH2 0xE67 JUMPI POP DUP1 DUP1 PUSH1 0x20 ADD SWAP1 MLOAD DUP2 ADD SWAP1 PUSH2 0xE66 SWAP2 SWAP1 PUSH2 0x1AC7 JUMP JUMPDEST JUMPDEST JUMPDEST PUSH2 0xEA7 JUMPI PUSH1 0x40 MLOAD PUSH32 0x8C379A000000000000000000000000000000000000000000000000000000000 DUP2 MSTORE PUSH1 0x4 ADD PUSH2 0xE9E SWAP1 PUSH2 0x1DE1 JUMP JUMPDEST PUSH1 0x40 MLOAD DUP1 SWAP2 SUB SWAP1 REVERT JUMPDEST POP POP POP POP POP POP JUMP JUMPDEST PUSH1 0x0 JUMPDEST PUSH1 0x1 DUP4 MLOAD PUSH2 0xEC0 SWAP2 SWAP1 PUSH2 0x18C8 JUMP JUMPDEST DUP2 LT ISZERO PUSH2 0x1254 JUMPI PUSH1 0x0 DUP1 DUP5 DUP4 DUP2 MLOAD DUP2 LT PUSH2 0xEDD JUMPI PUSH2 0xEDC PUSH2 0x186A JUMP JUMPDEST JUMPDEST PUSH1 0x20 MUL PUSH1 0x20 ADD ADD MLOAD DUP6 PUSH1 0x1 DUP6 PUSH2 0xEF3 SWAP2 SWAP1 PUSH2 0x1E01 JUMP JUMPDEST DUP2 MLOAD DUP2 LT PUSH2 0xF04 JUMPI PUSH2 0xF03 PUSH2 0x186A JUMP JUMPDEST JUMPDEST PUSH1 0x20 MUL PUSH1 0x20 ADD ADD MLOAD SWAP2 POP SWAP2 POP PUSH1 0x0 PUSH2 0xF1C DUP4 DUP4 PUSH2 0x1359 JUMP JUMPDEST POP SWAP1 POP PUSH1 0x0 PUSH2 0xF4C PUSH1 0x0 DUP1 SLOAD SWAP1 PUSH2 0x100 EXP SWAP1 DIV PUSH20 0xFFFFFFFFFFFFFFFFFFFFFFFFFFFFFFFFFFFFFFFF AND DUP6 DUP6 PUSH2 0xD04 JUMP JUMPDEST SWAP1 POP PUSH1 0x0 DUP1 PUSH1 0x0 DUP1 DUP5 PUSH20 0xFFFFFFFFFFFFFFFFFFFFFFFFFFFFFFFFFFFFFFFF AND PUSH4 0x902F1AC PUSH1 0x40 MLOAD DUP2 PUSH4 0xFFFFFFFF AND PUSH1 0xE0 SHL DUP2 MSTORE PUSH1 0x4 ADD PUSH1 0x60 PUSH1 0x40 MLOAD DUP1 DUP4 SUB DUP2 DUP7 GAS STATICCALL ISZERO DUP1 ISZERO PUSH2 0xF9F JUMPI RETURNDATASIZE PUSH1 0x0 DUP1 RETURNDATACOPY RETURNDATASIZE PUSH1 0x0 REVERT JUMPDEST POP POP POP POP PUSH1 0x40 MLOAD RETURNDATASIZE PUSH1 0x1F NOT PUSH1 0x1F DUP3 ADD AND DUP3 ADD DUP1 PUSH1 0x40 MSTORE POP DUP2 ADD SWAP1 PUSH2 0xFC3 SWAP2 SWAP1 PUSH2 0x1ED9 JUMP JUMPDEST POP PUSH14 0xFFFFFFFFFFFFFFFFFFFFFFFFFFFF AND SWAP2 POP PUSH14 0xFFFFFFFFFFFFFFFFFFFFFFFFFFFF AND SWAP2 POP PUSH1 0x0 DUP1 DUP8 PUSH20 0xFFFFFFFFFFFFFFFFFFFFFFFFFFFFFFFFFFFFFFFF AND DUP11 PUSH20 0xFFFFFFFFFFFFFFFFFFFFFFFFFFFFFFFFFFFFFFFF AND EQ PUSH2 0x1025 JUMPI DUP3 DUP5 PUSH2 0x1028 JUMP JUMPDEST DUP4 DUP4 JUMPDEST SWAP2 POP SWAP2 POP DUP2 DUP11 PUSH20 0xFFFFFFFFFFFFFFFFFFFFFFFFFFFFFFFFFFFFFFFF AND PUSH4 0x70A08231 DUP10 PUSH1 0x40 MLOAD DUP3 PUSH4 0xFFFFFFFF AND PUSH1 0xE0 SHL DUP2 MSTORE PUSH1 0x4 ADD PUSH2 0x1066 SWAP2 SWAP1 PUSH2 0x174A JUMP JUMPDEST PUSH1 0x20 PUSH1 0x40 MLOAD DUP1 DUP4 SUB DUP2 DUP7 GAS STATICCALL ISZERO DUP1 ISZERO PUSH2 0x1083 JUMPI RETURNDATASIZE PUSH1 0x0 DUP1 RETURNDATACOPY RETURNDATASIZE PUSH1 0x0 REVERT JUMPDEST POP POP POP POP PUSH1 0x40 MLOAD RETURNDATASIZE PUSH1 0x1F NOT PUSH1 0x1F DUP3 ADD AND DUP3 ADD DUP1 PUSH1 0x40 MSTORE POP DUP2 ADD SWAP1 PUSH2 0x10A7 SWAP2 SWAP1 PUSH2 0x1911 JUMP JUMPDEST PUSH2 0x10B1 SWAP2 SWAP1 PUSH2 0x18C8 JUMP JUMPDEST SWAP6 POP PUSH2 0x10BE DUP7 DUP4 DUP4 PUSH2 0x1487 JUMP JUMPDEST SWAP5 POP POP POP POP POP PUSH1 0x0 DUP1 DUP6 PUSH20 0xFFFFFFFFFFFFFFFFFFFFFFFFFFFFFFFFFFFFFFFF AND DUP9 PUSH20 0xFFFFFFFFFFFFFFFFFFFFFFFFFFFFFFFFFFFFFFFF AND EQ PUSH2 0x1102 JUMPI DUP3 PUSH1 0x0 PUSH2 0x1106 JUMP JUMPDEST PUSH1 0x0 DUP4 JUMPDEST SWAP2 POP SWAP2 POP PUSH1 0x0 PUSH1 0x2 DUP13 MLOAD PUSH2 0x111A SWAP2 SWAP1 PUSH2 0x18C8 JUMP JUMPDEST DUP11 LT PUSH2 0x1126 JUMPI DUP11 PUSH2 0x1178 JUMP JUMPDEST PUSH2 0x1177 PUSH1 0x0 DUP1 SLOAD SWAP1 PUSH2 0x100 EXP SWAP1 DIV PUSH20 0xFFFFFFFFFFFFFFFFFFFFFFFFFFFFFFFFFFFFFFFF AND DUP10 DUP15 PUSH1 0x2 DUP15 PUSH2 0x1159 SWAP2 SWAP1 PUSH2 0x1E01 JUMP JUMPDEST DUP2 MLOAD DUP2 LT PUSH2 0x116A JUMPI PUSH2 0x1169 PUSH2 0x186A JUMP JUMPDEST JUMPDEST PUSH1 0x20 MUL PUSH1 0x20 ADD ADD MLOAD PUSH2 0xD04 JUMP JUMPDEST JUMPDEST SWAP1 POP DUP6 PUSH20 0xFFFFFFFFFFFFFFFFFFFFFFFFFFFFFFFFFFFFFFFF AND PUSH4 0x22C0D9F DUP5 DUP5 DUP5 PUSH1 0x0 PUSH8 0xFFFFFFFFFFFFFFFF DUP2 GT ISZERO PUSH2 0x11B4 JUMPI PUSH2 0x11B3 PUSH2 0x1F2C JUMP JUMPDEST JUMPDEST PUSH1 0x40 MLOAD SWAP1 DUP1 DUP3 MSTORE DUP1 PUSH1 0x1F ADD PUSH1 0x1F NOT AND PUSH1 0x20 ADD DUP3 ADD PUSH1 0x40 MSTORE DUP1 ISZERO PUSH2 0x11E6 JUMPI DUP2 PUSH1 0x20 ADD PUSH1 0x1 DUP3 MUL DUP1 CALLDATASIZE DUP4 CALLDATACOPY DUP1 DUP3 ADD SWAP2 POP POP SWAP1 POP JUMPDEST POP PUSH1 0x40 MLOAD DUP6 PUSH4 0xFFFFFFFF AND PUSH1 0xE0 SHL DUP2 MSTORE PUSH1 0x4 ADD PUSH2 0x1206 SWAP5 SWAP4 SWAP3 SWAP2 SWAP1 PUSH2 0x1FB6 JUMP JUMPDEST PUSH1 0x0 PUSH1 0x40 MLOAD DUP1 DUP4 SUB DUP2 PUSH1 0x0 DUP8 DUP1 EXTCODESIZE ISZERO DUP1 ISZERO PUSH2 0x1220 JUMPI PUSH1 0x0 DUP1 REVERT JUMPDEST POP GAS CALL ISZERO DUP1 ISZERO PUSH2 0x1234 JUMPI RETURNDATASIZE PUSH1 0x0 DUP1 RETURNDATACOPY RETURNDATASIZE PUSH1 0x0 REVERT JUMPDEST POP POP POP POP POP POP POP POP POP POP POP POP POP DUP1 DUP1 PUSH2 0x124C SWAP1 PUSH2 0x2002 JUMP JUMPDEST SWAP2 POP POP PUSH2 0xEB2 JUMP JUMPDEST POP POP POP JUMP JUMPDEST PUSH1 0x0 DUP3 PUSH20 0xFFFFFFFFFFFFFFFFFFFFFFFFFFFFFFFFFFFFFFFF AND DUP3 PUSH1 0x0 PUSH8 0xFFFFFFFFFFFFFFFF DUP2 GT ISZERO PUSH2 0x128E JUMPI PUSH2 0x128D PUSH2 0x1F2C JUMP JUMPDEST JUMPDEST PUSH1 0x40 MLOAD SWAP1 DUP1 DUP3 MSTORE DUP1 PUSH1 0x1F ADD PUSH1 0x1F NOT AND PUSH1 0x20 ADD DUP3 ADD PUSH1 0x40 MSTORE DUP1 ISZERO PUSH2 0x12C0 JUMPI DUP2 PUSH1 0x20 ADD PUSH1 0x1 DUP3 MUL DUP1 CALLDATASIZE DUP4 CALLDATACOPY DUP1 DUP3 ADD SWAP2 POP POP SWAP1 POP JUMPDEST POP PUSH1 0x40 MLOAD PUSH2 0x12CE SWAP2 SWAP1 PUSH2 0x1D58 JUMP JUMPDEST PUSH1 0x0 PUSH1 0x40 MLOAD DUP1 DUP4 SUB DUP2 DUP6 DUP8 GAS CALL SWAP3 POP POP POP RETURNDATASIZE DUP1 PUSH1 0x0 DUP2 EQ PUSH2 0x130B JUMPI PUSH1 0x40 MLOAD SWAP2 POP PUSH1 0x1F NOT PUSH1 0x3F RETURNDATASIZE ADD AND DUP3 ADD PUSH1 0x40 MSTORE RETURNDATASIZE DUP3 MSTORE RETURNDATASIZE PUSH1 0x0 PUSH1 0x20 DUP5 ADD RETURNDATACOPY PUSH2 0x1310 JUMP JUMPDEST PUSH1 0x60 SWAP2 POP JUMPDEST POP POP SWAP1 POP DUP1 PUSH2 0x1354 JUMPI PUSH1 0x40 MLOAD PUSH32 0x8C379A000000000000000000000000000000000000000000000000000000000 DUP2 MSTORE PUSH1 0x4 ADD PUSH2 0x134B SWAP1 PUSH2 0x20BD JUMP JUMPDEST PUSH1 0x40 MLOAD DUP1 SWAP2 SUB SWAP1 REVERT JUMPDEST POP POP POP JUMP JUMPDEST PUSH1 0x0 DUP1 DUP3 PUSH20 0xFFFFFFFFFFFFFFFFFFFFFFFFFFFFFFFFFFFFFFFF AND DUP5 PUSH20 0xFFFFFFFFFFFFFFFFFFFFFFFFFFFFFFFFFFFFFFFF AND EQ ISZERO PUSH2 0x13CB JUMPI PUSH1 0x40 MLOAD PUSH32 0x8C379A000000000000000000000000000000000000000000000000000000000 DUP2 MSTORE PUSH1 0x4 ADD PUSH2 0x13C2 SWAP1 PUSH2 0x214F JUMP JUMPDEST PUSH1 0x40 MLOAD DUP1 SWAP2 SUB SWAP1 REVERT JUMPDEST DUP3 PUSH20 0xFFFFFFFFFFFFFFFFFFFFFFFFFFFFFFFFFFFFFFFF AND DUP5 PUSH20 0xFFFFFFFFFFFFFFFFFFFFFFFFFFFFFFFFFFFFFFFF AND LT PUSH2 0x1405 JUMPI DUP3 DUP5 PUSH2 0x1408 JUMP JUMPDEST DUP4 DUP4 JUMPDEST DUP1 SWAP3 POP DUP2 SWAP4 POP POP POP PUSH1 0x0 PUSH20 0xFFFFFFFFFFFFFFFFFFFFFFFFFFFFFFFFFFFFFFFF AND DUP3 PUSH20 0xFFFFFFFFFFFFFFFFFFFFFFFFFFFFFFFFFFFFFFFF AND EQ ISZERO PUSH2 0x1480 JUMPI PUSH1 0x40 MLOAD PUSH32 0x8C379A000000000000000000000000000000000000000000000000000000000 DUP2 MSTORE PUSH1 0x4 ADD PUSH2 0x1477 SWAP1 PUSH2 0x21BB JUMP JUMPDEST PUSH1 0x40 MLOAD DUP1 SWAP2 SUB SWAP1 REVERT JUMPDEST SWAP3 POP SWAP3 SWAP1 POP JUMP JUMPDEST PUSH1 0x0 DUP1 DUP5 GT PUSH2 0x14CB JUMPI PUSH1 0x40 MLOAD PUSH32 0x8C379A000000000000000000000000000000000000000000000000000000000 DUP2 MSTORE PUSH1 0x4 ADD PUSH2 0x14C2 SWAP1 PUSH2 0x224D JUMP JUMPDEST PUSH1 0x40 MLOAD DUP1 SWAP2 SUB SWAP1 REVERT JUMPDEST PUSH1 0x0 DUP4 GT DUP1 ISZERO PUSH2 0x14DB JUMPI POP PUSH1 0x0 DUP3 GT JUMPDEST PUSH2 0x151A JUMPI PUSH1 0x40 MLOAD PUSH32 0x8C379A000000000000000000000000000000000000000000000000000000000 DUP2 MSTORE PUSH1 0x4 ADD PUSH2 0x1511 SWAP1 PUSH2 0x22DF JUMP JUMPDEST PUSH1 0x40 MLOAD DUP1 SWAP2 SUB SWAP1 REVERT JUMPDEST PUSH1 0x0 PUSH2 0x3E5 DUP6 PUSH2 0x152A SWAP2 SWAP1 PUSH2 0x22FF JUMP JUMPDEST SWAP1 POP PUSH1 0x0 DUP4 DUP3 PUSH2 0x153A SWAP2 SWAP1 PUSH2 0x22FF JUMP JUMPDEST SWAP1 POP PUSH1 0x0 DUP3 PUSH2 0x3E8 DUP8 PUSH2 0x154D SWAP2 SWAP1 PUSH2 0x22FF JUMP JUMPDEST PUSH2 0x1557 SWAP2 SWAP1 PUSH2 0x1E01 JUMP JUMPDEST SWAP1 POP DUP1 DUP3 PUSH2 0x1565 SWAP2 SWAP1 PUSH2 0x2388 JUMP JUMPDEST SWAP4 POP POP POP POP SWAP4 SWAP3 POP POP POP JUMP JUMPDEST PUSH1 0x0 DUP1 REVERT JUMPDEST PUSH1 0x0 DUP1 REVERT JUMPDEST PUSH1 0x0 DUP2 SWAP1 POP SWAP2 SWAP1 POP JUMP JUMPDEST PUSH2 0x158E DUP2 PUSH2 0x157B JUMP JUMPDEST DUP2 EQ PUSH2 0x1599 JUMPI PUSH1 0x0 DUP1 REVERT JUMPDEST POP JUMP JUMPDEST PUSH1 0x0 DUP2 CALLDATALOAD SWAP1 POP PUSH2 0x15AB DUP2 PUSH2 0x1585 JUMP JUMPDEST SWAP3 SWAP2 POP POP JUMP JUMPDEST PUSH1 0x0 DUP1 REVERT JUMPDEST PUSH1 0x0 DUP1 REVERT JUMPDEST PUSH1 0x0 DUP1 REVERT JUMPDEST PUSH1 0x0 DUP1 DUP4 PUSH1 0x1F DUP5 ADD SLT PUSH2 0x15D6 JUMPI PUSH2 0x15D5 PUSH2 0x15B1 JUMP JUMPDEST JUMPDEST DUP3 CALLDATALOAD SWAP1 POP PUSH8 0xFFFFFFFFFFFFFFFF DUP2 GT ISZERO PUSH2 0x15F3 JUMPI PUSH2 0x15F2 PUSH2 0x15B6 JUMP JUMPDEST JUMPDEST PUSH1 0x20 DUP4 ADD SWAP2 POP DUP4 PUSH1 0x20 DUP3 MUL DUP4 ADD GT ISZERO PUSH2 0x160F JUMPI PUSH2 0x160E PUSH2 0x15BB JUMP JUMPDEST JUMPDEST SWAP3 POP SWAP3 SWAP1 POP JUMP JUMPDEST PUSH1 0x0 PUSH20 0xFFFFFFFFFFFFFFFFFFFFFFFFFFFFFFFFFFFFFFFF DUP3 AND SWAP1 POP SWAP2 SWAP1 POP JUMP JUMPDEST PUSH1 0x0 PUSH2 0x1641 DUP3 PUSH2 0x1616 JUMP JUMPDEST SWAP1 POP SWAP2 SWAP1 POP JUMP JUMPDEST PUSH2 0x1651 DUP2 PUSH2 0x1636 JUMP JUMPDEST DUP2 EQ PUSH2 0x165C JUMPI PUSH1 0x0 DUP1 REVERT JUMPDEST POP JUMP JUMPDEST PUSH1 0x0 DUP2 CALLDATALOAD SWAP1 POP PUSH2 0x166E DUP2 PUSH2 0x1648 JUMP JUMPDEST SWAP3 SWAP2 POP POP JUMP JUMPDEST PUSH1 0x0 DUP1 PUSH1 0x0 DUP1 PUSH1 0x0 DUP1 PUSH1 0xA0 DUP8 DUP10 SUB SLT ISZERO PUSH2 0x1691 JUMPI PUSH2 0x1690 PUSH2 0x1571 JUMP JUMPDEST JUMPDEST PUSH1 0x0 PUSH2 0x169F DUP10 DUP3 DUP11 ADD PUSH2 0x159C JUMP JUMPDEST SWAP7 POP POP PUSH1 0x20 PUSH2 0x16B0 DUP10 DUP3 DUP11 ADD PUSH2 0x159C JUMP JUMPDEST SWAP6 POP POP PUSH1 0x40 DUP8 ADD CALLDATALOAD PUSH8 0xFFFFFFFFFFFFFFFF DUP2 GT ISZERO PUSH2 0x16D1 JUMPI PUSH2 0x16D0 PUSH2 0x1576 JUMP JUMPDEST JUMPDEST PUSH2 0x16DD DUP10 DUP3 DUP11 ADD PUSH2 0x15C0 JUMP JUMPDEST SWAP5 POP SWAP5 POP POP PUSH1 0x60 PUSH2 0x16F0 DUP10 DUP3 DUP11 ADD PUSH2 0x165F JUMP JUMPDEST SWAP3 POP POP PUSH1 0x80 PUSH2 0x1701 DUP10 DUP3 DUP11 ADD PUSH2 0x159C JUMP JUMPDEST SWAP2 POP POP SWAP3 SWAP6 POP SWAP3 SWAP6 POP SWAP3 SWAP6 JUMP JUMPDEST PUSH1 0x0 PUSH1 0x20 DUP3 DUP5 SUB SLT ISZERO PUSH2 0x1724 JUMPI PUSH2 0x1723 PUSH2 0x1571 JUMP JUMPDEST JUMPDEST PUSH1 0x0 PUSH2 0x1732 DUP5 DUP3 DUP6 ADD PUSH2 0x165F JUMP JUMPDEST SWAP2 POP POP SWAP3 SWAP2 POP POP JUMP JUMPDEST PUSH2 0x1744 DUP2 PUSH2 0x1636 JUMP JUMPDEST DUP3 MSTORE POP POP JUMP JUMPDEST PUSH1 0x0 PUSH1 0x20 DUP3 ADD SWAP1 POP PUSH2 0x175F PUSH1 0x0 DUP4 ADD DUP5 PUSH2 0x173B JUMP JUMPDEST SWAP3 SWAP2 POP POP JUMP JUMPDEST PUSH1 0x0 DUP1 PUSH1 0x0 DUP1 PUSH1 0x0 PUSH1 0x80 DUP7 DUP9 SUB SLT ISZERO PUSH2 0x1781 JUMPI PUSH2 0x1780 PUSH2 0x1571 JUMP JUMPDEST JUMPDEST PUSH1 0x0 PUSH2 0x178F DUP9 DUP3 DUP10 ADD PUSH2 0x159C JUMP JUMPDEST SWAP6 POP POP PUSH1 0x20 DUP7 ADD CALLDATALOAD PUSH8 0xFFFFFFFFFFFFFFFF DUP2 GT ISZERO PUSH2 0x17B0 JUMPI PUSH2 0x17AF PUSH2 0x1576 JUMP JUMPDEST JUMPDEST PUSH2 0x17BC DUP9 DUP3 DUP10 ADD PUSH2 0x15C0 JUMP JUMPDEST SWAP5 POP SWAP5 POP POP PUSH1 0x40 PUSH2 0x17CF DUP9 DUP3 DUP10 ADD PUSH2 0x165F JUMP JUMPDEST SWAP3 POP POP PUSH1 0x60 PUSH2 0x17E0 DUP9 DUP3 DUP10 ADD PUSH2 0x159C JUMP JUMPDEST SWAP2 POP POP SWAP3 SWAP6 POP SWAP3 SWAP6 SWAP1 SWAP4 POP JUMP JUMPDEST PUSH1 0x0 DUP3 DUP3 MSTORE PUSH1 0x20 DUP3 ADD SWAP1 POP SWAP3 SWAP2 POP POP JUMP JUMPDEST PUSH32 0x556E69737761705632526F757465723A20455850495245440000000000000000 PUSH1 0x0 DUP3 ADD MSTORE POP JUMP JUMPDEST PUSH1 0x0 PUSH2 0x1834 PUSH1 0x18 DUP4 PUSH2 0x17ED JUMP JUMPDEST SWAP2 POP PUSH2 0x183F DUP3 PUSH2 0x17FE JUMP JUMPDEST PUSH1 0x20 DUP3 ADD SWAP1 POP SWAP2 SWAP1 POP JUMP JUMPDEST PUSH1 0x0 PUSH1 0x20 DUP3 ADD SWAP1 POP DUP2 DUP2 SUB PUSH1 0x0 DUP4 ADD MSTORE PUSH2 0x1863 DUP2 PUSH2 0x1827 JUMP JUMPDEST SWAP1 POP SWAP2 SWAP1 POP JUMP JUMPDEST PUSH32 0x4E487B7100000000000000000000000000000000000000000000000000000000 PUSH1 0x0 MSTORE PUSH1 0x32 PUSH1 0x4 MSTORE PUSH1 0x24 PUSH1 0x0 REVERT JUMPDEST PUSH32 0x4E487B7100000000000000000000000000000000000000000000000000000000 PUSH1 0x0 MSTORE PUSH1 0x11 PUSH1 0x4 MSTORE PUSH1 0x24 PUSH1 0x0 REVERT JUMPDEST PUSH1 0x0 PUSH2 0x18D3 DUP3 PUSH2 0x157B JUMP JUMPDEST SWAP2 POP PUSH2 0x18DE DUP4 PUSH2 0x157B JUMP JUMPDEST SWAP3 POP DUP3 DUP3 LT ISZERO PUSH2 0x18F1 JUMPI PUSH2 0x18F0 PUSH2 0x1899 JUMP JUMPDEST JUMPDEST DUP3 DUP3 SUB SWAP1 POP SWAP3 SWAP2 POP POP JUMP JUMPDEST PUSH1 0x0 DUP2 MLOAD SWAP1 POP PUSH2 0x190B DUP2 PUSH2 0x1585 JUMP JUMPDEST SWAP3 SWAP2 POP POP JUMP JUMPDEST PUSH1 0x0 PUSH1 0x20 DUP3 DUP5 SUB SLT ISZERO PUSH2 0x1927 JUMPI PUSH2 0x1926 PUSH2 0x1571 JUMP JUMPDEST JUMPDEST PUSH1 0x0 PUSH2 0x1935 DUP5 DUP3 DUP6 ADD PUSH2 0x18FC JUMP JUMPDEST SWAP2 POP POP SWAP3 SWAP2 POP POP JUMP JUMPDEST PUSH32 0x556E69737761705632526F757465723A20494E53554646494349454E545F4F55 PUSH1 0x0 DUP3 ADD MSTORE PUSH32 0x545055545F414D4F554E54000000000000000000000000000000000000000000 PUSH1 0x20 DUP3 ADD MSTORE POP JUMP JUMPDEST PUSH1 0x0 PUSH2 0x199A PUSH1 0x2B DUP4 PUSH2 0x17ED JUMP JUMPDEST SWAP2 POP PUSH2 0x19A5 DUP3 PUSH2 0x193E JUMP JUMPDEST PUSH1 0x40 DUP3 ADD SWAP1 POP SWAP2 SWAP1 POP JUMP JUMPDEST PUSH1 0x0 PUSH1 0x20 DUP3 ADD SWAP1 POP DUP2 DUP2 SUB PUSH1 0x0 DUP4 ADD MSTORE PUSH2 0x19C9 DUP2 PUSH2 0x198D JUMP JUMPDEST SWAP1 POP SWAP2 SWAP1 POP JUMP JUMPDEST PUSH32 0x556E69737761705632526F757465723A20494E56414C49445F50415448000000 PUSH1 0x0 DUP3 ADD MSTORE POP JUMP JUMPDEST PUSH1 0x0 PUSH2 0x1A06 PUSH1 0x1D DUP4 PUSH2 0x17ED JUMP JUMPDEST SWAP2 POP PUSH2 0x1A11 DUP3 PUSH2 0x19D0 JUMP JUMPDEST PUSH1 0x20 DUP3 ADD SWAP1 POP SWAP2 SWAP1 POP JUMP JUMPDEST PUSH1 0x0 PUSH1 0x20 DUP3 ADD SWAP1 POP DUP2 DUP2 SUB PUSH1 0x0 DUP4 ADD MSTORE PUSH2 0x1A35 DUP2 PUSH2 0x19F9 JUMP JUMPDEST SWAP1 POP SWAP2 SWAP1 POP JUMP JUMPDEST PUSH2 0x1A45 DUP2 PUSH2 0x157B JUMP JUMPDEST DUP3 MSTORE POP POP JUMP JUMPDEST PUSH1 0x0 PUSH1 0x20 DUP3 ADD SWAP1 POP PUSH2 0x1A60 PUSH1 0x0 DUP4 ADD DUP5 PUSH2 0x1A3C JUMP JUMPDEST SWAP3 SWAP2 POP POP JUMP JUMPDEST PUSH1 0x0 PUSH1 0x40 DUP3 ADD SWAP1 POP PUSH2 0x1A7B PUSH1 0x0 DUP4 ADD DUP6 PUSH2 0x173B JUMP JUMPDEST PUSH2 0x1A88 PUSH1 0x20 DUP4 ADD DUP5 PUSH2 0x1A3C JUMP JUMPDEST SWAP4 SWAP3 POP POP POP JUMP JUMPDEST PUSH1 0x0 DUP2 ISZERO ISZERO SWAP1 POP SWAP2 SWAP1 POP JUMP JUMPDEST PUSH2 0x1AA4 DUP2 PUSH2 0x1A8F JUMP JUMPDEST DUP2 EQ PUSH2 0x1AAF JUMPI PUSH1 0x0 DUP1 REVERT JUMPDEST POP JUMP JUMPDEST PUSH1 0x0 DUP2 MLOAD SWAP1 POP PUSH2 0x1AC1 DUP2 PUSH2 0x1A9B JUMP JUMPDEST SWAP3 SWAP2 POP POP JUMP JUMPDEST PUSH1 0x0 PUSH1 0x20 DUP3 DUP5 SUB SLT ISZERO PUSH2 0x1ADD JUMPI PUSH2 0x1ADC PUSH2 0x1571 JUMP JUMPDEST JUMPDEST PUSH1 0x0 PUSH2 0x1AEB DUP5 DUP3 DUP6 ADD PUSH2 0x1AB2 JUMP JUMPDEST SWAP2 POP POP SWAP3 SWAP2 POP POP JUMP JUMPDEST PUSH32 0x4E487B7100000000000000000000000000000000000000000000000000000000 PUSH1 0x0 MSTORE PUSH1 0x1 PUSH1 0x4 MSTORE PUSH1 0x24 PUSH1 0x0 REVERT JUMPDEST PUSH1 0x0 DUP2 PUSH1 0x60 SHL SWAP1 POP SWAP2 SWAP1 POP JUMP JUMPDEST PUSH1 0x0 PUSH2 0x1B3B DUP3 PUSH2 0x1B23 JUMP JUMPDEST SWAP1 POP SWAP2 SWAP1 POP JUMP JUMPDEST PUSH1 0x0 PUSH2 0x1B4D DUP3 PUSH2 0x1B30 JUMP JUMPDEST SWAP1 POP SWAP2 SWAP1 POP JUMP JUMPDEST PUSH2 0x1B65 PUSH2 0x1B60 DUP3 PUSH2 0x1636 JUMP JUMPDEST PUSH2 0x1B42 JUMP JUMPDEST DUP3 MSTORE POP POP JUMP JUMPDEST PUSH1 0x0 PUSH2 0x1B77 DUP3 DUP6 PUSH2 0x1B54 JUMP JUMPDEST PUSH1 0x14 DUP3 ADD SWAP2 POP PUSH2 0x1B87 DUP3 DUP5 PUSH2 0x1B54 JUMP JUMPDEST PUSH1 0x14 DUP3 ADD SWAP2 POP DUP2 SWAP1 POP SWAP4 SWAP3 POP POP POP JUMP JUMPDEST PUSH1 0x0 DUP2 SWAP1 POP SWAP3 SWAP2 POP POP JUMP JUMPDEST PUSH32 0xFF00000000000000000000000000000000000000000000000000000000000000 PUSH1 0x0 DUP3 ADD MSTORE POP JUMP JUMPDEST PUSH1 0x0 PUSH2 0x1BD8 PUSH1 0x1 DUP4 PUSH2 0x1B97 JUMP JUMPDEST SWAP2 POP PUSH2 0x1BE3 DUP3 PUSH2 0x1BA2 JUMP JUMPDEST PUSH1 0x1 DUP3 ADD SWAP1 POP SWAP2 SWAP1 POP JUMP JUMPDEST PUSH1 0x0 DUP2 SWAP1 POP SWAP2 SWAP1 POP JUMP JUMPDEST PUSH1 0x0 DUP2 SWAP1 POP SWAP2 SWAP1 POP JUMP JUMPDEST PUSH2 0x1C13 PUSH2 0x1C0E DUP3 PUSH2 0x1BEE JUMP JUMPDEST PUSH2 0x1BF8 JUMP JUMPDEST DUP3 MSTORE POP POP JUMP JUMPDEST PUSH32 0x96E8AC4277198FF8B6F785478AA9A39F403CB768DD02CBEE326C3E7DA348845F PUSH1 0x0 DUP3 ADD MSTORE POP JUMP JUMPDEST PUSH1 0x0 PUSH2 0x1C4F PUSH1 0x20 DUP4 PUSH2 0x1B97 JUMP JUMPDEST SWAP2 POP PUSH2 0x1C5A DUP3 PUSH2 0x1C19 JUMP JUMPDEST PUSH1 0x20 DUP3 ADD SWAP1 POP SWAP2 SWAP1 POP JUMP JUMPDEST PUSH1 0x0 PUSH2 0x1C70 DUP3 PUSH2 0x1BCB JUMP JUMPDEST SWAP2 POP PUSH2 0x1C7C DUP3 DUP6 PUSH2 0x1B54 JUMP JUMPDEST PUSH1 0x14 DUP3 ADD SWAP2 POP PUSH2 0x1C8C DUP3 DUP5 PUSH2 0x1C02 JUMP JUMPDEST PUSH1 0x20 DUP3 ADD SWAP2 POP PUSH2 0x1C9B DUP3 PUSH2 0x1C42 JUMP JUMPDEST SWAP2 POP DUP2 SWAP1 POP SWAP4 SWAP3 POP POP POP JUMP JUMPDEST PUSH1 0x0 PUSH1 0x60 DUP3 ADD SWAP1 POP PUSH2 0x1CBC PUSH1 0x0 DUP4 ADD DUP7 PUSH2 0x173B JUMP JUMPDEST PUSH2 0x1CC9 PUSH1 0x20 DUP4 ADD DUP6 PUSH2 0x173B JUMP JUMPDEST PUSH2 0x1CD6 PUSH1 0x40 DUP4 ADD DUP5 PUSH2 0x1A3C JUMP JUMPDEST SWAP5 SWAP4 POP POP POP POP JUMP JUMPDEST PUSH1 0x0 DUP2 MLOAD SWAP1 POP SWAP2 SWAP1 POP JUMP JUMPDEST PUSH1 0x0 DUP2 SWAP1 POP SWAP3 SWAP2 POP POP JUMP JUMPDEST PUSH1 0x0 JUMPDEST DUP4 DUP2 LT ISZERO PUSH2 0x1D12 JUMPI DUP1 DUP3 ADD MLOAD DUP2 DUP5 ADD MSTORE PUSH1 0x20 DUP2 ADD SWAP1 POP PUSH2 0x1CF7 JUMP JUMPDEST DUP4 DUP2 GT ISZERO PUSH2 0x1D21 JUMPI PUSH1 0x0 DUP5 DUP5 ADD MSTORE JUMPDEST POP POP POP POP JUMP JUMPDEST PUSH1 0x0 PUSH2 0x1D32 DUP3 PUSH2 0x1CDE JUMP JUMPDEST PUSH2 0x1D3C DUP2 DUP6 PUSH2 0x1CE9 JUMP JUMPDEST SWAP4 POP PUSH2 0x1D4C DUP2 DUP6 PUSH1 0x20 DUP7 ADD PUSH2 0x1CF4 JUMP JUMPDEST DUP1 DUP5 ADD SWAP2 POP POP SWAP3 SWAP2 POP POP JUMP JUMPDEST PUSH1 0x0 PUSH2 0x1D64 DUP3 DUP5 PUSH2 0x1D27 JUMP JUMPDEST SWAP2 POP DUP2 SWAP1 POP SWAP3 SWAP2 POP POP JUMP JUMPDEST PUSH32 0x5472616E7366657248656C7065723A3A7472616E7366657246726F6D3A207472 PUSH1 0x0 DUP3 ADD MSTORE PUSH32 0x616E7366657246726F6D206661696C6564000000000000000000000000000000 PUSH1 0x20 DUP3 ADD MSTORE POP JUMP JUMPDEST PUSH1 0x0 PUSH2 0x1DCB PUSH1 0x31 DUP4 PUSH2 0x17ED JUMP JUMPDEST SWAP2 POP PUSH2 0x1DD6 DUP3 PUSH2 0x1D6F JUMP JUMPDEST PUSH1 0x40 DUP3 ADD SWAP1 POP SWAP2 SWAP1 POP JUMP JUMPDEST PUSH1 0x0 PUSH1 0x20 DUP3 ADD SWAP1 POP DUP2 DUP2 SUB PUSH1 0x0 DUP4 ADD MSTORE PUSH2 0x1DFA DUP2 PUSH2 0x1DBE JUMP JUMPDEST SWAP1 POP SWAP2 SWAP1 POP JUMP JUMPDEST PUSH1 0x0 PUSH2 0x1E0C DUP3 PUSH2 0x157B JUMP JUMPDEST SWAP2 POP PUSH2 0x1E17 DUP4 PUSH2 0x157B JUMP JUMPDEST SWAP3 POP DUP3 PUSH32 0xFFFFFFFFFFFFFFFFFFFFFFFFFFFFFFFFFFFFFFFFFFFFFFFFFFFFFFFFFFFFFFFF SUB DUP3 GT ISZERO PUSH2 0x1E4C JUMPI PUSH2 0x1E4B PUSH2 0x1899 JUMP JUMPDEST JUMPDEST DUP3 DUP3 ADD SWAP1 POP SWAP3 SWAP2 POP POP JUMP JUMPDEST PUSH1 0x0 PUSH14 0xFFFFFFFFFFFFFFFFFFFFFFFFFFFF DUP3 AND SWAP1 POP SWAP2 SWAP1 POP JUMP JUMPDEST PUSH2 0x1E7A DUP2 PUSH2 0x1E57 JUMP JUMPDEST DUP2 EQ PUSH2 0x1E85 JUMPI PUSH1 0x0 DUP1 REVERT JUMPDEST POP JUMP JUMPDEST PUSH1 0x0 DUP2 MLOAD SWAP1 POP PUSH2 0x1E97 DUP2 PUSH2 0x1E71 JUMP JUMPDEST SWAP3 SWAP2 POP POP JUMP JUMPDEST PUSH1 0x0 PUSH4 0xFFFFFFFF DUP3 AND SWAP1 POP SWAP2 SWAP1 POP JUMP JUMPDEST PUSH2 0x1EB6 DUP2 PUSH2 0x1E9D JUMP JUMPDEST DUP2 EQ PUSH2 0x1EC1 JUMPI PUSH1 0x0 DUP1 REVERT JUMPDEST POP JUMP JUMPDEST PUSH1 0x0 DUP2 MLOAD SWAP1 POP PUSH2 0x1ED3 DUP2 PUSH2 0x1EAD JUMP JUMPDEST SWAP3 SWAP2 POP POP JUMP JUMPDEST PUSH1 0x0 DUP1 PUSH1 0x0 PUSH1 0x60 DUP5 DUP7 SUB SLT ISZERO PUSH2 0x1EF2 JUMPI PUSH2 0x1EF1 PUSH2 0x1571 JUMP JUMPDEST JUMPDEST PUSH1 0x0 PUSH2 0x1F00 DUP7 DUP3 DUP8 ADD PUSH2 0x1E88 JUMP JUMPDEST SWAP4 POP POP PUSH1 0x20 PUSH2 0x1F11 DUP7 DUP3 DUP8 ADD PUSH2 0x1E88 JUMP JUMPDEST SWAP3 POP POP PUSH1 0x40 PUSH2 0x1F22 DUP7 DUP3 DUP8 ADD PUSH2 0x1EC4 JUMP JUMPDEST SWAP2 POP POP SWAP3 POP SWAP3 POP SWAP3 JUMP JUMPDEST PUSH32 0x4E487B7100000000000000000000000000000000000000000000000000000000 PUSH1 0x0 MSTORE PUSH1 0x41 PUSH1 0x4 MSTORE PUSH1 0x24 PUSH1 0x0 REVERT JUMPDEST PUSH1 0x0 DUP3 DUP3 MSTORE PUSH1 0x20 DUP3 ADD SWAP1 POP SWAP3 SWAP2 POP POP JUMP JUMPDEST PUSH1 0x0 PUSH1 0x1F NOT PUSH1 0x1F DUP4 ADD AND SWAP1 POP SWAP2 SWAP1 POP JUMP JUMPDEST PUSH1 0x0 PUSH2 0x1F88 DUP3 PUSH2 0x1CDE JUMP JUMPDEST PUSH2 0x1F92 DUP2 DUP6 PUSH2 0x1F5B JUMP JUMPDEST SWAP4 POP PUSH2 0x1FA2 DUP2 DUP6 PUSH1 0x20 DUP7 ADD PUSH2 0x1CF4 JUMP JUMPDEST PUSH2 0x1FAB DUP2 PUSH2 0x1F6C JUMP JUMPDEST DUP5 ADD SWAP2 POP POP SWAP3 SWAP2 POP POP JUMP JUMPDEST PUSH1 0x0 PUSH1 0x80 DUP3 ADD SWAP1 POP PUSH2 0x1FCB PUSH1 0x0 DUP4 ADD DUP8 PUSH2 0x1A3C JUMP JUMPDEST PUSH2 0x1FD8 PUSH1 0x20 DUP4 ADD DUP7 PUSH2 0x1A3C JUMP JUMPDEST PUSH2 0x1FE5 PUSH1 0x40 DUP4 ADD DUP6 PUSH2 0x173B JUMP JUMPDEST DUP2 DUP2 SUB PUSH1 0x60 DUP4 ADD MSTORE PUSH2 0x1FF7 DUP2 DUP5 PUSH2 0x1F7D JUMP JUMPDEST SWAP1 POP SWAP6 SWAP5 POP POP POP POP POP JUMP JUMPDEST PUSH1 0x0 PUSH2 0x200D DUP3 PUSH2 0x157B JUMP JUMPDEST SWAP2 POP PUSH32 0xFFFFFFFFFFFFFFFFFFFFFFFFFFFFFFFFFFFFFFFFFFFFFFFFFFFFFFFFFFFFFFFF DUP3 EQ ISZERO PUSH2 0x2040 JUMPI PUSH2 0x203F PUSH2 0x1899 JUMP JUMPDEST JUMPDEST PUSH1 0x1 DUP3 ADD SWAP1 POP SWAP2 SWAP1 POP JUMP JUMPDEST PUSH32 0x5472616E7366657248656C7065723A3A736166655472616E736665724554483A PUSH1 0x0 DUP3 ADD MSTORE PUSH32 0x20455448207472616E73666572206661696C6564000000000000000000000000 PUSH1 0x20 DUP3 ADD MSTORE POP JUMP JUMPDEST PUSH1 0x0 PUSH2 0x20A7 PUSH1 0x34 DUP4 PUSH2 0x17ED JUMP JUMPDEST SWAP2 POP PUSH2 0x20B2 DUP3 PUSH2 0x204B JUMP JUMPDEST PUSH1 0x40 DUP3 ADD SWAP1 POP SWAP2 SWAP1 POP JUMP JUMPDEST PUSH1 0x0 PUSH1 0x20 DUP3 ADD SWAP1 POP DUP2 DUP2 SUB PUSH1 0x0 DUP4 ADD MSTORE PUSH2 0x20D6 DUP2 PUSH2 0x209A JUMP JUMPDEST SWAP1 POP SWAP2 SWAP1 POP JUMP JUMPDEST PUSH32 0x556E697377617056324C6962726172793A204944454E544943414C5F41444452 PUSH1 0x0 DUP3 ADD MSTORE PUSH32 0x4553534553000000000000000000000000000000000000000000000000000000 PUSH1 0x20 DUP3 ADD MSTORE POP JUMP JUMPDEST PUSH1 0x0 PUSH2 0x2139 PUSH1 0x25 DUP4 PUSH2 0x17ED JUMP JUMPDEST SWAP2 POP PUSH2 0x2144 DUP3 PUSH2 0x20DD JUMP JUMPDEST PUSH1 0x40 DUP3 ADD SWAP1 POP SWAP2 SWAP1 POP JUMP JUMPDEST PUSH1 0x0 PUSH1 0x20 DUP3 ADD SWAP1 POP DUP2 DUP2 SUB PUSH1 0x0 DUP4 ADD MSTORE PUSH2 0x2168 DUP2 PUSH2 0x212C JUMP JUMPDEST SWAP1 POP SWAP2 SWAP1 POP JUMP JUMPDEST PUSH32 0x556E697377617056324C6962726172793A205A45524F5F414444524553530000 PUSH1 0x0 DUP3 ADD MSTORE POP JUMP JUMPDEST PUSH1 0x0 PUSH2 0x21A5 PUSH1 0x1E DUP4 PUSH2 0x17ED JUMP JUMPDEST SWAP2 POP PUSH2 0x21B0 DUP3 PUSH2 0x216F JUMP JUMPDEST PUSH1 0x20 DUP3 ADD SWAP1 POP SWAP2 SWAP1 POP JUMP JUMPDEST PUSH1 0x0 PUSH1 0x20 DUP3 ADD SWAP1 POP DUP2 DUP2 SUB PUSH1 0x0 DUP4 ADD MSTORE PUSH2 0x21D4 DUP2 PUSH2 0x2198 JUMP JUMPDEST SWAP1 POP SWAP2 SWAP1 POP JUMP JUMPDEST PUSH32 0x556E697377617056324C6962726172793A20494E53554646494349454E545F49 PUSH1 0x0 DUP3 ADD MSTORE PUSH32 0x4E5055545F414D4F554E54000000000000000000000000000000000000000000 PUSH1 0x20 DUP3 ADD MSTORE POP JUMP JUMPDEST PUSH1 0x0 PUSH2 0x2237 PUSH1 0x2B DUP4 PUSH2 0x17ED JUMP JUMPDEST SWAP2 POP PUSH2 0x2242 DUP3 PUSH2 0x21DB JUMP JUMPDEST PUSH1 0x40 DUP3 ADD SWAP1 POP SWAP2 SWAP1 POP JUMP JUMPDEST PUSH1 0x0 PUSH1 0x20 DUP3 ADD SWAP1 POP DUP2 DUP2 SUB PUSH1 0x0 DUP4 ADD MSTORE PUSH2 0x2266 DUP2 PUSH2 0x222A JUMP JUMPDEST SWAP1 POP SWAP2 SWAP1 POP JUMP JUMPDEST PUSH32 0x556E697377617056324C6962726172793A20494E53554646494349454E545F4C PUSH1 0x0 DUP3 ADD MSTORE PUSH32 0x4951554944495459000000000000000000000000000000000000000000000000 PUSH1 0x20 DUP3 ADD MSTORE POP JUMP JUMPDEST PUSH1 0x0 PUSH2 0x22C9 PUSH1 0x28 DUP4 PUSH2 0x17ED JUMP JUMPDEST SWAP2 POP PUSH2 0x22D4 DUP3 PUSH2 0x226D JUMP JUMPDEST PUSH1 0x40 DUP3 ADD SWAP1 POP SWAP2 SWAP1 POP JUMP JUMPDEST PUSH1 0x0 PUSH1 0x20 DUP3 ADD SWAP1 POP DUP2 DUP2 SUB PUSH1 0x0 DUP4 ADD MSTORE PUSH2 0x22F8 DUP2 PUSH2 0x22BC JUMP JUMPDEST SWAP1 POP SWAP2 SWAP1 POP JUMP JUMPDEST PUSH1 0x0 PUSH2 0x230A DUP3 PUSH2 0x157B JUMP JUMPDEST SWAP2 POP PUSH2 0x2315 DUP4 PUSH2 0x157B JUMP JUMPDEST SWAP3 POP DUP2 PUSH32 0xFFFFFFFFFFFFFFFFFFFFFFFFFFFFFFFFFFFFFFFFFFFFFFFFFFFFFFFFFFFFFFFF DIV DUP4 GT DUP3 ISZERO ISZERO AND ISZERO PUSH2 0x234E JUMPI PUSH2 0x234D PUSH2 0x1899 JUMP JUMPDEST JUMPDEST DUP3 DUP3 MUL SWAP1 POP SWAP3 SWAP2 POP POP JUMP JUMPDEST PUSH32 0x4E487B7100000000000000000000000000000000000000000000000000000000 PUSH1 0x0 MSTORE PUSH1 0x12 PUSH1 0x4 MSTORE PUSH1 0x24 PUSH1 0x0 REVERT JUMPDEST PUSH1 0x0 PUSH2 0x2393 DUP3 PUSH2 0x157B JUMP JUMPDEST SWAP2 POP PUSH2 0x239E DUP4 PUSH2 0x157B JUMP JUMPDEST SWAP3 POP DUP3 PUSH2 0x23AE JUMPI PUSH2 0x23AD PUSH2 0x2359 JUMP JUMPDEST JUMPDEST DUP3 DUP3 DIV SWAP1 POP SWAP3 SWAP2 POP POP JUMP INVALID LOG2 PUSH5 0x6970667358 0x22 SLT KECCAK256 0xCF ADDMOD COINBASE EXTCODEHASH PUSH11 0xFB178F5DF6496D6504F853 SWAP12 BASEFEE SWAP4 0xB3 0xB8 DELEGATECALL 0xE4 0xB0 0x49 SGT 0xD1 SIGNEXTEND SELFDESTRUCT CALLDATALOAD RETURNDATACOPY INVALID PUSH5 0x736F6C6343 STOP ADDMOD EXP STOP CALLER "
				},
				"gasEstimates": {
					"creation": {
						"codeDepositCost": "1839800",
						"executionCost": "1941",
						"totalCost": "1841741"
					},
					"external": {
						"WETH()": "2558",
						"factory()": "2599",
						"setfactory(address)": "24744",
						"swapExactETHForTokensSupportingFeeOnTransferTokens(uint256,address[],address,uint256)": "infinite",
						"swapExactTokensForETHSupportingFeeOnTransferTokens(uint256,uint256,address[],address,uint256)": "infinite",
						"swapExactTokensForTokensSupportingFeeOnTransferTokens(uint256,uint256,address[],address,uint256)": "infinite"
					},
					"internal": {
						"_swapSupportingFeeOnTransferTokens(address[] memory,address)": "infinite"
					}
				},
				"methodIdentifiers": {
					"WETH()": "ad5c4648",
					"factory()": "c45a0155",
					"setfactory(address)": "ad15cd0d",
					"swapExactETHForTokensSupportingFeeOnTransferTokens(uint256,address[],address,uint256)": "b6f9de95",
					"swapExactTokensForETHSupportingFeeOnTransferTokens(uint256,uint256,address[],address,uint256)": "791ac947",
					"swapExactTokensForTokensSupportingFeeOnTransferTokens(uint256,uint256,address[],address,uint256)": "5c11d795"
				}
			},
			"storageLayout": {
				"storage": [
					{
						"astId": 9,
						"contract": "v2_periphery/UniswapV2Router02Part.sol:UniswapV2Router02Part",
						"label": "factory",
						"offset": 0,
						"slot": "0",
						"type": "t_address"
					},
					{
						"astId": 11,
						"contract": "v2_periphery/UniswapV2Router02Part.sol:UniswapV2Router02Part",
						"label": "WETH",
						"offset": 0,
						"slot": "1",
						"type": "t_address"
					}
				],
				"types": {
					"t_address": {
						"encoding": "inplace",
						"label": "address",
						"numberOfBytes": "20"
					}
				}
			},
			"userdoc": {
				"kind": "user",
				"methods": {},
				"version": 1
			}
		}
	}
}