{
	"v2_periphery/libraries/FixedPoint.sol": {
		"FixedPoint": {
			"abi": [
				{
					"inputs": [],
					"name": "Q112",
					"outputs": [
						{
							"internalType": "uint256",
							"name": "",
							"type": "uint256"
						}
					],
					"stateMutability": "view",
					"type": "function"
				},
				{
					"inputs": [],
					"name": "RESOLUTION",
					"outputs": [
						{
							"internalType": "uint8",
							"name": "",
							"type": "uint8"
						}
					],
					"stateMutability": "view",
					"type": "function"
				}
			],
			"devdoc": {
				"kind": "dev",
				"methods": {},
				"version": 1
			},
			"evm": {
				"assembly": "    /* \"v2_periphery/libraries/FixedPoint.sol\":259:6350  library FixedPoint {\r... */\n  dataSize(sub_0)\n  dataOffset(sub_0)\n  0x0b\n  dup3\n  dup3\n  dup3\n  codecopy\n  dup1\n  mload\n  0x00\n  byte\n  0x73\n  eq\n  tag_1\n  jumpi\n  mstore(0x00, 0x4e487b7100000000000000000000000000000000000000000000000000000000)\n  mstore(0x04, 0x00)\n  revert(0x00, 0x24)\ntag_1:\n  mstore(0x00, address)\n  0x73\n  dup2\n  mstore8\n  dup3\n  dup2\n  return\nstop\n\nsub_0: assembly {\n        /* \"v2_periphery/libraries/FixedPoint.sol\":259:6350  library FixedPoint {\r... */\n      eq(address, deployTimeAddress())\n      mstore(0x40, 0x80)\n      jumpi(tag_1, lt(calldatasize, 0x04))\n      shr(0xe0, calldataload(0x00))\n      dup1\n      0x3bf7a83e\n      eq\n      tag_2\n      jumpi\n      dup1\n      0x552f888a\n      eq\n      tag_3\n      jumpi\n    tag_1:\n      0x00\n      dup1\n      revert\n        /* \"v2_periphery/libraries/FixedPoint.sol\":562:624  uint256 public constant Q112 = 0x10000000000000000000000000000 */\n    tag_2:\n      tag_4\n      tag_5\n      jump\t// in\n    tag_4:\n      mload(0x40)\n      tag_6\n      swap2\n      swap1\n      tag_7\n      jump\t// in\n    tag_6:\n      mload(0x40)\n      dup1\n      swap2\n      sub\n      swap1\n      return\n        /* \"v2_periphery/libraries/FixedPoint.sol\":517:555  uint8 public constant RESOLUTION = 112 */\n    tag_3:\n      tag_8\n      tag_9\n      jump\t// in\n    tag_8:\n      mload(0x40)\n      tag_10\n      swap2\n      swap1\n      tag_11\n      jump\t// in\n    tag_10:\n      mload(0x40)\n      dup1\n      swap2\n      sub\n      swap1\n      return\n        /* \"v2_periphery/libraries/FixedPoint.sol\":562:624  uint256 public constant Q112 = 0x10000000000000000000000000000 */\n    tag_5:\n        /* \"v2_periphery/libraries/FixedPoint.sol\":593:624  0x10000000000000000000000000000 */\n      0x010000000000000000000000000000\n        /* \"v2_periphery/libraries/FixedPoint.sol\":562:624  uint256 public constant Q112 = 0x10000000000000000000000000000 */\n      dup2\n      jump\t// out\n        /* \"v2_periphery/libraries/FixedPoint.sol\":517:555  uint8 public constant RESOLUTION = 112 */\n    tag_9:\n        /* \"v2_periphery/libraries/FixedPoint.sol\":552:555  112 */\n      0x70\n        /* \"v2_periphery/libraries/FixedPoint.sol\":517:555  uint8 public constant RESOLUTION = 112 */\n      dup2\n      jump\t// out\n        /* \"#utility.yul\":7:133   */\n    tag_13:\n        /* \"#utility.yul\":102:126   */\n      tag_15\n        /* \"#utility.yul\":120:125   */\n      dup2\n        /* \"#utility.yul\":102:126   */\n      tag_16\n      jump\t// in\n    tag_15:\n        /* \"#utility.yul\":97:100   */\n      dup3\n        /* \"#utility.yul\":90:127   */\n      mstore\n        /* \"#utility.yul\":7:133   */\n      pop\n      pop\n      jump\t// out\n        /* \"#utility.yul\":139:259   */\n    tag_17:\n        /* \"#utility.yul\":230:252   */\n      tag_19\n        /* \"#utility.yul\":246:251   */\n      dup2\n        /* \"#utility.yul\":230:252   */\n      tag_20\n      jump\t// in\n    tag_19:\n        /* \"#utility.yul\":225:228   */\n      dup3\n        /* \"#utility.yul\":218:253   */\n      mstore\n        /* \"#utility.yul\":139:259   */\n      pop\n      pop\n      jump\t// out\n        /* \"#utility.yul\":265:503   */\n    tag_7:\n        /* \"#utility.yul\":366:370   */\n      0x00\n        /* \"#utility.yul\":404:406   */\n      0x20\n        /* \"#utility.yul\":393:402   */\n      dup3\n        /* \"#utility.yul\":389:407   */\n      add\n        /* \"#utility.yul\":381:407   */\n      swap1\n      pop\n        /* \"#utility.yul\":417:496   */\n      tag_22\n        /* \"#utility.yul\":493:494   */\n      0x00\n        /* \"#utility.yul\":482:491   */\n      dup4\n        /* \"#utility.yul\":478:495   */\n      add\n        /* \"#utility.yul\":469:475   */\n      dup5\n        /* \"#utility.yul\":417:496   */\n      tag_13\n      jump\t// in\n    tag_22:\n        /* \"#utility.yul\":265:503   */\n      swap3\n      swap2\n      pop\n      pop\n      jump\t// out\n        /* \"#utility.yul\":509:739   */\n    tag_11:\n        /* \"#utility.yul\":606:610   */\n      0x00\n        /* \"#utility.yul\":644:646   */\n      0x20\n        /* \"#utility.yul\":633:642   */\n      dup3\n        /* \"#utility.yul\":629:647   */\n      add\n        /* \"#utility.yul\":621:647   */\n      swap1\n      pop\n        /* \"#utility.yul\":657:732   */\n      tag_24\n        /* \"#utility.yul\":729:730   */\n      0x00\n        /* \"#utility.yul\":718:727   */\n      dup4\n        /* \"#utility.yul\":714:731   */\n      add\n        /* \"#utility.yul\":705:711   */\n      dup5\n        /* \"#utility.yul\":657:732   */\n      tag_17\n      jump\t// in\n    tag_24:\n        /* \"#utility.yul\":509:739   */\n      swap3\n      swap2\n      pop\n      pop\n      jump\t// out\n        /* \"#utility.yul\":745:822   */\n    tag_16:\n        /* \"#utility.yul\":782:789   */\n      0x00\n        /* \"#utility.yul\":811:816   */\n      dup2\n        /* \"#utility.yul\":800:816   */\n      swap1\n      pop\n        /* \"#utility.yul\":745:822   */\n      swap2\n      swap1\n      pop\n      jump\t// out\n        /* \"#utility.yul\":828:914   */\n    tag_20:\n        /* \"#utility.yul\":863:870   */\n      0x00\n        /* \"#utility.yul\":903:907   */\n      0xff\n        /* \"#utility.yul\":896:901   */\n      dup3\n        /* \"#utility.yul\":892:908   */\n      and\n        /* \"#utility.yul\":881:908   */\n      swap1\n      pop\n        /* \"#utility.yul\":828:914   */\n      swap2\n      swap1\n      pop\n      jump\t// out\n\n    auxdata: 0xa26469706673582212200dee936d857d9cc568ef289b0c45812ab91d7d742c1811bf85d27d075807b1dd64736f6c63430008070033\n}\n",
				"bytecode": {
					"linkReferences": {},
					"object": "610127610053600b82828239805160001a607314610046577f4e487b7100000000000000000000000000000000000000000000000000000000600052600060045260246000fd5b30600052607381538281f3fe7300000000000000000000000000000000000000003014608060405260043610603d5760003560e01c80633bf7a83e146042578063552f888a14605c575b600080fd5b60486076565b6040516053919060a8565b60405180910390f35b60626089565b604051606d919060c1565b60405180910390f35b6e01000000000000000000000000000081565b607081565b60958160da565b82525050565b60a28160e4565b82525050565b600060208201905060bb6000830184608e565b92915050565b600060208201905060d46000830184609b565b92915050565b6000819050919050565b600060ff8216905091905056fea26469706673582212200dee936d857d9cc568ef289b0c45812ab91d7d742c1811bf85d27d075807b1dd64736f6c63430008070033",
					"opcodes": "PUSH2 0x127 PUSH2 0x53 PUSH1 0xB DUP3 DUP3 DUP3 CODECOPY DUP1 MLOAD PUSH1 0x0 BYTE PUSH1 0x73 EQ PUSH2 0x46 JUMPI PUSH32 0x4E487B7100000000000000000000000000000000000000000000000000000000 PUSH1 0x0 MSTORE PUSH1 0x0 PUSH1 0x4 MSTORE PUSH1 0x24 PUSH1 0x0 REVERT JUMPDEST ADDRESS PUSH1 0x0 MSTORE PUSH1 0x73 DUP2 MSTORE8 DUP3 DUP2 RETURN INVALID PUSH20 0x0 ADDRESS EQ PUSH1 0x80 PUSH1 0x40 MSTORE PUSH1 0x4 CALLDATASIZE LT PUSH1 0x3D JUMPI PUSH1 0x0 CALLDATALOAD PUSH1 0xE0 SHR DUP1 PUSH4 0x3BF7A83E EQ PUSH1 0x42 JUMPI DUP1 PUSH4 0x552F888A EQ PUSH1 0x5C JUMPI JUMPDEST PUSH1 0x0 DUP1 REVERT JUMPDEST PUSH1 0x48 PUSH1 0x76 JUMP JUMPDEST PUSH1 0x40 MLOAD PUSH1 0x53 SWAP2 SWAP1 PUSH1 0xA8 JUMP JUMPDEST PUSH1 0x40 MLOAD DUP1 SWAP2 SUB SWAP1 RETURN JUMPDEST PUSH1 0x62 PUSH1 0x89 JUMP JUMPDEST PUSH1 0x40 MLOAD PUSH1 0x6D SWAP2 SWAP1 PUSH1 0xC1 JUMP JUMPDEST PUSH1 0x40 MLOAD DUP1 SWAP2 SUB SWAP1 RETURN JUMPDEST PUSH15 0x10000000000000000000000000000 DUP2 JUMP JUMPDEST PUSH1 0x70 DUP2 JUMP JUMPDEST PUSH1 0x95 DUP2 PUSH1 0xDA JUMP JUMPDEST DUP3 MSTORE POP POP JUMP JUMPDEST PUSH1 0xA2 DUP2 PUSH1 0xE4 JUMP JUMPDEST DUP3 MSTORE POP POP JUMP JUMPDEST PUSH1 0x0 PUSH1 0x20 DUP3 ADD SWAP1 POP PUSH1 0xBB PUSH1 0x0 DUP4 ADD DUP5 PUSH1 0x8E JUMP JUMPDEST SWAP3 SWAP2 POP POP JUMP JUMPDEST PUSH1 0x0 PUSH1 0x20 DUP3 ADD SWAP1 POP PUSH1 0xD4 PUSH1 0x0 DUP4 ADD DUP5 PUSH1 0x9B JUMP JUMPDEST SWAP3 SWAP2 POP POP JUMP JUMPDEST PUSH1 0x0 DUP2 SWAP1 POP SWAP2 SWAP1 POP JUMP JUMPDEST PUSH1 0x0 PUSH1 0xFF DUP3 AND SWAP1 POP SWAP2 SWAP1 POP JUMP INVALID LOG2 PUSH5 0x6970667358 0x22 SLT KECCAK256 0xD 0xEE SWAP4 PUSH14 0x857D9CC568EF289B0C45812AB91D PUSH30 0x742C1811BF85D27D075807B1DD64736F6C63430008070033000000000000 "
				},
				"gasEstimates": {
					"creation": {
						"codeDepositCost": "59000",
						"executionCost": "136",
						"totalCost": "59136"
					},
					"external": {
						"Q112()": "291",
						"RESOLUTION()": "319"
					},
					"internal": {
						"decode(struct FixedPoint.uq112x112 memory)": "infinite",
						"decode144(struct FixedPoint.uq144x112 memory)": "infinite",
						"divuq(struct FixedPoint.uq112x112 memory,struct FixedPoint.uq112x112 memory)": "infinite",
						"encode(uint112)": "infinite",
						"encode144(uint144)": "infinite",
						"fraction(uint256,uint256)": "infinite",
						"mul(struct FixedPoint.uq112x112 memory,uint256)": "infinite",
						"muli(struct FixedPoint.uq112x112 memory,int256)": "infinite",
						"muluq(struct FixedPoint.uq112x112 memory,struct FixedPoint.uq112x112 memory)": "infinite",
						"reciprocal(struct FixedPoint.uq112x112 memory)": "infinite",
						"sqrt(struct FixedPoint.uq112x112 memory)": "infinite"
					}
				},
				"methodIdentifiers": {
					"Q112()": "3bf7a83e",
					"RESOLUTION()": "552f888a"
				}
			},
			"storageLayout": {
				"storage": [],
				"types": null
			},
			"userdoc": {
				"kind": "user",
				"methods": {},
				"version": 1
			}
		}
	}
}